:020000040800F2
:10000000D009002099020008934D0008473F0008DE
:10001000914D0008C5170008215B00080000000092
:10002000000000000000000000000000A1510008D6
:100030008318000800000000E94D0008A3510008E3
:10004000B3020008B3020008B3020008B3020008BC
:10005000B3020008B3020008B3020008B3020008AC
:10006000B3020008B3020008B3020008C917000871
:10007000D5170008B3020008B3020008B302000855
:10008000B302000800000000B3020008B302000839
:10009000B3020008B3020008B3020008B30200086C
:1000A000B3020008B3020008B3020008B30200085C
:1000B000B3020008B3020008B3020008B30200084C
:1000C000B3020008B3020008B3020008B30200083C
:1000D000B3020008055A0008B3020008B302000882
:1000E000B3020008B3020008B3020008B30200081C
:1000F000B3020008B3020008B302000800000000C9
:1001000000000000B302000800000000B302000875
:10011000B30200080000000075520008B302000896
:10012000B3020008B3020008B3020008B3020008DB
:10013000B30200080000000000000000B302000845
:10014000B3020008B3020008000000000000000035
:10015000000000000000000000000000000000009F
:10016000000000000000000000000000B3020008D2
:10017000B3020008000000000000000000000000C2
:1001800000000000B30200080000000000000000B2
:10019000000000000000000000000000000000005F
:1001A0000000000000000000B3020008B3020008D5
:1001B000B3020008B3020008B30200080000000008
:1001C00000000000B3020008000000000000000072
:1001D000B3020008B302000800F002F800F04CF887
:1001E0000AA090E8000C82448344AAF10107DA4592
:1001F00001D100F041F8AFF2090EBAE80F0013F098
:10020000010F18BFFB1A43F001031847906D00005F
:10021000B06D0000103A24BF78C878C1FAD85207F0
:1002200024BF30C830C144BF04680C607047000070
:100230000023002400250026103A28BF78C1FBD8EF
:10024000520728BF30C148BF0B607047662905F0D0
:100250004785642900F0F480002070471FB505F041
:100260003AFD00F075FC04000020002105F0A6FC1A
:10027000E0601FBD10B510BD00F06AFD1146FFF72C
:10028000EDFF05F083FC00F088FD03B4FFF7F2FFFB
:1002900003BC00F0CBFD0000094880470948004737
:1002A000FEE7FEE7FEE7FEE7FEE7FEE7FEE7FEE726
:1002B000FEE7FEE704480549054A064B7047000083
:1002C0000D520008D9010008D0030020D0090020F9
:1002D000D0050020D005002053EA020C00F0698010
:1002E0002DE9F04B4FF00006002B1FBFB3FA83F54A
:1002F00003FA05F424FA05F65E4012BF1643B2FA7B
:1003000082F502FA05F4C5F120051EBF22FA05FCAC
:1003100044EA0C04203556EA044C4FEA144418BF52
:10032000641C4FF000084FF00009904271EB030C81
:1003300039D3002919BFB1FA81F701FA07F6B0FAEB
:1003400080F700FA07F6C7F120071EBF20FA07FC66
:1003500046EA0C062037B6FBF4FCA7EB0507103F76
:1003600007F01F0BCBF120060CFA0BFB2CFA06F65C
:1003700044BFB3460026202FA4BF5E464FF0000BBB
:100380005BEA060C08BF4FF0010B19EB0B09ABFB46
:10039000027C48EB0608C01B06FB02CC0BFB03CC1F
:1003A00071EB0C01C1E70B46024641464846BDE8E9
:1003B000F08B13B54FF000004FF00001AFF3008059
:1003C000BDE81C40704700000FB41CB5074B06AADF
:1003D0007B4469460090059800F0A1FB0020694627
:1003E00000F0B0FB1CBC5DF814FB000071070000BE
:1003F00070B5044685690068C10601D5302600E065
:100400002026C00707D070BDD4E9012130469047AF
:10041000206A401C20626D1EF6D570BD70B5044682
:1004200085690078C00707D170BDD4E9012120207B
:100430009047206A401C20626D1EF6D570BD0000FA
:100440002DE9F0410646002410687529314616A5AD
:1004500010D0AFF30080002802DA404213A507E075
:1004600031688A0701D512A502E0490704D511A514
:10047000012401E0AFF3008000210A2206F12407E5
:1004800009E0B0FBF2FCB0FBF2F302FB1C003030E1
:1004900078541846491C0028F3D123462A46304692
:1004A000BDE8F04100F0CEB8000000002D000000D3
:1004B0002B000000200000002DE9F05F8946044673
:1004C0004FF0000ADFF824B1FB44C0F820A020461A
:1004D000E168884700287DD0252806D0D4E901218D
:1004E0009047206A401C2062F1E700255F462046C5
:1004F000E16888472028064607DB312E05D2B81967
:1005000010F8200C08B10543F1E7A80701D525F044
:100510000405C4F81CA00027C4F818A02A2E09D08E
:10052000304605F026FB38B304EB8708303EC8F8A8
:10053000186019E059F8041B204604EB870291610A
:10054000E1688847012F064618D1E069002820DAC3
:1005500025F020051DE0D8F8180000EB800006EB20
:1005600040003038C8F818002046E1688847064641
:1005700005F0FFFA0028EED1012F0AD02E2E08D167
:100580002046E16888477F1C0646022F45F020057B
:10059000C4DBA069002803DA404245F00105A061F0
:1005A000E80701D025F01005A6B1A6F141001928F1
:1005B00002D8203645F400654A463146204625607B
:1005C0004D46FFF743FE60B1012807D0ED1D25F031
:1005D000070000E007E000F1080978E705F10409E9
:1005E00075E730467AE7206ABDE8F09F286A000088
:1005F0004FF0000200B5134694469646203922BFBC
:10060000A0E80C50A0E80C50B1F12001BFF4F7AF06
:10061000090728BFA0E80C5048BF0CC05DF804EBE8
:10062000890028BF40F8042B08BF704748BF20F856
:10063000022B11F0804F18BF00F8012B7047704754
:10064000704770472DE9F0470D469946924604469B
:1006500000F124080168880604D5E06921F0100142
:10066000216000E00120A84201DD471B00E00027D7
:10067000A1697A1902EB0900081AA0612078C00666
:1006800002D42046FFF7B4FE002608E0D4E9012199
:100690001AF806009047206A401C761C20624E45DE
:1006A000F4DB2078C0060AD52046FFF7A1FE06E05D
:1006B000D4E9012130209047206A401C2062381E76
:1006C000A7F10107F4DC07E0D4E9012118F80500DF
:1006D0009047206A401C2062281EA5F10105F3DC2A
:1006E0002046FFF79BFE2078000602D50220BDE8D9
:1006F000F0870120FBE770472DE9FF4F0C461E46AF
:100700004FF0FF378BB0D2E90001DDF860800A902E
:100710008A46C1F30A5505B93D46002108464FF007
:100720000000BAF1000F00F4400005DA00EB800091
:100730004FF4400101EA50004FEA9059B9F1010F1E
:1007400000DDB9460A9850EA4A000ED044F610502F
:10075000A5F2FF3545432F14B8F1000F1ED07542A6
:10076000291E1EDDC9F100021CE0B8F1010F4FF097
:10077000000001D0302103E0F24305E02154401C89
:10078000B042FBDB30460022002121540B99C1F816
:100790000880C1E900200FB0BDE8F08FBD1B6D1CC3
:1007A000DEE74A4600DA694206A800F05BFA06ABCB
:1007B00093E8070003AB83E8070050460A9900F06E
:1007C0003CFB8DE80700A0F500501F38009003980F
:1007D000002D0ADD42F21F014A460844002303A906
:1007E0000390684600F0A5FD09E0A0F500504A46D8
:1007F0001F38002303A90390684600F0AFFD8DE881
:1008000007000004000C03D04FF0FF30410800E067
:100810001046B8F1000F03D00022009215461EE0EA
:10082000751E05D400F098F9303262556D1EF9D569
:10083000B3460122084302D000227F1C04E0207846
:10084000302801D100227F1E002A099784D01DE0A4
:10085000112D07DA00F080F9303262556D1C50EA34
:100860000102F5D1084302D00098C8B10EE0002182
:10087000681E05E0235C625C63542254401E491CE0
:100880008142F7DBAB46A81B401E0990002004F80C
:100890000B000B98099AC0F80880C0E9002B7AE792
:1008A00011264FF0000857E72DE9F04F884604461F
:1008B000D21D22F0070191B0D1E90001CDE90A0172
:1008C00005F02FF902460B98C00F01D02D2007E04C
:1008D0002068810701D52B2002E0202101EAC00019
:1008E000032A099001D0072A05DB0346414620462A
:1008F00000F078F90BE12078800601D5E06900E08E
:100900000620B8F1650F814606D0B8F1660F18D001
:10091000B8F1670F70D131E00020B9F1110F0090EC
:1009200001DB112301E009F101030AAA01A90CA8C6
:10093000FFF7E2FEDDE90C70002609F101058346B0
:1009400047E001204B4600904FF000470AAA01A95A
:100950000CA8FFF7D1FEDDE90DB00C995D4600262D
:1009600010B909F101000D18B9EB050003D4C0F16D
:10097000FF3609F10105A5EB09002BE0B9F1010FE4
:1009800001DA4FF001090020B9F1110F009048463B
:1009900001DD112300E003460AAA01A90CA8FFF714
:1009A000ABFEDDE90C704D4600268346207800073B
:1009B0000AD4AB4500DA5D4601A8012D04DD4119DA
:1009C00011F8011C302907D04F4502DA17F1040F46
:1009D00004DA012082460FE06D1EEEE7002F02DCF4
:1009E000ED1B3E4403E0781CA84200DD7D1CB81BD3
:1009F00000F1010A4FF000472078000703D4AA4510
:100A000001DB4FF0FF3A0021B7F1004F0DF1430831
:100A10008DF8431024D002202B23002F01DA7F42CF
:100A20002D230A21021EA0F1010000DC5FB197FB1B
:100A3000F1FC97FBF1F201FB1C7C17460CF1300C2A
:100A400008F801CDEEE7A8F101000370218809053F
:100A500001D5452100E06521A0F1010800F8011C45
:100A600009980FA9A1EB0807FF1D00B1012041194A
:100A700001EBEA70A1693844081A401EA061207891
:100A8000C00602D42046FFF7B3FC099828B1D4E988
:100A900001219047206A401C20622078C00622D5A0
:100AA0002046FFF7A5FC1EE0002E04DBB34502DD67
:100AB00001A8805D00E03020D4E901219047206A40
:100AC000401C2062761CAAF101005FEA000A0AD1EC
:100AD00000F03EF8C0680168405CD4E9012190470D
:100AE000206A401C2062281EA5F10105DCDC07E01D
:100AF000D4E9012118F8010B9047206A401C2062BC
:100B0000381EA7F10107F3DC2046FFF787FC03201E
:100B100011B041E601694A1C02610878704700B5CE
:100B20008FB0CDE901310021059105497944CDE926
:100B3000031011466846FFF7BFFC0FB000BD000070
:100B4000E5FFFFFF0A6802F8010B0A60704700002A
:100B5000004870479003002030B5B0F10A024FEA18
:100B6000900E71F100034EEA817EB0EB0E0061EB56
:100B700091014FEA101E4EEA017E10EB0E0041EB90
:100B800011114FEA102E4EEA016E10EB0E0041EBF0
:100B900011214FEA104E4EEA014E10EB0E0041EBD0
:100BA0001141401841F100014FEAD00040EA417084
:100BB0004FEAD10110EB80054FEA810444EA9074BA
:100BC00044EB01046D1944EB0404521BA3414FF0A4
:100BD000000348BF0A3200D530BD401C41F100017E
:100BE00030BD00002DE9F0411F4604460326016890
:100BF000072A01F4006004DB08B116A505E016A57C
:100C000003E008B115A500E015A521F01000206053
:100C1000A069C01EA0610FB1401EA0612046FFF771
:100C2000E7FB4FB1D4E9012138469047206A401CC8
:100C30002062C01C206206E0206AFAE7D4E90121A4
:100C400015F8010B9047761EF8D22046FFF7E6FB19
:100C5000BDE8F0814E414E006E616E00494E460087
:100C6000696E66002DE9F047814616468AB0354820
:100C700078440DC88DE80D0032487844801C03ACE0
:100C80000DC884E80D0041F69B300844372190FBE5
:100C9000F1F290FBF1F5A5F1800501FB12041B3C7C
:100CA00002D56442012000E00020DFF898A08046D1
:100CB0000027FA44AAF1BE0A0EE0E0070AD0324645
:100CC000684607EB470101230AEB810100F046FB70
:100CD0008DE8070064107F1C002CEED1194F7F4473
:100CE000AE3F19E0E80715D007EB04100DF1180A24
:100CF00090E80E008AE80E00C068F04201D1981911
:100D000008903246012306A903A800F027FB03AB95
:100D100083E807006D10641C002DE3D14FF0010340
:100D200032466946B8F1000F03A802D000F001FB7B
:100D300001E000F013FBC9E90001C9F808200AB07E
:100D4000BDE8F08710630000004870477003002082
:100D50007546FFF7F9FFAE4605006946534620F099
:100D60000700854618B020B5FFF7A4FABDE820407B
:100D70004FF000064FF000074FF000084FF0000B57
:100D800021F00701AC46ACE8C009ACE8C009ACE80A
:100D9000C009ACE8C0098D46704710B50446AFF3F2
:100DA00000802046BDE81040FFF76FBA4FF0013CCD
:100DB00050F8042B51F8043B9A4221D1A2EB0C03CA
:100DC000934313EACC1317D150F8042B51F8043B8A
:100DD0009A4215D1A2EB0C03934313EACC130BD127
:100DE00050F8042B51F8043B9A4209D1A2EB0C03B2
:100DF000934313EACC13DBD04FF00000704700BFE1
:100E0000D01A01BAB1FA81F101F0180122FA01F009
:100E1000CB40C1F12001DBB2C0B2C01A2CFA01F301
:100E2000D11A914311EAC311E6D170470149182044
:100E3000ABBEFEE72600020070475FEA400C08BF29
:100E400091F0000F4FEA8C234FEAC12243EA51513F
:100E50004FEA1C5018BF00F5F0404FEA300018BFB1
:100E600041F000415FEA6C5C00F02980BCF1FF3F7B
:100E700008BF40F080407047130C06BF12044FF0CB
:100E8000100C4FF0000C130E04BF12020CF1080CF2
:100E9000130F04BF12010CF1040C930F04BF920056
:100EA0000CF1020CD30F04BF52000CF1010C1146DF
:100EB0004FF00002A0F11F00A0EB0C00704711F0F2
:100EC000004F08BF704731F000413FF4D5AF0B0C25
:100ED00006BF09044FF0100C4FF0000C0B0E04BFBE
:100EE00009020CF1080C0B0F04BF09010CF1040CF2
:100EF0008B0F04BF89000CF1020CCB0F04BF49001B
:100F00000CF1010CCCF12003A0EB0C0022FA03F34E
:100F100002FA0CF241EA030100F10100704720F0EF
:100F20007F4C80EA030023F07F47ACEB070303F517
:100F30007C5300F0004003F1FF032DE980494FEAA4
:100F4000154B09B44FEA144325EA0B4E24EA034833
:100F50000FF2042606EB132749083E785FEA3202B7
:100F600003FB0667C7F5000707FB06F64FEA543791
:100F70004FEAD64606F1020607FB066CCCF1005C90
:100F80004FEA1C472CEA074C07FB06F40CFB06F55E
:100F900004EB15464FEA961634BF00204FF0004090
:100FA0004FEAD13706FB07FC4FEA1C4C0CFB0BF752
:100FB000D21B03FB0CF761EB07010CFB0EF7B0EB48
:100FC000074072EB17420CFB08F734BFA2EB074255
:100FD000B2EB074261EB17414FEA0C444FEA91072D
:100FE00006FB07FC4FEA1C4C0CFB0BF7B0EBC740B1
:100FF00072EB573203FB0CF734BFA2EBC742B2EBE4
:10100000C74261EB57310CFB0EF7B0EBC70072EB38
:1010100057720CFB08F734BFA2EBC702B2EBC70252
:1010200061EB5771039F4FEA816141EA921104EB32
:10103000CC044FEAD1374FEA826206FB07FC42EA52
:1010400090124FEA80604FEA1C4C0CFB0BF7D21B4E
:1010500003FB0CF761EB07010CFB0EF7B0EB07404D
:1010600072EB17420CFB08F734BFA2EB0742B2EB5E
:10107000074261EB17414FEA8C554FEA910704EBA9
:101080009C2406FB07FC4FEA1C4C0CFB0BF7B0EB57
:10109000C74072EB573203FB0CF734BFA2EBC742D9
:1010A000B2EBC74261EB57310CFB0EF7B0EBC70058
:1010B00072EB57720CFB08F734BFA2EBC702B2EB1E
:1010C000C70261EB577115EB4C254FEA816141EA8C
:1010D00092114FEA82624FEAD13742EA901206FB40
:1010E00007FC44F100044FEA80604FEA1C4C0CFB03
:1010F0000BF7D21B03FB0CF761EB07010CFB0EF7A0
:10110000B0EB074072EB17420CFB08F734BFA2EBC1
:101110000742B2EB074261EB174115EB1C154FEA92
:10112000813141EA92414FEA823242EA90424FEAEB
:1011300080304FEA0C7644F1000448EA03434EEA5B
:101140000B484FF0000EB2EB080C71EB030724BF05
:10115000624639464EEB0E0E4FF0000B001852411E
:1011600049414BEB0B0BB2EB080C71EB03077BF126
:10117000000B24BF624639464EEB0E0E4FF0000BBB
:101180000018524149414BEB0B0BB2EB080C71EBD1
:1011900003077BF1000B24BF624639464EEB0E0E6F
:1011A00051EA020718BF46F0010616EB0E7655F11C
:1011B000000254F1000103D5BDE88901BDE80088B3
:1011C000BDE88901BDE80048B619524141EB010173
:1011D000A3F10103704780807F7E7D7C7B7A7978E4
:1011E000777676757473727171706F6E6E6D6C6CEC
:1011F0006B6A6A696868676666656464636362618E
:101200006160605F5F5E5E5D5D5C5C5B5B5A5A590E
:10121000595858575756565555555454535352527A
:101220005251515050504F4F4F4E4E4D4D4D4C4CD2
:101230004C4B4B4B4A4A4A4949494848484747471B
:101240004746464645454544444444434343434258
:10125000424242414141002B9C4630D477002BD082
:101260001CB54FEA370703B44FF010004FF01001E0
:10127000BAF1000F06D0BCF1000FDCBF40F008004F
:1012800040F008014FF000000FBCBDE810400BF12A
:10129000010BBBF1010F08BF5FEA170722BF12F174
:1012A000010211F101014FF0004143F1000300F090
:1012B000004043EA00007047F9D35708D0E746EAF8
:1012C000064613F1400F4FEA16461FDD13F1200FBB
:1012D000DFBF16430A46002120335B42BED0C3F174
:1012E000200746EA064602FA07F74FEA164646EA9C
:1012F0000706C3F1200722FA03F201FA07F721FAE1
:1013000003F14FF0000342EA0702A7E746EA0206AC
:1013100046EA06464FEA164646EA0106BCBF46EADA
:101320000646360C4FF000034FF000024FF000016C
:1013300094E72DE9804C9A46934670B491E83800C2
:1013400007C831EA400C48BF34EA430C03D5FFF725
:10135000E6FDFFF780FFF0BCBDE8008C2DE9804C76
:101360009A46934670B491E8380007C810F0804F51
:1013700008BF13F0804F03D100F005F8FFF76BFFB3
:10138000F0BCBDE8008C20F07F4780EA030023F02A
:101390007F4C07EB0C03A3F57C5300F00040A3F156
:1013A000FE0392F0000F00F0B38095F0000F00F004
:1013B00077802DE901494FEA11404FEA144621EAAE
:1013C000004800FB06FC24EA064708FB06F607FB7C
:1013D00008F800FB07F718EB06484CEB164C4FEAF1
:1013E000124B18EB07484FEA15464CEB174022EA20
:1013F0000B4E0BFB06FC25EA06470EFB06F607FB29
:101400000EFE0BFB07F71EEB064E4CEB164C4FF097
:1014100000061EEB074E4CEB174B18EB0B0840F188
:10142000000018EB0E0B58EB000840F100008F1A7B
:101430004FF000013CBFC943661B14BFB5EB040C61
:1014400000213CBFC943F61B4FEA17444EEA8E0EFB
:1014500027EA04454FEA1C4704FB07622CEA074CC5
:1014600005FB07F70CFB05F604FB0CFC16EB074627
:1014700042EB174216EB0C4642EB1C421BEB0606F6
:1014800058EB0202414146EA9E0601D5BDE80189BA
:10149000B619524141EB0101A3F10103BDE80189F5
:1014A0004FEA14454FEA114724EA054621EA074C62
:1014B00005FB07F406FB07F70CFB06F105FB0CFC2C
:1014C00011EB074144EB17444FEA124711EB0C4173
:1014D00044EB1C4422EA074C05FB07F206FB07F726
:1014E0000CFB06F605FB0CFC16EB074642EB17421D
:1014F00016EB0C4642EB1C456A1854F1000148BF3C
:101500007047B619524141EB0101A3F10103704745
:1015100095F0000F37D04FEA11424FEA144721EA05
:10152000024624EA074C02FB07F106FB07F70CFB17
:1015300006F402FB0CFC14EB074441EB17414FEAA5
:10154000154714EB0C4441EB1C4125EA074C02FB08
:1015500007F506FB07F70CFB06F602FB0CFC16EB87
:10156000074645EB174516EB0C4645EB1C42121996
:1015700051F1000148BF7047B619524141EB0101DA
:10158000A3F1010370474FEA14454FEA114724EADB
:10159000054621EA074C05FB07F106FB07F70CFBA4
:1015A00006F24FF0000605FB0CFC12EB074241EB84
:1015B000174112EB0C4251EB1C4148BF7047921887
:1015C00041EB0101A3F10103704710B5846AE16D9D
:1015D00011F0500F06D0E16DC90625D5204600F068
:1015E000EDFC10BDE06D40F40070E065206801681E
:1015F000090716D503F038FA78B12068C06880046E
:1016000000280ADBE06D20F48070E065E06DC00426
:1016100003D4E06D40F00100E065204600F0CCFC12
:1016200010BDC0688007EBE7616D496BBDE81040F5
:10163000084710B5806AC16D41F04001C165016E77
:1016400041F00401016600F0B9FC10BD10B5806ADC
:1016500000F0B3FC10BD000070B50446006881685E
:101660008268C1F3400112F0010F28D039BB8168B4
:1016700001F00D01012914D18168124A1140891C21
:10168000816021680320086001F026F9054612E018
:1016900001F022F9401B02280DD920688068C0079C
:1016A00009D0E06D40F01000E065206E40F00100D0
:1016B0002066012070BD20688068C007E8D1002046
:1016C00070BD0000C0FFFF7F70B5044600688168F0
:1016D00011F0010F2DD18168174A11421AD181688A
:1016E000D5432940491C816001F0F6F806461BE00D
:1016F000816811F0010F03D181682940491C816084
:1017000001F0EAF8801B02280ED920680068C04367
:10171000C00709D0E06D40F01000E065206E40F099
:1017200001002066012070BD20680168C943C90717
:10173000DED1002070BD00003F000080F0B51E49E2
:10174000002200231846C2F10A060FE001EB800CCC
:1017500051F82040DCF80470BC4205D941F82070F3
:101760005B1CDBB2CCF80440401CC0B28642EDDC0E
:101770001BB1521CD2B20A2AE3D3012051F8202017
:10178000401CC0B215440928F8D3E80800EE100A3E
:10179000DFED0A0A0848B8EE400AD438064920EEC0
:1017A000200ADFED070A20EE200A80ED010A012061
:1017B000E0394871F0BD0000480300203333534046
:1017C00000008039FEE70000014800F03ABE00004A
:1017D00098000020014800F034BE000008020020FC
:1017E0000D4902688A4201D20C4901E00B492031BF
:1017F000D2B21423083AB2FBF3F2436C02F01F0298
:1018000023F003031944816404498031C164012138
:101810009140016570470000080402400008024042
:101820000179074A02EB81024265054A4432491EAA
:10183000826501F01F0201219140C16570470000DF
:10184000FC08024030B5D0E913456560446D14B121
:10185000D0E91645656090F8444004F01F05012466
:10186000AC40056C6C60046863608368102B03688F
:1018700003D099600068C26030BD9A600068C160A2
:1018800030BD7047002240F6B83306E00021491C05
:1018900089B29942FBD3521C92B28242F6D370476E
:1018A00070B515460C46064602F0E2FBA02002F099
:1018B000A0FB02F013FC304602F09BFB02F00EFC92
:1018C00002F0D6FBA12002F094FB02F007FC09E035
:1018D00002F050FB04F8010B15B102F072FB01E0BD
:1018E00002F0AEFB6D1EEDB2F2D202F0DCFBBDE801
:1018F00070400A2000F0A8BE70B516460D4604469A
:1019000002F0B6FBA02002F074FB02F0E7FB2046D9
:1019100002F06FFB02F0E2FB0AE000BF15F8010BDA
:1019200002F067FB02F0DAFB641CE4B2600702D04D
:10193000761EF6B2F2D202F0B6FBBDE870400A2085
:1019400000F082BE72B6FEE72DE9F0475B4E00273D
:10195000307878B13770307930B100203071B7719C
:1019600020B102F0A9FD05E00120F7E703F026FA17
:1019700002F042FD7078524DD0B17770B1790120FC
:1019800029B1012908D002290CD0032910D1B07146
:10199000688940F010000AE00220B071688940F0C8
:1019A000400004E00320B071688940F480706881D1
:1019B0004248B278183000F1500A00F1780900F17D
:1019C000A008A0F10C04002A39D0B770B1795F20CB
:1019D000012904D0022912D0032930D11FE0617AF5
:1019E000491DC9B261725F2900D36072627A35A164
:1019F0005046FEF7E9FC688940F010001EE0A17A2D
:101A0000491DC9B2A1725F2900D3A072A27A33A185
:101A10004846FEF7D9FC688940F040000EE0E17AC4
:101A2000491DC9B2E1725F2900D3E072E27A31A1A7
:101A30004046FEF7C9FC688940F480706881F07800
:101A4000002838D0F770B1790520012913D0022978
:101A500021D003292FD1E17A491FC9B2E1720529AA
:101A600000D8E072E27A23A14046FEF7ADFC688917
:101A700040F480701EE0617A491FC9B26172052985
:101A800000D86072627A0FA15046FEF79DFC68890B
:101A900040F010000EE0A17A491FC9B2A1720529D9
:101AA00000D8A072A27A0DA14846FEF78DFC688985
:101AB00040F040006881BDE8F08700006802002027
:101AC0001A00002020205468726573686F6C6431BE
:101AD0003A25303264636D202020000020205468B5
:101AE000726573686F6C64323A25303264636D20BE
:101AF0002020000020205468726573686F6C643386
:101B00003A25303264636D2020200000F8B50026AD
:101B10000446009690F858000D4601280BD001208D
:101B200084F858002046FFF797FD0100E06D04D0CF
:101B300040F010002AE00220F8BD20F4885040F068
:101B40000200E06520688268134B1A4005F080436C
:101B50001A4342F000428260104A20680EE0009B67
:101B60005B1C0093934209D3E06D20F0020040F02B
:101B70001000E06584F858600120F8BD8368DB0F31
:101B8000EDD1E06D20F0020040F00100E06584F846
:101B900058600846F8BD0000C0FFFF3F02DE0400A9
:101BA0002DE9F84F00270446009790F85800DFF819
:101BB000D8930D46B846012811D0012684F8586004
:101BC000206802F04DFF60B1E06D40F02000E0655C
:101BD0005FF0010784F858803846BDE8F88F02208E
:101BE000FBE7D5E900210C23206803EA9113184490
:101BF000036B01F01F014FF01F0C0CFA01FCC2F344
:101C0000846223EA0C038A4013430363206802F0D2
:101C100027FF8246206802F01FFF5AEA00003CD1ED
:101C2000AA6829682068B2F1004F37D002F024FF7B
:101C30002068416921F00041416120686969C268FA
:101C4000C2F3C102520091402A69042A31D000EB4C
:101C500082002B68026EDFF834C303F0F84302EA17
:101C60000C020B431A4342F00041016620682A69C6
:101C7000A96900EB8200026E22F080720A430266BC
:101C8000297F22682869012910D0002102EB8000F9
:101C9000026E22F000720A4302667DE0002202F02A
:101CA000EBFE2068416941F00041C5E74FF000714B
:101CB000ECE7002102F0CAFE400320684FF000016B
:101CC00072D002F0C3FE90FAA0F0B0FA80F128685A
:101CD00042036ED090FAA0F0B0FA80F0814204D1B5
:101CE00000221146206802F0D6FE0121206802F091
:101CF000ADFE400320684FF001015DD002F0A6FE6A
:101D000090FAA0F0B0FA80F12868420359D090FA16
:101D1000A0F0B0FA80F0814204D1002201212068B5
:101D200002F0B9FE0221206802F090FE4003206814
:101D30004FF0020148D002F089FE90FAA0F0B0FA0C
:101D400080F12868420344D090FAA0F0B0FA80F005
:101D5000814204D100220221206802F09CFE03216E
:101D6000206802F073FE400320684FF0030133D077
:101D700002F06CFE90FAA0F0B0FA80F128684203FD
:101D80002FD090FAA0F0B0FA80F0814204D1002266
:101D90000321206802F07FFE2068816811F0010FA6
:101DA00022D0A8E000E004E002F050FEC0F384611D
:101DB0008DE7C0F3846091E702F048FEC0F38461D0
:101DC000A2E7C0F38460A6E702F040FEC0F384619E
:101DD000B7E7C0F38460BBE702F038FEC0F384616C
:101DE000CCE7C0F38460D0E7EB6829684B4550F836
:101DF000B03FC1F3120101D10B4300E08B430360FC
:101E0000E868484577D1286841031CD090FAA0F1D2
:101E1000B1FA81F1491C01F01F0109294FEA403153
:101E200032D8002912D000BF90FAA0F1B1FA81F1A6
:101E300001F1010101F01F0106FA01F609D100BF0D
:101E4000C0F3846109E0C0F38461E3E7C0F3846117
:101E5000EEE790FAA0F1B1FA81F101F1010101F090
:101E60001F0146EA816102D1C0F3846003E090FA69
:101E7000A0F0B0FA80F000F1010000F01F0000EBCC
:101E8000400041EA005132E000290ED090FAA0F162
:101E9000B1FA81F101F1010101F01F0106FA01F629
:101EA00006D100BFC0F3846106E0C0F38461F1E7AE
:101EB00090FAA0F1B1FA81F101F1010101F01F01E5
:101EC00046EA816102D1C0F3846003E090FAA0F099
:101ED000B0FA80F000F1010000F01F002C4A00EB86
:101EE000400002EB005041EA000141F00071AA6895
:101EF000206802F0C1FD27482A6802423FF46AAE1A
:101F000025488168254B01F0E0719A4202D0244BAC
:101F10009A421CD10B021AD42268B2F1A04F7FF46E
:101F200059AE826841F4000122F0E0720A438260F7
:101F30001C481D490068B0FBF1F0401C00EB40005C
:101F4000800000E0401E00900028FBD142E6174DC3
:101F5000174BAA4207D1CD0105D422689A42F5D089
:101F600041F0807109E0134DAA42EFD14A02EDD44D
:101F700022689A42EAD041F48001826822F0E0723D
:101F80000A43826026E6000000007F4000F0FF0365
:101F9000000020FE0000088000030050000021C364
:101FA0001000C09010000020400D0300000052C738
:101FB00000010050000084CB70477047704700005C
:101FC000F8B54FF0000504002E46009502D0E06DF4
:101FD00010B107E00120F8BD204600F0EFF82666BA
:101FE00084F8586020688168C1F3407119B1816834
:101FF0006A4A1140816020688168C1F3007189B923
:102000008168674A114041F08051816065486649A6
:102010000068B0FBF1F04000801C00E0401E009022
:102020000028FBD120688168C1F3007141B9E16DDE
:1020300041F01001E165216E41F0010121660125A9
:1020400002F00EFDE16DC90600D430B1E06D40F044
:102050001000E06501252846F8BDE06D20F4807091
:1020600040F00200E0652068806810F0010F11D197
:102070004FF0A04080684D4900F00100896801F0F0
:102080000101084306D14A486168826822F47C1243
:102090000A438260E168E06B627F0843A16841EA1D
:1020A0004231084394F8241040EA0140012904D148
:1020B000218D404A02EB41410843E16A29B101F414
:1020C0007871226B014342EA01002168CA683A4BE9
:1020D0001A400243CA6020680169626B21F04061C6
:1020E00011430161206802F0BBFC0646206802F043
:1020F000B3FC30432ED1207F94F83810800340EA9F
:1021000041022068C16844F2020399431143C1604F
:1021100020690028206801690AD041F480310161FA
:10212000206850F8C01F22696FF30D01114307E0CA
:1021300021F480310161206850F8C01F6FF30D0158
:10214000016094F8400001280CD02068016921F05A
:1021500001010161606901282068016B21F00F0114
:1021600011D013E0D4E911010843D4E9131211434B
:10217000084321680A6940F2FC739A43104340F017
:1021800001000861E6E7226A521E11430163E06D17
:1021900020F0020040F00100E0655CE7C0FFFF5F57
:1021A000C0FFFF7F10000020400D03000001005021
:1021B000000300500000FEFF0740F0FF70B598B02C
:1021C0000546142111A8FEF713FA44216846FEF7CC
:1021D0000FFA2149286888423CD1C4014005009487
:1021E0000F90684600F076FC08B1FFF7ABFB1B4987
:1021F000C86C40F40050C864C86C00F400501690DD
:10220000C86C40F00200C864C86C002600F00200F0
:10221000169003201396CDE9114011A9104800F043
:1022200025FA114C0F4820602420C4E901068020C3
:10223000C4E90360800060618000A0612020E0614B
:10224000C0012062204600F059F908B1FFF77AFB7F
:102250006C65A56218B070BD00010050001002400E
:102260000004004808000240980000202DE9F041D9
:102270000446344817468846806800F01F052068E9
:1022800002F0EEFB00285AD194F85800012856D0ED
:10229000012084F85800002625B1052D02D0092D13
:1022A00000D003E02046FFF70FFA18B184F8586019
:1022B000BDE8F081E06D40F60161884340F4807034
:1022C000E06521492068884202D14FF0A04100E03A
:1022D0000146814200D01DB9E06D20F48010E06518
:1022E000E06DC00404D5206E20F00600206600E0FA
:1022F0002666616D1548C862616D15480863616D99
:102300001448486321681C20086084F858602068DD
:10231000416841F0100141602068C16841F001014D
:10232000C16021683B4642464031606D00F046F98D
:1023300021688A68084B1A40121D8A60B8E702209B
:10234000B6E700000003005000010050CB15000864
:102350004D16000833160008C0FFFF7F10B590F837
:10236000253000210122022B03D00421C163012169
:1023700022E003681C6824F00E041C60836C1C6857
:1023800024F480741C6003681C6824F001041C6041
:1023900090F84430046C03F01F0302FA03F3636007
:1023A000D0E913345C60436D33B11C6824F480744D
:1023B0001C60D0E916345C6080F82520002280F88B
:1023C0002420084610BD70B590F825200024012176
:1023D0002346022A07D00422C26380F8251080F821
:1023E0002430012429E00268156825F00E051560E7
:1023F0000268156825F001051560826C156825F4E2
:102400008075156090F84420056C02F01F0201FAF7
:1024100002F26A60D0E913255560426D32B1156849
:1024200025F480751560D0E91625556080F82510D3
:1024300080F82430816B01B18847204670BDC06BA5
:102440007047F0B4016C0C6801680D6890F8442086
:1024500002F01F06042202FA06F3234211D06B0792
:102460000FD50B689B0603D40B6823F004030B60A5
:1024700090F8441001F01F018A40016C4A60016B22
:102480001DE0022303FA06F727424FF0000C4FF03D
:10249000010218D0AF0716D50C68A40605D40C6845
:1024A00024F00A040C6080F8252090F8441001F014
:1024B0001F018B40016C4B6080F824C0C16A002969
:1024C0001AD0F0BC08470823B340234214D02B078E
:1024D00012D50B6823F00E030B6090F84410036CC8
:1024E00001F01F0102FA01F15960C26380F8252052
:1024F00080F824C0416BE2E7F0BC704770B504007F
:102500000CD02B4A21681420914209D2294A0A444E
:10251000B2FBF0F08000606427480AE0012070BD43
:10252000234A52420A44B2FBF0F080006064204823
:1025300008382064022084F825000A6847F6F07005
:102540008243D4E902031843D4E904352B431843EA
:10255000A3691843E3691843236A184310430860CA
:102560002046FFF73DF9A0680025B0F5804F00D167
:102570006560A16C20790860D4E91301416060684E
:10258000401E032808D82046FFF74AF9606D056011
:10259000D4E91601416002E06565A565E565E5637E
:1025A000012084F8250084F82450002070BD00002C
:1025B00008040240F8FFFDBF0000024070B5044669
:1025C00090F82400002501280CD0012084F8240074
:1025D00094F825600020012E06D084F824000225FE
:1025E000284670BD022070BD022684F82560E06395
:1025F0002068066826F0010606602046FFF722F9EB
:10260000206B00282068016802D041F00E0106E02E
:1026100021F0040101602068016841F00A010160B5
:10262000A06C0168C90303D5016841F480710160A1
:10263000606D18B1016841F4807101602068016823
:1026400041F001010160CBE770B5044600F044F9A8
:102650000546601C02D004484068044400F03CF980
:10266000401BA042FAD370BD040000202DE9F04FBA
:10267000DFF82092002301260324A9F1040B85B082
:102680000F2709F1040AABF1040EFAE006FA03F58C
:102690002A407CD091F804C00CF0030CBCF1010F6F
:1026A00002D0BCF1020F26D1D0F808C0CDF800C08E
:1026B0004FEA430C04FA0CF8CDF810C0DDF800C066
:1026C0002CEA080CCDF800C0D1F80C80DDF810C061
:1026D00008FA0CF8DDF800C048EA0C08C0F80880D9
:1026E000D0F804C02CEA050C0D79C5F300159D4007
:1026F00045EA0C0545600D79ED43AD070ED0C56880
:102700004FEA430804FA08FC25EA0C05D1F808C092
:102710000CFA08FC4CEA050CC0F80CC00D7905F069
:102720000305022D16D1DD0800EB850CCDF808C09D
:10273000DCF820805D074FEAD56C07FA0CF528EA33
:1027400005080D6905FA0CF5DDF808C045EA08052D
:10275000CCF8205005684FEA430CCDF808C004FAC5
:102760000CFC25EA0C0591F804C00CF00308DDF818
:1027700008C008FA0CF848EA0508C0F800804D685F
:1027800015F4403F7CD0444DD5F860C000E077E0C0
:102790004CF0010CC5F860C02D6E23F0030C05F061
:1027A000010500953D4D65440295AD684FEA837C77
:1027B0004FEA1C7807FA08FC25EA0C05B0F1904FA7
:1027C00006D0DFF8DCC0604505D14FF0010C20E0F9
:1027D0004FF0000C1DE0DFF8CCC0604502D14FF097
:1027E000020C16E0DFF8C0C0604502D14FF0030CC8
:1027F0000FE0DFF8B8C0604502D14FF0040C08E0EC
:10280000DFF8ACC0604502D14FF0050C01E04FF09D
:10281000060C0CFA08FC4CEA050C029DC5F808C031
:10282000D9F80050CC46D1F8048095435FEAC82817
:1028300000D51543CCF80050DAF80050D446D1F852
:10284000048095435FEA882800D51543CCF80050F2
:10285000DBF80050DC46D1F8048095435FEA883805
:1028600000D51543CCF80050DEF80050F446D1F8FE
:10287000048095435FEAC83800D51543CCF8005072
:102880005B1C0A6832FA03F57FF400AF05B0BDE8BF
:10289000F08F0000080401400010024000000140D9
:1028A0000004004800080048000C004800100048E0
:1028B000001400480069084000D0012070474269B8
:1028C00021EA02030A4043EA0241816170470AB1EA
:1028D00081617047816270470148806870470000DD
:1028E00004000020024881684268114481607047FA
:1028F0000400002010B50024032000F073F80F201E
:1029000000F008F808B1012401E000F025F82046A5
:1029100010BD000070B50E4E05460024706898B1D9
:102920004FF47A71B1FBF0F00A490968B1FBF0F09D
:1029300000F064FD40B9102D06D200222946501E39
:1029400000F030F8356000E00124204670BD000042
:1029500004000020100000200A4882B0016E41F0FF
:1029600001010166016E01F001010091816D41F0EC
:1029700080518165806D00F08050009002B000F0C1
:10298000A1B8000000100240002809DB00F01F027F
:10299000012191404009800000F1E020C0F80011C1
:1029A00070470000F0B40E4B1B680C46C3F30223C3
:1029B000C3F10705042D00D90425191D072901D2EB
:1029C000002300E0DB1E012606FA05F1491E214026
:1029D00099409E40761E16403143F0BC03F0B9B8D2
:1029E0000CED00E0064900F0070208684FF6FF030F
:1029F000184040EA0220034A104308607047000074
:102A00000CED00E00000FA052B492C4B0A6832213E
:102A10004A432B4940B1B0F5007F086829D020F423
:102A2000C06040F480602CE00868C0F341200228B8
:102A300004D051F8800F20F4807022E0D1F880009B
:102A400020F48070C1F88000086820F4C06040F471
:102A500000700860B2FBF3F0401C00E0401E4A69C1
:102A6000520501D50028F9D1486940050AD503204F
:102A70007047C0F34120022806D051F8800F40F47F
:102A80008070086000207047D1F8800040F48070AA
:102A9000C1F88000086820F4C06040F4007008604D
:102AA000B2FBF3F0401C00E0401E4A695205DBD542
:102AB0000028F9D1D8E700001000002040420F00A4
:102AC000007000400248816841F480418160704795
:102AD000007000402DE9F8430446006800269D4D33
:102AE00000035ED5A86D0027C00008D4A86D40F093
:102AF0008050A865A86D012700F080500090DFF895
:102B00005892D9F8001041F48071C9F80010FFF70D
:102B1000E3FE804606E000BFFFF7DEFEA0EB080004
:102B200002282BD8D9F80000C005F5D5D5F89000BB
:102B300010F4407014D0216C814211D0D5F890006F
:102B4000D5F8901020F4407041F48031C5F8901011
:102B5000D5F8901021F48031C5F89010C5F8900098
:102B6000C00711D0FFF7B8FE804641F2883907E070
:102B7000FFF7B2FEA0EB0801494501D903260BE09F
:102B8000D5F890008007F3D5D5F89000216C20F49B
:102B900040700843C5F890001FB1A86D20F0805028
:102BA000A8652078C00707D0D5F88800616820F0B4
:102BB00003000843C5F888002078800707D5D5F8BA
:102BC0008800A16820F00C000843C5F88800207830
:102BD000400707D5D5F88800E16820F030000843A9
:102BE000C5F888002078000707D5D5F88800216946
:102BF00020F0C0000843C5F888002078800607D57B
:102C0000D5F88800616920F440600843C5F8880061
:102C10002078400607D5D5F88800A16920F44050F7
:102C20000843C5F888002078000607D5D5F8880045
:102C3000E16920F440400843C5F888002088C005B9
:102C400007D5D5F88800216A20F440300843C5F83C
:102C500088002088800507D5D5F88800616A20F4AF
:102C600040200843C5F88800208840050FD5D5F8D6
:102C70008800A16A20F440100843C5F88800A06AC3
:102C8000B0F5801F03D1E86840F48010E860208828
:102C900000050FD5D5F88800E16A20F4400008430C
:102CA000C5F88800E06AB0F5800F03D1E86840F409
:102CB0008010E8602088C0040FD5D5F88800216B0B
:102CC00020F040700843C5F88800206BB0F1807F89
:102CD00003D1E86840F48010E86020884FF000617C
:102CE00080040ED5D5F88800626B20F04060104358
:102CF000C5F88800606B884203D1E86840F4801012
:102D0000E860208840040ED5D5F88800A26B20F03A
:102D100040601043C5F88800A06B884203D1E86882
:102D200040F48010E860208800040FD5D5F88800B2
:102D3000E16B20F040500843C5F88800E06BB0F12B
:102D4000805F03D1E86840F48030E8603046BDE839
:102D5000F883000000100240007000402DE9F047A9
:102D60000E4605004FF0000725D0DFF8AC81D8F8FB
:102D7000000000F00F00B0420CD2D8F8001021F093
:102D80000F013143C8F80010D8F8000000F00F0020
:102D9000B04210D12968614CC80741F2883A5AD034
:102DA0006868DFF87C91032808D0022820682DD0BD
:102DB000400500282CDB0120BDE8F0872068800159
:102DC000F9D5E06800F00302E068C0F30310401C8E
:102DD000032A19D0534A00BFB2FBF0F0E268C2F3F5
:102DE00006225043E268C2F34162521C5200B0FB1B
:102DF000F2F0484517D9A06810F0F00F0CD0880702
:102E000011D5A86840B10EE0474AE5E78003D0E756
:102E100000F0B6F8484506D9A06820F0F00040F070
:102E20008000A0608027A068696820F00300084344
:102E3000A060FFF751FD814606E000BFFFF74CFDA3
:102E4000A0EB090151453AD8A068696800F00C0070
:102E5000B0EB810FF2D12868810714D5400703D564
:102E6000A06840F4E060A0602878000705D5A0685D
:102E700020F4605040F4E060A060A068A96820F0F1
:102E8000F000084304E0802F03D1A06820F0F00098
:102E9000A060D8F80010404601F00F01B14216D9E9
:102EA000016821F00F0131430160FFF715FD07466E
:102EB00007E000BFFFF710FDC11B514501D90320FA
:102EC0007AE7D8F8000000F00F00B042F2D128787D
:102ED000400705D5A068E96820F4E0600843A060D9
:102EE0002878000706D5A068296920F4605040EAD8
:102EF000C100A06000F044F8A1680C4AC1F30311BE
:102F0000515C01F01F01C840094908600948006888
:102F1000BDE8F047FFF7FEBC002002400010024071
:102F200000B4C4040024F40000366E010C5D0008F7
:102F30001000002004000020054806490068896848
:102F4000054AC1F30221515C01F01F01C8407047DE
:102F500010000020001002401C5D000805480649D2
:102F600000688968054AC1F3C221515C01F01F0164
:102F7000C840704710000020001002401C5D00088F
:102F8000184910B58868C0F381021748012A0BD090
:102F90008A68164BC2F38102022A06D08A68C2F3FD
:102FA0008102032A03D0002010BD184610BDCA6854
:102FB00002F00304CA68C2F30312521C032C02D0AD
:102FC000B0FBF2F001E0B3FBF2F0CA68C968C2F3EB
:102FD00006225043C1F34161491C4900B0FBF1F0A6
:102FE00010BD0000001002400024F40000366E0105
:102FF0002DE9F84304007AD02078FA4DC00747D075
:10300000A868E96800F00C0001F003010C2802D068
:10301000082817D001E0032914D06068B0F5803F7C
:1030200017D0B0F5A02F286817D020F48030286082
:10303000286820F4802028606068E0B1FFF74CFC2D
:10304000064614E02868800322D560680028D2D0A4
:103050001EE0286840F48030EDE740F480202860CE
:10306000F7E700BFFFF738FC801B642870D828689A
:103070008003F7D50CE0FFF72FFC064605E000BF04
:10308000FFF72AFC801B6428F0D828688003F7D457
:10309000207880074CD5A868E96800F00C0001F0A2
:1030A00003010C2802D004280DD001E002290AD027
:1030B000E068002828682BD040F480702860FFF773
:1030C0000BFC064619E02868400502D5E068002898
:1030D00091D06868217C20F0FE4040EA0160686081
:1030E000C1480068FFF716FC002800D120E076E117
:1030F000FFF7F2FB801B0228B8D828684005F7D5F7
:103100006868217C20F0FE4040EA016068600FE0C2
:1031100020F480702860FFF7DFFB064605E000BF63
:10312000FFF7DAFB801B0228A0D828684005F7D4F7
:103130002078000729D560690028D5F8940013D0BD
:1031400040F00100C5F89400FFF7C6FB064606E014
:1031500090E000BFFFF7C0FB801B022886D8D5F89F
:1031600094008007F6D510E020F00100C5F8940027
:10317000FFF7B2FB064604E0FFF7AEFB801B022818
:1031800078D8D5F894008007F6D42078400761D528
:10319000A86D0026C00008D4A86D40F08050A86536
:1031A000A86D012600F08050009090480168C90584
:1031B00011D40168804641F480710160FFF78CFBF7
:1031C000074604E0FFF788FBC01B022852D8D8F856
:1031D0000000C005F6D5A068012815D00528D5F84F
:1031E000900016D020F00100C5F89000D5F89000AE
:1031F00020F00400C5F89000A06841F28838B8B10A
:10320000FFF76AFB07460EE0D5F8900040F001009A
:10321000F0E740F00400C5F89000F5E7FFF75CFB2D
:10322000C11B414526D8D5F890008007F6D50CE0A3
:10323000FFF752FB074604E0FFF74EFBC11B414579
:1032400018D8D5F890008007F6D41EB1A86D20F0EC
:103250008050A8652078800629D5A0690028D5F877
:10326000980013D040F00100C5F89800FFF734FB38
:10327000064606E077E000BFFFF72EFB801B022822
:1032800077D8D5F898008007F6D510E020F0010037
:10329000C5F89800FFF720FB064604E0FFF71CFB8B
:1032A000801B022865D8D5F898008007F6D4E0691D
:1032B000F0B3A968C1F38101032961D0022828680D
:1032C00020F0807028600BD0E86820F00300E860F0
:1032D000E86847490840E860FFF7FEFA04464BE01B
:1032E000FFF7FAFA064604E0FFF7F6FA801B022819
:1032F0003FD828688001F7D4F4E908016FF00F0285
:1033000002EB01110843218A5204490802EB4151A2
:10331000A26841EA02210843217D4FF07E4249081C
:1033200002EB41610843217B40EAC160E96800E0AB
:1033300062E0304A11400843E860286840F080703D
:103340002860E86840F08070E860FFF7C5FA04463E
:1033500005E000BFFFF7C0FA001B022809D8286863
:103360008001F7D548E004E0FFF7B6FA001B022819
:1033700002D90320BDE8F88328688001F4D43BE03B
:103380000128F7D0E868226A00F00301914226D1B3
:10339000616A00F0F0020901103991421FD1A26A5E
:1033A00000F4FE41B1EB022F19D194F82C2000F06B
:1033B0007841B1EBC26F12D1218E00F4C0024908EE
:1033C0004905A1F50011914209D194F8341000F09B
:1033D000C06049084906A1F1007181420CD001206A
:1033E000C8E7000000100240040000200070004008
:1033F000FFFFEEFE0C809F010020BBE710B5401ED2
:10340000B0F1807F01D3012010BD4FF0E024606156
:103410000F21601702F09DFB0020A06107202061B2
:10342000002010BD70477047704770477047704765
:10343000F0B590F83C20012A3AD0012580F83C50A4
:10344000022280F83D2003685A689C68194E1A4F82
:10345000B34201D0BB4204D122F4700C4A6842EA64
:103460000C02DFF858C002EA0C02D1F800C04CEAA6
:10347000020CC3F804C00268B2420DD0B2F1804F12
:103480000AD00F4B9A4207D00E4B9A4204D0BA4250
:1034900002D00D4B9A4204D1896824F0800319436D
:1034A000916080F83D50002180F83C100846F0BD46
:1034B0000220F0BD002C0140003401408FFFFFFDD1
:1034C000000400400008004000400140704710B573
:1034D000040003D094F83D0010B107E0012010BDB6
:1034E000002084F83C00204600F022F8022084F8F6
:1034F0003D00211D206801F0C3FE012084F8480032
:1035000084F83E0084F83F0084F8400084F84100CD
:1035100084F8420084F8430084F8440084F84500AD
:1035200084F8460084F8470084F83D00002010BD70
:1035300008B500680B49884212D10B48816D41F0F3
:1035400010018165806D002200F01000009011468E
:103550003620FFF727FABDE808403620FFF714BAF7
:1035600008BD0000001000400010024090F83D101F
:10357000012901D001207047022180F83D10016827
:10358000CA6842F00102CA600068104988420ED041
:10359000B0F1804F0BD00E49884208D00D498842C7
:1035A00005D00D49884202D00C49884207D1816874
:1035B0000B4A1140062906D0B1F5803F03D00168BF
:1035C00041F001010160002070470000002C014023
:1035D0000004004000080040003401400040014069
:1035E00007000100704770B50446006801694FF09C
:1035F0000005C943890715D4C168C943890711D497
:10360000E91E01610120207720688069800720463B
:1036100002D0FFF7E7FF04E000F0E3F8204600F0F7
:10362000E1F8257720680169C943490717D4C168C3
:10363000C943490713D46FF00401016102202077C8
:103640002068806910F4407F204602D0FFF7CAFF4F
:1036500004E000F0C6F8204600F0C4F825772068A2
:103660000169C943090716D4C168C943090712D4BF
:103670006FF008010161042020772068C06980078D
:10368000204602D0FFF7AEFF04E000F0AAF8204683
:1036900000F0A8F8257720680169C943C90617D446
:1036A000C168C943C90613D46FF010010161082035
:1036B00020772068C06910F4407F204602D0FFF7D1
:1036C00091FF04E000F08DF8204600F08BF825779C
:1036D00020680169C943C90708D1C168C943C9073E
:1036E00004D1891E0161204600F07EF8206801693E
:1036F000C943090609D4C168C943090605D46FF056
:10370000800101612046FFF78EFE20680169C943F0
:10371000C90509D4C168C943090605D46FF480718D
:1037200001612046FFF77EFE20680169C943490612
:1037300009D4C168C943490605D46FF0400101614D
:10374000204600F0B5F820680169C943890609D40C
:10375000C168C943890605D46FF020010161204684
:10376000FFF762FE20680169C943C90209D4C16834
:10377000C943C90205D46FF4801101612046FFF7E7
:1037800055FE20680169C943890209D4C168C9434B
:10379000890205D46FF4001101612046FFF745FE50
:1037A00020680169C943490209D4C168C943490273
:1037B00005D46FF4800101612046FFF738FE2068D0
:1037C0000169C94309020BD4C168C943090207D47E
:1037D0006FF4000101612046BDE87040FFF776BE3E
:1037E00070BD7047704700002DE9F0412D498842B7
:1037F00056D12D4C0025A078401CC0B2A070E178B5
:10380000491CE170E189491CE1810A2802D1A570B7
:1038100000F026FDE078642803D1E570207A401C92
:103820002072E089B0F57A7F05D1E581012001F0B1
:10383000F7F8FDF783FF1D4EC82741F28838F0796D
:10384000A0B1A089401C80B2B0FBF7F1A08107FBBA
:10385000110010B9022001F0E3F8A189414505D11A
:10386000A581F5710021022001F0BCF8307A002812
:1038700016D0208A401C80B2B0FBF7F1208207FBF3
:10388000110010B9042001F0CBF8218A414507D17D
:1038900025823572BDE8F0410021042001F0A2B874
:1038A000BDE8F081F80000201A0000206802002026
:1038B000704790F88010012918D0012180F88010FD
:1038C0002421C0F8841050F8641B0A680B6823F0A8
:1038D00001030B6022F000510022026050F8643CAA
:1038E000196020210162027710467047022070475C
:1038F0007047704770B5044690F8800001281DD0CD
:10390000012084F880002420C4F884002068056821
:10391000026822F0010202602068826822F0606280
:103920000A438260204601F003FD206805602020E4
:10393000C4F88400002084F8800070BD022070BDAF
:1039400070B5044690F8800001281DD0012084F84D
:1039500080002420C4F8840020680568026822F0F2
:10396000010202602068826822F060420A4382609D
:10397000204601F0DDFC206805602020C4F88400AA
:10398000002084F8800070BD022070BD7047704731
:1039900070B50446D0F88400D4F88860216889683E
:1039A0004FF01005090618D5212816D120680830D7
:1039B00050E8001F21F0800140E80012002AF5D1F4
:1039C000A06F38B1FEF7CAFC20B1A06FFEF737FD3B
:1039D000202821D0204601F00DFE20688068400696
:1039E00018D5222E16D12068083050E8001F21F08B
:1039F000400140E80012002AF5D1E06F38B1FEF72F
:103A0000ADFC20B1E06FFEF71AFD202804D020465F
:103A100001F0C6FD002070BDC4F88C50032070BDBD
:103A2000704700002DE9F04103680446D869196821
:103A30009A6840F60F0528424FF0000509D1860626
:103A40007ED501F0200602F080573E4378D0216FEA
:103A500027E1A94EA94F16400F40374370D0C70742
:103A600009D0CF0507D501271F62D4F88C3043F069
:103A70000103C4F88C3083070AD5D30708D0276820
:103A800002233B62D4F88C3043F00403C4F88C303A
:103A900043070AD5D30708D0276804233B62D4F82C
:103AA0008C3043F00203C4F88C3003070CD501F0CE
:103AB0002003334308D0266808233362D4F88C30BF
:103AC00043F00803C4F88C3003050BD54B0109D52E
:103AD00026684FF400633362D4F88C3043F020033F
:103AE000C4F88C30D4F88C30002B3AD0800609D53D
:103AF00001F0200002F08051084303D0216F09B18A
:103B000020468847D4F88C0021688968490602D489
:103B100010F0280F27D0204601F042FD2068806871
:103B200040061BD52068083050E8001F21F04001F6
:103B300040E80012002AF5D1E06F78B1704900E04A
:103B400017E08163E06FFEF73EFC002809D0E06FCC
:103B5000816B00E02046BDE8F04108472046FFF7B2
:103B60005FFFBDE8F0812046FFF75AFFC4F88C5094
:103B7000F7E7E76E2026012F7ED1C7067CD5CF065A
:103B80007AD51020186220688068400642D5E16F1F
:103B9000086840680004000CE3D0B4F85C2082425E
:103BA000DFD9A4F85E000868006880062BD420687E
:103BB00050E8001F21F4807140E80012002AF6D17D
:103BC0002068083050E8001F21F0010140E8001291
:103BD000002AF5D12068083050E8001F21F040018C
:103BE00040E80012002AF5D1C4F88860E566216833
:103BF00051E8000F20F0100041E80002002AF6D141
:103C0000E06FFEF7ABFBB4F85C00B4F85E10401A4E
:103C100081B22CE0B4F85C00B4F85E10401A81B2B6
:103C2000B4F85E0000289CD000299AD0226852E89F
:103C3000000F20F4907042E80003002BF6D12E4BC9
:103C4000DB432068083050E8002F1A4040E8002786
:103C5000002FF6D1C4F88860E5662567226852E82F
:103C6000000F20F0100042E80003002BF6D12046A0
:103C7000FFF73EFE75E7FFE7C70209D5570207D5F4
:103C80004FF4801018622046BDE8F041FFF77FBE78
:103C900003060AD501F0800302F40002134304D0A6
:103CA000616F00297FF456AF5BE7420611D54A06E3
:103CB0000FD52046016851E8002F22F0400241E86C
:103CC0000023002BF6D1C0F88460456700F03AF974
:103CD00047E7020206D54A0004D52046BDE8F04178
:103CE000FFF754BEC001C5D50029C3DA2046BDE8A0
:103CF000F041FFF7FEBD00000100001020010004AC
:103D00009D54000810B5040003D0D4F8840010B10D
:103D100007E0012010BD002084F88000204600F05C
:103D200027F82420C4F884002068016821F00101EC
:103D30000160204601F076FC0128EBD0A06A10B1AA
:103D4000204601F017FB2068416821F49041416052
:103D50002068816821F02A0181602068016841F0B3
:103D6000010101602046BDE8104001F067BB000082
:103D700070B598B00646142111A8FCF739FC44210F
:103D80006846FCF735FC26493068884245D1012059
:103D90000025CDE900056846FEF79CFE08B1FDF759
:103DA000D1FD2049086E40F480400866086E00F49A
:103DB00080401690C86C40F00100C864C86C11A91E
:103DC00000F0010016904FF4C06011900220CDE980
:103DD00012050720CDE914504FF09040FEF746FC45
:103DE000124C114820601820C4E901058020C4E964
:103DF00003506561A561E56120462562FEF77EFB03
:103E000008B1FDF79FFDF467002211462520A66248
:103E1000FEF7C8FD2520FEF7B7FD18B070BD000005
:103E200000380140001002401C000240080200203F
:103E300030B4D0F88830202B20D1E1B1DAB190F83D
:103E40008030012B1AD0012380F880300023C36614
:103E50000B4C0368A3420BD05B681B0208D50468B7
:103E600054E8003F43F0806344E80035002DF6D16C
:103E700030BC01F011BD012030BC70470220FBE7CF
:103E800000800040704770472DE9F8430446D0F8A1
:103E900084001F4616460D46202851D1DDB1D6B10B
:103EA00094F8800001284BD0012084F880004FF066
:103EB0000008C4F88C802120C4F884001834FEF770
:103EC0000BFDA6878146E68754F8100C183CB0F528
:103ED000805F03D004E00120BDE8F883206920B1B1
:103EE0002E46002584F8808010E00026FAE7802125
:103EF000204601F023FDB8B9C6B116F8010B2168C0
:103F00008862B4F85600401EA4F85600B4F8560073
:103F10004B464FF0000200970028E8D14FF04001D7
:103F2000204601F00BFD30B10320D5E735F8020B38
:103F3000C0F30800E3E72020C4F884000020CBE7AA
:103F40000220C9E77047FEE700B585B01421684636
:103F5000FCF74EFBC020009001200190029002204F
:103F6000039069460248FEF781FB05B000BD0000E2
:103F70000004004870B50824002501F0D9F813E0CA
:103F80006806050E002001F0BBF8142001F0F8FDD2
:103F9000142001F0F5FD012001F0B2F8142001F029
:103FA000EFFD01F0B9F80543641EE4B2E8D2002049
:103FB00001F0A6F8142001F0E3FD01F0DBF828463B
:103FC00070BD10B5002001F0C9F8142001F0D8FD33
:103FD000142001F0D5FD012001F092F8142001F029
:103FE000CFFD002001F08CF8BDE81040142001F056
:103FF000C7BD70B50446082516E001F081F814200D
:1040000001F0BEFD04F0800001F0A8F8142001F0DA
:10401000B7FD6006040E142001F0B2FD012001F08E
:104020006FF8142001F0ACFD6D1EEDB24FF00000F2
:10403000E3D201F065F8BDE87040142001F0A0BDA6
:1040400010B5012001F08AF8142001F099FD142028
:1040500001F096FD012001F053F8142001F090FDCD
:10406000002001F04DF8BDE81040142001F088BD9B
:1040700010B5012001F072F8142001F081FD01203B
:1040800001F03EF8142001F07BFD002001F066F8FD
:10409000142001F075FD002001F032F8BDE8104059
:1040A000142001F06DBD10B5002001F029F8142096
:1040B00001F066FD002001F051F8142001F060FDD0
:1040C000012001F01DF8142001F05AFD012001F03B
:1040D00045F8BDE81040142001F052BD10B505248C
:1040E00001F026F8142001F04BFD012001F008F842
:1040F000142001F045FD05E0641EA4B2142001F077
:104100003FFD6CB101F008F80028F5D101F032F85C
:10411000002000F0F5FF142001F032FD002010BD5A
:1041200001F028F8FFF7BFFF012010BD2DE9F04393
:10413000244C89B002216078401CC0B26070012814
:1041400000D9617020484FF001090578427A954204
:1041500001D800210AE0827A954203D8494680F8C6
:10416000089004E0C27A954200D9032101722779B0
:10417000CEB28046BE421ED0607801281BD92021D5
:104180006846FCF735FAF01B40B24FF496770028EA
:1041900033462A4601DD0DA100E010A16846FCF778
:1041A00013F93B461E2269461048FFF76DFE06498B
:1041B0000C3981F8079098F80800207109B0BDE823
:1041C000F08300001A00002074020020413A4825C4
:1041D000642B4C25642B550D0A000000413A4825FC
:1041E000642B4C25642B440D0A000000780100204C
:1041F00070B51A4C01212046FEF75CFB4FF090454C
:1042000070B102212046FEF755FB48B1042120463B
:10421000FEF750FB20B101212846FEF74BFB98B971
:1042200001212046FEF746FB80B102212046FEF721
:1042300041FB68B104212046FEF73CFB50B101214F
:104240002846FEF737FB38B1002070BD012070BD55
:10425000022070BD032070BD042070BD0004004822
:1042600010B5FFF7C5FF1649C8710B7880EA030245
:1042700082434A7130EA03038B71087002D0002038
:10428000087202E0087A0A280DD201210D48012A9D
:104290000AD0022A0AD0032A0DD0042A03D10279B7
:1042A000002A00D0C17010BD017010BD0279002A33
:1042B000FBD0417010BD0279002AFBD0817010BD87
:1042C0001A0000206802002000B585B0142168465D
:1042D000FCF78EF94FF6FF70009000200321CDE926
:1042E0000201019069460248FEF7C0F905B000BD21
:1042F0000008004800B585B014216846FCF778F93D
:104300004FF6FF70009001200190032003900020E1
:10431000029069460248FEF7A9F905B000BD000009
:104320000008004870B5002406462146204600F0EB
:10433000CFF900F011FA4FF49635304600F0DCF971
:10434000641CAC42F9D370BD01A100F01DB900009E
:10435000202020202020202020202020202020205D
:10436000202020200000000030B587B014216846CE
:10437000FCF73EF91E48C16C41F00401C164C16CF8
:1043800001F004010591C16C41F00101C164C16CEF
:1043900001F001010591C16C41F00201C164C06CE2
:1043A000012500F0020005904FF44870CDE90005AA
:1043B00000240394694602940E48FEF757F9280238
:1043C00003940090CDE901544FF090446946204693
:1043D000FEF74CF9FFF78EFFA06940F48070A061F2
:1043E00004481830016841F40871016007B030BD1D
:1043F000001002400004004810B516A11B48FBF74E
:10440000E3FF1A4C1AA1203C04F148002278FBF784
:10441000DBFF606801F0EEFB41EC100B19A153ECDF
:10442000102B04F17000FBF7CFFF227A1BA104F1DF
:104430009800FBF7C9FF6020FFF786FF9020FFF789
:1044400083FFC020FFF780FF1A48418941F0AA018D
:10445000418110BD20202020204C697175696420A5
:104460004C6576656C20202000000000940200203E
:10447000202020204865696768743A2564636D20B0
:1044800020202000202020204144433A252E32665F
:104490005620202020202020000000002020202066
:1044A0004C6576656C3A2564202020202020202051
:1044B000200000001A00002010B513A11848FBF7D7
:1044C00083FF174C17A1203C04F15C00627AFBF7D4
:1044D0007BFFA27A19A104F18400FBF775FFE27A51
:1044E0001CA104F1AC00FBF76FFF4820FFF72CFF85
:1044F0007820FFF729FFA820FFF726FF1B484189F6
:1045000041F4A971418110BD20202020205061720A
:10451000616D6574657220536574757000000000EC
:104520009402002020205468726573686F6C6431B7
:104530003A25303264636D2020200000202054682A
:10454000726573686F6C64323A25303264636D2033
:104550002020000020205468726573686F6C6433FB
:104560003A25303264636D20202000001A000020BC
:10457000203AD2B2034B02EB420203EB021200F0EC
:1045800019B80000245D0008F0B50E460746002566
:1045900040F23F1407E021463846FFF7E9FF103CA0
:1045A0006D1CA4B2761C3278002A01D0142DF2D3EF
:1045B000F0BD00002DE9F04791468A4600260446EA
:1045C00000F086F8DFF84080012700BF00F0C4F853
:1045D0005FF0000539F8160007FA05F10842404679
:1045E00001D1408800E0008800F086F86D1C102D95
:1045F000F0D3641CE4B25146204600F069F8761C02
:10460000182EE3D3BDE8F0871400002010B5FFF7A3
:10461000ABFE002000F014F8084CA080A088A0F5A4
:104620000241303906D000F069FC002000F008F8A3
:10463000A08010BD00F0D9FBF7E7000014000020B7
:1046400070B51D490A6842F400720A600A6842F4B3
:1046500080720A60184C103C226842F020022260EE
:10466000164A1060086840F02000086000BF00BFD4
:1046700000BF206840F020002060206840F4807077
:104680002060FFF721FE4FF09041886A40F480706F
:10469000886200BF00BF00BF0848001F006885B2E5
:1046A000886940F480708861FFF724FE206840F438
:1046B00000702060284670BD280400481408004897
:1046C00001B5BDF800000149488008BD1400002074
:1046D00010B50C460146202000F070F82146BDE8D8
:1046E0001040212000F06AB801B5BDF80000014972
:1046F000088008BD1400002030B5154B1968154A14
:104700008CB2116841F400711160124910390D68C2
:1047100045F480750D600D6845F020050D6018604A
:10472000106840F02000106000BF00BF00BF0868A4
:1047300040F020000860086840F48070086000BF06
:1047400000BF00BF086840F4007008601C6030BD06
:104750001408004828040048164A10B51068164985
:1047600083B2086840F400700860086840F4807004
:10477000086011481038046844F0200404602224C2
:1047800014600C6844F020040C6000BF00BF00BF40
:10479000016841F020010160016841F4807101600D
:1047A00000BF00BF00BF016841F4007101601360E9
:1047B00010BD0000140800482804004870B51A4CC9
:1047C00022681A4B95B21A6842F400721A601A688D
:1047D00042F480721A60154A103A166846F02006B4
:1047E00016602060186840F02000186000BF00BF0D
:1047F00000BF106840F020001060106840F4807026
:1048000010602160186840F02000186000BF00BFF1
:1048100000BF106840F020001060106840F4807005
:104820001060256070BD000014080048280400488E
:104830002DE9F05F57480024554D012600F1500B3B
:1048400000F1780A00F1A0094FF6FF78A0F11807EF
:10485000698906FA04F0084220D081436981B87959
:1048600000287DD0012804D0022850D0032815D17B
:1048700064E04046FFF724FF0020FFF735FF59466C
:104880006020FFF781FE0020FFF71AFF4046FFF788
:104890002BFF514690204CE0FFF776FE641CE4B2FB
:1048A0000A2CD5D3387900282FD1787900282CD03C
:1048B000384C00200C3C787194ED010ADFED360A8B
:1048C00020EE200ABCEEC00A10EE100A2070FFF79E
:1048D0002DFC227831A104F14800FBF775FD6068DA
:1048E00001F088F941EC100B32A153EC102B04F1CC
:1048F0007000FBF769FD227A34A104F19800FBF700
:1049000063FD688940F0A8006881BDE8F09F4046DB
:10491000FFF7D6FE0020FFF7E7FE51469020FFF795
:1049200033FE0020FFF7CCFE4046FFF7DDFE594680
:104930006020FFF729FE4946C020ADE74046FFF75B
:10494000BFFE0020FFF7D0FE4946C020FFF71CFE47
:104950000020FFF7B5FE4046FFF7C6FE514600E0D7
:1049600005E09020FFF710FE5946602094E70020F4
:10497000FFF7A6FE4046FFF7B7FE064904EB8400AA
:1049800001EB800104EB4400C006000E84E7000048
:104990001A000020800200206666F24120202020BC
:1049A0004865696768743A2564636D20202020207B
:1049B00000000000202020204144433A252E32668A
:1049C0005620202020202020000000002020202031
:1049D0004C6576656C3A256420202020202020201C
:1049E0002000000010B50C4B0002012911D001225B
:1049F00001461846FDF76BFF084C012204212046B2
:104A0000FDF765FF20460022BDE810400421FDF7B8
:104A10005EBF0022ECE7000000080048000C0048E0
:104A200010B501020748FDF74AFF074C0122042197
:104A30002046FDF74CFF20460022BDE8104004212F
:104A4000FDF745BF00080048000C004800EB81005E
:104A5000006E00F0F84070478068C0F3C0007047F7
:104A60008068C0F380007047C06810F4406F01D0C8
:104A70000020704701207047042303EAD15310B58A
:104A800018444369C1F3045107248C40A3438A406E
:104A90001343436110BD00EB8100016E21F0004122
:104AA000114301667047000030B589B02021684687
:104AB000FBF79EFD19481849002401604902C0E92E
:104AC0000114C46004250461C0E90545047701218F
:104AD0004177016280F82440C462046380F8381092
:104AE000C46380F84040FDF76BFA08B1FCF72AFF79
:104AF0000B48009006200190072002907F2005942B
:104B0000CDE9030569460548FDF74AF8002801D0BC
:104B1000FCF718FF09B030BD000100502C00002048
:104B20000080F03E114808B5816C41F004018164B9
:104B3000816C01F004010091816C41F001018164FC
:104B4000806C002200F00100009011460B20FDF760
:104B500029FF0B20FDF718FF002211460C20FDF75E
:104B600021FFBDE808400C20FDF70EBF00100240F9
:104B70002DE9F04387B014216846FBF739FD4C4816
:104B8000C16C41F00401C164C16C01F004010591E4
:104B9000C16C41F02001C164C16C01F0200105919C
:104BA000C16C41F04001C164C16C01F0400105914C
:104BB000C16C41F00101C164C16C01F001010591BA
:104BC000C16C41F00201C164C16C01F002010591A8
:104BD000C16C41F00801C164C06C364F00F00800A0
:104BE0004FF47F440590012221463846FDF76FFEC1
:104BF000DFF8C480002204214046FDF768FEDFF89C
:104C0000BC900022C0214846FDF761FE0125CDE998
:104C1000004500240294694638460394FDF726FDBA
:104C2000A8020326CDE90006694602942448FDF750
:104C30001DFDFF20CDE90006694602943846FDF7C8
:104C400015FDCDE900544FF090476946384602956E
:104C5000FDF70CFD49F6FE10CDE900066946029409
:104C60003846FDF703FD07208DE8310069464846C8
:104C7000FDF7FCFC47F63870CDE900066946029462
:104C80004846FDF7F3FC04200090CDE90154694645
:104C900040460394FDF7EAFCC0200090CDE90154A2
:104CA000694648460394FDF7E1FC07B0BDE8F08390
:104CB0000010024000080048000C004800040048B2
:104CC000001800483EB500240F48009401940D4997
:104CD000029401604F21C0E9011440F2E731846180
:104CE000C160FEF7F4FB08B1FCF72CFE00946946A6
:104CF00005480294FEF79CFB002801D0FCF722FE39
:104D00003EBD000000100040F800002010B51F4C10
:104D10001D480C2120604FF4165060600020A060F8
:104D2000E060C4E90401A061E06120626062A06209
:104D30002046FEF7E7FF08B1FCF704FE0021134808
:104D4000FEF7FEFD08B1FCF7FDFD00210F48FEF760
:104D5000D1FD08B1FCF7F6FD0C48FEF7AAFD08B13D
:104D6000FCF7F0FD2068016841F020010160206837
:104D7000016841F01001016004493222BDE8104091
:104D800034390248FFF754B8003801407801002058
:104D9000FEE7FEE708B50020032269460090FCF715
:104DA0007FFD05489DF8001041729DF80110817249
:104DB0009DF80210C17208BD7402002008B50020E1
:104DC000009008480322417A8DF80010817A8DF80E
:104DD0000110C07A8DF8020069460020FCF78CFDB6
:104DE00008BD000074020020704730B5012100208A
:104DF000FFF7E4FC4FF47A70FCF744FD002101203A
:104E0000FFF7DCFC41F290711020FFF7D7FC4FF464
:104E10001C516020FFF7D2FC01216120FFF7CEFC7E
:104E200002214620FFF7CAFC48F210011320FFF7C9
:104E3000C5FC48F2FE011220FFF7C0FC4FF4A06150
:104E40000220FFF7BBFC41F230010320FFF7B6FC64
:104E500040F2033421463020FFF7B0FC21463120D8
:104E6000FFF7ACFC21463220FFF7A8FCE51E2946DF
:104E70003320FFF7A3FC03213420FFF79FFC2146DA
:104E80003520FFF79BFC14213620FFF797FC2146C5
:104E90003720FFF793FC21463820FFF78FFC21468F
:104EA0003920FFF78BFC29463A20FFF787FC0321C6
:104EB0003B20FFF783FC21463C20FFF77FFC4FF4AB
:104EC000A0513D20FFF77AFC4FF400719220FFF7CC
:104ED00075FC21469320FFF771FC40F60D019020F0
:104EE000FFF76CFC41F218010320FFF767FCBDE8F7
:104EF000304040F273110720FFF760BC10B543F259
:104F00000801E320FFF75AFC1221E720FFF756FCC7
:104F100041F23121EF20FFF751FC00210120FFF782
:104F20004DFC4FF4E0610220FFF748FC41F23001F4
:104F30000320FFF743FC00210420FFF73FFC40F271
:104F400007210820FFF73AFC00210920FFF736FC73
:104F500000210A20FFF732FC00210C20FFF72EFC75
:104F600000210D20FFF72AFC00210F20FFF726FC6F
:104F700000211020FFF722FC07211120FFF71EFC63
:104F800000211220FFF71AFC00211320FFF716FC66
:104F9000C820FDF759FB41F290611020FFF70EFC8D
:104FA00040F227211120FFF709FC3220FDF74CFBCE
:104FB0001D211220FFF702FC3220FDF745FB4FF4C4
:104FC00000611320FFF7FAFB14212920FFF7F6FBFD
:104FD0000B212B20FFF7F2FB3220FDF735FB0021E0
:104FE0002020FFF7EBFB00212120FFF7E7FB072143
:104FF0003020FFF7E3FB40F207713120FFF7DEFBC3
:1050000006213220FFF7DAFB40F204713520FFF76A
:10501000D5FB41F604713620FFF7D0FB0421372081
:10502000FFF7CCFB00213820FFF7C8FB40F20671E8
:105030003920FFF7C3FB40F201713C20FFF7BEFBB4
:105040000F213D20FFF7BAFB00215020FFF7B6FBF0
:10505000EF215120FFF7B2FB00215220FFF7AEFBFA
:1050600040F23F115320FFF7A9FB4FF41C51602081
:10507000FFF7A4FB01216120FFF7A0FB00216A20BC
:10508000FFF79CFB00218020FFF798FB0021812087
:10509000FFF794FB00218220FFF790FB0021832083
:1050A000FFF78CFB00218420FFF788FB002185207F
:1050B000FFF784FB10219020FFF780FB0021922056
:1050C000FFF77CFB03219320FFF778FB4FF48871F7
:1050D0009520FFF773FB00219720FFF76FFB00215E
:1050E0009820FFF76BFB41F218010320FFF766FBE6
:1050F000BDE8104040F273110720FFF75FBB0000CE
:1051000008B1044801E003481030016841F0400153
:10511000016070471804004810B580210348FDF76E
:10512000C9FB012800D0002010BD00000004004889
:1051300000B585B014216846FBF75AFA802000902C
:10514000002001900120029002200390694602484D
:10515000FDF78CFA05B000BD0004004808B1044812
:1051600001E003481030016841F0800101607047A0
:105170001804004800B585B014216846FBF738FADA
:1051800080200090112001900020029002200390C6
:1051900069460248FDF76AFA05B000BD0004004800
:1051A0007047FDF79FBB10B594B038216846FBF7F8
:1051B0001FFA14210EA8FBF71BFA4FF40070FDF73D
:1051C00023FC012000900004019002200324CDE97B
:1051D00007041421CDE90A100C900D90099468463B
:1051E000FDF706FF08B172B6FEE70F20CDE90E0409
:1051F000002010901190129002210EA8FDF7AEFD34
:10520000002801D072B6FEE714B010BD0248016854
:1052100041F470010160704788ED00E010B5FFF7C0
:10522000F5F90020FFF77EF80020FFF749FA4FF666
:10523000FF70FFF759FA0021FF20FFF7D3FBFEF7BD
:1052400083FE0948FEF792F97F210848FCF75EFCCF
:105250000A2207490548FDF709F8FFF79BFDBDE85D
:105260001040FFF7C9B80000F80000202C00002013
:10527000480300200148FEF7B6B90000F8000020FE
:105280002DE9F0430268234B234D244E244C4FF06C
:105290008049984207D0484505D0A84203D0B04283
:1052A00001D0A04203D122F070074A683A431D4F53
:1052B000DFF874C0DFF8748098420DD048450BD0F9
:1052C000A84209D0B04207D0A04205D0B84203D0CE
:1052D000604501D0404503D122F44075CA682A4395
:1052E0004D6922F080022A4302608A68C2620A681D
:1052F0008262984207D0A04205D0B84203D06045F0
:1053000001D0404501D10969016301214161BDE836
:10531000F0830000002C0140000400400008004021
:105320000034014000400140004401400048014079
:1053300030B5416EB9B1026891689268C1F34261BB
:105340000B4B520F9C5CE50003F10804A25CB5FB1B
:10535000F2F2A0F86A205A5C615CD200B2FBF1F173
:10536000A0F8681030BD0121A0F86A10F8E700002D
:10537000FC5C000890F82810C90706D001684A684C
:10538000C36A22F400321A434A6090F82810890751
:1053900006D501684A68036B22F480321A434A60DA
:1053A00090F82810490706D501684A68436B22F433
:1053B00080221A434A6090F82810090706D5016830
:1053C0004A68836B22F400421A434A6090F828101E
:1053D000C90606D501688A68C36B22F480521A4355
:1053E0008A6090F82810890606D501688A68036CDF
:1053F00022F400521A438A6090F82810490611D509
:1054000001684A68436C22F480121A434A60416C76
:10541000B1F5801F06D101684A68836C22F4C0028E
:105420001A434A6090F82810090606D501684A68B0
:10543000C06C22F4002202434A607047F8B500268F
:105440000446C0F88C60FDF747FA054620680068FE
:105450006FF07E47000708D52B4600224FF400115D
:105460002046009700F06AFA60B92068006840079B
:105470000AD52B4600224FF480012046009700F009
:105480005DFA08B10320F8BD2020C4F88400C4F8F8
:10549000880044F86C6F00202675F8BD10B5806A4E
:1054A0000021A0F85E10A0F85610FEF7B9FA10BD62
:1054B00070B5846AD4F88400D4F88850216889686B
:1054C0004FF00006090606D5212804D1A4F856603D
:1054D000204600F08FF820688068400606D5222D0F
:1054E00004D1A4F85E60204600F05AF8D4F88C008D
:1054F00040F01000C4F88C002046FEF791FA70BD11
:1055000010B50146806A0968096889062ED4002111
:10551000A0F85E10016851E8002F22F4807241E883
:105520000023002BF6D10168083151E8002F22F04A
:10553000010241E80023002BF5D10168083151E850
:10554000002F22F0400241E80023002BF5D120215A
:10555000C0F88810C16E012908D1026852E8001F06
:1055600021F0100142E80013002BF6D1C16E012991
:1055700002D0FEF787FC10BDB0F85C10FEF7B8F95A
:1055800010BD10B5806AC16E012902D0FEF77BFC08
:1055900010BDB0F85C104908FEF7AAF910BD000074
:1055A00010B5026852E8001F21F4907142E8001320
:1055B000002BF6D10E4B0268083252E8001F19404A
:1055C00042E80014002CF6D1C16E012908D101680F
:1055D00051E8002F22F0100241E80023002BF6D101
:1055E0002021C0F888100021C166016710BD0000AD
:1055F000FEFFFFEF026852E8001F21F0C00142E801
:105600000013002BF6D10168083151E8002F22F475
:10561000000241E80023002BF5D12021C0F88410BE
:10562000704700002DE9F041044601688068226956
:10563000E3691043626900251A431043DFF82CC266
:105640000A688B4B1A4002430A6020684168E2688E
:1056500021F44051114341602168A069614501D0A6
:10566000226A10438A68834B1A4002438A6020688A
:10567000C16A626A21F00F011143C1627E49236849
:105680007E488B420DD1D0F8880010F0030006D080
:10569000012855D0022842D003283FD152E00120F2
:1056A0003DE077498B420BD1D0F8880010F00C0018
:1056B00035D0042833D0082840D00C282ED141E022
:1056C00070498B420BD1D0F8880010F0300026D002
:1056D000102835D0202831D030281FD132E06A4937
:1056E0008B420BD1D0F8880010F0C00017D04028B2
:1056F00026D0802822D0C02810D123E063450DD1C8
:10570000D0F8880010F4406009D0B0F5806F17D051
:10571000B0F5006F12D0B0F5406F13D010205B4988
:105720005B4F00264FF4004263453BD160B1022835
:1057300013D004280BD0082872D10DE00220EEE728
:105740000420ECE70820EAE7FDF7F6FB01E0FDF7AF
:1057500017FC010001D17CE01146606A37F8102087
:105760006768B1FBF2F007EB4703834270D8B0EBF8
:10577000073F6DD8002308461946FAF7ADFD090228
:1057800041EA106102027808101871413A4600237C
:10579000FAF7A2FD3F4AA0F54071914258D821681E
:1057A000C86056E0E3694FF6EF7893422CD10928A0
:1057B0004ED2DFE800F00508114D0D4D4D4D1000A3
:1057C000FDF7BAFB01E0FDF7C9FB010004D140E0A1
:1057D000FDF7D6FBF9E71146606A37F81000B1FB18
:1057E000F0F04100606801EB5001B1FBF0F0A0F176
:1057F000100141452CD84FF6F0710140C0F3420032
:1058000001432068C16024E0092821D2DFE800F0CC
:10581000050912200E2020201100FDF78DFB02E06B
:1058200016E0FDF79BFB010004D112E0FDF7A8FB99
:10583000F9E71146606A37F81000B1FBF0F16068D3
:1058400001EB5001B1FBF0F0A0F1100141450AD984
:1058500001250120A4F86A0024F8680F2846A660F4
:10586000E660BDE8F08180B299E70000008000406A
:10587000F369FFCFFFF4FF11003801400010024030
:105880000044004000480040004C00400024F40068
:10589000E45C0008FFFC0F0070B58165A0F85C2097
:1058A00000250446C0F88C502220C4F88800E06F20
:1058B000D8B11F49C162E16F1E4813460863E16F0A
:1058C0001D484863E06F8563A66D21683246243128
:1058D000E06FFCF773FE40B11020C4F88C0004F8B0
:1058E000805F2020A060012070BD84F88050206976
:1058F00040B1216851E8000F40F4807041E8000297
:10590000002AF6D12068083050E8001F41F001015C
:1059100040E80012002AF5D12068083050E8001F46
:1059200041F0400140E80012002AF5D1002070BD8E
:105930000155000883550008B15400082DE9F047CF
:105940009A4617460E4604464FF000094FF02008CD
:10595000089D4AE0681C48D0FCF7BEFFA0EB0A0097
:10596000A8422AD84DB32068016849073DD5C069CF
:10597000C043000539D421684FF4006008622068F4
:1059800050E8001F21F4D07140E80012002AF6D13F
:105990002068083050E8001F21F0010140E80012A3
:1059A000002AF5D144F8848FC4F80480C4F8088034
:1059B00004F8049C0320BDE8F087216851E8000F3B
:1059C00020F4D07041E80002002AF6D120680830A7
:1059D00050E8001F21F0010140E80012002AF5D133
:1059E00044F8848FC4F80480E2E72068C06936EA8E
:1059F000000004D00020B842ACD00020DBE701203A
:105A0000F9E700000D4810B50068C169C943C9062F
:105A10000ED4102101620948FDF7BAFF0748903003
:105A200000684068C0F132010548017001214170F1
:105A3000BDE810400148FDF7F5BF000078010020E7
:105A400000000020F0B5244889B00178002940D03A
:105A5000002101702148007810B34FF49677012897
:105A600009D11F481F4E0125007806F10C04432878
:105A700005D053281CD03B4613221BA10DE020214A
:105A80006846FAF7B5FD3572237A22781BA168467D
:105A9000FAF79AFC3B461E2269461B48FEF7F4F9CA
:105AA00009B03222BDE8F0400D491748FEF7C0B9F1
:105AB000202101A8FAF79CFD3572E07A0090A37AC4
:105AC000627A12A101A8FAF77FFC3B461E2201A9C7
:105AD000E3E709B0F0BD0000010000200000002055
