:020000040800F2
:1000000008090020ED0100084D52000815420008C3
:1000100049520008E914000831630008000000009C
:100020000000000000000000000000007157000800
:10003000C9150008000000007D520008A5570008FF
:10004000070200080702000807020008070200086C
:10005000070200080702000807020008070200085C
:10006000070200080702000807020008ED14000854
:10007000FD14000807020008070200080702000834
:10008000070200080000000007020008070200083D
:10009000070200080702000807020008070200081C
:1000A000070200080702000807020008070200080C
:1000B00007020008070200080702000807020008FC
:1000C00007020008070200080702000807020008EC
:1000D00007020008AD6100080702000807020008D7
:1000E00007020008E155000807020008070200089F
:1000F00007020008070200080702000800000000CD
:1001000000000000070200080000000007020008CD
:100110000702000800000000D95800080702000884
:10012000070200080702000807020008070200088B
:10013000070200080000000000000000070200089D
:10014000070200080702000800000000000000008D
:10015000000000000000000000000000000000009F
:10016000000000000000000000000000070200087E
:10017000070200080000000000000000000000006E
:10018000000000000702000800000000000000005E
:10019000000000000000000000000000000000005F
:1001A000000000000000000007020008070200082D
:1001B000070200080702000807020008000000000C
:1001C000000000000702000800000000000000001E
:1001D0000702000807020008DFF80CD000F088FDD5
:1001E00000480047C9630008080900200648804706
:1001F00006480047FEE7FEE7FEE7FEE7FEE7FEE70C
:10020000FEE7FEE7FEE7FEE719580008D9010008FF
:100210002DE9F05F0546002092469B46884606463B
:10022000814640241BE0284641464746224600F0CE
:100230004FFB53465A46C01A914110D311461846F7
:10024000224600F036FB2D1A67EB01084F46224686
:100250000120002100F02DFB17EB00094E41201E6C
:10026000A4F10104DFDC484631462A464346BDE896
:10027000F09FD2B201E000F8012B491EFBD270477B
:100280000022F6E710B513460A4604461946FFF762
:10029000F0FF204610BD00000FB400B58DB010A9CE
:1002A00009900B9000914FF0FF300A9000200C90C5
:1002B00005480690054807906A4609A80F9900F07E
:1002C0001DFB0DB05DF814FB190900083709000883
:1002D0002DE9FF5FD2E901A74FF000089169994627
:1002E0001446DDF838B0464601988847054659EA75
:1002F0000B0005D009E0A169761C019888470546E6
:10030000216A284688470028F5D1681C03D05FEA97
:10031000CA7005D015E04FF0FF3004B0BDE8F09F83
:100320002068011D2160D0F800800AE05FEACA70F1
:1003300001D108F8015BA169761C7F1E01988847EE
:100340000546002F1ADD681C18D0B9F1000F0DD03A
:10035000E81705EBD060421120F01F0059F8221079
:100360002A1A012090400142E0D107E0BBF1000FC2
:10037000DCD1216A284688470028D7D0E169019856
:100380008847BBF1000F07D1002E05DD5FEACA7078
:1003900002D1002188F80010A068B84203DDBBF14B
:1003A000000F03D017B16FF00100B6E73046B4E795
:1003B0002DE9FF4F087883B09946FF2805D0491CE6
:1003C0002D2804D00024002008E000200BE00124A8
:1003D000F9E700EB800003EB4000491C0B78FF2B92
:1003E000F7D104B1404200230293147819461D4608
:1003F0002D2C01D02B2C04D1521C2D2C13D00024D9
:100400000294AA461478FF2C0FD00A25A3FB057886
:1004100001FB05814FF0000C03FB0C11521CE3198A
:100420004AEB0101EEE70124EAE7814453EA0100C7
:1004300002D019F5C87F06DA03980021C0E900113F
:1004400007B0BDE8F08F0025AE4E2F46DFF8B8822A
:10045000184600F0F4FBCDE90001B9F1000002DA22
:10046000C9F1000400E004460023A74A1AEB030B7D
:1004700042EB045A12E0E00707D02A4633463846DA
:10048000414600F045F9074688462A46334610465D
:10049000194600F03DF905460E466410002CEAD1DD
:1004A000DDE90001B9F1000F5A46534606DA00F0C3
:1004B00057FB3A46434600F053FB05E000F028F9AD
:1004C0003A46434600F024F9029A0AB181F000410D
:1004D000039AC2E90001B3E72DE9FF4F1F468DB033
:1004E000D7E901464FF0FF382E2045464FF000096E
:1004F0000B90B9696D1C0E988847396A8246884707
:100500000028F6D1BAF1FF3F0AD024F4D064002EBF
:1005100011DDBAF12B0F08D0BAF12D0F0BD102E08B
:10052000404611B08DE744F48064B9696D1C0E98A3
:1005300088478246761E6946600501D52D2000E079
:100540002B208DF8000001F1010B0DF1200809E0CE
:10055000B9696D1C0E98884782460F9844F4007460
:10056000761E0560002E02DDBAF1300FF0D00B9937
:100570008A453ED144F0800406E00F99681CA9F139
:10058000010944F400740860B9696D1C761E0E9868
:10059000884782463028F0D02BE00B998A4505D158
:1005A000200603D444F08004761E18E0504606F07E
:1005B00013F808B30DF11302761EAAF1300044F4CB
:1005C0000074934506D20BF8010B200607D5A9F15C
:1005D000010003E0200602D409F101008146A005D4
:1005E00002D50F99681C0860B9696D1C0E98884780
:1005F0008246002ED1DC53E0002E51DDBAF1650FAA
:1006000002D0BAF1450F4BD1A00549D5B9696D1C8F
:1006100024F44074761E0E9888478246002E0CDD26
:100620002B2804D0BAF12D0F07D144F48074B96996
:100630006D1C0E9888478246761EE00501D52D2157
:1006400000E02B2108F8011BCDF82C8021E00DF1F2
:100650002901761E44F4007488450CD2AAF13000BA
:1006600010F0FF0088F8000002D10B99884509D9E5
:1006700008F1010806E0E00501D5244801E042F256
:100680000F708146B9696D1C0E98884782460F9895
:100690000560002E04DD504605F09EFF0028D6D1EF
:1006A000F9690E988847FF208BF8000088F8000051
:1006B0000020069007904B466A4608A906A8FFF757
:1006C00077FEA00502D46FF001002AE714F0240F92
:1006D0000AD0E00714D1DDE906123868031D3B603B
:1006E0000068C0E900120BE0DDE9060100F0E4FA61
:1006F0000146E00704D13868021D3A6000680160D5
:1007000028460EE7000014400000F03FF1D8FFFF3C
:100710002DE9FE4F81EA030404F0004421F000417A
:1007200000944FF0000B23F0004350EA01045ED028
:1007300052EA03045BD0C3F30A54C1F30A552C44B4
:10074000A4F2F3340194A0FB0254C1F3130141F469
:100750008011C3F3130343F4801301FB024400FB35
:10076000034E840A970A44EA815447EA8357A4FB5C
:10077000076802958D0A05FB07854FEA932C04FB59
:100780000C542705029D4FEA065847EA1637B5EB89
:1007900008056EEB070C870E920E47EA811742EAB6
:1007A0008312A7FB0201B6EB0B0164EB00042B0DD7
:1007B00043EA0C335E1844EB1C50DA465146E7FB23
:1007C0000201C5F313044FEA0B3343EA14534FEA13
:1007D0000432019C43EA0603A4F10C040294009C39
:1007E000CDE900B400F0C7F803B0BDE8F08F0020F9
:1007F0000146F9E730B5041E71F1000404DB4FF047
:100800000044404264EB0101141E73F1000405DB57
:100810001C464FF00043524263EB0403101A8B4115
:1008200001D2012030BD002030BD30B5041E71F171
:10083000000404DB4FF00044404264EB0101141E4D
:1008400073F1000405DB1C464FF00043524263EB9A
:100850000403801A994101D2012030BD002030BD2F
:1008600000F0004230F000400AD0C10D01F5607187
:10087000C0F3160042EA0151C20840071143704715
:1008800000200146704730B50B460146002020226B
:10089000012409E021FA02F59D4205D303FA02F58D
:1008A000491B04FA02F52844151EA2F10102F1DCED
:1008B00030BD202A04DB203A00FA02F10020704704
:1008C0009140C2F1200320FA03F31943904070478E
:1008D000202A04DB203A21FA02F00021704721FA95
:1008E00002F3D040C2F120029140084319467047FC
:1008F000026811441378016018467047D1600449BA
:1009000051610449116200211161114600F01ABAC7
:10091000F1080008390D0008426842B1016811F879
:10092000013B23B1521EC0E9001218467047012155
:10093000C160881E704742685AB1C368016843B9F4
:1009400083688B4205D0491E521CC0E9001200206A
:1009500070474FF0FF30704710B5141E73F100045C
:1009600008DA401C41F1000192185B411A4301D1A1
:1009700020F0010010BD2DE9F04D92469B4611B1CB
:10098000B1FA81F202E0B0FA80F220329046FFF72D
:1009900090FF04460F4640EA0A0041EA0B01534625
:1009A0005A46084313D0114653EA010019D0C8F142
:1009B00040025046FFF78CFF05460E46504659460A
:1009C0004246FFF776FF084305D0012004E02046A9
:1009D0003946BDE8F08D0020054346EAE0762C4319
:1009E00037430A986305E40AA0EB08000022FD0AD9
:1009F00044EA47540A3002D500200146E9E70105E0
:100A000010196941DDE9084500196941BDE8F04D5B
:100A1000A2E72DE9FE4F804681EA0300C00F0C4695
:100A2000009021F0004123F00045B8EB0200A941FD
:100A300005D24046214690461C460B46024623F00E
:100A40000040104347D0270DC7F30A00C3F30A51F3
:100A50000290401A019040286BDAC3F3130040F46F
:100A6000801B0098924620B10023D2EB030A63EB6F
:100A70000B0B01985946C0F140025046FFF719FF91
:100A800006460D4650465946019A00F043F910EBD0
:100A900008006141002487EA115284EAE7731A438F
:100AA00040D0009A62B3019A012A4FEA075215DC3E
:100AB000001B61EB02014FF0004202EA0752CDE950
:100AC0000042001C41F5801132462B46FFF753FFD0
:100AD00003B0BDE8F08F40462146F9E7001B61EB0B
:100AE0000201001C41F5801300185B412018A2F59B
:100AF000001747EB030140EAD570B6196D4111E0CC
:100B00006D084FEA360645EAC0754FEA0752001BEA
:100B100061EB0201001C41F5801149084FEA3000E9
:100B20000019514132462B4603B0BDE8F04FFFF7A4
:100B300013BF0098012240000023D0EB020263EBB8
:100B4000E073009821464FEAE074B8EB000061EBD7
:100B50000401E9E783F000435BE781F0004158E7D7
:100B60002DE9F04D81EA030404F0004B21F000452B
:100B700014464FF0000A23F0004150EA050220D04D
:100B800054EA01021DD0C5F30A570246C5F3130308
:100B9000C1F31300C1F30A5640F4801543F48013E7
:100BA000A7EB0608101BD64608F2FD3873EB0500CC
:100BB00002D308F1010801E092185B41B8F1000F7F
:100BC00003DA00200146BDE8F08D00204FF48011CB
:100BD000064684460EE0171B73EB050705D3121B70
:100BE00063EB050306434CEA010C49084FEA300069
:100BF00092185B4150EA0107EDD152EA030012D08E
:100C000082EA040083EA0501084305D0101BAB41CA
:100C100006D20122002306E000224FF0004302E04A
:100C20006FF0010253101AEB06004CEB085110EB69
:100C30000A0041EB0B01BDE8F04DFFF78DBE0EB58C
:100C400040F2334202920022CDE900221346FFF720
:100C500092FE03B000BDC1F30A52C1F3130140F28A
:100C6000FF3341F480119A4202DA002001467047B6
:100C700040F233439A42A2F2334202DC5242FFF77F
:100C800027BEFFF716BE000030B5041E71F1000448
:100C900004DB4FF00044404264EB0101141E73F189
:100CA000000405DB1C464FF00043524263EB040393
:100CB000994208BF904230BD01F0004330B421F0AA
:100CC000004150EA010206D00A0DA2F56072C1F39C
:100CD0001301002A02DC30BC00207047440F44EAB4
:100CE000C104C100E01830BC00EBC25000F0C0B934
:100CF000064C074D06E0E06840F0010394E8070069
:100D000098471034AC42F6D3FFF76AFAF07F000838
:100D100010800008202A06DBCB17203A41FA02F0A7
:100D200043EAE07306E041FA02F3D040C2F1200248
:100D30009140084319467047C0B24FF4F05100F09B
:100D4000CFB900002DE9F34F8BB04FF0000801F14F
:100D50000C000C464FF0010B46460DF1080A0190BD
:100D60006269012101989047051E2DD0252D2CD0B8
:100D7000216A8847C0B16269012101989047216AC0
:100D800088470028F7D1411E62690198904700E02A
:100D9000761CA1690B988847216A88470028F7D1FB
:100DA000E1690B988847DBE7A1690B9888470746FC
:100DB000A84201D1761CD3E7E1690B9888477F1CD4
:100DC00002D1B8F1000F6FD046E1002762693D46BD
:100DD0003946019890472A2804D162690121019877
:100DE00090470125DFF884926269012101989047BC
:100DF000A0F130010A290AD24F45E5DC07EB870153
:100E000000EB4107303FDFD445F01005ECE7E90681
:100E100001D46FF000476C280AD04C2814D0682801
:100E200015D06A280DD074281CD07A281AD01DE05D
:100E300062690121019890476C2802D045F00405B1
:100E400014E045F002050DE045F020050AE0626976
:100E5000012101989047682802D045F0080505E077
:100E600045F400656269012101989047C4E9015782
:100E700065283DD019DC58287AD00CDC452837D0BD
:100E800004DC252826D0412831D131E046282FD056
:100E900047282CD12CE05B2877D0612828D0632804
:100EA0007CD0642823D15AE0D0E06F2848D008DCF9
:100EB00066281DD067281BD0692821D06E2816D13E
:100EC00027E0702845D0732868D0752847D0782847
:100ED0000DD14DE0A1690B988847054625283FF4C0
:100EE00069AFE1690B9888476D1C3FF46AAFB3E0C6
:100EF00023466A466FF001000B99FFF7EDFA9EE07A
:100F000045F040006060A80723464FF0000236D449
:100F10003EE0E8077FF447AF2068011D21600068CC
:100F2000290501D506701BE7290701D5068017E7BB
:100F3000A90703D5F117C0E9006111E706600FE7C3
:100F400045F040006060A80723464FF0080216D421
:100F50001EE040F60E0125EA0100606016E045F053
:100F600040006060A80723464FF00A0207D40FE054
:100F700045F040006060A80708D5234610226FF0B6
:100F800001000B99AFF3008059E007E023461022DF
:100F90006FF001000B99AFF3008050E04FF00009B3
:100FA0004F464B46632802D05B2806D040E0E80657
:100FB00001D40120A06001273AE062690121019873
:100FC00090475E2805D14FF00109626949460198B2
:100FD0009047216939B900210A46534643F8212038
:100FE000491C0829FADBB0B3216969B9C11700EBC4
:100FF000D16253110AEB830122F01F02821A0120F1
:101000000B68904003430B6062690121019890478F
:101010005D28E8D1B9F1000F09D00020514651F800
:101020002020D24341F82020401C0828F7DB02ABE7
:10103000224600976FF001000B99FFF749F900284D
:101040000CDA401C08D1BBF1000F05D04FF0FF3087
:101050000DB0BDE8F08FFFE74046F9E7E90701D1A1
:1010600008F1010806444FF0000B79E6CCCCCC0C1B
:101070000029A8BF7047401C490008BF20F00100AC
:10108000704710B4B0FA80FC00FA0CF050EA01048A
:1010900004BF10BC704749B1CCF1200421FA04F41C
:1010A00011FA0CF118BF012121430843A3EB0C01F5
:1010B000CB1D4FEA00614FEA102042BF002010BC58
:1010C000704700EBC35010440029A4BF10BC704708
:1010D000401C490008BF20F0010010BC7047000010
:1010E0007F2801D9002208E0064A02EB5002C0071F
:1010F000127800D1120902F00F020120904008403E
:1011000070470000206D000870B5044600680D4669
:1011100003F0DEFD21680646084603F0B7FD3043C4
:101120005BD02068C168890114D5617F012911D184
:10113000217F01290ED10168490608D40121CAF294
:10114000403100BF01393ED002685206FAD5402135
:1011500001250160022D0FD003F0BAFD18B12068FF
:1011600003F0AAFD18B1012D06D1042616E020686F
:1011700003F0D8FD012DF8D0206803F087FD30B1D1
:10118000206803F099FD10B9206803F083FD042660
:10119000022D08BF0826032D08BF0C2601F016FA01
:1011A00021688968314218D0054603E020688068CC
:1011B000304212D001F00AFA401B0628F6D320680C
:1011C00080683042F2D0E06D40F01000E065206EA3
:1011D00040F001002066012070BD002070BD0000BD
:1011E00010B5846AE26DE16D12F0500F05D0C906AA
:1011F0000ED4616D496B884710BD41F40070E06505
:1012000020680168090707D4C068800716D40AE07F
:10121000204600F059FD10BD03F05EFD70B120685E
:10122000C06880040AD4E06D20F48070E065E06D51
:10123000C00403D4E06D40F00100E065204600F0FA
:101240003FFD10BD80B5806AC16D41F04001C165B0
:10125000016E41F00401016600F036FD80BD000022
:1012600080B5806A00F02EFD80BD0000B0B5044658
:10127000006803F021FD21680546084603F020FDC3
:1012800001464FF000007DBB002908BFB0BD2068BB
:10129000816801F00D0101291BD103F0BBFC20681E
:1012A0000321016001F092F921688968C90704BF30
:1012B0000020B0BD054603E020688068C00712D05A
:1012C00001F084F9401B0328F6D320688068C0072A
:1012D000F2D0E06D40F01000E065206E40F00100BB
:1012E00020660120B0BD0020B0BD0000B0B50446AE
:1012F000006803F0E5FC08B10020B0BD20683F2283
:101300008168C8F20002114209D0E06D40F010007F
:10131000E065206E40F0010020660120B0BD03F0C2
:101320008BFC01F053F921680A68D2071CBF00202A
:10133000B0BD054604E000BF21680868C007DBD1E6
:10134000084603F0BDFC10B9206803F075FC01F0FD
:101350003DF9401B0328EFD320680068C007EBD19C
:10136000D3E7000000000000F0B581B040F2A424F3
:10137000C2F20004606805F01DF808B101B0F0BDCC
:1013800005F012F86430606040F2B420C2F2000050
:1013900000F072FE40F220004FF0000CC2F200009C
:1013A000CCF1630200260027002300BF741C50F814
:1013B000265050F8241001378D4282BF40F8261085
:1013C00040F824500133FEB2B242EFD8190604D0DF
:1013D0000CF1010CBCF1630FE2D100246FF00301AA
:1013E000421892680431B1F5C27F1444F8D140F23A
:1013F000B42040F22001C2F20000C2F200016422D7
:1014000000F0BEFD48F29D20C5F29730A4FB00011C
:10141000480900EE100A9FED1C1AB8EE400A9FED35
:101420001B2A20EE010A40F2B01620EE020A40F21A
:101430000C07C2F200060120C2F20007307110EE64
:10144000100A87ED000AFFF70BFA044678680D468C
:10145000FFF706FA9FED0A0B53EC102BFFF758F934
:1014600022462B46FFF7C6F9397A0028B1FA81F1F6
:1014700018BF012049090840B07101B0F0BD00BF9C
:101480006666666666660A403333534000008039FC
:10149000F0B58BB001AF0D460646384628211446FC
:1014A000FEF7EEFE00204FF000410290CDE906105D
:1014B000089001208DF824004FF480700A9040F2CB
:1014C000E030C2F20000394600228DF804608DF849
:1014D00005508DF8064001F06DFF002818BF00F0A0
:1014E000FDF80BB0F0BD0000FEE7000080B540F253
:1014F0002030C2F2000000F071FE80BD80B540F2E5
:101500008030C2F2000000F069FE80BD80B5016845
:101510006FF007024CF6CD4352FA81F2CCF6CC4381
:10152000A2FB032C40F20842C4F20202D0F844E0CD
:1015300002F58363914238BF02F57E732EF00301FA
:10154000194402F58F6ECCF3041301229A40C0E9CE
:10155000121E026580BD0000017940F600120139BB
:10156000C4F2020202EB810302F1400C01F01F0100
:10157000012202FA01F1C0E9153CC1657047000083
:1015800070B5D0E913C4D0F854E0CCF80440BEF1F3
:10159000000F1CBFD0E916C4CCF80440D0E9106E8F
:1015A0000468D0F808C00EF01F00012505FA00F00D
:1015B000706008466360BCF1100F04BF10460A4615
:1015C000A060E26070BD00007047000070B5144676
:1015D0000D46064602F0EEFEA02002F0C9FE02F023
:1015E00005FF304602F0C4FE02F000FF02F0E2FE0A
:1015F000A12002F0BDFE02F0F9FE24B90EE000BF0A
:1016000002F0CCFE56B1013C02F08CFE260605F835
:10161000010BF5D002F0A0FE002EF4D102F0D8FEAE
:10162000052000F0E3FE70BD80B582B000208DF88B
:1016300007000DF1070100200122FFF7C7FF9DF809
:101640000700B2EE041A00EE100AB8EE400A80EE6F
:10165000010A40F20C00C2F2000080ED010A02B063
:1016600080BD000080B582B040F20C00C2F20000E4
:1016700090ED010AB2EE041A20EE010ABDEEC00A96
:1016800010EE100A8DF807000DF10701002001226D
:1016900000F002F802B080BD70B514460D46064653
:1016A00002F088FEA02002F063FE02F09FFE3046AA
:1016B00002F05EFE02F09AFE4CB1013D15F8010FFA
:1016C000013C02F055FE02F091FE2006F6D102F038
:1016D0007FFE052000F08AFE70BD0000EFF3108051
:1016E00072B600BFFEE70000F0B58DB040F2B01753
:1016F000C2F20007397840F20C040020C2F2000464
:10170000ADF83000CDE90A00CDE90800CDE90600CA
:10171000059029B1217A3870B1FA81F04009207220
:10172000787840F2BB15C2F20005C0B128780026D7
:101730007E7078B1607AA17AE27AFFF7A9FE7E71B5
:1017400002F0A4FF40F2BA10C2F200002E70067040
:10175000FE7104E001267E7102F0F8FF2E70B87869
:10176000D0B1287800210128B97015D140F2BA1003
:10177000C2F200000178022907D84A1CC90040F2D1
:10178000012323FA01F1FA710170F87940F20C019A
:10179000C2F2000102F040FDF87828B3F879002188
:1017A0000328F9701AD8DFE800F01F020A12617AE4
:1017B0000131CAB2172A88BF002161720EE0A17AF6
:1017C0000131CAB23B2A88BF0021A17206E0E17A4A
:1017D0000131CAB23B2A88BF0021E17240F20C01FC
:1017E000C2F2000102F018FD387A48B300203872C6
:1017F000D4E90004FFF734F8054620460E46FFF70B
:101800002FF841EC100B40F2E840C2F200000178E2
:101810004278807805ACCDE9021204900CA12046F4
:101820002A4633468DED000B04F0F0FD40F25440A3
:10183000C2F2000021461E224FF4967302F07AFC99
:10184000787A18B100207872FFF70CFF0DB0F0BD68
:10185000252E32662B252E31662B2530326425301D
:101860003264253032640A0070B582B040F2E84438
:10187000C2F20004A07840F2BC1640F2E035C2F299
:101880000006C2F20005307028462146002201F011
:10189000E9FC40F2E441C2F200012846002201F0D6
:1018A000BFFC3078A578A8421BD040F2B010C2F23D
:1018B00000004079A8B940F2C41022786378C2F2DF
:1018C000000047F685716430C0F60001009504F011
:1018D0009DFD40F20200C2F20000018841F02001AB
:1018E000018002B070BD000070B582B004460020D7
:1018F000019094F85800012801D1022533E001201D
:1019000084F8580020460E46FFF7B0FC0546E06D0F
:1019100015B140F0100022E041F20211884302307C
:10192000E0652068314603F06DFA4DF60266C0F2BC
:10193000040600BF206803F0B7F960B101980130D8
:1019400001900198B042F5D3E06D012540F0100000
:1019500020F0020003E0E06D012161F30100E06589
:10196000002084F85800284602B070BDF0B581B060
:1019700004460020009094F85800012802D102206B
:1019800001B0F0BD20680D46012184F8581003F025
:101990009FF948B1E06D40F02000E0650120002192
:1019A00084F8581001B0F0BD2068D5E9002103F09B
:1019B0009BF9206803F08CF921680646084603F07D
:1019C00065F9304340F0B880AB68296803F1004006
:1019D000B0FA80F047092068B3F1004218BF1A46F8
:1019E000FE0703F0A9F92068314603F005FA2068E4
:1019F00029696B69C268042940F088804FF6FF7737
:101A00000021C0F2070703F03BF9216806460846AB
:101A1000002103F035F9720390FAA0F12A68B1FAB7
:101A200081F108BFC0F3846192FAA2F0B0FA80F0AD
:101A3000530308BFC2F38460814203D120680021B0
:101A400003F0D2F92068012103F01AF92168064653
:101A50000846012103F014F990FAA0F12A68B1FABE
:101A600081F13E4208BFC0F3846192FAA2F0B0FA5D
:101A700080F03A4208BFC2F38460814203D12068FB
:101A8000012103F0B1F92068022103F0F9F821687F
:101A900006460846022103F0F3F890FAA0F12A68FE
:101AA000B1FA81F13E4208BFC0F3846192FAA2F01C
:101AB000B0FA80F03A4208BFC2F38460814203D199
:101AC0002068022103F090F92068032103F0D8F880
:101AD000216806460846032103F0D2F890FAA0F1E7
:101AE0002A68B1FA81F13E4208BFC0F3846192FADC
:101AF000A2F0B0FA80F03A4208BFC2F3846081429B
:101B00001AD12068032103F06FF915E0062707EAD0
:101B100092072A68BB4003F045F920682969AA6941
:101B200003F05AF92A7F2068013AB2FA82F2296951
:101B30005209520603F048F9206803F0C1F8002862
:101B40004DD120682968EA6803F008F9E8680021A7
:101B5000C4F27F01884242D1D5F800E04FF08061A5
:101B60009EFAAEF27346B2FA82F76FF3DF433A465B
:101B70002068002B08BF4FEA9E62561C01EB826171
:101B800006F01E0C01F0F84206F01F010126BCF120
:101B9000090F06FA01F60DD842EA0601002B08BF2C
:101BA0004FEA9E677A1C02F01F0202EB420241EAF2
:101BB000025111E0002B08BF4FEA9E67791C01F02B
:101BC0001F01002301EB4101CFF6206303EB01511C
:101BD0003243114341F00071AA6803F0ADF8688800
:101BE00048F20801084232D003F03AF82A6800218E
:101BF000CCF221318A42014604D01020C9F2C00043
:101C0000824207D1080205D42068B0F1A04F2DD040
:101C10000020C4E60020CCF25270824208BF11F0CE
:101C2000807016D00020CCF6843082424FF0000045
:101C300008BF11F480027FF4B2AE206840F20012B7
:101C4000C5F20002904236D041F480000AE0002044
:101C5000A5E6206840F20012C5F20002904228D0AA
:101C600041F0807003F094F8002098E641F4000001
:101C700003F08EF840F20800C2F20000006842F65D
:101C800063518009C0F23E51A0FB0101880900EBBD
:101C900040000C2101EB80000090009868B100BF6B
:101CA000009801380090009800284FF00000F7D10C
:101CB00075E6002073E6002071E600206FE6000064
:101CC00070470000704700007047000070B582B098
:101CD000044600200190CCB1E06D30B9204600F000
:101CE000E5F80020206684F85800206802F0E0FF44
:101CF00010B1206802F098FF206802F0E5FF38B1CB
:101D0000206802F0E1FFF0B1002525E00125C9E0DF
:101D1000206802F09BFF40F20800C2F20000006859
:101D200042F663518009C0F23E51A0FB01018809CF
:101D3000022101EB400000BF019001980028DFD094
:101D400001980138F8E7E06D012540F01000E065EA
:101D5000206E40F001002066206802F0B9FFE16DBE
:101D600001F010010843E06D03D040F010000125A0
:101D700097E020F481700230E065206802F0A0FF57
:101D800078B94FF0A04002F09BFF064640F20010E9
:101D9000C5F2000002F094FF304302D1606802F007
:101DA000EDFF607FE16B41EA4030D4E90221084356
:101DB00094F824101043012940EA014106D1A06A99
:101DC0000022CFF6FE7202EB40400143E06A28B1E8
:101DD00000F47870226B084340EA02012068626BCD
:101DE000C36844F20706CFF6F07633401943C1606A
:101DF000016921F040611143016102F069FF21682E
:101E00000646084602F042FF30433BD194F83800C2
:101E1000217F400040EA813220682169C36844F292
:101E20000206B3431A43C260026949B142F48032E8
:101E30000261D0F8C02043F6FF739A43114307E0D4
:101E400022F480310161D0F8C01043F6FF72914353
:101E5000C0F8C01094F840200169012A0FD140F267
:101E6000FD7204F1440621EA020C4CCE216D42EAD7
:101E70000C021A433243114341F0010101E021F009
:101E80000101016120686169026B012922F00F01E3
:101E900002D1226A013A11430163E06D012161F32D
:101EA0000100E065284602B070BD000070B598B032
:101EB000044600201790CDE91500CDE9130002A8D3
:101EC0004421FEF7DDF9206840F20011C5F200015F
:101ED000884201D018B070BD4FF000504FF400455B
:101EE000119002A8029500F077FC002818BFFFF7B8
:101EF000F5FB41F24C00C4F202000168002641F4F7
:101F000000510160016801F40051019101990168DB
:101F100041F002010160006813A900F00200019085
:101F200001980320149040F20040C4F6000013957D
:101F3000159600F06FFA40F220350820C2F2000535
:101F4000C4F2020024214FF4007385E8430005F138
:101F500014004FF4006C4FF0200E80E808504FF44E
:101F60008050802228622846C5E9036200F08CF97F
:101F7000002818BFFFF7B2FB6565AC6218B070BDF2
:101F80002DE9F04190460E46044602F071FE2168AC
:101F90000746084602F09CFE18B994F8580001283C
:101FA00002D10220BDE8F0810120092F84F85800F9
:101FB0005BD8B84040F22121084256D02046FFF7B6
:101FC00095F930B10546002084F858002846BDE850
:101FD000F0812168E06D40F60172904300F5807257
:101FE00040F20010C5F200008142084608BF4FF0E1
:101FF000A040002FE26518BF884203D1E06D20F4B5
:102000008010E065E06D41F2E113C0044FF0000084
:1020100044BF206E20F006002066606D41F261270B
:10202000C0F60003C0F6000741F245250022C0F6C5
:102030000005C0E90B371C2345630B6084F858206A
:102040004A68434642F010024A60CA6842F0010200
:10205000CA604031324600F083F9216805460846DF
:1020600002F056FE2846BDE8F081002084F85800B2
:102070000120BDE8F0810000B0B5044690F858009A
:10208000012804BF0220B0BD012084F8580020467A
:102090000321FFF739F8054618BB2168606DCA684F
:1020A00022F00102CA6090F82510022907D100F041
:1020B0001DF8054618B1E06D40F04000E06520686D
:1020C000416821F0100141602046FFF7CFF8002D54
:1020D00008BF05462DB9E06D41F20111884301307A
:1020E000E065002084F858002846B0BD80B5014660
:1020F00090F82500022824D10868D1E910CE8A6C16
:10210000036823F00E030360136823F480731360E5
:10211000026822F0010202600EF01F00012202FAA2
:1021200000F0CCF80400D1E913205060486D60B194
:10213000026822F480720260D1E916024260002037
:1021400004E00420C863012000E00020012281F89F
:102150002520002281F8242080BD000080B590F861
:10216000251002292DD10168D0E910CE826C0B68B0
:1021700023F00E030B600B6823F001030B60116862
:1021800021F4807111600EF01F02012101FA02F2A8
:10219000CCF80420D0E913325A60426D32B1136892
:1021A00023F480731360D0E91623536080F8251060
:1021B000826B002180F824100AB190470021084664
:1021C00080BD0421C1630121002280F8251080F820
:1021D0002420084680BD0000C06B7047B0B502687F
:1021E000D0E910C4DCF80050136804F01F0E590742
:1021F00012D5042101FA0EF414EA05010CD011687D
:10220000890603D4116821F004011160CCF8044060
:10221000016BB9B38847B0BD990718D5022101FAFF
:102220000EF414EA050112D01168890606D411686B
:1022300021F00A011160012180F82510CCF804403A
:10224000C16A002280F82420E1B18847B0BD190797
:1022500058BFB0BD082101FA0EF1294012D0116813
:1022600021F00E011160012101FA0EF2CCF80420D8
:10227000C16380F82510416B0022002980F82420DA
:1022800018BF8847B0BD0000002804BF0120704778
:102290002DE9F04140F2000C0446C4F2020C006843
:1022A0004FF6F8330CF58162CBF6FD73904238BFE0
:1022B00003F5806303EB00024CF6CD43CCF6CC4330
:1022C000A2FB032304F1080E0CF580616FF00305F7
:1022D0009EE804413CBF0021C4F2020105EA9303D9
:1022E000C4E91013022184F82510016847F6F07341
:1022F000994304F114071143E8CF41EA080141EA88
:102300000E01194329433143394301602046FFF749
:10231000FDF8A06804F14803B0F5804F04BF002029
:10232000606060680ECBC7B2013803280F6053604D
:1023300009D82046FFF710F904F1540207CA002318
:1023400003604A6003E00020C4E91500E065002056
:102350000121E06384F8251084F82400BDE8F081B1
:1023600010B5044690F82400012820D0012084F8FC
:10237000240094F82500012816D1022084F82500B5
:102380000020E063D4F800C0DCF8000020F0010079
:10239000CCF800002046FFF7F3F82068226B0168B4
:1023A0003AB141F00E010AE0002084F82400022036
:1023B00010BD21F004010160016841F00A010160D3
:1023C000A06C0168C90303D5016841F48071016004
:1023D000606D18B1016841F4807101602068016886
:1023E00041F001010160002010BD0000B0B50446BD
:1023F00000F0ECF8054640F21800C2F20000006858
:10240000611C18BF044400BF00F0E0F8401BA0426C
:10241000FAD3B0BD2DE9F04F83B00D68002D00F068
:10242000C58000F138424FEAB22241F200470192E2
:10243000C4F600070622002600244FF0010AB84225
:1024400008BF0522009209E00D68043435FA0AF24B
:102450000AF1010A06F1020600F0A880AAF1010CB7
:10246000012202FA0CFB15EA0B09EDD0D1F8048029
:1024700008F00305A5F1010EBEF1010F11D8876820
:102480000322CB68B24027EA0202B3401A438260BB
:102490004268C8F3001322EA0B0203FA0CF31A4352
:1024A0004260032D1CD0C26803238F68B3409A4357
:1024B00007FA06F31A43022DC26011D16FF003022E
:1024C00002EA5C02024404F01C070F23D2F820E069
:1024D00003FA07F50B692EEA0505BB402B4313628F
:1024E000026803234F68B3409A4307F00303B340E5
:1024F0001A4317F4403F0260A6D041F26003C4F2D1
:1025000002031A6840F2004E42F001021A601A6893
:10251000C4F2010E02F001020292029A2CF00302B0
:102520004FF608487244CFF6FF7852F8083004F0AE
:102530000C070F25BD4023EA050C019B009D052BD0
:1025400038BF1D4605FA07F747EA0C0342F8083082
:10255000DEF808204B6842EA090740F20C4CDD0225
:1025600058BF22EA0907CEF80870C4F2010CDCF863
:1025700000209D0242EA090758BF22EA0907CCF869
:102580000070DEF804209D0342EA090758BF22EAE2
:102590000907CEF80470DEF80020DB0342EA0907E1
:1025A00058BF22EA0907CEF800704DE703B0BDE836
:1025B000F08F00000069084018BF0120704700003C
:1025C0001823002A08BF2823C150704740F200504A
:1025D000C2F200000068704740F2180040F200515B
:1025E000C2F20000C2F2000100680A6810440860EC
:1025F0007047000080B5032000F068F80F2000F05D
:1026000009F800281CBF012080BD00F02FF8002031
:1026100080BD0000B0B540F21801C2F200010968A7
:1026200001B3044640F20800C2F200004FF47A728F
:102630000068B2FBF1F1B0FBF1F001F031F80F2CC2
:102640004FF001050CD858B94FF0FF302146002259
:10265000002500F02BF840F21C00C2F200000460DC
:102660002846B0BD01252846B0BD000080B582B027
:1026700041F25800C4F20200816841F0010181601A
:10268000816801F0010101910199016841F08051D7
:102690000160006800F080500090009800F092F80F
:1026A00002B080BD80B503F045FE80BD70B5144614
:1026B0000D46064603F04EFE2946224602F0C8FDAE
:1026C0000146304603F04EFE70BD000080B503F0B9
:1026D0005BFE80BDB0F5007F35D0002866D147F2A3
:1026E0000000C4F200000168D0F8802001F4C0614D
:1026F00022F48072B1F5806FC0F8802021D101688A
:10270000012262F34A21016040F20801C2F2000195
:102710000968322359434DF68363C4F21B33A1FB8E
:10272000031302EB934100BF43694A1E8A4203D25E
:1027300013F480611146F7D14069400544BF03207E
:1027400070470020704747F20000C4F200000168A3
:10275000D0F8802001F4C06142F48072B1F5806F3E
:10276000C0F88020EDD10168012262F34A210160A6
:1027700040F20801C2F200010968322359434DF6C4
:102780008363C4F21B33A1FB031302EB934100BF2D
:1027900043694A1E8A4203D213F480611146F7D17D
:1027A0004069400544BF03207047CAE747F2000074
:1027B000C4F200000168022262F34A210160002095
:1027C0007047000047F20800C4F20000016841F4BD
:1027D00080410160704700002DE9F04381B08146DF
:1027E000807841F288070007C4F2020701D400256F
:1027F00065E057F8300C10F080580BD157F8300CCA
:1028000040F0805047F8300C57F8300C00F0805002
:102810000090009847F20004C4F20004206840F4DD
:1028200080702060FFF7D2FE054600BF206810F4DC
:10283000807607D1FFF7CAFE401B0328F6D3032595
:1028400016B933E000258EB3B86810F4407012D08A
:10285000D9F8401088420BD0B868B96820F44070AD
:1028600041F48031B960B96821F48031B960B86051
:10287000C00703D111E00020C0070ED0FFF7A6FE6D
:10288000064641F2893400BFB868800705D4FFF7D7
:102890009DFE801BA042F7D303253DB9B868D9F847
:1028A000401020F4407008430025B860B8F1000FD4
:1028B00005D157F8300C20F0805047F8300CD9F88B
:1028C0000000C10712D1810719D4410720D40107A4
:1028D00027D481062ED4410635D401063CD4C10547
:1028E00043D481054AD4410551D460E03968D9F810
:1028F000042021F00301114339608107E5D53968CF
:10290000D9F8082021F00C01114339604107DED5C8
:102910003968D9F80C2021F03001114339600107E2
:10292000D7D53968D9F8102021F0C001114339609A
:102930008106D0D53968D9F8142021F440611143BB
:1029400039604106C9D53968D9F8182021F44051B9
:10295000114339600106C2D53968D9F81C2021F429
:10296000404111433960C105BBD53968D9F82020F1
:1029700021F44031114339608105B4D53968D9F863
:10298000242021F440211143396041050FD53968D5
:10299000D9F8282021F440111143B2F5801F396085
:1029A00005D157F87C1C41F4801147F87C1C0105C7
:1029B0000FD53968D9F82C2021F440011143B2F524
:1029C000800F396005D157F87C1C41F4801147F81D
:1029D0007C1CC1040FD53968D9F8302021F0407132
:1029E0001143B2F1807F396005D157F87C1C41F466
:1029F000801147F87C1C81040FD53968D9F8342040
:102A000021F040611143B2F1006F396005D157F8F0
:102A10007C1C41F4801147F87C1C41040FD53968B7
:102A2000D9F8382021F040611143B2F1006F3960CC
:102A300005D157F87C1C41F4801147F87C1C000438
:102A40000FD53868D9F83C1020F040500843B1F158
:102A5000805F386005D157F87C0C40F4803047F82F
:102A60007C0C284601B0BDE8F08300002DE9F0475A
:102A7000002800F0CA8042F2000AC4F2020A0446AA
:102A8000DAF800000D4600F00F0088420DD2DAF8A7
:102A9000000020F00F002843CAF80000DAF8000018
:102AA00000F00F00A84240F0B080207841F2080802
:102AB000C007C4F202080CD14FF00009206881075A
:102AC0002BD4B9F1800F41D1D8F8000020F0F000EC
:102AD0003AE06068022800F08C80032840F0918082
:102AE00058F8080C800140F1908002F0C9FB4BF2CD
:102AF0000041C0F2C44188420CD9D8F8000010F05F
:102B0000F00F00F08E802078800703D5A0680028A1
:102B100000F087804FF000098CE0410705D5D8F818
:102B2000001041F4E061C8F80010000706D5D8F89D
:102B30000000072161F30D20C8F80000D8F800005C
:102B4000A16820F0F0000843C8F80000DAF800009F
:102B500000F00F00A84219D9DAF8000020F00F00A9
:102B60002843CAF80000FFF731FD064641F28837D6
:102B7000DAF8000000F00F00A84207D0FFF726FDAA
:102B8000801BB842F4D90320BDE8F08720684107D4
:102B900007D5D8F80010E26821F4E0611143C8F8C5
:102BA0000010000708D5D8F80000216920F4605013
:102BB00040EAC100C8F8000000F08AF8D8F8001018
:102BC00046F66052C1F30311C0F60002515C40F2B8
:102BD000080201F01F0120FA01F140F21C00C2F2CC
:102BE00000000068C2F200021160FFF713FDBDE8AB
:102BF000F08758F8080C80035CBF0120BDE8F0871F
:102C000006E058F8080C400502D40120BDE8F08722
:102C100000F05EF84BF20041C0F2C44188427FF6FA
:102C200079AFD8F80000082161F307104FF0800950
:102C3000C8F80000D8F80000616820F003000843DD
:102C4000C8F80000FFF7C2FC064641F2883700BF13
:102C5000D8F80000616800F00C00B0EB810F3FF481
:102C60002DAFFFF7B3FC801BB842F1D90320BDE8BC
:102C7000F087000040F20800C2F2000000687047D0
:102C800080B5FFF7F7FF41F20801C4F202010968BD
:102C900046F67052C1F30221C0F60002515C01F009
:102CA0001F01C84080BD000080B5FFF7E3FF41F27F
:102CB0000801C4F20201096846F67052C1F3C2214C
:102CC000C0F60002515C01F01F01C84080BD000049
:102CD00041F20C01C4F2020151F8040C42F200422C
:102CE000C0F2F40200F00C000428104608BF704740
:102CF00051F8040C00F00C00082843F20060C0F208
:102D00006E1021D051F8043C03F00C030C2B1CBFB7
:102D100000207047D1F800C00B680CF0030CC3F31F
:102D200003130133BCF1030F08BF02460868B2FB6E
:102D3000F3F20968C0F306205043C1F34161022257
:102D400002EB4101B0FBF1F0704700002DE9F041CA
:102D500082B0002800F001810446007841F20006AC
:102D6000C007C4F2020654D12078800772D42078BC
:102D7000000700F195802078400700F1B3802078AB
:102D8000800600F10081E069002840D0B16801F0C0
:102D90000C010C2940F05881012800F0DE80F06819
:102DA000216A00F003028A4240F0D780626A6FF025
:102DB0000F0300F0F00103EB0212914240F0CD80CE
:102DC000A16A00F4FE42B2EB012F40F0C680E16A36
:102DD00000F07842B2EBC16F40F0BF80226B00235D
:102DE000CFF6E07303EB025200F4C0016FF314025C
:102DF000914240F0B280616B4FF07E4202EB016184
:102E000000F0C06001F07E41884240F0A6800020C2
:102E1000D7E1B06800F00C01F068082959D003220E
:102E200081F00C0122EA00000844B0FA80F0400969
:102E30004FD16568B5F5A02F00F0D180B5F5803F82
:102E400000F0D180306820F480303060306820F4A9
:102E50008020CBE0B068F16800F00C00042866D058
:102E600001F0030180F00C0081F002010844B0FA87
:102E700080F040095BD1E1683068002900F0D28021
:102E800040F480703060FFF7A1FB054630684005D4
:102E900000F1EF80FFF79AFB401B0228F6D920E1F2
:102EA0006169D6F89400002900F0878040F00100A5
:102EB000C6F89400FFF78AFB054600BFD6F89400D9
:102EC00080073FF558AFFFF781FB401B0228F5D97B
:102ED00007E1306880037FF547AF606800287FF422
:102EE00043AF3AE0B06D10F0805808D1B06D40F0BB
:102EF0008050B065B06D00F080500190019847F2AD
:102F00000007C4F200073868C0052AD4386840F4C6
:102F100080703860FFF75AFB054600BF3868C0056F
:102F20001FD4FFF753FB401B0228F7D9D9E03068C4
:102F3000400501D5E06880B17068216920F0FE404D
:102F400040EA0160706040F21C00C2F200000068BC
:102F5000FFF760FB00283FF40AAF012002B0BDE894
:102F6000F081A568052D00F0A080012D00F0A38060
:102F7000D6F8900020F00100C6F89000D6F8900036
:102F800020F004009BE0A169D6F89800002978D0D1
:102F900040F00100C6F89800FFF718FB054600BF97
:102FA000D6F8980080073FF5EEAEFFF70FFB401B09
:102FB00002284FF00300F3D903E120F00100C6F826
:102FC0009400FFF703FB0546D6F8940080077FF5D1
:102FD000D2AEFFF7FBFA401B0228F5D981E030683A
:102FE00040F480203060306840F480303060FFF77B
:102FF000EDFA002D054611D0306880033FF5B4AEE0
:10300000FFF7E4FA401B6428F6D96AE0FFF7DEFA1E
:10301000401B64284FF0030000F2D3803068800327
:10302000F4D4A1E620F480703060FFF7CFFA0546B3
:10303000306840057FF59BAEFFF7C8FA401B0228B9
:103040004FF00300F4D9BCE03168022821F0807110
:1030500031605FD1FFF7BAFA054600BF30688001E2
:1030600072D5FFF7B3FA401B02284FF00300F5D9E1
:10307000A7E07068216920F0FE4040EA01607060BE
:1030800075E620F00100C6F89800FFF79FFA0546A4
:10309000D6F8980080077FF576AEFFF797FA401BC9
:1030A00002284FF00300F3D98BE0D6F8900040F0EF
:1030B0000400C6F89000D6F8900040F00100C6F871
:1030C0009000FFF783FA002D054641F2883714D0AF
:1030D000D6F89000800714D4FFF778FA401BB84266
:1030E000F6D9032002B0BDE8F08100BFFFF76EFA09
:1030F000401BB8424FF0030063D8D6F89000800719
:10310000F4D4B8F1000F7FF43AAEB06D20F08050E7
:10311000B06534E6F0684FF6FF7120F00300F06010
:10312000F068CFF6EE610840F060FFF74FFA044612
:10313000306880017FF56BAEFFF748FA001B02286C
:103140004FF00300F4D93CE0F06848F20C01C0F203
:103150009F1104F1200700EA010C8ECF6FF00F00E1
:10316000D4E90C5400EB02100022CFF6E07241EAE1
:103170000C0102EB055208436FF314024FF07E4539
:1031800040EA032005EB0465104305F07E4540EA64
:10319000C7602843F060306840F080703060F068AD
:1031A00040F08070F060FFF711FA0446306880014B
:1031B0003FF52DAEFFF70AFA001B02284FF003007F
:1031C000F4D902B0BDE8F0817047000040F2B010C1
:1031D000C2F20000012101727047000070B5044680
:1031E000006840F21445466DC4F20105F10707D0AE
:1031F0000121C1654FF4003028602046FFF7E6FF4B
:10320000B00708D520680221C1654FF4003028605E
:103210002046FFF7D9FF012084F8250070BD00008B
:1032200070B500680C4643684FEA1340C3F30426A8
:1032300003F03F05C8704E708D70C3F342312170AA
:103240000AB1002070BDC0B202F0D2F9E070304681
:1032500002F0CEF96070284602F0CAF9A070002092
:1032600070BD000070B500680C4683684B60016952
:103270006FF3DF31A1600168C1F30540C1F3062699
:1032800001F07F05C1F3805120706670A570E17078
:103290000AB1002070BD02F0ABF92070304602F098
:1032A000A7F96070284602F0A3F9A070002070BD55
:1032B00010B5002843D0044690F8250028B9002016
:1032C00084F82400204600F03DF8022084F8250010
:1032D0002068CA21416253214162204602F0AAF9C6
:1032E00020BB94E803504FF6BF738269CFF68F334B
:1032F0001A40826122691143A2698369114319430B
:1033000081614EEA0C410161204602F0BBF968B9C7
:103310002168D4F814C0D4E907E28B6923F0604334
:103320001A4342EA0E0242EA0C028A612168FF2235
:1033300000284A6204BF012184F8251010BD012035
:1033400010BD000010B592B0044601A84421FCF75E
:1033500097FF206842F60001C4F20001884201D0C4
:1033600012B010BD4FF4002001904FF40070119086
:1033700001A8FFF731FA002818BFFEF7AFF941F2B4
:103380005800C4F20200816B002241F400418163C5
:10339000016841F4806101600068002100F48060F0
:1033A000009000982920FFF781F92920FFF77AF98A
:1033B00012B010BD2DE9F04381B0044690F824000E
:1033C00001284FF0020000F09F800D46012184F893
:1033D000241084F825002068806900F0400082B144
:1033E000002804BF0020E87069782878AA780902CC
:1033F000EB7841EA0040811895F8200041EA8357B4
:1034000019E0002804BF0020E870287802F0FAF8DC
:1034100069780646084602F0F5F80102A87841EA04
:10342000064602F0EFF83118EA7895F8200041EAF4
:10343000825702F0E7F8E969D5F80480394341EA98
:1034400000632068CA21D5E9052941625321416200
:103450006F6A40F200468169C4F20106B7F5807FC9
:1034600043EA020715D121F4885181610121C16528
:103470004FF400307061FFF7A9F805462068C16875
:10348000C9071ED1FFF7A2F8401BB0F57A7FF5D926
:1034900014E021F4085181610221C1654FF400302C
:1034A0007061FFF793F805462068C16889070ED45C
:1034B000FFF78CF8401BB0F57A7FF5D90321032084
:1034C0001AE0076400F144014FF4885204E000F16F
:1034D0004C014FF40852876449EA08030B60816984
:1034E000114381613068012140F400303060B068E0
:1034F00040F40030B06000202268FF23536284F85B
:103500002510002184F8241001B0BDE8F0830000EC
:10351000F0B581B0044690F8240001284FF0020075
:1035200043D00D46012184F8241084F8250032B1DF
:103530006878E978AE78000240EA014715E06878DB
:10354000C10642BF00F0EF000A306870E87802F070
:1035500059F869780646084602F054F80102A8783E
:1035600041EA064702F04EF806462068CA212D7847
:10357000416253214162204602F05CF850B947EAAB
:10358000060020F0C000216840EA4530486020462F
:1035900002F078F82168FF2200284A6204BF012166
:1035A00084F82510002184F8241001B0F0BD00003B
:1035B00070B5044690F8240001284FF0020008BFBF
:1035C00070BD0D46012184F8241084F82500206880
:1035D000CA214162532141622046164602F02AF870
:1035E000C8BB2068806900F0400056B1002804BFC5
:1035F0000020E8706A782978A878120242EA014629
:1036000011E0002804BF0020E870287801F0FAFFDC
:1036100069780646084601F0F5FF0102A87841EAFC
:10362000064601F0EFFFE978304340EA815047F663
:103630007F71C0F27F01226808401060906920F419
:1036400080209061D5E90301936908431843906194
:10365000204602F017F82168FF2200284A6204BFC2
:10366000012184F82510002184F8241070BD000089
:10367000B0B504460068C16821F02001C160FEF7C2
:10368000A5FF05462068C068800607D4FEF79EFFA8
:10369000401BB0F57A7FF5D90320B0BD0020B0BD46
:1036A00080B502F067F880BD7047000070470000E9
:1036B000704700007047000070470000704700002E
:1036C00070B590F83C20012A4FF002024AD0012345
:1036D00080F83C3080F83D20026843F2004C54688A
:1036E0009368C4F2010C42F6004E6245C4F2010E2A
:1036F00001D0724503D14D6824F470042C434FF679
:103700008F75CFF6FF550E682C4042F6FF35C4F298
:1037100001053443AA4254600FDCB2F1804F16D049
:1037200040F20046C4F20006B24210D040F6000655
:10373000C4F20006B2420AD00EE0724507D044F24D
:103740000006C4F20106B24201D0624504D1896884
:1037500023F08003194391600121002280F83D107D
:1037600080F83C20104670BD70470000002804BF60
:103770000120704710B5044690F83D0028B900209C
:1037800084F83C00204600F023F8022084F83D0035
:103790002068211D02F0A8F8012084F8480084F870
:1037A0003E0084F83F0084F8400084F8410084F82B
:1037B000420084F8430084F8440084F8450084F80B
:1037C000460084F8470084F83D00002010BD00004A
:1037D00080B582B0006841F20001C4F20001884265
:1037E00001D002B080BD41F25800C4F2020001686D
:1037F000002241F0100101600068002100F010007B
:10380000019001983620FEF751FF3620FEF74AFF5F
:1038100002B080BD90F83D1001291CBF0120704707
:10382000022180F83D10016842F6FF32C868C4F2F8
:103830000102914240F00100C8600FDCB1F1804FFD
:103840001ED040F20040C4F20000814218D040F681
:103850000000C4F20000814212D024E042F6004091
:10386000C4F2010081420BD044F20000C4F2010016
:10387000814205D043F20040C4F20100814212D1DE
:1038800088680722C0F201020240062A4FF00000B9
:103890000ED0B2F5803F08BF7047086840F00100C5
:1038A000086000207047086840F0010008600020B0
:1038B000704700007047000010B5044600680169B9
:1038C000890744BFC1685FEA817160D420680169DB
:1038D000490744BFC1685FEA417164D42068016947
:1038E000090744BFC1685FEA017169D420680169B2
:1038F000C90644BFC1685FEAC1616DD4206801692F
:10390000C9071CBFC1685FEAC17172D12068016933
:10391000090644BFC1685FEA016171D4206801698A
:10392000C90544BFC1685FEA016170D420680169BC
:10393000490644BFC1685FEA41616FD420680169EC
:10394000890644BFC1685FEA81616ED4206801695D
:10395000C90244BFC1685FEAC1216DD42068016912
:10396000890244BFC1685FEA81216CD42068016983
:10397000490244BFC1685FEA41216BD420680169F4
:10398000090244BFC1685FEA01216AD410BD6FF02B
:1039900002010161012121778069800768D02046FA
:1039A000FFF788FF6AE06FF00401016102212177CF
:1039B000806910F4407F64D02046FFF77BFF66E00B
:1039C0006FF00801016104212177C069800761D08F
:1039D0002046FFF76FFF63E06FF0100101610821DF
:1039E0002177C06910F4407F5DD02046FFF762FF69
:1039F0005FE06FF001010161204600F061F885E7AA
:103A00006FF0800101612046FFF750FE86E76FF4FA
:103A1000807101612046FFF747FE87E76FF04001A4
:103A20000161204600F070F888E76FF02001016125
:103A30002046FFF73DFE89E76FF4801101612046C3
:103A4000FFF73AFE8AE76FF4001101612046FFF7A5
:103A500031FE8BE76FF4800101612046FFF72EFEF7
:103A60008CE76FF4000101612046FFF77DFE10BD79
:103A7000204600F021F8204600F020F800202077B2
:103A800024E7204600F018F8204600F017F8002040
:103A9000207723E7204600F00FF8204600F00EF8CC
:103AA0000020207722E7204600F006F8204600F0AC
:103AB00005F80020207721E77047000070470000DC
:103AC00040F20841C2F20001884200D0704740F243
:103AD000FC41C2F200010868421C40F2BD10C2F273
:103AE000000003780A60591CCAB2642A017018BF2A
:103AF000704740F2BE12C2F200021388002101702A
:103B0000581C1080704700007047000090F880102B
:103B1000012904BF022070472421C0F884100268E4
:103B20001168136823F00103136021F00053002192
:103B3000416613602022C0F8842080F88010084677
:103B4000704700007047000070470000B0B50446A1
:103B500090F88000012804BF0220B0BD012084F845
:103B600080002420C4F8840020680568026822F0E0
:103B700001020260826822F0606211438160204687
:103B800001F032FF206805602020C4F88400002086
:103B900084F88000B0BD0000B0B5044690F8800005
:103BA000012804BF0220B0BD012084F88000242039
:103BB000C4F8840020680568026822F001020260EF
:103BC000826822F0604211438160204601F00CFFC0
:103BD000206805602020C4F88400002084F880005C
:103BE000B0BD00007047000070470000B0B504464B
:103BF0000068D4F88410D4F88850806821291AD13C
:103C000010F0800017D000BF206850E8020F216834
:103C100020F0800041E80202002AF5D1A06F38B1FF
:103C2000FEF764FA20B1A06FFEF7D6FA202821D063
:103C3000204602F077F82068222D81684FF00000BE
:103C400021D111F0400108BFB0BD00BF206850E88D
:103C5000020F216820F0400041E80202002AF5D15D
:103C6000E06F60B1FEF742FA48B1E06FFEF7B4FAD8
:103C7000202804D11020C4F88C000320B0BD2046B9
:103C800002F00EF80020B0BD7047000070B5036868
:103C90000446D96940F62F001E68D3F808E00840B2
:103CA00020280CD106F020000EF08052801806D09B
:103CB000216F002900F0AC802046884770BD40F697
:103CC0000F00084000F08C800120C1F200000EEAD5
:103CD000000C40F22010C0F20040304010EB0C000D
:103CE0007ED0C80718BF16F4807007D00120186274
:103CF000D4F88C0040F00100C4F88C0088070EF066
:103D0000010208D53AB102201862D4F88C0040F0C4
:103D10000400C4F88C00480708D53AB104201862A2
:103D2000D4F88C0040F00200C4F88C0008070CD5D1
:103D300006F0200050EA0C0007D008201862D4F8E2
:103D40008C0040F00800C4F88C0008050BD516F074
:103D5000806008D04FF400601862D4F88C0040F006
:103D60002000C4F88C00D4F88C00002850D011F04A
:103D700020001EBF06F020000EF0805110EB010065
:103D800040F0EA802068D4F88C10806801F02801A7
:103D900000F04000401800F0D880204601F080FF7D
:103DA00020688068400640F1C18000BF206850E86C
:103DB000020F216820F0400041E80202002AF5D1FC
:103DC000E06F002800F0B28045F69531C0F60001A2
:103DD0008163FEF7C3F9D8B1E06F816B884770BD8E
:103DE000E06E06EA0102D5063DD501283BD1102040
:103DF00018629868400642D4B4F85C00B4F85E10CB
:103E0000B4F85E20002A1CBF401A5FEA004101D1CD
:103E100070BD00BF216851E8001F226821F4907135
:103E200042E80013002BF5D14FF6FE71CEF6FF717C
:103E3000226852E8022F23680A4043E80226002E37
:103E4000F6D12021C4F888100021E166216700BF67
:103E5000216851E8001F226821F0100142E8001398
:103E6000002BF5D150E0C80253D51EF4800050D08D
:103E70004FF4801018622046FFF7B6FE70BDE06F69
:103E8000006841688AB2002AC2D0B4F85C309A4215
:103E9000BED2A4F85E100068800630D4206850E8D6
:103EA000000F216820F4807041E80002002AF5D15B
:103EB000206850E8020F216820F0010041E802026A
:103EC000002AF5D1206850E8020F216820F0400058
:103ED00041E80202002AF5D12020C4F88800002021
:103EE000E06600BF206850E8000F216820F0100055
:103EF00041E80002002AF5D1E06FFEF7F7F8B4F8C8
:103F00005C00B4F85E10401A81B22046FFF71AFE3A
:103F100070BD08060ED506F080000EF40003C01830
:103F200008D0616F00297FF4C7AE71E72046FFF724
:103F3000ABFE70BD500616D4080218D516F08040AE
:103F400015D02046FFF74EFE70BD2046FFF79CFEC1
:103F50000020C4F88C0070BD216F00293FF412AF1F
:103F6000204688470EE7204601F0C8FE70BDC80114
:103F70007FF54EAFB6F1FF3FC8BF70BD2046FFF7DB
:103F8000E3FD70BD10B5B0B10446D0F8840028B987
:103F9000002084F88000204600F026F82420C4F891
:103FA00084002068016821F001010160204601F0D1
:103FB000D1FE012801D1012010BDA06A10B1204618
:103FC00001F03CFD2068416821F490414160816826
:103FD00021F02A018160016841F001010160204661
:103FE00001F0A0FD10BD000070B598B0044600259A
:103FF00002A844211795CDE91555CDE91355FCF7D5
:104000003FF9206843F60001C4F20101884201D063
:1040100018B070BD0120CDE9020502A8FEF7DCFB57
:10402000002818BFFDF75AFB41F24C00C4F2020011
:104030004169002641F480414161416901F48041B8
:1040400001910199016841F001010160006813A923
:1040500000F00100019001984FF4C060139002201D
:104060001490072017904FF09040CDE91566FEF7A9
:10407000D1F940F280351C20C2F20005C4F20200E2
:10408000182185E843004FF480508022286228469A
:10409000C5E90362C5E90566EE61FEF7F5F800289B
:1040A00018BFFDF71BFB252000210022E567AC624D
:1040B000FEF7FCFA2520FEF7F5FA18B070BD0000F7
:1040C00080B5D0F88830202B0BD100294FF00103A8
:1040D00018BF002A01D1184680BD90F88030012B0E
:1040E00001D1022080BD012380F880300023C36607
:1040F000D0F800C048F20003C4F200039C450FD082
:10410000DCF804301B020BD5036853E800CFD0F86D
:1041100000E04CF080634EE8003CBCF1000FF3D1AE
:1041200001F07AFF0346184680BD0000704700008A
:10413000704700002DE9F04381B00446D0F88400B8
:1041400020280BD10E4600294FF001005CD0174605
:10415000002A59D094F88000012803D1022001B030
:10416000BDE8F083012084F880004FF00009212091
:104170001D46C4F88C90C4F88400FEF727FAA4F812
:104180005470A4F85670A1680746B1F5805F07D156
:10419000206900281CBF30464E46B046064601E066
:1041A0004FF0000884F8809009E000BF16F8010B7A
:1041B00021688862B4F856000138A4F85600B4F8B3
:1041C000560088B12046802100223B46009501F030
:1041D00077FF88B9002EE9D138F8020B21686FF318
:1041E0005F2088620026E5E72046402100223B460A
:1041F000009501F065FF18B1032001B0BDE8F08320
:104200002020C4F88400002001B0BDE8F083000045
:1042100070470000FEE700002DE9F04105464FF62B
:10422000FF700F4600F08AFB002000F09FFB4CF669
:10423000CD48032DCCF6CC4809D0022D0DD0012D50
:1042400026D13C4614F8090FCF26DF210AE03C4670
:1042500014F80B0F6F267F2104E03C4614F80A0F78
:104260009F26AF21A0FB0802302000EBD202602085
:1042700000F0B0FA2078A0FB0812D10801EB810110
:10428000A0EB410040F030026020314600F0A2FA7D
:10429000002000F053FB4FF6FF7000F067FB032D8A
:1042A0000AD0022D0DD0012D18BFBDE8F08117F8FE
:1042B0000B0F6F257F2108E017F80A0F9F25AF210C
:1042C00003E017F8090FCF25DF21A0FB08023020FB
:1042D00000EBD202602000F07DFA3878A0FB0812D3
:1042E000D10801EB8101A0EB410040F030026020D9
:1042F000294600F06FFABDE8F081000080B586B075
:1043000000200590C02001900120CDE9020002208C
:10431000049040F20040C4F6000001A9FEF77AF8CC
:1043200006B080BDB0B501F0EFF90825002400BF4C
:104330000020013D01F0CEF9012001F0CBF901F0A0
:10434000D5F9290640EA4404F2D1002001F0C2F96F
:1043500001F0FAF9E0B2B0BD80B5002001F0E8F953
:10436000012001F0B7F9002001F0B4F980BD000090
:10437000B0B50446082500BF0020013D01F0AAF9B0
:1043800004F0800001F0D4F90120640001F0A2F9EA
:104390002806F1D1002001F09DF9B0BD80B50120C3
:1043A00001F0C6F9012001F095F9002001F092F921
:1043B00080BD000080B5012001F0BAF9012001F0B4
:1043C00089F9002001F0B4F9002001F083F980BDE3
:1043D00080B5002001F07EF9002001F0A9F901204C
:1043E00001F078F9012001F0A3F980BD10B501F0CA
:1043F0008BF9012001F06EF9052400BF01F076F978
:1044000040B1013C2004F9D101F09EF9FFF7E0FF33
:10441000012010BD01F098F90020002401F05AF9A4
:10442000204610BDB0B540F20044C4F6000420465A
:104430000121FEF7BFF878B120460221FEF7BAF855
:1044400050B120460421FEF7B5F828B14FF0904056
:104450000121FEF7AFF8B0B9204601210125FEF792
:10446000A9F888B1204602210225FEF7A3F858B129
:1044700020460421FEF79EF840B14FF09040012104
:10448000FEF798F820B100252846B0BD0320B0BD46
:104490000420B0BD10B540F2A424C2F2000420688C
:1044A00001F088FF00B110BD01F07EFF0A302060EE
:1044B000FFF7B8FF40F2C31240F2C211C2F200028D
:1044C000C2F200011378087080F0FF0140F2C114BD
:1044D0001940C2F20004217083F0FF0340F2C014BF
:1044E0000340C2F20004107040F2BE102370C2F20A
:1044F00000001CBF0022028000880928D3D8481E73
:104500000328D0D8DFE800F00209101B40F2B010F9
:10451000C2F200000121017010BD40F2B010C2F2E1
:1045200000000121417010BD40F2B010C2F2000045
:104530004179002908BF10BD0121817010BD40F2F2
:10454000B010C2F20000417900291CBF0121C170E6
:1045500010BD000080B586B000200590CDE90200B6
:104560004FF6FF7001900320049040F60000C4F65F
:10457000000001A9FDF74EFF06B080BD80B586B0F2
:104580000020059003904FF6FF70019001200290EB
:104590000320049040F60000C4F6000001A9FDF7D6
:1045A00039FF06B080BD0000B0B5044600200021F0
:1045B00000F0D0F900F014FA4FF49635204600F0E0
:1045C000E1F9013DFAD1B0BD80B502A100F012F9C8
:1045D00080BD00BF2020202020202020202020205F
:1045E000202020202020202000000000F0B587B0EF
:1045F000002541F24C000695CDE90455CDE9025560
:10460000C4F202000168182741F00401016001684A
:10461000C4F6000701F0040101910199016802ACA0
:1046200041F0010101600168012601F001010191E1
:104630000199016841F0020101600068214600F023
:104640000200019001984FF44870029007F57A70CB
:104650000595CDE90365FDF7DDFE4FF48070CDE9EA
:1046600002064FF090402146CDE90455FDF7D2FEF9
:10467000FFF784FF386840F480703860D7F8000492
:1046800040F40870C7F8000407B0F0BDB0B582B0C0
:1046900040F20C05C2F200052868FCF7E1F840F290
:1046A000C4140B46C2F2000447F67071024604F1CE
:1046B0002800C0F6000101F0A9FE6868FCF7D0F8F8
:1046C0000B4647F69A71024604F13C00C0F6000121
:1046D00001F09CFE287A78B147F6A870C0F6000079
:1046E00090E82E10808A04F1500E8EE82E00C4F857
:1046F00060C0A4F864000EE047F6C070C0F6000089
:1047000090E82E10007D04F1500E8EE82E00C4F8C3
:1047100060C084F8640040F2E840C2F20000027811
:104720004378857847F6857104F16400C0F600018E
:10473000009501F06BFE40F20200C2F20000018819
:1047400041F03C01018002B0B0BD000010B582B064
:1047500047F6D870C0F6000090E80E5040F2C4143E
:10476000007DC2F2000484F83C0040F20C00C2F26A
:104770000000E2622363C4F834C0427A837A90F87E
:104780000BC0A16204F150000BA1C4F838E0CDF8D1
:1047900000C001F03BFE4820FFF716FF7820FFF72E
:1047A00013FF40F20200C2F20000018841F0140140
:1047B000018002B010BD00BF202020202020253025
:1047C00032642D253032642D2530326420202020A3
:1047D0002020000080B5203AD3B25B0053FA82F269
:1047E00046F67853C0F6000303EB021200F01AF805
:1047F00080BD0000F0B581B00A788AB104464D1C36
:10480000002740F23F1600BFB1B2D2B22046FFF7F8
:10481000E1FF122F04D8EA5D103E0137002AF3D1E0
:1048200001B0F0BD2DE9F04714468846814600F0FE
:1048300091F840F2000A40F2B0260027C2F2000AC6
:10484000C2F2000600F0CCF8002500BF34F81700D3
:10485000E840C007304608BF5046008800F092F894
:104860000135102DF2D109F101095FFA89F04146B5
:1048700000F070F80137182F08BFBDE8F087E1E7B6
:1048800010B5FFF7B3FE002000F014F840F2B22498
:10489000C2F200042080208848F23021884202D1F0
:1048A00000F012FD01E000F09BFD002000F002F896
:1048B000208010BDB0B540F21844C4F60004216950
:1048C00041F400712161216941F480712161216805
:1048D00041F02001216040F61401C4F60001086097
:1048E000206940F02000206100BF00BF00BF2068A9
:1048F00040F020002060206840F480702060FFF7C6
:1049000029FE4FF61040CFF6FF70215841F4807118
:10491000215000BF00BF4FF6004000BFCFF6FF7030
:10492000D4F8F853215841F480712150FFF726FE46
:10493000206840F40071A8B22160B0BD81B0ADF82C
:104940000200BDF8020040F20001C2F2000108803E
:1049500001B0704710B50C460146202000F070F8F9
:104960002120214600F06CF810BD000081B0ADF8A8
:104970000200BDF8020040F2B021C2F2000108803E
:1049800001B0704740F21841C4F60001D1F8FC2391
:104990000B6943F400730B610B6843F480730B6085
:1049A0000B6843F020030B60C1F8FC03086940F07A
:1049B0002000086100BF00BF00BF086840F0200071
:1049C0000860086840F48070086000BF00BF00BF46
:1049D000086840F40070086090B2C1F8FC037047AA
:1049E00040F21840C4F60000D0F8FC13026989B206
:1049F00042F400720261026942F48072026102684C
:104A000042F0200202602222C0F8FC23026942F038
:104A10002002026100BF00BF00BF026842F0200216
:104A20000260026842F48072026000BF00BF00BFF3
:104A3000026842F400720260C0F8FC137047000084
:104A400040F21842C4F60002D2F8FCC3136943F4E2
:104A500000731361136943F480731361136843F0A7
:104A600020031360C2F8FC03106940F020001061BD
:104A700000BF00BF00BF106840F020001060106849
:104A800040F480701060C2F8FC13106940F0200000
:104A9000106100BF00BF00BF106840F02000106030
:104AA000106840F4807010601FFA8CF0C2F8FC03AC
:104AB000704700002DE9F04140F2C418C2F200082E
:104AC00040F202050027C2F200050126444604E038
:104AD00001370A2F04F114040ED0288806FA07F1D2
:104AE0000142F5D08843288007EB4700C000C0B2E0
:104AF0002146FFF77FFEEBE740F2B014C2F200045C
:104B00006079C0B92079B0B10020207140F20C006A
:104B1000C2F200000068FBF7A3FE0B4647F6707177
:104B2000024608F12800C0F6000101F06FFC288859
:104B300040F0040028806079002818BFBDE8F081AB
:104B400040F20C00C2F20000007A80B147F6A87073
:104B5000C0F6000090E88E000669808A08F1500CCB
:104B60008CE88E00C8F86060A8F864000FE047F693
:104B7000C070C0F6000090E88E000669007D08F164
:104B8000500C8CE88E00C8F8606088F864002888B3
:104B900040F010002880BDE8F081000070B540F6BC
:104BA0001405C4F60005000205F57B742E68286024
:104BB000204604210122FDF703FD204604210022A6
:104BC000FDF7FEFCB0B2286070BD000010B540F2E9
:104BD000A424C2F20004A06801F0ECFB002818BF76
:104BE00010BD01F0E1FBC83040F20401A06040F2CA
:104BF000B010C2F20001C2F200000A78807982F09F
:104C00000102002808BF4FF0FF32D0B20A70FFF750
:104C1000C5FF10BD81684FF6C072C7F6FF72114024
:104C2000023181607047000081684FF6C072C5F69E
:104C3000FF7211408160704781684FF6C072C7F6FD
:104C4000FF721140013181607047000081684FF6AA
:104C5000C072C6F6FF72114001F180518160704749
:104C600040F20830C5F20000006800F0E0707047C4
:104C700040F20830C5F20000006800F01F007047E5
:104C800000EB8100006E00F0F84070478068C0F3D0
:104C9000C000704781684FF6C072C7F6FF721140BE
:104CA00020318160704700008068C00F70470000AD
:104CB0008068C0F3407070478068C0F34000704760
:104CC000806800F0010070478068C0F30070704792
:104CD0008068C0F380007047C06800F44060B0FA9C
:104CE00080F0400970470000C1F3012300EB83000E
:104CF000D0F830C001F01F011F238B40C2F3846243
:104D00002CEA030302FA01F1194301637047000022
:104D100081684FF6C072C7F6FF721140043181609E
:104D20007047000081684FF6C072C7F6FF721140ED
:104D30001031816070470000C1F3406300EB8300D5
:104D4000D0F814C0C1F3045107238B402CEA0303AD
:104D500002FA01F119434161704700000023C4F2D7
:104D60007F036FF3DF419A42D0F8B02014BF22EAEC
:104D700001011143C0F8B0107047000040F2083143
:104D8000C5F200010A6822F47C12104308607047E3
:104D900040F20831C5F200010A6822F0E0721043C7
:104DA0000860704700EB8100D0F860C04FF200014E
:104DB000C0F2FF3102F0F84201EA0C011A4311433C
:104DC00041F000410166704700EB8100016E21F067
:104DD000007111430166704700EB8100016E21F004
:104DE000807111430166704700EB8100016E21F074
:104DF0000041016670470000426922F00042114301
:104E00004161704782684FF6C073C3F6FF731A4062
:104E100001F08041114401F10041816070470000C0
:104E2000B0B588B040F2B42040F20011C2F20000E8
:104E3000C5F2000100244FF4003280E816004FF460
:104E40008071042581830121CDE90644CDE9044424
:104E5000CDE90244CDE90044C0E90344C0E9054579
:104E6000016280F82440C0E90B4480F83810C46324
:104E700080F84040FCF72AFF002818BFFCF72EFC02
:104E800048F20000C3F6F06000900620CDE9010072
:104E90007F20CDE9030540F2B420C2F2000069464C
:104EA0000594FCF763FD002818BFFCF717FC08B059
:104EB000B0BD000080B582B041F24800C4F20200EB
:104EC0000168002241F004010160016801F0040161
:104ED00001910199016841F0010101600068002120
:104EE00000F00100009000980B20FDF7DFFB0B2085
:104EF000FDF7D8FB0C2000210022FDF7D7FB0C208A
:104F0000FDF7D0FB02B080BD2DE9F04F87B0002542
:104F100041F24C000695CDE90455CDE90255C4F2A5
:104F20000200016840F2004441F0040101600168A0
:104F3000C4F6000401F0040101910199016804F52F
:104F4000806741F0200101600168002201F020012A
:104F50000191019901684FF47F4641F040010160E1
:104F6000016801F0400101910199016841F00101DE
:104F70000160016801F0010101910199016841F0AE
:104F800002010160016801F00201019101990168CB
:104F900041F00801016000684FF47F4100F0080013
:104FA000019001983846FDF70BFB04F50068404678
:104FB000042100224FF0040AFDF702FB2046C02125
:104FC0000022FDF7FDFA029602AE4FF0010B3846C3
:104FD0003146CDE903B50595FDF71CFA4FF4806025
:104FE00002904FF0030904F5A0503146CDE9039536
:104FF000FDF710FAFF20CDE9020938463146049545
:10500000FDF708FA4FF090403146CDE902B504951E
:10501000FDF700FA49F6FE10CDE902094FF0904085
:1050200031460495FDF7F6F90720CDE90205204643
:1050300031460495FDF7EEF947F63870CDE90209DF
:10504000204631460495FDF7E5F940463146CDE965
:1050500002ABCDE90455FDF7DDF9C020CDE9020B27
:1050600020463146CDE90455FDF7D4F907B0BDE837
:10507000F08F000010B590B0002468462821CDE9DB
:105080000E44CDE90C44CDE90A44FBF7F9F840F2AF
:10509000E03042F60001C2F20000C4F200011F221B
:1050A0004FF0804CC0E9001400F1080140F2E733F2
:1050B0001CC1C0E90544C0E907C4FEF7F9F800289F
:1050C00018BFFCF70BFB45F62310ADF82C0055205C
:1050D0008DF82E0040F2E030C2F200000BA9012250
:1050E0000C94CDE90E44FEF763FA002818BFFCF7D4
:1050F000F5FA40F20320C2F222300A9040F2E0308A
:10510000C2F200000AA901220124FEF701FA0028D8
:1051100018BFFCF7E3FA00204FF00041ADF80000A3
:105120008DF802000190CDE9051007904FF48070D2
:10513000099040F2E030C2F20000694601228DF889
:105140002040FEF737F9002818BFFCF7C7FA10B067
:1051500010BD000010B584B040F2084041F20001DB
:105160000024C2F20000C4F2000140F2E7330394CD
:10517000CDE901444F2280E81600C3608461FEF748
:10518000F5FA002818BFFCF7A9FA40F20840C2F26D
:10519000000001A901940394FEF792FA002818BFB9
:1051A000FCF79CFA04B010BD10B540F2544043F631
:1051B0000001C2F20000C4F2010100230C244FF4EC
:1051C000165280E80E00C0E90333C0E90543C0E988
:1051D0000733C0E90933FEF7D5FE002818BFFCF7F6
:1051E0007DFA40F25440C2F200000021FEF7D4FCE8
:1051F000002818BFFCF772FA40F25440C2F20000D7
:105200000021FEF7A3FC002818BFFCF767FA40F264
:105210005444C2F200042046FEF778FC002818BF70
:10522000FCF75CFA20681422016841F0200101605B
:10523000016841F01001016040F28C21C2F20001CE
:105240002046FEF73DFF10BDFEE70000FEE7000030
:1052500000F0070080F00703042B28BF04234FF061
:10526000FF3C03380CFA03F338BF00209943814018
:105270000CFA00F022EA0000084370477047000073
:1052800041F20C00C4F202000168026842F20043DD
:1052900001F00301C2F30312C0F2F4030132032947
:1052A00004BF43F20063C0F26E130168B3FBF2F275
:1052B0000068C1F306215143C0F34160022202EBB2
:1052C0004000B1FBF0F0704780B500200121FFF7EE
:1052D000B7FB01200021FFF7B3FB102041F29071D2
:1052E000FFF7AEFB60204FF41C51FFF7A9FB6120D4
:1052F0000121FFF7A5FB46200221FFF7A1FB1320A8
:1053000048F21001FFF79CFB122048F2FE01FFF764
:1053100097FB02204FF4A061FFF792FB032041F2BC
:105320003001FFF78DFB302040F20331FFF788FB9F
:10533000312040F20331FFF783FB322040F203318A
:10534000FFF77EFB33204FF44071FFF779FB3420E9
:105350000321FFF775FB352040F20331FFF770FBA7
:1053600036201421FFF76CFB372040F20331FFF7A2
:1053700067FB382040F20331FFF762FB392040F22F
:105380000331FFF75DFB3A204FF44071FFF758FB04
:105390003B200321FFF754FB3C2040F20331FFF791
:1053A0004FFB3D204FF4A051FFF74AFB92204FF4F2
:1053B0000071FFF745FB932040F20331FFF740FBFC
:1053C000902040F60D01FFF73BFB032041F218014E
:1053D000FFF736FB072040F27311FFF731FB80BD6A
:1053E00080B5E32043F20801FFF72AFBE7201221F2
:1053F000FFF726FBEF2041F23121FFF721FB0120CF
:105400000021FFF71DFB02204FF4E061FFF718FBBE
:10541000032041F23001FFF713FB04200021FFF7C6
:105420000FFB082040F20721FFF70AFB09200021AB
:10543000FFF706FB0A200021FFF702FB0C200021EA
:10544000FFF7FEFA0D200021FFF7FAFA0F200021E6
:10545000FFF7F6FA10200021FFF7F2FA11200721DA
:10546000FFF7EEFA12200021FFF7EAFA13200021DD
:10547000FFF7E6FAC820FCF7B9FF102041F290616F
:10548000FFF7DEFA112040F22721FFF7D9FA322088
:10549000FCF7ACFF12201D21FFF7D2FA3220FCF7F7
:1054A000A5FF13204FF40061FFF7CAFA2920142149
:1054B000FFF7C6FA2B200B21FFF7C2FA3220FCF7C8
:1054C00095FF20200021FFF7BBFA21200021FFF7E4
:1054D000B7FA30200721FFF7B3FA312040F2077105
:1054E000FFF7AEFA32200621FFF7AAFA352040F284
:1054F0000471FFF7A5FA362041F60471FFF7A0FA10
:1055000037200421FFF79CFA38200021FFF798FA92
:10551000392040F20671FFF793FA3C2040F2017106
:10552000FFF78EFA3D200F21FFF78AFA5020002165
:10553000FFF786FA5120EF21FFF782FA522000216F
:10554000FFF77EFA532040F23F11FFF779FA60200F
:105550004FF41C51FFF774FA61200121FFF770FA34
:105560006A200021FFF76CFA80200021FFF768FA1B
:1055700081200021FFF764FA82200021FFF760FA02
:1055800083200021FFF75CFA84200021FFF758FAFE
:1055900085200021FFF754FA90201021FFF750FAE0
:1055A00092200021FFF74CFA93200321FFF748FADD
:1055B00095204FF48871FFF743FA97200021FFF7F9
:1055C0003FFA98200021FFF73BFA032041F218012F
:1055D000FFF736FA072040F27311FFF731FA80BD6A
:1055E00080B540F2E030C2F20000FDF7F7FD80BD6B
:1055F000010901EB810100F00F0000EB4100C0B296
:1056000070470000A0F10A014CF6CD43CAB2CCF6B7
:10561000CC43A2FB0323DA0802EB8202A1EB420196
:10562000012202EBD302092888BF41EA0210C0B26E
:105630007047000070B504460068C16849061DD473
:10564000C16841F08001C160FCF7C0FF2168C968F2
:10565000490613D405460026FCF7B8FF401BB0F5F9
:105660007A7F84BF032684F825602068032EC068F3
:1056700002D010F04000EFD0F0B270BD0026F0B2C2
:1056800070BD000010B504460068C16821F08001BB
:10569000C1608169890609D42046FDF7E9FF002829
:1056A0000EBF0020032084F8250010BD816921F081
:1056B000200181612046FDF7DBFF00281ABF03208F
:1056C00084F82500002021688A6942F020028A615E
:1056D00010BD000040F21841C4F60001002808BFC8
:1056E0001031086840F040000860704780B540F213
:1056F0000040C4F600008021FCF75CFF0138B0FADE
:1057000080F0400980BD000080B586B00020059083
:10571000029080200190012003900220049040F22A
:105720000040C4F6000001A9FCF774FE06B080BD7D
:1057300040F21841C4F60001002808BF1031086883
:1057400040F080000860704780B586B0002005906A
:10575000039080200190112002900220049040F2DA
:105760000040C4F6000001A9FCF754FE06B080BD5D
:1057700070470000B0B501380024B4EB106F1CBFB7
:105780000120B0BD4EF21005CEF2000568604FF06A
:10579000FF300F2100F0E6FD0720AC6028602046B6
:1057A000B0BD000080B5FCF717FF80BD70B594B0A8
:1057B00006AC20463821FAF763FD00254FF400704F
:1057C0000595CDE90355CDE90155FCF783FF092087
:1057D00006904FF48030079001200B900220142196
:1057E0000D900326CDE91010CDE912002046CDE939
:1057F0000E66FDF7ABFA68B90F20CDE9010601A8E6
:105800000221CDE903550595FDF730F9002804BFC5
:1058100014B070BDFBF762FF4EF68850CEF2000068
:10582000016841F4700101607047000010B5FFF796
:1058300027F80020FEF7B8FE0020FFF77FF84FF6AC
:10584000FF70FFF793F8FF20FFF7A8F9FEF756FD6A
:1058500040F20840C2F20000FDF7DCFF40F2B42441
:10586000C2F2000420467F21FCF73EF840F22001FE
:10587000C2F2000120466422FCF782FB40F2E034D1
:10588000C2F2000440F2E841C2F2000120460022C8
:10589000FDF7E8FC40F2E441C2F20001204600229C
:1058A000FDF7BEFC00F006F8FBF7BEFEFEF7EEFECD
:1058B00010BD000010B500F077FD40F2A4240A30BE
:1058C000C2F20004206000F06FFD6430606000F000
:1058D0006BFDC830A06010BD80B540F20840C2F238
:1058E0000000FDF7E9FF80BD80B540F2FF7C026853
:1058F000C4F2000C604512DD40F60003C4F2000360
:10590000984215D043F20043C4F2010398420FD0ED
:1059100042F60043C4F20103984209D00CE0B0F112
:10592000804F05D040F20043C4F20003984203D1F7
:105930004B6822F070021A4343F2FF33C4F20103B2
:10594000984209DC604516DCB0F1804F28D040F267
:105950000043C4F2000321E044F2FF33C4F2010328
:10596000984211DC43F20043C4F20103984217D07D
:1059700044F2000310E040F60003C4F20003984232
:105980000ED042F6004307E044F60003C4F20103E0
:10599000984205D044F20043C4F20103984203D177
:1059A000CB6822F440721A434B6922F0800E8A6859
:1059B00043EA0E03D1F800C00360C262A0F1804246
:1059C000A2F596324FEAB222072AC0F828C007D8BB
:1059D000012303FA02F212F0E50F1CBF096901630B
:1059E0000121416180BD000080B5416E01B30168B5
:1059F00047F6607C8A688968C0F6000C490F47F654
:105A0000687E1CF80130C0F6000E1EF80110C2F3CB
:105A10004262DB00B3FBF1F31CF802101EF8022017
:105A2000C900B1FBF2F1A0F86A30A0F8681080BD9F
:105A30000121A0F86A10A0F8681080BD80B5816AC5
:105A4000CA070CD18A0715D44A071ED40A0727D4DF
:105A5000CA0630D48A0639D44A0657D541E00268CE
:105A6000D0F82CC0536823F4003343EA0C0353608E
:105A70008A07E9D50268D0F830C0536823F4803330
:105A800043EA0C0353604A07E0D50268D0F834C0FB
:105A9000536823F4802343EA0C0353600A07D7D5E5
:105AA0000268D0F838C0536823F4004343EA0C037B
:105AB0005360CA06CED50268D0F83CC0936823F480
:105AC000805343EA0C0393608A06C5D50268D0F878
:105AD00040C0936823F4005343EA0C0393604A06E2
