:020000040800F2
:1000000080210020F1010008554300081F3400083A
:10001000993A0008212200087D4D000800000000E8
:10002000000000000000000000000000294C000853
:1000300025220008000000009D4800082B4C000805
:100040000B0200080B0200080B0200080B0200085C
:100050000B0200080B0200080B0200080B0200084C
:100060000B0200080B0200080B0200080B0200083C
:100070000B0200080B0200080B0200080B0200082C
:100080000B020008000000000B0200080B02000831
:100090000B0200080B0200080B0200080B0200080C
:1000A0000B0200080B0200080B0200080B020008FC
:1000B0000B0200080B0200080B0200080B020008EC
:1000C0000B0200080B0200080B0200080B020008DC
:1000D0000B0200080B0200080B0200080B020008CC
:1000E0000B0200080B0200080B0200080B020008BC
:1000F0000B0200080B0200080B02000800000000C1
:10010000000000000B020008000000000B020008C5
:100110000B02000800000000B14C00080B020008B0
:100120000B0200080B0200080B0200080B0200087B
:100130000B02000800000000000000000B02000895
:100140000B0200080B020008000000000000000085
:10015000000000000000000000000000000000009F
:100160000000000000000000000000000B0200087A
:100170000B0200080000000000000000000000006A
:10018000000000000B02000800000000000000005A
:10019000000000000000000000000000000000005F
:1001A00000000000000000000B0200080B02000825
:1001B0000B0200080B0200080B0200080000000000
:1001C000000000000B02000800000000000000001A
:1001D0000B0200080B020008DFF810D000F02CF82A
:1001E00000480047D94D0008AFF30080802100206F
:1001F0000648804706480047FEE7FEE7FEE7FEE7C1
:10020000FEE7FEE7FEE7FEE7FEE7FEE79D4C00089F
:10021000D9010008D2B201E000F8012B491EFBD23F
:1002200070470022F6E710B513460A460446194601
:10023000FFF7F0FF204610BD064C074D06E0E068D2
:1002400040F0010394E8070098471034AC42F6D31D
:10025000FFF7C6FFF00301081004010870B58C1801
:1002600010F8015B15F0070301D110F8013B2A11CA
:1002700006D110F8012B03E010F8016B01F8016BB7
:100280005B1EF9D12B0705D40023521E0DD401F8B3
:10029000013BFAE710F8013BCB1A921C03E013F87C
:1002A000015B01F8015B521EF9D5A142D8D30020B1
:1002B00070BD000000B50CF0070104F09BFA5DF87A
:1002C00004EB4EF0010E704710B50CF0070004F07F
:1002D00045FABDE810404EF0010E7047DAF8800490
:1002E000A9EB000101F101004FEA1021DAF87C24AA
:1002F00002F8011942F4807202F801098AF87C249C
:1003000008F04D0013F0004F18BF40F0800013F0CC
:10031000FF0F08BF40F0020040F030004FF6FE7CB7
:1003200001F031FFB8F5E0685CBF19F8010B5AF82D
:1003300020F0DAF884F419F8010B06EB00604FEABC
:10034000106C1BF80CC000F180704FEA10611BF8B4
:1003500001104CEA012C0CF460410FF20A0E4FEA36
:10036000D12154F801F045EA00654FEA2563B8F55C
:10037000C0685CBF19F8010B5AF820F0DAF884F471
:1003800019F801CB1BF80C0045EA00654FEA25631C
:10039000B8F540785CBF19F8010B5AF820F0DAF88C
:1003A00084F419F801CB1BF80C00004450EA0063F8
:1003B00048F001080BF80C0078F5A0685CBF19F84C
:1003C000010B5AF820F0DAF884F408F04D0013F02D
:1003D000004F18BF40F0800013F0FF0F08BF40F03F
:1003E000020040F03000DAF87C2402F801098AF8B3
:1003F0007C24B8F540785CBF19F8010B5AF820F05E
:10040000DAF884F419F8010B45EA00654FEA256330
:10041000B8F500785CBF19F8010B5AF820F0DAF84B
:1004200084F46D194FEA256348F0010878F50078E7
:100430005CBF19F8010B5AF820F0DAF884F419F8C7
:1004400001CB19F8010B4CEA002C0CF460410FF2BF
:100450000A0E4FEAD12154F801F045EA00654FEA4F
:100460002563B8F580685CBF19F8010B5AF820F0D5
:10047000DAF884F419F801CB19F8010B4CEA002CD6
:100480000CF460410FF2080E4FEAD12154F801F04C
:10049000004450EA006348F001080CF460410AF59A
:1004A00084620FF20A0E4FEAD12152F801F078F57A
:1004B000C0685CBF19F8010B5AF820F0DAF884F430
:1004C00013F0004F19F9010B04BF8144A8F580789F
:1004D000B8F500785CBF19F8010B5AF820F0DAF88B
:1004E00084F419F8010B10F80BC0584441784CEA19
:1004F000012C0CEB176C0CF460410FF20A0E4FEA62
:10050000D12154F801F045EA00654FEA2563B8F5BA
:10051000A0685CBF19F8010B5AF820F0DAF884F4EF
:1005200019F801CB06EB0C6C4FEA1C601BF80000BD
:1005300045EA00654FEA2563B8F580685CBF19F8A5
:10054000010B5AF820F0DAF884F419F801CB06EB25
:100550000C6C4FEA1C601BF80000004450EA00637A
:1005600048F001084FEA1C610BF8010078F5C068FB
:100570005CBF19F8010B5AF820F0DAF884F428F07F
:100580000108B8F500785CBF19F8010B5AF820F0A3
:10059000DAF884F419F801CB19F8010B4CEA002CB5
:1005A0000CEB176C0CF460410FF2080E4FEAD121EE
:1005B00054F801F045EA00654FEA2563B8F5806814
:1005C0005CBF19F8010B5AF820F0DAF884F419F836
:1005D00001CB19F8010B4CEA002C0CEB166C0CF457
:1005E00060410FF20A0E4FEAD12154F801F045EABA
:1005F00000654FEA2563B8F580685CBF19F8010B08
:100600005AF820F0DAF884F419F801CB19F8010B44
:100610004CEA002C0CEB166C0CF460410FF2080E47
:100620004FEAD12154F801F0004450EA006348F049
:1006300001080CF460410AF584620FF20A0E4FEAD9
:10064000D12152F801F078F5E0685CBF19F8010B90
:100650005AF820F0DAF884F419F8012BDAF880144B
:10066000A9EB010099F8001042EA01294FEA102194
:10067000DAF87C2402F8011942F4807202F80109C8
:100680008AF87C2409F460410AF588624FEAD12097
:100690001058CAF880048144B8F5C0685CBF19F8E6
:1006A000010B5AF820F0DAF884F419F8010B06EB84
:1006B00000604FEA106C1BF80CC000F180704FEA2C
:1006C00010611BF801104CEA012C0CF460410FF290
:1006D0000A0E4FEAD12154F801F005EA00654FEA0D
:1006E0002563B8F5C0685CBF19F8010B5AF820F013
:1006F000DAF884F419F801CB1BF80C0028F0400854
:1007000010F0400F18BF48F0400800EA156343EAB4
:100710000063B8F540785CBF19F8010B5AF820F077
:10072000DAF884F419F801CB1BF80C0005EA00652F
:100730004FEA2563B8F540785CBF19F8010B5AF809
:1007400020F0DAF884F419F801CB1BF80C005FEA0A
:10075000580840EB000050EA006348EB08080BF82B
:100760000C00B8F5A0685CBF19F8010B5AF820F02E
:10077000DAF884F49AF87C2402F101028AF87C24E5
:1007800042F480721BF9020028F04D0800F04D0180
:1007900048EA010820F0FD0383F00203B8F5806801
:1007A0005CBF19F8010B5AF820F0DAF884F419F854
:1007B000010B05EA00654FEA2563B8F500785CBFD8
:1007C00019F8010B5AF820F0DAF884F45FEA5808B7
:1007D00028BF45F400056D194FEA256348EB08086A
:1007E000B8F500785CBF19F8010B5AF820F0DAF878
:1007F00084F419F801CB19F8010B4CEA002C0CF425
:1008000060410FF20A0E4FEAD12154F801F028F0AE
:10081000400810F0400F18BF48F0400800EA156388
:1008200043EA0063B8F580685CBF19F8010B5AF819
:1008300020F0DAF884F419F801CB19F8010B4CEA2E
:10084000002C0CF460410FF20A0E4FEAD12154F84B
:1008500001F005EA00654FEA2563B8F580685CBFE2
:1008600019F8010B5AF820F0DAF884F419F801CBE2
:1008700019F8010B4CEA002C0CF460410FF2080E41
:100880004FEAD12154F801F05FEA580840EB00002C
:1008900050EA006348EB08080CF460410AF58462F2
:1008A0000FF2080E4FEAD12152F801F0B8F5C068F6
:1008B0005CBF19F8010B5AF820F0DAF884F413F051
:1008C000004F19F9010B1CBF8144A8F58078B8F5D9
:1008D00000785CBF19F8010B5AF820F0DAF884F4BC
:1008E00019F8010B10F80BC0584441784CEA012C60
:1008F0000CEB176C0CF460410FF2080E4FEAD1219B
:1009000054F801F005EA00654FEA2563B8F5A068E0
:100910005CBF19F8010B5AF820F0DAF884F419F8E2
:1009200001CB06EB0C6C4FEA1C601BF8000005EADB
:1009300000654FEA2563B8F580685CBF19F8010BC4
:100940005AF820F0DAF884F419F801CB06EB0C6CB5
:100950004FEA1C601BF800005FEA580840EB0000FB
:1009600050EA006348EB08084FEA1C610BF80100ED
:10097000B8F5C0685CBF19F8010B5AF820F0DAF836
:1009800084F448F00108B8F500785CBF19F8010B51
:100990005AF820F0DAF884F419F801CB19F8010BB1
:1009A0004CEA002C0CEB176C0CF460410FF2080EB3
:1009B0004FEAD12154F801F005EA00654FEA2563BA
:1009C000B8F580685CBF19F8010B5AF820F0DAF826
:1009D00084F419F801CB19F8010B4CEA002C0CEB4C
:1009E000166C0CF460410FF20A0E4FEAD12154F854
:1009F00001F005EA00654FEA2563B8F580685CBF41
:100A000019F8010B5AF820F0DAF884F419F801CB40
:100A100019F8010B4CEA002C0CEB166C0CF460413D
:100A20000FF2080E4FEAD12154F801F05FEA58089E
:100A300040EB000050EA006348EB08080CF460410A
:100A40000AF584620FF2080E4FEAD12152F801F044
:100A5000B8F5E0685CBF19F8010B5AF820F0DAF835
:100A600084F49AF87C2402F101028AF87C2442F48E
:100A700080721BF9020028F04D0800F04D0148EA91
:100A8000010820F0FD0383F002039AF87C2402F1B0
:100A900002028AF87C24DAF87C2412F8010942F474
:100AA000807292F8009049EA002909F460410AF541
:100AB00088624FEAD1201058CAF880048144B8F502
:100AC000C0685CBF19F8010B5AF820F0DAF884F41A
:100AD00019F8010B06EB00604FEA106C1BF80CC014
:100AE00000F180704FEA10611BF801104CEA012CF4
:100AF0000CF460410FF2080E4FEAD12154F801F0D6
:100B000085EA00654FEA2563B8F5C0685CBF19F84F
:100B1000010B5AF820F0DAF884F419F801CB1BF82D
:100B20000C0085EA00654FEA2563B8F540785CBFA4
:100B300019F8010B5AF820F0DAF884F419F801CB0F
:100B40001BF80C305B0848F001080BF80C3078F506
:100B5000A0685CBF19F8010B5AF820F0DAF884F4A9
:100B60004FEA1560DAF87C2402F801098AF87C243F
:100B7000B8F540785CBF19F8010B5AF820F0DAF8A4
:100B800084F419F8010B85EA00654FEA2563B8F58E
:100B900000785CBF19F8010B5AF820F0DAF884F4F9
:100BA0006B0E4FEA036548F0010878F500785CBFEA
:100BB00019F8010B5AF820F0DAF884F419F8010B4F
:100BC00099F8001040EA012909F460410AF58862A9
:100BD0004FEAD1201058CAF880048144B8F5407813
:100BE0005CBF19F8010B5AF820F0DAF884F419F810
:100BF00001CB19F8010B4CEA002C0CF460410FF208
:100C00000A0E4FEAD12154F801F085EA00654FEA57
:100C10002563B8F580685CBF19F8010B5AF820F01D
:100C2000DAF884F419F801CB19F8010B4CEA002C1E
:100C30000CF460410FF2080E4FEAD12154F801F094
:100C4000400848F0010803460CF460410AF584624C
:100C50000FF2080E4FEAD12152F801F078F5C06882
:100C60005CBF19F8010B5AF820F0DAF884F418F098
:100C7000400F19F9010B04BF8144A8F58078B8F53D
:100C800000785CBF19F8010B5AF820F0DAF884F408
:100C900019F8010B10F80BC0584441784CEA012CAC
:100CA0000CEB176C0CF460410FF2080E4FEAD121E7
:100CB00054F801F085EA00654FEA2563B8F5A068AD
:100CC0005CBF19F8010B5AF820F0DAF884F419F82F
:100CD00001CB06EB0C6C4FEA1C601BF8000085EAA8
:100CE00000654FEA2563B8F580685CBF19F8010B11
:100CF0005AF820F0DAF884F419F801CB06EB0C6C02
:100D00004FEA1C631BF803305B0848F001084FEA08
:100D10001C610BF8013078F5C0685CBF19F8010B55
:100D20005AF820F0DAF884F428F00408B8F50078CE
:100D30005CBF19F8010B5AF820F0DAF884F419F8BE
:100D400001CB19F8010B4CEA002C0CEB176C0CF4DE
:100D500060410FF20A0E4FEAD12154F801F085EA02
:100D600000654FEA2563B8F580685CBF19F8010B90
:100D70005AF820F0DAF884F419F801CB19F8010BCD
:100D80004CEA002C0CEB166C0CF460410FF2080ED0
:100D90004FEAD12154F801F085EA00654FEA256356
:100DA000B8F580685CBF19F8010B5AF820F0DAF842
:100DB00084F419F801CB19F8010B4CEA002C0CEB68
:100DC000166C0CF460410FF20A0E4FEAD12154F870
:100DD00001F0400848F0010803460CF460410AF5B0
:100DE00084620FF20A0E4FEAD12152F801F078F531
:100DF000E0685CBF19F8010B5AF820F0DAF884F4C7
:100E00009AF87C2402F102028AF87C24DAF87C2425
:100E100012F8010942F4807292F8009049EA002920
:100E200009F1010909F460410AF588624FEAD1200D
:100E30001058CAF880048144B8F5C0685CBF19F83E
:100E4000010B5AF820F0DAF884F419F8010B06EBDC
:100E500000604FEA106C1BF80CC000F180704FEA84
:100E600010611BF801104CEA012C0CF460410FF2E8
:100E70000A0E4FEAD12154F801F05FEA580128BF69
:100E8000A0F5807055EB30254FEA256348F0410806
:100E900078BF28F0400878F5C0685CBF19F8010BEE
:100EA0005AF820F0DAF884F419F801CB1BF80C009A
:100EB0005FEA580128BFA0F5807055EB30254FEA56
:100EC000256348F0410878BF28F0400878F540785D
:100ED0005CBF19F8010B5AF820F0DAF884F419F81D
:100EE00001CB1BF80C005FEA580828BF40F4807063
:100EF000400840EA006348EB08080BF80C00B8F51E
:100F0000A0685CBF19F8010B5AF820F0DAF884F4F5
:100F10009AF87C2402F101028AF87C2442F480725F
:100F20001BF902304FEA0365B8F580685CBF19F819
:100F3000010B5AF820F0DAF884F419F8010B5FEA93
:100F4000580128BFA0F5807055EB30254FEA256386
:100F500048F0410878BF28F0400878F500785CBF79
:100F600019F8010B5AF820F0DAF884F45FEA58080F
:100F70004FEA35052B1605F07F4548EB0808B8F514
:100F800000785CBF19F8010B5AF820F0DAF884F405
:100F900019F801CB19F8010B4CEA002C0AF588610D
:100FA0000CF460424FEAD220095811F80C906144C9
:100FB000487849EA002909F460410AF588624FEA55
:100FC000D1201058CAF880048144B8F5A0685CBFED
:100FD00019F8010B5AF820F0DAF884F419F801CB6B
:100FE00019F8010B4CEA002C0CF460410FF2080ECA
:100FF0004FEAD12154F801F05FEA580128BFA0F56B
:10100000807055EB30254FEA256348F0410878BFE2
:1010100028F0400878F580685CBF19F8010B5AF891
:1010200020F0DAF884F419F801CB19F8010B4CEA36
:10103000002C0CF460410FF20A0E4FEAD12154F853
:1010400001F05FEA580828BF40F48070400840EA89
:10105000006348EB08080CF460410AF584620FF263
:101060000A0E4FEAD12152F801F0B8F5C0685CBF12
:1010700019F8010B5AF820F0DAF884F418F0400F50
:1010800019F9010B1CBF8144A8F58078B8F50078E8
:101090005CBF19F8010B5AF820F0DAF884F419F85B
:1010A000010B10F80BC0584441784CEA012C0CEBB2
:1010B000176C0CF460410FF20A0E4FEAD12154F87C
:1010C00001F05FEA580128BFA0F5807055EB30258C
:1010D0004FEA256348F0410878BF28F0400878F5CA
:1010E000A0685CBF19F8010B5AF820F0DAF884F414
:1010F00019F801CB06EB0C6C4FEA1C601BF80000E2
:101100005FEA580128BFA0F5807055EB30254FEA03
:10111000256348F0410878BF28F0400878F58068DA
:101120005CBF19F8010B5AF820F0DAF884F419F8CA
:1011300001CB06EB0C6C4FEA1C601BF800005FEA69
:10114000580828BF40F48070400840EA006348EB2C
:1011500008084FEA1C610BF80100B8F5C0685CBFD5
:1011600019F8010B5AF820F0DAF884F448F0040872
:10117000B8F500785CBF19F8010B5AF820F0DAF8DE
:1011800084F419F801CB19F8010B4CEA002C0CEB94
:10119000176C0CF460410FF20A0E4FEAD12154F89B
:1011A00001F05FEA580128BFA0F5807055EB3025AB
:1011B0004FEA256348F0410878BF28F0400878F5E9
:1011C00080685CBF19F8010B5AF820F0DAF884F453
:1011D00019F801CB19F8010B4CEA002C0CEB166C3A
:1011E0000CF460410FF2080E4FEAD12154F801F0DF
:1011F0005FEA580128BFA0F5807055EB30254FEA13
:10120000256348F0410878BF28F0400878F58068E9
:101210005CBF19F8010B5AF820F0DAF884F419F8D9
:1012200001CB19F8010B4CEA002C0CEB166C0CF4FA
:1012300060410FF20A0E4FEAD12154F801F05FEA43
:10124000580828BF40F48070400840EA006348EB2B
:1012500008080CF460410AF584620FF20A0E4FEAA6
:10126000D12152F801F0B8F5E0685CBF19F8010B24
:101270005AF820F0DAF884F419F8010B06EB006054
:101280004FEA106C1BF80CC000F180704FEA10613F
:101290001BF801104CEA012C4FEA15600CF4604178
:1012A0000AF584620FF2080E4FEAD12152F801F0DC
:1012B000B8F5C0685CBF19F8010B5AF820F0DAF8ED
:1012C00084F419F801CB4FEA17600BF80C00B8F55D
:1012D00040785CBF19F8010B5AF820F0DAF884F472
:1012E00019F801CB4FEA15600BF80C00B8F54078FF
:1012F0005CBF19F8010B5AF820F0DAF884F419F8F9
:1013000001CB4FEA16600BF80C00B8F540785CBFD3
:1013100019F8010B5AF820F0DAF884F4A7F1807775
:101320004FEA2763B8F500785CBF19F8010B5AF84B
:1013300020F0DAF884F435464FEA2663B8F50078F1
:101340005CBF19F8010B5AF820F0DAF884F419F8A8
:1013500001CB19F8010B4CEA002C4FEA17600CF492
:1013600060410AF584620FF20A0E4FEAD12152F869
:1013700001F0B8F580685CBF19F8010B5AF820F04D
:10138000DAF884F419F801CB19F8010B4CEA002CB7
:101390004FEA15600CF460410AF584620FF2080E02
:1013A0004FEAD12152F801F0B8F580685CBF19F816
:1013B000010B5AF820F0DAF884F419F801CB19F887
:1013C000010B4CEA002C4FEA16600CF460410AF560
:1013D00084620FF20A0E4FEAD12152F801F0B8F5FB
:1013E00080685CBF19F8010B5AF820F0DAF884F431
:1013F00018F0010F19F9010B04BF8144A8F580789A
:10140000B8F500785CBF19F8010B5AF820F0DAF84B
:1014100084F419F8010B10F80BC0584441784CEAD9
:10142000012C0CEB176C4FEA15600CF460410AF5C7
:1014300084620FF20A0E4FEAD12152F801F0B8F59A
:10144000C0685CBF19F8010B5AF820F0DAF884F490
:1014500019F801CB06EB0C6C4FEA17604FEA1C61E0
:101460000BF80100B8F580685CBF19F8010B5AF859
:1014700020F0DAF884F419F801CB06EB0C6C4FEA93
:1014800015604FEA1C610BF80100B8F580685CBF7D
:1014900019F8010B5AF820F0DAF884F419F801CBA6
:1014A00007EB0C6C4FEA16604FEA1C610BF8010069
:1014B000B8F580685CBF19F8010B5AF820F0DAF82B
:1014C00084F43D464FEA2763B8F500785CBF19F80D
:1014D000010B5AF820F0DAF884F419F801CB19F866
:1014E000010B4CEA002C0CEB176C4FEA15600CF466
:1014F00060410AF584620FF20A0E4FEAD12152F8D8
:1015000001F0B8F5A0685CBF19F8010B5AF820F09B
:10151000DAF884F44FEA16608AF87C04B8F50078AB
:101520005CBF19F8010B5AF820F0DAF884F419F8C6
:1015300001CB19F8010B4CEA002C0CEB166C4FEAAE
:1015400015600CF460410AF584620FF20A0E4FEA4E
:10155000D12152F801F0B8F5A0685CBF19F8010B71
:101560005AF820F0DAF884F419F9013B4FEA0367DE
:10157000B8F500785CBF19F8010B5AF820F0DAF8DA
:1015800084F419F8010B06EB00604FEA106C1BF8AD
:101590000CC000F180704FEA10611BF801104CEA9A
:1015A000012C0CF460410FF20A0E4FEAD12154F8DD
:1015B00001F040EA00634FEA0365B8F5C0685CBF1C
:1015C00019F8010B5AF820F0DAF884F419F9013B04
:1015D0004FEA0366B8F500785CBF19F8010B5AF8BA
:1015E00020F0DAF884F419F801CB1BF90C304FEA3B
:1015F0000367B8F540785CBF19F8010B5AF820F082
:10160000DAF884F419F801CB1BF90C304FEA0365C2
:10161000B8F540785CBF19F8010B5AF820F0DAF8F9
:1016200084F419F801CB1BF90C304FEA0366B8F5C6
:1016300040785CBF19F8010B5AF820F0DAF884F40E
:101640002F464FEA2763B8F500785CBF19F8010B05
:101650005AF820F0DAF884F419F9013B4FEA0365EF
:10166000B8F500785CBF19F8010B5AF820F0DAF8E9
:1016700084F42E464FEA2663B8F500785CBF19F86B
:10168000010B5AF820F0DAF884F419F801CB19F8B4
:10169000010B4CEA002C0CF460410FF20A0E4FEAE9
:1016A000D12154F801F040EA00634FEA0367B8F52E
:1016B00080685CBF19F8010B5AF820F0DAF884F45E
:1016C00019F801CB19F8010B4CEA002C0CF460411D
:1016D0000FF2080E4FEAD12154F801F040EA0063FE
:1016E0004FEA0365B8F580685CBF19F8010B5AF83A
:1016F00020F0DAF884F419F801CB19F8010B4CEA60
:10170000002C0CF460410FF20A0E4FEAD12154F87C
:1017100001F040EA00634FEA0366B8F580685CBFF9
:1017200019F8010B5AF820F0DAF884F418F0010FD8
:1017300019F9010B1CBF8144A8F58078B8F5007831
:101740005CBF19F8010B5AF820F0DAF884F419F8A4
:10175000010B10F80BC0584441784CEA012C0CEBFB
:10176000176C0CF460410FF20A0E4FEAD12154F8C5
:1017700001F040EA00634FEA0365B8F5A0685CBF7A
:1017800019F8010B5AF820F0DAF884F419F801CBB3
:101790000CEB166C0CF0FF0C1BF90C304FEA0367D6
:1017A000B8F580685CBF19F8010B5AF820F0DAF838
:1017B00084F419F801CB0CEB166C0CF0FF0C1BF940
:1017C0000C304FEA0365B8F580685CBF19F8010B6F
:1017D0005AF820F0DAF884F419F801CB0CEB176C06
:1017E0000CF0FF0C1BF90C304FEA0366B8F580686B
:1017F0005CBF19F8010B5AF820F0DAF884F428F0ED
:101800004008B8F500785CBF19F8010B5AF820F0D1
:10181000DAF884F419F801CB19F8010B4CEA002C22
:101820000CEB176C0CF460410FF2080E4FEAD1215B
:1018300054F801F040EA00634FEA0365B8F58068A8
:101840005CBF19F8010B5AF820F0DAF884F49AF822
:101850007C644FEA06664FEA2663B8F500785CBF01
:1018600019F8010B5AF820F0DAF884F419F801CBD2
:1018700019F8010B4CEA002C0CEB166C0CF46041CF
:101880000FF2080E4FEAD12154F801F040EA00634C
:101890004FEA0367B8F580685CBF19F8010B5AF886
:1018A00020F0DAF884F419F801CB19F8010B4CEAAE
:1018B000002C0CEB166C0CF460410FF20A0E4FEA90
:1018C000D12154F801F040EA00634FEA0365B8F50E
:1018D00080685CBF19F8010B5AF820F0DAF884F43C
:1018E00019F801CB19F8010B4CEA002C0CEB176C22
:1018F0000CF460410FF2080E4FEAD12154F801F0C8
:1019000040EA00634FEA0366B8F580685CBF19F8E7
:10191000010B5AF820F0DAF884F419F8010BB7EB50
:1019200000634FEA236348F0010878F500785CBF54
:1019300019F8010B5AF820F0DAF884F419F8010BC1
:1019400006EB00604FEA106C1BF80CC000F18070D1
:101950004FEA10611BF801104CEA012C0CF46041B5
:101960000FF2080E4FEAD12154F801F0B5EB0063F5
:101970004FEA236348F0010878F5C0685CBF19F8A6
:10198000010B5AF820F0DAF884F419F801CB1BF8AF
:101990000C00B7EB00634FEA236348F0010878F5C9
:1019A00040785CBF19F8010B5AF820F0DAF884F49B
:1019B00019F801CB1BF80C00B5EB00634FEA236369
:1019C00048F0010878F540785CBF19F8010B5AF827
:1019D00020F0DAF884F419F801CB1BF80C00A0F120
:1019E000010040EA00630BF80C00B8F5A0685CBF8A
:1019F00019F8010B5AF820F0DAF884F407F180772F
:101A00004FEA2763B8F500785CBF19F8010B5AF864
:101A100020F0DAF884F419F8010BB5EB00634FEA13
:101A2000236348F0010878F500785CBF19F8010BD2
:101A30005AF820F0DAF884F4A6F180764FEA2663AB
:101A4000B8F500785CBF19F8010B5AF820F0DAF805
:101A500084F419F801CB19F8010B4CEA002C0CF4B2
:101A600060410FF20A0E4FEAD12154F801F0B7EBB2
:101A700000634FEA236348F0010878F580685CBF93
:101A800019F8010B5AF820F0DAF884F419F801CBB0
:101A900019F8010B4CEA002C0CF460410FF2080E0F
:101AA0004FEAD12154F801F0B5EB00634FEA23630C
:101AB00048F0010878F580685CBF19F8010B5AF806
:101AC00020F0DAF884F419F801CB19F8010B4CEA8C
:101AD000002C0CF460410FF20A0E4FEAD12154F8A9
:101AE00001F0A0F1010040EA00630CF460410AF546
:101AF00084620FF20A0E4FEAD12152F801F0B8F5D4
:101B0000C0685CBF19F8010B5AF820F0DAF884F4C9
:101B100013F0FF0F19F9010B1CBF8144A8F5807861
:101B2000B8F500785CBF19F8010B5AF820F0DAF824
:101B300084F419F8010B10F80BC0584441784CEAB2
:101B4000012C0CEB176C0CF460410FF20A0E4FEAFB
:101B5000D12154F801F0B5EB00634FEA236348F05C
:101B6000010878F5A0685CBF19F8010B5AF820F05D
:101B7000DAF884F419F801CB06EB0C6C4FEA1C6020
:101B80001BF80000B5EB00634FEA236348F001083F
:101B900078F580685CBF19F8010B5AF820F0DAF884
:101BA00084F419F801CB06EB0C6C4FEA1C601BF8AF
:101BB0000000A0F1010040EA00634FEA1C610BF84D
:101BC0000100B8F5C0685CBF19F8010B5AF820F0A5
:101BD000DAF884F428F00808B8F500785CBF19F842
:101BE000010B5AF820F0DAF884F419F801CB19F84F
:101BF000010B4CEA002C0CEB176C0CF460410FF25B
:101C00000A0E4FEAD12154F801F0B5EB00634FEA18
:101C1000236348F0010878F580685CBF19F8010B70
:101C20005AF820F0DAF884F419F801CB19F8010B0E
:101C30004CEA002C0CEB166C0CF460410FF2080E11
:101C40004FEAD12154F801F0B5EB00634FEA23636A
:101C500048F0010878F580685CBF19F8010B5AF864
:101C600020F0DAF884F419F801CB19F8010B4CEAEA
:101C7000002C0CEB166C0CF460410FF20A0E4FEACC
:101C8000D12154F801F0A0F1010040EA00630CF406
:101C900060410AF584620FF20A0E4FEAD12152F830
:101CA00001F0B8F5E0685CBF19F8010B5AF820F0B4
:101CB000DAF884F419F8010BB6EB00634FEA2363FA
:101CC00048F0010878F500785CBF19F8010B5AF864
:101CD00020F0DAF884F419F8010B06EB00604FEA03
:101CE000106C1BF80CC000F180704FEA10611BF8FB
:101CF00001104CEA012C0CF460410FF20A0E4FEA7D
:101D0000D12154F801F05FEA580175EB006505F048
:101D10007F454FEA256348F0410878BF28F0400826
:101D200078F5C0685CBF19F8010B5AF820F0DAF8B2
:101D300084F419F801CB1BF80C00B6EB00634FEAF2
:101D4000236348F0010878F540785CBF19F8010B6F
:101D50005AF820F0DAF884F419F801CB1BF80C00DB
:101D60005FEA580175EB006505F07F454FEA256392
:101D700048F0410878BF28F0400878F540785CBF0B
:101D800019F8010B5AF820F0DAF884F419F801CBAD
:101D90001BF80C0000F1010040EA00630BF80C0096
:101DA000B8F5A0685CBF19F8010B5AF820F0DAF812
:101DB00084F406F180764FEA2663B8F500785CBFBC
:101DC00019F8010B5AF820F0DAF884F419F8010B2D
:101DD0005FEA580175EB006505F07F454FEA256322
:101DE00048F0410878BF28F0400878F500785CBFDB
:101DF00019F8010B5AF820F0DAF884F4B8F50078F5
:101E00005CBF19F8010B5AF820F0DAF884F419F8DD
:101E100001CB19F8010B4CEA002C0CF460410FF2D5
:101E20000A0E4FEAD12154F801F0B6EB00634FEAF5
:101E3000236348F0010878F580685CBF19F8010B4E
:101E40005AF820F0DAF884F419F801CB19F8010BEC
:101E50004CEA002C0CF460410FF2080E4FEAD1213D
:101E600054F801F05FEA580175EB006505F07F4515
:101E70004FEA256348F0410878BF28F0400878F51C
:101E800080685CBF19F8010B5AF820F0DAF884F486
:101E900019F801CB19F8010B4CEA002C0CF4604145
:101EA0000FF2080E4FEAD12154F801F000F10100C1
:101EB00040EA00630CF460410AF584620FF2080EF8
:101EC0004FEAD12152F801F0B8F5C0685CBF19F8AB
:101ED000010B5AF820F0DAF884F413F0FF0F19F927
:101EE000010B04BF8144A8F58078B8F500785CBF89
:101EF00019F8010B5AF820F0DAF884F419F8010BFC
:101F000010F80BC0584441784CEA012C0CEB176CCC
:101F10000CF460410FF2080E4FEAD12154F801F0A1
:101F20005FEA580175EB006505F07F454FEA2563D0
:101F300048F0410878BF28F0400878F5A0685CBFF9
:101F400019F8010B5AF820F0DAF884F419F801CBEB
:101F500006EB0C6C4FEA1C601BF800005FEA5801AE
:101F600075EB006505F07F454FEA256348F04108B1
:101F700078BF28F0400878F580685CBF19F8010B3D
:101F80005AF820F0DAF884F419F801CB06EB0C6C5F
:101F90004FEA1C601BF8000000F1010040EA0063FA
:101FA0004FEA1C610BF80100B8F5C0685CBF19F876
:101FB000010B5AF820F0DAF884F448F00808B8F574
:101FC00000785CBF19F8010B5AF820F0DAF884F4B5
:101FD00019F801CB19F8010B4CEA002C0CEB176C2B
:101FE0000CF460410FF2080E4FEAD12154F801F0D1
:101FF0005FEA580175EB006505F07F454FEA256300
:1020000048F0410878BF28F0400878F580685CBF48
:1020100019F8010B5AF820F0DAF884F419F801CB1A
:1020200019F8010B4CEA002C0CEB166C0CF4604117
:102030000FF2080E4FEAD12154F801F05FEA58017F
:1020400075EB006505F07F454FEA256348F04108D0
:1020500078BF28F0400878F580685CBF19F8010B5C
:102060005AF820F0DAF884F419F801CB19F8010BCA
:102070004CEA002C0CEB166C0CF460410FF2080ECD
:102080004FEAD12154F801F000F1010040EA006369
:102090000CF460410AF584620FF2080E4FEAD12178
:1020A00052F801F0B8F5E0685CBF19F8010B5AF876
:1020B00020F0DAF884F400002DE9F04FDFF84CA1AD
:1020C000DFF84CB10AF58C6191E8F8038044B8F16F
:1020D00000085CBF19F8010B5AF820F0DAF884F414
:1020E0000AF58C6080E8F803BDE8F08F2DE9F04F29
:1020F000DFF818A1DFF818B10AF58C6090E8F80352
:102100004FF6FA7C00F021F8A8F5E0680AF58C603B
:1021100080E8F803BDE8F08FB8F100085CBF19F85B
:10212000010B5AF820F0DAF884F418F0040FF3D118
:102130004FF6FE7C00F009F8B8F5E0685CBF19F8CE
:10214000010B5AF820F0DAF884F4DAF88004A9EBED
:1021500000004FEA1021DAF87C2402F8011942F459
:10216000807202F801098AF87C2408F04D0013F00F
:10217000004F18BF40F0800013F0FF0F08BF40F081
:10218000020040F02000DAF87C2402F801098AF805
:102190007C2448F00408DAF85C0410F80C906044E1
:1021A000427849EA022909F460410AF588624FEA57
:1021B000D1201058CAF880048144704700BFB8F598
:1021C00000785CBF19F8010B5AF820F0DAF884F4B3
:1021D0004DF804ED4FF000054FF000064FF00007FA
:1021E0004FF000030AF580640B48CAF87C044FF0F6
:1021F00000084FF6FC7CFFF7A8FF0AF58C6080E82A
:10220000F8030649CAF884145DF804FB3C0000207A
:10221000000800200000000000090020E120000864
:1022200000BFFEE77047002109E0002201E0531CD7
:102230009AB240F6B8339A42F9DB4B1C99B281420C
:10224000F3DB704772B600BFFEE7000070B50446CE
:1022500000F002F906462546681C10B104480068E3
:10226000054400BF00F0F8F8801BA842FAD370BD07
:102270001400002078B503460022D0E001269640E5
:102280000D6805EA0604002C72D04D68012D08D0B7
:102290004D68022D05D04D68112D02D04D68122DCC
:1022A00013D1986856000325B540A8435600CD6861
:1022B000B54028439860586801259540A8430D799A
:1022C000C5F30015954028435860D868560003258B
:1022D000B540A84356008D68B5402843D8604D6886
:1022E000022D02D04D68122D13D1D60803F120051E
:1022F00055F826005507EE0E0F25B540A8435607A2
:10230000F60E0D69B5402843D60803F1200545F8BF
:102310002600186856000325B540A8430D7905F03E
:1023200003055600B540284318604D6805F08055F8
:10233000B5F1805F72D100BF3C4D2D6E45F00105B7
:102340003A4E356635462D6E05F00105009500BF05
:1023500000BF4FEAB635960855F8260095072E0FB0
:102360000F25B540A843B3F1904F02D100251AE0E4
:1023700054E02F4DAB4201D1012514E02D4DAB426D
:1023800001D102250FE02C4DAB4201D103250AE01B
:102390002A4DAB4201D1042505E0294DAB4201D1C4
:1023A000052500E006259607360FB5402843254D44
:1023B000960845F82600244D2868A0434D6805F48A
:1023C0008035B5F5803F00D120431F4D28602D1D7D
:1023D0002868A0434D6805F40035B5F5003F00D1ED
:1023E0002043194D2D1D28602D1D2868A0434D68E0
:1023F00005F48015B5F5801F00D12043124D083536
:1024000028602D1D2868A0434D6805F40015B5F51A
:10241000001F00D120430C4D0C352860521C0D6864
:10242000D540002D7FF42AAF78BD00000010024097
:102430000004004800080048000C00480010004854
:102440000014004808000140000401400AB1816105
:1024500000E081627047000001480068704700009A
:102460000C0000200348006803490968084401493A
:10247000086070470C0000201400002010B50024F4
:10248000032000F0ABF8002000F008F808B10124A8
:1024900001E000F02FF8204610BD000070B50446A2
:1024A000002511480068D8B10F4800684FF47A71D0
:1024B000B1FBF0F00D490968B1FBF0F6304600F0D1
:1024C00049FD58B9102C07D200222146501E00F0B9
:1024D00047F80748046004E0012502E0012500E018
:1024E0000125284670BD00001400002018000020BF
:1024F0001000002008B500BF0E48006E40F001003B
:102500000C4908660846006E00F00100009000BF0C
:1025100000BF00BF0846806D40F0805088650846C7
:10252000806D00F08050009000BF00BF00F0F6F812
:1025300008BD0000001002400146084600280DDBDF
:1025400000BF00BF00F01F0301229A4043099B0017
:1025500003F1E023C3F8002100BF00BF00BF7047B4
:102560002DE9F05F80460D46164602F009FC07464D
:1025700039462A46334601F00700C0F1070ABAF18E
:10258000040F02D94FF0040A01E0C0F1070AD14656
:1025900000F1040ABAF1070F02D24FF0000A01E07D
:1025A000A0F1030AD4464FF0010A0AFA09FAAAF187
:1025B000010A0AEA020A0AFA0CFA4FF0010B0BFAB6
:1025C0000CFBABF1010B0BEA030B4AEA0B042146AF
:1025D000404602F0DDFBBDE8F09F000000BF00F0C8
:1025E0000702064B19684FF6FF031940044B0B43D3
:1025F00043EA0221014B196000BF70470CED00E077
:102600000000FA0502468ABB4148006800F4C06039
:10261000B0F5806F2BD13E488030006820F4807088
:102620003B4BC3F880001846006820F4C06040F4BB
:10263000007018603748006832235843364BB0FBAF
:10264000F3F0411C00E0491E3148406900F480600D
:10265000B0F5806F01D10029F5D12D48406900F413
:102660008060B0F5806F51D10320704708E02848A2
:102670008030006820F48070254BC3F8800045E06E
:10268000B2F5007F3AD12248006800F4C060B0F58E
:10269000806F2AD11E488030006840F480701C4B47
:1026A000C3F880001846006820F4C06040F4007051
:1026B00018601848006832235843174BB0FBF3F0FA
:1026C000411C00E0491E1248406900F48060B0F5EA
:1026D000806F01D10029F5D10D48406900F4806078
:1026E000B0F5806F12D10320BFE709488030006841
:1026F00040F48070064BC3F8800007E0044800688F
:1027000020F4C06040F48060014B18600020ACE70A
:10271000007000401800002040420F00034880680D
:1027200040F480400149886070470000007000401C
:102730002DE9F04104460D464FF0000814B9012080
:10274000BDE8F0817D48006800F00F00A8420ED27D
:102750007A48006820F00F0028437849086008464E
:10276000006800F00F00A84201D00120E8E72078BF
:1027700000F00100002864D06068032823D170486D
:10278000006800F0007008B90120D9E702F088F86D
:1027900006466C48864237D96948806800F0F000E8
:1027A00030B1207800F0020002282DD1A06858BB7B
:1027B0006348806820F0F00040F080006049886045
:1027C0004FF0800820E06068022806D15C4800686D
:1027D00000F4003040B90120B2E75948006800F425
:1027E000806008B90120ABE700F0B4F80646554810
:1027F000864209D95248806820F0F00040F08000FD
:102800004F4988604FF080084D48806820F00300F1
:10281000616808434A498860FFF71EFE074608E0E2
:10282000FFF71AFEC01B41F28831884201D903200C
:1028300086E74348806800F00C006168B0EB810FC8
:10284000EED1207800F00200022820D1207800F09C
:102850000400042805D13A48806840F4E060384913
:102860008860207800F00800082807D13448806884
:1028700020F4605040F4E06031498860304880685E
:1028800020F0F000A16808432D49886008E0B8F105
:10289000800F05D12A48806820F0F0002849886020
:1028A0002648006800F00F00A84219D923480068A4
:1028B00020F00F00284321490860FFF7CDFD0746AF
:1028C00008E0FFF7C9FDC01B41F28831884201D9F9
:1028D000032035E71948006800F00F00A842F0D146
:1028E000207800F00400042807D11548806820F4FF
:1028F000E060E168084312498860207800F0080031
:10290000082808D10E48806820F46050216940EA08
:10291000C1000B49886000F01DF809498968C1F3BE
:102920000311094A515C01F01F01C84007490860C2
:1029300007480068FFF7B2FD02E7000000200240F0
:102940000010024000B4C4044863000818000020CE
:102950001000002070B5224DAD6805F00C05042D67
:1029600001D120483AE01E4DAD6805F00C05082D58
:1029700001D11D4832E01A4DAD6805F00C050C2D53
:102980002BD1174DED6805F00304154DED68C5F327
:1029900003156A1C022C0CD0032C09D1124DB5FB77
:1029A000F2F50F4EF668C6F3062605FB06F10AE0BF
:1029B00000BF0C4DB5FBF2F5094EF668C6F30626CE
:1029C00005FB06F100BF00BF054DED68C5F341658D
:1029D0006D1C6B00B1FBF3F000E0002070BD000047
:1029E000001002400024F40000366E012DE9F84387
:1029F000044614B90120BDE8F883207800F00100F6
:102A0000002865D0FC48806800F00C07FA48C068D0
:102A100000F003060C2F01D1032E01D0082F0AD19C
:102A2000F548006800F40030002851D060680028A4
:102A30004ED10120DFE700BF6068B0F5803F06D1CE
:102A4000ED48006840F48030EB4908601AE06068A7
:102A5000B0F5A02F0BD1E848006840F48020E6498B
:102A600008600846006840F4803008600AE0E248E8
:102A7000006820F48030E04908600846006820F4CF
:102A80008020086000BF606888B1FFF7E5FC05465C
:102A900006E0FFF7E1FC401B642801D90320AAE708
:102AA000D548006800F400300028F2D010E0FFF7AD
:102AB000D3FC054606E0FFF7CFFC401B642801D994
:102AC000032098E7CC48006800F400300028F2D1D9
:102AD000207800F00200022860D1C748806800F02A
:102AE0000C07C548C06800F003060C2F01D1022E68
:102AF00001D0042F18D1C048006800F4806018B1DC
:102B0000E06808B9012076E7BB48406820F0FE4045
:102B1000217C40EA0160B8494860B8480068FFF786
:102B2000BDFC18B3012066E7E06800B3B248006856
:102B300040F48070B0490860FFF78EFC054606E05F
:102B4000FFF78AFC401B022801D9032053E7AA485B
:102B5000006800F480600028F2D0A748406820F0A8
:102B6000FE40217C40EA0160A349486016E0A2488B
:102B7000006820F48070A0490860FFF76DFC0546EE
:102B800006E0FFF769FC401B022801D9032032E769
:102B90009948006800F480600028F2D1207800F0A5
:102BA0000800082836D16069D0B193489430006895
:102BB00040F001009049C1F89400FFF74DFC054634
:102BC00006E0FFF749FC401B022801D9032012E769
:102BD00089489430006800F002000028F1D019E024
:102BE00085489430006820F001008349C1F89400C2
:102BF000FFF732FC054606E0FFF72EFC401B0228DB
:102C000001D90320F7E67C489430006800F0020008
:102C10000028F1D1207800F00400042872D14FF090
:102C200000087548806D012121EA107078B100BF5D
:102C30007148806D40F080506F4988650846806D0E
:102C400000F08050009000BF00BF4FF001086C48BA
:102C5000006800F48070B0B96948006840F4807082
:102C600067490860FFF7F8FB054606E0FFF7F4FB4D
:102C7000401B022801D90320BDE66148006800F42A
:102C800080700028F2D000BFA068012808D15A48FF
:102C90009030006840F001005749C1F8900021E0F1
:102CA000A06805280FD154489030006840F0040017
:102CB0005149C1F890000846D0F8900040F001005A
:102CC000C1F890000EE04C489030006820F0010000
:102CD0004949C1F890000846D0F8900020F004005F
:102CE000C1F8900000BFA068A8B1FFF7B5FB05468A
:102CF00009E0FFF7B1FB401B41F28831884202D95D
:102D0000032078E625E03C489030006800F002009F
:102D10000028EED013E0FFF79FFB054608E0FFF721
:102D20009BFB401B41F28831884201D9032062E6B7
:102D300031489030006800F002000028EFD1B8F16F
:102D4000010F05D12C48806D20F080502A498865FC
:102D500000BF207800F02000202836D1A069D0B133
:102D600025489830006840F001002349C1F89800D8
:102D7000FFF772FB054606E0FFF76EFB401B0228DB
:102D800001D9032037E61C489830006800F00200A3
:102D90000028F1D019E018489830006820F00100B0
:102DA0001549C1F89800FFF757FB054606E0FFF705
:102DB00053FB401B022801D903201CE60E48983023
:102DC000006800F002000028F1D1E069002860D01E
:102DD0000948806800F00C000C287FD0E0690228C8
:102DE00058D10548006820F0807003490860FFF75B
:102DF00033FB05460DE000000010024010000020EB
:102E000000700040FFF728FB401B022801D9032077
:102E1000F1E54D48006800F000700028F2D1D4E9D7
:102E20000810401E41EA0011A06A41EA0021208EEC
:102E30000122C2EB500041EA40513420005DC2EB58
:102E4000500041EA40612C20005D41EAC0603E49EB
:102E5000C9683E4A114008433B49C86008460068BB
:102E600040F0807008600846C06840F08070C8601C
:102E7000FFF7F2FA054606E0FFF7EEFA401B0228DC
:102E800001D90320B7E53048006800F00070002841
:102E9000F2D056E02C48006820F080702A49086083
:102EA0000846C06820F00300C8600846C06828498A
:102EB00008402549C860FFF7CFFA054607E00DE056
:102EC000FFF7CAFA401B022801D9032093E51E48E8
:102ED000006800F000700028F2D132E0E0690128BB
:102EE00000D188E51848C66806F00301206A8142CF
:102EF00025D106F0F001606A401EB1EB001F1ED123
:102F000006F4FE41A06AB1EB002F18D106F078411B
:102F10002C20005DB1EBC06F11D106F4C001208EF2
:102F20000122C2EB5000B1EB405F08D106F0C06156
:102F30003420005DC2EB5000B1EB406F01D00120A6
:102F400059E5002057E50000001002400C809F0169
:102F5000FFFFEEFE70B504462546681EB0F1807F87
:102F600001D301200FE0681E4FF0E02148610F21DE
:102F70004FF0FF3001F00CFF00204FF0E02188619E
:102F800007200861002070BD704770477047704788
:102F90007047704730B502460B4600BF92F83C00C0
:102FA000012801D1022030BD012082F83C0000BF81
:102FB000022082F83D0010684168106884681D4D49
:102FC0001068A84203D01C4D1068A84203D121F418
:102FD000700158680143194801401868014310689E
:102FE0004160144D1068A84213D01068B0F1804FB2
:102FF0000FD0134D1068A8420BD0124D1068A84294
:1030000007D00D4D1068A84203D00F4D1068A8429C
:1030100005D124F08004986804431068846001207E
:1030200082F83D0000BF002082F83C0000BF00BFD6
:10303000B9E70000002C0140003401408FFFFFFD84
:10304000000400400008004000400140704710B5F7
:1030500004460CB9012010BD94F83D0028B90020A9
:1030600084F83C00204600F029F8022084F83D0056
:10307000211D206801F024FE012084F8480000BFD3
:1030800084F83E0001213F20015540200155412098
:103090000155422001554320015500BF00BF0120CA
:1030A00084F844004520015546200155472001552C
:1030B00000BF012084F83D000020CCE738B504466D
:1030C0000D492068884215D100BF0C48806D40F042
:1030D00010000A4988650846806D00F010000090D5
:1030E00000BF00BF002211463620FFF739FA362014
:1030F000FFF722FA38BD0000001000400010024027
:10310000014691F83D00012801D0012070470220BE
:1031100081F83D000868C06840F001000B68D86085
:10312000184B0868984213D00868B0F1804F0FD050
:10313000154B086898420BD0144B0868984207D08A
:10314000134B0868984203D0124B0868984210D17C
:1031500008688068104B00EA0302062A0FD0B2F517
:10316000803F0CD00868006840F001000B681860D0
:1031700005E00868006840F001000B681860002056
:10318000C4E70000002C014000040040000800409B
:10319000003401400040014007000100704710B5B5
:1031A000044620680069C0F34000D8B12068C068B8
:1031B000C0F34000B0B16FF0020021680861012047
:1031C00020772068806900F0030018B12046FFF7DF
:1031D000E5FF05E0204600F002F9204600F000F986
:1031E0000020207720680069C0F38000D8B12068F3
:1031F000C068C0F38000B0B16FF0040021680861BE
:10320000022020772068806900F4407018B12046C1
:10321000FFF7C4FF05E0204600F0E1F8204600F08B
:10322000DFF80020207720680069C0F3C000D8B123
:103230002068C068C0F3C000B0B16FF0080021681A
:103240000861042020772068C06900F0030018B1ED
:103250002046FFF7A3FF05E0204600F0C0F8204617
:1032600000F0BEF80020207720680069C0F300104D
:10327000D8B12068C068C0F30010B0B16FF0100082
:1032800021680861082020772068C06900F4407038
:1032900018B12046FFF782FF05E0204600F09FF8B6
:1032A000204600F09DF8002020772068006900F09B
:1032B000010058B12068C06800F0010030B16FF023
:1032C000010021680861204600F08CF82068006940
:1032D000C0F3C01058B12068C068C0F3C01030B14E
:1032E0006FF08000216808612046FFF74EFE2068DD
:1032F0000069C0F3002058B12068C068C0F3C01056
:1033000030B16FF48070216808612046FFF73CFE01
:1033100020680069C0F3801058B12068C068C0F30D
:10332000801030B16FF0400021680861204600F045
:1033300075F820680069C0F3401058B12068C06873
:10334000C0F3401030B16FF02000216808612046C2
:10335000FFF71CFE20680069C0F3005058B12068D8
:10336000C068C0F3005030B16FF48010216808616C
:103370002046FFF70DFE20680069C0F3405058B1A9
:103380002068C068C0F3405030B16FF4001021686D
:1033900008612046FFF7FBFD20680069C0F38050FC
:1033A00058B12068C068C0F3805030B16FF480001D
:1033B000216808612046FFF7ECFD20680069C0F332
:1033C000C05058B12068C068C0F3C05030B16FF42D
:1033D0000000216808612046FFF738FE10BD7047E5
:1033E000704700000A49884211D10A49097871B929
:1033F00009490988491C89B2074A1180B1F57A7FC9
:1034000005D10121034A11700021034A1180704740
:10341000D40400200000002002000020704700BFFC
:10342000FEE7000000B585B014216846FCF7F9FE00
:103430004FF6FF70009000200190032003900020C1
:10344000029069460248FEF715FF05B000BD000076
:103450000008004800B585B014216846FCF7E1FE7D
:103460004FF6FF7000900120019003200390002090
:10347000029069460248FEF7FDFE05B000BD00005F
:103480000008004830B5054600240021084600F039
:1034900051F900F0CBF900BF03E0284600F08AF9AB
:1034A000641CB4F5963FF8D330BD000000B587B07A
:1034B000142102A8FCF7B5FE00BF2A48C06C40F0FA
:1034C00004002849C8640846C06C00F0040001905C
:1034D00000BF00BF00BF0846C06C40F00100C864D8
:1034E0000846C06C00F00100019000BF00BF00BFA3
:1034F0000846C06C40F00200C8640846C06C00F08A
:103500000200019000BF00BF4FF4487002900120FC
:10351000039000200590049002A91348FEF7AAFE2C
:103520004FF48070029001200390002005900490D9
:1035300002A94FF09040FEF79DFEFFF78BFF4FF082
:103540009040806940F480704FF090418861064857
:103550001830006840F4087003491831086007B05B
:1035600000BD0000001002400004004870B5054690
:103570000E461446A4F12000C4B204EB44000449F2
:1035800001EB00123146284600F01AF870BD000029
:1035900078510008F0B507460D46144640F23F103A
:1035A000401B86B208E0227831463846FFF7DEFF3E
:1035B000A6F1100086B2641C20780028F3D1F0BD7B
:1035C0002DE9F04306468946174600240025A0460B
:1035D000B0464946404600F0ADF800BF1EE000F09E
:1035E00025F900250FE037F814000121A940084013
:1035F00020B90C48008800F0DDF803E00A48008894
:1036000000F0D8F86D1C102DEDD308F1010000F08A
:10361000FF084946404600F08DF8641C182CDED3A4
:10362000BDE8F083060000200400002010B5FFF77D
:103630003DFF002000F020F80E4908800846008871
:1036400048F23021884202D101F05EF901E001F038
:10365000EBF9002000F010F8064908804FF6FF70E3
:1036600000F0A0F8002000F05DF80020FFF70AFF4E
:1036700010BD00000800002070B50446274800680F
:1036800040F40070254908600846006840F48070E6
:10369000086022481038006840F020001F491039A7
:1036A00008601F4804601D48006840F020001B4966
:1036B000086000BF00BF00BF18481038006840F025
:1036C00020001649103908600846006840F48070F0
:1036D0000860FFF7A7FE4FF09040806A40F48070CA
:1036E0004FF09041886200BF00BF00BF0C48001F30
:1036F000006885B24FF09040806940F480704FF0D0
:1037000090418861FFF7A6FE04481038006840F435
:103710000070024910390860284670BD280400482E
:103720001408004801B5BDF800000149088008BD33
:103730000600002030B504460D462146202000F04A
:10374000B1F82946212000F0ADF830BDF0B50446AF
:103750000D4616461F46B44206DBA01B401C81B234
:10376000502000F09FF803E00021502000F09AF86C
:103770002146512000F096F8BD4206DBE81B401CB4
:1037800081B2522000F08EF803E00021522000F0B8
:1037900089F82946532000F085F829462046FFF78E
:1037A000C9FFF0BD01B5BDF800000149088008BDA2
:1037B000040000201B49096841F40071194A116096
:1037C00018491039096841F48071164A103A11609D
:1037D0001146096841F02001116013490860114940
:1037E000096841F020010F4A116000BF00BF00BF0F
:1037F0000C491039096841F020010A4A103A116059
:103800001146096841F48071116000BF00BF00BF1C
:1038100004491039096841F40071024A103A1160F4
:103820007047000028040048140800481B4800683E
:1038300040F40070194908600846006840F4807040
:10384000086016481038006840F02000134910390D
:1038500008602220124908601048006840F02000EB
:103860000E49086000BF00BF00BF0C481038006858
:1038700040F020000949103908600846006840F40B
:103880008070086000BF00BF00BF044810380068A7
:1038900040F400700149103908607047280400485E
:1038A00014080048214A126842F400721F4B1A6043
:1038B0001A46126842F480721A601C4A103A126862
:1038C00042F02002194B103B1A60194A1060174A47
:1038D000126842F02002154B1A6000BF00BF00BF03
:1038E000124A103A126842F02002104B103B1A6044
:1038F0001A46126842F480721A600D4A11600B4A2F
:10390000126842F02002094B1A6000BF00BF00BFDE
:10391000064A103A126842F02002044B103B1A602B
:103920001A46126842F480721A60704728040048F0
:103930001408004800B587B0142102A8FCF771FCF8
:1039400000BF3C48C06C40F004003A49C8640846D7
:10395000C06C00F00400019000BF00BF00BF08462B
:10396000C06C40F02000C8640846C06C00F0200025
:10397000019000BF00BF00BF0846C06C40F00100CE
:10398000C8640846C06C00F00100019000BF00BF91
:1039900000BF0846C06C40F00200C8640846C06C16
:1039A00000F00200019000BF00BF00BF0846C06CDD
:1039B00040F00800C8640846C06C00F008000190A0
:1039C00000BF00BF00224FF47F411B48FEF73EFDC1
:1039D000002204211948FEF739FD4FF47F40029080
:1039E0000120039000200490059002A91248FEF7E0
:1039F00041FC0120029000200390049002A94FF0A6
:103A00009040FEF737FC07200290002003900490BE
:103A100002A90B48FEF72EFC04200290012003901F
:103A200000200490059002A90448FEF723FC07B08B
:103A300000BD00000010024000080048000C0048D3
:103A4000000400480EB5002000900190029010483C
:103A500010490860A920486000210E48816040F2AA
:103A6000E731C16000218161FFF7F1FA08B1FEF78B
:103A7000E9FB00200090029069460648FFF78AFAA9
:103A800008B1FEF7DFFB0348FFF73AFB0EBD00006D
:103A900000100040D404002000BFFEE72DE9F14FE4
:103AA00085B0DFF8A8B29BF800B00BF0200BBBF19B
:103AB000000F02D04FF00F0B01E04FF0070BCDF8D5
:103AC0000CB0DFF88CB2DBF800B09BF800B00BF163
:103AD000010B0BF0FF0EDDF814B0ABEB0E00DDF8C0
:103AE0000CB000EA0B0B834502D006B0BDE8F08FA6
:103AF000DFF858B29BF800B00BF00301DFF84CB2CE
:103B00009BF800B00BF0100BBBF1000F04D0DFF8F6
:103B100044B2DBF808B003E0DFF838B2DBF804B0F9
:103B2000D846DFF834E29EF800E0DDF814B00BEB85
:103B30000E04EF2C02DDF03C81F00201C4F3C70B50
:103B4000CDF810B0DFF808B2DBF800B09BF803B096
:103B5000DFF808E29EF800E0F3444FEAEB0504F0DA
:103B60000700DFF8F8B19BF800B00BF0070A1F2D33
:103B700001DD81F00101DFF8DCB10BF10C0B5BF82A
:103B800021E0DDF810B005EB4B1B1EF80B6000EBDD
:103B9000061B18F80BB0CDF808B000EB061B0BF1B4
:103BA000080B18F80BB0DDF808E04BEA0E0BCDF867
:103BB00008B005F1010BBBF11F0F01DD81F0010120
:103BC000DFF890B10BF10C0B5BF821E0DDF810B0E1
:103BD00005EB4B1B0BF1010B1EF80B6000EB061BFA
:103BE00018F80BB0CDF804B000EB061B0BF1080B76
:103BF00018F80BB0DDF804E04BEA0E0BCDF804B07A
:103C0000DDF808B00BFA0AFBDDF804E04EFA0AFE14
:103C10004BEA0E0B0BF0FF0BCDF800B0DFF830B124
:103C2000DBF800B09BF802B00BF0800BBBF1000F8B
:103C300003D0DDF80CB0ABEB0000DFF810B19BF85F
:103C400002B00BF0200BBBF1000F2BD0DFF800B15E
:103C5000DBF800B09BF801B00BF0010BBBF1000FDB
:103C600004D0DFF8F0B0DBF808B003E0DFF8E4B030
:103C7000DBF804B0D946DFF8D8B0DBF800B09BF829
:103C800001B00BF0FE0B4FEA0B1202EB000B19F820
:103C90000B7002EB000B0BF1080B19F80BB04BEAA1
:103CA000070726E0DFF8A4B09BF800B00BF0080B84
:103CB000BBF1000F04D0DFF89CB0DBF808B003E0E4
:103CC000DFF890B0DBF804B0D946DFF884B0DBF859
:103CD00000B09BF801B04FEA0B1202EB000B19F891
:103CE0000B7002EB000B0BF1080B19F80BB04BEA51
:103CF0000707DFF85CB0DBF800B09BF802B00BF010
:103D0000400BBBF1000F11D04FF0000C00230AE074
:103D100047FA03FB0BF0010B4BEA0C0C0CFA03FB0C
:103D20000BF0FF0C5B1C082BF2DB6746DDF800B0E4
:103D300007EA0B0BBBF1000F05D04FF0010BDFF8CA
:103D400020E08EF800B000BFCFE600002400002085
:103D50002C0000200018002038000020390000202E
:103D60003000002070B505460E46E8B20021FFF78E
:103D7000E1FCFFF75BFD1448006840F40070124955
:103D8000086011481038006840F480700E491039FE
:103D90000860082414E00C481038006840F0200047
:103DA000094910390860094830F8140008490860CA
:103DB0000548006840F0200003490860601C84B298
:103DC000B4F5847FE7DB70BD280400483C1900206F
:103DD000140800482DE9F14F82B0DFF804B29BF8D7
:103DE00000B00BF00305DFF8F8B19BF800B00BF062
:103DF000100BBBF1000F04D0DFF8E8B1DBF808B01E
:103E000003E0DFF8E0B1DBF804B0D946DFF8D8E131
:103E10009EF800E0DDF808B00BEB0E06EF2E02DD99
:103E2000F03E85F00205F31006F00707DFF8BCB19D
:103E30009BF800B00BF0070BCDF804B0DDF804B030
:103E4000CBF1080CDFF8A4B19BF800B04FEAEB000F
:103E50005BE0DFF890B10BF10C0B5BF825B000EBE9
:103E6000431E1BF80E8007EB081B19F80BB0CDF8AA
:103E700000B007EB081B0BF1080B19F80BA04FEA79
:103E8000A30B4FF4707E0EEBCB0B0BEBA00EDFF809
:103E900054B10BF10C0B5BF825B01BF80E4000F091
:103EA000020B03F0020E4BEA4E0B44FA0BFB4FEAF7
:103EB0008B7B4FEA1B74072124E02246DDF800B01B
:103EC0004BFA01FB0BF0010B4BEA02024AFA01FB31
:103ED0000BF0010B42EA4B0202F0030BBBF1000FA7
:103EE0000DD0DFF800B10BF11C0B1BF802B0DFF8AE
:103EF00000E13EF81BB0DFF8FCE02EF81CB00CF13E
:103F0000010C491E0029D8DA401C2028A1DB85F0CD
:103F1000010500205BE0DFF8CCB00BF10C0B5BF887
:103F200025B000EB431E1BF80E8007EB081B19F8A9
:103F30000BB0CDF800B007EB081B0BF1080B19F81C
:103F40000BA04FEAA30B4FF4707E0EEBCB0B0BEBE9
:103F5000A00EDFF890B00BF10C0B5BF825B01BF84E
:103F60000E4000F0020B03F0020E4BEA4E0B44FA37
:103F70000BFB4FEA8B7B4FEA1B74072124E02246A0
:103F8000DDF800B04BFA01FB0BF0010B4BEA02022B
:103F90004AFA01FB0BF0010B42EA4B0202F0030B61
:103FA000BBF1000F0DD0DFF83CB00BF11C0B1BF880
:103FB00002B0DFF83CE03EF81BB0DFF838E02EF846
:103FC0001CB00CF1010C491E0029D8DA401CDFF8A6
:103FD0001CB09BF800B0B0EBEB0F9CDDBDE8FE8F92
:103FE00024000020001800203800002039000020A4
:103FF000700301083C1900202DE9F04107465E4896
:10400000807820F020005C4988700846407800F0F5
:104010001800002871D0082408E05848007F58494B
:1040200031F81000574921F81400641CB4F5847F5E
:10403000F3DB5148007800F0200008B10F2000E0C9
:10404000072080464C48407800F0100000283AD005
:1040500000263F2434E04C48006800EB8400807860
:1040600000F0200000B92AE04748006810F824005A
:10407000401CC0B23D1A05EA0800A84200D01EE06C
:10408000761C082E06DD3C48807840F020003A4936
:10409000887017E03848007800F0200038B13A49BD
:1040A000096801EB8400294600F002F906E0364970
:1040B000096801EB8400294600F032F900BF641E54
:1040C000002CC8DA00BF2C48407800F0080010B17E
:1040D0003846FFF77FFE2848407800F0100000289F
:1040E00044D000263F2434E02748006800EB8400D9
:1040F000807800F0200008B12AE02DE02248006816
:1041000010F82400401C3D1A05EA0800A84200D01F
:104110001EE0761C082E06DD1748807840F020004F
:104120001549887017E01448007800F0200038B175
:104130001549096801EB8400294600F0B9F806E04A
:104140001149096801EB8400294600F0E9F800BF35
:10415000641E002CC8DA09E0082404E000200949A4
:1041600021F81400641CB4F5847FF7DB0549384658
:10417000FFF7F8FDBDE8F0812400002000180020C2
:10418000700301083C1900202C0000202DE9F047A5
:1041900004460D4616464FF00008B8F1000F0BD04C
:1041A00094F80380B8F1080F06DA94F80380C8F198
:1041B000080212B9BDE8F087002294F8028008F0E6
:1041C0008008B8F1000F03D0C3F1070808F0FF031F
:1041D00006EB030815F808C006EB030808F1080809
:1041E00015F8087094F8028008F04008B8F1000F44
:1041F00029D0072024E04CFA00F808F0010147FA22
:1042000000F808F0010841EA480101B917E094F804
:10421000028008F0030841EA8801DFF8888018F876
:104220000180DFF8849039F8189094F80380804476
:1042300008F10808DFF874A02AF8189000BF401EA3
:104240009042D8DA2CE0072028E0C0F107084CFAA9
:1042500008F808F00101C0F1070847FA08F808F06B
:10426000010841EA480101B917E094F8028008F01A
:10427000030841EA8801DFF82C8018F80180DFF894
:10428000289039F8189094F80380804408F10808C1
:10429000DFF818A02AF8189000BF401E9042D4DA28
:1042A00000BF87E72C180020700301083C1900208C
:1042B00030B505460C46687800F00100B0B1082C16
:1042C0000ADAE3B2687800F0FE0002011348816860
:1042D0002846FFF75BFF1FE004F007036878020140
:1042E0000E4881682846FFF751FF15E0082C08DAD0
:1042F000E3B268780201094841682846FFF746FFA3
:104300000AE004F00703687840F001000201034866
:1043100041682846FFF73AFF30BD00000018002032
:1043200070B504460D460948007800F0080010B149
:104330000748806801E0064840680646EBB26078AE
:10434000020131462046FFF721FF70BD2400002006
:104350000018002000BFFEE708B5AEE0574800781F
:1043600080B357480078642190FBF1F03030C0B240
:104370008DF80000524800780A2190FBF1F090FB84
:10438000F1F201FB12003030C0B28DF801004C4850
:10439000007890FBF1F201FB12003030C0B28DF8D2
:1043A00002004B01F02219461046FFF7CFF96A468A
:1043B00040F209111820FFF7EDF80020404908707D
:1043C0003E4908703F480078401C3E4908703C4810
:1043D0000078401C3A49087000203B4908703B486F
:1043E000FDF76AFE15203A4908603A48807820F0C7
:1043F00040003849887043E03348007801281ED1D6
:104400003448807800F04000C8B933490968C97859
:10441000C1EB0112C2EBC110C11700EB11610C120C
:104420002002FDF749FE2B48807840F040002949E2
:104430008870C4F171010802FDF73EFE03E04FF4FD
:10444000E240FDF739FE2348407800F0180040B103
:104450001D48007828B91E490968A1F11500FFF729
:104460001DFB18480078032805D119490968A1F1F6
:104470001500FFF7C1FD16480068401C144908608C
:1044800013480068B0F5827FB6DD4FF4E240FDF7D7
:1044900013FE1048807840F080000E49887008466E
:1044A000007800F0800008B1FDF720FE0548007894
:1044B000032802D10020034908704FE700000020C4
:1044C00020000020210000203000002000450900CD
:1044D00034000020240000202C000020154A5060E9
:1044E00000F58052134B9A6051B9134ADA601346B3
:1044F000104A136103F580620E4B5A619A610CE019
:104500000D4A0C4BDA6002F580621A610A4B094AC7
:10451000536103F58062074B9A610022074B1A70C2
:10452000074B1A70074B1A70074B1A70074B1A602B
:10453000704700000018002000100020310000200B
:104540003000002038000020390000203400002016
:1045500000B52C488378008800F4704048B1B0F56D
:10456000805F0ED0B0F5005F15D0B0F5405F33D15D
:1045700016E02448406823490988405C2149887036
:104580002CE0204880681F490988C1F30B01405C7A
:104590001C49887022E000F093F81A4988701DE0E9
:1045A0001848008843F61071884207DB15480078E8
:1045B00000F00F0113482C30435C0FE011480088D5
:1045C000B0F57C5F07DB0F48007800F00F010D4865
:1045D0001C30435C02E001E0002300BF00BF0A483A
:1045E000007800F0040028B1064800882030054912
:1045F000088004E003480088401C024908801846EF
:1046000000BD0000001800202400002010B5044662
:104610002948008800F4704048B1B0F5805F07D0A9
:10462000B0F5005F05D0B0F5405F31D105E030E076
:104630002FE0204600F06AF82BE01F48007800F0D9
:104640001F000F281CDD1C48007800F00F011A48DD
:104650002C3044542C38007800F00300B8B91648C8
:10466000047780F82C4080F8204080F8304080F8B3
:10467000244080F8344080F8284080F8384006E034
:104680000D48007800F00F010B481C30445400E046
:1046900000BF00BF0948007800F0040028B10648B8
:1046A000008820300449088004E003480088401C4A
:1046B0000149088010BD00000018002024000020DF
:1046C00011480088C0F30B01B1F5406F05DD0E48BD
:1046D0008269A1F54060105C7047B1F5006F05DD9F
:1046E00009484269A1F50060105CF5E7B1F5806FFB
:1046F00005DD05480269A1F58060105CECE7024821
:10470000C068405CE8E70000001800200146124A3B
:104710001288C2F30B00B0F5406F05DD0E4A9369B5
:10472000A0F5406299547047B0F5006F05DD0A4A64
:104730005369A0F500629954F5E7B0F5806F05DD87
:10474000054A1369A0F580629954ECE7024AD268E1
:10475000115400BFE7E700000018002030B50546FF
:10476000082D37D2DFE805F004070A36293636323D
:104770001B48047830E01A4844782DE018488478C3
:10478000807820F080001649887000201549087054
:104790001548006814280FDD13480068B0F5837FC2
:1047A0000ADA0F48007800F0800028B90C48007839
:1047B00020F003000A4908700EE00C4801780078E8
:1047C000401C0A4A10700A48445C05E0FFF7C0FE2E
:1047D000044601E0E8B230BD00BF2046FBE7000020
:1047E0002400002031000020340000202800002098
:1047F0003C18002030B504460D46082D3CD2DFE8B9
:1048000005F004073B0A0D162A371D48047034E0F2
:104810001B48447031E01B4804702EE019480178B1
:104820000078401C174A10701748445425E0174878
:10483000007838B1EF2C01DD002000E0204614495B
:10484000087001E0134804701048007880F00100FF
:104850000E49087011E01048007804EB00200E4962
:1048600008800A48007880F001000849087004E0D8
:104870002046FFF7CBFE00E000BF00BF30BD0000C8
:1048800024000020280000203C18002031000020D7
:104890003800002039000020001800207047000078
:1048A00070B5164DED6805F00304144DED68C5F3C1
:1048B00003156B1C022C0CD0032C09D1104DB5FB39
:1048C000F3F50E4EF668C6F3062605FB06F10AE080
:1048D00000BF0C4DB5FBF3F5084EF668C6F306268F
:1048E00005FB06F100BF00BF044DED68C5F341654F
:1048F0006D1C6A00B1FBF2F070BD000000100240B8
:1049000000366E010024F40000B501210020FEF7FE
:10491000C9FF4FF47A70FDF786FC00210120FEF7F5
:10492000C1FF41F290711020FEF7BCFF4FF41C5103
:104930006020FEF7B7FF01216120FEF7B3FF0221DF
:104940004620FEF7AFFF48F210011320FEF7AAFF42
:1049500048F2FE011220FEF7A5FF4FF4A0610220ED
:10496000FEF7A0FF41F230010320FEF79BFF40F26B
:1049700003313020FEF796FF40F203313120FEF77D
:1049800091FF40F203313220FEF78CFF4FF440716B
:104990003320FEF787FF03213420FEF783FF40F228
:1049A00003313520FEF77EFF14213620FEF77AFF13
:1049B00040F203313720FEF775FF40F20331382013
:1049C000FEF770FF40F203313920FEF76BFF4FF422
:1049D00040713A20FEF766FF03213B20FEF762FF9D
:1049E00040F203313C20FEF75DFF4FF4A0513D2023
:1049F000FEF758FF4FF400719220FEF753FF40F28C
:104A000003319320FEF74EFF40F60D019020FEF794
:104A100049FF41F218010320FEF744FF40F27311F1
:104A20000720FEF73FFF00BD10B543F20801E32069
:104A3000FEF738FF1221E720FEF734FF41F2312163
:104A4000EF20FEF72FFF00210120FEF72BFF4FF490
:104A5000E0610220FEF726FF41F230010320FEF75D
:104A600021FF00210420FEF71DFF40F2072108204E
:104A7000FEF718FF00210920FEF714FF00210A208D
:104A8000FEF710FF00210C20FEF70CFF00210D2087
:104A9000FEF708FF00210F20FEF704FF0021102081
:104AA000FEF700FF07211120FEF7FCFE0021122077
:104AB000FEF7F8FE00211320FEF7F4FEC820FDF7F4
:104AC000C5FB41F290611020FEF7ECFE40F2272179
:104AD0001120FEF7E7FE3220FDF7B8FB1D21122062
:104AE000FEF7E0FE3220FDF7B1FB4FF4006113202A
:104AF000FEF7D8FE14212920FEF7D4FE0B212B202F
:104B0000FEF7D0FE3220FDF7A1FB00212020FEF7AA
:104B1000C9FE00212120FEF7C5FE07213020FEF747
:104B2000C1FE40F207713120FEF7BCFE06213220A3
:104B3000FEF7B8FE40F204713520FEF7B3FE41F6F1
:104B400004713620FEF7AEFE04213720FEF7AAFEE0
:104B500000213820FEF7A6FE40F206713920FEF74C
:104B6000A1FE40F201713C20FEF79CFE0F213D208A
:104B7000FEF798FE00215020FEF794FEEF21512011
:104B8000FEF790FE00215220FEF78CFE40F23F110E
:104B90005320FEF787FE4FF41C516020FEF782FE83
:104BA00001216120FEF77EFE00216A20FEF77AFED9
:104BB00000218020FEF776FE00218120FEF772FEA4
:104BC00000218220FEF76EFE00218320FEF76AFEA0
:104BD00000218420FEF766FE00218520FEF762FE9C
:104BE00010219020FEF75EFE00219220FEF75AFE73
:104BF00003219320FEF756FE4FF488719520FEF7AF
:104C000051FE00219720FEF74DFE00219820FEF76F
:104C100049FE41F218010320FEF744FE40F27311F1
:104C20000720FEF73FFE10BD704710B5FDF71AFCD8
:104C300010BD00B593B0382105A8FBF7F2FA142196
:104C40006846FBF7EEFA0020FDF7DCFC012005903A
:104C50000004069002200C9003210D9106210E9174
:104C600055210F91022110911191129105A8FDF784
:104C7000BDFE08B1FDF7E6FA0F2000900320019079
:104C8000002002900390049004216846FDF750FD37
:104C900008B1FDF7D7FA13B000BD00000348006863
:104CA00040F47000014908607047000088ED00E0A2
:104CB00010B50248FEF773FA10BD0000D4040020BE
:104CC00010B50268264B98420BD0B0F1804F08D047
:104CD000244B984205D0244B984202D0234B984253
:104CE00003D122F070024B681A431D4B984214D036
:104CF000B0F1804F11D01B4B98420ED01A4B984206
:104D00000BD01A4B984208D0194B984205D0194B3A
:104D1000984202D0184B984203D122F44072CB68DB
:104D20001A4322F080034C6943EA040202608B6854
:104D3000C3620B6883620A4B98420BD00B4B9842BC
:104D400008D00B4B984205D00A4B984202D00A4B30
:104D5000984201D10B6903630123436110BD000038
:104D6000002C0140000400400008004000340140D5
:104D700000400140004401400048014000BFFEE700
:104D800002480068C0F30220704700000CED00E00C
:104D900010B5002804DB0A07130E054A135406E079
:104DA0000A07140E034A00F00F031B1FD45410BD52
:104DB00000E400E018ED00E002E008C8121F08C19E
:104DC000002AFAD170477047002001E001C1121F8C
:104DD000002AFBD170470000FDF750FBFFF729FFC9
:104DE000FEF7A8FDFEF72EFE1248006840F47F4053
:104DF000104908601048006840F004000E4908603F
:104E00000846006820F004000860FEF70FFC0BA2C3
:104E100040F209110020FEF7BDFB4FF48073F02231
:104E20004FF4A0711046FEF791FC01E000F008F885
:104E3000FCE7000014080048140C004846505300DA
:104E400005480649086000F0BDF801210448FFF755
:104E500045FBFFF781FA0000606300081C0000209A
:104E600070E30008ACF58042153A00F14F81032A47
:104E70004F4901EB820148BFD1F800F000F046B97C
:104E80000F510008874F00080F510008ACF5804211
:104E9000182A484901EB8201D1F800F00F510008AF
:104EA0000F5100080F5100080F5100080F51000862
:104EB0000F5100080F5100080F5100080F51000852
:104EC0000F5100080F5100080F5100080F51000842
:104ED0000F5100080F5100080F5100080F51000832
:104EE0000F5100080F5100080F510008FD4E000837
:104EF0000F510008354F00080F510008A8F5003881
:104F000008B500F0E0010AF588624FEAD101525875
:104F100000F0FF0002EB002227494FF04000401E46
:104F200052F8203041F82030F9D1BDE808404EF069
:104F3000010E704710F0010F4EF0010E18BF7047C0
:104F40001E48006800F00700C0F1070002F00002F0
:104F500000F0010142EAC10200F0020142EA5102FE
:104F600000F0040142EA41121548006800F0010017
:104F7000C0F1010000F0010142EA811242F4801206
:104F8000CAF894247047DAF894044FEA5001CAF83A
:104F9000941400F0010040F040004EF0010E704704
:104FA0004FF0000040F0F8004EF0010E704700BFD7
:104FB000804E00089C4E00083C1800201004004859
:104FC000100000482DE9F04FDFF834A1DFF834B1CC
:104FD0004D48006800F11003CAF888344FF0010210
:104FE00013F80C1CC2EB8130CAF890044FF0000992
:104FF000CAF880944FF0000000F045F84FF0FF3001
:1050000000F05DF8FDF7E4F8BDE8F04F7047DAF81E
:10501000901401EA4030DAF888140844A0F5C04042
:10502000CAF84C043CE0DAF88814A1F50041DAF83B
:10503000902402EA40300844CAF8500430E0DAF81C
:105040008814A1F52041DAF8902402EA403008449F
:10505000CAF8540424E0DAF88814A1F54041DAF8DB
:10506000902402EA40300844CAF8580418E0DAF8FC
:105070008814A1F56041DAF8902402EA403008442F
:10508000CAF85C040CE0DAF88814A1F50041DAF8FB
:10509000902402EA80300844CAF85004CAF8540444
:1050A000DAF88014A9EB010909F460410AF5886275
:1050B0004FEAD1215058CAF8800481447047DAF889
:1050C0008814A1F54041DAF8902402EA80300844BF
:1050D000CAF85804CAF85C04E2E7DAF88814A1F5C3
:1050E0000041DAF8902402EAC0300844CAF85004BB
:1050F000CAF85404CAF85804CAF85C04D0E700BFE0
:105100003C000020000800201C000020FEE74EF0BC
:10511000010E70472CF4FC3C1BF80C004EF0010E05
:1051200070472CF4FC3C0BF80C004EF0010E70475D
:10513000DAF84C1411F80C004EF0010E7047DAF852
:10514000501411F80C004EF0010E7047DAF85414A8
:1051500011F80C004EF0010E7047DAF8581411F8EF
:105160000C004EF0010E7047DAF85C1411F80C00D8
:105170004EF0010E704700BF00000000000000006C
:10518000000000000000000000000000000000001F
:10519000000000000000000000000000000000000F
:1051A000000000000000000000008001800180017C
:1051B00080018001800180018001800180018001E7
:1051C00080018001000000008001800100000000DB
:1051D000000000000000000000000000CC00CC0037
:1051E000CC00CC00CC00CC0000000000000000008F
:1051F00000000000000000000000000000000000AF
:10520000000000000000000000000000000000009E
:1052100000000000600C600C600C30063006FE1FC1
:10522000FE1F300638071803FE1FFE1F1803180361
:105230008C018C018C01000000008000E003F80F5D
:105240009C0E8C1C8C188C009800F801E007800ED6
:10525000801C8C188C189C18B80CF00FE003800090
:1052600080000000000000000000000000000E1898
:105270001B0C110C11061106110311039B018E0169
:10528000C038C06C60446044304430441844186CEA
:105290000C380000000000000000E001F0033807B7
:1052A000180618063003F001F000F8009C310E33A8
:1052B000061E061C061C063FFC73F02100000000C1
:1052C0000000000000000000000000000C000C00C6
:1052D0000C000C000C000C0000000000000000009E
:1052E00000000000000000000000000000000000BE
:1052F0000000000000000000000000020003800128
:10530000C000C0006000600030003000300030009D
:10531000300030003000300060006000C000C0008D
:105320008001000300020000000020006000C000B7
:10533000800180010003000300060006000600064D
:10534000000600060006000600030003800180013D
:10535000C00060002000000000000000000000000D
:1053600000000000C000C000D806F807E0013003CC
:1053700038070000000000000000000000000000EE
:10538000000000000000000000000000000000001D
:105390000000000080018001800180018001FC3F4D
:1053A000FC3F80018001800180018001000000003D
:1053B00000000000000000000000000000000000ED
:1053C00000000000000000000000000000000000DD
:1053D00000000000000000000000800180010001CA
:1053E000000180000000000000000000000000003C
:1053F00000000000000000000000000000000000AD
:10540000E007E007000000000000000000000000CE
:10541000000000000000000000000000000000008C
:10542000000000000000000000000000000000007C
:1054300000000000000000000000C000C0000000EC
:1054400000000000000000000000000C000C00063E
:1054500000060006000300030003800380018001B2
:105460008001C000C000C0006000600000000000BB
:1054700000000000000000000000E003F007380E0C
:10548000180C0C180C180C180C180C180C180C18FC
:105490000C180C18180C380EF007E0030000000080
:1054A0000000000000000000000000018001C001B9
:1054B000F001980188018001800180018001800154
:1054C00080018001800180018001800100000000D6
:1054D00000000000000000000000E003F80F180CBE
:1054E0000C180C1800180018000C000600038001AE
:1054F000C000600030001800FC1FFC1F000000000E
:1055000000000000000000000000E001F807180E95
:105510000C0C0C0C000C0006C003C007000C00189B
:1055200000180C180C18180CF807E0030000000015
:1055300000000000000000000000000C000E000F42
:10554000000F800DC00C600C600C300C180C0C0CA3
:10555000FC3FFC3F000C000C000C000C00000000A5
:1055600000000000000000000000F80FF80F180015
:1055700018000C00EC03FC071C0E001C001800189F
:1055800000180C181C0C180EF807E00300000000AF
:1055900000000000000000000000C007F00F381CF1
:1055A000181818000C00CC03EC0F3C0E1C1C0C1837
:1055B0000C180C18181C380EF007E003000000004F
:1055C00000000000000000000000FC1FFC1F000C99
:1055D00000060006000380038001C001C000E00057
:1055E00060006000700030003000300000000000FB
:1055F00000000000000000000000E003F007380E8B
:10560000180C180C180C3806F007F007180C0C18BA
:105610000C180C180C18380CF80FE00300000000F0
:1056200000000000000000000000E003F007380E5A
:105630001C0C0C180C180C181C1C381EF81BE0193C
:105640000018000C000C1C0EF807F0010000000010
:10565000000000000000000000000000000000004A
:105660000000000080018001000000000000000038
:105670000000000000000000800180010000000028
:10568000000000000000000000000000000000001A
:105690000000000080018001000000000000000008
:1056A00000000000000000008001800100010001F6
:1056B000800000000000000000000000000000006A
:1056C00000000000000000000010001C800FE0033C
:1056D000F8001800F800E003800F001C0010000024
:1056E00000000000000000000000000000000000BA
:1056F0000000000000000000F81F00000000000093
:10570000F81F000000000000000000000000000082
:105710000000000000000000000000000000000089
:10572000000000000000000008003800F001C00781
:10573000001F0018001FC007F0013800080000001B
:1057400000000000000000000000E003F80F180C4B
:105750000C180C180018000C000600038001C00093
:10576000C000C00000000000C000C0000000000039
:10577000000000000000000000000000E007181812
:105780000420C229224A1144094409440944092237
:105790001113E20C024004201818E007000000007A
:1057A0000000000000000000000080038003C0062D
:1057B000C006C006600C600C301830183018F83F76
:1057C000F83F1C700C600C6006C006C000000000B2
:1057D00000000000000000000000FC03FC0F0C0CA7
:1057E0000C180C180C180C0CFC07FC0F0C180C30C7
:1057F0000C300C300C300C18FC1FFC0700000000B3
:1058000000000000000000000000C007F01F383852
:105810001C300C700660060006000600060006003C
:10582000060006600C701C30F01FE007000000004E
:1058300000000000000000000000FE03FE0F060E46
:1058400006180618063006300630063006300630D8
:10585000063006180618060EFE0FFE0300000000B4
:1058600000000000000000000000FC3FFC3F0C00B6
:105870000C000C000C000C00FC1FFC1F0C000C00AA
:105880000C000C000C000C00FC3FFC3F0000000072
:1058900000000000000000000000F83FF83F180082
:1058A0001800180018001800F81FF81F180018003A
:1058B0001800180018001800180018000000000058
:1058C00000000000000000000000E00FF83F3C78FE
:1058D0000E6006E007C00300030003FE03FE03C0E2
:1058E00007C006C00EC03CF0F83FE00F000000000B
:1058F000000000000000000000000C300C300C30F4
:105900000C300C300C300C30FC3FFC3F0C300C30B9
:105910000C300C300C300C300C300C30000000001F
:1059200000000000000000000000800180018001F4
:10593000800180018001800180018001800180015F
:105940008001800180018001800180010000000051
:105950000000000000000000000000060006000635
:105960000006000600060006000600060006000607
:105970000006180618063807F003E00100000000D2
:105980000000000000000000000006300618060CB1
:10599000060606038601C60066007600DE008E015C
:1059A00006030606060C0618063006600000000016
:1059B000000000000000000000001800180018009F
:1059C0001800180018001800180018001800180017
:1059D0001800180018001800F81FF81F0000000039
:1059E000000000000000000000000EE01EF01EF0AD
:1059F0001EF036D836D836D836D866CC66CC66CCCB
:105A0000C6C6C6C6C6C6C6C686C386C300000000D4
:105A1000000000000000000000000C301C303C3092
:105A20003C306C306C30CC30CC308C310C330C339F
:105A30000C360C360C3C0C3C0C380C3000000000D2
:105A400000000000000000000000E007F81F1C3804
:105A50000E70066003C003C003C003C003C003C0D0
:105A600003C006600E701C38F81FE007000000003D
:105A700000000000000000000000FC0FFC1F0C38BC
:105A80000C300C300C300C300C18FC1FFC070C00D8
:105A90000C000C000C000C000C000C0000000000BE
:105AA00000000000000000000000E007F81F1C38A4
:105AB0000E70066003E003C003C003C003C003C050
:105AC00007E006630E3F1C3CF83FE0F700C0000013
:105AD00000000000000000000000FE0FFE1F06385E
