:020000040800F2
:10000000C8050020F10100086B350008EB26000848
:1000100069350008C90A0008CD3D0008000000004D
:10002000000000000000000000000000413C00084B
:10003000CB0A00080000000003360008433C00081B
:100040000B0200080B0200080B0200080B0200085C
:100050000B0200080B0200080B0200080B0200084C
:100060000B0200080B0200080B0200080B0200083C
:100070000B0200080B0200080B0200080B0200082C
:100080000B020008000000000B0200080B02000831
:100090000B0200080B0200080B0200080B0200080C
:1000A0000B0200080B0200080B0200080B020008FC
:1000B0000B0200080B0200080B0200080B020008EC
:1000C0000B0200080B0200080B0200080B020008DC
:1000D0000B0200080B0200080B0200080B020008CC
:1000E0000B0200080B0200080B0200080B020008BC
:1000F0000B0200080B0200080B02000800000000C1
:10010000000000000B020008000000000B020008C5
:100110000B02000800000000113D00080B0200085F
:100120000B0200080B0200080B0200080B0200087B
:100130000B02000800000000000000000B02000895
:100140000B0200080B020008000000000000000085
:10015000000000000000000000000000000000009F
:100160000000000000000000000000000B0200087A
:100170000B0200080000000000000000000000006A
:10018000000000000B02000800000000000000005A
:10019000000000000000000000000000000000005F
:1001A00000000000000000000B0200080B02000825
:1001B0000B0200080B0200080B0200080000000000
:1001C000000000000B02000800000000000000001A
:1001D0000B0200080B020008DFF810D000F0FCFA58
:1001E00000480047D9460008AFF30080C80500204A
:1001F0000648804706480047FEE7FEE7FEE7FEE7C1
:10020000FEE7FEE7FEE7FEE7FEE7FEE7AD3C00089F
:10021000D9010008D2B201E000F8012B491EFBD23F
:1002200070470022F6E710B513460A460446194601
:10023000FFF7F0FF204610BD2DE9FE4F81EA0304D1
:1002400004F0004421F0004100944FF0000B23F033
:10025000004350EA01045ED052EA03045BD0C3F3CA
:100260000A54C1F30A552C44A4F2F3340194A0FBC0
:100270000254C1F3130141F48011C3F3130343F497
:10028000801301FB024400FB034E840A970A44EAF0
:10029000815447EA8357A4FB076802958D0A05FB42
:1002A00007854FEA932C04FB0C542705029D4FEA67
:1002B000065847EA1637B5EB08056EEB070C870EB4
:1002C000920E47EA811742EA8312A7FB0201B6EBBE
:1002D0000B0164EB00042B0D43EA0C335E1844EB76
:1002E0001C50DA465146E7FB0201C5F313044FEAFE
:1002F0000B3343EA14534FEA0432019C43EA0603EA
:10030000A4F10C040294009CCDE900B400F0CFF8F5
:1003100003B0BDE8F08F00200146F9E70EB540F2CA
:10032000334102910021CDE900110A460B4600F04D
:10033000BEF803B000BD00F0004230F000400AD02B
:10034000C10D01F56071C0F3160042EA0151C20807
:1003500040071143704700200146704701F00043F9
:1003600030B421F0004150EA010206D00A0DA2F596
:100370006072C1F31301002A02DC30BC0020704718
:10038000440F44EAC104C100E01830BC00EBC25085
:1003900000F047B830B50B4601460020202201246A
:1003A00009E021FA02F59D4205D303FA02F5491B43
:1003B00004FA02F52844151EA2F10102F1DC30BD59
:1003C0002DE9F05F0546002092469B46884606468A
:1003D000814640241BE0284641464746224600F01D
:1003E0001CFA53465A46C01A914110D3114618467A
:1003F000224600F003FA2D1A67EB01084F46224609
:100400000120002100F0FAF917EB00094E41201EEF
:10041000A4F10104DFDC484631462A464346BDE8E4
:10042000F09F0029A8BF7047401C490008BF20F07A
:100430000100704710B4B0FA80FC00FA0CF050EAEA
:10044000010404BF10BC704749B1CCF1200421FA6B
:1004500004F411FA0CF118BF012121430843A3EB66
:100460000C01CB1D4FEA00614FEA102042BF002073
:1004700010BC704700EBC35010440029A4BF10BC4F
:100480007047401C490008BF20F0010010BC7047B5
:1004900010B5141E73F1000408DA401C41F100018C
:1004A00092185B411A4301D120F0010010BD2DE9E3
:1004B000F04D92469B4611B1B1FA81F202E0B0FADA
:1004C00080F22032904600F099F904460F4640EA47
:1004D0000A0041EA0B0153465A46084313D011461D
:1004E00053EA010019D0C8F14002504600F095F9D6
:1004F00005460E4650465946424600F07FF90843ED
:1005000005D0012004E020463946BDE8F08D0020EA
:10051000054346EAE0762C4337430A986305E40A2C
:10052000A0EB08000022FD0A44EA47540A3002D535
:1005300000200146E9E7010510196941DDE9084598
:1005400000196941BDE8F04DA2E72DE9FE4F804654
:1005500081EA0300C00F0C46009021F0004123F017
:100560000045B8EB0200A94105D24046214690461D
:100570001C460B46024623F00040104347D0270D8F
:10058000C7F30A00C3F30A510290401A01904028B1
:100590006BDAC3F3130040F4801B0098924620B13D
:1005A0000023D2EB030A63EB0B0B01985946C0F111
:1005B0004002504600F022F906460D465046594684
:1005C000019A00F03AF910EB08006141002487EA33
:1005D000115284EAE7731A4340D0009A62B3019A39
:1005E000012A4FEA075215DC001B61EB02014FF0B4
:1005F000004202EA0752CDE90042001C41F5801199
:1006000032462B46FFF753FF03B0BDE8F08F40465C
:100610002146F9E7001B61EB0201001C41F5801344
:1006200000185B412018A2F5001747EB030140EAD0
:10063000D570B6196D4111E06D084FEA360645EAEE
:10064000C0754FEA0752001B61EB0201001C41F527
:10065000801149084FEA30000019514132462B46BB
:1006600003B0BDE8F04FFFF713BF00980122400030
:100670000023D0EB020263EBE073009821464FEABF
:10068000E074B8EB000061EB0401E9E783F000439C
:100690005BE781F0004158E72DE9F04D81EA030462
:1006A00004F0004B21F0004514464FF0000A23F0FF
:1006B000004150EA050220D054EA01021DD0C5F3E2
:1006C0000A570246C5F31303C1F31300C1F30A56D8
:1006D00040F4801543F48013A7EB0608101BD646A0
:1006E00008F2FD3873EB050002D308F1010801E0C0
:1006F00092185B41B8F1000F03DA00200146BDE813
:10070000F08D00204FF48011064684460EE0171B42
:1007100073EB050705D3121B63EB050306434CEA95
:10072000010C49084FEA300092185B4150EA01077A
:10073000EDD152EA030012D082EA040083EA0501F7
:10074000084305D0101BAB4106D20122002306E06E
:1007500000224FF0004302E06FF0010253101AEB49
:1007600006004CEB085110EB0A0041EB0B01BDE811
:10077000F04DFFF78DBEC1F30A52C1F3130140F2F1
:10078000FF3341F480119A4202DA0020014670479B
:1007900040F233439A42A2F2334202DC524200F06A
:1007A0003CB800F02BB8000030B5041E71F1000415
:1007B00004DB4FF00044404264EB0101141E73F16E
:1007C000000405DB1C464FF00043524263EB040378
:1007D000994208BF904230BD064C074D06E0E068E4
:1007E00040F0010394E8070098471034AC42F6D378
:1007F000FFF7F6FCEC5800080C590008202A04DB2F
:10080000203A00FA02F1002070479140C2F1200323
:1008100020FA03F3194390407047202A04DB203A62
:1008200021FA02F00021704721FA02F3D040C2F110
:1008300020029140084319467047202A06DBCB1757
:10084000203A41FA02F043EAE07306E041FA02F38B
:10085000D040C2F120029140084319467047000081
:1008600070B50446006881688268C1F3400112F0E7
:10087000010F28D039BB816801F00D01012914D185
:100880008168124A1140891C816021680320086038
:1008900000F096FF054612E000F092FF401B022890
:1008A0000DD920688068C00709D0E06D40F01000C5
:1008B000E065206E40F001002066012070BD2068D8
:1008C0008068C007E8D1002070BD0000C0FFFF7F36
:1008D00070B504460068816811F0010F2DD1816860
:1008E000174A11421AD18168D5432940491C8160B9
:1008F00000F066FF06461BE0816811F0010F03D18E
:1009000081682940491C816000F05AFF801B022841
:100910000ED920680068C043C00709D0E06D40F0E0
:100920001000E065206E40F001002066012070BDDF
:1009300020680168C943C907DED1002070BD0000EE
:100940003F0000802DE9F041012608271C4D1D4C79
:100950000378427801290CD0521CD1B24170082989
:1009600000D34770417899421ED108291AD34670A6
:100970001AE05B1CD9B20170082900D30770017816
:10098000914205D1082901D3067001E0491C01708C
:100990000C482A780CA1783003F01AFAE06840F08D
:1009A00020000AE0491C417006486A7809A18C3091
:1009B00003F00EFAE06840F04000E060BDE8F0812E
:1009C000AC0100201800002055707065723A4C444C
:1009D000256400004C6F7765723A4C442564000032
:1009E00010B59FED251ADFED250A254A254B264C2B
:1009F00090ED010A012925D0D0ED021A71EEA00A6E
:100A000010EE901AC0ED020A914201DB80ED021A4D
:100A1000D0ED020AF4EEC00AF1EE10FA01DB80ED2F
:100A2000020A9868FFF787FC41EC100B164853EC5C
:100A3000102B16A1643003F0CBF9E06840F01000F1
:100A4000E06010BD30EE200A10EE101A80ED010AB1
:100A5000914201DB80ED011A5868FFF76CFC41EC14
:100A6000100B094853EC102B0CA1503003F0B0F9D7
:100A7000E06840F00800E3E7333353409A99993E29
:100A800033335340AC010020180000204D696E2024
:100A9000566F6C743A252E31665600004D617820F1
:100AA000566F6C743A252E316656000001EB8101B9
:100AB000002200EB81002021835C03B98154521C89
:100AC000D2B2142AF8D37047FEE77047002240F6EE
:100AD000B83306E00021491C89B29942FBD3521C6D
:100AE00092B28242F6D3704770B515460C46064660
:100AF00001F090FEA02001F04EFE01F0C1FE304654
:100B000001F049FE01F0BCFE01F084FEA12001F0DD
:100B100042FE01F0B5FE09E001F0FEFD04F8010B14
:100B200015B101F020FE01E001F05CFE6D1EEDB29A
:100B3000F2D2BDE8704001F088BE000070B51646E4
:100B40000D46044601F066FEA02001F024FE01F0EF
:100B500097FE204601F01FFE01F092FE0AE000BF62
:100B600015F8010B01F017FE01F08AFE641CE4B2D7
:100B7000600702D0761EF6B2F2D201F066FEBDE842
:100B800070400A2000F0D4BC72B6FEE7184810B5D9
:100B9000418800292AD164214180164800F04EFC8A
:100BA0004FF49671134800F0CBFB124800F088FA1E
:100BB00080051BD50F4800F085FAFFF7AFFB9FEDCE
:100BC0000E1B53EC112BFFF737FB9FED0D1B53EC66
:100BD000112BFFF731FBFFF7C1FB0B490B4AC86034
:100BE000904203DD9FED0A0A81ED030A10BD00006B
:100BF00028000020F40000206666666666660A40EB
:100C0000000000000000303FAC0100205C8F52402B
:100C100033335340F8B500260446009690F8580048
:100C20000D4601280BD0012084F858002046FFF71C
:100C300017FE0100E06D04D040F010002AE0022011
:100C4000F8BD20F4885040F00200E065206882681A
:100C5000134B1A4005F080431A4342F00042826071
:100C6000104A20680EE0009B5B1C0093934209D35E
:100C7000E06D20F0020040F01000E06584F858605C
:100C80000120F8BD8368DB0FEDD1E06D20F002009C
:100C900040F00100E06584F858600846F8BD0000A7
:100CA000C0FFFF3F02DE04002DE9F84F0027044695
:100CB000009790F85800DFF8D8930D46B846012801
:100CC00011D0012684F85860206802F01DFB60B145
:100CD000E06D40F02000E0655FF0010784F8588087
:100CE0003846BDE8F88F0220FBE7D5E900210C2348
:100CF000206803EA91131844036B01F01F014FF0C1
:100D00001F0C0CFA01FCC2F3846223EA0C038A4034
:100D100013430363206802F0F7FA8246206802F06A
:100D2000EFFA5AEA00003CD1AA6829682068B2F1BB
:100D3000004F37D002F0F4FA2068416921F00041F9
:100D4000416120686969C268C2F3C10252009140E2
:100D50002A69042A31D000EB82002B68026EDFF88A
:100D600034C303F0F84302EA0C020B431A4342F087
:100D70000041016620682A69A96900EB8200026EC1
:100D800022F080720A430266297F226828690129BD
:100D900010D0002102EB8000026E22F000720A43A4
:100DA00002667DE0002202F0BBFA2068416941F052
:100DB0000041C5E74FF00071ECE7002102F09AFA1C
:100DC000400320684FF0000172D002F093FA90FACD
:100DD000A0F0B0FA80F1286842036ED090FAA0F03B
:100DE000B0FA80F0814204D100221146206802F05E
:100DF000A6FA0121206802F07DFA400320684FF036
:100E000001015DD002F076FA90FAA0F0B0FA80F11C
:100E10002868420359D090FAA0F0B0FA80F08142DD
:100E200004D100220121206802F089FA0221206801
:100E300002F060FA400320684FF0020148D002F04F
:100E400059FA90FAA0F0B0FA80F12868420344D031
:100E500090FAA0F0B0FA80F0814204D10022022181
:100E6000206802F06CFA0321206802F043FA400384
:100E700020684FF0030133D002F03CFA90FAA0F062
:100E8000B0FA80F1286842032FD090FAA0F0B0FAAF
:100E900080F0814204D100220321206802F04FFA41
:100EA0002068816811F0010F22D0A8E000E004E082
:100EB00002F020FAC0F384618DE7C0F3846091E70B
:100EC00002F018FAC0F38461A2E7C0F38460A6E7D9
:100ED00002F010FAC0F38461B7E7C0F38460BBE7A7
:100EE00002F008FAC0F38461CCE7C0F38460D0E775
:100EF000EB6829684B4550F8B03FC1F3120101D1AE
:100F00000B4300E08B430360E868484577D12868CD
:100F100041031CD090FAA0F1B1FA81F1491C01F013
:100F20001F0109294FEA403132D8002912D000BFF1
:100F300090FAA0F1B1FA81F101F1010101F01F0174
:100F400006FA01F609D100BFC0F3846109E0C0F3DD
:100F50008461E3E7C0F38461EEE790FAA0F1B1FAAF
:100F600081F101F1010101F01F0146EA816102D125
:100F7000C0F3846003E090FAA0F0B0FA80F000F1D2
:100F8000010000F01F0000EB400041EA005132E098
:100F900000290ED090FAA0F1B1FA81F101F101011E
:100FA00001F01F0106FA01F606D100BFC0F384610B
:100FB00006E0C0F38461F1E790FAA0F1B1FA81F1A3
:100FC00001F1010101F01F0146EA816102D1C0F384
:100FD000846003E090FAA0F0B0FA80F000F1010024
:100FE00000F01F002C4A00EB400002EB005041EAE9
:100FF000000141F00071AA68206802F091F92748C9
:101000002A6802423FF46AAE25488168254B01F008
:10101000E0719A4202D0244B9A421CD10B021AD49E
:101020002268B2F1A04F7FF459AE826841F400010A
:1010300022F0E0720A4382601C481D490068B0FB40
:10104000F1F0401C00EB4000800000E0401E0090EA
:101050000028FBD142E6174D174BAA4207D1CD011C
:1010600005D422689A42F5D041F0807109E0134D11
:10107000AA42EFD14A02EDD422689A42EAD041F462
:101080008001826822F0E0720A43826026E6000056
:1010900000007F4000F0FF03000020FE00000880F9
:1010A00000030050000021C31000C0901400002075
:1010B000400D0300000052C700010050000084CB27
:1010C000C06D70470068006C70470000F8B54FF0C5
:1010D000000504002E46009502D0E06D10B107E037
:1010E0000120F8BD204600F0EFF8266684F858602D
:1010F00020688168C1F3407119B181686A4A114062
:10110000816020688168C1F3007189B98168674A8C
:10111000114041F080518160654866490068B0FB2C
:10112000F1F04000801C00E0401E00900028FBD140
:1011300020688168C1F3007141B9E16D41F010018F
:10114000E165216E41F001012166012502F0DCF824
:10115000E16DC90600D430B1E06D40F01000E065EB
:1011600001252846F8BDE06D20F4807040F00200B3
:10117000E0652068806810F0010F11D14FF0A040A9
:1011800080684D4900F00100896801F001010843C1
:1011900006D14A486168826822F47C120A43826060
:1011A000E168E06B627F0843A16841EA423108438D
:1011B00094F8241040EA0140012904D1218D404ACD
:1011C00002EB41410843E16A29B101F47871226BD5
:1011D000014342EA01002168CA683A4B1A400243BF
:1011E000CA6020680169626B21F0406111430161AE
:1011F000206802F089F80646206802F081F8304342
:101200002ED1207F94F83810800340EA41022068F4
:10121000C16844F2020399431143C1602069002868
:10122000206801690AD041F480310161206850F8DA
:10123000C01F22696FF30D01114307E021F48031D3
:101240000161206850F8C01F6FF30D01016094F830
:10125000400001280CD02068016921F001010161E2
:10126000606901282068016B21F00F0111D013E0A3
:10127000D4E911010843D4E913121143084321684A
:101280000A6940F2FC739A43104340F00100086180
:10129000E6E7226A521E11430163E06D20F002006E
:1012A00040F00100E0655CE7C0FFFF5FC0FFFF7F2B
:1012B00014000020400D0300000100500003005006
:1012C0000000FEFF0740F0FF10B598B0044614215F
:1012D00011A8FEF7A6FF44216846FEF7A2FF1549B4
:1012E0002068884223D1C401400500940F906846CD
:1012F00000F064FB08B1FFF747FC0F48C16C41F4F4
:101300000051C164C16C01F400511691C16C41F0EF
:101310000201C164C06C11A900F002001690032004
:10132000CDE9114000201390044800F013F918B0E3
:1013300010BD0000000100500010024000040048F1
:101340002DE9F04104463B480F46816801F01F0536
:10135000A16908290FD085B1052D0ED0092D0CD01B
:10136000806800F4604060B1E06D40F02000E0650E
:101370000120BDE8F081082604E02068C068C007AD
:10138000F1E7042600F01CFA804615E0781C13D023
:1013900000F016FAA0EB0800B84200D867B9206840
:1013A0000068304208D1E06D40F00400E0650020A4
:1013B00084F858000320DCE7206800683042E5D05C
:1013C000E06D40F40070E065206801F0A1FF80B19D
:1013D000607F70B92068006800070AD5E06D20F4CE
:1013E0008070E065E06DC00403D4E06D40F0010062
:1013F000E065114A20684FF0A041904201D10B46B0
:1014000000E00346834210D07DB1052D0DD0092D9B
:101410000BD0904200D00146C968082E07D049047D
:1014200001D40C2101600020A3E7C168F5E7082181
:10143000F8E7000000030050000100502DE9F041E2
:1014400004463848806800F01F05206801F05CFF02
:1014500018B102210846BDE8F08194F8580001282F
:101460000CD0012084F858002046FFF731FA010023
:101470004FF0000304D084F85830EBE70220EAE78D
:10148000E06D40F60162904340F48070E065264ACA
:1014900020684FF0A046904201D1374600E0074651
:1014A000874200D01DB9E76D27F48017E765E76D27
:1014B000FF0404D5276E27F00607276600E02366A1
:1014C0001C27076084F858302068904201D13346C9
:1014D00000E00346834215D0A5B1052D12D0092D99
:1014E00010D0E36D43F48013E365904200D13046A1
:1014F000C0688001AED5E06D20F4005040F480500B
:10150000E065A7E7C268920105D5E26D22F40052BA
:1015100042F48052E2658268044B1A40121D8260D8
:1015200098E700000003005000010050C0FFFF7F5B
:1015300070B5044600F044F90546601C02D004482A
:101540004068044400F03CF9401BA042FAD370BD4F
:10155000080000202DE9F04FDFF82092002301263B
:101560000324A9F1040B85B00F2709F1040AABF19C
:10157000040EFAE006FA03F52A407CD091F804C084
:101580000CF0030CBCF1010F02D0BCF1020F26D10C
:10159000D0F808C0CDF800C04FEA430C04FA0CF8AC
:1015A000CDF810C0DDF800C02CEA080CCDF800C062
:1015B000D1F80C80DDF810C008FA0CF8DDF800C096
:1015C00048EA0C08C0F80880D0F804C02CEA050CE2
:1015D0000D79C5F300159D4045EA0C0545600D7970
:1015E000ED43AD070ED0C5684FEA430804FA08FC86
:1015F00025EA0C05D1F808C00CFA08FC4CEA050CE9
:10160000C0F80CC00D7905F00305022D16D1DD08D8
:1016100000EB850CCDF808C0DCF820805D074FEAB0
:10162000D56C07FA0CF528EA05080D6905FA0CF5E2
:10163000DDF808C045EA0805CCF8205005684FEAF7
:10164000430CCDF808C004FA0CFC25EA0C0591F80F
:1016500004C00CF00308DDF808C008FA0CF848EAEA
:101660000508C0F800804D6815F4403F7CD0444D1B
:10167000D5F860C000E077E04CF0010CC5F860C020
:101680002D6E23F0030C05F0010500953D4D6544DA
:101690000295AD684FEA837C4FEA1C7807FA08FC94
:1016A00025EA0C05B0F1904F06D0DFF8DCC06045AC
:1016B00005D14FF0010C20E04FF0000C1DE0DFF8E9
:1016C000CCC0604502D14FF0020C16E0DFF8C0C07C
:1016D000604502D14FF0030C0FE0DFF8B8C0604561
:1016E00002D14FF0040C08E0DFF8ACC0604502D135
:1016F0004FF0050C01E04FF0060C0CFA08FC4CEA28
:10170000050C029DC5F808C0D9F80050CC46D1F8A8
:10171000048095435FEAC82800D51543CCF80050F3
:10172000DAF80050D446D1F8048095435FEA88285F
:1017300000D51543CCF80050DBF80050DC46D1F85A
:10174000048095435FEA883800D51543CCF80050F3
:10175000DEF80050F446D1F8048095435FEAC838BB
:1017600000D51543CCF800505B1C0A6832FA03F52B
:101770007FF400AF05B0BDE8F08F00000804014021
:10178000001002400000014000040048000800482A
:10179000000C004800100048001400480069084090
:1017A00000D001207047426921EA02030A4043EA5F
:1017B0000241816170470AB181617047816270475F
:1017C00001488068704700000800002002488168D6
:1017D00042681144816070470800002010B5002461
:1017E000032000F073F80F2000F008F808B101247E
:1017F00001E000F025F8204610BD000070B50E4E47
:1018000005460024706898B14FF47A71B1FBF0F08E
:101810000A490968B1FBF0F000F040FD40B9102D15
:1018200006D200222946501E00F030F8356000E054
:101830000124204670BD0000080000201400002094
:101840000A4882B0016E41F001010166016E01F0AB
:1018500001010091816D41F080518165806D00F042
:101860008050009002B000F0A1B8000000100240CB
:10187000002809DB00F01F0201219140400980008F
:1018800000F1E020C0F8001170470000F0B40E4BEA
:101890001B680C46C3F30223C3F10705042D00D9CE
:1018A0000425191D072901D2002300E0DB1E0126B3
:1018B00006FA05F1491E214099409E40761E1640C9
:1018C0003143F0BC02F098BA0CED00E0064900F09C
:1018D000070208684FF6FF03184040EA0220034A57
:1018E00010430860704700000CED00E00000FA05AE
:1018F0002B492C4B0A6832214A432B4940B1B0F5A1
:10190000007F086829D020F4C06040F480602CE09B
:101910000868C0F34120022804D051F8800F20F459
:10192000807022E0D1F8800020F48070C1F880003F
:10193000086820F4C06040F400700860B2FBF3F067
:10194000401C00E0401E4A69520501D50028F9D12B
:10195000486940050AD503207047C0F3412002289A
:1019600006D051F8800F40F4807008600020704766
:10197000D1F8800040F48070C1F88000086820F43D
:10198000C06040F400700860B2FBF3F0401C00E05F
:10199000401E4A695205DBD50028F9D1D8E700007E
:1019A0001400002040420F0000700040024881688F
:1019B00041F4804181607047007000402DE9F84398
:1019C0000446006800269D4D00035ED5A86D0027E3
:1019D000C00008D4A86D40F08050A865A86D01270C
:1019E00000F080500090DFF85892D9F8001041F4D0
:1019F0008071C9F80010FFF7E3FE804606E000BFE3
:101A0000FFF7DEFEA0EB080002282BD8D9F8000073
:101A1000C005F5D5D5F8900010F4407014D0216CB5
:101A2000814211D0D5F89000D5F8901020F4407084
:101A300041F48031C5F89010D5F8901021F4803130
:101A4000C5F89010C5F89000C00711D0FFF7B8FE98
:101A5000804641F2883907E0FFF7B2FEA0EB0801AB
:101A6000494501D903260BE0D5F890008007F3D54E
:101A7000D5F89000216C20F440700843C5F8900020
:101A80001FB1A86D20F08050A8652078C00707D04E
:101A9000D5F88800616820F003000843C5F8880085
:101AA0002078800707D5D5F88800A16820F00C00C1
:101AB0000843C5F888002078400707D5D5F8880086
:101AC000E16820F030000843C5F88800207800075E
:101AD00007D5D5F88800216920F0C0000843C5F873
:101AE00088002078800607D5D5F88800616920F441
:101AF00040600843C5F888002078400607D5D5F82F
:101B00008800A16920F440500843C5F88800207877
:101B1000000607D5D5F88800E16920F44040084365
:101B2000C5F888002088C00507D5D5F88800216A47
:101B300020F440300843C5F888002088800507D588
:101B4000D5F88800616A20F440200843C5F8880071
:101B5000208840050FD5D5F88800A16A20F44010F0
:101B60000843C5F88800A06AB0F5801F03D1E86873
:101B700040F48010E860208800050FD5D5F8880073
:101B8000E16A20F440000843C5F88800E06AB0F537
:101B9000800F03D1E86840F48010E8602088C0041A
:101BA0000FD5D5F88800216B20F040700843C5F8A8
:101BB0008800206BB0F1807F03D1E86840F480108A
:101BC000E86020884FF0006180040ED5D5F88800C9
:101BD000626B20F040601043C5F88800606B88425B
:101BE00003D1E86840F48010E860208840040ED5F6
:101BF000D5F88800A26B20F040601043C5F888003B
:101C0000A06B884203D1E86840F48010E860208827
:101C100000040FD5D5F88800E16B20F04050084350
:101C2000C5F88800E06BB0F1805F03D1E86840F44C
:101C30008030E8603046BDE8F883000000100240C4
:101C4000007000402DE9F0470E4605004FF00007F8
:101C500025D0DFF8AC81D8F8000000F00F00B042CA
:101C60000CD2D8F8001021F00F013143C8F8001051
:101C7000D8F8000000F00F00B04210D12968614C84
:101C8000C80741F2883A5AD06868DFF87C91032887
:101C900008D0022820682DD0400500282CDB012028
:101CA000BDE8F08720688001F9D5E06800F0030204
:101CB000E068C0F30310401C032A19D0534A00BF48
:101CC000B2FBF0F0E268C2F306225043E268C2F3CE
:101CD0004162521C5200B0FBF2F0484517D9A0688F
:101CE00010F0F00F0CD0880711D5A86840B10EE0B5
:101CF000474AE5E78003D0E700F092F8484506D967
:101D0000A06820F0F00040F08000A0608027A0686C
:101D1000696820F003000843A060FFF751FD814689
:101D200006E000BFFFF74CFDA0EB090151453AD892
:101D3000A068696800F00C00B0EB810FF2D1286850
:101D4000810714D5400703D5A06840F4E060A06087
:101D50002878000705D5A06820F4605040F4E060C2
:101D6000A060A068A96820F0F000084304E0802F7C
:101D700003D1A06820F0F000A060D8F80010404621
:101D800001F00F01B14216D9016821F00F01314372
:101D90000160FFF715FD074607E000BFFFF710FDE4
:101DA000C11B514501D903207AE7D8F8000000F0A3
:101DB0000F00B042F2D12878400705D5A068E96845
:101DC00020F4E0600843A0602878000706D5A068EA
:101DD000296920F4605040EAC100A06000F020F8BA
:101DE000A1680C4AC1F30311515C01F01F01C84006
:101DF0000949086009480068BDE8F047FFF7FEBCE4
:101E0000002002400010024000B4C4040024F4008A
:101E100000366E01DA580008140000200800002087
:101E2000184910B58868C0F381021748012A0BD001
:101E30008A68164BC2F38102022A06D08A68C2F36E
:101E40008102032A03D0002010BD184610BDCA68C5
:101E500002F00304CA68C2F30312521C032C02D01E
:101E6000B0FBF2F001E0B3FBF2F0CA68C968C2F35C
:101E700006225043C1F34161491C4900B0FBF1F017
:101E800010BD0000001002400024F40000366E0176
:101E90002DE9F84304007AD02078FA4DC00747D0E6
:101EA000A868E96800F00C0001F003010C2802D0DA
:101EB000082817D001E0032914D06068B0F5803FEE
:101EC00017D0B0F5A02F286817D020F480302860F4
:101ED000286820F4802028606068E0B1FFF770FC7B
:101EE000064614E02868800322D560680028D2D016
:101EF0001EE0286840F48030EDE740F48020286040
:101F0000F7E700BFFFF75CFC801B642870D82868E7
:101F10008003F7D50CE0FFF753FC064605E000BF51
:101F2000FFF74EFC801B6428F0D828688003F7D4A4
:101F3000207880074CD5A868E96800F00C0001F013
:101F400003010C2802D004280DD001E002290AD098
:101F5000E068002828682BD040F480702860FFF7E4
:101F60002FFC064619E02868400502D5E0680028E5
:101F700091D06868217C20F0FE4040EA01606860F2
:101F8000C1480068FFF73AFC002800D120E076E164
:101F9000FFF716FC801B0228B8D828684005F7D543
:101FA0006868217C20F0FE4040EA016068600FE034
:101FB00020F480702860FFF703FC064605E000BFB0
:101FC000FFF7FEFB801B0228A0D828684005F7D445
:101FD0002078000729D560690028D5F8940013D02F
:101FE00040F00100C5F89400FFF7EAFB064606E062
:101FF00090E000BFFFF7E4FB801B022886D8D5F8ED
:1020000094008007F6D510E020F00100C5F8940098
:10201000FFF7D6FB064604E0FFF7D2FB801B022841
:1020200078D8D5F894008007F6D42078400761D599
:10203000A86D0026C00008D4A86D40F08050A865A7
:10204000A86D012600F08050009090480168C905F5
:1020500011D40168804641F480710160FFF7B0FB44
:10206000074604E0FFF7ACFBC01B022852D8D8F8A3
:102070000000C005F6D5A068012815D00528D5F8C0
:10208000900016D020F00100C5F89000D5F890001F
:1020900020F00400C5F89000A06841F28838B8B17B
:1020A000FFF78EFB07460EE0D5F8900040F00100E8
:1020B000F0E740F00400C5F89000F5E7FFF780FB7B
:1020C000C11B414526D8D5F890008007F6D50CE015
:1020D000FFF776FB074604E0FFF772FBC11B4145A3
:1020E00018D8D5F890008007F6D41EB1A86D20F05E
:1020F0008050A8652078800629D5A0690028D5F8E9
:10210000980013D040F00100C5F89800FFF758FB85
:10211000064606E077E000BFFFF752FB801B02286F
:1021200077D8D5F898008007F6D510E020F00100A8
:10213000C5F89800FFF744FB064604E0FFF740FBB4
:10214000801B022865D8D5F898008007F6D4E0698E
:10215000F0B3A968C1F38101032961D0022828687E
:1021600020F0807028600BD0E86820F00300E86061
:10217000E86847490840E860FFF722FB04464BE067
:10218000FFF71EFB064604E0FFF71AFB801B022840
:102190003FD828688001F7D4F4E908016FF00F02F6
:1021A00002EB01110843218A5204490802EB415114
:1021B000A26841EA02210843217D4FF07E4249088E
:1021C00002EB41610843217B40EAC160E96800E01D
:1021D00062E0304A11400843E860286840F08070AF
:1021E0002860E86840F08070E860FFF7E9FA04468C
:1021F00005E000BFFFF7E4FA001B022809D82868B1
:102200008001F7D548E004E0FFF7DAFA001B022866
:1022100002D90320BDE8F88328688001F4D43BE0AC
:102220000128F7D0E868226A00F00301914226D124
:10223000616A00F0F0020901103991421FD1A26ACF
:1022400000F4FE41B1EB022F19D194F82C2000F0DC
:102250007841B1EBC26F12D1218E00F4C00249085F
:102260004905A1F50011914209D194F8341000F00C
:10227000C06049084906A1F1007181420CD00120DB
:10228000C8E7000000100240080000200070004075
:10229000FFFFEEFE0C809F010020BBE710B5401E43
:1022A000B0F1807F01D3012010BD4FF0E0246061C8
:1022B0000F21601701F0A0FD0020A0610720206120
:1022C000002010BD704770477047704770477047D7
:1022D000F0B590F83C20012A3AD0012580F83C5016
:1022E000022280F83D2003685A689C68194E1A4FF4
:1022F000B34201D0BB4204D122F4700C4A6842EAD6
:102300000C02DFF858C002EA0C02D1F800C04CEA17
:10231000020CC3F804C00268B2420DD0B2F1804F83
:102320000AD00F4B9A4207D00E4B9A4204D0BA42C1
:1023300002D00D4B9A4204D1896824F080031943DE
:10234000916080F83D50002180F83C100846F0BDB7
:102350000220F0BD002C0140003401408FFFFFFD42
:10236000000400400008004000400140704710B5E4
:10237000040003D094F83D0010B107E0012010BD27
:10238000002084F83C00204600F022F8022084F867
:102390003D00211D206801F0C1FC012084F84800A7
:1023A00084F83E0084F83F0084F8400084F841003F
:1023B00084F8420084F8430084F8440084F845001F
:1023C00084F8460084F8470084F83D00002010BDE2
:1023D00008B500680B49884212D10B48816D41F065
:1023E00010018165806D002200F010000090114600
:1023F0003620FFF74BFABDE808403620FFF738BA21
:1024000008BD0000001000400010024090F83D1090
:10241000012901D001207047022180F83D10016898
:10242000CA6842F00102CA600068104988420ED0B2
:10243000B0F1804F0BD00E49884208D00D49884238
:1024400005D00D49884202D00C49884207D18168E5
:102450000B4A1140062906D0B1F5803F03D0016830
:1024600041F001010160002070470000002C014094
:1024700000040040000800400034014000400140DA
:1024800007000100704770B50446006801694FF00D
:102490000005C943890715D4C168C943890711D408
:1024A000E91E0161012020772068806980072046AD
:1024B00002D0FFF7E7FF04E000F0E3F8204600F069
:1024C000E1F8257720680169C943490717D4C16835
:1024D000C943490713D46FF004010161022020773A
:1024E0002068806910F4407F204602D0FFF7CAFFC1
:1024F00004E000F0C6F8204600F0C4F82577206814
:102500000169C943090716D4C168C943090712D430
:102510006FF008010161042020772068C0698007FE
:10252000204602D0FFF7AEFF04E000F0AAF82046F4
:1025300000F0A8F8257720680169C943C90617D4B7
:10254000C168C943C90613D46FF0100101610820A6
:1025500020772068C06910F4407F204602D0FFF742
:1025600091FF04E000F08DF8204600F08BF825770D
:1025700020680169C943C90708D1C168C943C907AF
:1025800004D1891E0161204600F07EF820680169AF
:10259000C943090609D4C168C943090605D46FF0C7
:1025A000800101612046FFF78EFE20680169C94362
:1025B000C90509D4C168C943090605D46FF48071FF
:1025C00001612046FFF77EFE20680169C943490684
:1025D00009D4C168C943490605D46FF040010161BF
:1025E000204600F081F820680169C943890609D4B2
:1025F000C168C943890605D46FF0200101612046F6
:10260000FFF762FE20680169C943C90209D4C168A5
:10261000C943C90205D46FF4801101612046FFF758
:1026200055FE20680169C943890209D4C168C943BC
:10263000890205D46FF4001101612046FFF745FEC1
:1026400020680169C943490209D4C168C9434902E4
:1026500005D46FF4800101612046FFF738FE206841
:102660000169C94309020BD4C168C943090207D4EF
:102670006FF4000101612046BDE87040FFF776BEAF
:1026800070BD7047704700001449884224D1144837
:10269000C188491C8BB200F11001C3800A880AB1BD
:1026A000521E0A804A880AB1521E4A800022642BB8
:1026B00003D1C2804179491C41710A49CB7913B9D0
:1026C0000B7A002B08D003895B1C9BB20381C82BBB
:1026D00002D1028101204872704700006001002091
:1026E00018000020BC0100207047FEE700B585B04F
:1026F00014216846FDF795FDC0200090012001904F
:1027000002900220039069460248FEF723FF05B0BD
:1027100000BD00000004004870B50824002501F049
:1027200057FA13E06806050E002001F039FA14206C
:1027300001F0CCFF142001F0C9FF012001F030FAB4
:10274000142001F0C3FF01F037FA0543641EE4B220
:10275000E8D2002001F024FA142001F0B7FF01F0C4
:1027600059FA284670BD10B5002001F047FA142030
:1027700001F0ACFF142001F0A9FF012001F010FAD4
:10278000142001F0A3FF002001F00AFABDE8104078
:10279000142001F09BBF70B50446082516E001F037
:1027A000FFF9142001F092FF04F0800001F026FAF6
:1027B000142001F08BFF6006040E142001F086FF48
:1027C000012001F0EDF9142001F080FF6D1EEDB243
:1027D0004FF00000E3D201F0E3F9BDE870401420AF
:1027E00001F074BF10B5012001F008FA142001F0C7
:1027F0006DFF142001F06AFF012001F0D1F91420CF
:1028000001F064FF002001F0CBF9BDE81040142076
:1028100001F05CBF10B5012001F0F0F9142001F0C7
:1028200055FF012001F0BCF9142001F04FFF0020FA
:1028300001F0E4F9142001F049FF002001F0B0F9A3
:10284000BDE81040142001F041BF10B5002001F098
:10285000A7F9142001F03AFF002001F0CFF914206D
:1028600001F034FF012001F09BF9142001F02EFF4C
:10287000012001F0C3F9BDE81040142001F026BF8B
:1028800010B5052401F0A4F9142001F01FFF012068
:1028900001F086F9142001F019FF05E0641EA4B2CE
:1028A000142001F013FF6CB101F086F90028F5D176
:1028B00001F0B0F9002001F073F9142001F006FFD7
:1028C000002010BD01F0A6F9FFF7BFFF012010BDE9
:1028D0002DE9F05F34489FED350A334CD0ED030A03
:1028E000DFF8CCB0103460EE800A4FF0010A4FF0F0
:1028F0000008ABF18C09FCEEE00A10EE901AD0ED66
:10290000010A8DB260EE800AFCEEE00A10EE901A29
:10291000D0ED020A8FB220EE800ABD42BCEEC00AA2
:1029200010EE100A86B210D984F807A084F8088047
:10293000207950B91FA221A1584601F049FAD9F8CF
:102940000C1041F04001C9F80C10B54210D284F8C7
:10295000078084F808A0207950B91CA217A1584616
:1029600001F036FAD9F80C1041F04001C9F80C100A
:10297000BD4217D8B54215D384F8078084F8088083
:102980000021FF2000F0EEFB207900280AD111A2DF
:102990000AA1584601F01CFAD9F80C1041F0400188
:1029A000C9F80C10BDE8F09FAC0100200000C8423F
:1029B000A4000020557070657200000020202020C7
:1029C0005374617475733A25730000004C6F77651A
:1029D000720000004E6F726D616C000070B51A4C91
:1029E00001212046FEF7DAFE4FF0904570B102213A
:1029F0002046FEF7D3FE48B104212046FEF7CEFE66
:102A000020B101212846FEF7C9FE98B901212046D0
:102A1000FEF7C4FE80B102212046FEF7BFFE68B17A
:102A200004212046FEF7BAFE50B101212846FEF7E8
:102A3000B5FE38B1002070BD012070BD022070BD10
:102A4000032070BD042070BD000400481E4810B56E
:102A50000188002927D114210180FFF7BFFF1A49FF
:102A6000103908714B7880EA030282438A7030EA99
:102A70000303CB70487002D00020487102E048790F
:102A80000A2810D201211148012A0DD0022A0DD0A6
:102A9000032A10D0042A06D10279002A03D08279B1
:102AA000002A00D0C17010BD017010BD0279002A4B
:102AB000FBD0417010BD0279002AFBD08279002A38
:102AC000F8D0817010BD000028000020BC0100205B
:102AD00000B585B014216846FDF7A3FB4FF6FF70E3
:102AE000009000200321CDE90201019069460248CF
:102AF000FEF730FD05B000BD0008004800B585B008
:102B000014216846FDF78DFB4FF6FF700090012001
:102B10000190032003900020029069460248FEF7CE
:102B200019FD05B000BD00000008004870B5002484
:102B300006462146204600F0B1F900F0F3F94FF4C3
:102B40009635304600F0BEF9641CAC42F9D370BD36
:102B500030B587B014216846FDF763FB1E48C16C91
:102B600041F00401C164C16C01F004010591C16C24
:102B700041F00101C164C16C01F001010591C16C1A
:102B800041F00201C164C06C012500F00200059013
:102B90004FF44870CDE9000500240394694602947F
:102BA0000E48FEF7D7FC280203940090CDE90154AB
:102BB0004FF0904469462046FEF7CCFCFFF79EFF9D
:102BC000A06940F48070A06104481830016841F4A5
:102BD0000871016007B030BD0010024000040048D9
:102BE00010B513490020887112A1164801F0F0F8C1
:102BF000144815A1143001F0EBF8124812A1283046
:102C000001F0E6F80A481038C068FDF794FB41EC83
:102C1000100B0C4853EC102B11A13C3001F0D8F8EC
:102C200008483C38C16841F0FF01C16010BD000098
:102C3000BC01002020202020202020204D61696E32
:102C40000000000054000020202020202020202010
:102C500020202020202020202020202000000000F4
:102C600020202020566F6C743A252E3266560000C4
:102C700010B518A11B4801F0ABF81B4C6068FDF7BC
:102C80005AFB41EC100B174853EC102B17A11430D2
:102C900001F09EF8A068FDF74EFB41EC100B1148C7
:102CA00053EC102B15A1283001F092F80D48227832
:102CB00016A13C3001F08CF80A48627819A1503016
:102CC00001F086F807483C38C16841F0FF01C16057
:102CD00010BD000020202020202053657474696EF0
:102CE0006700000054000020AC0100204D617820F6
:102CF000566F6C743A252E31665600004D696E2071
:102D0000566F6C743A252E3166560000557070650A
:102D1000723A4C44256420202020202020202020AE
:102D2000200000004C6F7765723A4C4425642020E7
:102D3000202020202020202020000000203AD2B295
:102D4000034B02EB420203EB021200F019B8000041
:102D50000A470008F0B50E460746002540F23F142A
:102D600007E021463846FFF7E9FF103C6D1CA4B28E
:102D7000761C3278002A01D0142DF2D3F0BD000069
:102D80002DE9F04791468A460026044600F086F871
:102D9000DFF84080012700BF00F0C4F85FF00005B5
:102DA00039F8160007FA05F10842404601D140887B
:102DB00000E0008800F086F86D1C102DF0D3641C34
:102DC000E4B25146204600F069F8761C182EE3D391
:102DD000BDE8F0870000002010B5FFF7B9FE002025
:102DE00000F014F8084CA080A088A0F5024130390A
:102DF00006D000F090FC002000F008F8A08010BD84
:102E000000F000FCF7E700000000002070B51D494D
:102E10000A6842F400720A600A6842F480720A602A
:102E2000184C103C226842F020022260164A1060C2
:102E3000086840F02000086000BF00BF00BF2068A5
:102E400040F020002060206840F480702060FFF790
:102E50003FFE4FF09041886A40F48070886200BF66
:102E600000BF00BF0848001F006885B2886940F4B1
:102E700080708861FFF742FE206840F40070206097
:102E8000284670BD280400481408004801B5BDF864
:102E900000000149488008BD0000002010B50C4624
:102EA0000146202000F06EF82146BDE810402120A8
:102EB00000F068B801B5BDF800000149088008BD00
:102EC0000000002030B5154B1C68154A116841F40C
:102ED00000711160124910390D6845F480750D605C
:102EE0000D6845F020050D601860106840F0200066
:102EF000106000BF00BF00BF086840F020000860FD
:102F0000086840F48070086000BF00BF00BF086818
:102F100040F4007008601C6030BD000014080048D8
:102F200028040048154A10B513681549086840F48C
:102F300000700860086840F480700860104810381D
:102F4000046844F020040460222414600C6844F0F7
:102F500020040C6000BF00BF00BF016841F02001E9
:102F60000160016841F48071016000BF00BF00BFD3
:102F7000016841F400710160136010BD140800483D
:102F80002804004870B5194C2568194B1A6842F49A
:102F900000721A601A6842F480721A60144A103A79
:102FA000166846F0200616602060186840F0200081
:102FB000186000BF00BF00BF106840F02000106024
:102FC000106840F4807010602160186840F02000A4
:102FD000186000BF00BF00BF106840F02000106004
:102FE000106840F480701060256070BD14080048BF
:102FF000280400482DE9F84F514D002405F1140034
:1030000000F13C01DFF83C81012600F1500B00F19A
:10301000640A00F178090091E86806FA04F70742AB
:1030200068D0474821461430FDF740FDE868B843B2
:10303000E86098F80600012813D002281ED0032863
:1030400031D0042840D00020FFF720FF3C4904EB9A
:103050008400143101EB800104EB4400C006000E33
:1030600046E01F20FFF712FF48200099FFF772FE8D
:103070000020FFF70BFF594660200BE01F20FFF7F1
:1030800005FF59466020FFF765FE0020FFF7FEFEB2
:1030900048200099FFF75EFE51467820FFF75AFE60
:1030A0004946902024E01F20FFF7F0FE514678208B
:1030B000FFF750FE0020FFF7E9FE59466020FFF7BA
:1030C00049FE48200099E9E71F20FFF7DFFE494647
:1030D0009020FFF73FFE0020FFF7D8FE51467820F2
:1030E000FFF738FE59466020FFF734FE482000996C
:1030F000FFF730FE641CE4B20A2C8DD398F805006B
:10310000444610B96671FFF76BFD2079002814D191
:103110000C481038C068FDF70EF941EC100B0AA1FD
:1031200053EC102B504600F053FE0BA1484600F024
:103130004FFEE86840F06000E860BDE8F88F0000EE
:1031400018000020BC01002020202020566F6C7445
:103150003A252E32665600002020202053746174D8
:1031600075733A0010B50C4B0002012911D00122F1
:1031700001461846FEF71FFB084C01220421204699
:10318000FEF719FB20460022BDE810400421FEF79F
:1031900012BB0022ECE7000000080048000C0048C9
:1031A00070B5484C607A002872D000206072E079D7
:1031B000A4F11005E0B12878092817D2DFE800F063
:1031C000160507090B0D0F11130001200CE002205A
:1031D0000AE0042008E0082006E0102004E0202097
:1031E00002E0402000E0802000F06EF8E07910BBA3
:1031F000287809281FD2DFE800F01E05080B0E1101
:1032000014171A000021012013E00021022010E011
:10321000002104200DE0002108200AE000211020F8
:1032200007E00021202004E00021402001E00021EF
:103230008020FFF797FF207AE8B16878092817D235
:10324000DFE800F0160507090B0D0F111300012030
:103250000CE002200AE0042008E0082006E010202C
:1032600004E0202002E0402000E0802000F02CF864
:10327000207A002825D16878092822D2DFE800F0DA
:103280002105090C0F1215181B000021012014E064
:1032900017E00021022010E0002104200DE00021B1
:1032A00008200AE00021102007E00021202004E08F
:1032B0000021402001E000218020BDE87040FFF7A0
:1032C00051BF70BDBC01002010B501020748FEF7D8
:1032D0006AFA074C012204212046FEF76CFA2046C8
:1032E0000022BDE810400421FEF765BA000800483E
:1032F000000C004800EB8100006E00F0F8407047C1
:103300008068C0F3C00070478068C0F380007047D9
:10331000C06810F4406F01D0002070470120704752
:10332000042303EAD15310B518444369C1F304518F
:1033300007248C40A3438A401343436110BD00EB34
:103340008100016E21F000411143016670470000C9
:1033500030B589B020216846FCF763FF1948184949
:10336000002401604902C0E90114C460042504611D
:10337000C0E90545047744770121016280F82440C3
:10338000C462046380F83840C46380F84040FDF7AD
:103390009DFE08B1FDF7F8FB0B4800900620019058
:1033A000032002907F200594CDE903056946054876
:1033B000FDF77AFC002801D0FDF7E6FB09B030BD2F
:1033C00000010050F40000200080F03E2DE9F043A1
:1033D00087B014216846FCF724FF4C48C16C41F0CB
:1033E0000401C164C16C01F004010591C16C41F09C
:1033F0002001C164C16C01F020010591C16C41F054
:103400004001C164C16C01F040010591C16C41F003
:103410000101C164C16C01F001010591C16C41F071
:103420000201C164C16C01F002010591C16C41F05F
:103430000801C164C06C364F00F008004FF47F44AF
:103440000590012221463846FEF7B5F9DFF8C48021
:10345000002204214046FEF7AEF9DFF8BC900022BE
:10346000C0214846FEF7A7F90125CDE90045002413
:103470000294694638460394FEF76CF8A8020326C6
:10348000CDE90006694602942448FEF763F8FF2060
:10349000CDE90006694602943846FEF75BF8CDE9AF
:1034A00000544FF09047694638460295FEF752F8AF
:1034B00049F6FE70CDE90006694602943846FEF7EB
:1034C00049F807208DE8310069464846FEF742F882
:1034D00047F63870CDE90006694602944846FEF783
:1034E00039F804200090CDE9015469464046039420
:1034F000FEF730F8C0200090CDE9015469464846F7
:103500000394FEF727F807B0BDE8F08300100240EF
:1035100000080048000C004800040048001800485B
:103520003EB500240F48009401940D4902940160B7
:103530004F21C0E9011440F2E7318461C160FEF718
:1035400016FF08B1FDF720FB009469460548029478
:10355000FEF7BEFE002801D0FDF716FB3EBD0000C1
:103560000010004060010020FEE7FEE738B5044689
:1035700000200090042269460820FDF7B5FA9DF866
:10358000000020709DF8010060709DF8020000EEC0
:10359000100AF8EE400AB2EE040A80EE801A84EDBA
:1035A000011A9DF8030000EE900AF8EE600A80EE22
:1035B000801A84ED021A38BD08B500210091017807
:1035C0008DF8001041788DF8011090ED010AF2EEAF
:1035D000040A042220EE200ABCEEC00A10EE101AE3
:1035E0008DF8021090ED020A694620EE200ABCEE2A
:1035F000C00A10EE100A8DF803000820FDF79EFAAD
:1036000008BD704730B501210020FFF7BBFC4FF427
:103610007A70FDF75BFA00210120FFF7B3FC41F25D
:1036200090711020FFF7AEFC4FF41C516020FFF7A3
:10363000A9FC01216120FFF7A5FC02214620FFF72C
:10364000A1FC48F210011320FFF79CFC48F2FE0198
:103650001220FFF797FC4FF4A0610220FFF792FCC5
:1036600041F230010320FFF78DFC40F20334214684
:103670003020FFF787FC21463120FFF783FC2146ED
:103680003220FFF77FFCE51E29463320FFF77AFC46
:1036900003213420FFF776FC21463520FFF772FC2A
:1036A00014213620FFF76EFC21463720FFF76AFC15
:1036B00021463820FFF766FC21463920FFF762FCDF
:1036C00029463A20FFF75EFC03213B20FFF75AFC16
:1036D00021463C20FFF756FC4FF4A0513D20FFF758
:1036E00051FC4FF400719220FFF74CFC21469320CF
:1036F000FFF748FC40F60D019020FFF743FC41F234
:1037000018010320FFF73EFCBDE8304040F2731182
:103710000720FFF737BC10B543F20801E320FFF79D
:1037200031FC1221E720FFF72DFC41F23121EF207F
:10373000FFF728FC00210120FFF724FC4FF4E06193
:103740000220FFF71FFC41F230010320FFF71AFCB3
:1037500000210420FFF716FC40F207210820FFF7A4
:1037600011FC00210920FFF70DFC00210A20FFF7C2
:1037700009FC00210C20FFF705FC00210D20FFF7BC
:1037800001FC00210F20FFF7FDFB00211020FFF7B7
:10379000F9FB07211120FFF7F5FB00211220FFF7AD
:1037A000F1FB00211320FFF7EDFBC820FDF7C0FE61
:1037B00041F290611020FFF7E5FB40F22721112034
:1037C000FFF7E0FB3220FDF7B3FE1D211220FFF7CB
:1037D000D9FB3220FDF7ACFE4FF400611320FFF758
:1037E000D1FB14212920FFF7CDFB0B212B20FFF764
:1037F000C9FB3220FDF79CFE00212020FFF7C2FB11
:1038000000212120FFF7BEFB07213020FFF7BAFB84
:1038100040F207713120FFF7B5FB06213220FFF798
:10382000B1FB40F204713520FFF7ACFB41F60471A7
:103830003620FFF7A7FB04213720FFF7A3FB002169
:103840003820FFF79FFB40F206713920FFF79AFB03
:1038500040F201713C20FFF795FB0F213D20FFF75F
:1038600091FB00215020FFF78DFBEF215120FFF746
:1038700089FB00215220FFF785FB40F23F115320C6
:10388000FFF780FB4FF41C516020FFF77BFB012109
:103890006120FFF777FB00216A20FFF773FB00210F
:1038A0008020FFF76FFB00218120FFF76BFB0021D9
:1038B0008220FFF767FB00218320FFF763FB0021D5
:1038C0008420FFF75FFB00218520FFF75BFB1021C1
:1038D0009020FFF757FB00219220FFF753FB0321B5
:1038E0009320FFF74FFB4FF488719520FFF74AFBB9
:1038F00000219720FFF746FB00219820FFF742FBAD
:1039000041F218010320FFF73DFBBDE8104040F2F3
:1039100073110720FFF736BB2DE9F0410127082678
:103920001C4D1D4C0378427801290CD0521ED1B297
:103930004170012900D84770417899421ED1012970
:103940001AD846701AE05B1ED9B20170012900D85E
:1039500007700178914205D1012901D8067001E074
:10396000491E01700C482A780CA1783000F030FA1A
:10397000E06840F020000AE0491E417006486A787D
:1039800009A18C3000F024FAE06840F04000E060CB
:10399000BDE8F081AC010020180000205570706572
:1039A000723A4C44256400004C6F7765723A4C447F
:1039B0002564000010B5DFED260A9FED261A264A81
:1039C000264C90ED020A01291BD030EE410A80ED11
:1039D000020AB5EEC00AF1EE10FA01D8C0ED020AF3
:1039E0009068FCF7A8FC41EC100B1C4853EC102B22
:1039F0001BA1643000F0ECF9E06840F01000E060DA
:103A000010BDD0ED011A31EEC11A80ED011AB5EEEC
:103A1000C01AF1EE10FA02D9F0EE410A01E0C0ED51
:103A2000010AF4EEC00AF1EE10FA01D880ED010AA5
:103A30005068FCF780FC41EC100B084853EC102B4D
:103A40000BA1503000F0C4F9E06840F00800D6E760
:103A5000000000009A99993EAC0100201800002057
:103A60004D696E20566F6C743A252E3166560000F3
:103A70004D617820566F6C743A252E3166560000E1
:103A800070B5454C454D0026207888B126702E70C3
:103A9000207928B10020207120B1FFF7E9F807E074
:103AA0000120F8E73C481038FFF786FDFFF798F84B
:103AB000607820B36670287830B101280AD00228D7
:103AC0000ED003281BD113E00120A071E96841F05A
:103AD00008010AE00220A071E96841F0100104E049
:103AE0000320A071E96841F02001E960287006E038
:103AF0000420A071E86840F04000E8602E70A078D3
:103B000008B3A670A079012806D0022806D00328A1
:103B10000AD0042817D10DE0012100E000211E4841
:103B20001038FCF75DFF0EE00021FF20FFF71AFBC5
:103B3000012104E00021FF20FFF714FB00211648BB
:103B40001038FCF7FFFEE078002823D0E670A0795B
:103B5000012810D0022810D0032815D0042819D12C
:103B60000021FF20FFF7FEFA0021BDE870400A485F
:103B70001038FFF7D1BE012100E00021BDE8704000
:103B800005481038FFF716BF0021FF20FFF7EAFABB
:103B90000121EAE770BD0000BC01002018000020F0
:103BA00008B1044801E003481030016841F04001C9
:103BB000016070471804004810B580210348FDF7E4
:103BC000EDFD012800D0002010BD000000040048D9
:103BD00000B585B014216846FCF723FB80200090D7
:103BE00000200190012002900220039069460248C3
:103BF000FDF7B0FC05B000BD0004004808B1044862
:103C000001E003481030016841F080010160704715
:103C10001804004800B585B014216846FCF701FB84
:103C2000802000901120019000200290022003903B
:103C300069460248FDF78EFC05B000BD000400484F
:103C40007047FDF7C3BD10B594B038216846FCF746
:103C5000E8FA14210EA8FCF7E4FA4FF40070FDF71F
:103C600047FE012000900004019002200324CDE9CA
:103C700007041421CDE90A100C900D9009946846B0
:103C8000FEF706F908B172B6FEE70F20CDE90E0483
:103C9000002010901190129002210EA8FDF7D2FF83
:103CA000002801D072B6FEE714B010BD02480168CA
:103CB00041F470010160704788ED00E010B5FFF736
:103CC0008BF8FEF713FD0021FF20FFF74BFA0D489C
:103CD000FEF79CFB7F210C48FCF79CFF0020FEF7C1
:103CE00025FF0020FFF7D2F84FF6FF70FFF7E2F84C
:103CF000064900200871BDE81040A1F11000FFF74F
:103D000035BC000060010020F4000020BC01002050
:103D10000148FEF7B8BB0000600100202DE9F04328
:103D20000268234B234D244E244C4FF08049984287
:103D300007D0484505D0A84203D0B04201D0A042E8
:103D400003D122F070074A683A431D4FDFF874C070
:103D5000DFF8748098420DD048450BD0A84209D0B6
:103D6000B04207D0A04205D0B84203D0604501D090
:103D7000404503D122F44075CA682A434D6922F0B8
:103D800080022A4302608A68C2620A68826298429C
:103D900007D0A04205D0B84203D0604501D04045CD
:103DA00001D10969016301214161BDE8F08300008F
:103DB000002C014000040040000800400034014095
:103DC000004001400044014000480140FEE700007F
:103DD0000FB4084B10B504A902AA039800F0EEF83E
:103DE000044602A9002000F06CFC204610BC5DF8DF
:103DF00014FB0000C34600080907090E002804DB75
:103E000000F1E02080F80014704700F00F0000F18E
:103E1000E02080F8141D704702E008C8121F08C196
:103E2000002AFAD170477047002001E001C1121F3B
:103E3000002AFBD1704700002DE9FF5F82B000210E
:103E4000DDE90430020DDDF840B0034318D044F63C
:103E50001050A2F2FF3242431514119801281FD0CE
:103E6000A5EB0B00401C5FEA000A4FF000064E4F26
:103E7000DFF83891B046504615D5CAF1000413E07A
:103E8000119801244AA3012801D16FEA0B0102987D
:103E9000119AC0E90031C0E9024206B0BDE8F09FC6
:103EA000CBF10000DFE704460021404A491842EB0D
:103EB0000450CDE9001012E0E00707D032463B463F
:103EC00040464946FCF7B8F98046894632463B46AB
:103ED00010461946FCF7B0F906460F466410002C50
:103EE000EAD1DDE90401DDE90023BAF1000F06DAC9
:103EF000FCF7A2F942464B46FCF79EF905E0FCF7B9
:103F0000CBFB42464B46FCF7C7FB04460E4600225D
:103F1000284BFCF749FC03D84FF0FF30014607E07F
:103F20000022254B20463146FCF70FFBFCF723FC13
:103F3000102409E0002C0ADB0A220023FCF740FAD7
:103F4000039B30321A55641E50EA0102F2D1641C00
:103F5000039AC4F111031444119A012A03D00122D7
:103F600008430DD10AE0084304D000204FF0110BA4
:103F7000119072E7A3EB0B056D1E0DE05B4504DDB0
:103F80004FF0000205F1010504E003DA4FF00002F2
:103F9000A5F10105002AECD002981199C0E902317F
:103FA000C0E9004579E70000000014400000F03F40
:103FB000300000000000F0430000E03F2DE9FF4F1B
:103FC00095B09A46884606460025EEE1252877D129
:103FD00000242746F94A0121039400E0044316F81F
:103FE000013F203B01FA03F01042F7D130782A2834
:103FF00011D06FF02F033078A0F13002092A16D8C3
:10400000039A44F0020402EB820203EB42021044E2
:10401000761C0390EFE758F8042B0392002A03DA8A
:10402000504244F40054039044F00204761C30786B
:104030002E2816D116F8010F44F004042A280DD0BA
:104040006FF02F023078A0F13003092B09D807EB6D
:10405000870302EB4303C718761CF3E758F8047B89
:10406000761C30786C280FD006DC4C2817D06828D6
:104070000DD06A2814D104E0742810D07A280FD10A
:104080000DE044F400140AE044F4801401E044F428
:1040900040147278824202D104F58014761C761C9A
:1040A000307866280BD013DC582877D009DC00283C
:1040B00075D04528F6D04628F4D047281AD193E188
:1040C00018E0632835D0642879D0652812D18BE1B7
:1040D000702873D008DC6728F1D069286FD06E286B
:1040E0000DD06F2806D1ACE073282CD0752874D081
:1040F000782853D05246179990476D1C54E1C4F369
:104100000250022809D003280DD0D8F80010042846
:104110000DD00D6008F1040846E1D8F80010EA1748
:10412000C1E90052F6E7D8F800100D80F2E70D70F3
:10413000F0E718F8041B8DF8001000208DF801003E
:10414000EB46012003E058F804BB4FF0FF30610755
:104150004FF0000102D40DE009F101018946B94296
:104160000FDA8145F8DB1BF809100029F4D108E0CB
:1041700009F1010189468142FADB1BF80910002987
:10418000F6D103985346A0EB090721463846179A03
:1041900000F080FA284400EB090507E044E008E15C
:1041A0000DE01BF8010B524617999047B9F1010930
:1041B000F7D2534621463846179AF2E039E00A21F1
:1041C000C4F302524FF0000B0091022A06D058F8B7
:1041D000040BC117032A09D00AE023E008F1070005
:1041E00020F00702F2E80201904605E000B2C11794
:1041F000042A01D140B2C117002906DA0A4600217B
:10420000404261EB02012D2202E0220504D52B225F
:104210008DF80420012203E0E20701D02022F7E715
:10422000914657E00A2100E010214FF0000B009169
:104230000BE010214FF0000B44F00404082700911C
:1042400003E008204FF0000B0090C4F30252022A52
:1042500005D058F8040B0021032A08D008E008F123
:10426000070020F00702F2E80201904603E080B266
:10427000042A00D1C0B24FF0000922072AD53278B3
:10428000702A07D0DDF800C08CF0100C5CEA0B0C33
:1042900005D00EE040228DF80420012208E050EA0B
:1042A000010306D030238DF804308DF8052002225A
:1042B0009146009B83F0080353EA0B030AD150EAAE
:1042C000010201D1620705D530228DF804204FF09C
:1042D00001097F1E3278582A04D039A20C920CAA08
:1042E00002920BE03BA2F9E75B46009AFCF768F804
:1042F0000C9B9B5C029A521E0292137050EA0102C0
:10430000F2D1029804A9081A00F1200B600702D527
:1043100024F4803400E001275F4502DDA7EB0B00A9
:1043200000E0002000EB0B01009003984944401A84
:104330000390E00306D453462146179A039800F0F1
:10434000A9F90544002706E001A85246C05D179967
:1043500090476D1C7F1C4F45F6DBE0030CD55346A0
:104360002146179A039800F095F9054404E030209F
:104370005246179990476D1C0099481E00900029DD
:10438000F5DC08E00298029952460078491C029137
:10439000179990476D1CBBF10001ABF1010BF1DCEB
:1043A0005BE100F065F90544761C307800287FF465
:1043B0000DAE19B02846BDE8F08F000009280100B5
:1043C000303132333435363738396162636465668B
:1043D000000000003031323334353637383941424D
:1043E0004344454600000000600700D4062708F15A
:1043F000070020F00700F0E80223804603F0004C9D
:104400005FEA0C0001D097A009E0200501D596A035
:1044100005E0E00701D095A001E0AFF24C00139059
:10442000307823F0004365280CD006DC452809D0FD
:1044300046281DD047287FD13BE0662818D0672842
:104440007AD136E00021112F01DB112000E0781C29
:10445000CDE9000104A90CA8FFF7EEFCDDE90D0190
:104460000C9A4FF0000B07F10109109200914EE0F9
:104470004FF000400097CDE9011004A90CA8FFF708
:10448000DBFCDDE90D020C9B0F994FF0000B914610
:104490001093009211B9791C00EB0109B7EB0900E8
:1044A00003D4C0F1FF3B07F10109A9EB070001901C
:1044B00042E0012F00DA01270021112F01DD112038
:1044C00000E03846CDE9000104A90CA8FFF7B4FCD0
:1044D000DDE90D010C9A00914FF0000BB9461092E6
:1044E00021070FD4009A4A4503DA914601E0A9F169
:1044F0000109B9F1010F05DD109AA9F10101515C23
:104500003029F4D0B84202DA10F1040F03DA0121A5
:10451000CDE9011010E0002803DC8344A9EB000181
:1045200002E0411C494500DD8946A0EB0B00401C20
:1045300001904FF000400290200705D401984845B3
:1045400002DB4FF0FF30019000208DF84B00029805
:104550000DF14B07B0F1004F25D002200C902B201D
:104560000D90029800280CDA404202902D200D9008
:1045700007E00A210298FBF70DFF3031029007F89F
:10458000011D0C99481E0C900029F2DC02980028AD
:10459000EFD1791E0D980870307800F0200040F0BF
:1045A000450007F8020D11A8C01BC01D029013980A
:1045B000007800B1012000EB0901019801EBE071E6
:1045C000029801440398401A401E0390E00306D469
:1045D00053462146179A039800F05CF80544139857
:1045E000007818B15246179990476D1CE00323D507
:1045F00053462146179A039800F04CF805441BE0F7
:10460000BBF1000F07DB0098584504DD109817999F
:1046100010F80B0001E0179930205246904701989E
:104620000BF1010B401E05F10105019004D12E2074
:104630005246179990476D1CB9F10001A9F1010983
:10464000DEDC05E017F8010B5246179990476D1C08
:104650000299481E02900029F4DC53462146179A1D
:1046600003989EE62D0000002B00000020000000B3
:104670002DE9F041044600251E461746880404D45F
:1046800005E039462020B0476D1C641EF9D5284648
:10469000BDE8F0812DE9F041044600251E46904614
:1046A000C80301D5302700E02027880404D505E0A1
:1046B00041463846B0476D1C641EF9D52846BDE812
:1046C000F0810A68531C0B6010707047002100E0F5
:1046D000491C8142FCD37047FDF780F8FFF7B3FA1D
:1046E000FEF774FEFEF734FEFEF71AFFFFF7E6FA58
:1046F000FEF780FCFFF7C4F9FEF7A8F9FCF746FACD
:10470000FEF7E6F8FEF74CFDF2E7000000000000BF
:104710000000000000000000000000000000000099
:104720000000000000000000000000000000000089
:104730000000000000000000000000008001800177
:104740008001800180018001800180018001800161
:1047500080018001800100000000800180010000D4
:104760000000000000000000000000000000CC007D
:10477000CC00CC00CC00CC00CC000000000000003D
:104780000000000000000000000000000000000029
:104790000000000000000000000000000000000019
:1047A000000000000000600C600C600C3006300659
:1047B000FE1FFE1F300638071803FE1FFE1F1803DA
:1047C00018038C018C018C01000000008000E003C4
:1047D000F80F9C0E8C1C8C188C009800F801E007D8
:1047E000800E801C8C188C189C18B80CF00FE003FD
:1047F00080008000000000000000000000000000B9
:104800000E181B0C110C11061106110311039B014C
:104810008E01C038C06C6044604430443044184459
:10482000186C0C380000000000000000E001F003EC
:104830003807180618063003F001F000F8009C3124
:104840000E33061E061C061C063FFC73F0210000FA
:1048500000000000000000000000000000000C004C
:104860000C000C000C000C000C000000000000000C
:104870000000000000000000000000000000000038
:104880000000000000000000000000000002000323
:104890008001C000C00060006000300030003000C7
:1048A0003000300030003000300060006000C00098
:1048B000C000800100030002000000002000600032
:1048C000C00080018001000300030006000600060E
:1048D0000006000600060006000600030003800133
:1048E0008001C00060002000000000000000000007
:1048F000000000000000C000C000D806F807E0017A
:104900003003380700000000000000000000000035
:104910000000000000000000000000000000000097
:104920000000000000008001800180018001800102
:10493000FC3FFC3F8001800180018001800100007C
:104940000000000000000000000000000000000067
:104950000000000000000000000000000000000057
:104960000000000000000000000000008001800145
:1049700000010001800000000000000000000000B5
:104980000000000000000000000000000000000027
:104990000000E007E0070000000000000000000049
:1049A0000000000000000000000000000000000007
:1049B00000000000000000000000000000000000F7
:1049C000000000000000000000000000C000C00067
:1049D000000000000000000000000000000C000CBF
:1049E00000060006000600030003000380038001A8
:1049F00080018001C000C000C000600060000000B5
:104A0000000000000000000000000000E003F007CC
:104A1000380E180C0C180C180C180C180C180C1854
:104A20000C180C180C18180C380EF007E0030000D6
:104A300000000000000000000000000000018001F4
:104A4000C001F0019801880180018001800180018E
:104A500080018001800180018001800180010000CF
:104A6000000000000000000000000000E003F80F5C
:104A7000180C0C180C1800180018000C0006000385
:104A80008001C000600030001800FC1FFC1F000007
:104A9000000000000000000000000000E001F80736
:104AA000180E0C0C0C0C000C0006C003C007000C08
:104AB000001800180C180C18180CF807E003000078
:104AC000000000000000000000000000000C000ECC
:104AD000000F000F800DC00C600C600C300C180C27
:104AE0000C0CFC3FFC3F000C000C000C000C000008
:104AF000000000000000000000000000F80FF80FA8
:104B0000180018000C00EC03FC071C0E001C001819
:104B1000001800180C181C0C180EF807E003000011
:104B2000000000000000000000000000C007F00FBF
:104B3000381C181818000C00CC03EC0F3C0E1C1C81
:104B40000C180C180C18181C380EF007E0030000A5
:104B5000000000000000000000000000FC1FFC1F1F
:104B6000000C00060006000380038001C001C000A5
:104B7000E000600060007000300030003000000095
:104B8000000000000000000000000000E003F0074B
:104B9000380E180C180C180C3806F007F007180C13
:104BA0000C180C180C180C18380CF80FE003000047
:104BB000000000000000000000000000E003F0071B
:104BC000380E1C0C0C180C180C181C1C381EF81B6A
:104BD000E0190018000C000C1C0EF807F001000092
:104BE00000000000000000000000000000000000C5
:104BF00000000000000080018001000000000000B3
:104C000000000000000000000000800180010000A2
:104C10000000000000000000000000000000000094
:104C20000000000000008001800100000000000082
:104C30000000000000000000000080018001000171
:104C400000018000000000000000000000000000E3
:104C5000000000000000000000000010001C800F99
:104C6000E003F8001800F800E003800F001C0010BB
:104C70000000000000000000000000000000000034
:104C800000000000000000000000F81F000000000D
:104C90000000F81F000000000000000000000000FD
:104CA0000000000000000000000000000000000004
:104CB0000000000000000000000008003800F001C3
:104CC000C007001F0018001FC007F00138000800CF
:104CD000000000000000000000000000E003F80FEA
:104CE000180C0C180C180018000C000600038001AA
:104CF000C000C000C00000000000C000C0000000F4
:104D00000000000000000000000000000000E007BC
:104D100018180420C229224A1144094409440944AC
:104D200009221113E20C024004201818E0070000C9
:104D3000000000000000000000000000800380036D
:104D4000C006C006C006600C600C30183018301861
:104D5000F83FF83F1C700C600C6006C006C00000F5
:104D6000000000000000000000000000FC03FC0F39
:104D70000C0C0C180C180C180C0CFC07FC0F0C1865
:104D80000C300C300C300C300C18FC1FFC070000F1
:104D9000000000000000000000000000C007F01F3D
:104DA00038381C300C70066006000600060006004D
:104DB0000600060006600C701C30F01FE0070000C3
:104DC000000000000000000000000000FE03FE0FD5
:104DD000060E061806180630063006300630063075
:104DE0000630063006180618060EFE0FFE030000F9
:104DF000000000000000000000000000FC3FFC3F3D
:104E00000C000C000C000C000C00FC1FFC1F0C0024
:104E10000C000C000C000C000C00FC3FFC3F0000E0
:104E2000000000000000000000000000F83FF83F14
:104E300018001800180018001800F81FF81F1800B4
:104E400018001800180018001800180018000000BA
:104E5000000000000000000000000000E00FF83F2C
:104E60003C780E6006E007C00300030003FE03FE6B
:104E700003C007C006C00EC03CF0F83FE00F0000C2
:104E80000000000000000000000000000C300C30AA
:104E90000C300C300C300C300C30FC3FFC3F0C3034
:104EA0000C300C300C300C300C300C300C3000005E
:104EB00000000000000000000000000080018001F0
:104EC00080018001800180018001800180018001DA
:104ED000800180018001800180018001800100004B
:104EE00000000000000000000000000000060006B6
:104EF0000006000600060006000600060006000682
:104F000000060006180618063807F003E001000046
:104F1000000000000000000000000000063006183D
:104F2000060C060606038601C60066007600DE0053
:104F30008E0106030606060C061806300660000001
:104F40000000000000000000000000001800180031
:104F50001800180018001800180018001800180091
:104F600018001800180018001800F81FF81F00009B
:104F70000000000000000000000000000EE01EF035
:104F80001EF01EF036D836D836D836D866CC66CC69
:104F900066CCC6C6C6C6C6C6C6C686C386C300001D
:104FA0000000000000000000000000000C301C3079
:104FB0003C303C306C306C30CC30CC308C310C33ED
:104FC0000C330C360C360C3C0C3C0C380C3000000E
:104FD000000000000000000000000000E007F81FD3
:104FE0001C380E70066003C003C003C003C003C0BA
:104FF00003C003C006600E701C38F81FE0070000F5
:10500000000000000000000000000000FC0FFC1F7A
:105010000C380C300C300C300C300C18FC1FFC071A
:105020000C000C000C000C000C000C000C0000002C
:10503000000000000000000000000000E007F81F72
:105040001C380E70066003E003C003C003C003C039
:1050500003C007E006630E3F1C3CF83FE0F700C0CA
:10506000000000000000000000000000FE0FFE1F16
:1050700006380630063006300638FE1FFE070603E7
:105080000606060C061806180630063006600000F4
:10509000000000000000000000000000E003F80F26
:1050A0001C0C0C180C180C001C00F803E00F001E60
:1050B0000038063006300E301C1CF80FE0070000E8
:1050C000000000000000000000000000FE7FFE7FE6
:1050D00080018001800180018001800180018001C8
:1050E0008001800180018001800180018001000039
:1050F0000000000000000000000000000C300C3038
:105100000C300C300C300C300C300C300C300C30BF
:105110000C300C300C300C301818F81FE007000071
:1051200000000000000000000000000003600630E6
:10513000063006300C180C180C18180C180C380E09
:1051400030063006700760036003C001C001000034
:105150000000000000000000000000000360C361C8
:10516000C361C36166336633663366336633663361
:105170006C1B6C1B6C1B2C1A3C1E380E380E00006E
:105180000000000000000000000000000FE00C70B4
:1051900018303018700C600EC00780038003C00305
:1051A000E006700C301C18180C300E6007E0000090
:1051B00000000000000000000000000003C00660C6
:1051C0000C301C383818300C6006E007C003800132
:1051D0008001800180018001800180018001000048
:1051E000000000000000000000000000FC7FFC7FC9
:1051F000006000300018000C000600038001C000B1
:105200006000300018000C000600FE7FFE7F0000EA
:10521000000000000000000000000000E003E003C8
:10522000600060006000600060006000600060007E
:10523000600060006000600060006000600060006E
:1052400060006000E003E003000000003000300078
:10525000600060006000C000C000C000C0018001AC
:105260008001800100030003000300060006000027
:10527000000000000000000000000000E003E00368
:105280000003000300030003000300030003000306
:1052900000030003000300030003000300030003F6
:1052A00000030003E003E003000000000000C00171
:1052B000C00160036003600330063006180C180C50
:1052C00000000000000000000000000000000000DE
:1052D00000000000000000000000000000000000CE
:1052E00000000000000000000000000000000000BE
:1052F000000000000000000000000000FFFFFFFFB2
:105300000000000000000000000000000C000C0085
:105310000C000C000C000C0000000000000000005D
:10532000000000000000000000000000000000007D
:10533000000000000000000000000000000000006D
:10534000000000000000F003F8071C0C0C0C000F1C
:10535000F00FF80C0C0C0C0C1C0FF80FF0180000E0
:10536000000000000000000000000000180018000D
:10537000180018001800D803F80F380C181818185F
:105380001818181818181818380CF80FD803000037
:10539000000000000000000000000000000000000D
:1053A000000000000000C003F007300E180C1800C9
:1053B000180018001800180C300EF007C003000089
:1053C00000000000000000000000000000180018AD
:1053D000001800180018C01BF01F301C18181818EF
:1053E0001818181818181818301CF01FC01B0000C7
:1053F00000000000000000000000000000000000AD
:10540000000000000000C003F00F300C1818F81F57
:10541000F81F180018003818301CF00FC0070000E3
:10542000000000000000000000000000800FC00F1E
:10543000C000C000C000F007F007C000C000C000FE
:10544000C000C000C000C000C000C000C00000001C
:10545000000000000000000000000000000000004C
:10546000000000000000E00DF80F180E0C0C0C0CF2
:105470000C0C0C0C0C0C0C0C180EF80FE00D000CA6
:105480000C0C1C06F807F0010000000018001800C2
:10549000180018001800D807F80F381C181818182A
:1054A00018181818181818181818181818180000AC
:1054B000000000000000000000000000C000C0006C
:1054C000000000000000C000C000C000C000C0001C
:1054D000C000C000C000C000C000C000C00000008C
:1054E000000000000000000000000000C000C0003C
:1054F000000000000000C000C000C000C000C000EC
:10550000C000C000C000C000C000C000C000C0009B
:10551000C000C000F8007800000000000C000C0083
:105520000C000C000C000C0C0C060C038C01CC00C5
:105530006C00FC009C018C030C030C060C0C00009E
:10554000000000000000000000000000C000C000DB
:10555000C000C000C000C000C000C000C000C0004B
:10556000C000C000C000C000C000C000C0000000FB
:10557000000000000000000000000000000000002B
:105580000000000000007C3CFF7EC7E383C183C1B4
:1055900083C183C183C183C183C183C183C100002F
:1055A00000000000000000000000000000000000FB
:1055B0000000000000009807F80F381C1818181891
:1055C000181818181818181818181818181800008B
:1055D00000000000000000000000000000000000CB
:1055E000000000000000C003F00F300C181818185D
:1055F0001818181818181818300CF00FC0030000ED
:10560000000000000000000000000000000000009A
:10561000000000000000D803F80F380C1818181804
:105620001818181818181818380CF80FD80318007C
:10563000180018001800180000000000000000000A
:10564000000000000000C01BF01F301C18181818C4
:105650001818181818181818301CF01FC01B00183C
:1056600000180018001800180000000000000000DA
:10567000000000000000B007F003700030003000B0
:1056800030003000300030003000300030000000CA
:10569000000000000000000000000000000000000A
:1056A000000000000000E003F003380E180C380082
:1056B000F003C007000C180C380EF007E0030000E0
:1056C000000000000000000000000000000080005A
:1056D000C000C000C000F007F007C000C000C0005C
:1056E000C000C000C000C000C000C00780070000AC
:1056F00000000000000000000000000000000000AA
:1057000000000000000018181818181818181818A9
:105710001818181818181818381CF01FE01900006D
:105720000000000000000000000000000000000079
:105730000000000000000C18180C180C180C3006A3
:1057400030063006600360036003C001C001000042
:105750000000000000000000000000000000000049
:10576000000000000000C141C141C3616363636385
:1057700063633636363636361C1C1C1C1C1C000077
:105780000000000000000000000000000000000019
:105790000000000000001C38381C300C600660035C
:1057A0006003600360036006300C381C1C38000086
:1057B00000000000000000000000000000000000E9
:1057C0000000000000001830301830187018600C0D
:1057D000600CE00CC006C0068003800380038001DB
:1057E0008001C001F0007000000000000000000017
:1057F000000000000000FC1FFC1F000C000600035E
:105800008001C000600030001800FC1FFC1F000079
:105810000000000000000000000000000003800104
:10582000C000C000C000C000C000C0006000600038
:10583000300060004000C000C000C000C000C000D8
:10584000C000800100030000000000008001800112
:105850008001800180018001800180018001800140
:105860008001800180018001800180018001800130
:105870008001800180018001000000006000C00004
:10588000C0018001800180018001800100030003CC
:105890000006000300018001800180018001800179
:1058A0008001C00060000000000000000000000057
:1058B00000000000000000000000F010F81F080FBA
:1058C00000000000000000000000000000000000D8
:1058D00000000000000000000000000000000000C8
:1058E0000000010203040607080900000C59000823
:1058F00000000020F4000000183E0008005A0008D4
:10590000F4000020D4040000283E00080000FFFF3F
:105910000000000010000000010000000000000076
:105920000024F4000000000000000000000000005F
:10593000FFFF000000000000202020202020202069
:105940002020202020202020202020202020202057
:105950002020202020202020202020202020202047
:105960002020202020202020202020202020202037
:105970002020202020202020202020202020202027
:105980002020202020202020202020202020202017
:105990002020202020202020202020202020202007
:1059A00020202020202020202020202020202020F7
:1059B00020202020202020202020202020202020E7
:1059C00020202020202020202020202020202020D7
:1059D00020202020202020202020202020202020C7
:1059E00020202020202020202020202020202020B7
:1059F00020202020202020202020202020202020A7
:04000005080001D915
:00000001FF
