:020000040800F2
:100000002807002079020008231D0008BB1A0008F9
:10001000211D00087F030008611E00080000000089
:10002000000000000000000000000000271D000884
:100030008103000800000000251D0008291D00089C
:10004000930200089302000893020008930200083C
:10005000930200089302000893020008930200082C
:10006000930200089302000893020008930200081C
:10007000930200089302000893020008930200080C
:100080009302000800000000930200089302000899
:1000900093020008930200089302000893020008EC
:1000A00093020008930200089302000893020008DC
:1000B00093020008930200089302000893020008CC
:1000C00093020008930200089302000893020008BC
:1000D00093020008930200089302000893020008AC
:1000E000930200089302000893020008930200089C
:1000F0009302000893020008930200080000000029
:1001000000000000930200080000000093020008B5
:100110009302000800000000A51D000893020008DB
:10012000930200089302000893020008930200085B
:100130009302000800000000000000009302000885
:100140009302000893020008000000000000000075
:10015000000000000000000000000000000000009F
:1001600000000000000000000000000093020008F2
:1001700093020008000000000000000000000000E2
:1001800000000000930200080000000000000000D2
:10019000000000000000000000000000000000005F
:1001A0000000000000000000930200089302000815
:1001B0009302000893020008930200080000000068
:1001C0000000000093020008000000000000000092
:1001D000930200089302000800F002F800F03CF8D7
:1001E0000AA090E8000C82448344AAF10107DA4592
:1001F00001D100F031F8AFF2090EBAE80F0013F0A8
:10020000010F18BFFB1A43F001031847A81C000098
:10021000C81C0000103A24BF78C878C1FAD8520729
:1002200024BF30C830C144BF04680C607047000070
:100230000023002400250026103A28BF78C1FBD8EF
:10024000520728BF30C148BF0B6070471FB501F08F
:1002500023FE1FBD10B510BD00F058F81146FFF782
:10026000F5FF01F00EFE00F076F803B4FFF7F2FFA1
:1002700003BC00F07DF800000948804709480047AA
:10028000FEE7FEE7FEE7FEE7FEE7FEE7FEE7FEE746
:10029000FEE7FEE704480549054A064B70470000A3
:1002A000951D0008D901000828010020280700201A
:1002B00028030020280300204FF0000200B5134659
:1002C00094469646203922BFA0E80C50A0E80C5076
:1002D000B1F12001BFF4F7AF090728BFA0E80C5027
:1002E00048BF0CC05DF804EB890028BF40F8042B20
:1002F00008BF704748BF20F8022B11F0804F18BF8D
:1003000000F8012B7047704770477047754600F042
:100310002BF8AE4605006946534620F00700854697
:1003200018B020B5FFF7B6FFBDE820404FF000063B
:100330004FF000074FF000084FF0000B21F00701CD
:10034000AC46ACE8C009ACE8C009ACE8C009ACE810
:10035000C0098D46704710B50446AFF300802046B3
:10036000BDE81040FFF781BF00487047C80000207B
:1003700001491820ABBEFEE7260002007047FEE7E9
:10038000704772B6FEE700002DE9F84F00270446DB
:10039000009790F85800DFF8D8930D46B84601282A
:1003A00011D0012684F85860206801F091FB60B1FB
:1003B000E06D40F02000E0655FF0010784F85880B0
:1003C0003846BDE8F88F0220FBE7D5E900210C2371
:1003D000206803EA91131844036B01F01F014FF0EA
:1003E0001F0C0CFA01FCC2F3846223EA0C038A405E
:1003F00013430363206801F06BFB8246206801F021
:1004000063FB5AEA00003CD1AA6829682068B2F16F
:10041000004F37D001F060FB2068416921F00041B6
:10042000416120686969C268C2F3C102520091400B
:100430002A69042A31D000EB82002B68026EDFF8B3
:1004400034C303F0F84302EA0C020B431A4342F0B0
:100450000041016620682A69A96900EB8200026EEA
:1004600022F080720A430266297F226828690129E6
:1004700010D0002102EB8000026E22F000720A43CD
:1004800002667DE0002201F027FB2068416941F00F
:100490000041C5E74FF00071ECE7002101F00EFBD1
:1004A000400320684FF0000172D001F007FB90FA82
:1004B000A0F0B0FA80F1286842036ED090FAA0F064
:1004C000B0FA80F0814204D100221146206801F088
:1004D00012FB0121206801F0F1FA400320684FF07F
:1004E00001015DD001F0EAFA90FAA0F0B0FA80F1D3
:1004F0002868420359D090FAA0F0B0FA80F0814207
:1005000004D100220121206801F0F5FA02212068BF
:1005100001F0D4FA400320684FF0020148D001F006
:10052000CDFA90FAA0F0B0FA80F12868420344D0E6
:1005300090FAA0F0B0FA80F0814204D100220221AA
:10054000206801F0D8FA0321206801F0B7FA4003CF
:1005500020684FF0030133D001F0B0FA90FAA0F018
:10056000B0FA80F1286842032FD090FAA0F0B0FAD8
:1005700080F0814204D100220321206801F0BBFAFF
:100580002068816811F0010F22D0A8E000E004E0AB
:1005900001F094FAC0F384618DE7C0F3846091E7C1
:1005A00001F08CFAC0F38461A2E7C0F38460A6E78F
:1005B00001F084FAC0F38461B7E7C0F38460BBE75D
:1005C00001F07CFAC0F38461CCE7C0F38460D0E72B
:1005D000EB6829684B4550F8B03FC1F3120101D1D7
:1005E0000B4300E08B430360E868484577D12868F7
:1005F00041031CD090FAA0F1B1FA81F1491C01F03D
:100600001F0109294FEA403132D8002912D000BF1A
:1006100090FAA0F1B1FA81F101F1010101F01F019D
:1006200006FA01F609D100BFC0F3846109E0C0F306
:100630008461E3E7C0F38461EEE790FAA0F1B1FAD8
:1006400081F101F1010101F01F0146EA816102D14E
:10065000C0F3846003E090FAA0F0B0FA80F000F1FB
:10066000010000F01F0000EB400041EA005132E0C1
:1006700000290ED090FAA0F1B1FA81F101F1010147
:1006800001F01F0106FA01F606D100BFC0F3846134
:1006900006E0C0F38461F1E790FAA0F1B1FA81F1CC
:1006A00001F1010101F01F0146EA816102D1C0F3AD
:1006B000846003E090FAA0F0B0FA80F000F101004D
:1006C00000F01F002C4A00EB400002EB005041EA12
:1006D000000141F00071AA68206801F0FDF9274887
:1006E0002A6802423FF46AAE25488168254B01F032
:1006F000E0719A4202D0244B9A421CD10B021AD4C8
:100700002268B2F1A04F7FF459AE826841F4000133
:1007100022F0E0720A4382601C481D490068B0FB69
:10072000F1F0401C00EB4000800000E0401E009013
:100730000028FBD142E6174D174BAA4207D1CD0145
:1007400005D422689A42F5D041F0807109E0134D3A
:10075000AA42EFD14A02EDD422689A42EAD041F48B
:100760008001826822F0E0720A43826026E600007F
:1007700000007F4000F0FF03000020FE0000088022
:1007800000030050000021C31000C0900C000020A6
:10079000400D0300000052C700010050000084CB50
:1007A000F8B54FF0000504002E46009502D0E06D2C
:1007B00010B107E00120F8BD204600F0EFF82666F2
:1007C00084F8586020688168C1F3407119B181686C
:1007D0006A4A1140816020688168C1F3007189B95B
:1007E0008168674A114041F08051816065486649DF
:1007F0000068B0FBF1F04000801C00E0401E00905B
:100800000028FBD120688168C1F3007141B9E16D16
:1008100041F01001E165216E41F0010121660125E1
:1008200001F056F9E16DC90600D430B1E06D40F039
:100830001000E06501252846F8BDE06D20F48070C9
:1008400040F00200E0652068806810F0010F11D1CF
:100850004FF0A04080684D4900F00100896801F028
:100860000101084306D14A486168826822F47C127B
:100870000A438260E168E06B627F0843A16841EA55
:100880004231084394F8241040EA0140012904D180
:10089000218D404A02EB41410843E16A29B101F44C
:1008A0007871226B014342EA01002168CA683A4B21
:1008B0001A400243CA6020680169626B21F04061FE
:1008C00011430161206801F003F90646206801F038
:1008D000FBF830432ED1207F94F83810800340EA93
:1008E00041022068C16844F2020399431143C16088
:1008F00020690028206801690AD041F48031016133
:10090000206850F8C01F22696FF30D01114307E002
:1009100021F480310161206850F8C01F6FF30D0190
:10092000016094F8400001280CD02068016921F092
:1009300001010161606901282068016B21F00F014C
:1009400011D013E0D4E911010843D4E91312114383
:10095000084321680A6940F2FC739A43104340F04F
:1009600001000861E6E7226A521E11430163E06D4F
:1009700020F0020040F00100E0655CE7C0FFFF5F8F
:10098000C0FFFF7F0C000020400D0300000100505D
:10099000000300500000FEFF0740F0FF10B598B0C4
:1009A0000446142111A8FFF787FC44216846FFF78D
:1009B00083FC15492068884223D1C4014005009476
:1009C0000F90684600F04EFA08B1FFF7DAFC0F48C6
:1009D000C16C41F40051C164C16C01F40051169125
:1009E000C16C41F00201C164C06C11A900F00200A9
:1009F00016900320CDE9114000201390044800F028
:100A000009F818B010BD00000001005000100240AD
:100A1000000400482DE9F04FDFF820920023012662
:100A20000324A9F1040B85B00F2709F1040AABF1E7
:100A3000040EFAE006FA03F52A407CD091F804C0CF
:100A40000CF0030CBCF1010F02D0BCF1020F26D157
:100A5000D0F808C0CDF800C04FEA430C04FA0CF8F7
:100A6000CDF810C0DDF800C02CEA080CCDF800C0AD
:100A7000D1F80C80DDF810C008FA0CF8DDF800C0E1
:100A800048EA0C08C0F80880D0F804C02CEA050C2D
:100A90000D79C5F300159D4045EA0C0545600D79BB
:100AA000ED43AD070ED0C5684FEA430804FA08FCD1
:100AB00025EA0C05D1F808C00CFA08FC4CEA050C34
:100AC000C0F80CC00D7905F00305022D16D1DD0824
:100AD00000EB850CCDF808C0DCF820805D074FEAFC
:100AE000D56C07FA0CF528EA05080D6905FA0CF52E
:100AF000DDF808C045EA0805CCF8205005684FEA43
:100B0000430CCDF808C004FA0CFC25EA0C0591F85A
:100B100004C00CF00308DDF808C008FA0CF848EA35
:100B20000508C0F800804D6815F4403F7CD0444D66
:100B3000D5F860C000E077E04CF0010CC5F860C06B
:100B40002D6E23F0030C05F0010500953D4D654425
:100B50000295AD684FEA837C4FEA1C7807FA08FCDF
:100B600025EA0C05B0F1904F06D0DFF8DCC06045F7
:100B700005D14FF0010C20E04FF0000C1DE0DFF834
:100B8000CCC0604502D14FF0020C16E0DFF8C0C0C7
:100B9000604502D14FF0030C0FE0DFF8B8C06045AC
:100BA00002D14FF0040C08E0DFF8ACC0604502D180
:100BB0004FF0050C01E04FF0060C0CFA08FC4CEA73
:100BC000050C029DC5F808C0D9F80050CC46D1F8F4
:100BD000048095435FEAC82800D51543CCF800503F
:100BE000DAF80050D446D1F8048095435FEA8828AB
:100BF00000D51543CCF80050DBF80050DC46D1F8A6
:100C0000048095435FEA883800D51543CCF800503E
:100C1000DEF80050F446D1F8048095435FEAC83806
:100C200000D51543CCF800505B1C0A6832FA03F576
:100C30007FF400AF05B0BDE8F08F0000080401406C
:100C40000010024000000140000400480008004875
:100C5000000C004800100048001400480AB18161EF
:100C6000704781627047000001488068704700004B
:100C7000000000200248816842681144816070478A
:100C80000000002010B50024032000F073F80F20AE
:100C900000F008F808B1012401E000F025F8204632
:100CA00010BD000070B50E4E05460024706898B166
:100CB0004FF47A71B1FBF0F00A490968B1FBF0F02A
:100CC00000F040FD40B9102D06D200222946501EEA
:100CD00000F030F8356000E00124204670BD0000CF
:100CE000000000200C0000200A4882B0016E41F094
:100CF00001010166016E01F001010091816D41F079
:100D000080518165806D00F08050009002B000F04D
:100D1000A1B8000000100240002809DB00F01F020B
:100D2000012191404009800000F1E020C0F800114D
:100D300070470000F0B40E4B1B680C46C3F302234F
:100D4000C3F10705042D00D90425191D072901D277
:100D5000002300E0DB1E012606FA05F1491E2140B2
:100D600099409E40761E16403143F0BC01F079B8A0
:100D70000CED00E0064900F0070208684FF6FF039B
:100D8000184040EA0220034A104308607047000000
:100D90000CED00E00000FA052B492C4B0A683221CB
:100DA0004A432B4940B1B0F5007F086829D020F4B0
:100DB000C06040F480602CE00868C0F34120022845
:100DC00004D051F8800F20F4807022E0D1F8800028
:100DD00020F48070C1F88000086820F4C06040F4FE
:100DE00000700860B2FBF3F0401C00E0401E4A694E
:100DF000520501D50028F9D1486940050AD50320DC
:100E00007047C0F34120022806D051F8800F40F40B
:100E10008070086000207047D1F8800040F4807036
:100E2000C1F88000086820F4C06040F400700860D9
:100E3000B2FBF3F0401C00E0401E4A695205DBD5CE
:100E40000028F9D1D8E700000C00002040420F0034
:100E5000007000400248816841F480418160704721
:100E6000007000402DE9F8430446006800269D4DBF
:100E700000035ED5A86D0027C00008D4A86D40F01F
:100E80008050A865A86D012700F080500090DFF821
:100E90005892D9F8001041F48071C9F80010FFF79A
:100EA000E3FE804606E000BFFFF7DEFEA0EB080091
:100EB00002282BD8D9F80000C005F5D5D5F8900048
:100EC00010F4407014D0216C814211D0D5F89000FC
:100ED000D5F8901020F4407041F48031C5F890109E
:100EE000D5F8901021F48031C5F89010C5F8900025
:100EF000C00711D0FFF7B8FE804641F2883907E0FD
:100F0000FFF7B2FEA0EB0801494501D903260BE02B
:100F1000D5F890008007F3D5D5F89000216C20F427
:100F200040700843C5F890001FB1A86D20F08050B4
:100F3000A8652078C00707D0D5F88800616820F040
:100F400003000843C5F888002078800707D5D5F846
:100F50008800A16820F00C000843C5F888002078BC
:100F6000400707D5D5F88800E16820F03000084335
:100F7000C5F888002078000707D5D5F888002169D2
:100F800020F0C0000843C5F888002078800607D507
:100F9000D5F88800616920F440600843C5F88800EE
:100FA0002078400607D5D5F88800A16920F4405084
:100FB0000843C5F888002078000607D5D5F88800D2
:100FC000E16920F440400843C5F888002088C00546
:100FD00007D5D5F88800216A20F440300843C5F8C9
:100FE00088002088800507D5D5F88800616A20F43C
:100FF00040200843C5F88800208840050FD5D5F863
:101000008800A16A20F440100843C5F88800A06A4F
:10101000B0F5801F03D1E86840F48010E8602088B4
:1010200000050FD5D5F88800E16A20F44000084398
:10103000C5F88800E06AB0F5800F03D1E86840F495
:101040008010E8602088C0040FD5D5F88800216B97
:1010500020F040700843C5F88800206BB0F1807F15
:1010600003D1E86840F48010E86020884FF0006108
:1010700080040ED5D5F88800626B20F040601043E4
:10108000C5F88800606B884203D1E86840F480109E
:10109000E860208840040ED5D5F88800A26B20F0C7
:1010A00040601043C5F88800A06B884203D1E8680F
:1010B00040F48010E860208800040FD5D5F888003F
:1010C000E16B20F040500843C5F88800E06BB0F1B8
:1010D000805F03D1E86840F48030E8603046BDE8C6
:1010E000F883000000100240007000402DE9F04736
:1010F0000E4605004FF0000725D0DFF8AC81D8F888
:10110000000000F00F00B0420CD2D8F8001021F01F
:101110000F013143C8F80010D8F8000000F00F00AC
:10112000B04210D12968614CC80741F2883A5AD0C0
:101130006868DFF87C91032808D0022820682DD049
:10114000400500282CDB0120BDE8F08720688001E5
:10115000F9D5E06800F00302E068C0F30310401C1A
:10116000032A19D0534A00BFB2FBF0F0E268C2F381
:1011700006225043E268C2F34162521C5200B0FBA7
:10118000F2F0484517D9A06810F0F00F0CD088078E
:1011900011D5A86840B10EE0474AE5E78003D0E7E3
:1011A00000F092F8484506D9A06820F0F00040F021
:1011B0008000A0608027A068696820F003000843D1
:1011C000A060FFF751FD814606E000BFFFF74CFD30
:1011D000A0EB090151453AD8A068696800F00C00FD
:1011E000B0EB810FF2D12868810714D5400703D5F1
:1011F000A06840F4E060A0602878000705D5A068EA
:1012000020F4605040F4E060A060A068A96820F07D
:10121000F000084304E0802F03D1A06820F0F00024
:10122000A060D8F80010404601F00F01B14216D975
:10123000016821F00F0131430160FFF715FD0746FA
:1012400007E000BFFFF710FDC11B514501D9032086
:101250007AE7D8F8000000F00F00B042F2D1287809
:10126000400705D5A068E96820F4E0600843A06065
:101270002878000706D5A068296920F4605040EA64
:10128000C100A06000F020F8A1680C4AC1F303116E
:10129000515C01F01F01C840094908600948006815
:1012A000BDE8F047FFF7FEBC0020024000100240FE
:1012B00000B4C4040024F40000366E01A21E00082D
:1012C0000C00002000000020184910B58868C0F309
:1012D00081021748012A0BD08A68164BC2F381029B
:1012E000022A06D08A68C2F38102032A03D00020B2
:1012F00010BD184610BDCA6802F00304CA68C2F3E4
:101300000312521C032C02D0B0FBF2F001E0B3FB3D
:10131000F2F0CA68C968C2F306225043C1F34161C2
:10132000491C4900B0FBF1F010BD00000010024064
:101330000024F40000366E012DE9F84304007AD051
:101340002078FA4DC00747D0A868E96800F00C0083
:1013500001F003010C2802D0082817D001E003296E
:1013600014D06068B0F5803F17D0B0F5A02F286882
:1013700017D020F480302860286820F4802028606E
:101380006068E0B1FFF770FC064614E0286880034F
:1013900022D560680028D2D01EE0286840F4803052
:1013A000EDE740F480202860F7E700BFFFF75CFC22
:1013B000801B642870D828688003F7D50CE0FFF7FD
:1013C00053FC064605E000BFFFF74EFC801B642877
:1013D000F0D828688003F7D4207880074CD5A86817
:1013E000E96800F00C0001F003010C2802D0042889
:1013F0000DD001E002290AD0E068002828682BD02F
:1014000040F480702860FFF72FFC064619E028683A
:10141000400502D5E068002891D06868217C20F062
:10142000FE4040EA01606860C1480068FFF73AFC8E
:10143000002800D120E076E1FFF716FC801B02288F
:10144000B8D828684005F7D56868217C20F0FE40B0
:1014500040EA016068600FE020F480702860FFF7C8
:1014600003FC064605E000BFFFF7FEFB801B0228D9
:10147000A0D828684005F7D42078000729D56069EE
:101480000028D5F8940013D040F00100C5F894006E
:10149000FFF7EAFB064606E090E000BFFFF7E4FB3B
:1014A000801B022886D8D5F894008007F6D510E076
:1014B00020F00100C5F89400FFF7D6FB064604E0D3
:1014C000FFF7D2FB801B022878D8D5F8940080075C
:1014D000F6D42078400761D5A86D0026C00008D456
:1014E000A86D40F08050A865A86D012600F08050DE
:1014F000009090480168C90511D40168804641F404
:1015000080710160FFF7B0FB074604E0FFF7ACFB1A
:10151000C01B022852D8D8F80000C005F6D5A06834
:10152000012815D00528D5F8900016D020F001002C
:10153000C5F89000D5F8900020F00400C5F89000A0
:10154000A06841F28838B8B1FFF78EFB07460EE07D
:10155000D5F8900040F00100F0E740F00400C5F835
:101560009000F5E7FFF780FBC11B414526D8D5F871
:1015700090008007F6D50CE0FFF776FB074604E005
:10158000FFF772FBC11B414518D8D5F890008007C2
:10159000F6D41EB1A86D20F08050A8652078800692
:1015A00029D5A0690028D5F8980013D040F0010093
:1015B000C5F89800FFF758FB064606E077E000BF45
:1015C000FFF752FB801B022877D8D5F898008007D8
:1015D000F6D510E020F00100C5F89800FFF744FBB5
:1015E000064604E0FFF740FB801B022865D8D5F8CB
:1015F00098008007F6D4E069F0B3A968C1F38101CF
:10160000032961D00228286820F0807028600BD060
:10161000E86820F00300E860E86847490840E860AF
:10162000FFF722FB04464BE0FFF71EFB064604E0F3
:10163000FFF71AFB801B02283FD828688001F7D4E7
:10164000F4E908016FF00F0202EB01110843218A4F
:101650005204490802EB4151A26841EA02210843C1
:10166000217D4FF07E42490802EB41610843217B16
:1016700040EAC160E96800E062E0304A1140084396
:10168000E860286840F080702860E86840F080706A
:10169000E860FFF7E9FA044605E000BFFFF7E4FA67
:1016A000001B022809D828688001F7D548E004E02B
:1016B000FFF7DAFA001B022802D90320BDE8F883FD
:1016C00028688001F4D43BE00128F7D0E868226A5A
:1016D00000F00301914226D1616A00F0F002090195
:1016E000103991421FD1A26A00F4FE41B1EB022FE2
:1016F00019D194F82C2000F07841B1EBC26F12D1CF
:10170000218E00F4C00249084905A1F5001191425B
:1017100009D194F8341000F0C06049084906A1F1DD
:10172000007181420CD00120C8E700000010024087
:101730000000002000700040FFFFEEFE0C809F01C3
:101740000020BBE710B5401EB0F1807F01D301201F
:1017500010BD4FF0E02460610F21601700F081FBA5
:101760000020A06107202061002010BD7047704755
:101770007047704770477047F0B590F83C20012AD9
:101780003AD0012580F83C50022280F83D200368C1
:101790005A689C68194E1A4FB34201D0BB4204D11B
:1017A00022F4700C4A6842EA0C02DFF858C002EAE0
:1017B0000C02D1F800C04CEA020CC3F804C0026865
:1017C000B2420DD0B2F1804F0AD00F4B9A4207D0EF
:1017D0000E4B9A4204D0BA4202D00D4B9A4204D129
:1017E000896824F080031943916080F83D500021FE
:1017F00080F83C100846F0BD0220F0BD002C0140EE
:10180000003401408FFFFFFD00040040000800404D
:1018100000400140704710B5040003D094F83D002B
:1018200010B107E0012010BD002084F83C002046E4
:1018300000F022F8022084F83D00211D206800F00D
:10184000B7FA012084F8480084F83E0084F83F008D
:1018500084F8400084F8410084F8420084F8430092
:1018600084F8440084F8450084F8460084F8470072
:1018700084F83D00002010BD08B500680B4988427F
:1018800012D10B48816D41F010018165806D0022FD
:1018900000F01000009011463620FFF74BFABDE82B
:1018A00008403620FFF738BA08BD0000001000409D
:1018B00000100240704770B50446006801694FF09F
:1018C0000005C943890715D4C168C943890711D4E4
:1018D000E91E016101202077206880698007204689
:1018E00002D0FFF7E7FF04E000F0E3F8204600F045
:1018F000E1F8257720680169C943490717D4C16811
:10190000C943490713D46FF0040101610220207715
:101910002068806910F4407F204602D0FFF7CAFF9C
:1019200004E000F0C6F8204600F0C4F825772068EF
:101930000169C943090716D4C168C943090712D40C
:101940006FF008010161042020772068C0698007DA
:10195000204602D0FFF7AEFF04E000F0AAF82046D0
:1019600000F0A8F8257720680169C943C90617D493
:10197000C168C943C90613D46FF010010161082082
:1019800020772068C06910F4407F204602D0FFF71E
:1019900091FF04E000F08DF8204600F08BF82577E9
:1019A00020680169C943C90708D1C168C943C9078B
:1019B00004D1891E0161204600F07DF8206801698C
:1019C000C943090609D4C168C943090605D46FF0A3
:1019D000800101612046FFF7CAFE20680169C94302
:1019E000C90509D4C168C943090605D46FF48071DB
:1019F00001612046FFF7BAFE20680169C943490624
:101A000009D4C168C943490605D46FF0400101619A
:101A1000204600F051F820680169C943890609D4BD
:101A2000C168C943890605D46FF0200101612046D1
:101A3000FFF79EFE20680169C943C90209D4C16845
:101A4000C943C90205D46FF4801101612046FFF734
:101A500091FE20680169C943890209D4C168C9435C
:101A6000890205D46FF4001101612046FFF781FE61
:101A700020680169C943490209D4C168C9434902C0
:101A800005D46FF4800101612046FFF774FE2068E1
:101A90000169C94309020BD4C168C943090207D4CB
:101AA0006FF4000101612046BDE87040FFF7B2BE4F
:101AB00070BD7047704770477047FEE700EB8100CC
:101AC000006E00F0F84070478068C0F3C0007047B7
:101AD0008068C0F380007047042303EAD15310B537
:101AE00018444369C1F3045107248C40A3438A403E
:101AF0001343436110BD00EB8100016E21F00041F2
:101B0000114301667047000030B589B02021684656
:101B1000FEF7D2FB19481849002401604902C0E9C8
:101B20000114C46004250461C0E9054504774477C5
:101B30000121016280F82440C462046380F83840C7
:101B4000C46380F84040FEF72BFE08B1FEF719FC95
:101B50000B48009006200190032002907F200594FE
:101B6000CDE9030569460548FEF70EFC002801D0C3
:101B7000FEF707FC09B030BD000100501000002046
:101B80000080F03E2DE9F04387B014216846FEF74F
:101B900093FB4C48C16C41F00401C164C16C01F07D
:101BA00004010591C16C41F02001C164C16C01F0D8
:101BB00020010591C16C41F04001C164C16C01F08C
:101BC00040010591C16C41F00101C164C16C01F09B
:101BD00001010591C16C41F00201C164C16C01F0C9
:101BE00002010591C16C41F00801C164C06C364F1F
:101BF00000F008004FF47F4405900122214638464A
:101C0000FFF72CF8DFF8C480002204214046FFF7DC
:101C100025F8DFF8BC900022C0214846FFF71EF8E7
:101C20000125CDE900450024029469463846039415
:101C3000FEF7F0FEA8020326CDE9000669460294ED
:101C40002448FEF7E7FEFF20CDE90006694602942E
:101C50003846FEF7DFFECDE900544FF09047694665
:101C600038460295FEF7D6FE49F6FE70CDE900062D
:101C7000694602943846FEF7CDFE07208DE8310014
:101C800069464846FEF7C6FE47F63870CDE90006BD
:101C9000694602944846FEF7BDFE04200090CDE957
:101CA0000154694640460394FEF7B4FEC0200090FC
:101CB000CDE90154694648460394FEF7ABFE07B0F0
:101CC000BDE8F0830010024000080048000C004806
:101CD00000040048001800483EB500240F48009456
:101CE00001940D49029401604F21C0E9011440F2B2
:101CF000E7318461C160FFF78EFD08B1FEF741FB5B
:101D00000094694605480294FFF736FD002801D08B
:101D1000FEF737FB3EBD0000001000407C000020B5
:101D2000FEE7FEE770477047FEF7A4BF10B594B01A
:101D300038216846FEF7C0FA14210EA8FEF7BCFA57
:101D40004FF40070FFF728F8012000900004019084
:101D500002200324CDE907041421CDE90A100C90D8
:101D60000D9009946846FFF7E7FA08B172B6FEE7EE
:101D70000F20CDE90E040020109011901290022146
:101D80000EA8FFF7B3F9002801D072B6FEE714B031
:101D900010BD00000248016841F470010160704705
:101DA00088ED00E00148FFF786BD00007C000020C0
:101DB0002DE9F0430268234B234D244E244C4FF071
:101DC0008049984207D0484505D0A84203D0B04288
:101DD00001D0A04203D122F070074A683A431D4F58
:101DE000DFF874C0DFF8748098420DD048450BD0FE
:101DF000A84209D0B04207D0A04205D0B84203D0D3
:101E0000604501D0404503D122F44075CA682A4399
:101E10004D6922F080022A4302608A68C2620A6821
:101E20008262984207D0A04205D0B84203D06045F4
:101E300001D0404501D10969016301214161BDE83B
:101E4000F0830000002C0140000400400008004026
:101E5000003401400040014000440140004801407E
:101E6000FEE70907090E002804DB00F1E02080F8F6
:101E70000014704700F00F0000F1E02080F8141DFE
:101E80007047FEF7FFFEFFF751FFFFF77BFEFFF7FE
:101E90003BFEFFF721FFFEE74FF04070E1EE100A36
:101EA0007047000000000000000001020304060764
:101EB00008090000D41E00080000002010000000E7
:101EC00014020008E41E000810000020180700009B
:101ED00030020008100000000100000000000000B7
:041EE0000024F400E6
:04000005080001D915
:00000001FF
