:020000040800F2
:10000000900900209D0200080F4200087F38000878
:100010000D4200081B160008955200080000000061
:10002000000000000000000000000000274500085C
:10003000D7160008000000001142000829450008FA
:10004000B7020008B7020008B7020008B7020008AC
:10005000B7020008B7020008B7020008B70200089C
:10006000B7020008B7020008B70200081D16000812
:1000700029160008B7020008B7020008B7020008F6
:10008000B702000800000000B7020008B70200082D
:10009000B7020008B7020008B7020008B70200085C
:1000A000B7020008B7020008B7020008B70200084C
:1000B000B7020008B7020008B7020008B70200083C
:1000C000B7020008B7020008B7020008B70200082C
:1000D000B702000835510008B7020008B70200084F
:1000E000B7020008B7020008B7020008B70200080C
:1000F000B7020008B7020008B702000800000000BD
:1001000000000000B702000800000000B70200086D
:10011000B702000800000000ED450008B702000823
:10012000B7020008B7020008B7020008B7020008CB
:10013000B70200080000000000000000B70200083D
:10014000B7020008B702000800000000000000002D
:10015000000000000000000000000000000000009F
:10016000000000000000000000000000B7020008CE
:10017000B7020008000000000000000000000000BE
:1001800000000000B70200080000000000000000AE
:10019000000000000000000000000000000000005F
:1001A0000000000000000000B7020008B7020008CD
:1001B000B7020008B7020008B702000800000000FC
:1001C00000000000B702000800000000000000006E
:1001D000B7020008B702000800F002F800F04FF87C
:1001E0000AA090E8000C82448344AAF10107DA4592
:1001F00001D100F044F8AFF2090EBAE80F0013F095
:10020000010F18BFFB1A43F001031847E464000014
:1002100004650000103A24BF78C878C1FAD85207A4
:1002200024BF30C830C144BF04680C607047000070
:100230000023002400250026103A28BF78C1FBD8EF
:10024000520728BF30C148BF0B607047662905F0D0
:10025000FB80642900F0F880632900F0948400207A
:1002600070471FB505F0EBF800F09AFC0400002081
:10027000002105F057F8E0601FBD10B510BD00F07B
:100280008FFD1146FFF7EDFF05F034F800F0ADFDEE
:1002900003B4FFF7F2FF03BC00F0F0FD094880470C
:1002A00009480047FEE7FEE7FEE7FEE7FEE7FEE758
:1002B000FEE7FEE7FEE7FEE704480549054A064B70
:1002C0007047000095450008D90100089003002000
:1002D00090090020900500209005002053EA020CB0
:1002E00000F069802DE9F04B4FF00006002B1FBF96
:1002F000B3FA83F503FA05F424FA05F65E4012BF5B
:100300001643B2FA82F502FA05F4C5F120051EBFC4
:1003100022FA05FC44EA0C04203556EA044C4FEA64
:10032000144418BF641C4FF000084FF000099042BD
:1003300071EB030C39D3002919BFB1FA81F701FA27
:1003400007F6B0FA80F700FA07F6C7F120071EBFDC
:1003500020FA07FC46EA0C062037B6FBF4FCA7EBB4
:100360000507103F07F01F0BCBF120060CFA0BFB23
:100370002CFA06F644BFB3460026202FA4BF5E46E3
:100380004FF0000B5BEA060C08BF4FF0010B19EBB6
:100390000B09ABFB027C48EB0608C01B06FB02CC3A
:1003A0000BFB03CC71EB0C01C1E70B460246414647
:1003B0004846BDE8F08B13B54FF000004FF0000148
:1003C000AFF30080BDE81C40704700000FB41CB5BF
:1003D000074B06AA7B4469460090059800F0B1FBE4
:1003E0000020694600F0C0FB1CBC5DF814FB000057
:1003F0009107000070B50C460546012A05D0287803
:10040000800600D5EA69002302E0012305E05B1CB9
:10041000934202D2E05C0028F9D1A869E618C01A1C
:10042000A861286A184428622846AFF3008004E0D7
:10043000D5E9012114F8010B9047B442F8D32846BE
:10044000AFF3008070BD00002DE9F04106460024A6
:1004500010687529314616A510D0AFF3008000282A
:1004600002DA404213A507E031688A0701D512A5D8
:1004700002E0490704D511A5012401E0AFF3008093
:1004800000210A2206F1240709E0B0FBF2FCB0FBD0
:10049000F2F302FB1C00303078541846491C002847
:1004A000F3D123462A463046BDE8F04100F0DBB8E0
:1004B000000000002D0000002B00000020000000C4
:1004C0002DE9F0474FF0000A89460446C0F820A005
:1004D0002046E1688847002876D0252806D0D4E950
:1004E00001219047206A401C2062F1E7E168204624
:1004F00000258847C4F81CA006460027C4F818A0A9
:100500002A2E09D0304604F0EEFE38B304EB8708FB
:10051000303EC8F8186019E059F8041B204604EB77
:1005200087029161E1688847012F064618D1E0698A
:10053000002820DA25F020051DE0D8F8180000EB8F
:10054000800006EB40003038C8F818002046E1680B
:100550008847064604F0C7FE0028EED1012F0AD0D6
:100560002E2E08D12046E16888477F1C0646022FC0
:1005700045F02005C4DBA069002803DA404245F0BD
:100580000105A061E80701D025F01005B6B1A6F17C
:100590004100192802D8203645F400654A46314604
:1005A000204625604D46FFF751FE58B1012806D080
:1005B000ED1D25F0070000F1080989E704E005F1C9
:1005C000040985E730468AE7206ABDE8F0874FF0E6
:1005D00000020429C0F0128010F0030C00F01B8010
:1005E000CCF1040CBCF1020F18BF00F8012BA8BF1E
:1005F00020F8022BA1EB0C0100F00DB85FEAC17CE2
:1006000024BF00F8012B00F8012B48BF00F8012B94
:1006100070474FF0000200B51346944696462039C5
:1006200022BFA0E80C50A0E80C50B1F12001BFF4AB
:10063000F7AF090728BFA0E80C5048BF0CC05DF811
:1006400004EB890028BF40F8042B08BF704748BF5F
:1006500020F8022B11F0804F18BF00F8012B7047D3
:100660007047704770472DE9F0470D46994692460E
:10067000044600F124080168880604D5E06921F0E9
:100680001001216000E00120A84201DD471B00E0CD
:100690000027A1697A1902EB0900081AA0612078E5
:1006A000C00602D42046AFF30080002608E0D4E95B
:1006B00001211AF806009047206A401C761C20622F
:1006C0004E45F4DB2078C0060AD52046AFF3008003
:1006D00006E0D4E9012130209047206A401C2062C6
:1006E000381EA7F10107F4DC07E0D4E9012118F86E
:1006F00005009047206A401C2062281EA5F10105D4
:10070000F3DC2046AFF300802078000602D50220FB
:10071000BDE8F0870120FBE770472DE9FF4F0C464D
:100720001E464FF0FF378BB0D2E90001DDF8608044
:100730000A908A46C1F30A5505B93D46002108468C
:100740004FF00000BAF1000F00F4400005DA00EBB2
:1007500080004FF4400101EA50004FEA9059B9F18E
:10076000010F00DDB9460A9850EA4A000ED044F65F
:100770001050A5F2FF3545432F14B8F1000F1ED0DD
:100780007542291E1EDDC9F100021CE0B8F1010FFF
:100790004FF0000001D0302103E0F24305E0215486
:1007A000401CB042FBDB30460022002121540B9953
:1007B000C1F80880C1E900200FB0BDE8F08FBD1B73
:1007C0006D1CDEE74A4600DA694206A800F072FABC
:1007D00006AB93E8070003AB83E8070050460A998D
:1007E00000F053FB8DE80700A0F500501F38009083
:1007F0000398002D0ADD42F21F014A4608440023F7
:1008000003A90390684600F0BCFD09E0A0F5005084
:100810004A461F38002303A90390684600F0C6FD2E
:100820008DE807000004000C03D04FF0FF304108B2
:1008300000E01046B8F1000F03D0002200921546E8
:100840001EE0751E05D400F0AFF9303262556D1E02
:10085000F9D5B3460122084302D000227F1C04E0F0
:100860002078302801D100227F1E002A099784D0E9
:100870001DE0112D07DA00F097F9303262556D1C3A
:1008800050EA0102F5D1084302D00098C8B10EE049
:100890000021681E05E0235C625C63542254401E04
:1008A000491C8142F7DBAB46A81B401E0990002083
:1008B00004F80B000B98099AC0F80880C0E9002BD7
:1008C0007AE711264FF0000857E72DE9F04F8846E8
:1008D0000446D21D22F0070191B0D1E90001CDE913
:1008E0000A0104F0D8FC02460B98C00F01D02D205D
:1008F00007E02068810701D52B2002E0202101EAD2
:10090000C000032A099001D0072A05DB03464146AF
:10091000204600F08FF90BE12078800601D5E069D0
:1009200000E00620B8F1650F814606D0B8F1660FE9
:1009300018D0B8F1670F70D131E00020B9F1110F74
:10094000009001DB112301E009F101030AAA01A9CA
:100950000CA8FFF7E2FEDDE90C70002609F10105A5
:10096000834647E001204B4600904FF000470AAA1B
:1009700001A90CA8FFF7D1FEDDE90DB00C995D4689
:10098000002610B909F101000D18B9EB050003D4D8
:10099000C0F1FF3609F10105A5EB09002BE0B9F123
:1009A000010F01DA4FF001090020B9F1110F009099
:1009B000484601DD112300E003460AAA01A90CA85C
:1009C000FFF7ABFEDDE90C704D460026834620782C
:1009D00000070AD4AB4500DA5D4601A8012D04DD0D
:1009E000411911F8011C302907D04F4502DA17F1DF
:1009F000040F04DA012082460FE06D1EEEE7002F9F
:100A000002DCED1B3E4403E0781CA84200DD7D1CA7
:100A1000B81B00F1010A4FF000472078000703D40B
:100A2000AA4501DB4FF0FF3A0021B7F1004F0DF16D
:100A300043088DF8431024D002202B23002F01DA25
:100A40007F422D230A21021EA0F1010000DC5FB1CC
:100A500097FBF1FC97FBF1F201FB1C7C17460CF1B4
:100A6000300C08F801CDEEE7A8F1010003702188F1
:100A7000090501D5452100E06521A0F1010800F834
:100A8000011C09980FA9A1EB0807FF1D00B1012067
:100A9000411901EBEA70A1693844081A401EA061AF
:100AA0002078C00602D42046AFF30080099828B110
:100AB000D4E901219047206A401C20622078C006BA
:100AC00022D52046AFF300801EE0002E04DBB345A4
:100AD00002DD01A8805D00E03020D4E901219047CB
:100AE000206A401C2062761CAAF101005FEA000A1D
:100AF0000AD100F055F8C0680168405CD4E90121D2
:100B00009047206A401C2062281EA5F10105DCDC0C
:100B100007E0D4E9012118F8010B9047206A401C36
:100B20002062381EA7F10107F3DC2046AFF30080F6
:100B3000032011B041E6000001694A1C02610878F7
:100B4000704700B58FB0CDE901310021059105490D
:100B50007944CDE9031011466846FFF7B1FC0FB0A8
:100B600000BD0000E5FFFFFF0A6802F8010B0A6004
:100B7000704710B5436913B1AFF3008001E0FFF790
:100B800039FC012010BD127800F124010A70002206
:100B90004A700122EDE711684FF0FF32E9E70000EB
:100BA000004870475003002030B5B0F10A024FEA08
:100BB000900E71F100034EEA817EB0EB0E0061EB06
:100BC00091014FEA101E4EEA017E10EB0E0041EB40
:100BD00011114FEA102E4EEA016E10EB0E0041EBA0
:100BE00011214FEA104E4EEA014E10EB0E0041EB80
:100BF0001141401841F100014FEAD00040EA417034
:100C00004FEAD10110EB80054FEA810444EA907469
:100C100044EB01046D1944EB0404521BA3414FF053
:100C2000000348BF0A3200D530BD401C41F100012D
:100C300030BD00002DE9F0411F460446032601683F
:100C4000072A01F4006004DB08B116A505E016A52B
:100C500003E008B115A500E015A521F01000206003
:100C6000A069C01EA0610FB1401EA0612046AFF375
:100C700000804FB1D4E9012138469047206A401CDA
:100C80002062C01C206206E0206AFAE7D4E9012154
:100C900015F8010B9047761EF8D22046AFF300807E
:100CA000BDE8F0814E414E006E616E00494E460037
:100CB000696E66002DE9F047814616468AB03548D0
:100CC00078440DC88DE80D0032487844801C03AC90
:100CD0000DC884E80D0041F69B300844372190FB95
:100CE000F1F290FBF1F5A5F1800501FB12041B3C2C
:100CF00002D56442012000E00020DFF898A0804681
:100D00000027FA44AAF1BE0A0EE0E0070AD03246F4
:100D1000684607EB470101230AEB810100F046FB1F
:100D20008DE8070064107F1C002CEED1194F7F4422
:100D3000AE3F19E0E80715D007EB04100DF1180AD3
:100D400090E80E008AE80E00C068F04201D19819C0
:100D500008903246012306A903A800F027FB03AB45
:100D600083E807006D10641C002DE3D14FF00103F0
:100D700032466946B8F1000F03A802D000F001FB2B
:100D800001E000F013FBC9E90001C9F808200AB02E
:100D9000BDE8F087145A0000004870473003002077
:100DA0007546FFF7F9FFAE4605006946534620F049
:100DB0000700854618B020B5FFF77EFABDE8204051
:100DC0004FF000064FF000074FF000084FF0000B07
:100DD00021F00701AC46ACE8C009ACE8C009ACE8BA
:100DE000C009ACE8C0098D46704710B50446AFF3A2
:100DF00000802046BDE81040FFF74ABA4FF0013CA2
:100E000050F8042B51F8043B9A4221D1A2EB0C0379
:100E1000934313EACC1317D150F8042B51F8043B39
:100E20009A4215D1A2EB0C03934313EACC130BD1D6
:100E300050F8042B51F8043B9A4209D1A2EB0C0361
:100E4000934313EACC13DBD04FF00000704700BF90
:100E5000D01A01BAB1FA81F101F0180122FA01F0B9
:100E6000CB40C1F12001DBB2C0B2C01A2CFA01F3B1
:100E7000D11A914311EAC311E6D1704701491820F4
:100E8000ABBEFEE72600020070475FEA400C08BFD9
:100E900091F0000F4FEA8C234FEAC12243EA5151EF
:100EA0004FEA1C5018BF00F5F0404FEA300018BF61
:100EB00041F000415FEA6C5C00F02980BCF1FF3F2B
:100EC00008BF40F080407047130C06BF12044FF07B
:100ED000100C4FF0000C130E04BF12020CF1080CA2
:100EE000130F04BF12010CF1040C930F04BF920006
:100EF0000CF1020CD30F04BF52000CF1010C11468F
:100F00004FF00002A0F11F00A0EB0C00704711F0A1
:100F1000004F08BF704731F000413FF4D5AF0B0CD4
:100F200006BF09044FF0100C4FF0000C0B0E04BF6D
:100F300009020CF1080C0B0F04BF09010CF1040CA1
:100F40008B0F04BF89000CF1020CCB0F04BF4900CA
:100F50000CF1010CCCF12003A0EB0C0022FA03F3FE
:100F600002FA0CF241EA030100F10100704720F09F
:100F70007F4C80EA030023F07F47ACEB070303F5C7
:100F80007C5300F0004003F1FF032DE980494FEA54
:100F9000154B09B44FEA144325EA0B4E24EA0348E3
:100FA0000FF2042606EB132749083E785FEA320267
:100FB00003FB0667C7F5000707FB06F64FEA543741
:100FC0004FEAD64606F1020607FB066CCCF1005C40
:100FD0004FEA1C472CEA074C07FB06F40CFB06F50E
:100FE00004EB15464FEA961634BF00204FF0004040
:100FF0004FEAD13706FB07FC4FEA1C4C0CFB0BF702
:10100000D21B03FB0CF761EB07010CFB0EF7B0EBF7
:10101000074072EB17420CFB08F734BFA2EB074204
:10102000B2EB074261EB17414FEA0C444FEA9107DC
:1010300006FB07FC4FEA1C4C0CFB0BF7B0EBC74060
:1010400072EB573203FB0CF734BFA2EBC742B2EB93
:10105000C74261EB57310CFB0EF7B0EBC70072EBE8
:1010600057720CFB08F734BFA2EBC702B2EBC70202
:1010700061EB5771039F4FEA816141EA921104EBE2
:10108000CC044FEAD1374FEA826206FB07FC42EA02
:1010900090124FEA80604FEA1C4C0CFB0BF7D21BFE
:1010A00003FB0CF761EB07010CFB0EF7B0EB0740FD
:1010B00072EB17420CFB08F734BFA2EB0742B2EB0E
:1010C000074261EB17414FEA8C554FEA910704EB59
:1010D0009C2406FB07FC4FEA1C4C0CFB0BF7B0EB07
:1010E000C74072EB573203FB0CF734BFA2EBC74289
:1010F000B2EBC74261EB57310CFB0EF7B0EBC70008
:1011000072EB57720CFB08F734BFA2EBC702B2EBCD
:10111000C70261EB577115EB4C254FEA816141EA3B
:1011200092114FEA82624FEAD13742EA901206FBEF
:1011300007FC44F100044FEA80604FEA1C4C0CFBB2
:101140000BF7D21B03FB0CF761EB07010CFB0EF74F
:10115000B0EB074072EB17420CFB08F734BFA2EB71
:101160000742B2EB074261EB174115EB1C154FEA42
:10117000813141EA92414FEA823242EA90424FEA9B
:1011800080304FEA0C7644F1000448EA03434EEA0B
:101190000B484FF0000EB2EB080C71EB030724BFB5
:1011A000624639464EEB0E0E4FF0000B00185241CE
:1011B00049414BEB0B0BB2EB080C71EB03077BF1D6
:1011C000000B24BF624639464EEB0E0E4FF0000B6B
:1011D0000018524149414BEB0B0BB2EB080C71EB81
:1011E00003077BF1000B24BF624639464EEB0E0E1F
:1011F00051EA020718BF46F0010616EB0E7655F1CC
:10120000000254F1000103D5BDE88901BDE8008862
:10121000BDE88901BDE80048B619524141EB010122
:10122000A3F10103704780807F7E7D7C7B7A797893
:10123000777676757473727171706F6E6E6D6C6C9B
:101240006B6A6A696868676666656464636362613D
:101250006160605F5F5E5E5D5D5C5C5B5B5A5A59BE
:10126000595858575756565555555454535352522A
:101270005251515050504F4F4F4E4E4D4D4D4C4C82
:101280004C4B4B4B4A4A4A494949484848474747CB
:101290004746464645454544444444434343434208
:1012A000424242414141002B9C4630D477002BD032
:1012B0001CB54FEA370703B44FF010004FF0100190
:1012C000BAF1000F06D0BCF1000FDCBF40F00800FF
:1012D00040F008014FF000000FBCBDE810400BF1DA
:1012E000010BBBF1010F08BF5FEA170722BF12F124
:1012F000010211F101014FF0004143F1000300F040
:10130000004043EA00007047F9D35708D0E746EAA7
:10131000064613F1400F4FEA16461FDD13F1200F6A
:10132000DFBF16430A46002120335B42BED0C3F123
:10133000200746EA064602FA07F74FEA164646EA4B
:101340000706C3F1200722FA03F201FA07F721FA90
:1013500003F14FF0000342EA0702A7E746EA02065C
:1013600046EA06464FEA164646EA0106BCBF46EA8A
:101370000646360C4FF000034FF000024FF000011C
:1013800094E72DE9804C9A46934670B491E8380072
:1013900007C831EA400C48BF34EA430C03D5FFF7D5
:1013A000E6FDFFF780FFF0BCBDE8008C2DE9804C26
:1013B0009A46934670B491E8380007C810F0804F01
:1013C00008BF13F0804F03D100F005F8FFF76BFF63
:1013D000F0BCBDE8008C20F07F4780EA030023F0DA
:1013E0007F4C07EB0C03A3F57C5300F00040A3F106
:1013F000FE0392F0000F00F0B38095F0000F00F0B4
:1014000077802DE901494FEA11404FEA144621EA5D
:10141000004800FB06FC24EA064708FB06F607FB2B
:1014200008F800FB07F718EB06484CEB164C4FEAA0
:10143000124B18EB07484FEA15464CEB174022EACF
:101440000B4E0BFB06FC25EA06470EFB06F607FBD8
:101450000EFE0BFB07F71EEB064E4CEB164C4FF047
:1014600000061EEB074E4CEB174B18EB0B0840F138
:10147000000018EB0E0B58EB000840F100008F1A2B
:101480004FF000013CBFC943661B14BFB5EB040C11
:1014900000213CBFC943F61B4FEA17444EEA8E0EAB
:1014A00027EA04454FEA1C4704FB07622CEA074C75
:1014B00005FB07F70CFB05F604FB0CFC16EB0746D7
:1014C00042EB174216EB0C4642EB1C421BEB0606A6
:1014D00058EB0202414146EA9E0601D5BDE801896A
:1014E000B619524141EB0101A3F10103BDE80189A5
:1014F0004FEA14454FEA114724EA054621EA074C12
:1015000005FB07F406FB07F70CFB06F105FB0CFCDB
:1015100011EB074144EB17444FEA124711EB0C4122
:1015200044EB1C4422EA074C05FB07F206FB07F7D5
:101530000CFB06F605FB0CFC16EB074642EB1742CC
:1015400016EB0C4642EB1C456A1854F1000148BFEB
:101550007047B619524141EB0101A3F101037047F5
:1015600095F0000F37D04FEA11424FEA144721EAB5
:10157000024624EA074C02FB07F106FB07F70CFBC7
:1015800006F402FB0CFC14EB074441EB17414FEA55
:10159000154714EB0C4441EB1C4125EA074C02FBB8
:1015A00007F506FB07F70CFB06F602FB0CFC16EB37
:1015B000074645EB174516EB0C4645EB1C42121946
:1015C00051F1000148BF7047B619524141EB01018A
:1015D000A3F1010370474FEA14454FEA114724EA8B
:1015E000054621EA074C05FB07F106FB07F70CFB54
:1015F00006F24FF0000605FB0CFC12EB074241EB34
:10160000174112EB0C4251EB1C4148BF7047921836
:1016100041EB0101A3F101037047FEE7014800F02F
:1016200098B9000058020020014800F092B900006B
:10163000B80200200D4902688A4201D20C4901E03B
:101640000B492031D2B21423083AB2FBF3F2436CB7
:1016500002F01F0223F0030319448164044980311E
:10166000C1640121914001657047000008040240F7
:10167000000802400179074A02EB81024265054AEF
:101680004432491E826501F01F0201219140C1656B
:1016900070470000FC08024030B5D0E91345656092
:1016A000446D14B1D0E91645656090F8444004F0EB
:1016B0001F050124AC40056C6C600468636083689E
:1016C000102B036803D099600068C26030BD9A6037
:1016D0000068C16030BD7047002240F6B83306E0B4
:1016E0000021491C89B29942FBD3521C92B282421A
:1016F000F6D3704772B6FEE72DE9F041454D464CF2
:101700000026287898B12E7062782A7143A104F1DE
:1017100053003032FEF75AFEA08940F00800A08145
:101720006078401CC0B26070092800D96670687883
:1017300098B16E70A27838486A713EA16730303235
:10174000FEF744FEA08940F01000A081A078401C64
:10175000C0B2A070092800D9A670A87898B1AE7060
:10176000E2782D48AA7139A17B303032FEF72EFE87
:10177000A08940F02000A081E078401CC0B2E07059
:10178000092800D9E670E8780127A8B3EE70287C14
:1017900090BB214829791430027891422DD1697982
:1017A0004278914229D1A9798078814225D14FF49C
:1017B000FA710807C16232218163C16A294AB2FB0A
:1017C000F1F12981816BC06A00EE101AF8EE400A2F
:1017D00000EE100A01210846B8EE401A80EE810A98
:1017E000DFED210A20EE200A85ED030A2F746F74C5
:1017F00002F07AFB02F0A4F904E02078401C20708B
:1018000002F042F92078032801D326702F75BDE835
:10181000F0810000180300201A0000202020202062
:1018200042313A2563202020202020202020202023
:10183000200000002020202042323A256320202072
:1018400020202020202020202000000020202020F8
:1018500042333A25632020202020202020202020F1
:101860002000000040420F000000C84210B590F870
:10187000253000210122022B03D00421C163012164
:1018800022E003681C6824F00E041C60836C1C6852
:1018900024F480741C6003681C6824F001041C603C
:1018A00090F84430046C03F01F0302FA03F3636002
:1018B000D0E913345C60436D33B11C6824F4807448
:1018C0001C60D0E916345C6080F82520002280F886
:1018D0002420084610BD70B590F825200024012171
:1018E0002346022A07D00422C26380F8251080F81C
:1018F0002430012429E00268156825F00E051560E2
:101900000268156825F001051560826C156825F4DC
:101910008075156090F84420056C02F01F0201FAF2
:1019200002F26A60D0E913255560426D32B1156844
:1019300025F480751560D0E91625556080F82510CE
:1019400080F82430816B01B18847204670BDC06BA0
:101950007047F0B4016C0C6801680D6890F8442081
:1019600002F01F06042202FA06F3234211D06B078D
:101970000FD50B689B0603D40B6823F004030B60A0
:1019800090F8441001F01F018A40016C4A60016B1D
:101990001DE0022303FA06F727424FF0000C4FF038
:1019A000010218D0AF0716D50C68A40605D40C6840
:1019B00024F00A040C6080F8252090F8441001F00F
:1019C0001F018B40016C4B6080F824C0C16A002964
:1019D0001AD0F0BC08470823B340234214D02B0789
:1019E00012D50B6823F00E030B6090F84410036CC3
:1019F00001F01F0102FA01F15960C26380F825204D
:101A000080F824C0416BE2E7F0BC704770B5040079
:101A10000CD02B4A21681420914209D2294A0A4449
:101A2000B2FBF0F08000606427480AE0012070BD3E
:101A3000234A52420A44B2FBF0F08000606420481E
:101A400008382064022084F825000A6847F6F07000
:101A50008243D4E902031843D4E904352B431843E5
:101A6000A3691843E3691843236A184310430860C5
:101A70002046FFF7DFFDA0680025B0F5804F00D1BC
:101A80006560A16C20790860D4E913014160606849
:101A9000401E032808D82046FFF7ECFD606D056066
:101AA000D4E91601416002E06565A565E565E56379
:101AB000012084F8250084F82450002070BD000027
:101AC00008040240F8FFFDBF0000024070B5044664
:101AD00090F82400002501280CD0012084F824006F
:101AE00094F825600020012E06D084F824000225F9
:101AF000284670BD022070BD022684F82560E06390
:101B00002068066826F0010606602046FFF7C4FD3F
:101B1000206B00282068016802D041F00E0106E029
:101B200021F0040101602068016841F00A010160B0
:101B3000A06C0168C90303D5016841F4807101609C
:101B4000606D18B1016841F480710160206801681E
:101B500041F001010160CBE770B5044600F044F9A3
:101B60000546601C02D004484068044400F03CF97B
:101B7000401BA042FAD370BD040000202DE9F04FB5
:101B8000DFF82092002301260324A9F1040B85B07D
:101B90000F2709F1040AABF1040EFAE006FA03F587
:101BA0002A407CD091F804C00CF0030CBCF1010F6A
:101BB00002D0BCF1020F26D1D0F808C0CDF800C089
:101BC0004FEA430C04FA0CF8CDF810C0DDF800C061
:101BD0002CEA080CCDF800C0D1F80C80DDF810C05C
:101BE00008FA0CF8DDF800C048EA0C08C0F80880D4
:101BF000D0F804C02CEA050C0D79C5F300159D4002
:101C000045EA0C0545600D79ED43AD070ED0C5687A
:101C10004FEA430804FA08FC25EA0C05D1F808C08D
:101C20000CFA08FC4CEA050CC0F80CC00D7905F064
:101C30000305022D16D1DD0800EB850CCDF808C098
:101C4000DCF820805D074FEAD56C07FA0CF528EA2E
:101C500005080D6905FA0CF5DDF808C045EA080528
:101C6000CCF8205005684FEA430CCDF808C004FAC0
:101C70000CFC25EA0C0591F804C00CF00308DDF813
:101C800008C008FA0CF848EA0508C0F800804D685A
:101C900015F4403F7CD0444DD5F860C000E077E0BB
:101CA0004CF0010CC5F860C02D6E23F0030C05F05C
:101CB000010500953D4D65440295AD684FEA837C72
:101CC0004FEA1C7807FA08FC25EA0C05B0F1904FA2
:101CD00006D0DFF8DCC0604505D14FF0010C20E0F4
:101CE0004FF0000C1DE0DFF8CCC0604502D14FF092
:101CF000020C16E0DFF8C0C0604502D14FF0030CC3
:101D00000FE0DFF8B8C0604502D14FF0040C08E0E6
:101D1000DFF8ACC0604502D14FF0050C01E04FF098
:101D2000060C0CFA08FC4CEA050C029DC5F808C02C
:101D3000D9F80050CC46D1F8048095435FEAC82812
:101D400000D51543CCF80050DAF80050D446D1F84D
:101D5000048095435FEA882800D51543CCF80050ED
:101D6000DBF80050DC46D1F8048095435FEA883800
:101D700000D51543CCF80050DEF80050F446D1F8F9
:101D8000048095435FEAC83800D51543CCF800506D
:101D90005B1C0A6832FA03F57FF400AF05B0BDE8BA
:101DA000F08F0000080401400010024000000140D4
:101DB0000004004800080048000C004800100048DB
:101DC000001400480069084000D0012070474269B3
:101DD00021EA02030A4043EA0241816170470AB1E5
:101DE00081617047816270470148806870470000D8
:101DF00004000020024881684268114481607047F5
:101E00000400002010B50024032000F073F80F2018
:101E100000F008F808B1012401E000F025F82046A0
:101E200010BD000070B50E4E05460024706898B1D4
:101E30004FF47A71B1FBF0F00A490968B1FBF0F098
:101E400000F064FD40B9102D06D200222946501E34
:101E500000F030F8356000E00124204670BD00003D
:101E600004000020100000200A4882B0016E41F0FA
:101E700001010166016E01F001010091816D41F0E7
:101E800080518165806D00F08050009002B000F0BC
:101E9000A1B8000000100240002809DB00F01F027A
:101EA000012191404009800000F1E020C0F80011BC
:101EB00070470000F0B40E4B1B680C46C3F30223BE
:101EC000C3F10705042D00D90425191D072901D2E6
:101ED000002300E0DB1E012606FA05F1491E214021
:101EE00099409E40761E16403143F0BC03F0EBB99A
:101EF0000CED00E0064900F0070208684FF6FF030A
:101F0000184040EA0220034A10430860704700006E
:101F10000CED00E00000FA052B492C4B0A68322139
:101F20004A432B4940B1B0F5007F086829D020F41E
:101F3000C06040F480602CE00868C0F341200228B3
:101F400004D051F8800F20F4807022E0D1F8800096
:101F500020F48070C1F88000086820F4C06040F46C
:101F600000700860B2FBF3F0401C00E0401E4A69BC
:101F7000520501D50028F9D1486940050AD503204A
:101F80007047C0F34120022806D051F8800F40F47A
:101F90008070086000207047D1F8800040F48070A5
:101FA000C1F88000086820F4C06040F40070086048
:101FB000B2FBF3F0401C00E0401E4A695205DBD53D
:101FC0000028F9D1D8E700001000002040420F009F
:101FD000007000400248816841F480418160704790
:101FE000007000402DE9F8430446006800269D4D2E
:101FF00000035ED5A86D0027C00008D4A86D40F08E
:102000008050A865A86D012700F080500090DFF88F
:102010005892D9F8001041F48071C9F80010FFF708
:10202000E3FE804606E000BFFFF7DEFEA0EB0800FF
:1020300002282BD8D9F80000C005F5D5D5F89000B6
:1020400010F4407014D0216C814211D0D5F890006A
:10205000D5F8901020F4407041F48031C5F890100C
:10206000D5F8901021F48031C5F89010C5F8900093
:10207000C00711D0FFF7B8FE804641F2883907E06B
:10208000FFF7B2FEA0EB0801494501D903260BE09A
:10209000D5F890008007F3D5D5F89000216C20F496
:1020A00040700843C5F890001FB1A86D20F0805023
:1020B000A8652078C00707D0D5F88800616820F0AF
:1020C00003000843C5F888002078800707D5D5F8B5
:1020D0008800A16820F00C000843C5F8880020782B
:1020E000400707D5D5F88800E16820F030000843A4
:1020F000C5F888002078000707D5D5F88800216941
:1021000020F0C0000843C5F888002078800607D575
:10211000D5F88800616920F440600843C5F888005C
:102120002078400607D5D5F88800A16920F44050F2
:102130000843C5F888002078000607D5D5F8880040
:10214000E16920F440400843C5F888002088C005B4
:1021500007D5D5F88800216A20F440300843C5F837
:1021600088002088800507D5D5F88800616A20F4AA
:1021700040200843C5F88800208840050FD5D5F8D1
:102180008800A16A20F440100843C5F88800A06ABE
:10219000B0F5801F03D1E86840F48010E860208823
:1021A00000050FD5D5F88800E16A20F44000084307
:1021B000C5F88800E06AB0F5800F03D1E86840F404
:1021C0008010E8602088C0040FD5D5F88800216B06
:1021D00020F040700843C5F88800206BB0F1807F84
:1021E00003D1E86840F48010E86020884FF0006177
:1021F00080040ED5D5F88800626B20F04060104353
:10220000C5F88800606B884203D1E86840F480100C
:10221000E860208840040ED5D5F88800A26B20F035
:1022200040601043C5F88800A06B884203D1E8687D
:1022300040F48010E860208800040FD5D5F88800AD
:10224000E16B20F040500843C5F88800E06BB0F126
:10225000805F03D1E86840F48030E8603046BDE834
:10226000F883000000100240007000402DE9F047A4
:102270000E4605004FF0000725D0DFF8AC81D8F8F6
:10228000000000F00F00B0420CD2D8F8001021F08E
:102290000F013143C8F80010D8F8000000F00F001B
:1022A000B04210D12968614CC80741F2883A5AD02F
:1022B0006868DFF87C91032808D0022820682DD0B8
:1022C000400500282CDB0120BDE8F0872068800154
:1022D000F9D5E06800F00302E068C0F30310401C89
:1022E000032A19D0534A00BFB2FBF0F0E268C2F3F0
:1022F00006225043E268C2F34162521C5200B0FB16
:10230000F2F0484517D9A06810F0F00F0CD08807FC
:1023100011D5A86840B10EE0474AE5E78003D0E751
:1023200000F0B6F8484506D9A06820F0F00040F06B
:102330008000A0608027A068696820F0030008433F
:10234000A060FFF751FD814606E000BFFFF74CFD9E
:10235000A0EB090151453AD8A068696800F00C006B
:10236000B0EB810FF2D12868810714D5400703D55F
:10237000A06840F4E060A0602878000705D5A06858
:1023800020F4605040F4E060A060A068A96820F0EC
:10239000F000084304E0802F03D1A06820F0F00093
:1023A000A060D8F80010404601F00F01B14216D9E4
:1023B000016821F00F0131430160FFF715FD074669
:1023C00007E000BFFFF710FDC11B514501D90320F5
:1023D0007AE7D8F8000000F00F00B042F2D1287878
:1023E000400705D5A068E96820F4E0600843A060D4
:1023F0002878000706D5A068296920F4605040EAD3
:10240000C100A06000F044F8A1680C4AC1F30311B8
:10241000515C01F01F01C840094908600948006883
:10242000BDE8F047FFF7FEBC00200240001002406C
:1024300000B4C4040024F40000366E017454000893
:102440001000002004000020054806490068896843
:10245000054AC1F30221515C01F01F01C8407047D9
:10246000100000200010024084540008054806496E
:1024700000688968054AC1F3C221515C01F01F015F
:10248000C84070471000002000100240845400082B
:10249000184910B58868C0F381021748012A0BD08B
:1024A0008A68164BC2F38102022A06D08A68C2F3F8
:1024B0008102032A03D0002010BD184610BDCA684F
:1024C00002F00304CA68C2F30312521C032C02D0A8
:1024D000B0FBF2F001E0B3FBF2F0CA68C968C2F3E6
:1024E00006225043C1F34161491C4900B0FBF1F0A1
:1024F00010BD0000001002400024F40000366E0100
:102500002DE9F84304007AD02078FA4DC00747D06F
:10251000A868E96800F00C0001F003010C2802D063
:10252000082817D001E0032914D06068B0F5803F77
:1025300017D0B0F5A02F286817D020F4803028607D
:10254000286820F4802028606068E0B1FFF74CFC28
:10255000064614E02868800322D560680028D2D09F
:102560001EE0286840F48030EDE740F480202860C9
:10257000F7E700BFFFF738FC801B642870D8286895
:102580008003F7D50CE0FFF72FFC064605E000BFFF
:10259000FFF72AFC801B6428F0D828688003F7D452
:1025A000207880074CD5A868E96800F00C0001F09D
:1025B00003010C2802D004280DD001E002290AD022
:1025C000E068002828682BD040F480702860FFF76E
:1025D0000BFC064619E02868400502D5E068002893
:1025E00091D06868217C20F0FE4040EA016068607C
:1025F000C1480068FFF716FC002800D120E076E112
:10260000FFF7F2FB801B0228B8D828684005F7D5F1
:102610006868217C20F0FE4040EA016068600FE0BD
:1026200020F480702860FFF7DFFB064605E000BF5E
:10263000FFF7DAFB801B0228A0D828684005F7D4F2
:102640002078000729D560690028D5F8940013D0B8
:1026500040F00100C5F89400FFF7C6FB064606E00F
:1026600090E000BFFFF7C0FB801B022886D8D5F89A
:1026700094008007F6D510E020F00100C5F8940022
:10268000FFF7B2FB064604E0FFF7AEFB801B022813
:1026900078D8D5F894008007F6D42078400761D523
:1026A000A86D0026C00008D4A86D40F08050A86531
:1026B000A86D012600F08050009090480168C9057F
:1026C00011D40168804641F480710160FFF78CFBF2
:1026D000074604E0FFF788FBC01B022852D8D8F851
:1026E0000000C005F6D5A068012815D00528D5F84A
:1026F000900016D020F00100C5F89000D5F89000A9
:1027000020F00400C5F89000A06841F28838B8B104
:10271000FFF76AFB07460EE0D5F8900040F0010095
:10272000F0E740F00400C5F89000F5E7FFF75CFB28
:10273000C11B414526D8D5F890008007F6D50CE09E
:10274000FFF752FB074604E0FFF74EFBC11B414574
:1027500018D8D5F890008007F6D41EB1A86D20F0E7
:102760008050A8652078800629D5A0690028D5F872
:10277000980013D040F00100C5F89800FFF734FB33
:10278000064606E077E000BFFFF72EFB801B02281D
:1027900077D8D5F898008007F6D510E020F0010032
:1027A000C5F89800FFF720FB064604E0FFF71CFB86
:1027B000801B022865D8D5F898008007F6D4E06918
:1027C000F0B3A968C1F38101032961D00228286808
:1027D00020F0807028600BD0E86820F00300E860EB
:1027E000E86847490840E860FFF7FEFA04464BE016
:1027F000FFF7FAFA064604E0FFF7F6FA801B022814
:102800003FD828688001F7D4F4E908016FF00F027F
:1028100002EB01110843218A5204490802EB41519D
:10282000A26841EA02210843217D4FF07E42490817
:1028300002EB41610843217B40EAC160E96800E0A6
:1028400062E0304A11400843E860286840F0807038
:102850002860E86840F08070E860FFF7C5FA044639
:1028600005E000BFFFF7C0FA001B022809D828685E
:102870008001F7D548E004E0FFF7B6FA001B022814
:1028800002D90320BDE8F88328688001F4D43BE036
:102890000128F7D0E868226A00F00301914226D1AE
:1028A000616A00F0F0020901103991421FD1A26A59
:1028B00000F4FE41B1EB022F19D194F82C2000F066
:1028C0007841B1EBC26F12D1218E00F4C0024908E9
:1028D0004905A1F50011914209D194F8341000F096
:1028E000C06049084906A1F1007181420CD0012065
:1028F000C8E7000000100240040000200070004003
:10290000FFFFEEFE0C809F010020BBE710B5401ECC
:10291000B0F1807F01D3012010BD4FF0E024606151
:102920000F21601702F0CFFC0020A061072020617A
:10293000002010BD70477047704770477047704760
:10294000F0B590F83C20012A3AD0012580F83C509F
:10295000022280F83D2003685A689C68194E1A4F7D
:10296000B34201D0BB4204D122F4700C4A6842EA5F
:102970000C02DFF858C002EA0C02D1F800C04CEAA1
:10298000020CC3F804C00268B2420DD0B2F1804F0D
:102990000AD00F4B9A4207D00E4B9A4204D0BA424B
:1029A00002D00D4B9A4204D1896824F08003194368
:1029B000916080F83D50002180F83C100846F0BD41
:1029C0000220F0BD002C0140003401408FFFFFFDCC
:1029D000000400400008004000400140704710B56E
:1029E000040003D094F83D0010B107E0012010BDB1
:1029F000002084F83C00204600F022F8022084F8F1
:102A00003D00211D206801F0F7FD012084F84800F9
:102A100084F83E0084F83F0084F8400084F84100C8
:102A200084F8420084F8430084F8440084F84500A8
:102A300084F8460084F8470084F83D00002010BD6B
:102A400008B501681048B1F1804F14D00F4A914287
:102A500019D1816D41F010018165806D002200F077
:102A60001000009011463620FFF724FABDE8084018
:102A70003620FFF711BA816D41F001018165806D4B
:102A800000F00100009008BD00100240001000405E
:102A900090F83D10012901D001207047022180F8F3
:102AA0003D100168CA6842F00102CA60006810491E
:102AB00088420ED0B0F1804F0BD00E49884208D02A
:102AC0000D49884205D00D49884202D00C49884200
:102AD00007D181680B4A1140062906D0B1F5803F25
:102AE00003D0016841F0010101600020704700003F
:102AF000002C014000040040000800400034014068
:102B0000004001400700010070B5044690F83C0009
:102B10000025012814D0012684F83C60022084F8A6
:102B20003D0022689068364B184020F47F4090604A
:102B3000086870282ED010DC10F00F0F03D021E0B1
:102B40004FF0020070BD4FEA2012072A1AD2DFE8C8
:102B500002F0525252524A3840002A4BC21A98424E
:102B600049D009DCB0F5805F0DD0B0F5005F1CD016
:102B7000B0F1101F06D13EE0102A3CD0202A3AD0F6
:102B8000502A38D0012584F83D60002084F83C00AC
:102B9000284670BDCB68D1E90121206801F091FD84
:102BA0002068816841F0770109E0CB68D1E9012113
:102BB000206801F086FD2068816841F480418160D1
:102BC000E1E7CA684968206801F026FF50212068C3
:102BD00006E0CA684968206801F02FFF602120687C
:102BE00001F07AFDCFE7CA684968206801F014FF58
:102BF00040212068F4E7226801461046F0E7000013
:102C000088FFCEFF20001000704770B504460068B2
:102C100001694FF00005C943890715D4C168C9434C
:102C2000890711D4E91E016101202077206880699D
:102C30008007204602D0FFF7E7FF04E000F00AF922
:102C4000204600F0CCF9257720680169C94349077F
:102C500017D4C168C943490713D46FF00401016157
:102C6000022020772068806910F4407F204602D03F
:102C7000FFF7CAFF04E000F0EDF8204600F0AFF9DE
:102C8000257720680169C943090716D4C168C9437B
:102C9000090712D46FF00801016104202077206831
:102CA000C0698007204602D0FFF7AEFF04E000F0C5
:102CB000D1F8204600F093F9257720680169C943CF
:102CC000C90617D4C168C943C90613D46FF01001EF
:102CD0000161082020772068C06910F4407F2046F9
:102CE00002D0FFF791FF04E000F0B4F8204600F0B6
:102CF00076F9257720680169C943C90708D1C168F9
:102D0000C943C90704D1891E0161204600F0E6F9D4
:102D100020680169C943090609D4C168C943090685
:102D200005D46FF0800101612046FFF704FE2068A2
:102D30000169C943C90509D4C168C943090605D455
:102D40006FF4807101612046FFF7F4FD206801698E
:102D5000C943490609D4C168C943490605D46FF07F
:102D600040010161204600F023FA20680169C9434F
:102D7000890609D4C168C943890605D46FF02001CA
:102D800001612046FFF7D8FD20680169C943C902E7
:102D900009D4C168C943C90205D46FF48011016127
:102DA0002046FFF7CBFD20680169C943890209D499
:102DB000C168C943890205D46FF40011016120463E
:102DC000FFF7BBFD20680169C943490209D4C16806
:102DD000C943490205D46FF4800101612046FFF721
:102DE000AEFD20680169C94309020BD4C168C9431B
:102DF000090207D46FF4000101612046BDE870406C
:102E0000FFF7ECBD70BD000010B586B0044614217C
:102E10006846FDF7FEFB2068B0F1804F15D10C48E5
:102E2000C16C41F00101C164C06C694600F0010051
:102E30000590022000900190002002900390012054
:102E400004904FF09040FEF799FE06B010BD0000D0
:102E500000100240704770B5044690F83C00002610
:102E60000D4601280BD0012084F83C000C2A4AD0E2
:102E700007DC82B1042A20D0082A06D131E00220E2
:102E800070BD102A53D0142A63D00126002084F884
:102E90003C00304670BD206801F028FC2068816944
:102EA00041F0080181612068816921F0040181619C
:102EB000206881692A69114311E0206801F064FCEF
:102EC0002068816941F4006181612068816921F491
:102ED00080618161206881692A6941EA02218161FA
:102EE000D4E7206801F098FC2068C16941F008012E
:102EF000C1612068C16921F00401C1612068C16914
:102F00002A69114311E0206801F0CEFC2068C169F4
:102F100041F40061C1612068C16921F48061C1612F
:102F20002068C1692A6941EA0221C161AEE72068CF
:102F300001F002FD2068016D41F008010165206883
:102F4000016D21F0040101652068016D2A691143BA
:102F500011E0206801F028FD2068016D41F4006156
:102F600001652068016D21F4806101652068016DB3
:102F70002A6941EA0221016588E710B5040003D0FF
:102F800094F83D0010B107E0012010BD002084F846
:102F90003C00204600F022F8022084F83D00211D6C
:102FA000206801F029FB012084F8480084F83E00E5
:102FB00084F83F0084F8400084F8410084F842001F
:102FC00084F8430084F8440084F8450084F84600FF
:102FD00084F8470084F83D00002010BD704770471A
:102FE00030B50446022269B1042912D0082917D04D
:102FF0000C291CD0102921D094F84300012824D09A
:10300000012030BD94F83E000128F9D184F83E201B
:103010001DE094F83F000128F2D184F83F2016E02B
:1030200094F840000128EBD184F840200FE094F898
:1030300041000128E4D184F8412008E094F84200DE
:103040000128DDD184F8422001E084F843200122E8
:10305000206801F029FB194B20681949194A984248
:1030600009D0884207D0904205D0174DA84202D01F
:10307000164DA84203D1456C45F4004545642068CF
:1030800098420CD0B0F1804F09D0114B984206D035
:10309000104B984203D0884201D0904207D18168FA
:1030A0000D4A1140062906D0B1F5803F03D00168D2
:1030B00041F001010160002030BD0000002C014002
:1030C00000340140004001400044014000480140FC
:1030D0000004004000080040070001002DE9F04115
:1030E0002E49884257D12E4C0026E079401CC0B2B0
:1030F000E071A179491CA171142802D1E67100F098
:10310000F7FBA079642803D1A671608A401C608215
:10311000244D41F28837687CA0B1E089401C80B220
:10312000E081B8420ED1E6816E740021012000F0EA
:10313000DBFE4FF47A71C806C162491081632E74B8
:1031400000F0A2FC287D002825D0208A401C80B2F7
:103150006421B0FBF1F2208201FB120080B94FF430
:1031600000711148FEF733FEDFF840800122042190
:103170004046FEF734FE002204214046FEF72FFEB3
:10318000208AB84207D126822E75BDE8F041002181
:10319000022000F0A9BEBDE8F08100004801002037
:1031A0001A0000201803002000080048000C004806
:1031B000704790F88010012918D0012180F8801004
:1031C0002421C0F8841050F8641B0A680B6823F0AF
:1031D00001030B6022F000510022026050F8643CB1
:1031E0001960202101620277104670470220704763
:1031F0007047704770B5044690F8800001281DD0D4
:10320000012084F880002420C4F884002068056828
:10321000026822F0010202602068826822F0606287
:103220000A438260204601F01BFC206805602020D4
:10323000C4F88400002084F8800070BD022070BDB6
:1032400070B5044690F8800001281DD0012084F854
:1032500080002420C4F8840020680568026822F0F9
:10326000010202602068826822F060420A438260A4
:10327000204601F0F5FB206805602020C4F884009A
:10328000002084F8800070BD022070BD7047704738
:1032900070B50446D0F88400D4F888602168896845
:1032A0004FF01005090618D5212816D120680830DE
:1032B00050E8001F21F0800140E80012002AF5D1FB
:1032C000A06F38B1FEF7D2FA20B1A06FFEF73FFB36
:1032D000202821D0204601F025FD20688068400686
:1032E00018D5222E16D12068083050E8001F21F092
:1032F000400140E80012002AF5D1E06F38B1FEF736
:10330000B5FA20B1E06FFEF722FB202804D020465A
:1033100001F0DEFC002070BDC4F88C50032070BDAD
:10332000704700002DE9F04103680446D869196828
:103330009A6840F60F0528424FF0000509D186062D
:103340007ED501F0200602F080573E4378D0216FF1
:1033500027E1A94EA94F16400F40374370D0C70749
:1033600009D0CF0507D501271F62D4F88C3043F070
:103370000103C4F88C3083070AD5D30708D0276827
:1033800002233B62D4F88C3043F00403C4F88C3041
:1033900043070AD5D30708D0276804233B62D4F833
:1033A0008C3043F00203C4F88C3003070CD501F0D5
:1033B0002003334308D0266808233362D4F88C30C6
:1033C00043F00803C4F88C3003050BD54B0109D535
:1033D00026684FF400633362D4F88C3043F0200346
:1033E000C4F88C30D4F88C30002B3AD0800609D544
:1033F00001F0200002F08051084303D0216F09B191
:1034000020468847D4F88C0021688968490602D490
:1034100010F0280F27D0204601F05AFC2068806861
:1034200040061BD52068083050E8001F21F04001FD
:1034300040E80012002AF5D1E06F78B1704900E051
:1034400017E08163E06FFEF746FA002809D0E06FCD
:10345000816B00E02046BDE8F04108472046FFF7B9
:103460005FFFBDE8F0812046FFF75AFFC4F88C509B
:10347000F7E7E76E2026012F7ED1C7067CD5CF0661
:103480007AD51020186220688068400642D5E16F26
:10349000086840680004000CE3D0B4F85C20824265
:1034A000DFD9A4F85E000868006880062BD4206885
:1034B00050E8001F21F4807140E80012002AF6D184
:1034C0002068083050E8001F21F0010140E8001298
:1034D000002AF5D12068083050E8001F21F0400193
:1034E00040E80012002AF5D1C4F88860E56621683A
:1034F00051E8000F20F0100041E80002002AF6D148
:10350000E06FFEF7B3F9B4F85C00B4F85E10401A4F
:1035100081B22CE0B4F85C00B4F85E10401A81B2BD
:10352000B4F85E0000289CD000299AD0226852E8A6
:10353000000F20F4907042E80003002BF6D12E4BD0
:10354000DB432068083050E8002F1A4040E800278D
:10355000002FF6D1C4F88860E5662567226852E836
:10356000000F20F0100042E80003002BF6D12046A7
:10357000FFF73EFE75E7FFE7C70209D5570207D5FB
:103580004FF4801018622046BDE8F041FFF77FBE7F
:1035900003060AD501F0800302F40002134304D0AD
:1035A000616F00297FF456AF5BE7420611D54A06EA
:1035B0000FD52046016851E8002F22F0400241E873
:1035C0000023002BF6D1C0F88460456700F056F95F
:1035D00047E7020206D54A0004D52046BDE8F0417F
:1035E000FFF754BEC001C5D50029C3DA2046BDE8A7
:1035F000F041FFF7FEBD00000100001020010004B3
:10360000CD4B000810B5040003D0D4F8840010B1ED
:1036100007E0012010BD002084F88000204600F063
:1036200027F82420C4F884002068016821F00101F3
:103630000160204601F08EFB0128EBD0A06A10B19A
:10364000204601F02FFA2068416821F49041416042
:103650002068816821F02A0181602068016841F0BA
:10366000010101602046BDE8104001F07FBA000072
:103670002DE9F04198B00646142111A8FCF7C9FFC6
:1036800044216846FCF7C5FF33493068884260D161
:1036900001200024CDE900046846FEF7A3FC08B130
:1036A000FEF728F82D48016E41F480410166016E55
:1036B00001F480411691C16C41F00101C164C06CFC
:1036C00011A900F0010016904FF4C0601190022083
:1036D000CDE912040720CDE914404FF09040FEF7E9
:1036E0004DFA204D1E484FF0800828601820C5E98B
:1036F0000104C5E903486C614FF48057AC61C5E92A
:1037000007472846FEF782F908B1FDF7F3FFF56792
:10371000AE62144D1248603514302860192068607C
:1037200005F10801102081E811016C61AC61C5E967
:1037300007472846FEF76AF908B1FDF7DBFFB567D2
:10374000002201212520AE62FEF7B4FB2520FEF702
:10375000A3FB18B0BDE8F081003801400010024022
:10376000080002405802002030B4D0F88830202BE6
:1037700020D1E1B1DAB190F88030012B1AD00123C9
:1037800080F880300023C3660B4C0368A3420BD043
:103790005B681B0208D5046854E8003F43F080636F
:1037A00044E80035002DF6D130BC01F00DBC0120FD
:1037B00030BC70470220FBE7008000407047704734
:1037C0002DE9F8430446D0F884001F4616460D46FE
:1037D000202851D1DDB1D6B194F8800001284BD01A
:1037E000012084F880004FF00008C4F88C8021206C
:1037F000C4F884001834FEF7F7FAA6878146E687F6
:1038000054F8100C183CB0F5805F03D004E00120A0
:10381000BDE8F883206920B12E46002584F8808019
:1038200010E00026FAE78021204601F01FFCB8B91D
:10383000C6B116F8010B21688862B4F85600401E24
:10384000A4F85600B4F856004B464FF0000200971B
:103850000028E8D14FF04001204601F007FC30B1CC
:103860000320D5E735F8020BC0F30800E3E720207A
:10387000C4F884000020CBE70220C9E77047FEE7C8
:1038800070B51A4C01212046FEF79CFA4FF0904586
:1038900070B102212046FEF795FA48B10421204676
:1038A000FEF790FA20B101212846FEF78BFA98B96D
:1038B00001212046FEF786FA80B102212046FEF75C
:1038C00081FA68B104212046FEF77CFA50B101214B
:1038D0002846FEF777FA38B1002070BD012070BD90
:1038E000022070BD032070BD042070BD000400489C
:1038F00010B5FFF7C5FF1E4988724B7980EA0302B5
:1039000082430A7230EA03034B72487102D00020EE
:10391000488202E0488A0A2810D201211548012A6B
:103920000DD0022A13D0032A19D0042A06D1027C12
:10393000002A03D1027D002A00D1C17010BD027C93
:10394000002AFBD1027D002AF8D1017010BD027C53
:10395000002AFBD1027D002AF8D1417010BD027C03
:10396000002AFBD1027D002AF8D1817010BD000031
:103970001A0000201803002000B585B01421684605
:10398000FCF747FE4FF6FF70009000200321CDE9C1
:103990000201019069460248FEF7F0F805B000BD4B
:1039A0000008004800B585B014216846FCF731FED8
:1039B0004FF6FF700090012001900320039000203B
:1039C000029069460248FEF7D9F805B000BD000034
:1039D0000008004870B5002406462146204600F045
:1039E000B5F900F0F7F94FF49635304600F0C2F91A
:1039F000641CAC42F9D370BD30B587B01421684661
:103A0000FCF707FE1E48C16C41F00401C164C16CA3
:103A100001F004010591C16C41F00101C164C16C68
:103A200001F001010591C16C41F00201C164C06C5B
:103A3000012500F0020005904FF44870CDE9000523
:103A400000240394694602940E48FEF797F8280272
:103A500003940090CDE901544FF09044694620460C
:103A6000FEF78CF8FFF79EFFA06940F48070A0611C
:103A700004481830016841F40871016007B030BD96
:103A8000001002400004004870B5134C4020134D54
:103A900020716071A07100206870A870E87010A19A
:103AA00005F12B00FCF792FC227913A105F15300DC
:103AB000FCF78CFC627916A105F16700FCF786FC27
:103AC000A27919A105F17B00FCF780FCA88940F0E0
:103AD000FF00A88170BD0000180300201A0000201C
:103AE000202020202020205053442020202020204F
:103AF00020202020000000002020202042313A25F4
:103B000063202020202020202020202020000000D2
:103B10002020202042323A2563202020202020200F
:103B200020202020200000002020202042333A25A1
:103B300063202020202020202020202020000000A2
:103B400010B511A11648FCF741FC164C144816A1FB
:103B500022892830FCF73AFCE06801F0FFFB41ECD9
:103B6000100B0F4853EC102B14A13C30FCF72EFC2B
:103B70000B4818A15030FCF729FC09482B388189E3
:103B800041F0FF01818110BD202020202020205302
:103B90005441202020202020202020200000000050
:103BA000450000201803002020202020463A2564EC
:103BB000487A2020202020202020000020202020C3
:103BC000443A252E30662525202020202020202044
:103BD0002020200020202020202020202020202005
:103BE000202020202020202000000000203AD2B2F7
:103BF000034B02EB420203EB021200F019B8000083
:103C00008C540008F0B50E460746002540F23F14DC
:103C100007E021463846FFF7E9FF103C6D1CA4B2CF
:103C2000761C3278002A01D0142DF2D3F0BD0000AA
:103C30002DE9F04791468A460026044600F086F8B2
:103C4000DFF84080012700BF00F0C4F85FF00005F6
:103C500039F8160007FA05F10842404601D14088BC
:103C600000E0008800F086F86D1C102DF0D3641C75
:103C7000E4B25146204600F069F8761C182EE3D3D2
:103C8000BDE8F0871400002010B5FFF7B5FE002056
:103C900000F014F8084CA080A088A0F5024130394B
:103CA00006D000F03FFB002000F008F8A08010BD17
:103CB00000F0AFFAF7E700001400002070B51D49CE
:103CC0000A6842F400720A600A6842F480720A606C
:103CD000184C103C226842F020022260164A106004
:103CE000086840F02000086000BF00BF00BF2068E7
:103CF00040F020002060206840F480702060FFF7D2
:103D00003BFE4FF09041886A40F48070886200BFAB
:103D100000BF00BF0848001F006885B2886940F4F2
:103D200080708861FFF73EFE206840F400702060DC
:103D3000284670BD280400481408004801B5BDF8A5
:103D400000000149488008BD1400002010B50C4651
:103D50000146202000F06EF82146BDE810402120E9
:103D600000F068B801B5BDF800000149088008BD41
:103D70001400002030B5154B1C68154A116841F439
:103D800000711160124910390D6845F480750D609D
:103D90000D6845F020050D601860106840F02000A7
:103DA000106000BF00BF00BF086840F0200008603E
:103DB000086840F48070086000BF00BF00BF08685A
:103DC00040F4007008601C6030BD0000140800481A
:103DD00028040048154A10B513681549086840F4CE
:103DE00000700860086840F480700860104810385F
:103DF000046844F020040460222414600C6844F039
:103E000020040C6000BF00BF00BF016841F020012A
:103E10000160016841F48071016000BF00BF00BF14
:103E2000016841F400710160136010BD140800487E
:103E30002804004870B5194C2568194B1A6842F4DB
:103E400000721A601A6842F480721A60144A103ABA
:103E5000166846F0200616602060186840F02000C2
:103E6000186000BF00BF00BF106840F02000106065
:103E7000106840F4807010602160186840F02000E5
:103E8000186000BF00BF00BF106840F02000106045
:103E9000106840F480701060256070BD1408004800
:103EA000280400482DE9F0410E4E0024012506F1BA
:103EB000170700BFB18905FA04F008420BD081430F
:103EC000B18104EB840007EB800104EB4400C006E1
:103ED000000EFFF797FE641CE4B20A2CEAD3BDE89B
:103EE000F08100001A00002010B50C4B00020129DF
:103EF00011D0012201461846FDF771FF084C01223E
:103F000004212046FDF76BFF20460022BDE810404B
:103F10000421FDF764BF0022ECE700000008004820
:103F2000000C0048114808B5816C41F0040181641F
:103F3000816C01F004010091816C41F00101816408
:103F4000806C002200F00100009011460B20FDF76C
:103F5000B1FF0B20FDF7A0FF002211460C20FDF75A
:103F6000A9FFBDE808400C20FDF796BF00100240F5
:103F70002DE9F04186B014216846FCF74AFB45481C
:103F8000C16C41F00401C164C16C01F004010591F0
:103F9000C16C41F02001C164C16C01F020010591A8
:103FA000C16C41F04001C164C16C01F04001059158
:103FB000C16C41F00101C164C16C01F001010591C6
:103FC000C16C41F00201C164C16C01F002010591B4
:103FD000C16C41F00801C164C06C2F4F00F00800B3
:103FE0004FF47F440590012221463846FDF7F7FE45
:103FF000DFF8A880002204214046FDF7F0FE0125ED
:10400000CDE9004500240294694638460394FDF743
:10401000B5FDA8020326CDE90006694602942048B2
:10402000FDF7ACFDFF20CDE9000669460294384655
:10403000FDF7A4FDCDE900544FF09047694638469E
:104040000295FDF79BFD49F6FC10CDE90006694697
:1040500002943846FDF792FD07208DE83100114F9C
:1040600069463846FDF78AFD4FF6F870CDE900063F
:10407000694602943846FDF781FD04200090CDE9A1
:104080000154694640460394FDF778FD06B0BDE84B
:10409000F08100000010024000080048000C0048B9
:1040A000001800480004004810B58EB000240794A2
:1040B000089409940A940B940C941C2168460D945E
:1040C000FCF7A7FA1D484FF0804101604F21C0E97D
:1040D000011440F2E731C0E903148461FEF77FFC6C
:1040E00008B1FDF707FB4FF48050079007A913486C
:1040F000FEF70AFD08B1FDF7FDFA1048FEF73DFF97
:1041000008B1FDF7F7FA0B940BA90C480D94FEF7D4
:1041100017FC08B1FDF7EEFA6020CDE90004029427
:104120000422694605480494FEF795FE08B1FDF7A0
:10413000E1FA0248FEF768FE0EB010BDFC00002058
:104140003EB500240F48009401940D49029401608B
:104150004F21C0E9011440F2E7318461C160FEF7EC
:104160003EFC08B1FDF7C6FA009469460548029482
:10417000FEF7E6FB002801D0FDF7BCFA3EBD0000CB
:10418000001000404801002010B51F4C1D480C21B4
:1041900020604FF4165060600020A060E060C4E929
:1041A0000401A061E06120626062A0622046FFF726
:1041B00029FA08B1FDF79EFA00211348FFF740F8ED
:1041C00008B1FDF797FA00210F48FFF713F808B17F
:1041D000FDF790FA0C48FEF7ECFF08B1FDF78AFAFC
:1041E0002068016841F0200101602068016841F009
:1041F0001001016004493222BDE810403439024800
:10420000FFF7B2BA00380140C8010020FEE7FEE720
:10421000704730B501210020FFF70CFE4FF47A7093
:10422000FDF75AFA00210120FFF704FE41F29071D8
:104230001020FFF7FFFD4FF41C516020FFF7FAFD3F
:1042400001216120FFF7F6FD02214620FFF7F2FD74
:1042500048F210011320FFF7EDFD48F2FE01122095
:10426000FFF7E8FD4FF4A0610220FFF7E3FD41F204
:1042700030010320FFF7DEFD40F2033421463020F9
:10428000FFF7D8FD21463120FFF7D4FD214632202B
:10429000FFF7D0FDE51E29463320FFF7CBFD0321B4
:1042A0003420FFF7C7FD21463520FFF7C3FD142159
:1042B0003620FFF7BFFD21463720FFF7BBFD214623
:1042C0003820FFF7B7FD21463920FFF7B3FD294617
:1042D0003A20FFF7AFFD03213B20FFF7ABFD21465E
:1042E0003C20FFF7A7FD4FF4A0513D20FFF7A2FDB2
:1042F0004FF400719220FFF79DFD21469320FFF7B8
:1043000099FD40F60D019020FFF794FD41F2180150
:104310000320FFF78FFDBDE8304040F27311072006
:10432000FFF788BD10B543F20801E320FFF782FDD7
:104330001221E720FFF77EFD41F23121EF20FFF748
:1043400079FD00210120FFF775FD4FF4E0610220A7
:10435000FFF770FD41F230010320FFF76BFD0021F4
:104360000420FFF767FD40F207210820FFF762FDF8
:1043700000210920FFF75EFD00210A20FFF75AFD0A
:1043800000210C20FFF756FD00210D20FFF752FD04
:1043900000210F20FFF74EFD00211020FFF74AFDFE
:1043A00007211120FFF746FD00211220FFF742FDF3
:1043B00000211320FFF73EFDC820FDF7CDFB41F2A1
:1043C00090611020FFF736FD40F227211120FFF702
:1043D00031FD3220FDF7C0FB1D211220FFF72AFD21
:1043E0003220FDF7B9FB4FF400611320FFF722FDE7
:1043F00014212920FFF71EFD0B212B20FFF71AFDAA
:104400003220FDF7A9FB00212020FFF713FD00213A
:104410002120FFF70FFD07213020FFF70BFD40F2B1
:1044200007713120FFF706FD06213220FFF702FD5C
:1044300040F204713520FFF7FDFC41F6047136208F
:10444000FFF7F8FC04213720FFF7F4FC00213820A7
:10445000FFF7F0FC40F206713920FFF7EBFC40F269
:1044600001713C20FFF7E6FC0F213D20FFF7E2FC45
:1044700000215020FFF7DEFCEF215120FFF7DAFC8E
:1044800000215220FFF7D6FC40F23F115320FFF7E6
:10449000D1FC4FF41C516020FFF7CCFC01216120BE
:1044A000FFF7C8FC00216A20FFF7C4FC0021802030
:1044B000FFF7C0FC00218120FFF7BCFC0021822017
:1044C000FFF7B8FC00218320FFF7B4FC0021842013
:1044D000FFF7B0FC00218520FFF7ACFC10219020F5
:1044E000FFF7A8FC00219220FFF7A4FC03219320F2
:1044F000FFF7A0FC4FF488719520FFF79BFC00218B
:104500009720FFF797FC00219820FFF793FC41F2DA
:1045100018010320FFF78EFCBDE8104040F2731134
:104520000720FFF787BC7047FDF764BC10B594B057
:1045300038216846FCF76DF814210EA8FCF769F8DD
:104540004FF40070FDF7E8FC01200090000401909A
:1045500002200324CDE907041421CDE90A100C90B0
:104560000D9009946846FDF7CBFF08B172B6FEE7DF
:104570000F20CDE90E04002010901190129002211E
:104580000EA8FDF773FE002801D072B6FEE714B046
:1045900010BD00000248016841F4700101607047DD
:1045A00088ED00E010B5FFF76FFB0020FFF712FA6F
:1045B0000020FFF7C3FB4FF6FF70FFF7D3FB00218E
:1045C000FF20FFF791FC0748FEF762FA4FF4FA70FC
:1045D0000107886304210448FEF702FDBDE810408E
:1045E000FFF752BA48010020FC0000200148FEF706
:1045F0000CBB0000480100202DE9F0430268234B6A
:10460000234D244E244C4FF08049984207D0484512
:1046100005D0A84203D0B04201D0A04203D122F07D
:1046200070074A683A431D4FDFF874C0DFF87480A2
:1046300098420DD048450BD0A84209D0B04207D0CF
:10464000A04205D0B84203D0604501D0404503D117
:1046500022F44075CA682A434D6922F080022A4339
:1046600002608A68C2620A688262984207D0A042E9
:1046700005D0B84203D0604501D0404501D1096959
:10468000016301214161BDE8F0830000002C01407D
:104690000004004000080040003401400040014098
:1046A000004401400048014010B501F01F03012102
:1046B000046A99408C430462016A9A401143016282
:1046C00010BD10B5846842EA032224F47F440A43F3
:1046D0002243826010BD00008268034B1A400A43E7
:1046E00042F00701816070478FFFCFFF2DE9F04353
:1046F000026A22F001020262056A436882691C4C68
:1047000025F0020522400C6822F0030214438A6857
:10471000194E2A43174D194FDFF864C0DFF8649033
:10472000A84207D0B04205D0B84203D0604501D0BE
:10473000484506D122F00808CA6842EA080222F079
:104740000402A84207D0B04205D0B84203D0604569
:1047500001D0484505D14D6923F440731D438B6951
:104760002B4343608461496841630262BDE8F08382
:104770008FFFFEFF002C014000340140004001404B
:104780000044014000480140F0B5026A22F01002E6
:104790000262056A42688369194C1B4E23400C680B
:1047A00023F4407343EA042425F020038D6843EA90
:1047B0000513144DA84201D0B04206D1CF6823F0B2
:1047C000800343EA071323F04003A8420AD0B04213
:1047D00008D00E4DA84205D00D4DA84202D00D4D77
:1047E000A84207D14D6922F4406242EA85028D69F0
:1047F00042EA850242608461496881630362F0BDD8
:10480000FF8FFFFE002C01400034014000400140BA
:104810000044014000480140F0B5026A22F4807271
:104820000262056A4368C269194C1B4E22400C683B
:1048300022F00302144325F400728D6842EA052237
:10484000144DA84201D0B04206D1CF6822F40062D4
:1048500042EA072222F48062A8420AD0B04208D07D
:104860000E4DA84205D00E4DA84202D00D4DA842D3
:1048700007D14D6923F4405343EA05138D6943EA98
:1048800005134360C4614968C1630262F0BD000062
:104890008FFFFEFF002C014000340140004001402A
:1048A0000044014000480140F0B5026A22F4805201
:1048B0000262056A4268C369194C1B4E23400C68AA
:1048C00023F4407343EA042425F400538D6843EA3B
:1048D0000533144DA84201D0B04206D1CF6823F46D
:1048E000004343EA073323F48043A8420AD0B0428E
:1048F00008D00E4DA84205D00D4DA84202D00D4D56
:10490000A84207D14D6922F4404242EA85128D69DE
:1049100042EA85124260C461496801640362F0BDE5
:10492000FF8FFFFE002C0140003401400040014099
:10493000004401400048014030B5026A22F4803250
:104940000262046A4268036D114D2B400D681D43DD
:1049500024F400330C8943EA04430E4CA0420BD0EC
:104960000D4CA04208D00D4CA04205D00C4CA042EA
:1049700002D00C4CA04204D14C6922F4803242EAAD
:1049800004224260056549688164036230BD00000D
:104990008FFFFEFF002C0140003401400040014029
:1049A000004401400048014030B5026A22F4801200
:1049B0000262046A4268036D114D24F400142B4016
:1049C0000D6843EA05230D8944EA05540D4DA842BC
:1049D0000BD00D4DA84208D00C4DA84205D00C4D6F
:1049E000A84202D00B4DA84204D14D6922F4802286
:1049F00042EA8522426003654968C164046230BDB1
:104A0000FF8FFFFE002C01400034014000400140B8
:104A1000004401400048014010B5036A046A24F0D4
:104A200001040462846924F0F00444EA021423F0CF
:104A30000A020A438461026210BD10B5036A23F0C2
:104A4000100303628369046A23F4704343EA023269
:104A500024F0A00343EA01118261016210BD00004D
:104A600030B5416EB9B1026891689268C1F3426194
:104A70000B4B520F9C5CE50003F10804A25CB5FBF4
:104A8000F2F2A0F86A205A5C615CD200B2FBF1F14C
:104A9000A0F8681030BD0121A0F86A10F8E7000006
:104AA0006454000890F82810C90706D001684A68C5
:104AB000C36A22F400321A434A6090F8281089072A
:104AC00006D501684A68036B22F480321A434A60B3
:104AD00090F82810490706D501684A68436B22F40C
:104AE00080221A434A6090F82810090706D5016809
:104AF0004A68836B22F400421A434A6090F82810F7
:104B0000C90606D501688A68C36B22F480521A432D
:104B10008A6090F82810890606D501688A68036CB7
:104B200022F400521A438A6090F82810490611D5E1
:104B300001684A68436C22F480121A434A60416C4F
:104B4000B1F5801F06D101684A68836C22F4C00267
:104B50001A434A6090F82810090606D501684A6889
:104B6000C06C22F4002202434A607047F8B5002668
:104B70000446C0F88C60FDF737F9054620680068E8
:104B80006FF07E47000708D52B4600224FF4001136
:104B90002046009700F06AFA60B920680068400774
:104BA0000AD52B4600224FF480012046009700F0E2
:104BB0005DFA08B10320F8BD2020C4F88400C4F8D1
:104BC000880044F86C6F00202675F8BD10B5806A27
:104BD0000021A0F85E10A0F85610FEF7A1FB10BD52
:104BE00070B5846AD4F88400D4F888502168896844
:104BF0004FF00006090606D5212804D1A4F8566016
:104C0000204600F08FF820688068400606D5222DE7
:104C100004D1A4F85E60204600F05AF8D4F88C0065
:104C200040F01000C4F88C002046FEF779FB70BD00
:104C300010B50146806A0968096889062ED40021EA
:104C4000A0F85E10016851E8002F22F4807241E85C
:104C50000023002BF6D10168083151E8002F22F023
:104C6000010241E80023002BF5D10168083151E829
:104C7000002F22F0400241E80023002BF5D1202133
:104C8000C0F88810C16E012908D1026852E8001FDF
:104C900021F0100142E80013002BF6D1C16E01296A
:104CA00002D0FEF78BFD10BDB0F85C10FEF7A0FA45
:104CB00010BD10B5806AC16E012902D0FEF77FFDDC
:104CC00010BDB0F85C104908FEF792FA10BD000064
:104CD00010B5026852E8001F21F4907142E80013F9
:104CE000002BF6D10E4B0268083252E8001F194023
:104CF00042E80014002CF6D1C16E012908D10168E8
:104D000051E8002F22F0100241E80023002BF6D1D9
:104D10002021C0F888100021C166016710BD000085
:104D2000FEFFFFEF026852E8001F21F0C00142E8D9
:104D30000013002BF6D10168083151E8002F22F44E
:104D4000000241E80023002BF5D12021C0F8841097
:104D5000704700002DE9F04104460168806822692F
:104D6000E3691043626900251A431043DFF82CC23F
:104D70000A688B4B1A4002430A6020684168E26867
:104D800021F44051114341602168A069614501D07F
:104D9000226A10438A68834B1A4002438A60206863
:104DA000C16A626A21F00F011143C1627E49236822
:104DB0007E488B420DD1D0F8880010F0030006D059
:104DC000012855D0022842D003283FD152E00120CB
:104DD0003DE077498B420BD1D0F8880010F00C00F1
:104DE00035D0042833D0082840D00C282ED141E0FB
:104DF00070498B420BD1D0F8880010F0300026D0DB
:104E0000102835D0202831D030281FD132E06A490F
:104E10008B420BD1D0F8880010F0C00017D040288A
:104E200026D0802822D0C02810D123E063450DD1A0
:104E3000D0F8880010F4406009D0B0F5806F17D02A
:104E4000B0F5006F12D0B0F5406F13D010205B4961
:104E50005B4F00264FF4004263453BD160B102280E
:104E600013D004280BD0082872D10DE00220EEE701
:104E70000420ECE70820EAE7FDF7E6FA01E0FDF799
:104E800007FB010001D17CE01146606A37F8102071
:104E90006768B1FBF2F007EB4703834270D8B0EBD1
:104EA000073F6DD8002308461946FBF717FA090299
:104EB00041EA106102027808101871413A46002355
:104EC000FBF70CFA3F4AA0F54071914258D821688F
:104ED000C86056E0E3694FF6EF7893422CD1092879
:104EE0004ED2DFE800F00508114D0D4D4D4D10007C
:104EF000FDF7AAFA01E0FDF7B9FA010004D140E09C
:104F0000FDF7C6FAF9E71146606A37F81000B1FB01
:104F1000F0F04100606801EB5001B1FBF0F0A0F14E
:104F2000100141452CD84FF6F0710140C0F342000A
:104F300001432068C16024E0092821D2DFE800F0A5
:104F4000050912200E2020201100FDF77DFA02E055
:104F500016E0FDF78BFA010004D112E0FDF798FA94
:104F6000F9E71146606A37F81000B1FBF0F16068AC
:104F700001EB5001B1FBF0F0A0F1100141450AD95D
:104F800001250120A4F86A0024F8680F2846A660CD
:104F9000E660BDE8F08180B299E700000080004043
:104FA000F369FFCFFFF4FF11003801400010024009
:104FB0000044004000480040004C00400024F40041
:104FC0004C540008FFFC0F0070B58165A0F85C2010
:104FD00000250446C0F88C502220C4F88800E06FF9
:104FE000D8B11F49C162E16F1E4813460863E16FE3
:104FF0001D484863E06F8563A66D21683246243101
:10500000E06FFCF763FD40B11020C4F88C0004F899
:10501000805F2020A060012070BD84F8805020694E
:1050200040B1216851E8000F40F4807041E800026F
:10503000002AF6D12068083050E8001F41F0010135
:1050400040E80012002AF5D12068083050E8001F1F
:1050500041F0400140E80012002AF5D1002070BD67
:10506000314C0008B34C0008E14B00082DE9F04733
:105070009A4617460E4604464FF000094FF02008A6
:10508000089D4AE0681C48D0FCF7AEFEA0EB0A0081
:10509000A8422AD84DB32068016849073DD5C069A8
:1050A000C043000539D421684FF4006008622068CD
:1050B00050E8001F21F4D07140E80012002AF6D118
:1050C0002068083050E8001F21F0010140E800127C
:1050D000002AF5D144F8848FC4F80480C4F808800D
:1050E00004F8049C0320BDE8F087216851E8000F14
:1050F00020F4D07041E80002002AF6D12068083080
:1051000050E8001F21F0010140E80012002AF5D10B
:1051100044F8848FC4F80480E2E72068C06936EA66
:10512000000004D00020B842ACD00020DBE7012012
:10513000F9E700000D4810B50068C169C943C90608
:105140000ED4102101620948FEF7A2F807489030FA
:1051500000684068C0F132010548417001210170CA
:10516000BDE810400148FEF7DDB80000C80100208E
:10517000000000202B4810B50178002950D00021F4
:10518000017029480179491CC9B20171C82902D3AB
:105190000221017101E0012934D924484FF49673AA
:1051A0000078072802D0152221A128E01E492648B0
:1051B000143102780C78303A94420CD142784C7811
:1051C000303A944207D182788C78303A944202D1B6
:1051D000C2782D2A02D015221CA110E00279303AA3
:1051E000092A1AD84479303C092C16D880793038ED
:1051F000092812D80A704C7088700B2219A11C481B
:10520000FEF7DEFA32211048FBF7E1F9BDE8104065
:1052100032220D491648FEF7A7BA1F2215A1EEE764
:1052200010BD0000000000201A0000200100002036
:10523000B3A4B6C8B9FDB3A42CD0DEB8C4CAA7B015
:10524000DC210D0A0000000094010020C3DCC2EB49
:10525000B4EDCEF32CD0DEB8C4CAA7B0DC210D0A61
:1052600000000000D0DEB8C4B3C9B9A6210D0A0001
:10527000C8010020D0C2C3DCC2EBBAACD3D0B7C7E0
:10528000B7A8D7D6B7FB2CD0DEB8C4CAA7B0DC21EC
:105290000D0A0000FEE703B401984100009850EAAF
:1052A000C12018BF04204A0D18BF40F0010040F291
:1052B000FF72B2EB515F08BF40F00200012808BF47
:1052C000052002B070470907090E002804DB00F131
:1052D000E02080F80014704700F00F0000F1E0209B
:1052E00080F8141D704730380A2801D20120704719
:1052F00000207047FCF786FDFFF718F9FEF738FE2F
:10530000FEF710FEFEF7D0FEFEF71AFFFEF73CFF99
:10531000FFF748F9FCF7F0F9FEF7C4FDFFF72AFFA5
:10532000F8E7000010B500290AD00878002807D057
:1053300005487844FBF762FD002801D0002010BD2D
:105340000248784410BD0000DE130000D6130000B0
:105350000808A0F500114FEA3101704743004FEAF9
:10536000D30C4FEA3C0C43401FBF40070CF1605187
:1053700013F0FE4F70471CF0006F03D100200CF0BB
:10538000004170470CF0004343EA507010B540EA0A
:10539000CC0000F00EF800BF000000924FEA0001C0
:1053A000FFF7D6BF4FF000414FF00000A1F50021FC
:1053B00070470EF1020E2EF0030E5EF8044B2442ED
:1053C00004D44FEA4102B2F17F4F11D84FEA4003B3
:1053D000B3F17F4F0CD80ED14FEAD07CB2F17F4FA2
:1053E0000CEB4C0C0CF1020C08BF4CEBD17C04E034
:1053F0004FF0080C01E04FEAD17C0CEB4C0324FA8F
:1054000003F404F00704B4F1040C06D20EEB840C90
:10541000BDE810404CF0010C6047DFE80CF00708D5
:1054200002024FF00040A0F5800010BD0846420087
:1054300018BFD2F1807288BF00F0004010BD4FF05D
:105440004070E1EE100A7047FBF73FBA010002001E
:105450000400060008000A000C00100020004000B4
:10546000800000010101010307010000080402049B
:105470000801010100000000000000000102030417
:1054800006070809000000000102030400000000F4
:10549000000000000000000000000000000000000C
:1054A00000000000000000000000000000000000FC
:1054B000000000000000000000000000000080016B
:1054C00080018001800180018001800180018001D4
:1054D00080018001800180010000000080018001C6
:1054E00000000000000000000000000000000000BC
:1054F000CC00CC00CC00CC00CC00CC0000000000E4
:10550000000000000000000000000000000000009B
:10551000000000000000000000000000000000008B
:105520000000000000000000600C600C600C300601
:105530003006FE1FFE1F300638071803FE1FFE1F31
:10554000180318038C018C018C01000000008000FE
:10555000E003F80F9C0E8C1C8C188C009800F8014E
:10556000E007800E801C8C188C189C18B80CF00F6B
:10557000E003800080000000000000000000000048
:1055800000000E181B0C110C11061106110311035B
:105590009B018E01C038C06C60446044304430448C
:1055A0001844186C0C380000000000000000E001F6
:1055B000F0033807180618063003F001F000F80071
:1055C0009C310E33061E061C061C063FFC73F021A0
:1055D00000000000000000000000000000000000CB
:1055E0000C000C000C000C000C000C000000000073
:1055F00000000000000000000000000000000000AB
:105600000000000000000000000000000000000298
:1056100000038001C000C000600060003000300066
:10562000300030003000300030003000600060009A
:10563000C000C00080010003000200000000200044
:105640006000C00080018001000300030006000626
:105650000006000600060006000600060003000320
:1056600080018001C00060002000000000000000F8
:105670000000000000000000C000C000D806F807CD
:10568000E0013003380700000000000000000000C7
:10569000000000000000000000000000000000000A
:1056A00000000000000000008001800180018001F6
:1056B0008001FC3FFC3F800180018001800180016E
:1056C00000000000000000000000000000000000DA
:1056D00000000000000000000000000000000000CA
:1056E0000000000000000000000000000000800139
:1056F00080010001000180000000000000000000A7
:105700000000000000000000000000000000000099
:1057100000000000E007E0070000000000000000BB
:105720000000000000000000000000000000000079
:105730000000000000000000000000000000000069
:105740000000000000000000000000000000C00099
:10575000C000000000000000000000000000000C7D
:10576000000C00060006000600030003000380038F
:10577000800180018001C000C000C00060006000A6
:105780000000000000000000000000000000E00336
:10579000F007380E180C0C180C180C180C180C18F4
:1057A0000C180C180C180C18180C380EF007E00325
:1057B00000000000000000000000000000000001E8
:1057C0008001C001F0019801880180018001800101
:1057D00080018001800180018001800180018001C1
:1057E0000000000000000000000000000000E003D6
:1057F000F80F180C0C180C1800180018000C0006F4
:1058000000038001C000600030001800FC1FFC1F76
:105810000000000000000000000000000000E001A7
:10582000F807180E0C0C0C0C000C0006C003C00787
:10583000000C001800180C180C18180CF807E003DE
:105840000000000000000000000000000000000C4C
:10585000000E000F000F800DC00C600C600C300CAF
:10586000180C0C0CFC3FFC3F000C000C000C000C56
:105870000000000000000000000000000000F80F21
:10588000F80F180018000C00EC03FC071C0E001C9D
:105890000018001800180C181C0C180EF807E0036C
:1058A0000000000000000000000000000000C00731
:1058B000F00F381C181818000C00CC03EC0F3C0E2D
:1058C0001C1C0C180C180C18181C380EF007E003E0
:1058D0000000000000000000000000000000FC1FAD
:1058E000FC1F000C00060006000380038001C001BD
:1058F000C000E00060006000700030003000300048
:105900000000000000000000000000000000E003B4
:10591000F007380E180C180C180C3806F007F007B2
:10592000180C0C180C180C180C18380CF80FE00395
:105930000000000000000000000000000000E00384
:10594000F007380E1C0C0C180C180C181C1C381EF8
:10595000F81BE0190018000C000C1C0EF807F001F1
:105960000000000000000000000000000000000037
:105970000000000000000000800180010000000025
:105980000000000000000000000000008001800115
:105990000000000000000000000000000000000007
:1059A00000000000000000008001800100000000F5
:1059B00000000000000000000000000080018001E5
:1059C0000001000180000000000000000000000055
:1059D0000000000000000000000000000010001C9B
:1059E000800FE003F8001800F800E003800F001CAF
:1059F0000010000000000000000000000000000097
:105A0000000000000000000000000000F81F00007F
:105A100000000000F81F000000000000000000006F
:105A20000000000000000000000000000000000076
:105A30000000000000000000000000000800380026
:105A4000F001C007001F0018001FC007F001380058
:105A50000800000000000000000000000000E0035B
:105A6000F80F180C0C180C180018000C0006000396
:105A70008001C000C000C00000000000C000C000E5
:105A80000000000000000000000000000000000016
:105A9000E00718180420C229224A11440944094485
:105AA000094409221113E20C024004201818E007EF
:105AB0000000000000000000000000000000800363
:105AC0008003C006C006C006600C600C3018301899
:105AD0003018F83FF83F1C700C600C6006C006C020
