:020000040800F2
:10000000900900209D020008594F00089141000806
:10001000554F0008850E00080D7F00080000000005
:100020000000000000000000000000001572000841
:10003000A10E0008000000005D4F000819720008C2
:10004000B7020008B7020008B7020008B7020008AC
:10005000B7020008B7020008B7020008B70200089C
:10006000B7020008B7020008B7020008890E0008AE
:10007000950E0008B7020008B7020008B702000892
:10008000B702000800000000B7020008B70200082D
:10009000B7020008B7020008B7020008B70200085C
:1000A000B7020008B7020008B7020008B70200084C
:1000B000B7020008B7020008B7020008B70200083C
:1000C000B7020008B7020008B7020008B70200082C
:1000D000B70200084D7D0008B7020008B70200080B
:1000E000B7020008B7020008B7020008B70200080C
:1000F000B7020008B7020008B702000800000000BD
:1001000000000000B702000800000000B70200086D
:10011000B70200080000000029730008B7020008B9
:10012000B7020008B7020008B7020008B7020008CB
:10013000B70200080000000000000000B70200083D
:10014000B7020008B702000800000000000000002D
:10015000000000000000000000000000000000009F
:10016000000000000000000000000000B7020008CE
:10017000B7020008000000000000000000000000BE
:1001800000000000B70200080000000000000000AE
:10019000000000000000000000000000000000005F
:1001A0000000000000000000B7020008B7020008CD
:1001B000B7020008B7020008B702000800000000FC
:1001C00000000000B702000800000000000000006E
:1001D000B7020008B702000800F002F800F04FF87C
:1001E0000AA090E8000C82448344AAF10107DA4592
:1001F00001D100F044F8AFF2090EBAE80F0013F095
:10020000010F18BFFB1A43F0010318470C9A0000B6
:100210002C9A0000103A24BF78C878C1FAD8520747
:1002200024BF30C830C144BF04680C607047000070
:100230000023002400250026103A28BF78C1FBD8EF
:10024000520728BF30C148BF0B607047662908F0CD
:100250002B83642900F0F880632900F09284002049
:1002600070471FB508F013FB00F098FC0400002055
:10027000002108F07FFAE0601FBD10B510BD00F04E
:100280008DFD1146FFF7EDFF07F042FE00F0ABFDDC
:1002900003B4FFF7F2FF03BC00F0ECFD0948804710
:1002A00009480047FEE7FEE7FEE7FEE7FEE7FEE758
:1002B000FEE7FEE7FEE7FEE704480549054A064B70
:1002C000704700001D720008D9010008900300204B
:1002D00090090020900500209005002053EA020CB0
:1002E00000F069802DE9F04B4FF00006002B1FBF96
:1002F000B3FA83F503FA05F424FA05F65E4012BF5B
:100300001643B2FA82F502FA05F4C5F120051EBFC4
:1003100022FA05FC44EA0C04203556EA044C4FEA64
:10032000144418BF641C4FF000084FF000099042BD
:1003300071EB030C39D3002919BFB1FA81F701FA27
:1003400007F6B0FA80F700FA07F6C7F120071EBFDC
:1003500020FA07FC46EA0C062037B6FBF4FCA7EBB4
:100360000507103F07F01F0BCBF120062CFA06F60D
:100370000CFA0BFB44BFB3460026202FA4BF5E46F9
:100380004FF0000B5BEA060C08BF4FF0010B19EBB6
:100390000B0948EB0608ABFB027C06FB02CC0BFB0F
:1003A00003CCC01B71EB0C01C1E70B460246414672
:1003B0004846BDE8F08B13B5084318BF4FF0FF3037
:1003C0000146AFF30080BDE81C4070470FB41CB578
:1003D000074B06AA7B4469460090059800F0AFFBE6
:1003E0000020694600F0BEFB1CBC5DF814FB000059
:1003F0008D07000070B50C460546012A05D0287807
:10040000800600D5EA69002302E0012305E05B1CB9
:10041000934202D2E05C0028F9D1A869E618C01A1C
:10042000A861286A184428622846AFF3008004E0D7
:10043000D5E9012114F8010B9047B442F8D32846BE
:10044000AFF3008070BD00002DE9F04106460024A6
:1004500010687529314616A510D0AFF3008000282A
:1004600002DA404213A507E031688A0701D512A5D8
:1004700002E0490704D511A5012401E0AFF3008093
:1004800000210A2206F1240709E0B0FBF2FCB0FBD0
:10049000F2F302FB1C00303078541846491C002847
:1004A000F3D123462A463046BDE8F04100F0DBB8E0
:1004B000000000002D0000002B00000020000000C4
:1004C0002DE9F0474FF0000A89460446C0F820A005
:1004D0002046E1688847002876D0252806D0D4E950
:1004E00001219047206A401C2062F1E7E168204624
:1004F00000258847C4F81CA006460027C4F818A0A9
:100500002A2E09D0304608F02DF938B304EB8708BD
:10051000303EC8F8186019E059F8041B204604EB77
:1005200087029161E1688847012F064618D1E0698A
:10053000002820DA25F020051DE0D8F8180000EB8F
:10054000800006EB40003038C8F818002046E1680B
:100550008847064608F006F90028EED1012F0AD098
:100560002E2E08D12046E16888477F1C0646022FC0
:1005700045F02005C4DBA069002803DA404245F0BD
:100580000105A061E80701D025F01005B6B1A6F17C
:100590004100192802D8203645F400654A46314604
:1005A000204625604D46FFF751FE58B1012806D080
:1005B000ED1D25F0070000F1080989E704E005F1C9
:1005C000040985E730468AE7206ABDE8F0874FF0E6
:1005D00000020429C0F0128010F0030C00F01B8010
:1005E000CCF1040CBCF1020F18BF00F8012BA8BF1E
:1005F00020F8022BA1EB0C0100F00DB85FEAC17CE2
:1006000024BF00F8012B00F8012B48BF00F8012B94
:1006100070474FF0000200B51346944696462039C5
:1006200022BFA0E80C50A0E80C50B1F12001BFF4AB
:10063000F7AF090728BFA0E80C5048BF0CC05DF811
:1006400004EB890028BF40F8042B08BF704748BF5F
:1006500020F8022B11F0804F18BF00F8012B7047D3
:100660007047704770472DE9F0470D46994692460E
:10067000044600F124080168880604D5E06921F0E9
:100680001001216000E00120A84201DD471B00E0CD
:100690000027A1697A1902EB0900081AA0612078E5
:1006A000C00602D42046AFF30080002608E0D4E95B
:1006B00001211AF806009047206A401C761C20622F
:1006C0004E45F4DB2078C0060AD52046AFF3008003
:1006D00006E0D4E9012130209047206A401C2062C6
:1006E000381EA7F10107F4DC07E0D4E9012118F86E
:1006F00005009047206A401C2062281EA5F10105D4
:10070000F3DC2046AFF300802078000602D50220FB
:10071000BDE8F0870120FBE72DE9FF4F0C461E46A0
:100720004FF0FF378BB0D2E90001DDF860800A900E
:100730008A46C1F30A5505B93D46002108464FF0E7
:100740000000BAF1000F00F4400005DA00EB800071
:100750004FF4400101EA50004FEA9059B9F1010FFE
:1007600000DDB9460A9850EA4A000ED044F610500F
:10077000A5F2FF3545432F14B8F1000F1ED0754286
:10078000291E1EDDC9F100021CE0B8F1010F4FF077
:10079000000001D0302103E0F24305E02154401C69
:1007A000B042FBDB30460022002121540B99C1F8F6
:1007B0000880C1E900200FB0BDE8F08FBD1B6D1CA3
:1007C000DEE74A4600DA694206A800F071FA06AB95
:1007D00093E8070003AB83E8070050460A9907F047
:1007E000E0FB8DE80700A0F500501F38009003984B
:1007F000002D0ADD42F21F014A460844002303A9E6
:100800000390684607F04AFE09E0A0F500504A460A
:100810001F38002303A90390684607F054FE8DE8B3
:1008200007000004000C03D04FF0FF30410800E047
:100830001046B8F1000F03D00022009215461EE0CA
:10084000751E05D400F0AEF9303262556D1EF9D533
:10085000B3460122084302D000227F1C04E0207826
:10086000302801D100227F1E002A099784D01DE084
:10087000112D07DA00F096F9303262556D1C50EAFE
:100880000102F5D1084302D00098C8B10EE0002162
:10089000681E05E0235C625C63542254401E491CC0
:1008A0008142F7DBAB46A81B401E0990002004F8EC
:1008B0000B000B98099AC0F80880C0E9002B7AE772
:1008C00011264FF0000857E72DE9F04F88460446FF
:1008D000D21D22F0070191B0D1E90001CDE90A0152
:1008E00007F028FF02460B98C00F01D02D2007E02B
:1008F0002068810701D52B2002E0202101EAC000F9
:10090000032A099001D0072A05DB03464146204609
:1009100000F08EF90BE12078800601D5E06900E057
:100920000620B8F1650F814606D0B8F1660F18D0E1
:10093000B8F1670F70D131E00020B9F1110F0090CC
:1009400001DB112301E009F101030AAA01A90CA8A6
:10095000FFF7E2FEDDE90C70002609F10105834690
:1009600047E001204B4600904FF000470AAA01A93A
:100970000CA8FFF7D1FEDDE90DB00C995D4600260D
:1009800010B909F101000D18B9EB050003D4C0F14D
:10099000FF3609F10105A5EB09002BE0B9F1010FC4
:1009A00001DA4FF001090020B9F1110F009048461B
:1009B00001DD112300E003460AAA01A90CA8FFF7F4
:1009C000ABFEDDE90C704D4600268346207800071B
:1009D0000AD4AB4500DA5D4601A8012D04DD4119BA
:1009E00011F8011C302907D04F4502DA17F1040F26
:1009F00004DA012082460FE06D1EEEE7002F02DCD4
:100A0000ED1B3E4403E0781CA84200DD7D1CB81BB2
:100A100000F1010A4FF000472078000703D4AA45EF
:100A200001DB4FF0FF3A0021B7F1004F0DF1430811
:100A30008DF8431024D002202B23002F01DA7F42AF
:100A40002D230A21021EA0F1010000DC5FB197FBFB
:100A5000F1FC97FBF1F201FB1C7C17460CF1300C0A
:100A600008F801CDEEE7A8F101000370218809051F
:100A700001D5452100E06521A0F1010800F8011C25
:100A800009980FA9A1EB0807FF1D00B1012041192A
:100A900001EBEA70A1693844081A401EA061207871
:100AA000C00602D42046AFF30080099828B1D4E9EB
:100AB00001219047206A401C20622078C00622D580
:100AC0002046AFF300801EE0002E04DBB34502DDBC
:100AD00001A8805D00E03020D4E901219047206A20
:100AE000401C2062761CAAF101005FEA000A0AD1CC
:100AF00000F054F8C0680168405CD4E901219047D7
:100B0000206A401C2062281EA5F10105DCDC07E0FC
:100B1000D4E9012118F8010B9047206A401C20629B
:100B2000381EA7F10107F3DC2046AFF30080032055
:100B300011B041E601694A1C02610878704700B5AE
:100B40008FB0CDE901310021059105497944CDE906
:100B5000031011466846FFF7B3FC0FB000BD00005C
:100B6000E5FFFFFF0A6802F8010B0A60704710B545
:100B7000436913B1AFF3008001E0FFF73BFC0120B4
:100B800010BD127800F124010A7000224A7001227F
:100B9000EDE711684FF0FF32E9E7000000487047C9
:100BA0000001002030B5B0F10A0271F100034FEAF4
:100BB000900E4EEA817EB0EB0E0061EB91014FEAA0
:100BC000101E4EEA017E10EB0E0041EB11114FEAB0
:100BD000102E4EEA016E10EB0E0041EB11214FEA90
:100BE000104E4EEA014E10EB0E0041EB1141401841
:100BF00041F100014FEAD00040EA41704FEAD101D3
:100C00004FEA810444EA907410EB800544EB010440
:100C10006D1944EB0404521BA3414FF0000348BF7D
:100C20000A3200D530BD401C41F1000130BD00004A
:100C30002DE9F0411F46044603260168072A01F406
:100C4000006004DB08B116A505E016A503E008B1B5
:100C500015A500E015A521F010002060A069C01EB8
:100C6000A0610FB1401EA0612046AFF300804FB1DC
:100C7000D4E9012138469047206A401C2062C01CFC
:100C8000206206E0206AFAE7D4E9012115F8010B99
:100C90009047761EF8D22046AFF30080BDE8F08181
:100CA0004E414E006E616E00494E4600696E660010
:100CB0002DE9F047814616468AB0354878440DC87C
:100CC0008DE80D0032487844801C03AC0DC884E8E0
:100CD0000D0041F69B300844372190FBF1F290FB68
:100CE000F1F5A5F1800501FB12041B3C02D564421D
:100CF000012000E00020DFF898A080460027FA4499
:100D0000AAF1BE0A0EE0E0070AD03246684607EBB9
:100D1000470101230AEB810107F0D5FB8DE80700AD
:100D200064107F1C002CEED1194F7F44AE3F19E0B8
:100D3000E80715D007EB04100DF1180A90E80E0033
:100D40008AE80E00C068F04201D198190890324636
:100D5000012306A903A807F0B6FB03AB83E807004D
:100D60006D10641C002DE3D14FF00103324669463B
:100D7000B8F1000F03A802D007F090FB01E007F0E4
:100D8000A2FBC9E90001C9F808200AB0BDE8F08754
:100D9000687C000000487047E00000207546FFF7BF
:100DA000F9FFAE4605006946534620F00700854628
:100DB00018B020B5FFF780FABDE820404FF00006DC
:100DC0004FF000074FF000084FF0000BAC46ACE8C6
:100DD000C009ACE8C009ACE8C009ACE8C00921F022
:100DE00007018D46704710B50446AFF300802046DA
:100DF000BDE81040FFF74CBA30B44FF0013C50F85A
:100E0000042B51F8043BCCFA52F4D51A20D1FCB98A
:100E100050F8042B51F8043BCCFA52F4D51A17D1F0
:100E2000B4B950F8042B51F8043BCCFA52F4D51A5B
:100E30000ED16CB950F8042B51F8043BCCFA52F4A3
:100E4000D51A05D1002CDAD030BC4FF00000704725
:100E500029BAB1FA81F111F01801D1F120008440D2
:100E6000F2D1CA40CB4012F0FF0213F0FF0330BCB6
:100E7000D01A704701491820ABBEFEE726000200D9
:100E800070470000FEE7000040F24410C2F200008C
:100E900000F0B4B940F20420C2F2000000F0AEB994
:100EA00070470000EFF3108072B600BFFEE700004D
:100EB0002DE9F04140F2A415C2F20005287C40F271
:100EC000100840F20806C2F20008C2F20006C0B1E3
:100ED00069780020297501F1300249F660312874E3
:100EE00008F13C00C0F60001FFF770FA308869781D
:100EF00040F008003080481CC1B2092988BF00209A
:100F00006870687CC0B1A9780020697501F1300271
:100F100049F67631687408F15000C0F60001FFF719
:100F200055FA3088A97840F010003080481CC1B2D2
:100F3000092988BF0020A870A87CC0B1E9780020EA
:100F4000A97501F1300249F68C31A87408F16400EA
:100F5000C0F60001FFF73AFA3088E97840F0200047
:100F60003080481CC1B2092988BF0020E870E87CA5
:100F7000002800F0BD8095F8200000210028E974C9
:100F800040F0B680287DB178884277D1687DF178CD
:100F9000884273D1A87D317988426FD12C20C4F268
:100FA00000004FF4FA7101603221C160016844F21F
:100FB0004022C0F20F02B2FBF1F140F60044298357
:100FC00090ED030A90ED001AB8EE400AB8EE411A0F
:100FD00080EE010A9FED4C1A40F20110C4F60004A5
:100FE0002884A4F580604FF48071002220EE010A6D
:100FF00085ED070A00F070FB20460421012200F075
:101000006BFB20460421002200F066FB49F6E83025
:10101000C0F6000090E81E1008F1140E007D8EE866
:101020000E002A8B49F6BA3188F8280008F13C00F6
:10103000C0F60001C8F82040C8F824C0FFF7C6F980
:10104000E86907F0B3FB0B4649F6A231024608F106
:101050005000C0F60001FFF7B9F949F6D030C0F6EC
:10106000000090E81E10007D08F1640E8EE81E005E
:10107000C8F874C088F8780036E000BF287808F116
:10108000140C0130287044F24000A8824020A8755A
:101090000020A5F80100E87049F60040C0F6000005
:1010A00090E89E00007D8CE81E0049F6603188F8CB
:1010B000280008F13C00C0F600014022C8F8247066
:1010C000FFF784F96A7D49F6763108F15000C0F6E1
:1010D0000001FFF77BF9AA7D49F68C3108F1640025
:1010E000C0F60001FFF772F9308840F0FF00308051
:1010F0002878032838BFBDE8F0810020287001203F
:1011000085F82400BDE8F0810000C84280B50146A2
:1011100090F82500022825D10868D1E910CE8A6C04
:10112000036823F00E030360136823F480731360D5
:10113000026822F0010202600EF01F00012202FA92
:1011400000F0CCF80400D1E913205060486D68B17C
:10115000026822F480720260D1E916024260002027
:1011600005E000BF0420C863012000E00020012248
:1011700081F82520002281F8242080BD80B590F8D8
:10118000251002292ED10168D0E910CE826C0B689F
:1011900023F00E030B600B6823F001030B60116852
:1011A00021F4807111600EF01F02012101FA02F298
:1011B000CCF80420D0E913325A60426D32B1136882
:1011C00023F480731360D0E91623536080F8251050
:1011D000826B002180F824100AB190470021084654
:1011E00080BD00BF0421C1630121002280F82510C9
:1011F00080F82420084680BDC06B7047B0B5D0E9A8
:1012000010C30268DCF8001003F01F030424D2F8B6
:1012100000E09C400C4218BF1EF0040522D10224BD
:101220009C400C4218BF1EF0020529D1D940090785
:1012300024D51EF0080108BFB0BD116821F00E01D1
:101240001160012101FA03F2CCF80420C16380F897
:101250002510416B002280F8242079B1BDE8B04010
:10126000084700BF1168890603D4116821F0040102
:101270001160CCF80440016B0029EFD1B0BD00BF74
:101280001168890606D4116821F00A011160012154
:1012900080F82510CCF80440C16A0022002980F8AB
:1012A0002420DBD1EAE7000000284FF0010100F024
:1012B0008E802DE9F04740F2000CC4F2020C036866
:1012C0004FF6F8320CF5816ECBF6FD72734538BFE0
:1012D00002F580624CF6CD441A44CCF6CC44A2FB15
:1012E00004286FF0070252FA83F2A2FB04290CF5DE
:1012F00080656FF00304D0E90262D0F810A03CBF13
:101300000025C4F2020504EA9804C0E9105402253D
:1013100080F825501D6847F6F07725EA0707374320
:101320003A43476942EA0A0285693A43C7692A4350
:10133000056A3A432A431A600CF50262734538BFC6
:101340000CF50062A3180CF50862C264C9F304121C
:1013500040F6840C01FA02F2B6F5804FC4F2020C9A
:101360008364026506D1002141601960CCF8002039
:101370001EE000BF41685FFA81FE013903294FF08A
:101380000001C3F800E0CCF8002011D8AEF1010252
:101390000CEB820747F87C1F02F01F01012202FAC2
:1013A00001F30CF1BC023946CCF8C03002E000BFBA
:1013B0000022002300F1540C8CE80E0000210122D1
:1013C000C16380F8252080F82410BDE8F047084666
:1013D000704700002DE9F04190F824C0BCF1010FE6
:1013E00043D04FF0010C80F824C090F825C0BCF128
:1013F000010F37D14FF0020C80F825C04FF0000CE0
:10140000C0F83CC0D0F800C000F14C0E9EE830405F
:10141000DCF80060BEF1000F26F00106CCF8006099
:1014200065601CBFD0E916456560D0E910760125DE
:1014300006F01F068468B540D0F830807D60CCF897
:1014400004300B46102C04BF13460A46CCF8083073
:10145000CCF80C20DCF80010B8F1000F08D041F0F7
:101460000E010DE0002180F824100220BDE8F0817B
:1014700021F00401CCF80010DCF8001041F00A0162
:10148000CCF80010806C0168C90303D5016841F4F1
:1014900080710160BEF1000F05D0DEF8000040F45D
:1014A0008070CEF80000DCF8000040F00100CCF8BD
:1014B00000000020BDE8F081B0B5044600F012F94C
:1014C000054640F20000C2F200004068611C18BFEF
:1014D000044400BF00F006F9401BA042FAD3B0BD9F
:1014E0002DE9F04F84B08E4641F20042C4F600026E
:1014F000DEF8004006219042019008BF0521002C33
:10150000009100F0D7800198002500F138424FEAA1
:10151000B2230098012700264FF00008052B38BFA2
:1015200018460090CDF808E00EE000BFDEF800405D
:1015300008F1010834FA07F106F1020607F1010784
:1015400005F1040500F0B680A7F1010A012000FAB8
:101550000AF314EA0309E9D0DEF804C00CF0030B27
:10156000ABF10104012C17D801987446816803225D
:10157000E468B2409143B4402143816041684FEA3E
:10158000480E9943CCF3001303FA0AF30446D04300
:10159000194361600CE000BF0321B140019CC843C6
:1015A000BBF1030FB64603D1B6464FF0030B23E061
:1015B000E168029A01409368BBF1020F03FA0EF34F
:1015C00041EA0301E16017D16FF0030101EA5A011A
:1015D000214405F01C040F23D1F820C003FA04FBBA
:1015E00013692CEA0B0CA34043EA0C03019C0B6229
:1015F000D2F804C00CF0030B21680BFA0EF2014084
:1016000011432160DDF808E01CF4403F8ED041F228
:101610006000C4F20200016840F2004C41F0010198
:1016200001600168C4F2010C01F00101039103990A
:101630002AF003014FF6084A6144CFF6FF7A05F01D
:101640000C030F2051F80A2000FA03F40098A2437B
:1016500000FA03F31A4341F80A20DCF80810DEF818
:10166000042041EA090340F20C40D40258BF21EAA9
:101670000903CCF80830C4F201000168940241EA81
:10168000090358BF21EA09030360DCF8041094033E
:1016900041EA090358BF21EA0903CCF80430DCF819
:1016A0000010D20341EA090358BF21EA0903CCF82C
:1016B00000303BE704B0BDE8F08F0000006908404F
:1016C00018BF012070470000426902EA01039143FC
:1016D00041EA0341816170471823002A08BF28238B
:1016E000C150704740F28C30C2F200000068704771
:1016F00040F2000040F28C31C2F20000C2F2000160
:1017000040680A68104408607047000080B50320F4
:1017100000F088F80F2000F009F800281CBF012015
:1017200080BD00F029F8002080BD000070B540F2B7
:101730000006C2F200067168E1B1044640F2D8002A
:10174000C2F200004FF47A720068B2FBF1F1B0FB14
:10175000F1F000F097FE0F2C4FF0010508D838B9D2
:101760004FF0FF3021460022002500F02FF83460B2
:10177000284670BD012070BD82B041F25800C4F20D
:101780000200816841F001018160816801F001017E
:1017900001910199016841F080510160006800F0F9
:1017A00080500090009802B000F0E0B8002848BFD8
:1017B000704700F01F01012202FA01F14EF20012FF
:1017C0004009CEF2000242F82010704710B54EF6E4
:1017D0000C5CCEF2000CDCF80030C3F3022E8EF06D
:1017E0000704042C28BF0424BEF103034FF0FF3E7E
:1017F0000EFA04F438BF0023A14399400EFA03F314
:101800009A43114300F00F02043A624409010C327A
:1018100000F16043B0F1FF3FC8BF03F564421170AF
:1018200010BD00004EF60C51CEF200010A684FF6D2
:10183000FF031A4060F30A2242F0806040F0FD701E
:1018400008607047B0F5007F42D0002840F08080EB
:1018500047F21400C4F2000050F8141CC26E01F4E8
:10186000C06122F48072B1F5806FC2662ED150F84B
:10187000141C012262F34A2140F8141C40F2D801E2
:10188000C2F200010968322251434DF68362C4F26C
:101890001B32A1FB0212910C0268520511D54A1CA1
:1018A0000FD0026852050CD559B10268520508D50F
:1018B000012906D00268520503D50229A1F10401CD
:1018C000EAD10068400544BF0320704700207047FC
:1018D00047F21400C4F2000050F8141CC26E01F468
:1018E000C06142F48072B1F5806FC266EED150F8EB
:1018F000141C012262F34A2140F8141C40F2D80162
:10190000C2F200010968322251434DF68362C4F2EB
:101910001B32A1FB0212910C0268520511D54A1C20
:101920000FD0026852050CD559B10268520508D58E
:10193000012906D00268520503D50229A1F104014C
:10194000EAD10068400544BF03207047BEE700BFEE
:1019500047F21400C4F2000050F8141C022262F393
:101960004A2140F8141C00207047000047F208008C
:10197000C4F20000016841F480410160704700003A
:101980002DE9F04182B00446807841F288060007D4
:10199000C4F2020602D400202FE000BF56F8300C3B
:1019A00010F080580BD156F8300C40F0805046F8BB
:1019B000300C56F8300C00F080500190019847F23E
:1019C0000007C4F20007386840F480703860FFF701
:1019D00089FE05463868C00500F1D680FFF782FE13
:1019E000401B0228F6D90320B8F1000F05D156F8A4
:1019F000301C21F0805146F8301C2168CA0713D1F1
:101A00008A0719D44A071FD40A0725D48A062BD47B
:101A10004A0631D40A0637D4CA053DD48A0543D4D0
:101A20004A0549D457E000BF3268636822F00302D8
:101A30001A4332608A07E5D53268A36822F00C02A7
:101A40001A4332604A07DFD53268E36822F0300279
:101A50001A4332600A07D9D53268236922F0C002DE
:101A60001A4332608A06D3D53268636922F4406231
:101A70001A4332604A06CDD53268A36922F4405237
:101A80001A4332600A06C7D53268E36922F440423D
:101A90001A433260CA05C1D53268236A22F4403243
:101AA0001A4332608A05BBD53268636A22F4402249
:101AB0001A4332604A050ED53268A36A22F44012F6
:101AC0001A43B3F5801F326005D156F87C2C42F4DE
:101AD000801246F87C2C0A050ED53268E36A22F49F
:101AE00040021A43B3F5800F326005D156F87C2CC2
:101AF00042F4801246F87C2CCA040ED53268236B5F
:101B000022F040721A43B3F1807F326005D156F85B
:101B10007C2C42F4801246F87C2C8A040ED5326864
:101B2000636B22F040621A43B3F1006F326005D15B
:101B300056F87C2C42F4801246F87C2C4A040ED5D0
:101B40003268A36B22F040621A43B3F1006F326037
:101B500005D156F87C2C42F4801246F87C2C0904FE
:101B60000ED53168E26B21F040511143B2F1805F34
:101B7000316005D156F87C1C41F4803146F87C1C5C
:101B800002B0BDE8F08100BFB06810F4407010D022
:101B9000216C88420BD0B068B16820F4407041F4E9
:101BA0008031B160B16821F48031B160B060C007AC
:101BB0000CD1B068216C20F440700843B060002064
:101BC000B8F1000F7FF419AF11E700BFFFF78AFDEE
:101BD000054641F2883700BFB0688007E9D4FFF7B7
:101BE00081FD401BB842F7D9FDE600002DE9F04722
:101BF00000286DD042F2000AC4F2020A0446DAF864
:101C000000000D4600F00F0088420CD2DAF8000008
:101C100020F00F002843CAF80000DAF8000000F0B6
:101C20000F00A84254D1216841F20808C807C4F245
:101C3000020803D1880740F1D880BDE0606802281F
:101C40003AD0032840D158F8082C920140D5D8F852
:101C50000420D8F8043042F2004702F00302C3F334
:101C60000313C0F2F4070133032A04BF43F20067F1
:101C7000C0F26E17D8F80420B7FBF3F3D8F804705D
:101C8000C2F306225A43C7F34163022707EB43031B
:101C9000B2FBF3F24BF20043C0F2C4439A4261D963
:101CA000D8F8002012F0F00F51D089075AD5A1685A
:101CB000002957D14BE000BF58F8081C89035CBFCE
:101CC0000120BDE8F08707E058F8081C490503D457
:101CD0000120BDE8F08700BFD8F8001001F00C012A
:101CE00004293FD0D8F8001001F00C01082939D0A0
:101CF000D8F8001001F00C010C2933D1D8F80410E9
:101D0000D8F8042042F2004301F00301C2F30312A9
:101D1000C0F2F4030132032904BF43F20063C0F2AE
:101D20006E13D8F80410B3FBF2F2D8F80430C1F304
:101D300006215143C3F34162022303EB4202B1FB8C
:101D4000F2F14BF20042C0F2C44291420AD9D8F8F3
:101D50000010082262F307114FF00109C8F80010C3
:101D600002E000BF4FF00009D8F8001021F0030195
:101D70000843C8F80000FFF7B5FC064641F2883773
:101D8000D8F80000616800F00C00B0EB810F07D0BC
:101D9000FFF7A8FC801BB842F2D90320BDE8F0870A
:101DA0002168880708D4B9F1000F1ED0D8F80000C8
:101DB00020F0F00017E000BF480705D5D8F8000074
:101DC00040F4E060C8F80000080706D5D8F8000025
:101DD000072262F30D20C8F80000D8F80000A268BE
:101DE00020F0F0001043C8F80000DAF8000000F01E
:101DF0000F00A8421BD9DAF8000020F00F0028439A
:101E0000CAF80000FFF76EFC064641F2883700BFB3
:101E1000DAF8000000F00F00A84207D0FFF762FCDC
:101E2000801BB842F4D90320BDE8F0872168480739
:101E300007D5D8F80000E26820F4E0601043C8F845
:101E40000000080708D5D8F80000216920F4605088
:101E500040EAC100C8F80000D8F8000042F2004192
:101E6000C0F2F40100F00C00042808462DD0D8F888
:101E7000000000F00C00082843F20060C0F26E1071
:101E800023D0D8F8002002F00C020C2A1CD1D8F87C
:101E90000420D8F8043002F00302C3F30313013323
:101EA000032A08BF0146D8F80400B1FBF3F1D8F8C3
:101EB0000420C0F306204843C2F34161022202EB32
:101EC0004101B0FBF1F000E00020D8F8001048F626
:101ED0004012C1F30311C0F60002515C40F2D80277
:101EE00001F01F0120FA01F140F20000C2F20000EF
:101EF0000068C2F200021160BDE8F047FFF716BCAF
:101F000040F2D80041F20801C2F20000C4F202011E
:101F10000068096848F65012C1F30221C0F60002B9
:101F2000515C01F01F01C8407047000040F2D8002A
:101F300041F20801C2F20000C4F20201006809681F
:101F400048F65012C1F3C221C0F60002515C01F004
:101F50001F01C8407047000041F20C01C4F20201A9
:101F600051F8040C42F20042C0F2F40200F00C00FE
:101F70000428104608BF704751F8040C00F00C000C
:101F8000082843F20060C0F26E1021D051F8043CE2
:101F900003F00C030C2B1CBF00207047D1F800C0CD
:101FA0000B680CF0030CC3F303130133BCF1030FF4
:101FB00008BF02460868B2FBF3F20968C0F30620C6
:101FC0005043C1F34161022202EB4101B0FBF1F049
:101FD000704700002DE9F04182B0002800F0068132
:101FE0000446007841F20006C007C4F2020655D14B
:101FF0002078800774D42078000700F1978020783B
:10200000400700F1B7802078800600F10781E06981
:10201000002840D0B16801F00C010C2940F0568135
:10202000012800F0E380F068216A00F003028A4290
:1020300040F0DC80626A6FF00F0300F0F00103EB08
:102040000212914240F0D280A16A00F4FE42B2EB4B
:10205000012F40F0CB80E16A00F07842B2EBC16F13
:1020600040F0C480226B0023CFF6E07303EB0252F2
:1020700000F4C0016FF31402914240F0B780616B2D
:102080004FF07E4202EB016100F0C06001F07E4142
:10209000884240F0AB800020F1E100BFB06800F062
:1020A0000C01F06808295BD0032281F00C0122EAC0
:1020B00000000844B0FA80F0400951D16068B0F5E2
:1020C000803F07D0B0F5A02F40F0D680306840F4B4
:1020D00080203060306840F480303060D7E000BF4E
:1020E000B068F16800F00C00042869D001F0030129
:1020F00080F00C0081F002010844B0FA80F0400941
:102100005ED1E1683068002900F0CE8040F4807034
:102110003060FFF7E7FA05463068400500F1EC80D3
:10212000FFF7E0FA401B0228F6D920E16169D6F8F2
:102130009400002900F08C8040F00100C6F8940063
:10214000FFF7D0FA054600BFD6F8940080073FF5A8
:1021500056AFFFF7C7FA401B0228F5D907E100BFC9
:10216000306880037FF544AF606800287FF440AF9B
:102170003CE000BFB06D10F0805808D1B06D40F069
:102180008050B065B06D00F080500190019847F22A
:102190000007C4F200073868C0052BD4386840F443
:1021A00080703860FFF79EFA054600BF3868C005AA
:1021B00020D4FFF797FA401B0228F7D9D7E000BFD9
:1021C0003068400501D5E06880B17068216920F071
:1021D000FE4040EA0160706040F20000C2F2000080
:1021E0000068FFF7A3FA00283FF405AF012002B012
:1021F000BDE8F081A068012808D0052840F09A8049
:10220000D6F8900040F00400C6F89000D6F8900090
:1022100040F00100C6F890009AE000BFA169D6F82E
:102220009800002970D040F00100C6F89800FFF730
:1022300059FA0546D6F8980080073FF5E8AEFFF753
:1022400051FA401B02284FF00300F3D917E100BFF9
:1022500020F00100C6F89400FFF744FA054600BFDD
:10226000D6F8940080077FF5CAAEFFF73BFA401B13
:102270000228F5D97BE000BF3168002821F48031C5
:102280003160316821F48021316000F08F80FFF7E8
:1022900029FA0546306880033FF5AAAEFFF722FA17
:1022A000401B6428F6D962E020F480703060FFF7AC
:1022B00019FA0546306840057FF59DAEFFF712FA22
:1022C000401B02284FF00300F4D9D8E031680228FF
:1022D00021F0807131604FD1FFF704FA054600BF4D
:1022E0003068800140F18E80FFF7FCF9401B022826
:1022F0004FF00300F4D9C2E07068216920F0FE407D
:1023000040EA0160706076E620F00100C6F89800AF
:10231000FFF7E8F9054600BFD6F8980080077FF57B
:1023200076AEFFF7DFF9401B02284FF00300F3D928
:10233000A5E000BFD6F89010002821F00101C6F8F2
:102340009010D6F8901021F00401C6F890103DD0FE
:10235000FFF7C8F9054641F2883700BFD6F890006C
:10236000800745D4FFF7BEF9401BB842F6D90320D9
:1023700002B0BDE8F08100BFF0684FF6FF7120F0B9
:102380000300F060F068CFF6EE610840F060FFF700
:10239000A9F90446306880017FF57DAEFFF7A2F908
:1023A000001B02284FF00300F4D968E0FFF79AF908
:1023B000054600BF306880037FF51AAEFFF792F93B
:1023C000401B64284FF00300F4D958E0FFF78AF966
:1023D000054641F2883700BFD6F89000800707D540
:1023E000FFF780F9401BB8424FF00300F4D946E0F4
:1023F000B8F1000F7FF407AEB06D20F08050B065EB
:1024000001E600BFF06848F20C01C0F29F1104F130
:10241000200700EA010C8ECF6FF00F00D4E90C54B6
:1024200000EB02100022CFF6E07241EA0C0102EB51
:10243000055208436FF314024FF07E4540EA032033
:1024400005EB0465104305F07E4540EAC76028436C
:10245000F060306840F080703060F06840F080706C
:10246000F060FFF73FF90446306880013FF513AE96
:10247000FFF738F9001B02284FF00300F4D902B02F
:10248000BDE8F081411E0020B0EB116F1CBF0120A0
:1024900070474EF21002CEF2000251604EF6235108
:1024A000CEF20001F0230B7007219060116070479D
:1024B0007047000070470000704700007047000040
:1024C000704700007047000070B590F83C20012A6A
:1024D0004FF0020247D080F83D20026843F2004CE2
:1024E00054689368C4F2010C42F6004E6245C4F28F
:1024F000010E01D0724503D14D6824F470042C43C1
:102500004FF68F75CFF6FF550E682C4042F6FF351B
:10251000C4F201053443AA4254600FDCB2F1804F8B
:1025200016D040F20046C4F20006B24210D040F687
:102530000006C4F20006B2420AD00EE0724507D08F
:1025400044F20006C4F20106B24201D0624504D151
:10255000896823F08003194391600121002280F8EB
:102560003D1080F83C20104670BD00007047000010
:10257000002804BF0120704710B5044690F83D00C4
:1025800028B9002084F83C00204600F023F80220FF
:1025900084F83D002068211D04F0CCFE012084F861
:1025A000480084F83E0084F83F0084F8400084F836
:1025B000410084F8420084F8430084F8440084F821
:1025C000450084F8460084F8470084F83D00002068
:1025D00010BD000080B582B0006841F20001C4F275
:1025E0000001884212D0B0F1804F0CD141F2580066
:1025F000C4F20200016841F001010160006800F0CE
:1026000001000190019802B080BD00BF41F2580066
:10261000C4F202000168002241F01001016000686C
:10262000002100F01000009000983620FFF7CEF84F
:10263000362002B0BDE88040FFF7B8B890F83D10F2
:1026400001291CBF01207047022180F83D1001685C
:1026500042F6FF32C868C4F20102914240F0010024
:10266000C8600FDCB1F1804F1ED040F20040C4F2D0
:102670000000814218D040F60000C4F20000814200
:1026800012D01EE042F60040C4F2010081420BD09D
:1026900044F20000C4F20100814205D043F2004040
:1026A000C4F2010081420CD188680722C0F2010205
:1026B0000240062A4FF0000008D0B2F5803F08BF64
:1026C0007047086840F00100086000207047000073
:1026D00080B590F83C20012A4FF0020200F0A9805A
:1026E00080F83D20D0F800C08822DCF80830CFF612
:1026F000CE721A40CCF808200B686F2B10DD1F2219
:10270000C0F21002934237DCB3F5005F46DA702B5B
:1027100000F09280B3F5805F00F08480D6E000BFC7
:102720002F2B35DD4F2B3FDC302B6FD0402B40F073
:10273000CD80D1F804E0C968DCF82030DCF8202036
:1027400022F00102CCF82020DCF8182022F0F00260
:1027500042EA011123F00A0242EA0E02CCF81810F4
:10276000CCF82020DCF808104FF68872CFF6CF7234
:102770001140473154E000BF3F21C0F210018B42AD
:102780003ADC2021C0F210018B423FD0302139E0E9
:10279000E3B3102B3AD0202B38D097E060D0B3F1C0
:1027A000101F33D092E000BF502B6DD0602B40F053
:1027B0008D80D1F804E0C968DCF8203023F01003E4
:1027C000CCF82030DCF81830DCF8202023F47043FB
:1027D00022F0A00243EA013142EA0E12CCF81810AE
:1027E000CCF82020DCF808104FF68872CFF6CF72B4
:1027F0001140673114E000BF4021C0F210018B424C
:1028000004D07021C0F210018B425FD1DCF80810B7
:102810004FF68872CFF6CF721140194341F007018D
:10282000CCF808100022012180F83D10002180F82A
:102830003C10104680BD00BFD1E901E3C968DCF857
:10284000082043EA0E0322F47F4243EA01211143A8
:10285000CCF80810DCF8081041F07701E0E700BF81
:10286000D1E901E3C968DCF8082043EA0E0322F449
:102870007F4243EA01211143CCF80810DCF808102C
:1028800041F48041CCE700BFD1F804E0C968DCF82E
:102890002030DCF8202022F00102CCF82020DCF8E7
:1028A000182022F0F00242EA011123F00A0242EA63
:1028B0000E02CCF81810CCF82020DCF808104FF6E7
:1028C0008872CFF6CF7211405731A9E70122AAE7EB
:1028D0007047000010B5016804460869800744BFCE
:1028E000C8685FEA807061D40869400744BFC8685F
:1028F0005FEA407066D40869000744BFC8685FEAB1
:1029000000706DD40869C00644BFC8685FEAC06043
:1029100072D40869C0071CBFC8685FEAC07079D16B
:102920000869000644BFC8685FEA00607AD4086995
:10293000C00544BFC8685FEA006000F17B80086999
:10294000400644BFC8685FEA406000F17B800869C8
:10295000800644BFC8685FEA806000F17B80086938
:10296000C00244BFC8685FEAC02000F17B800869EC
:10297000800244BFC8685FEA802000F17B8008695C
:10298000400244BFC8685FEA402000F17B800869CC
:10299000000246BFC8685FEA002010BD6FF4000265
:1029A00020460A61BDE81040FFF7E0BD6FF002006D
:1029B000086101202077886980076BD02046FFF7E7
:1029C00087FF6DE06FF004000861022020778869BE
:1029D00010F4407F68D02046FFF77AFF6AE000BF1E
:1029E0006FF00800086104202077C869800765D06F
:1029F0002046FFF76DFF67E06FF0100008610820C8
:102A00002077C86910F4407F62D02046FFF760FF4E
:102A100064E000BF6FF001000861204600F040FB59
:102A200021687DE76FF0800008612046FFF742FDD6
:102A300021687CE76FF4807008612046FFF738FD5D
:102A400021687CE76FF040000861204600F012FC2E
:102A500021687CE76FF0200008612046FFF72CFD1D
:102A600021687CE76FF4801008612046FFF728FD9D
:102A700021687CE76FF4001008612046FFF71EFD17
:102A800021687CE76FF4800008612046FFF71AFD9B
:102A900021687CE7204600F025F8204600F03AFA4D
:102AA0002168002020771FE7204600F01BF8204611
:102AB00000F030FA2168002020771CE7204600F063
:102AC00011F8204600F026FA21680020207719E747
:102AD000204600F007F8204600F01CFA216800208C
:102AE000207716E7704700002DE9F04190F83C3060
:102AF000012B04BF0220BDE8F0814FEAB202052A93
:102B000000F28481DFE812F006005000A200F40019
:102B100046018A0103681A6AA3F1804622F0010285
:102B20001A621D6A1A465C6852F818CF8F68A6F5BB
:102B30009636D1F800E025F002054FEAB626072EBA
:102B400045EA07050AD80127B74017F0E50F1FBF70
:102B5000CF6825F00C0527F004073D43072E0BD85E
:102B6000012707FA06F616F0E50F1FBF24F440749C
:102B7000D1E9056734433C434FF68C76CFF6FE76B9
:102B80000CEA060747EA0E075C609F614F68096917
:102B90005F631D629F6947F008079F619F6927F087
:102BA00004079F6177E100BF036843F200461A6A99
:102BB000C4F2010622F010021A621D6A1A465C680D
:102BC00052F818EFB3428E68D1F800C025F0200506
:102BD00045EA061505D042F60046C4F20106B342A6
:102BE00007D1CE686FF0400725F0C00507EA06164A
:102BF0003543A3F18046A6F596364FEAB626072E52
:102C00000DD8012707FA06F616F0E50F1FBF24F4CA
:102C10004064D1E9056744EA860444EA870448F63B
:102C2000FF46CFF6FF660EEA060747EA0C275C6010
:102C30009F614F6809699F631D629F6947F4006740
:102C40009F619F6927F480679F6123E1036843F2D6
:102C500000461A6AC4F2010622F480721A621D6AE2
:102C60001A465C6852F81CCFB3428E68D1F800E077
:102C700025F4007545EA062505D042F60046C4F263
:102C80000106B34207D1CE6840F2FF47360225F471
:102C90004065BE433543A3F18046A6F596364FEA1C
:102CA000B626072E0DD8012707FA06F616F0E50F0F
:102CB0001FBF24F44054D1E9056744EA061444EAEE
:102CC00007144FF68C76CFF6FE760CEA060747EA35
:102CD0000E075C60DF614F680969DF631D62DF69B1
:102CE00047F00807DF61DF6927F00407DF61D2E002
:102CF000036843F200461A6AC4F2010622F48052C5
:102D00001A621D6A1A465C6852F81CCFB3428E687C
:102D1000D1F800E025F4005545EA063505D042F625
:102D20000046C4F20106B34207D1CE6844F6FF77ED
:102D3000360325F44045BE433543A3F18046A6F54E
:102D400096364FEAB626072E0DD8012707FA06F663
:102D500016F0E50F1FBF24F44044D1E9056744EAAB
:102D6000861444EA871448F6FF46CFF6FF660CEA5D
:102D7000060747EA0E275C60DF614F6809691F6438
:102D80001D62DF6947F40067DF61DF6927F4806750
:102D9000DF617FE003681A6AA3F1804722F4803282
:102DA0001A621A46A7F59637D3F820805D6852F864
:102DB00050EFD1F800C08E684FEAB727072F09D827
:102DC0000124BC4014F0E50F1EBF4C6925F480358A
:102DD00045EA042528F4003444EA06444FF68C768C
:102DE000CFF6FE7603360EEA060747EA0C075D606B
:102DF0001F654F6809699F641C621F6D47F00807D3
:102E00001F651F6D27F004071F6544E001210022A4
:102E100080F83C200846BDE8F08100BF03681A6ACC
:102E2000A3F1804722F480121A621A46A7F596375A
:102E3000D3F820805D6852F850EFD1F800C08E685A
:102E40004FEAB727072F09D80124BC4014F0E50F3B
:102E50001EBF4C6925F4802545EA842528F400141A
:102E600044EA065448F6FF46CFF6FF6606F540767C
:102E70000EEA060747EA0C275D601F654F6809697F
:102E8000DF641C621F6D47F400671F651F6D27F428
:102E900080671F6509021368194311600021002231
:102EA00080F83C200846BDE8F0810000002804BFFF
:102EB0000120704710B5044690F83D0028B9002065
:102EC00084F83C00204600F023F8022084F83D00FE
:102ED0002068211D04F02EFA012084F8480084F8AF
:102EE0003E0084F83F0084F8400084F8410084F8F4
:102EF000420084F8430084F8440084F8450084F8D4
:102F0000460084F8470084F83D00002010BD000012
:102F1000704700007047000061B10A1F4FEAB2021B
:102F2000032A11D8DFE802F00214181C00F13F0355
:102F300018E000BF90F83E20012A1CBF0120704716
:102F4000022280F83E202CE000F143030AE000BF9B
:102F500000F1400306E000BF00F1410302E000BFC2
:102F600000F142031B78012B1CBF01207047032A8C
:102F700008D8DFE802F0030B0F1300BF022280F82D
:102F80003F200EE0022280F843200AE0022280F86F
:102F9000402006E0022280F8412002E0022280F870
:102FA0004220026801F01F010120136A00FA01F1BA
:102FB0008B431362136A0B43A2F18041A1F5963152
:102FC0004FEAB1210629136244D8884010F0650FFA
:102FD00040D0506C42F6FF31C4F2010140F4004091
:102FE0008A42506410DCB2F1804F1FD040F20040A2
:102FF000C4F20000824219D040F60000C4F2000082
:10300000824213D01FE000BF42F60040C4F201002C
:1030100082420BD044F20000C4F20100824205D08B
:1030200043F20040C4F2010082420CD190680721B3
:10303000C0F20101014006294FF0000008D0B1F5AF
:10304000803F08BF7047106840F00100106000200A
:10305000704700BF42F6FF30C4F201008242C2DD79
:1030600043F6FF70C4F20100824207DC42F60040E2
:10307000C4F201008242D3D1D8E700BF44F200007D
:10308000C4F201008242D1D044F60000C4F2010033
:10309000824202BF506C40F400405064D3E700000D
:1030A000F0B581B040F2B021C2F20001884201D0F7
:1030B00001B0F0BD40F2A415C2F20005687A297A89
:1030C0000130C2B26872481C142A287206D0C0B2FD
:1030D00064280BD095F8210088B97AE00020687246
:1030E00001F090F8287AC0B26428F3D169890020F1
:1030F0002872481C688195F82100002869D0A889A9
:1031000041F28832013081B29142A88161D140F60A
:103110000044C4F600040026A4F580604FF48071DA
:103120000122AE8185F82160FEF7D6FA20460421FF
:103130000122FEF7D1FA204604210022FEF7CCFA44
:103140002C20C4F200004FF47A7101604FF4FA7140
:10315000C16044F24000A8824020A87549F60040B2
:10316000C0F6000040F2100785F82060A5F8016065
:10317000EE7090E84E00C2F20007046907F1140CEB
:10318000007D8CE84E0049F6603187F8280007F191
:103190003C00C0F6000140227C62FDF717F96A7D11
:1031A00049F6763107F15000C0F60001FDF70EF93F
:1031B000AA7D49F68C3107F16400C0F60001FDF7E5
:1031C00005F940F20800C2F20000018841F0FF0159
:1031D000018095F8240000283FF46AAFE88945F69D
:1031E0002941013041438AB2920842EA813189B2D1
:1031F00009092829E88105D980B241F2883188423D
:103200001BD055E740F60044C4F60004A4F58060E6
:103210004FF40071FEF758FA204604210122FEF710
:103220005BFA204604210022FEF756FAE88980B2B4
:1032300041F2883188427FF43BAF40F600440020E1
:10324000C4F60004E88185F82400A4F580604FF4FA
:1032500000710122FEF740FA204604210122FEF708
:103260003BFA20460421002201B0BDE8F040FEF701
:1032700033BA00007047000090F88010012904BFA5
:10328000022070472421C0F8841002681168136876
:1032900023F00103136021F0005300214166136005
:1032A0002022C0F8842080F8801008467047000073
:1032B0007047000070470000B0B590F88020012AE8
:1032C00004BF0220B0BD2422C0F884200268D0F8D8
:1032D00064E0D2F800C01368BEF1000F23F00103D0
:1032E0001360936823F0606341EA0301916019D091
:1032F0009368916849F6503E490FC0F6000E49F6B2
:1033000058351EF80140C0F60005695CC3F34263FE
:10331000E400B4FBF1F11EF80340EB5CE500B5FB03
:10332000F3F301E001210123A0F86A102021A0F8A5
:103330006830C2F800C0C0F88410002180F8801006
:103340000846B0BDB0B590F88020012A04BF022025
:10335000B0BD2422C0F884200268D0F864E0D2F81E
:1033600000C01368BEF1000F23F0010313609368DF
:1033700023F0604341EA0301916019D0936891689A
:1033800049F6503E490FC0F6000E49F658351EF872
:103390000140C0F60005695CC3F34263E400B4FB7E
:1033A000F1F11EF80340EB5CE500B5FBF3F301E03F
:1033B00001210123A0F86A102021A0F86830C2F88A
:1033C00000C0C0F88410002180F880100846B0BD0D
:1033D0007047000070470000B0B501680446D0F89F
:1033E0008400D4F888508A68120640F1868021282B
:1033F00040F0838051E8020F216820F0800041E80E
:103400000202FAB1206850E8020F216820F0800023
:1034100041E80202B2B1206850E8020F216820F0B2
:10342000800041E802026AB1206850E8020F21687A
:1034300020F0800041E8020222B1206850E8020F2B
:10344000DAE700BFA06F48B1FDF760FE30B1A06FB2
:10345000FDF7D2FE202800F08B8000BF206850E8E6
:10346000000F216820F0C00041E80002BAB32068D4
:1034700050E8000F216820F0C00041E8000272B35C
:10348000206850E8000F216820F0C00041E80002E9
:103490002AB3206850E8000F216820F0C00041E8FE
:1034A0000002002ADAD11AE0206850E8020F2168F1
:1034B00020F4000041E80202DAB1206850E8020F6F
:1034C000216820F4000041E8020292B1206850E82F
:1034D000020F216820F4000041E802024AB120688E
:1034E00050E8020F216820F4000041E80202002A9F
:1034F000DAD12020C4F884002168886840064FF0A3
:10350000000040F1B480222D18BFB0BD51E8020F79
:10351000216820F0400041E80202FAB1206850E83A
:10352000020F216820F0400041E80202B2B1206899
:1035300050E8020F216820F0400041E802026AB121
:10354000206850E8020F216820F0400041E80202A4
:1035500022B1206850E8020FDAE700BFE06F68B1DF
:10356000FDF7D4FD50B1E06FFDF746FE202805D1F0
:103570001020C4F88C000320B0BD00BF206850E8C4
:10358000000F216820F4907041E80002DAB1206851
:1035900050E8000F216820F4907041E8000292B1D9
:1035A000206850E8000F216820F4907041E8000284
:1035B0004AB1206850E8000F216820F4907041E87B
:1035C0000002002ADAD14FF6FE70CEF6FF7000BF7F
:1035D000216851E8021F2268014042E80213C3B18A
:1035E000216851E8021F2268014042E8021383B1BA
:1035F000216851E8021F2268014042E8021343B1EA
:10360000216851E8021F2268014042E80213002BA2
:10361000DED1E06E012824D1206850E8000F216837
:1036200020F0100041E80002DAB1206850E8000FF5
:10363000216820F0100041E8000292B1206850E8B3
:10364000000F216820F0100041E800024AB1206814
:1036500050E8000F216820F0100041E80002002A25
:10366000DAD12020C4F888000020E0662067B0BDD1
:103670007047000070B5016840F62F03CA69044620
:1036800008688E681340202B0ED100F0200306F04E
:1036900080555B1919D0216F002900F07F802046EA
:1036A000BDE87040084700BF40F60F031A420CD037
:1036B0000123C1F2000306EA030C40F22013C0F21A
:1036C0000043034013EB0C036AD1E36E012B05D1D9
:1036D00012F0100318BF10F010034DD1D3020BD518
:1036E00016F4800308D04FF4801220460A62BDE829
:1036F0007040FFF76FBE00BF130606D500F08003D1
:1037000006F400069B1940F00B82530640F19081AD
:1037100010F0400300F08C8151E8000F216820F088
:10372000400041E80002002A00F08E81206850E845
:10373000000F216820F0400041E80002002A00F05C
:103740008381206850E8000F216820F0400041E8A4
:103750000002002A00F07881206850E8000F2168FC
:1037600020F0400041E80002002A00F06D8120684E
:1037700050E8000FD2E700BF1020086288684006BA
:1037800000F19880B4F85C00B4F85E20B4F85E30C4
:10379000002B1CBF801A5FEA00420ED170BD00BF33
:1037A000D30718BF10F4807340F05881930706F0D8
:1037B000010E00F15F8168E1216851E8001F226875
:1037C00021F4907142E80013DBB1216851E8001F39
:1037D000226821F4907142E8001393B1216851E806
:1037E000001F226821F4907142E800134BB1216858
:1037F00051E8001F226821F4907142E80013002B69
:10380000DAD14FF6FE71CEF6FF7100BF226852E8A2
:10381000022F23680A4043E80226C6B1226852E814
:10382000022F23680A4043E8022686B1226852E844
:10383000022F23680A4043E8022646B1226852E874
:10384000022F23680A4043E80226002EDED1202101
:10385000C4F888100021E166216700BF216851E8A3
:10386000001F226821F0100142E80013002B00F035
:10387000D980216851E8001F226821F0100142E838
:103880000013002B00F0CE80216851E8001F226851
:1038900021F0100142E80013002B00F0C3802168E2
:1038A00051E8001F226821F0100142E80013002BAC
:1038B000D4D1B7E0E06F0268536898B200283FF4B3
:1038C0006DAFB4F85CC06045BFF468AFA4F85E307B
:1038D0001068800600F1A28051E8000F216820F4F2
:1038E000807041E80002FAB1206850E8000F2168BA
:1038F00020F4807041E80002B2B1206850E8000F67
:10390000216820F4807041E800026AB1206850E824
:10391000000F216820F4807041E8000222B1206885
:1039200050E8000FDAE700BF206850E8020F216876
:1039300020F0010041E80202BAB3206850E8020F0B
:10394000216820F0010041E8020272B3206850E8CB
:10395000020F216820F0010041E802022AB320682A
:1039600050E8020F216820F0010041E80202002A1D
:10397000DAD11AE0206850E8020F216820F04000F8
:1039800041E80202DAB1206850E8020F216820F015
:10399000400041E8020292B1206850E8020F21681D
:1039A00020F0400041E802024AB1206850E8020FCE
:1039B000216820F0400041E80202002ADAD12020EC
:1039C000C4F888000020E066206850E8000F2168F5
:1039D00020F0100041E80002DAB1206850E8000F42
:1039E000216820F0100041E8000292B1206850E800
:1039F000000F216820F0100041E800024AB1206861
:103A000050E8000F216820F0100041E80002002A71
:103A1000DAD1E06FFDF77AFBB4F85CC0B4F85E0071
:103A2000ACEB000081B22046BDE87040FFF740BC1F
:103A3000110240F11F8110F0804100F01B812046EF
:103A4000BDE87040FFF7C4BC20200021C4F884000A
:103A500020466167BDE8704000F098BB01230B620F
:103A6000D4F88C3043F00103C4F88C30930706F08F
:103A7000010E0AD5BEF1000F07D002230B62D4F865
:103A80008C3043F00403C4F88C3053070AD5BEF1E0
:103A9000000F07D004230B62D4F88C3043F00203EC
:103AA000C4F88C3013070CD500F0200353EA0C0344
:103AB00007D008230B62D4F88C3043F00803C4F815
:103AC0008C3013050BD510F0806308D04FF40063E1
:103AD0000B62D4F88C3043F02003C4F88C30D4F857
:103AE0008C30002B3FF45AAE12F020021EBF00F0C3
:103AF000200006F0805210EB020040F0DF80D4F886
:103B00008C008A6800F0280002F0400280180DD175
:103B10002046FFF7ADFD0020C4F88C0070BD00BF4B
:103B2000616F00297FF4BBAD38E600BF51E8000F9C
:103B3000216820F4907041E80002FAB1206850E852
:103B4000000F216820F4907041E80002B2B12068B3
:103B500050E8000F216820F4907041E800026AB13B
:103B6000206850E8000F216820F4907041E80002BE
:103B700022B1206850E8000FDAE700BF4FF6FE7070
:103B8000CEF6FF70216851E8021F2268014042E82A
:103B90000213C3B1216851E8021F2268014042E8C4
:103BA000021383B1216851E8021F2268014042E8F4
:103BB000021343B1216851E8021F2268014042E824
:103BC0000213002BDED1E06E012824D1206850E8DA
:103BD000000F216820F0100041E80002DAB12068EF
:103BE00050E8000F216820F0100041E8000292B177
:103BF000206850E8000F216820F0100041E8000222
:103C00004AB1206850E8000F216820F0100041E818
:103C10000002002ADAD120200021C4F88800E166E1
:103C2000206821678168490642D550E8020F216863
:103C300020F0400041E8020242B3206850E8020F41
:103C4000216820F0400041E80202FAB1206850E803
:103C5000020F216820F0400041E80202B2B1206862
:103C600050E8020F216820F0400041E802026AB1EA
:103C70002068DAE7D1017FF591ADB0F1FF3FC8BF11
:103C800070BD2046BDE87040FFF714BBE06F78B10F
:103C900047F22951C0F600018163FDF76FFA002851
:103CA0003FF47CADE06F816BBDE87040084700BF1A
:103CB0002046BDE87040FFF7DBBC00BF226F002A42
:103CC0003FF41DAF20469047216818E7B0B582B099
:103CD000B0B10446D0F8840028B9002084F88000F0
:103CE000204600F059F82420C4F8840020680168B8
:103CF00021F001010160204603F0CCFD012803D131
:103D0000012002B0B0BD00BFA06A10B1204603F090
:103D100097FB2068416821F490414160816821F05F
:103D20002A018160016841F0010101600020C4F8AE
:103D30008C00FDF7D7FC216805460A6812070CD5F0
:103D40006FF07E4C20464FF4001100222B46CDF838
:103D500000C003F0F1FE78B92168086840070FD56C
:103D60006FF07E4C20464FF4800100222B46CDF8A8
:103D700000C003F0E1FE18B1032002B0B0BD00BFE7
:103D80002020C4F88400C4F888000020E06684F88D
:103D9000800002B0B0BD00002DE9F04397B00446AA
:103DA00001A808303C21FCF734FC206843F60001F0
:103DB000C4F20101884203D017B0BDE8F08300BF10
:103DC00001200190002501A80295FDF7D9FD0028EA
:103DD00018BFFDF767F841F24C00C4F202004169D8
:103DE00040F2080841F4804141614169C4F202088F
:103DF00001F4804112911299016841F001010160C2
:103E0000006812A900F00100129012984FF4C060EF
:103E100012900220CDE91305072016904FF0904034
:103E20001595FDF75DFB40F24017C2F200073846DA
:103E300040F8048F182180264FF48059C0E90115FD
:103E4000C0E90356C0E90555C0E90759FDF72CFA4A
:103E5000002818BFFDF726F8381D40F20425E0675A
:103E600008F11400C2F2000519211022002385E890
:103E70004F002846FC62C5E90533C5E90739FDF75F
:103E800013FA002818BFFDF70DF8252001210022A4
:103E9000A567AC62FDF79AFC2520FDF787FC17B0FB
:103EA000BDE8F083F0B581B00446D0F88800202842
:103EB0000ED113460A4600294FF0010018BF002B0F
:103EC00002D101B0F0BD00BF94F88000012803D1F9
:103ED000022001B0F0BD00BF01204FF0000C84F8BB
:103EE0008000C4F86CC0216848F20005C4F20005E7
:103EF000A9422FD04D682D022CD551E8001F25680E
:103F000041F0806145E8001020B3206850E8000FC0
:103F1000216840F0806041E80005DDB1206850E88C
:103F2000000F216840F0806041E8000595B12068ED
:103F300050E8000F216840F0806041E800054DB175
:103F4000206850E8000F216840F0806041E80005DB
:103F5000002DDAD12220A265A4F85C30C4F88CC010
:103F6000C4F88800E06F08B347F21D71C0F6000185
:103F700047F67D0547F2395600F12C0CC0F60005D6
:103F8000C0F600068CE862002168002724318763B0
:103F9000FDF720FA50B11020C4F88C00202084F8DE
:103FA0008070C4F88800012001B0F0BD20690021B4
:103FB00084F8801030B300BF206850E8000F2168FB
:103FC00040F4807041E80002E2B1206850E8000F40
:103FD000216840F4807041E800029AB1206850E8FE
:103FE000000F216840F4807041E8000252B120685F
:103FF00050E8000F216840F4807041E80002002A78
:10400000DAD100BF206850E8020F216840F00100BB
:1040100041E80202DAB3206850E8020F216840F05C
:10402000010041E8020292B3206850E8020F2168C3
:1040300040F0010041E802024AB3206850E8020F54
:10404000216840F0010041E80202002ADAD11EE0B6
:10405000206850E8020F216840F0400041E8020269
:10406000FAB1206850E8020F216840F0400041E8B2
:104070000202B2B1206850E8020F216840F040000F
:1040800041E80202002A4FF000003FF41AAF206816
:1040900050E8020F216840F0400041E80202002A87
:1040A000D6D1002001B0F0BD70470000704700007D
:1040B0002DE9F04381B00446D0F8840020280BD1CC
:1040C0000E4600294FF001005CD01746002A59D057
:1040D00094F88000012803D1022001B0BDE8F083EC
:1040E000012084F880004FF0000921201D46C4F80B
:1040F0008C90C4F88400FDF7F5FAA4F85470A4F885
:104100005670A1680746B1F5805F07D12069002885
:104110001CBF30464E46B046064601E04FF0000850
:1041200084F8809009E000BF16F8010B21688862CE
:10413000B4F856000138A4F85600B4F8560088B117
:104140002046802100223B46009503F0F5FC88B90B
:10415000002EE9D138F8020B21686FF35F208862E6
:104160000026E5E72046402100223B46009503F06B
:10417000E3FC18B1032001B0BDE8F0832020C4F8AF
:104180008400002001B0BDE8F0830000704700000B
:10419000FEE70000B0B540F20044C4F6000420463B
:1041A0000121FDF78BFA78B120460221FDF786FA4E
:1041B00050B120460421FDF781FA28B14FF090401C
:1041C0000121FDF77BFAB0B9204601210125FDF759
:1041D00075FA88B1204602210225FDF76FFA58B121
:1041E00020460421FDF76AFA40B14FF090400121CA
:1041F000FDF764FA20B100252846B0BD0320B0BD0C
:104200000420B0BD80B5FFF7C5FF40F2A411C2F293
:1042100000010B7980F0FF021A4083F0FF03034096
:1042200048718A71CB71087102D00020488102E088
:104230004889092822D8501E03281FD8DFE800F03B
:1042400002200C1691F8200091F82420104315D17B
:104250000120087480BD00BF91F8200091F824204F
:10426000104318BF80BD0120887480BD91F82000E4
:1042700091F82420104304BF0120C87480BD00BF02
:1042800091F8200091F824201043F7D101204874C0
:1042900080BD000040F21841C4F60001D1F8FC33A3
:1042A0000A694FF0000C42F400720A610A6942F494
:1042B00080720A610A6842F020020A602022C1F876
:1042C000FC230A6942F020020A6100BF00BF00BF60
:1042D0000A6842F020020A600A6842F480720A60AA
:1042E000C1F8FCC30A6942F020020A6100BF00BFA6
:1042F00000BF0A6842F020020A600A6842F4807235
:104300000A60C1F8FC33D1F8FC330A6942F4007248
:104310000A610A6942F480720A610A6842F0200266
:104320000A602122C1F8FC230A6942F020020A61D6
:1043300000BF00BF00BF0A6842F020020A600A689E
:1043400042F480720A60C1F8FCC30A6942F020029C
:104350000A6100BF00BF00BF0A6842F020020A6085
:104360000A6842F480720A60C1F8FC33D1F8FC2379
:104370000B6943F400730B610B6943F480730B61A9
:104380000B6843F020030B602223C1F8FC330B6958
:1043900043F020030B6100BF00BF00BF0B6843F078
:1043A00020030B600B6843F480730B6000BF00BFF9
:1043B00000BF0B6843F400730B60C1F8FC234FF49B
:1043C000963200BFD1F8FCC30B69043A43F4007382
:1043D0000B610B6843F480730B600B6843F02003A0
:1043E0000B60C1F8FC030B6943F020030B6100BFB5
:1043F00000BF00BF0B6843F020030B600B6843F461
:1044000080730B6000BF00BF00BF0B6843F40073F4
:104410000B60C1F8FCC3D1F8FCC30B6943F4007313
:104420000B610B6843F480730B600B6843F020034F
:104430000B60C1F8FC030B6943F020030B6100BF64
:1044400000BF00BF0B6843F020030B600B6843F410
:1044500080730B6000BF00BF00BF0B6843F40073A4
:104460000B60C1F8FCC3D1F8FCC30B6943F40073C3
:104470000B610B6843F480730B600B6843F02003FF
:104480000B60C1F8FC030B6943F020030B6100BF14
:1044900000BF00BF0B6843F020030B600B6843F4C0
:1044A00080730B6000BF00BF00BF0B6843F4007354
:1044B0000B60C1F8FCC3D1F8FCC30B6943F4007373
:1044C0000B610B6843F480730B600B6843F02003AF
:1044D0000B60C1F8FC030B6943F020030B6100BFC4
:1044E00000BF00BF0B6843F020030B600B6843F470
:1044F00080730B6000BF00BF00BF0B6843F4007304
:104500000B60C1F8FCC37FF45DAF70472DE9F0414B
:104510000A78FAB148F6581804464D1C002740F2B4
:104520003F16C0F6000800BFA2F12000C1B249004A
:1045300051FA80F008EB0012B1B2204600F00CF8FE
:10454000EA5D002A08BFBDE8F081103E132F07F195
:104550000107E9D3BDE8F0812DE9F04F40F218439F
:10456000C4F60003D3F8FC731E694FF0200C46F428
:1045700000761E611E694FF0210E46F480761E61A2
:104580001E6840F20E0946F020061E60C3F8FCC308
:104590001E6940F2002A46F020061E6100BF00BFDF
:1045A00000BF1E684FF0000B46F020061E601E681C
:1045B0004FF0220846F480761E60C3F8FC031E69A3
:1045C000C2F2000946F020061E6100BF00BF00BF16
:1045D0001E68C2F2000A46F020061E601E6846F4FD
:1045E00080761E60C3F8FC73D3F8FC431F6947F460
:1045F00000771F611F6947F480771F611F6847F0CC
:1046000020071F60C3F8FCE31D6945F020051D610C
:1046100000BF00BF00BF1D6845F020051D601D687C
:1046200045F480751D60C3F8FC131D6945F0200535
:104630001D6100BF00BF00BF1D6845F020051D6063
:104640001D6845F480751D60C3F8FC43D3F8FC5326
:104650001E6946F400761E611E6946F480761E616E
:104660001E6846F020061E60C3F8FC831E6946F0F3
:1046700020061E6100BF00BF00BF1E6846F0200676
:104680001E601E6846F480761E6000BF00BF00BF3B
:104690001E6846F400761E60C3F8FC53002500BF78
:1046A00032F81B60EE40F607564608BF4E46378884
:1046B000D3F8FC631C6944F400741C611C6844F466
:1046C00080741C601C6844F020041C60C3F8FC73F8
:1046D0001C6944F020041C6100BF00BF00BF1C68BF
:1046E00044F020041C601C6844F480741C6000BF0B
:1046F00000BF00BF1C6844F400741C60C3F8FC6376
:1047000032F81B406E1CF440E407544608BF4C4688
:104710002488D3F8FC631F69023547F400771F61D2
:104720001F68102D47F480771F601F6847F020072F
:104730001F60C3F8FC431C6944F020041C6100BFE7
:1047400000BF00BF1C6844F020041C601C6844F4D7
:1047500080741C6000BF00BF00BF1C6844F400747C
:104760001C60C3F8FC639BD1D3F8FC531C69013077
:1047700044F400741C611C690BF1010B44F4807457
:104780001C611C68BBF1180F44F020041C60C3F8C6
:10479000FCC31C6944F020041C6100BF00BF00BFC3
:1047A0001C6844F020041C601C6844F480741C6085
:1047B000C4B2C3F8FC431C6944F020041C6100BF70
:1047C00000BF00BF1C6844F020041C601C6844F457
:1047D00080741C60C3F8FC53D3F8FC531C6944F488
:1047E00000741C611C6944F480741C611C6844F0F2
:1047F00020041C60C3F8FCE31C6944F020041C6125
:1048000000BF00BF00BF1C6844F020041C601C688F
:1048100044F480741C60C3F8FC131C6944F0200449
:104820001C6100BF00BF00BF1C6844F020041C6076
:104830001C6844F480741C60C3F8FC5308BFBDE8D6
:10484000F08F03E72DE9F04F8BB0002641F24C00CA
:104850000596C4F20200016840F2184541F00401D7
:1048600001600168C4F6000501F004010691069993
:10487000016801AC41F001010160016840F61409D2
:1048800001F00101069106990168C4F6000941F0A2
:10489000020101600068214600F0020006900698BF
:1048A0004FF44870019001200290A5F118000127F3
:1048B000CDE90366FCF714FE4FF48070CDE90107E3
:1048C0004FF090402146CDE90366FCF709FE4FF614
:1048D000FF7005F57A7406904FF0030806A920468C
:1048E0000A964FF6FF7B0797CDE90868FCF7F8FDBD
:1048F0004FF6004ACFF6FF7A55F80A0006A940F4B1
:10490000807045F80A0028684FF6FF7740F4087079
:104910002860286940F400702861286940F480709C
:104920002861286840F020002860C9F800602869E4
:1049300040F02000286100BF00BF00BF286840F0A1
:1049400020002860286840F48070286020460A967D
:10495000CDF818B0CDF82480CDE90766FCF7C0FD8E
:104960004FF6104BCFF6FF7B55F80B0007A940F42C
:10497000807045F80B0000BF00BF00BFD5F8F8936A
:1049800055F80A0040F4807045F80A00012081E8DB
:10499000410106A920460A960697FCF7A1FD286862
:1049A00048F2302140F40070286040F20220C2F248
:1049B0000000A0F800900088884203D100F0D0FAEF
:1049C00002E000BF01F0B6F82869002640F400704C
:1049D000286128694FF6FF7840F4807028612868C4
:1049E0004FF0030940F02000286040F61400C4F6A0
:1049F00000000660286906A940F02000286100BF79
:104A000000BF00BF286840F020002860286840F4FC
:104A10008070286020460A96CDE90686CDE90869AF
:104A2000FCF75EFD55F80B0007A940F4807045F8CF
:104A30000B0000BF00BF00BFD5F8F87355F80A009F
:104A400040F4807045F80A00012081E8410206A97F
:104A500020460A96CDF81880FCF742FD286840F4FD
:104A60000070286040F20220C2F2000007800BB004
:104A7000BDE8F08F81B0ADF80200BDF8020040F251
:104A80000E01C2F20001088001B0704781B0ADF89C
:104A90000200BDF8020040F20021C2F200010880CD
:104AA00001B07047B0B540F20804C2F2000420889B
:104AB000C10729D140F210058107C2F2000534D4A4
:104AC00041073DD4010746D4C1064FD4810658D4CE
:104AD000410661D401066AD4C10508D520F480706E
:104AE000208005F1A001C020FFF710FD208881057E
:104AF00058BFB0BD20F4007205F1B401D820228067
:104B0000BDE8B040FFF702BD20F0010040F2100107
:104B10002080C2F200010020FFF7F8FC208840F25C
:104B200010058107C2F20005CAD520F002002080DE
:104B300005F114011820FFF7E9FC20884107C1D5D1
:104B400020F00400208005F128013020FFF7DEFC72
:104B500020880107B8D520F00800208005F13C012D
:104B60004820FFF7D3FC2088C106AFD520F0100005
:104B7000208005F150016020FFF7C8FC20888106E5
:104B8000A6D520F02000208005F164017820FFF7F1
:104B9000BDFC208841069DD520F04000208005F115
:104BA00078019020FFF7B2FC2088010694D520F010
:104BB0008000208005F18C01A820FFF7A7FC208849
:104BC000C10594D58AE7000080B582B041F2480063
:104BD000C4F202000168002241F004010160016892
:104BE00001F0040101910199016841F001010160A6
:104BF0000068002100F00100009000980B20FCF7F5
:104C0000E5FD0B20FCF7D2FD0C2000210022FCF773
:104C1000DDFD0C2002B0BDE88040FCF7C7BD000000
:104C20002DE9F04786B0002741F24C000597C4F209
:104C30000200016840F6000541F0040101600168CE
:104C4000C4F6000501F004010091009901680122F9
:104C500041F02001016001684FF47F4401F0200120
:104C60000091009901684FF0010A41F04001016094
:104C7000016801F0400100910099016841F00101D3
:104C80000160016801F0010100910099016841F0A3
:104C900002010160016801F00201009100990168C0
:104CA00041F00801016000684FF47F4100F0080006
:104CB000009000982846FCF70FFD05F580684046F7
:104CC000042100224FF00409FCF706FD01AE28463E
:104CD0003146CDE9014ACDE90377FCF701FC4FF4F9
:104CE00080600190032405F580503146CDE90247EC
:104CF000FCF7F6FBFF2001A991C128463146FCF7DD
:104D0000EFFB4FF090403146CDE901A7CDF80CA064
:104D1000FCF7E6FB49F6FC1001A991C14FF0904069
:104D20003146FCF7DDFB072001A9A5F5806581E888
:104D3000810428463146FCF7D3FB4FF6F87001A9F1
:104D400091C128463146FCF7CBFB40463146CDE9C0
:104D5000019ACDE90377FCF7C3FB06B0BDE8F08705
:104D600010B594B040F264200021C2F200004FF070
:104D700080424F2340F2E7340E91CDE90C11CDE98A
:104D80000911CDE90711CDE90511CDE90311CDE9EF
:104D90000111C0E90023C0E9021401618161FDF73E
:104DA000E7FB002818BFFCF77DF84FF480500B900C
:104DB00040F26420C2F200000BA9FDF789FC002834
:104DC00018BFFCF76FF840F26420C2F20000FEF753
:104DD0006DF8002818BFFCF765F840F26420002445
:104DE000C2F2000008A908940A94FDF76DFB0028A0
:104DF00018BFFCF757F86020CDE90104039405942F
:104E000040F26424C2F2000401A920460422FDF706
:104E10006BFE002818BFFCF745F82068B0F1804F02
:104E200002D014B010BD00BF41F24C00C4F2020029
:104E3000016841F00101016000680FA900F0010064
:104E40000F900F980220CDE90F000020CDE911004E
:104E5000012013904FF09040FCF742FB14B010BDBE
:104E600010B584B040F2B02041F200010024C2F23B
:104E70000000C4F2000140F2E73302944F2280E8C0
:104E80001600C3608461FDF773FB002818BFFCF7B0
:104E900009F840F2B020C2F2000001A90194039485
:104EA000FDF712FB002818BFFBF7FCFF04B010BD94
:104EB000B0B540F2FC2043F60001C2F20000C4F29B
:104EC000010100230C244FF4165280E80E00C0E9C3
:104ED0000333C0E90543C0E90733C0E90933FEF7EE
:104EE000F5FE002818BFFBF7DDFF40F2FC20C2F200
:104EF00000000021FEF726FA002818BFFBF7D2FFBA
:104F000040F2FC20C2F200000021FEF7D5F9002893
:104F100018BFFBF7C7FF40F2FC25C2F20005284688
:104F2000FEF7AAF9002818BFFBF7BCFF2B6840F278
:104F3000CD111868C2F2000140F020001860186816
:104F4000322240F0100428461C60BDE8B040FEF755
:104F5000A9BF0000FEE70000FEE700007047000068
:104F600080B540F21840C4F60000D0F8FC33016967
:104F7000002241F40071016101694FF0010C41F41C
:104F80008071016101684FF4407E41F020010160B1
:104F9000C0F8FC23016941F02001016100BF00BF9E
:104FA00000BF016841F020010160016841F4807197
:104FB0000160C0F8FCC3016941F02001016100BF3C
:104FC00000BF00BF016841F020010160016841F4A9
:104FD00080710160C0F8FC33D0F8FC33016941F402
:104FE00000710161016941F480710161016841F062
:104FF00020010160C0F8FCC3016941F0200101619A
:1050000000BF00BF00BF016841F0200101600168DE
:1050100041F480710160C0F8FC23016941F0200176
:10502000016100BF00BF00BF016841F020010160C5
:10503000016841F480710160C0F8FC33D0F8FC23B2
:10504000016941F400710161016941F480710161FC
:10505000016841F0200101601021C0F8FC130169D2
:1050600041F02001016100BF00BF00BF016841F0B5
:1050700020010160016841F48071016041F290718A
:10508000C0F8FC13016941F02001016100BF00BFBD
:1050900000BF016841F020010160016841F48071A6
:1050A0000160C0F8FC23D0F8FC23016941F40071D1
:1050B0000161016941F480710161016841F02001E1
:1050C00001606021C0F8FC13016941F02001016119
:1050D00000BF00BF00BF016841F02001016001680E
:1050E00041F4807101604FF41C51C0F8FC13016958
:1050F00041F02001016100BF00BF00BF016841F025
:1051000020010160016841F480710160C0F8FC2356
:10511000D0F8FC23016941F400710161016941F497
:1051200080710161016841F0200101606121C0F8D6
:10513000FC13016941F02001016100BF00BF00BF05
:10514000016841F020010160016841F48071016053
:10515000C0F8FCC301694FF0030C41F0200101616C
:1051600000BF00BF00BF016841F02001016001687D
:1051700041F480710160C0F8FC23D0F8FC23016980
:1051800041F400710161016941F4807101610168BC
:1051900041F0200101604621C0F8FC13016941F093
:1051A0002001016100BF00BF00BF016841F0200184
:1051B0000160016841F4807101600221C0F8FC13B4
:1051C000036943F02003036100BF00BF00BF036811
:1051D00043F020030360036843F480730360C0F866
:1051E000FC23D0F8FC23036943F4007303610369D3
:1051F00043F480730361036843F0200303601323C7
:10520000C0F8FC33036943F02003036100BF00BF13
:1052100000BF036843F020030360036843F4807316
:10522000036048F21003C0F8FC33036943F0200325
:10523000036100BF00BF00BF036843F020030360A9
:10524000036843F480730360C0F8FC23D0F8FC23A8
:10525000036943F400730361036943F480730361DA
:10526000036843F0200303601223C0F8FC33036992
:1052700043F02003036100BF00BF00BF036843F099
:1052800020030360036843F48073036048F2FE0365
:10529000C0F8FC33036943F02003036100BF00BF83
:1052A00000BF036843F020030360036843F4807386
:1052B0000360C0F8FC23D0F8FC23036943F40073B7
:1052C0000361036943F480730361036843F02003BF
:1052D0000360C0F8FC13016941F02001016100BFC7
:1052E00000BF00BF016841F020010160016841F486
:1052F000807101604FF4A061C0F8FC13016941F0B6
:105300002001016100BF00BF00BF016841F0200122
:105310000160016841F480710160C0F8FC23D0F89D
:10532000FC23016941F400710161016941F480715C
:105330000161016841F020010160C0F8FCC301690E
:1053400041F02001016100BF00BF00BF016841F0D2
:1053500020010160016841F48071016041F2300177
:10536000C0F8FC13016941F02001016100BF00BFDA
:1053700000BF016841F020010160016841F48071C3
:105380000160C0F8FC23D0F8FC33016940F203321D
:1053900041F400710161016941F4807101610168AA
:1053A00041F0200101603021C0F8FC13016941F097
:1053B0002001016100BF00BF00BF016841F0200172
:1053C0000160016841F480710160C0F8FC2301694B
:1053D00041F02001016100BF00BF00BF016841F042
:1053E00020010160016841F480710160C0F8FC3364
:1053F000D0F8FC13036943F400730361036943F4B9
:1054000080730361036843F0200303603123C0F815
:10541000FC33036943F02003036100BF00BF00BFFA
:10542000036843F020030360036843F48073036060
:10543000C0F8FC23036943F02003036100BF00BFF1
:1054400000BF036843F020030360036843F48073E4
:105450000360C0F8FC13D0F8FC13036943F4007335
:105460000361036943F480730361036843F020031D
:1054700003603223C0F8FC33036943F02003036167
:1054800000BF00BF00BF036843F020030360036850
:1054900043F480730360C0F8FC23036943F02003E6
:1054A000036100BF00BF00BF036843F02003036037
:1054B000036843F480730360C0F8FC13D0F8FC1356
:1054C000036943F400730361036943F48073036168
:1054D000036843F0200303603323C0F8FC330369FF
:1054E00043F02003036100BF00BF00BF036843F027
:1054F00020030360036843F480730360C0F8FCE397
:10550000036943F02003036100BF00BF00BF0368CD
:1055100043F020030360036843F480730360C0F822
:10552000FC13D0F8FC13036943F4007303610369AF
:1055300043F480730361036843F020030360342362
:10554000C0F8FC33036943F02003036100BF00BFD0
:1055500000BF036843F020030360036843F48073D3
:105560000360C0F8FCC3036943F02003036100BF7C
:1055700000BF00BF036843F020030360036843F4E7
:1055800080730360C0F8FC13D0F8FC13036943F484
:1055900000730361036943F480730361036843F09C
:1055A000200303603523C0F8FC33036943F0200374
:1055B000036100BF00BF00BF036843F02003036026
:1055C000036843F480730360C0F8FC23036943F06D
:1055D0002003036100BF00BF00BF036843F0200346
:1055E0000360036843F480730360C0F8FC13D0F8D1
:1055F000FC13036943F400730361036943F480738C
:105600000361036843F0200303603623C0F8FC33D2
:10561000036943F02003036100BF00BF00BF0368BC
:1056200043F020030360036843F480730360142392
:10563000C0F8FC33036943F02003036100BF00BFDF
:1056400000BF036843F020030360036843F48073E2
:105650000360C0F8FC13D0F8FC13036943F4007333
:105660000361036943F480730361036843F020031B
:1056700003603723C0F8FC33036943F02003036160
:1056800000BF00BF00BF036843F02003036003684E
:1056900043F480730360C0F8FC23036943F02003E4
:1056A000036100BF00BF00BF036843F02003036035
:1056B000036843F480730360C0F8FC13D0F8FC1354
:1056C000036943F400730361036943F48073036166
:1056D000036843F0200303603823C0F8FC330369F8
:1056E00043F02003036100BF00BF00BF036843F025
:1056F00020030360036843F480730360C0F8FC2355
:10570000036943F02003036100BF00BF00BF0368CB
:1057100043F020030360036843F480730360C0F820
:10572000FC13D0F8FC13036943F4007303610369AD
:1057300043F480730361036843F02003036039235B
:10574000C0F8FC33036943F02003036100BF00BFCE
:1057500000BF036843F020030360036843F48073D1
:105760000360C0F8FC23036943F02003036100BF1A
:1057700000BF00BF036843F020030360036843F4E5
:1057800080730360C0F8FC13D0F8FC13036943F482
:1057900000730361036943F480730361036843F09A
:1057A000200303603A23C0F8FC33036943F020036D
:1057B000036100BF00BF00BF036843F02003036024
:1057C000036843F480730360C0F8FCE3036943F0AB
:1057D0002003036100BF00BF00BF036843F0200344
:1057E0000360036843F480730360C0F8FC13D0F8CF
:1057F000FC13036943F400730361036943F480738A
:105800000361036843F0200303603B23C0F8FC33CB
:10581000036943F02003036100BF00BF00BF0368BA
:1058200043F020030360036843F480730360C0F80F
:10583000FCC3036943F02003036100BF00BF00BF46
:10584000036843F020030360036843F4807303603C
:10585000C0F8FC13D0F8FC13036943F40073036130
:10586000036943F480730361036843F0200303601A
:105870003C23C0F8FC33036943F02003036100BFFD
:1058800000BF00BF036843F020030360036843F4D4
:1058900080730360C0F8FC23036943F020030361B5
:1058A00000BF00BF00BF036843F02003036003682C
:1058B00043F480730360C0F8FC13D0F8FC13036951
:1058C00043F400730361036943F480730361036865
:1058D00043F0200303603D23C0F8FC33036943F029
:1058E0002003036100BF00BF00BF036843F0200333
:1058F0000360036843F4807303604FF4A053C0F85F
:10590000FC33036943F02003036100BF00BF00BF05
:10591000036843F020030360036843F4807303606B
:10592000C0F8FC13D0F8FC13036943F4007303615F
:10593000036943F480730361036843F02003036049
:105940009223C0F8FC33036943F02003036100BFD6
:1059500000BF00BF036843F020030360036843F403
:10596000807303604FF40073C0F8FC33036943F0A5
:105970002003036100BF00BF00BF036843F02003A2
:105980000360036843F480730360C0F8FC13D0F82D
:10599000FC13036943F400730361036943F48073E8
:1059A0000361036843F0200303609323C0F8FC33D2
:1059B000036943F02003036100BF00BF00BF036819
:1059C00043F020030360036843F480730360C0F86E
:1059D000FC23026942F02002026100BF00BF00BF49
:1059E000026842F020020260026842F480720260A3
:1059F000C0F8FC13D0F8FC13026942F40072026193
:105A0000026942F480720261026842F02002026080
:105A10009022C0F8FC23026942F02002026100BF1C
:105A200000BF00BF026842F020020260026842F438
:105A30008072026040F60D02C0F8FC23026942F059
:105A40002002026100BF00BF00BF026842F02002D6
:105A50000260026842F480720260C0F8FC13D0F861
:105A6000FC13026942F400720261026942F480721E
:105A70000261026842F020020260C0F8FCC30269C1
:105A800042F02002026100BF00BF00BF026842F086
:105A900020020260026842F48072026041F2180241
:105AA000C0F8FC23026942F02002026100BF00BF7F
:105AB00000BF026842F020020260026842F4807275
:105AC0000260C0F8FC13D0F8FC13026942F40072C3
:105AD0000261026942F480720261026842F02002AF
