:020000040800F2
:1000000068090020810200082D3E000841300008E8
:10001000F53D0008090800084953000800000000E9
:10002000000000000000000000000000454400083F
:10003000D908000800000000D13E0008AD440008C7
:100040009B0200089B0200089B0200089B0200081C
:100050009B0200089B0200089B0200089B0200080C
:100060009B0200089B0200089B0200080D08000884
:100070009B0200089B0200089B0200089B020008EC
:100080009B020008000000009B0200089B02000881
:100090009B0200089B0200089B0200089B020008CC
:1000A0009B0200089B0200089B0200089B020008BC
:1000B0009B0200089B0200089B0200089B020008AC
:1000C0009B0200089B0200089B0200089B0200089C
:1000D0009B020008115200089B0200089B020008C6
:1000E0009B020008354200089B0200089B020008A2
:1000F0009B0200089B0200089B0200080000000011
:10010000000000009B020008000000009B020008A5
:100110009B02000800000000B14500089B02000897
:100120009B0200089B0200089B0200089B0200083B
:100130009B02000800000000000000009B02000875
:100140009B0200089B020008000000000000000065
:10015000000000000000000000000000000000009F
:100160000000000000000000000000009B020008EA
:100170009B020008000000000000000000000000DA
:10018000000000009B0200080000000000000000CA
:10019000000000000000000000000000000000005F
:1001A00000000000000000009B0200089B02000805
:1001B0009B0200089B0200089B0200080000000050
:1001C000000000009B02000800000000000000008A
:1001D0009B0200089B02000800F002F800F041F8C2
:1001E0000AA090E8000C82448344AAF10107DA4592
:1001F00001D100F036F8AFF2090EBAE80F0013F0A3
:10020000010F18BFFB1A43F001031847A064000058
:10021000C0640000103A24BF78C878C1FAD85207E9
:1002200024BF30C830C144BF04680C607047000070
:100230000023002400250026103A28BF78C1FBD8EF
:10024000520728BF30C148BF0B607047642900F0D7
:10025000EB80002070471FB505F0E6F81FBD10B514
:1002600010BD00F05AFA1146FFF7F5FF05F0B8F897
:1002700000F078FA03B4FFF7F2FF03BC00F080FA55
:100280000948804709480047FEE7FEE7FEE7FEE72A
:10029000FEE7FEE7FEE7FEE7FEE7FEE70448054966
:1002A000054A064B7047000021450008D9010008A7
:1002B0006803002068090020680500206805002008
:1002C00053EA020C00F069802DE9F04B4FF0000674
:1002D000002B1FBFB3FA83F503FA05F424FA05F6E1
:1002E0005E4012BF1643B2FA82F502FA05F4C5F178
:1002F00020051EBF22FA05FC44EA0C04203556EA0C
:10030000044C4FEA144418BF641C4FF000084FF02F
:100310000009904271EB030C39D3002919BFB1FADF
:1003200081F701FA07F6B0FA80F700FA07F6C7F18D
:1003300020071EBF20FA07FC46EA0C062037B6FB52
:10034000F4FCA7EB0507103F07F01F0BCBF12006CD
:100350002CFA06F60CFA0BFB44BFB3460026202FFE
:10036000A4BF5E464FF0000B5BEA060C08BF4FF0DF
:10037000010B19EB0B0948EB0608ABFB027C06FBF3
:1003800002CC0BFB03CCC01B71EB0C01C1E70B468D
:10039000024641464846BDE8F08B13B5084318BFF6
:1003A0004FF0FF300146AFF30080BDE81C407047BE
:1003B0000FB41CB5074B06AA7B446946009005980C
:1003C00000F093F90020694600F0A2F91CBC5DF82A
:1003D00014FB00005503000070B5044685690068F1
:1003E000C10601D5302600E02026C00707D070BD29
:1003F000D4E9012130469047206A401C20626D1EDE
:10040000F6D570BD70B5044685690078C00707D180
:1004100070BDD4E9012120209047206A401C206251
:100420006D1EF6D570BD00002DE9F0410646002492
:1004300010687529314616A510D0AFF3008000284A
:1004400002DA404213A507E031688A0701D512A5F8
:1004500002E0490704D511A5012401E0AFF30080B3
:1004600000210A2206F1240709E0B0FBF2FCB0FBF0
:10047000F2F302FB1C00303078541846491C002867
:10048000F3D123462A463046BDE8F04100F0CEB80D
:10049000000000002D0000002B00000020000000E4
:1004A0002DE9F05F894604464FF0000ADFF824B1D9
:1004B000FB44C0F820A02046E168884700287DD092
:1004C000252806D0D4E901219047206A401C2062EB
:1004D000F1E700255F462046E16888472028064668
:1004E00007DB312E05D2B81910F8200C08B10543EE
:1004F000F1E7A80701D525F00405C4F81CA00027E2
:10050000C4F818A02A2E09D0304604F086FF38B36C
:1005100004EB8708303EC8F8186019E059F8041B4E
:10052000204604EB87029161E1688847012F064667
:1005300018D1E069002820DA25F020051DE0D8F860
:10054000180000EB800006EB40003038C8F81800B7
:100550002046E1688847064604F05FFF0028EED198
:10056000012F0AD02E2E08D12046E16888477F1C33
:100570000646022F45F02005C4DBA069002803DAF7
:10058000404245F00105A061E80701D025F01005C3
:10059000A6B1A6F14100192802D8203645F400651D
:1005A0004A463146204625604D46FFF74FFE60B172
:1005B000012807D0ED1D25F0070000E007E000F15D
:1005C000080978E705F1040975E730467AE7206AFB
:1005D000BDE8F09F8E4F00004FF0000200B51346BB
:1005E00094469646203922BFA0E80C50A0E80C5053
:1005F000B1F12001BFF4F7AF090728BFA0E80C5004
:1006000048BF0CC05DF804EB890028BF40F8042BFC
:1006100008BF704748BF20F8022B11F0804F18BF69
:1006200000F8012B70477047704770472DE9F0477D
:100630000D4699469246044600F124080168880652
:1006400004D5E06921F01001216000E00120A842FA
:1006500001DD471B00E00027A1697A1902EB0900C0
:10066000081AA0612078C00602D42046FFF7B4FE25
:10067000002608E0D4E901211AF806009047206A14
:10068000401C761C20624E45F4DB2078C0060AD55B
:100690002046FFF7A1FE06E0D4E901213020904773
:1006A000206A401C2062381EA7F10107F4DC07E035
:1006B000D4E9012118F805009047206A401C206207
:1006C000281EA5F10105F3DC2046FFF79BFE2078EC
:1006D000000602D50220BDE8F0870120FBE70000FC
:1006E00001694A1C02610878704700B58FB0CDE9F6
:1006F00001310021059105497944CDE903101146E6
:100700006846FFF7CDFE0FB000BD0000E5FFFFFF1C
:100710000A6802F8010B0A607047754600F02CF871
:10072000AE4605006946534620F00700854618B0DE
:1007300020B5FFF7B3FDBDE820404FF000064FF0B5
:1007400000074FF000084FF0000BAC46ACE8C009C2
:10075000ACE8C009ACE8C009ACE8C00921F0070169
:100760008D46704710B50446AFF300802046BDE8C3
:100770001040FFF77FBD00000048704718000020C0
:1007800001491820ABBEFEE72600020070470000BA
:1007900001EB810100EB810000212022435C002B52
:1007A00008BF42540131142908BF7047F6E7000022
:1007B000F0B58BB001AF0D460646384628211446E9
:1007C000FFF70AFF00204FF000410290CDE906102C
:1007D000089001208DF824004FF480700A9040F2B8
:1007E000F810C2F20000394600228DF804608DF83E
:1007F00005508DF8064001F04DFB002818BF00F0B1
:10080000BBF80BB0F0BD0000FEE7000080B540F281
:100810009810C2F2000000F049FA80BD80B501686E
:100820006FF007024CF6CD4352FA81F2CCF6CC437E
:10083000A2FB032C40F20842C4F20202D0F844E0CA
:1008400002F58363914238BF02F57E732EF00301F7
:10085000194402F58F6ECCF3041301229A40C0E9CB
:10086000121E026580BD0000017940F600120139B8
:10087000C4F2020202EB810302F1400C01F01F01FD
:10088000012202FA01F1C0E9153CC1657047000080
:1008900070B5D0E913C4D0F854E0CCF80440BEF1F0
:1008A000000F1CBFD0E916C4CCF80440D0E9106E8C
:1008B0000468D0F808C00EF01F00012505FA00F00A
:1008C000706008466360BCF1100F04BF10460A4612
:1008D000A060E26070BD00007047000070B5144673
:1008E0000D46064602F024FCA02002F0FFFB02F0B9
:1008F0003BFC304602F0FAFB02F036FC02F018FC3A
:10090000A12002F0F3FB02F02FFC24B90EE000BF9F
:1009100002F002FC56B1013C02F0C2FB260605F8CB
:10092000010BF5D002F0D6FB002EF4D102F00EFC44
:1009300070BD000070B514460D46064602F0F8FB87
:10094000A02002F0D3FB02F00FFC304602F0CEFBF9
:1009500002F00AFC200609D015F8010B013C02F058
:10096000C5FB02F001FC01367007F3D102F0EEFB8B
:10097000052000F0A3FA70BDEFF3108072B600BF3F
:10098000FEE700002DE9F04140F27805C2F20005D3
:10099000287840F2380840F28206C4F20008C2F219
:1009A0000006F8B1317800202870B1FA81F04009D2
:1009B00030704FF0020021B10021002400F0E6F871
:1009C0000CE003F04BFA40F25010C2F20000008835
:1009D000012400EB80004000C8F8000001202146FF
:1009E00002F0B2FF687840F20207C2F2000760B37B
:1009F00040F25011C2F200010A880020687002F132
:100A00000A0082B25A2A327888BF0A20088032B19E
:100A100081B2890011FA80F14900C8F8001040F253
:100A20008804C2F2000446F2646182B2C0F600019A
:100A30002046FFF7BDFC20460021FFF7A9FE3888BD
:100A400040F00100388003F02FFAA87840F28306C6
:100A5000C2F20006F8B131780020A870B1FA81F036
:100A6000400930704FF0040021B10021002400F053
:100A70008DF80CE003F0F2F940F25010C2F20000E1
:100A80004088012400EB80004000C8F804000220E8
:100A9000214602F059FFE87868B340F25011C2F2E3
:100AA00000014A880020E87002F10A0082B25A2A46
:100AB000327840F28804C2F2000488BF0A204880DD
:100AC00032B181B2890011FA80F14900C8F80410EE
:100AD00046F2736182B204F12800C0F60001FFF70C
:100AE00067FC20460221FFF753FE388840F00400DF
:100AF000388003F0D9F9687920B340F25014C2F27B
:100B00000004E0790021022869710CD0012817D176
:100B1000022003F0A3F9208800EB80004000C8F811
:100B20000000012009E0042003F098F9608800EB40
:100B300080004000C8F804000220012102F004FFF8
:100B40000120A871E879F0B140F25010C2F2000023
:100B5000C07900210228E9710DD0012818BFBDE835
:100B6000F0810220002100F011F80120002102F0A4
:100B7000EBFEBDE8F0810420002100F007F8022020
:100B8000002102F0E1FEBDE8F0810000B0B586B0C2
:100B9000054600200590CDE9030001200C46029097
:100BA00001A94FF09040019500F09CF94FF0904062
:100BB0002946224600F06CFA06B0B0BD80B5014669
:100BC00090F82500022824D10868D1E910CE8A6C5B
:100BD000036823F00E030360136823F4807313602B
:100BE000026822F0010202600EF01F00012202FAE8
:100BF00000F0CCF80400D1E913205060486D60B1DA
:100C0000026822F480720260D1E91602426000207C
:100C100004E00420C863012000E00020012281F8E4
:100C20002520002281F8242080BD000080B590F8A6
:100C3000251002292DD10168D0E910CE826C0B68F5
:100C400023F00E030B600B6823F001030B601168A7
:100C500021F4807111600EF01F02012101FA02F2ED
:100C6000CCF80420D0E913325A60426D32B11368D7
:100C700023F480731360D0E91623536080F82510A5
:100C8000826B002180F824100AB1904700210846A9
:100C900080BD0421C1630121002280F8251080F865
:100CA0002420084680BD0000C06B7047B0B50268C4
:100CB000D0E910C4DCF80050136804F01F0E590787
:100CC00012D5042101FA0EF414EA05010CD01168C2
:100CD000890603D4116821F004011160CCF80440A6
:100CE000016BB9B38847B0BD990718D5022101FA45
:100CF0000EF414EA050112D01168890606D41168B1
:100D000021F00A011160012180F82510CCF804407F
:100D1000C16A002280F82420E1B18847B0BD1907DC
:100D200058BFB0BD082101FA0EF1294012D0116858
:100D300021F00E011160012101FA0EF2CCF804201D
:100D4000C16380F82510416B0022002980F824201F
:100D500018BF8847B0BD0000002804BF01207047BD
:100D60002DE9F04140F2000C0446C4F2020C006888
:100D70004FF6F8330CF58162CBF6FD73904238BF25
:100D800003F5806303EB00024CF6CD43CCF6CC4375
:100D9000A2FB032304F1080E0CF580616FF003053C
:100DA0009EE804413CBF0021C4F2020105EA93031E
:100DB000C4E91013022184F82510016847F6F07386
:100DC000994304F114071143E8CF41EA080141EACD
:100DD0000E01194329433143394301602046FFF78F
:100DE0001DFDA06804F14803B0F5804F04BF00204A
:100DF000606060680ECBC7B2013803280F60536093
:100E000009D82046FFF730FD04F1540207CA002339
:100E100003604A6003E00020C4E91500E06500209B
:100E20000121E06384F8251084F82400BDE8F081F6
:100E300010B5044690F82400012820D0012084F841
:100E4000240094F82500012816D1022084F82500FA
:100E50000020E063D4F800C0DCF8000020F00100BE
:100E6000CCF800002046FFF713FD2068226B0168D4
:100E70003AB141F00E010AE0002084F8240002207B
:100E800010BD21F004010160016841F00A01016018
:100E9000A06C0168C90303D5016841F48071016049
:100EA000606D18B1016841F48071016020680168CB
:100EB00041F001010160002010BD0000B0B5044602
:100EC00000F0ECF8054640F20C00C2F200000068A9
:100ED000611C18BF044400BF00F0E0F8401BA042B2
:100EE000FAD3B0BD2DE9F04F83B00D68002D00F0AE
:100EF000C58000F138424FEAB22241F20047019228
:100F0000C4F600070622002600244FF0010AB8426A
:100F100008BF0522009209E00D68043435FA0AF290
:100F20000AF1010A06F1020600F0A880AAF1010CFC
:100F3000012202FA0CFB15EA0B09EDD0D1F804806E
:100F400008F00305A5F1010EBEF1010F11D8876865
:100F50000322CB68B24027EA0202B3401A43826000
:100F60004268C8F3001322EA0B0203FA0CF31A4397
:100F70004260032D1CD0C26803238F68B3409A439C
:100F800007FA06F31A43022DC26011D16FF0030273
:100F900002EA5C02024404F01C070F23D2F820E0AE
:100FA00003FA07F50B692EEA0505BB402B431362D4
:100FB000026803234F68B3409A4307F00303B3402A
:100FC0001A4317F4403F0260A6D041F26003C4F216
:100FD00002031A6840F2004E42F001021A601A68D9
:100FE000C4F2010E02F001020292029A2CF00302F6
:100FF0004FF608487244CFF6FF7852F8083004F0F4
:101000000C070F25BD4023EA050C019B009D052B15
:1010100038BF1D4605FA07F747EA0C0342F80830C7
:10102000DEF808204B6842EA090740F20C4CDD026A
:1010300058BF22EA0907CEF80870C4F2010CDCF8A8
:1010400000209D0242EA090758BF22EA0907CCF8AE
:101050000070DEF804209D0342EA090758BF22EA27
:101060000907CEF80470DEF80020DB0342EA090726
:1010700058BF22EA0907CEF800704DE703B0BDE87B
:10108000F08F00000069084018BF01207047000081
:101090001823002A08BF2823C150704740F264304B
:1010A000C2F200000068704740F20C0040F2643168
:1010B000C2F20000C2F2000100680A681044086031
:1010C0007047000080B5032000F068F80F2000F0A2
:1010D00009F800281CBF012080BD00F02FF8002077
:1010E00080BD0000B0B540F20C01C2F200010968F9
:1010F00001B3044640F20800C2F200004FF47A72D5
:101100000068B2FBF1F1B0FBF1F001F039F80F2CFF
:101110004FF001050CD858B94FF0FF30214600229E
:10112000002500F02BF840F21000C2F2000004602D
:101130002846B0BD01252846B0BD000080B582B06C
:1011400041F25800C4F20200816841F0010181605F
:10115000816801F0010101910199016841F080511C
:101160000160006800F080500090009800F092F854
:1011700002B080BD80B504F0E9F880BD70B51446BA
:101180000D46064604F0F2F82946224602F050FECB
:101190000146304604F0F2F870BD000080B504F05E
:1011A000FFF880BDB0F5007F35D0002866D147F24A
:1011B0000000C4F200000168D0F8802001F4C06192
:1011C00022F48072B1F5806FC0F8802021D10168CF
:1011D000012262F34A21016040F20801C2F20001DB
:1011E0000968322359434DF68363C4F21B33A1FBD4
:1011F000031302EB934100BF43694A1E8A4203D2A4
:1012000013F480611146F7D14069400544BF0320C3
:1012100070470020704747F20000C4F200000168E8
:10122000D0F8802001F4C06142F48072B1F5806F83
:10123000C0F88020EDD10168012262F34A210160EB
:1012400040F20801C2F200010968322359434DF609
:101250008363C4F21B33A1FB031302EB934100BF72
:1012600043694A1E8A4203D213F480611146F7D1C2
:101270004069400544BF03207047CAE747F20000B9
:10128000C4F200000168022262F34A2101600020DA
:101290007047000047F20800C4F20000016841F402
:1012A00080410160704700002DE9F04381B0814624
:1012B000807841F288070007C4F2020701D40025B4
:1012C00065E057F8300C10F080580BD157F8300C0F
:1012D00040F0805047F8300C57F8300C00F0805048
:1012E0000090009847F20004C4F20004206840F423
:1012F00080702060FFF7D2FE054600BF206810F422
:10130000807607D1FFF7CAFE401B0328F6D30325DA
:1013100016B933E000258EB3B86810F4407012D0CF
:10132000D9F8401088420BD0B868B96820F44070F2
:1013300041F48031B960B96821F48031B960B86096
:10134000C00703D111E00020C0070ED0FFF7A6FEB2
:10135000064641F2893400BFB868800705D4FFF71C
:101360009DFE801BA042F7D303253DB9B868D9F88C
:10137000401020F4407008430025B860B8F1000F19
:1013800005D157F8300C20F0805047F8300CD9F8D0
:101390000000C10712D1810719D4410720D40107E9
:1013A00027D481062ED4410635D401063CD4C1058C
:1013B00043D481054AD4410551D460E03968D9F855
:1013C000042021F00301114339608107E5D5396814
:1013D000D9F8082021F00C01114339604107DED50E
:1013E0003968D9F80C2021F0300111433960010728
:1013F000D7D53968D9F8102021F0C00111433960E0
:101400008106D0D53968D9F8142021F44061114300
:1014100039604106C9D53968D9F8182021F44051FE
:10142000114339600106C2D53968D9F81C2021F46E
:10143000404111433960C105BBD53968D9F8202036
:1014400021F44031114339608105B4D53968D9F8A8
:10145000242021F440211143396041050FD539681A
:10146000D9F8282021F440111143B2F5801F3960CA
:1014700005D157F87C1C41F4801147F87C1C01050C
:101480000FD53968D9F82C2021F440011143B2F569
:10149000800F396005D157F87C1C41F4801147F862
:1014A0007C1CC1040FD53968D9F8302021F0407177
:1014B0001143B2F1807F396005D157F87C1C41F4AB
:1014C000801147F87C1C81040FD53968D9F8342085
:1014D00021F040611143B2F1006F396005D157F836
:1014E0007C1C41F4801147F87C1C41040FD53968FD
:1014F000D9F8382021F040611143B2F1006F396012
:1015000005D157F87C1C41F4801147F87C1C00047D
:101510000FD53868D9F83C1020F040500843B1F19D
:10152000805F386005D157F87C0C40F4803047F874
:101530007C0C284601B0BDE8F08300002DE9F0479F
:10154000002800F0CA8042F2000AC4F2020A0446EF
:10155000DAF800000D4600F00F0088420DD2DAF8EC
:10156000000020F00F002843CAF80000DAF800005D
:1015700000F00F00A84240F0B080207841F2080847
:10158000C007C4F202080CD14FF00009206881079F
:101590002BD4B9F1800F41D1D8F8000020F0F00031
:1015A0003AE06068022800F08C80032840F09180C7
:1015B00058F8080C800140F1908002F08BFC4BF24F
:1015C0000041C0F2C44188420CD9D8F8000010F0A4
:1015D000F00F00F08E802078800703D5A0680028E7
:1015E00000F087804FF000098CE0410705D5D8F85E
:1015F000001041F4E061C8F80010000706D5D8F8E3
:101600000000072161F30D20C8F80000D8F80000A1
:10161000A16820F0F0000843C8F80000DAF80000E4
:1016200000F00F00A84219D9DAF8000020F00F00EE
:101630002843CAF80000FFF731FD064641F288371B
:10164000DAF8000000F00F00A84207D0FFF726FDEF
:10165000801BB842F4D90320BDE8F0872068410719
:1016600007D5D8F80010E26821F4E0611143C8F80A
:101670000010000708D5D8F80000216920F4605058
:1016800040EAC100C8F8000000F08AF8D8F800105D
:1016900045F25342C1F30311C0F60002515C40F21F
:1016A000080201F01F0120FA01F140F21000C2F21D
:1016B00000000068C2F200021160FFF713FDBDE8F0
:1016C000F08758F8080C80035CBF0120BDE8F08764
:1016D00006E058F8080C400502D40120BDE8F08768
:1016E00000F05EF84BF20041C0F2C44188427FF640
:1016F00079AFD8F80000082161F307104FF0800996
:10170000C8F80000D8F80000616820F00300084322
:10171000C8F80000FFF7C2FC064641F2883700BF58
:10172000D8F80000616800F00C00B0EB810F3FF4C6
:101730002DAFFFF7B3FC801BB842F1D90320BDE801
:10174000F087000040F20800C2F200000068704715
:1017500080B5FFF7F7FF41F20801C4F20201096802
:1017600045F26342C1F30221C0F60002515C01F070
:101770001F01C84080BD000080B5FFF7E3FF41F2C4
:101780000801C4F20201096845F26342C1F3C221B3
:10179000C0F60002515C01F01F01C84080BD00008E
:1017A00041F20C01C4F2020151F8040C42F2004271
:1017B000C0F2F40200F00C000428104608BF704785
:1017C00051F8040C00F00C00082843F20060C0F24D
:1017D0006E1021D051F8043C03F00C030C2B1CBFFD
:1017E00000207047D1F800C00B680CF0030CC3F365
:1017F00003130133BCF1030F08BF02460868B2FBB4
:10180000F3F20968C0F306205043C1F3416102229C
:1018100002EB4101B0FBF1F0704700002DE9F0410F
:1018200082B0002800F001810446007841F20006F1
:10183000C007C4F2020654D12078800772D4207801
:10184000000700F195802078400700F1B3802078F0
:10185000800600F10081E069002840D0B16801F005
:101860000C010C2940F05881012800F0DE80F0685E
:10187000216A00F003028A4240F0D780626A6FF06A
:101880000F0300F0F00103EB0212914240F0CD8013
:10189000A16A00F4FE42B2EB012F40F0C680E16A7B
:1018A00000F07842B2EBC16F40F0BF80226B0023A2
:1018B000CFF6E07303EB025200F4C0016FF31402A1
:1018C000914240F0B280616B4FF07E4202EB0161C9
:1018D00000F0C06001F07E41884240F0A680002008
:1018E000D7E1B06800F00C01F068082959D0032254
:1018F00081F00C0122EA00000844B0FA80F04009AF
:101900004FD16568B5F5A02F00F0D180B5F5803FC7
:1019100000F0D180306820F480303060306820F4EE
:101920008020CBE0B068F16800F00C00042866D09D
:1019300001F0030180F00C0081F002010844B0FACC
:1019400080F040095BD1E1683068002900F0D28066
:1019500040F480703060FFF7A1FB05463068400519
:1019600000F1EF80FFF79AFB401B0228F6D920E137
:101970006169D6F89400002900F0878040F00100EA
:10198000C6F89400FFF78AFB054600BFD6F894001E
:1019900080073FF558AFFFF781FB401B0228F5D9C0
:1019A00007E1306880037FF547AF606800287FF467
:1019B00043AF3AE0B06D10F0805808D1B06D40F000
:1019C0008050B065B06D00F080500190019847F2F2
:1019D0000007C4F200073868C0052AD4386840F40C
:1019E00080703860FFF75AFB054600BF3868C005B5
:1019F0001FD4FFF753FB401B0228F7D9D9E030680A
:101A0000400501D5E06880B17068216920F0FE4092
:101A100040EA0160706040F21000C2F2000000680D
:101A2000FFF760FB00283FF40AAF012002B0BDE8D9
:101A3000F081A568052D00F0A080012D00F0A380A5
:101A4000D6F8900020F00100C6F89000D6F890007B
:101A500020F004009BE0A169D6F89800002978D016
:101A600040F00100C6F89800FFF718FB054600BFDC
:101A7000D6F8980080073FF5EEAEFFF70FFB401B4E
:101A800002284FF00300F3D903E120F00100C6F86B
:101A90009400FFF703FB0546D6F8940080077FF516
:101AA000D2AEFFF7FBFA401B0228F5D981E030687F
:101AB00040F480203060306840F480303060FFF7C0
:101AC000EDFA002D054611D0306880033FF5B4AE25
:101AD000FFF7E4FA401B6428F6D96AE0FFF7DEFA64
:101AE000401B64284FF0030000F2D380306880036D
:101AF000F4D4A1E620F480703060FFF7CFFA0546F9
:101B0000306840057FF59BAEFFF7C8FA401B0228FE
:101B10004FF00300F4D9BCE03168022821F0807155
:101B200031605FD1FFF7BAFA054600BF3068800127
:101B300072D5FFF7B3FA401B02284FF00300F5D926
:101B4000A7E07068216920F0FE4040EA0160706003
:101B500075E620F00100C6F89800FFF79FFA0546E9
:101B6000D6F8980080077FF576AEFFF797FA401B0E
:101B700002284FF00300F3D98BE0D6F8900040F034
:101B80000400C6F89000D6F8900040F00100C6F8B6
:101B90009000FFF783FA002D054641F2883714D0F4
:101BA000D6F89000800714D4FFF778FA401BB842AB
:101BB000F6D9032002B0BDE8F08100BFFFF76EFA4E
:101BC000401BB8424FF0030063D8D6F8900080075E
:101BD000F4D4B8F1000F7FF43AAEB06D20F080502D
:101BE000B06534E6F0684FF6FF7120F00300F06056
:101BF000F068CFF6EE610840F060FFF74FFA044658
:101C0000306880017FF56BAEFFF748FA001B0228B1
:101C10004FF00300F4D93CE0F06848F20C01C0F248
:101C20009F1104F1200700EA010C8ECF6FF00F0026
:101C3000D4E90C5400EB02100022CFF6E07241EA26
:101C40000C0102EB055208436FF314024FF07E457E
:101C500040EA032005EB0465104305F07E4540EAA9
:101C6000C7602843F060306840F080703060F068F2
:101C700040F08070F060FFF711FA04463068800190
:101C80003FF52DAEFFF70AFA001B02284FF00300C4
:101C9000F4D902B0BDE8F0817047000040F2501066
:101CA000C2F20000007A002808BF704740F27800B6
:101CB000C2F20000012141717047000070B5044676
:101CC000006840F21445466DC4F20105F10707D0E3
:101CD0000121C1654FF4003028602046FFF7DEFF88
:101CE000B00708D520680221C1654FF40030286094
:101CF0002046FFF7D1FF012084F8250070BD0000C9
:101D000070B500680C4643684FEA1340C3F30426DD
:101D100003F03F05C8704E708D70C3F342312170DF
:101D20000AB1002070BDC0B202F08CFAE0703046FB
:101D300002F088FA6070284602F084FAA070002051
:101D400070BD000070B500680C4683684B60016987
:101D50006FF3DF31A1600168C1F30540C1F30626CE
:101D600001F07F05C1F3805120706670A570E170AD
:101D70000AB1002070BD02F065FA2070304602F012
:101D800061FA6070284602F05DFAA070002070BD14
:101D900010B5002843D0044690F8250028B900204B
:101DA00084F82400204600F03DF8022084F8250045
:101DB0002068CA21416253214162204602F064FA40
:101DC00020BB94E803504FF6BF738269CFF68F3380
:101DD0001A40826122691143A26983691143194340
:101DE00081614EEA0C410161204602F075FA68B942
:101DF0002168D4F814C0D4E907E28B6923F060436A
:101E00001A4342EA0E0242EA0C028A612168FF226A
:101E100000284A6204BF012184F8251010BD01206A
:101E200010BD000010B592B0044601A84421FEF791
:101E3000D3FB206842F60001C4F20001884201D0C1
:101E400012B010BD4FF4002001904FF400701190BB
:101E500001A8FFF729FA002818BFFEF78DFD41F20F
:101E60005800C4F20200816B002241F400418163FA
:101E7000016841F4806101600068002100F4806025
:101E8000009000982920FFF779F92920FFF772F9CF
:101E900012B010BD2DE9F04381B0044690F8240043
:101EA00001284FF0020000F09F800D46012184F8C8
:101EB000241084F825002068806900F0400082B179
:101EC000002804BF0020E87069782878AA78090201
:101ED000EB7841EA0040811895F8200041EA8357E9
:101EE00019E0002804BF0020E870287802F0B4F957
:101EF00069780646084602F0AFF90102A87841EA7F
:101F0000064602F0A9F93118EA7895F8200041EA6E
:101F1000825702F0A1F9E969D5F80480394341EA12
:101F200000632068CA21D5E9052941625321416235
:101F30006F6A40F200468169C4F20106B7F5807FFE
:101F400043EA020715D121F4885181610121C1655D
:101F50004FF400307061FFF7A1F805462068C168B2
:101F6000C9071ED1FFF79AF8401BB0F57A7FF5D963
:101F700014E021F4085181610221C1654FF4003061
:101F80007061FFF78BF805462068C16889070ED499
:101F9000FFF784F8401BB0F57A7FF5D903210320C1
:101FA0001AE0076400F144014FF4885204E000F1A4
:101FB0004C014FF40852876449EA08030B608169B9
:101FC000114381613068012140F400303060B06815
:101FD00040F40030B06000202268FF23536284F890
:101FE0002510002184F8241001B0BDE8F083000022
:101FF000F0B581B0044690F8240001284FF00200AB
:1020000043D00D46012184F8241084F8250032B114
:102010006878E978AE78000240EA014715E0687810
:10202000C10642BF00F0EF000A306870E87802F0A5
:1020300013F969780646084602F00EF90102A878FD
:1020400041EA064702F008F906462068CA212D78C1
:10205000416253214162204602F016F950B947EA25
:10206000060020F0C000216840EA45304860204664
:1020700002F032F92168FF2200284A6204BF0121E0
:1020800084F82510002184F8241001B0F0BD000070
:1020900070B5044690F8240001284FF0020008BFF4
:1020A00070BD0D46012184F8241084F825002068B5
:1020B000CA214162532141622046164602F0E4F8EB
:1020C000C8BB2068806900F0400056B1002804BFFA
:1020D0000020E8706A782978A878120242EA01465E
:1020E00011E0002804BF0020E870287802F0B4F85E
:1020F00069780646084602F0AFF80102A87841EA7E
:10210000064602F0A9F8E978304340EA815047F6E4
:102110007F71C0F27F01226808401060906920F44E
:1021200080209061D5E903019369084318439061C9
:10213000204602F0D1F82168FF2200284A6204BF3D
:10214000012184F82510002184F8241070BD0000BE
:10215000B0B504460068C16821F02001C160FEF7F7
:102160009DFF05462068C068800607D4FEF796FFED
:10217000401BB0F57A7FF5D90320B0BD0020B0BD7B
:1021800080B502F07BF980BD704700007047000009
:102190007047000070470000704700007047000063
:1021A00070B590F83C20012A4FF002024AD001237A
:1021B00080F83C3080F83D20026843F2004C5468BF
:1021C0009368C4F2010C42F6004E6245C4F2010E5F
:1021D00001D0724503D14D6824F470042C434FF6AE
:1021E0008F75CFF6FF550E682C4042F6FF35C4F2CE
:1021F00001053443AA4254600FDCB2F1804F16D07F
:1022000040F20046C4F20006B24210D040F600068A
:10221000C4F20006B2420AD00EE0724507D044F282
:102220000006C4F20106B24201D0624504D18968B9
:1022300023F08003194391600121002280F83D10B2
:1022400080F83C20104670BD70470000002804BF95
:102250000120704710B5044690F83D0028B90020D1
:1022600084F83C00204600F023F8022084F83D006A
:102270002068211D02F0A4F9012084F8480084F8A8
:102280003E0084F83F0084F8400084F8410084F860
:10229000420084F8430084F8440084F8450084F840
:1022A000460084F8470084F83D00002010BD00007F
:1022B00080B582B0006841F20001C4F2000188429A
:1022C00011D0B0F1804F23D141F25800C4F2020086
:1022D000016841F001010160006800F00100019017
:1022E000019802B080BD41F25800C4F202000168BA
:1022F000002241F0100101600068002100F0100090
:10230000009000983620FEF739FF3620FEF732FFA6
:1023100002B080BD90F83D1001291CBF012070471C
:10232000022180F83D10016842F6FF32C868C4F20D
:102330000102914240F00100C8600FDCB1F1804F12
:102340001ED040F20040C4F20000814218D040F696
:102350000000C4F20000814212D024E042F60040A6
:10236000C4F2010081420BD044F20000C4F201002B
:10237000814205D043F20040C4F20100814212D1F3
:1023800088680722C0F201020240062A4FF00000CE
:102390000ED0B2F5803F08BF7047086840F00100DA
:1023A000086000207047086840F0010008600020C5
:1023B0007047000010B5044690F83C0001284FF02B
:1023C000020008BF10BD0B46012184F83C1084F8C0
:1023D0003D00206888228168CFF6CE72114081606E
:1023E00019686F290DDD1F22C0F21002914217DC1F
:1023F000B1F5005F26DA702940D0B1F5805F5BD07F
:102400003AE02F2918DD4F2921DC302952D040290C
:1024100032D15968DA6802F0F5FA2068402149E0C3
:102420003F22C0F2100291421CDC2022C0F21002B6
:1024300091423FD030221BE0E1B310293AD020294D
:1024400038D019E025D0B1F1101F33D014E0502955
:102450002AD0602910D15968DA6802F0E5FA2068BC
:10246000602127E04022C0F21002914222D0702267
:10247000C0F2100291421DD001201EE0D3E90121DB
:10248000DB6802F02FF92068816841F077018160F4
:1024900012E0D3E90121DB6802F024F920688168A9
:1024A00041F48041816007E05968DA6802F0AAFAD5
:1024B0002068502102F022F90020012184F83D100B
:1024C000002184F83C1010BD7047000010B5044690
:1024D00000680169890744BFC1685FEA817160D4FF
:1024E00020680169490744BFC1685FEA417164D44B
:1024F00020680169090744BFC1685FEA017169D4B6
:1025000020680169C90644BFC1685FEAC1616DD432
:1025100020680169C9071CBFC1685FEAC17172D137
:1025200020680169090644BFC1685FEA016171D48E
:1025300020680169C90544BFC1685FEA016170D4C0
:1025400020680169490644BFC1685FEA41616FD4F0
:1025500020680169890644BFC1685FEA81616ED461
:1025600020680169C90244BFC1685FEAC1216DD416
:1025700020680169890244BFC1685FEA81216CD487
:1025800020680169490244BFC1685FEA41216BD4F8
:1025900020680169090244BFC1685FEA01216AD469
:1025A00010BD6FF002010161012121778069800770
:1025B00068D02046FFF788FF6AE06FF004010161F0
:1025C00002212177806910F4407F64D02046FFF714
:1025D0007BFF66E06FF00801016104212177C0698B
:1025E000800761D02046FFF76FFF63E06FF01001B6
:1025F000016108212177C06910F4407F5DD0204639
:10260000FFF762FF5FE06FF001010161204600F01B
:10261000CFF985E76FF0800101612046FFF7B6FD35
:1026200086E76FF4807101612046FFF7ADFD87E713
:102630006FF040010161204600F0EAF988E76FF091
:10264000200101612046FFF7A3FD89E76FF48011A7
:1026500001612046FFF7A0FD8AE76FF400110161D8
:102660002046FFF797FD8BE76FF48001016120465C
:10267000FFF794FD8CE76FF4000101612046FFF73E
:10268000E3FD10BD204600F04BF8204600F0DCF8DA
:102690000020207724E7204600F042F8204600F092
:1026A000D3F80020207723E7204600F039F82046B1
:1026B00000F0CAF80020207722E7204600F030F82A
:1026C000204600F0C1F80020207721E780B586B0D1
:1026D00000680021B0F1804F0591CDE9031102910E
:1026E000019101D006B080BD41F24C00C4F202005D
:1026F000026842F001020260006800F001000090F0
:102700000098062001900220CDE9020101200491E9
:10271000059001A94FF09040FEF7E4FB06B080BDA4
:1027200070470000B0B5044690F83C00012804BF93
:102730000220B0BD0D464FEAB2010120052984F800
:102740003C0048D8DFE801F0030B131B233320685B
:10275000294601F0DFFF206850F8181F1EE02068AE
:10276000294602F017F8206850F8181F26E0206864
:10277000294602F057F8206850F81C1F0EE0206828
:10278000294602F097F8206850F81C1F16E02068D0
:10279000294602F0D7F8206850F8501F41F0080190
:1027A0000160016821F00401016029690FE02068DF
:1027B000294602F0F7F8206850F8501F41F40061F4
:1027C0000160016821F480610160296909020268E1
:1027D000114301600020002184F83C10B0BD0000CE
:1027E000002804BF0120704710B5044690F83D0052
:1027F00028B9002084F83C00204600F023F802208D
:1028000084F83D002068211D01F0DAFE012084F8E3
:10281000480084F83E0084F83F0084F8400084F8C3
:10282000410084F8420084F8430084F8440084F8AE
:10283000450084F8460084F8470084F83D000020F5
:1028400010BD00007047000070470000B0B504469E
:1028500059B1081F4FEAB000032809D8DFE800F09B
:10286000020B0E1104F13F000DE004F13E000AE0FE
:1028700004F1430007E004F1400004E004F14100EA
:1028800001E004F14200007801281CBF0120B0BD26
:1028900061B1081F4FEAB00003280BD8DFE800F051
:1028A000020E1216022084F83F0012E0022084F883
:1028B0003E000EE0022084F843000AE0022084F883
:1028C000400006E0022084F8410002E0022084F883
:1028D000420020680122012501F0F2FE2168A1F1E9
:1028E0008040A0F596304FEAB02242F6FF30062A2B
:1028F000C4F201003FD805FA02F212F0650F3AD097
:102900004A6C814242F400424A640FDCB1F1804FCC
:102910001ED040F20040C4F20000814218D040F6C0
:102920000000C4F20000814212D03BE042F60040B9
:10293000C4F2010081420BD044F20000C4F2010055
:10294000814205D043F20040C4F20100814229D106
:1029500088680722C0F201020240062A4FF00000F8
:1029600025D0B2F5803F08BFB0BD086840F0010037
:1029700008600020B0BD8142C8DD43F6FF72C4F29A
:102980000102914202DC42F60040D7E744F2000225
:10299000C4F201029142DBD044F60002C4F201020B
:1029A0009142ADD0086840F0010008600020B0BD41
:1029B00040F26C21C2F20001884200D0704740F220
:1029C000603140F2780CC2F20001C2F2000C0A68D9
:1029D0009CF806300132002B0A60EFD040F28001F3
:1029E000C2F2000140F250130A88C2F200031B7ABF
:1029F00001324FF47A70584393B298420A8018BF5C
:102A00007047002008804FF48070ACF806007047D3
:102A10007047000090F88010012904BF0220704721
:102A20002421C0F8841002681168136823F00103A0
:102A3000136021F000530021416613602022C0F88A
:102A4000842080F88010084670470000704700001E
:102A500070470000B0B5044690F88000012804BF1C
:102A60000220B0BD012084F880002420C4F8840036
:102A700020680568026822F001020260826822F084
:102A8000606211438160204601F0E0FF206805602C
:102A90002020C4F88400002084F88000B0BD00002D
:102AA000B0B5044690F88000012804BF0220B0BDF4
:102AB000012084F880002420C4F884002068056880
:102AC000026822F001020260826822F06042114333
:102AD0008160204601F0BAFF206805602020C4F81C
:102AE0008400002084F88000B0BD00007047000022
:102AF00070470000B0B504460068D4F88410D4F8DC
:102B00008850806821291AD110F0800017D000BFAA
:102B1000206850E8020F216820F0800041E802029E
:102B2000002AF5D1A06F38B1FEF748F820B1A06FA8
:102B3000FEF7BAF8202821D0204602F025F92068B7
:102B4000222D81684FF0000021D111F0400108BF13
:102B5000B0BD00BF206850E8020F216820F040009F
:102B600041E80202002AF5D1E06F60B1FEF726F8D5
:102B700048B1E06FFEF798F8202804D11020C4F87F
:102B80008C000320B0BD204602F0BCF80020B0BD90
:102B90007047000070B503680446D96940F62F00FD
:102BA0001E68D3F808E0084020280CD106F0200069
:102BB0000EF08052801806D0216F002900F0AC8002
:102BC0002046884770BD40F60F00084000F08C801A
:102BD0000120C1F200000EEA000C40F22010C0F209
:102BE0000040304010EB0C007ED0C80718BF16F430
:102BF000807007D001201862D4F88C0040F00100EA
:102C0000C4F88C0088070EF0010208D53AB1022002
:102C10001862D4F88C0040F00400C4F88C00480717
:102C200008D53AB104201862D4F88C0040F00200B4
:102C3000C4F88C0008070CD506F0200050EA0C0000
:102C400007D008201862D4F88C0040F00800C4F8BF
:102C50008C0008050BD516F0806008D04FF400609A
:102C60001862D4F88C0040F02000C4F88C00D4F82E
:102C70008C00002850D011F020001EBF06F020006C
:102C80000EF0805110EB010040F0EA802068D4F88B
:102C90008C10806801F0280100F04000401800F01E
:102CA000D880204602F02EF820688068400640F167
:102CB000C18000BF206850E8020F216820F040006A
:102CC00041E80202002AF5D1E06F002800F0B2804E
:102CD00044F6F931C0F600018163FDF7A7FFD8B1D2
:102CE000E06F816B884770BDE06E06EA0102D50691
:102CF0003DD501283BD1102018629868400642D487
:102D0000B4F85C00B4F85E10B4F85E20002A1CBF72
:102D1000401A5FEA004101D170BD00BF216851E84F
:102D2000001F226821F4907142E80013002BF5D1B6
:102D30004FF6FE71CEF6FF71226852E8022F23682B
:102D40000A4043E80226002EF6D12021C4F888105C
:102D50000021E166216700BF216851E8001F226859
:102D600021F0100142E80013002BF5D150E0C80219
:102D700053D51EF4800050D04FF4801018622046C6
:102D8000FFF7B6FE70BDE06F006841688AB2002AA6
:102D9000C2D0B4F85C309A42BED2A4F85E1000688B
:102DA000800630D4206850E8000F216820F480703D
:102DB00041E80002002AF5D1206850E8020F21689E
:102DC00020F0010041E80202002AF5D1206850E815
:102DD000020F216820F0400041E80202002AF5D1EC
:102DE0002020C4F888000020E06600BF206850E87A
:102DF000000F216820F0100041E80002002AF5D100
:102E0000E06FFDF7DBFEB4F85C00B4F85E10401A2A
:102E100081B22046FFF71AFE70BD08060ED506F0F7
:102E200080000EF40003C01808D0616F00297FF401
:102E3000C7AE71E72046FFF7ABFE70BD500616D453
:102E4000080218D516F0804015D02046FFF74EFE38
:102E500070BD2046FFF79CFE0020C4F88C0070BDBA
:102E6000216F00293FF412AF204688470EE7204625
:102E700001F076FF70BDC8017FF54EAFB6F1FF3FA0
:102E8000C8BF70BD2046FFF7E3FD70BD10B5B0B1FF
:102E90000446D0F8840028B9002084F88000204639
:102EA00000F026F82420C4F884002068016821F08E
:102EB00001010160204601F07FFF012801D10120BE
:102EC00010BDA06A10B1204601F0EAFD20684168FB
:102ED00021F490414160816821F02A0181600168FC
:102EE00041F001010160204601F04EFE10BD0000DE
:102EF00070B598B00446002502A844211795CDE985
:102F00001555CDE91355FDF767FB206843F6000121
:102F1000C4F20101884201D018B070BD0120CDE992
:102F2000020502A8FEF7C0F9002818BFFDF724FD2E
:102F300041F24C00C4F202004169002641F4804194
:102F40004161416901F4804101910199016841F0B9
:102F500001010160006813A900F0010001900198CF
:102F60004FF4C060139002201490072017904FF088
:102F70009040CDE91566FDF7B5FF40F298150820A1
:102F8000C2F20005C4F20200182185E843004FF4A4
:102F900080508022202328622846C5E90362C5E9C3
:102FA0000566EB61FDF7D8FE002818BFFDF7E4FCCD
:102FB000252000210022E567AC62FEF7DFF825201E
:102FC000FEF7D8F818B070BD80B5D0F88830202B47
:102FD0000BD100294FF0010318BF002A01D1184678
:102FE00080BD90F88030012B01D1022080BD0123EB
:102FF00080F880300023C366D0F800C048F2000398
:10300000C4F200039C450FD0DCF804301B020BD542
:10301000036853E800CFD0F800E04CF080634EE83E
:10302000003CBCF1000FF3D102F028F8034618462B
:1030300080BD00007047000070470000704700002E
:10304000FEE700000178407830395FFA81FC3038C3
:1030500001EB8101C3B200EB4100C1B24FF0FF327E
:10306000182928BF10460A2B28BF1046BCF1030FB1
:1030700028BF104640B2704780B586B0002005904A
:10308000C02001900120CDE902000220049040F20E
:103090000040C4F6000001A9FDF724FF06B080BD82
:1030A000B0B501F09BF90825002400BF0020013DC8
:1030B00001F07AF9012001F077F901F081F9290690
:1030C00040EA4404F2D1002001F06EF901F0A6F9C3
:1030D000E0B2B0BD80B5002001F094F9012001F00C
:1030E00063F9002001F060F980BD0000B0B504462E
:1030F000082500BF0020013D01F056F904F08000D2
:1031000001F080F90120640001F04EF92806F1D1A8
:10311000002001F049F9B0BD80B5012001F072F93D
:10312000012001F041F9002001F03EF980BD0000CE
:1031300080B5012001F066F9012001F035F9002089
:1031400001F060F9002001F02FF980BD80B500206A
:1031500001F02AF9002001F055F9012001F024F9CD
:10316000012001F04FF980BD10B501F037F90120C1
:1031700001F01AF9052400BF01F022F940B1013C29
:103180002004F9D101F04AF9FFF7E0FF012010BD5A
:1031900001F044F90020002401F006F9204610BD9A
:1031A000B0B540F20044C4F6000420460121FDF70A
:1031B00069FF78B120460221FDF764FF50B1204637
:1031C0000421FDF75FFF28B14FF090400121FDF78A
:1031D00059FFB0B9204601210125FDF753FF88B101
:1031E000204602210225FDF74DFF58B1204604215B
:1031F000FDF748FF40B14FF090400121FDF742FF3D
:1032000020B100252846B0BD0320B0BD0420B0BDCC
:1032100010B540F29014C2F20004206802F0D0F819
:1032200000B110BD02F0D6F80A302060FFF7B8FFF9
:1032300040F28702C2F2000240F286011378C2F225
:10324000000140F28504087023EA0001C2F2000484
:10325000217040F2840420EA0303C2F200042370C8
:103260004FF0FF3353FA81F10329107088BF10BD6E
:10327000DFE801F00209101740F27800C2F2000006
:103280000121017010BD40F27800C2F2000001215E
:10329000417010BD40F27800C2F20000012181703F
:1032A00010BD40F27800C2F200000121C17010BDD3
:1032B00080B586B000200590CDE902004FF6FF7082
:1032C00001900320049040F60000C4F6000001A91C
:1032D000FDF708FE06B080BD80B586B000200590E1
:1032E00003904FF6FF70019001200290032004909C
:1032F00040F60000C4F6000001A9FDF7F3FD06B09A
:1033000080BD0000B0B504460020002100F096F911
:1033100000F0DAF94FF49635204600F0A7F9013DA8
:10332000FAD1B0BDF0B587B0002541F24C0006954A
:10333000CDE90455CDE90255C4F202000168182711
:1033400041F0040101600168C4F6000701F00401C6
:1033500001910199016802AC41F00101016001682D
:10336000012601F0010101910199016841F002017A
:1033700001600068214600F00200019001984FF4BE
:103380004870029007F57A700595CDE90365FDF761
:10339000A9FD4FF48070CDE902064FF09040214620
:1033A000CDE90455FDF79EFDFFF796FF386840F420
:1033B00080703860D7F8000440F40870C7F8000443
:1033C00007B0F0BDB0B582B040F25015C2F20005B2
:1033D00040F288042A88C2F2000446F26461C0F612
:1033E00000012046FCF7E4FF20460021FDF7D0F95C
:1033F0006A8846F2736104F12800C0F60001FCF708
:10340000D7FF20460421FDF7C3F940F24C30C2F249
:10341000000002784378857846F2826104F150001A
:10342000C0F600010095FCF7C3FF20460421FDF71C
:10343000AFF946F66F6543F66C2046F6616142F2DD
:103440002002C0F26505C4F62060C6F26E51C6F6D1
:103450004302C4E91E21C4E9200520460621FDF7E8
:1034600097F946F26E40C0F23A00C4F8A70046F65B
:103470006D5042F22001C6F66160C6F64371C4E9A0
:10348000281020460821FDF783F942F22000C4F6F7
:1034900020604FF02031C4E92D1020460921C4F8E6
:1034A000BC50FDF775F940F20200C2F2000001883D
:1034B00040F255321143018002B0B0BD80B5203AD0
:1034C000D3B25B0053FA82F245F26C43C0F60003BC
:1034D00003EB021200F01AF880BD0000F0B581B0D5
:1034E0000A788AB104464D1C002740F23F1600BFFF
:1034F000B1B2D2B22046FFF7E1FF122F04D8EA5D45
:10350000103E0137002AF3D101B0F0BD2DE9F0479C
:1035100014468846814600F091F840F2000A40F2D5
:1035200094160027C2F2000AC2F2000600F0CCF89E
:10353000002500BF34F81700E840C007304608BF38
:103540005046008800F092F80135102DF2D109F1B3
:1035500001095FFA89F0414600F070F80137182F31
:1035600008BFBDE8F087E1E710B5FFF7DBFE0020FC
:1035700000F014F840F29614C2F200042080208873
:1035800048F23021884202D100F0C8FC01E000F08E
:1035900051FD002000F002F8208010BDB0B540F2CF
:1035A0001844C4F60004216941F4007121612169C5
:1035B00041F480712161216841F02001216040F6D1
:1035C0001401C4F600010860206940F02000206169
:1035D00000BF00BF00BF206840F0200020602068CE
:1035E00040F480702060FFF763FE4FF61040CFF686
:1035F000FF70215841F48071215000BF00BF4FF689
:10360000004000BFCFF6FF70D4F8F853215841F4C2
:1036100080712150FFF760FE206840F40071A8B26D
:103620002160B0BD81B0ADF80200BDF8020040F2EB
:103630000001C2F20001088001B0704710B50C46CD
:103640000146202000F070F82120214600F06CF89F
:1036500010BD000081B0ADF80200BDF8020040F2DC
:103660009411C2F20001088001B0704740F2184185
:10367000C4F60001D1F8FC230B6943F400730B611D
:103680000B6843F480730B600B6843F020030B60FE
:10369000C1F8FC03086940F02000086100BF00BFCA
:1036A00000BF086840F020000860086840F480709F
:1036B000086000BF00BF00BF086840F400700860E9
:1036C00090B2C1F8FC03704740F21840C4F6000005
:1036D000D0F8FC13026989B242F4007202610269F7
:1036E00042F480720261026842F0200202602222EB
:1036F000C0F8FC23026942F02002026100BF00BF53
:1037000000BF026842F020020260026842F4807248
:10371000026000BF00BF00BF026842F40072026096
:10372000C0F8FC137047000040F21842C4F60002D3
:10373000D2F8FCC3136943F400731361136943F4B3
:1037400080731361136843F020031360C2F8FC0315
:10375000106940F02000106100BF00BF00BF10687A
:1037600040F020001060106840F480701060C2F8D3
:10377000FC13106940F02000106100BF00BF00BFC3
:10378000106840F020001060106840F480701060F5
:103790001FFA8CF0C2F8FC03704700002DE9F041DD
:1037A00084B040F28808C2F2000840F20207002606
:1037B000C2F200070124454605E000BF01360A2E8B
:1037C00005F114050ED0388804FA06F10142F5D04F
:1037D0008843388006EB4600C000C0B22946FFF798
:1037E0007DFEEBE740F27800C2F20000017929B3D8
:1037F00040F250140021C2F2000401714546A07944
:10380000E77922796379267A45F8B41FC8E92E1141
:10381000C8E93011CDE9000744A128460296FCF71B
:10382000C7FD40460921FCF7B3FFD8202946FFF722
:1038300055FE20796179A279FCF7BAFF40F2820047
:10384000C2F20000017840F28300C2F2000000786A
:103850000022C8E91E22C8E92022C8F88820B9B190
:10386000B0B944F25010C0F23100C8F8830043F6FA
:103870006C2046F6616142F22002C5F22000C6F2D9
:103880006E51C6F64302C8E91E21C8F8800041E027
:10389000B9B9B0B144F25010C0F23200C8F8830098
:1038A00043F66C2046F6616142F22002C5F2200028
:1038B000C6F26E51C6F64302C8E91E21C8F8800060
:1038C00028E0002918BF002814D146F66F6043F69F
:1038D0006C2146F6616242F22003C0F26500C4F634
:1038E0002061C6F26E52C6F64303C8E91E32C8E92B
:1038F00020100FE046F29860C0F6000090E88E00BD
:1039000008F1780C8CE88E00018A807CA8F8881079
:1039100088F88A0040460621FCF73AFF08F1780152
:103920009020FFF7DBFD04B0BDE8F08120202530BA
:1039300032643A253032643A253032642D504125C4
:10394000642D25645300000010B540F60044C4F611
:103950000004A4F580634A1E4FEA0021184618BFF0
:103960000122FDF795FB204604210122FDF790FB83
:10397000204604210022FDF78BFB10BD80B582B0EC
:1039800041F24800C4F202000168002241F0040143
:103990000160016801F0040101910199016841F0A1
:1039A000010101600068002100F001000090009812
:1039B0000B20FDF7E3FB0B20FDF7DCFB02B080BD25
:1039C0002DE9F04F87B0002541F24C000695CDE976
:1039D0000455CDE90255C4F20200016840F20044EA
:1039E00041F0040101600168C4F6000401F0040123
:1039F00001910199016804F5806741F0200101609F
:103A00000168012201F020010191019901684FF440
:103A10007F4641F04001016001684FF0010901F06B
:103A2000400101910199016841F0010101600168C3
:103A300001F0010101910199016841F00201016069
:103A4000016801F0020101910199016841F008014A
:103A5000016000684FF47F4100F008000190019878
:103A60003846FDF715FB04F50068404604210022A6
:103A70004FF0040BFDF70CFB204680210022FDF7E0
:103A800007FBCDE9026902AE38463146CDE904555F
:103A9000FDF728FA4FF4806002904FF0030A04F516
:103AA000A0503146CDE903A5FDF71CFAFF20CDE972
:103AB000020A384631460495FDF714FA4FF090405B
:103AC0003146CDE90295CDF81090FDF70BFA49F695
:103AD000F810CDE9020A4FF0904031460495FDF709
:103AE00001FA072002A981E8210220463146FDF7AC
:103AF000F9F94FF63870CDE9020A204631460495AF
:103B0000FDF7F0F940463146CDE902B9CDE904555B
:103B1000FDF7E8F94020CDE902052046314604953D
:103B2000FDF7E0F98020CDE9020920463146CDE9D4
:103B30000455FDF7D7F907B0BDE8F08F10B590B088
:103B4000002468462821CDE90E44CDE90C44CDE996
:103B50000A44FCF741FD40F2F81042F60001C2F2BF
:103B60000000C4F200011F224FF0804CC0E9001495
:103B700000F1080140F2E7331CC1C0E90544C0E987
:103B800007C4FEF705F9002818BFFCF7F5FE45F657
:103B90002310ADF82C0050208DF82E0040F2F810C4
:103BA000C2F200000BA901220C94CDE90E44FEF7ED
:103BB0006FFA002818BFFCF7DFFE40F20620C2F2C1
:103BC00025300A9040F2F810C2F200000AA9012242
:103BD0000124FEF70DFA002818BFFCF7CDFE0020E7
:103BE0004FF00041ADF800008DF802000190CDE9E2
:103BF000051007904FF48070099040F2F810C2F25F
:103C00000000694601228DF82040FEF743F90028A4
:103C100018BFFCF7B1FE10B010BD000010B58EB09B
:103C200040F220200021C2F200004FF080424F23DA
:103C300040F2E734CDE90C11CDE90A11CDE90811C4
:103C4000CDE90611CDE90411CDE90211CDE900114C
:103C5000C0E90023C0E9021401618161FEF7F6FAB0
:103C6000002818BFFCF788FE4FF480500A9040F2FD
:103C70002020C2F200000AA9FEF79CFB002818BF12
:103C8000FCF77AFE40F22020C2F20000FEF7A8FD09
:103C9000002818BFFCF770FE40F220200024C2F27A
:103CA000000007A907940994FEF77AFA002818BFC4
:103CB000FCF762FE6020CDE9000440F22020C2F251
:103CC00000006946042202940494FEF72BFD0028AC
:103CD00018BFFCF751FE40F22020C2F200006946F6
:103CE0000822FEF71FFD002818BFFCF745FE40F232
:103CF0002020C2F20000FEF7E9FC0EB010BD00006B
:103D000010B584B040F26C2041F200010024C2F2F0
:103D10000000C4F2000140F2E7330394CDE901440E
:103D20004F2280E81600C3608461FEF78FFA0028F6
:103D300018BFFCF721FE40F26C20C2F2000001A97E
:103D400001940394FEF72CFA002818BFFCF714FE28
:103D500004B010BD10B540F2B82043F60001C2F225
:103D60000000C4F2010100230C244FF4165280E835
:103D70000E00C0E90333C0E90543C0E90733C0E9D9
:103D80000933FFF783F8002818BFFCF7F5FD40F270
:103D9000B820C2F200000021FEF782FE002818BF02
:103DA000FCF7EAFD40F2B820C2F200000021FEF765
:103DB00051FE002818BFFCF7DFFD40F2B824C2F224
:103DC00000042046FEF726FE002818BFFCF7D4FDAD
:103DD00020683222016841F020010160016841F051
:103DE0001001016040F25A11C2F200012046FFF7B3
:103DF000EBF810BDFEE70000C178007930395FFABA
:103E000081FC303801EB8101C3B200EB4100C1B24B
:103E10004FF0FF323C2928BF10460A2B28BF10461E
:103E2000BCF1060F28BF104640B27047FEE7000005
:103E300000F0070080F00703042B28BF04234FF095
:103E4000FF3C03380CFA03F338BF0020994381404C
:103E50000CFA00F022EA00000843704780B586B0F3
:103E60000021CDE90311019002200290012005906C
:103E700001A94FF09040FDF735F806B080BD000075
:103E800080B582B00DF1060100200222FCF726FD6C
:103E900040F250109DF806109DF80720C2F2000075
:103EA0000180428002B080BD80B582B040F25010E7
:103EB000C2F20000017880788DF806108DF80700B6
:103EC0000DF1060100200222FCF734FD02B080BD96
:103ED0007047000041F20C00C4F202000168026861
:103EE00042F2004301F00301C2F30312C0F2F403F3
:103EF0000132032904BF43F20063C0F26E1301686C
:103F0000B3FBF2F20068C1F306215143C0F34160F4
:103F1000022202EB4000B1FBF0F0704780B50020B8
:103F20000121FFF701FC01200021FFF7FDFB10201C
:103F300041F29071FFF7F8FB60204FF41C51FFF73E
:103F4000F3FB61200121FFF7EFFB46200221FFF781
:103F5000EBFB132048F21001FFF7E6FB122048F2BA
:103F6000FE01FFF7E1FB02204FF4A061FFF7DCFB4D
:103F7000032041F23001FFF7D7FB302040F203313C
:103F8000FFF7D2FB312040F20331FFF7CDFB3220A7
:103F900040F20331FFF7C8FB33204FF44071FFF7C5
:103FA000C3FB34200321FFF7BFFB352040F2033170
:103FB000FFF7BAFB36201421FFF7B6FB372040F29B
:103FC0000331FFF7B1FB382040F20331FFF7ACFBC0
:103FD000392040F20331FFF7A7FB3A204FF440713C
:103FE000FFF7A2FB3B200321FFF79EFB3C2040F2A2
:103FF0000331FFF799FB3D204FF4A051FFF794FBED
:1040000092204FF40071FFF78FFB932040F20331B1
:10401000FFF78AFB902040F60D01FFF785FB032098
:1040200041F21801FFF780FB072040F27311FFF700
:104030007BFB80BD80B5E32043F20801FFF774FBF2
:10404000E7201221FFF770FBEF2041F23121FFF74B
:104050006BFB01200021FFF767FB02204FF4E061BA
:10406000FFF762FB032041F23001FFF75DFB042004
:104070000021FFF759FB082040F20721FFF754FB0E
:1040800009200021FFF750FB0A200021FFF74CFB1D
:104090000C200021FFF748FB0D200021FFF744FB17
:1040A0000F200021FFF740FB10200021FFF73CFB11
:1040B00011200721FFF738FB12200021FFF734FB06
:1040C00013200021FFF730FBC820FCF7F7FE10207B
:1040D00041F29061FFF728FB112040F22721FFF702
:1040E00023FB3220FCF7EAFE12201D21FFF71CFB08
:1040F0003220FCF7E3FE13204FF40061FFF714FBBE
:1041000029201421FFF710FB2B200B21FFF70CFBBC
:104110003220FCF7D3FE20200021FFF705FB2120F1
:104120000021FFF701FB30200721FFF7FDFA3120C6
:1041300040F20771FFF7F8FA32200621FFF7F4FA90
:10414000352040F20471FFF7EFFA362041F6047192
:10415000FFF7EAFA37200421FFF7E6FA38200021BA
:10416000FFF7E2FA392040F20671FFF7DDFA3C2052
:1041700040F20171FFF7D8FA3D200F21FFF7D4FA82
:1041800050200021FFF7D0FA5120EF21FFF7CCFAA1
:1041900052200021FFF7C8FA532040F23F11FFF7E9
:1041A000C3FA60204FF41C51FFF7BEFA61200121D1
:1041B000FFF7BAFA6A200021FFF7B6FA8020002143
:1041C000FFF7B2FA81200021FFF7AEFA822000212A
:1041D000FFF7AAFA83200021FFF7A6FA8420002126
:1041E000FFF7A2FA85200021FFF79EFA9020102108
:1041F000FFF79AFA92200021FFF796FA9320032105
:10420000FFF792FA95204FF48871FFF78DFA972007
:104210000021FFF789FA98200021FFF785FA032093
:1042200041F21801FFF780FA072040F27311FFF7FF
:104230007BFA80BD80B540F2F810C2F20000FDF7B5
:104240003DFD80BD010901EB810100F00F0000EB95
:104250004100C0B270470000A0F10A014CF6CD4306
:10426000CAB2CCF6CC43A2FB0323DA0802EB8202EB
:10427000A1EB4201012202EBD302092888BF41EAE7
:104280000210C0B27047000070B504460068C168F3
:1042900049061DD4C16841F08001C160FCF7FEFEF3
:1042A0002168C968490613D405460026FCF7F6FEC6
:1042B000401BB0F57A7F84BF032684F82560206810
:1042C000032EC06802D010F04000EFD0F0B270BDF5
:1042D0000026F0B270BD000010B504460068C16849
:1042E00021F08001C1608169890609D42046FDF76B
:1042F0002FFF00280EBF0020032084F8250010BDEA
:10430000816921F0200181612046FDF721FF00280D
:104310001ABF032084F82500002021688A6942F032
:1043200020028A6110BD0000F0B581B040F2F8159E
:1043300040F24C34C2F20005C2F200042846214685
:104340000022FDF7FFFC40F24831C2F2000128468E
:104350000022FDF7D5FC40F20406C2F2000696F9F1
:104360000000A578A8421AD040F288072278637826
:10437000C2F2000746F2826107F15000C0F6000168
:104380000095FCF715F838460421FCF701FA40F2D5
:104390000200C2F20000018841F010010180A07803
:1043A000307001B0F0BD000040F21841C4F60001C9
:1043B000002808BF1031086840F0400008607047CE
:1043C00080B540F20040C4F600008021FCF75AFEA0
:1043D0000138B0FA80F0400980BD000080B586B099
:1043E000002005900290802001900120039002207F
:1043F000049040F20040C4F6000001A9FCF772FDF1
:1044000006B080BD40F21841C4F60001002808BF84
:104410001031086840F080000860704780B586B0B1
:10442000002005900390802001901120029002202E
:10443000049040F20040C4F6000001A9FCF752FDD0
:1044400006B080BD704700008179C07930395FFACD
:1044500081FC303801EB8101C3B200EB4100C1B2F5
:104460004FF0FF323C2928BF10460A2B28BF1046C8
:10447000BCF1060F28BF104640B27047B0B50138F6
:104480000024B4EB106F1CBF0120B0BD4EF210052C
:10449000CEF2000568604FF0FF300F2100F06EFF94
:1044A0000720AC6028602046B0BD000080B5FCF756
:1044B000FBFD80BD70B594B006AC20463821FCF7FA
:1044C0008BF800254FF400700595CDE90355CDE933
:1044D0000155FCF767FE092006904FF480300790E5
:1044E00001200B90022014210D900326CDE910101D
:1044F000CDE912002046CDE90E66FDF78FF968B9C7
:104500000F20CDE9010601A80221CDE9035505954B
:10451000FDF714F8002804BF14B070BDFCF72CFAA6
:104520004EF68850CEF20000016841F4700101603F
:104530007047000010B5FFF717F80020FEF7E2FE05
:104540000020FFF76FF84FF6FF70FFF783F8FF20AA
:104550000021FFF7F9F9FEF78FFD40F26C20C2F25F
:104560000000FDF7D7FE40F2F814C2F2000440F25A
:104570004C31C2F2000120460022FDF7E3FB40F27D
:104580004831C2F2000120460022FDF7B9FB40F29B
:104590002024C2F2000420460421FEF757F92046E9
:1045A0000821FEF753F9FFF76BFCFEF70BFF10BD78
:1045B00080B540F26C20C2F20000FDF787FF80BD9D
:1045C00080B540F2FF7C0268C4F2000C604512DD49
:1045D00040F60003C4F20003984215D043F20043B2
:1045E000C4F2010398420FD042F60043C4F2010323
:1045F000984209D00CE0B0F1804F05D040F2004362
:10460000C4F20003984203D14B6822F070021A43AF
:1046100043F2FF33C4F20103984209DC604516DC23
:10462000B0F1804F28D040F20043C4F2000321E0F3
:1046300044F2FF33C4F20103984211DC43F2004319
:10464000C4F20103984217D044F2000310E040F690
:104650000003C4F2000398420ED042F6004307E084
:1046600044F60003C4F20103984205D044F200432B
:10467000C4F20103984203D1CB6822F440721A437A
:104680004B6922F0800E8A6843EA0E03D1F800C01D
:104690000360C262A0F18042A2F596324FEAB222D4
:1046A000072AC0F828C007D8012303FA02F212F043
:1046B000E50F1CBF096901630121416180BD000054
:1046C00080B501F01F014FF0010CD0F820E00CFA8A
:1046D00001F32EEA03030362036A02FA01F11943AC
:1046E000016280BDD0F808C011432CF47F4C41EA30
:1046F000032141EA0C0181607047000082684FF697
:104700008873CFF6CF731A40114341F007018160DF
:1047100070470000B0B5026AA0F1804422F00102A7
:104720000262036A4268D0F818C08D68A4F5963416
:10473000D1F800E023F002034FEAB424072C43EA47
:1047400005030AD80125A54015F0E50F1FBFCD6868
:1047500023F00C0325F004052B43072C0BD801256F
:1047600005FA04F414F0E50F1FBF22F44072D1E9FA
:10477000054522432A434FF68C74CFF6FE740CEAAB
:10478000040545EA0E05426085614968416303629C
:10479000B0BD0000B0B5026A43F2004422F010023E
:1047A0000262036AC4F201044268D0F818C0A04251
:1047B0008C68D1F800E023F0200343EA041305D00D
:1047C00042F60044C4F20104A04207D1CC686FF065
:1047D000400523F0C00305EA04142343A0F18044FC
:1047E000A4F596344FEAB424072C0DD8012505FA18
:1047F00004F414F0E50F1FBF22F44062D1E905452F
:1048000042EA840242EA850248F6FF44CFF6FF649A
:104810000CEA040545EA0E2542608561496881631A
:104820000362B0BDB0B5026A43F2004422F4807264
:104830000262036AC4F201044268D0F81CC0A042BC
:104840008C68D1F800E023F4007343EA042305D018
:1048500042F60044C4F20104A04207D1CC6840F201
:10486000FF45240223F44063AC432343A0F180447A
:10487000A4F596344FEAB424072C0DD8012505FA87
:1048800004F414F0E50F1FBF22F44052D1E90545AE
:1048900042EA041242EA05124FF68C74CFF6FE7417
:1048A0000CEA040545EA0E054260C5614968C1632A
:1048B0000362B0BDB0B5026A43F2004422F48052F4
:1048C0000262036AC4F201044268D0F81CC0A0422C
:1048D0008C68D1F800E023F4005343EA043305D098
:1048E00042F60044C4F20104A04207D1CC6844F669
:1048F000FF75240323F44043AC432343A0F18044D9
:10490000A4F596344FEAB424072C0DD8012505FAF6
:1049100004F414F0E50F1FBF22F44042D1E905452D
:1049200042EA841242EA851248F6FF44CFF6FF6459
:104930000CEA040545EA0E254260C5614968016438
:104940000362B0BD70B5026AA0F1804522F48032E6
:104950000262A5F59635D0F820C04268036D0C6858
:10496000D1F808E04FEAB525072D0AD8012606FA46
:1049700005F515F0E50F1EBF4D6922F4803242EABD
:1049800005224FF68F75CFF6FE752B40234342600C
:1049900003652CF40036496846EA0E4281640262DF
:1049A00070BD000070B5026AA0F1804522F480124B
:1049B0000262A5F59635D0F820C04268036D0C68F8
:1049C000D1F808E04FEAB525072D0AD8012606FAE6
:1049D00005F515F0E50F1EBF4D6922F4802242EA6D
:1049E000852248F6FF75CFF6FF652B4043EA042386
:1049F000426003652CF40016496846EA0E52C16411
:104A0000026270BDD0F820C0036A23F00103036284
:104A1000836923F0F00343EA02122CF00A031943DE
:104A20008261016270470000036A23F01003036291
:104A30008369D0F820C023F4704343EA02322CF09B
:104A4000A00343EA011182610162704780B5416EA3
:104A500001B3016846F2546C8A688968C0F6000C9C
:104A6000490F46F25C6E1CF80130C0F6000E1EF8CD
:104A70000110C2F34262DB00B3FBF1F31CF8021039
:104A80001EF80220C900B1FBF2F1A0F86A30A0F8CC
:104A9000681080BD0121A0F86A10A0F8681080BDE0
:104AA00080B5816ACA070CD18A0715D44A071ED47B
:104AB0000A0727D4CA0630D48A0639D44A0657D5FD
:104AC00041E00268D0F82CC0536823F4003343EA75
:104AD0000C0353608A07E9D50268D0F830C05368E8
:104AE00023F4803343EA0C0353604A07E0D502689D
:104AF000D0F834C0536823F4802343EA0C03536096
:104B00000A07D7D50268D0F838C0536823F40043A9
:104B100043EA0C035360CA06CED50268D0F83CC005
:104B2000936823F4805343EA0C0393608A06C5D547
:104B30000268D0F840C0936823F4005343EA0C03A2
:104B400093604A0614D50268D0F844C05368BCF597
:104B5000801F23F4801343EA0C03536008D1D2F87A
:104B600004C0D0F848E02CF4C00343EA0E035360BD
:104B7000090658BF80BD0168C06C4A6822F4002253
:104B80001043486080BD0000B0B582B004460020EC
:104B9000C4F88C00FCF782FA216805460968090709
:104BA0000BD56FF07E4C20464FF4001100222B46AF
:104BB000CDF800C000F0B6FA78B920680068400768
:104BC0000ED56FF07E4C20464FF4800100222B461C
:104BD000CDF800C000F0A6FA10B1032002B0B0BDBD
:104BE0002020C4F88400C4F888000020E06684F81F
:104BF000800002B0B0BD000080B5806A0021A0F83E
:104C00005E10A0F85610FDF7C3FF80BDB0B5846AF2
:104C10002068D4F88410D4F888508068212908D1FD
:104C200010F0800005D00020A4F85600204600F0C7
:104C3000ABF82068222D806808D110F0400005D024
:104C40000020A4F85E00204600F05CF8D4F88C0048
:104C500040F01000C4F88C002046FDF799FFB0BD6D
:104C600080B50168806A0968890631D40021A0F8FE
:104C70005E1000BF016851E8001F026821F48071D6
:104C800042E80013002BF5D1016851E8021F0268C9
:104C900021F0010142E80213002BF5D1016851E82F
:104CA000021F026821F0400142E80213002BF5D1F7
:104CB0002021C0F88810C16E012909D1016851E88E
:104CC000001F026821F0100142E80013002BF5D10B
:104CD000C16E012904D1B0F85C10FDF7B7FE80BDAC
:104CE000FEF7A8F980BD000080B5806AC16E012979
:104CF00005D1B0F85C104908FDF7A8FE80BDFEF7AD
:104D00009BF980BD016851E8001F026821F4907191
:104D100042E80013002BF5D14FF6FE7CCEF6FF7C67
:104D2000026852E8022F036802EA0C0243E80221FB
:104D30000029F5D1C16E01290AD100BF016851E8EF
:104D4000001F026821F0100142E80013002BF5D18A
:104D50002021C0F888100021C1660167704700005B
:104D600080B500BF016851E8001F026821F04001D2
:104D700042E80013002BF5D12021C0F88410002157
:104D80004167FEF75BF980BD016851E8001F0268CA
:104D900021F0C00142E80013002BF5D1016851E871
:104DA000021F026821F4000142E80213002BF5D132
:104DB0002021C0F884107047F0B581B00446226904
:104DC000D4E90213006867690A43E1693A43076856
:104DD00046F6F316CCF6FF760A4337403A430260B4
:104DE00042684FF2FF4622F440521A43426048F2B2
:104DF0000002A369C4F2000290421CBF276A3B4331
:104E00008768C1F2FF1637403B438360C36A676A15
:104E100023F00F033B43C36244F6FF33C4F20003A5
:104E200098424FF0100314DD44F60047C4F2000727
:104E3000B84221D0904226D043F60007C4F20107C1
:104E4000B84232D141F28803C4F202031B6887A73B
:104E500027E044F20047C4F20007B8421AD044F6F3
:104E60000007C4F20007B8421FD141F28803C4F220
:104E700002031B681B0913E041F28803C4F202031A
:104E80001B689B090CE041F28803C4F202031B6813
:104E90009B0A05E041F28803C4F202031B689B08E9
:104EA0006EA703F0030357F82330904242F200400C
:104EB000C0F2F40011D0B1F5004F1DD1082B00F263
:104EC0006F800025DFE803F00568766C6F6C6C6C12
:104ED00073000025FCF73CFC6CE0082B1BD8002776
:104EE000DFE803F0051920191D19191951000027D1
:104EF000FCF72EFCB8B94BE0082B00F281800025AE
:104F0000DFE803F0057A887E817E7E7E85000025BD
:104F1000FCF71EFC7EE00020012720B938E00027C6
:104F2000FCF73EFCA0B3616A46F23C62C0F60002A8
:104F300032F811206668B0FBF2F106EB46039942A5
:104F40004FF00105C0F08080330399427CD80021E6
:104F50000023FBF7B5F9090241EA1061000210EBEA
:104F6000560041F1000132460023FBF7A9F94FF644
:104F7000FF42A0F54071C0F20F0291420AD82168A9
:104F80003D46C86060E04FF4004000270028CAD1C9
:104F90003D4659E0012557E00025FCF7EDFB09E00F
:104FA0000020012506E00025FCF7FAFB02E04FF4A3
:104FB00000400025002847D0616A46F23C62C0F6F6
:104FC000000232F811106268B0FBF1F0510801EBF9
:104FD0004000B0FBF2F04FF6EF72A0F110019142E9
:104FE00008D84FF6F0710140C0F34200226808442F
:104FF000D06029E0012527E00025FCF7BDFB09E092
:105000000020012506E00025FCF7CAFB02E04FF472
:1050100000400025C0B1616A46F23C62C0F6000261
:1050200032F811106268B0FBF1F000EB5200B0FBF7
:10503000F2F04FF6EF72A0F11001914203D821680F
:1050400080B2C86000E001254FF001100021A06689
:1050500021672846616701B0F0BD00BF0000000075
:105060000400000002000000080000000100000031
:10507000040000000200000008000000B0B5002598
:1050800004468165A0F85C20C0F88C502220C4F84A
:105090008800E06F134608B30A4644F66141C0F643
:1050A000000144F6E94C44F60D4E00F12C07C0F621
:1050B000000CC0F6000E87E8025021688563243199
:1050C000FBF7B6FE50B11020C4F88C00002084F825
:1050D00080002020C4F888000120B0BD206984F839
:1050E000805048B1206850E8000F216840F480707B
:1050F00041E80002002AF5D1206850E8020F21683B
:1051000040F0010041E80202002AF5D1206850E891
:10511000020F216840F0400041E80202002AF5D168
:105120000020B0BD2DE9F04381B004460068C0699D
:105130000840401AB0FA80F04009904264D1DDF88E
:10514000208015460E46994608F1010709E000BF88
:105150002068C0693040801BB0FA80F04009A84246
:1051600052D1002FF4D0FBF799FFB8F1000F2BD0EC
:10517000A0EB0900404527D820680168490744BFD3
:10518000C1695FEA0151E3D54FF40061016200BFDC
:10519000206850E8000F216820F4D07041E8000238
:1051A000002AF5D1206850E8020F216820F00100A4
:1051B00041E80202002AF5D12020C4F88400C4F896
:1051C0008800C4F88C0018E0206850E8000F2168BF
:1051D00020F4D07041E80002002AF5D1206850E8A0
:1051E000020F216820F0010041E80202002AF5D1F7
:1051F0002020C4F88400C4F88800002084F88000CF
:10520000032001B0BDE8F083002001B0BDE8F083C9
:1052100080B540F2B820C2F200000068C169C9063A
:105220001AD51021016240F2B820C2F20000FDF749
:1052300061FC40F29810C2F20000006840F28C114C
:105240004068C2F20001C0F13200087040F28D10D7
:10525000C2F200000121017040F2B820C2F2000049
:10526000FDF798FC80BD000070B540F28D10C2F2D1
:105270000000017800295BD040F28C11C2F20001DD
:10528000097800220F29027052D140F25A10C2F25E
:10529000000081783A294BD141793A2948D1017AE5
:1052A0002D2945D1417A502942D1817A41293FD1D6
:1052B000017B2D293CD1807B532839D140F25A10F3
:1052C000C2F20000FDF7BEFE0446013030D040F2CD
:1052D0005A10C2F20000FEF78FFD0546013027D0BC
:1052E00040F25A16C2F200063046FFF7ADF8411CF4
:1052F0001ED0F17AA1F13102D2B2012A18D8727B04
:10530000A2F13103DBB2082B12D840F27803C2F2CB
:10531000000301261E7140F25013C2F2000398717F
:10532000A1F13000D871A2F130001C715D711872CA
:1053300040F2B82040F25A11C2F20000C2F200015D
:105340003222FDF741FE70BDFEE70000002848BF95
:10535000704700F01F01012202FA01F14EF2001223
:105360004009CEF2000242F8201070474EF60C5071
:10537000CEF200000068C0F3022070474EF61453CE
:1053800000F00F02CEF2000309011A4400F160435D
:10539000B0F1FF3FC8BF03F56442117070470000D1
:1053A0004EF60C51CEF200010A684FF6FF031A4088
:1053B00060F30A2242F0806040F0FD7008607047A0
:1053C00010B5044600F006F80021A04238BF611E67
:1053D000084610BD40F26030C2F20000006870471D
:1053E000FBF770FEFFF766F8FEF7EAFAFEF7C6FA7B
:1053F000FEF714FCFEF784FCFEF7A0FBFEF7AAFC08
:10540000FFF798F8FDF704FFFEF7C8F9FEF78CFFE9
:10541000FBF7B8FAFFF728FFF4E730380A2801D283
:105420000120704700207047F1EE100A4FF6FF711F
:10543000C0F2C03120EA010040F04070E1EE100AF5
:105440007047040000080000000000000002000196
:10545000000010000000000000000001020304062C
:10546000070809000000000102030400000000001A
:10547000000000000000000000000000000000002C
:10548000000000000000000000000000000000001C
:10549000000000000000000000000000000080018B
:1054A00080018001800180018001800180018001F4
:1054B00080018001800180010000000080018001E6
:1054C00000000000000000000000000000000000DC
:1054D000CC00CC00CC00CC00CC00CC000000000004
:1054E00000000000000000000000000000000000BC
:1054F00000000000000000000000000000000000AC
:105500000000000000000000600C600C600C300621
:105510003006FE1FFE1F300638071803FE1FFE1F51
:10552000180318038C018C018C010000000080001E
:10553000E003F80F9C0E8C1C8C188C009800F8016E
:10554000E007800E801C8C188C189C18B80CF00F8B
:10555000E003800080000000000000000000000068
:1055600000000E181B0C110C11061106110311037B
:105570009B018E01C038C06C6044604430443044AC
:105580001844186C0C380000000000000000E00116
:10559000F0033807180618063003F001F000F80091
:1055A0009C310E33061E061C061C063FFC73F021C0
:1055B00000000000000000000000000000000000EB
:1055C0000C000C000C000C000C000C000000000093
:1055D00000000000000000000000000000000000CB
:1055E00000000000000000000000000000000002B9
:1055F00000038001C000C000600060003000300087
:1056000030003000300030003000300060006000BA
:10561000C000C00080010003000200000000200064
:105620006000C00080018001000300030006000646
:105630000006000600060006000600060003000340
:1056400080018001C0006000200000000000000018
:105650000000000000000000C000C000D806F807ED
:10566000E0013003380700000000000000000000E7
:10567000000000000000000000000000000000002A
:105680000000000000000000800180018001800116
:105690008001FC3FFC3F800180018001800180018E
:1056A00000000000000000000000000000000000FA
:1056B00000000000000000000000000000000000EA
:1056C0000000000000000000000000000000800159
:1056D00080010001000180000000000000000000C7
:1056E00000000000000000000000000000000000BA
:1056F00000000000E007E0070000000000000000DC
:105700000000000000000000000000000000000099
:105710000000000000000000000000000000000089
:105720000000000000000000000000000000C000B9
:10573000C000000000000000000000000000000C9D
:10574000000C0006000600060003000300038003AF
:10575000800180018001C000C000C00060006000C6
:105760000000000000000000000000000000E00356
:10577000F007380E180C0C180C180C180C180C1814
:105780000C180C180C180C18180C380EF007E00345
:105790000000000000000000000000000000000108
:1057A0008001C001F0019801880180018001800121
:1057B00080018001800180018001800180018001E1
:1057C0000000000000000000000000000000E003F6
:1057D000F80F180C0C180C1800180018000C000614
:1057E00000038001C000600030001800FC1FFC1F97
:1057F0000000000000000000000000000000E001C8
:10580000F807180E0C0C0C0C000C0006C003C007A7
:10581000000C001800180C180C18180CF807E003FE
:105820000000000000000000000000000000000C6C
:10583000000E000F000F800DC00C600C600C300CCF
:10584000180C0C0CFC3FFC3F000C000C000C000C76
:105850000000000000000000000000000000F80F41
:10586000F80F180018000C00EC03FC071C0E001CBD
:105870000018001800180C181C0C180EF807E0038C
:105880000000000000000000000000000000C00751
:10589000F00F381C181818000C00CC03EC0F3C0E4D
:1058A0001C1C0C180C180C18181C380EF007E00300
:1058B0000000000000000000000000000000FC1FCD
:1058C000FC1F000C00060006000380038001C001DD
:1058D000C000E00060006000700030003000300068
:1058E0000000000000000000000000000000E003D5
:1058F000F007380E180C180C180C3806F007F007D3
:10590000180C0C180C180C180C18380CF80FE003B5
:105910000000000000000000000000000000E003A4
:10592000F007380E1C0C0C180C180C181C1C381E18
:10593000F81BE0190018000C000C1C0EF807F00111
:105940000000000000000000000000000000000057
:105950000000000000000000800180010000000045
:105960000000000000000000000000008001800135
:105970000000000000000000000000000000000027
:105980000000000000000000800180010000000015
:105990000000000000000000000000008001800105
:1059A0000001000180000000000000000000000075
:1059B0000000000000000000000000000010001CBB
:1059C000800FE003F8001800F800E003800F001CCF
:1059D00000100000000000000000000000000000B7
:1059E000000000000000000000000000F81F0000A0
:1059F00000000000F81F0000000000000000000090
:105A00000000000000000000000000000000000096
:105A10000000000000000000000000000800380046
:105A2000F001C007001F0018001FC007F001380078
:105A30000800000000000000000000000000E0037B
:105A4000F80F180C0C180C180018000C00060003B6
:105A50008001C000C000C00000000000C000C00005
:105A60000000000000000000000000000000000036
:105A7000E00718180420C229224A114409440944A5
:105A8000094409221113E20C024004201818E0070F
:105A90000000000000000000000000000000800383
:105AA0008003C006C006C006600C600C30183018B9
:105AB0003018F83FF83F1C700C600C6006C006C040
:105AC0000000000000000000000000000000FC03D7
:105AD000FC0F0C0C0C180C180C180C0CFC07FC0F11
