:020000040800F2
:10000000980900209502000875420008C1360008D2
:1000100071420008B90D0008655900080000000091
:1000200000000000000000000000000085470008FC
:10003000890E00080000000085430008B947000849
:10004000AF020008AF020008AF020008AF020008CC
:10005000AF020008AF020008AF020008AF020008BC
:10006000AF020008AF020008AF020008BD0D000893
:10007000AF020008AF020008AF020008AF0200089C
:10008000AF02000800000000AF020008AF02000845
:10009000AF020008AF020008AF020008AF0200087C
:1000A000AF020008AF020008AF020008AF0200086C
:1000B000C9480008D9480008AF020008AF0200088C
:1000C000AF020008AF020008AF020008AF0200084C
:1000D000AF020008E5570008AF020008AF020008B1
:1000E000AF020008AF020008AF020008AF0200082C
:1000F000AF020008AF020008AF02000800000000D5
:1001000000000000AF02000800000000AF0200087D
:10011000AF02000800000000E9480008AF02000834
:10012000AF020008AF020008AF020008AF020008EB
:10013000AF0200080000000000000000AF0200084D
:10014000AF020008AF02000800000000000000003D
:10015000000000000000000000000000000000009F
:10016000000000000000000000000000AF020008D6
:10017000AF020008000000000000000000000000C6
:1001800000000000AF0200080000000000000000B6
:10019000000000000000000000000000000000005F
:1001A0000000000000000000AF020008AF020008DD
:1001B000AF020008AF020008AF0200080000000014
:1001C00000000000AF020008000000000000000076
:1001D000AF020008AF02000800F002F800F04AF891
:1001E0000AA090E8000C82448344AAF10107DA4592
:1001F00001D100F03FF8AFF2090EBAE80F0013F09A
:10020000010F18BFFB1A43F001031847F46A0000FE
:10021000146B0000103A24BF78C878C1FAD852078E
:1002200024BF30C830C144BF04680C607047000070
:100230000023002400250026103A28BF78C1FBD8EF
:10024000520728BF30C148BF0B607047642900F0D7
:100250000181002070471FB505F004FC00F050FD3F
:1002600004000020002105F0E7FB401C60601FBD7A
:1002700010B510BD00F008FD1146FFF7ECFF05F0CA
:10028000BDFB00F02FFD03B4FFF7F2FF03BC00F04D
:100290003BFD00000948804709480047FEE7FEE7AC
:1002A000FEE7FEE7FEE7FEE7FEE7FEE7FEE7FEE726
:1002B00004480549054A064B7047000029480008D4
:1002C000D901000898030020980900209805002013
:1002D0009805002053EA020C00F069802DE9F04BEC
:1002E0004FF00006002B1FBFB3FA83F503FA05F4A5
:1002F00024FA05F65E4012BF1643B2FA82F502FAFE
:1003000005F4C5F120051EBF22FA05FC44EA0C04E1
:10031000203556EA044C4FEA144418BF641C4FF0D1
:1003200000084FF00009904271EB030C39D300290B
:1003300019BFB1FA81F701FA07F6B0FA80F700FAAF
:1003400007F6C7F120071EBF20FA07FC46EA0C0695
:100350002037B6FBF4FCA7EB0507103F07F01F0B97
:10036000CBF120062CFA06F60CFA0BFB44BFB34681
:100370000026202FA4BF5E464FF0000B5BEA060C60
:1003800008BF4FF0010B19EB0B0948EB0608ABFB5C
:10039000027C06FB02CC0BFB03CCC01B71EB0C01F7
:1003A000C1E70B46024641464846BDE8F08B13B50F
:1003B000084318BF4FF0FF300146AFF30080BDE89F
:1003C0001C4070470FB41CB5074B06AA7B44694616
:1003D0000090059800F037FA0020694600F046FAD0
:1003E0001CBC5DF814FB00009D0400002DE9F041E9
:1003F0000E460446002020622046E168884730B35C
:10040000252805D0D4E901219047206A401CF2E755
:10041000E168204600278847050018D0A5F1410073
:10042000192802D820354FF4006732462946204665
:100430002760FFF70BFF40B1012804D0F61D26F01E
:1004400007060836D8E7361DD6E72846DAE7206AD9
:10045000BDE8F0812DE9F0410646002410687529B9
:10046000314616A510D0AFF30080002802DA4042D2
:1004700013A507E031688A0701D512A502E04907F4
:1004800004D511A5012401E0AFF3008000210A2268
:1004900006F1240709E0B0FBF2FCB0FBF2F302FB2B
:1004A0001C00303078541846491C0028F3D12346EC
:1004B0002A463046BDE8F04100F066B90000000071
:1004C0002D0000002B000000200000000FB400B53C
:1004D0008DB010A9099000910B904FF0FF300A9059
:1004E00000200C90064878440690064878446A46F6
:1004F00007900F9909A800F0D3F90DB05DF814FB2F
:10050000D7030000EF0300002DE9FF5F1D464FF009
:10051000FF3B91464FF000085F46D5E90146A969C7
:1005200001987F1C8847296A824688470028F6D1AF
:10053000BAF1FF3F0CD0002E24F4C06419DD600630
:1005400014D5BAF12B0F09D0BAF12D0F0ED103E05B
:10055000584604B0BDE8F09F44F48064A96901984E
:100560007F1C8847761E8246002E02DDBAF1300FCE
:1005700003D0B9F1000F26D032E0A969761E0198A8
:100580007F1C44F400748847002E824605DDBAF1D2
:10059000780F06D0BAF1580F03D0B9F1000F10D080
:1005A0001EE0B9F1000F02D0B9F1100F18D1A969FE
:1005B000761E01987F1C24F4007488478246102020
:1005C00002E0082000E00A20814609E0A96908FB52
:1005D0000908761E01987F1C44F4007488478246FF
:1005E000002E05DD4946504600F045F90028EDDAB9
:1005F000E96901988847A00502D46FF00100A8E7D7
:10060000E00725D1600613D5600502D5C8F10000CA
:1006100000E0404629680A1D2A600968220501D5C4
:10062000087015E0220701D5088011E008600FE08E
:100630002868011D29600068210502D580F8008026
:1006400006E0210702D5A0F8008001E0C0F8008094
:1006500038467EE72DE9FF5F4FF0000899461446C3
:1006600046469169D2E901A7DDF838B0019888477C
:10067000054659EA0B0005D009E0A1690198761CEE
:1006800088470546216A284688470028F5D1681C16
:1006900003D05FEACA7005D015E04FF0FF3004B018
:1006A000BDE8F09F2068011D2160D0F800800AE0BD
:1006B0005FEACA7001D108F8015BA169761C019854
:1006C0007F1E88470546002F1ADD681C18D0B9F137
:1006D000000F0DD0E81705EBD060421120F01F008D
:1006E00059F822102A1A012090400142E0D107E077
:1006F000BBF1000FDCD12846216A88470028D7D0FB
:10070000E16901988847BBF1000F07D1002E05DD94
:100710005FEACA7002D1002188F80010A068B842D0
:1007200003DDBBF1000F03D017B16FF00100B6E796
:100730003046B4E74FF0000200B5134694469646A3
:10074000203922BFA0E80C50A0E80C50B1F12001E4
:10075000BFF4F7AF090728BFA0E80C5048BF0CC092
:100760005DF804EB890028BF40F8042B08BF7047F0
:1007700048BF20F8022B11F0804F18BF00F8012B62
:1007800070477047704770472DE9F0470D4699460E
:100790009246044600F124080168880604D5E06901
:1007A00021F01001216000E00120A84201DD471B7B
:1007B00000E00027A1697A1902EB0900081AA0617C
:1007C0002078C00602D42046AFF30080002608E05F
:1007D000D4E901211AF806009047206A401C761CD3
:1007E00020624E45F4DB2078C0060AD52046AFF3E0
:1007F000008006E0D4E9012130209047206A401CA7
:100800002062381EA7F10107F4DC07E0D4E90121DA
:1008100018F805009047206A401C2062281EA5F1A8
:100820000105F3DC2046AFF300802078000602D5F6
:100830000220BDE8F0870120FBE7000001694A1CA7
:1008400002610878704700B58FB0CDE90131002111
:10085000059105497944CDE9031011466846FFF733
:10086000C5FD0FB000BD0000E5FFFFFF0A6802F8FC
:10087000010B0A6070473A2800D2303820F020027D
:10088000412A01D3A2F13700884201D34FF0FF3053
:1008900070470000026811441378016018467047E1
:1008A000D1600549794451610449794411620021BC
:1008B0001161114600F02EB8EDFFFFFF530000005C
:1008C000426842B1016811F8013B23B1521EC0E9F0
:1008D0000012184670470121C160881E70474268A7
:1008E0005AB1C368016843B983688B4205D0491E79
:1008F000521CC0E90012002070474FF0FF307047D3
:1009000010B5044600F0E6F90068005D00F0010053
:1009100010BD00002DE9F34F4FF0000A0C4656467B
:100920008DB001200C9001F10C000B9062690B98C6
:1009300001219047051E2DD0252D2CD0216A8847F6
:10094000C0B162690B9801219047216A884700284D
:10095000F7D16269411E0B98904700E0761CA169AF
:100960000D988847216A88470028F7D1E1690D98DA
:100970008847DBE7A1690D988847A842074601D15F
:10098000761CD3E7E1690D9888477F1C02D1BAF144
:10099000000F6FD06BE162690B9800273D46394626
:1009A00090472A2804D162690B98012190470125BC
:1009B000DFF8D08262690B9801219047A0F13001E5
:1009C0000A290AD24745E5DC07EB870100EB41071E
:1009D000303FDFD445F01005ECE7E90601D46FF0B5
:1009E00000476C280AD04C2814D0682815D06A28F3
:1009F0000DD074281CD07A281AD01DE062690B989B
:100A0000012190476C2802D045F0040514E045F020
:100A100002050DE045F020050AE062690B9801210E
:100A20009047682802D045F0080505E045F40065C8
:100A300062690B9801219047C4E9015765283DD0B0
:100A400019DC58287AD00CDC452837D004DC25285E
:100A500026D041289ED131E046282FD0472899D171
:100A60002CE05B2877D0612828D063287CD06428CC
:100A700023D15AE0F6E06F2848D008DC66281DD064
:100A800067281BD0692821D06E2816D127E070284E
:100A900045D0732868D0752847D078280DD14DE00F
:100AA000A1690D988847252805463FF469AFE1699B
:100AB0000D9888476D1C3FF46AAFD8E00D99234626
:100AC0006A466FF00100AFF30080C5E045F04000DA
:100AD00023464FF000026060A80736D43EE0E807E6
:100AE0007FF447AF2068011D21600068290501D50A
:100AF00006701BE7290701D5068017E7A90703D56C
:100B0000F117C0E9006111E706600FE745F040000A
:100B100023464FF008026060A80716D41EE040F696
:100B20000E0125EA0100606016E045F04000234612
:100B30004FF00A026060A80707D40FE045F04000BC
:100B40006060A80708D5234610220D996FF00100B8
:100B5000AFF3008080E007E0102223460D996FF08C
:100B60000100FFF7D1FC77E04FF0000963284F4602
:100B7000C8464B46CB4602D05B2806D038E0E80694
:100B800001D40120A060012732E06269D4F80CB0E2
:100B90000B98012190475E2807D14FF00109494683
:100BA0006269D4F80CB00B989047216939B90021DB
:100BB0000A4603AB43F82120491C0829FADBD8B3C5
:100BC000216949B308F1010862690B980121904736
:100BD0005D28F4D1B9F1000F09D0002003A951F824
:100BE0002020D24341F82020401C0828F7DB03AB2B
:100BF0002069002820794FEA40701ED05B462246CB
:100C0000CDF80080CDE901970D9900286FF0010023
:100C100020DAAFF300801FE0C11703AA00EBD16117
:100C20004B1121F01F0102EB8302411A13680120CE
:100C3000884003431360C7E719E00D992246002856
:100C40006FF00100009702DAAFF3008004E0FFF7D5
:100C500001FD01E0AFF3008000280ADA401C06D154
:100C60000C9820B14FF0FF300FB0BDE8F08F504628
:100C7000FAE7E90701D10AF1010A064400200C90C5
:100C800054E60000CCCCCC0C754600F035F8AE46EE
:100C900005006946534620F00700854618B020B588
:100CA000FFF706FBBDE820404FF000064FF00007BD
:100CB0004FF000084FF0000BAC46ACE8C009ACE8C0
:100CC000C009ACE8C009ACE8C00921F007018D46B5
:100CD0007047000010B500F013F8001D10BD00BFF4
:100CE000594D000010B50446AFF300802046BDE822
:100CF0001040FFF7C8BA00000048704718000020F5
:100D0000004870473800002001491820ABBEFEE7BC
:100D1000260002000000000030B44FF0013C50F803
:100D2000042B51F8043BCCFA52F4D51A20D1FCB96B
:100D300050F8042B51F8043BCCFA52F4D51A17D1D1
:100D4000B4B950F8042B51F8043BCCFA52F4D51A3C
:100D50000ED16CB950F8042B51F8043BCCFA52F484
:100D6000D51A05D1002CDAD030BC4FF00000704706
:100D700029BAB1FA81F111F01801D1F120008440B3
:100D8000F2D1CA40CB4012F0FF0213F0FF0330BC97
:100D9000D01A70477047000001EB810100EB810021
:100DA00000212022435C002B08BF4254013114294A
:100DB00008BF7047F6E70000FEE7000080B540F28C
:100DC000BC10C2F2000000F003FA80BD80B50168DB
:100DD0006FF007024CF6CD4352FA81F2CCF6CC43C9
:100DE000A2FB032C40F20842C4F20202D0F844E015
:100DF00002F58363914238BF02F57E732EF0030142
:100E0000194402F58F6ECCF3041301229A40C0E915
:100E1000121E026580BD0000017940F60012013902
:100E2000C4F2020202EB810302F1400C01F01F0147
:100E3000012202FA01F1C0E9153CC16570470000CA
:100E400070B5D0E913C4D0F854E0CCF80440BEF13A
:100E5000000F1CBFD0E916C4CCF80440D0E9106ED6
:100E60000468D0F808C00EF01F00012505FA00F054
:100E7000706008466360BCF1100F04BF10460A465C
:100E8000A060E26070BD00007047000070B51446BD
:100E90000D46064602F072FCA02002F04DFC02F066
:100EA00089FC304602F048FC02F084FC02F066FC4B
:100EB000A12002F041FC02F07DFC24B90EE000BF4D
:100EC00002F050FC56B1013C02F010FC260605F879
:100ED000010BF5D002F024FC002EF4D102F05CFCF2
:100EE00070BD000070B514460D46064602F046FC83
:100EF000A02002F021FC02F05DFC304602F01CFC58
:100F000002F058FC4CB1013D15F8010F013C02F014
:100F100013FC02F04FFC2006F6D102F03DFC70BD40
:100F2000EFF3108072B600BFFEE70000F0B581B0AD
:100F300040F27805C2F20005287840B129790020F6
:100F4000287081F001010120297102F049FF6878C1
:100F500040F20607C2F2000768B3697900206870A2
:100F600081F00100687189B146F6D840C0F60000F2
:100F700040F2840490E84E000069C2F2000404F1DB
:100F8000B40C8CE84E00C4F8C40010E046F6EC4007
:100F9000C0F6000040F2840690E81E000069C2F22C
:100FA000000606F1B40C8CE81E00C6F8C4003888B0
:100FB00040F400703880A878B8B368790021002820
:100FC00040F24C10C2F20000A97015D0417A0139EC
:100FD000CAB2012A98BF0121417240F28400CAB20C
:100FE000C2F2000046F6A241A030C0F60001FFF7B1
:100FF000E9F94FF4807013E0017A0139CAB2012A8D
:1010000098BF0121017240F28400CAB2C2F200000E
:1010100046F68E415030C0F60001FFF7D3F910209C
:1010200039880843388003F099F9E878A0B36879E3
:101030000021002840F24C10C2F20000E97012D0EA
:10104000417A0131CAB20A2A28BF0A21417240F20C
:101050008400C2F20000CAB2A03010A1FFF7B2F9BA
:101060004FF4807013E0017A0131CAB20A2A28BF16
:101070000A21017240F28400CAB2C2F2000046F6B0
:101080008E415030C0F60001FFF79CF910203988DE
:101090000843388003F062F901B0F0BD204E2832D9
:1010A000293A256420202020202020202020000014
:1010B000B0B586B0054600200590CDE903000120BB
:1010C0000C46029001A94FF09040019500F09CF968
:1010D0004FF090402946224600F06CFA06B0B0BDB1
:1010E00080B5014690F82500022824D10868D1E98E
:1010F00010CE8A6C036823F00E030360136823F498
:1011000080731360026822F0010202600EF01F007B
:10111000012202FA00F0CCF80400D1E9132050605B
:10112000486D60B1026822F480720260D1E9160253
:101130004260002004E00420C863012000E0002099
:10114000012281F82520002281F8242080BD0000A2
:1011500080B590F8251002292DD10168D0E910CE74
:10116000826C0B6823F00E030B600B6823F0010305
:101170000B60116821F4807111600EF01F020121D3
:1011800001FA02F2CCF80420D0E913325A60426D21
:1011900032B1136823F480731360D0E916235360CF
:1011A00080F82510826B002180F824100AB1904746
:1011B0000021084680BD0421C1630121002280F87E
:1011C000251080F82420084680BD0000C06B7047C1
:1011D000B0B50268D0E910C4DCF80050136804F020
:1011E0001F0E590712D5042101FA0EF414EA050165
:1011F0000CD01168890603D4116821F00401116034
:10120000CCF80440016BB9B38847B0BD990718D535
:10121000022101FA0EF414EA050112D011688906C0
:1012200006D4116821F00A011160012180F825100F
:10123000CCF80440C16A002280F82420E1B188473C
:10124000B0BD190758BFB0BD082101FA0EF1294001
:1012500012D0116821F00E011160012101FA0EF285
:10126000CCF80420C16380F82510416B00220029CE
:1012700080F8242018BF8847B0BD0000002804BFB4
:10128000012070472DE9F04140F2000C0446C4F201
:10129000020C00684FF6F8330CF58162CBF6FD7353
:1012A000904238BF03F5806303EB00024CF6CD4358
:1012B000CCF6CC43A2FB032304F1080E0CF58061AD
:1012C0006FF003059EE804413CBF0021C4F2020117
:1012D00005EA9303C4E91013022184F8251001687C
:1012E00047F6F073994304F114071143E8CF41EA3C
:1012F000080141EA0E011943294331433943016092
:101300002046FFF763FDA06804F14803B0F5804F65
:1013100004BF0020606060680ECBC7B201380328AC
:101320000F60536009D82046FFF776FD04F15402A0
:1013300007CA002303604A6003E00020C4E91500E7
:10134000E06500200121E06384F8251084F8240082
:10135000BDE8F08110B5044690F82400012820D0A3
:10136000012084F8240094F82500012816D10220D9
:1013700084F825000020E063D4F800C0DCF8000009
:1013800020F00100CCF800002046FFF759FD20684E
:10139000226B01683AB141F00E010AE0002084F8A6
:1013A0002400022010BD21F004010160016841F019
:1013B0000A010160A06C0168C90303D5016841F40A
:1013C00080710160606D18B1016841F48071016045
:1013D0002068016841F001010160002010BD00009B
:1013E000B0B5044600F0ECF8054640F20C00C2F23D
:1013F00000000068611C18BF044400BF00F0E0F862
:10140000401BA042FAD3B0BD2DE9F04F83B00D6868
:10141000002D00F0C58000F138424FEAB22241F2BF
:1014200000470192C4F600070622002600244FF070
:10143000010AB84208BF0522009209E00D68043491
:1014400035FA0AF20AF1010A06F1020600F0A88054
:10145000AAF1010C012202FA0CFB15EA0B09EDD0EE
:10146000D1F8048008F00305A5F1010EBEF1010FCB
:1014700011D887680322CB68B24027EA0202B34042
:101480001A4382604268C8F3001322EA0B0203FA8F
:101490000CF31A434260032D1CD0C26803238F68EB
:1014A000B3409A4307FA06F31A43022DC26011D1E2
:1014B0006FF0030202EA5C02024404F01C070F23EF
:1014C000D2F820E003FA07F50B692EEA0505BB40C8
:1014D0002B431362026803234F68B3409A4307F01B
:1014E0000303B3401A4317F4403F0260A6D041F211
:1014F0006003C4F202031A6840F2004E42F0010297
:101500001A601A68C4F2010E02F001020292029AF5
:101510002CF003024FF608487244CFF6FF7852F8D9
:10152000083004F00C070F25BD4023EA050C019B91
:10153000009D052B38BF1D4605FA07F747EA0C0347
:1015400042F80830DEF808204B6842EA090740F20A
:101550000C4CDD0258BF22EA0907CEF80870C4F22D
:10156000010CDCF800209D0242EA090758BF22EA7C
:101570000907CCF80070DEF804209D0342EA090751
:1015800058BF22EA0907CEF80470DEF80020DB031A
:1015900042EA090758BF22EA0907CEF800704DE772
:1015A00003B0BDE8F08F00000069084018BF0120BB
:1015B000704700001823002A08BF2823C150704735
:1015C00040F29430C2F200000068704740F20C0014
:1015D00040F29431C2F20000C2F2000100680A68D1
:1015E000104408607047000080B5032000F068F8E0
:1015F0000F2000F009F800281CBF012080BD00F07A
:101600002FF8002080BD0000B0B540F20C01C2F2FE
:101610000001096801B3044640F20800C2F200006C
:101620004FF47A720068B2FBF1F1B0FBF1F000F018
:10163000C5FD0F2C4FF001050CD858B94FF0FF3005
:1016400021460022002500F02BF840F21000C2F2E3
:10165000000004602846B0BD01252846B0BD00004A
:1016600080B582B041F25800C4F20200816841F0B6
:1016700001018160816801F0010101910199016816
:1016800041F080510160006800F0805000900098A7
:1016900000F092F802B080BD80B504F065F980BD1D
:1016A00070B514460D46064604F06EF929462246EA
:1016B00002F0E2FD0146304604F06EF970BD000014
:1016C00080B504F07BF980BDB0F5007F35D00028EF
:1016D00066D147F20000C4F200000168D0F8802013
:1016E00001F4C06122F48072B1F5806FC0F88020EF
:1016F00021D10168012262F34A21016040F2080110
:10170000C2F200010968322359434DF68363C4F2E3
:101710001B33A1FB031302EB934100BF43694A1E35
:101720008A4203D213F480611146F7D14069400523
:1017300044BF032070470020704747F20000C4F206
:1017400000000168D0F8802001F4C06142F480728A
:10175000B1F5806FC0F88020EDD10168012262F3FD
:101760004A21016040F20801C2F2000109683223F7
:1017700059434DF68363C4F21B33A1FB031302EB01
:10178000934100BF43694A1E8A4203D213F4806129
:101790001146F7D14069400544BF03207047CAE7AE
:1017A00047F20000C4F200000168022262F34A21FD
:1017B000016000207047000047F20800C4F20000FA
:1017C000016841F480410160704700002DE9F04359
:1017D00081B08146807841F288070007C4F2020791
:1017E00001D4002565E057F8300C10F080580BD17B
:1017F00057F8300C40F0805047F8300C57F8300C58
:1018000000F080500090009847F20004C4F20004F9
:10181000206840F480702060FFF7D2FE054600BFCC
:10182000206810F4807607D1FFF7CAFE401B03281A
:10183000F6D3032516B933E000258EB3B86810F44B
:10184000407012D0D9F8401088420BD0B868B968FF
:1018500020F4407041F48031B960B96821F48031DE
:10186000B960B860C00703D111E00020C0070ED0F6
:10187000FFF7A6FE064641F2893400BFB86880072C
:1018800005D4FFF79DFE801BA042F7D303253DB989
:10189000B868D9F8401020F4407008430025B860BB
:1018A000B8F1000F05D157F8300C20F0805047F800
:1018B000300CD9F80000C10712D1810719D44107B3
:1018C00020D4010727D481062ED4410635D4010641
:1018D0003CD4C10543D481054AD4410551D460E0CC
:1018E0003968D9F8042021F00301114339608107D8
:1018F000E5D53968D9F8082021F00C011143396089
:101900004107DED53968D9F80C2021F030011143A8
:1019100039600107D7D53968D9F8102021F0C00106
:10192000114339608106D0D53968D9F8142021F4E3
:101930004061114339604106C9D53968D9F818208A
:1019400021F44051114339600106C2D53968D9F8F4
:101950001C2021F4404111433960C105BBD53968D1
:10196000D9F8202021F44031114339608105B4D5E4
:101970003968D9F8242021F4402111433960410508
:101980000FD53968D9F8282021F440111143B2F558
:10199000801F396005D157F87C1C41F4801147F84D
:1019A0007C1C01050FD53968D9F82C2021F44001A1
:1019B0001143B2F5800F396005D157F87C1C41F412
:1019C000801147F87C1CC1040FD53968D9F8302044
:1019D00021F040711143B2F1807F396005D157F891
:1019E0007C1C41F4801147F87C1C81040FD53968B8
:1019F000D9F8342021F040611143B2F1006F396011
:101A000005D157F87C1C41F4801147F87C1C410437
:101A10000FD53968D9F8382021F040611143B2F16F
:101A2000006F396005D157F87C1C41F4801147F8EC
:101A30007C1C00040FD53868D9F83C1020F04050C9
:101A40000843B1F1805F386005D157F87C0C40F451
:101A5000803047F87C0C284601B0BDE8F0830000D8
:101A60002DE9F047002800F0CA8042F2000AC4F2D3
:101A7000020A0446DAF800000D4600F00F00884222
:101A80000DD2DAF8000020F00F002843CAF8000059
:101A9000DAF8000000F00F00A84240F0B080207893
:101AA00041F20808C007C4F202080CD14FF0000947
:101AB000206881072BD4B9F1800F41D1D8F80000FC
:101AC00020F0F0003AE06068022800F08C800328E3
:101AD00040F0918058F8080C800140F1908002F0AD
:101AE00053FC4BF20041C0F2C44188420CD9D8F8F3
:101AF000000010F0F00F00F08E802078800703D5F2
:101B0000A068002800F087804FF000098CE04107B2
:101B100005D5D8F8001041F4E061C8F800100007BE
:101B200006D5D8F80000072161F30D20C8F80000A1
:101B3000D8F80000A16820F0F0000843C8F80000C1
:101B4000DAF8000000F00F00A84219D9DAF8000016
:101B500020F00F002843CAF80000FFF731FD0646C9
:101B600041F28837DAF8000000F00F00A84207D0F1
:101B7000FFF726FD801BB842F4D90320BDE8F087AB
:101B80002068410707D5D8F80010E26821F4E06129
:101B90001143C8F80010000708D5D8F800002169E3
:101BA00020F4605040EAC100C8F8000000F08AF854
:101BB000D8F8001045F67E22C1F30311C0F60002EA
:101BC000515C40F2080201F01F0120FA01F140F2DD
:101BD0001000C2F200000068C2F200021160FFF7BC
:101BE00013FDBDE8F08758F8080C80035CBF0120A6
:101BF000BDE8F08706E058F8080C400502D4012043
:101C0000BDE8F08700F05EF84BF20041C0F2C4413D
:101C100088427FF679AFD8F80000082161F30710F9
:101C20004FF08009C8F80000D8F80000616820F083
:101C300003000843C8F80000FFF7C2FC064641F263
:101C4000883700BFD8F80000616800F00C00B0EBE6
:101C5000810F3FF42DAFFFF7B3FC801BB842F1D9E1
:101C60000320BDE8F087000040F20800C2F2000047
:101C70000068704780B5FFF7F7FF41F20801C4F232
:101C80000201096845F68E22C1F30221C0F6000266
:101C9000515C01F01F01C84080BD000080B5FFF716
:101CA000E3FF41F20801C4F20201096845F68E2201
:101CB000C1F3C221C0F60002515C01F01F01C8400F
:101CC00080BD000041F20C01C4F2020151F8040C85
:101CD00042F20042C0F2F40200F00C000428104668
:101CE00008BF704751F8040C00F00C00082843F2BC
:101CF0000060C0F26E1021D051F8043C03F00C03D8
:101D00000C2B1CBF00207047D1F800C00B680CF0F2
:101D1000030CC3F303130133BCF1030F08BF0246E6
:101D20000868B2FBF3F20968C0F306205043C1F320
:101D30004161022202EB4101B0FBF1F0704700006B
:101D40002DE9F04182B0002800F0018104460078BE
:101D500041F20006C007C4F2020654D12078800781
:101D600072D42078000700F195802078400700F1B8
:101D7000B3802078800600F10081E069002840D01F
:101D8000B16801F00C010C2940F05881012800F0E5
:101D9000DE80F068216A00F003028A4240F0D780BA
:101DA000626A6FF00F0300F0F00103EB0212914240
:101DB00040F0CD80A16A00F4FE42B2EB012F40F06A
:101DC000C680E16A00F07842B2EBC16F40F0BF809C
:101DD000226B0023CFF6E07303EB025200F4C00144
:101DE0006FF31402914240F0B280616B4FF07E427B
:101DF00002EB016100F0C06001F07E41884240F0DA
:101E0000A6800020D7E1B06800F00C01F068082936
:101E100059D0032281F00C0122EA00000844B0FAF4
:101E200080F040094FD16568B5F5A02F00F0D18052
:101E3000B5F5803F00F0D180306820F4803030600C
:101E4000306820F48020CBE0B068F16800F00C002E
:101E5000042866D001F0030180F00C0081F002013B
:101E60000844B0FA80F040095BD1E168306800298D
:101E700000F0D28040F480703060FFF7A1FB05468F
:101E80003068400500F1EF80FFF79AFB401B022805
:101E9000F6D920E16169D6F89400002900F0878026
:101EA00040F00100C6F89400FFF78AFB054600BF2A
:101EB000D6F8940080073FF558AFFFF781FB401B31
:101EC0000228F5D907E1306880037FF547AF6068E5
:101ED00000287FF443AF3AE0B06D10F0805808D18D
:101EE000B06D40F08050B065B06D00F08050019052
:101EF000019847F20007C4F200073868C0052AD4E9
:101F0000386840F480703860FFF75AFB054600BF20
:101F10003868C0051FD4FFF753FB401B0228F7D9D0
:101F2000D9E03068400501D5E06880B1706821696A
:101F300020F0FE4040EA0160706040F21000C2F202
:101F400000000068FFF760FB00283FF40AAF0120A3
:101F500002B0BDE8F081A568052D00F0A080012D3C
:101F600000F0A380D6F8900020F00100C6F89000A1
:101F7000D6F8900020F004009BE0A169D6F8980004
:101F8000002978D040F00100C6F89800FFF718FB50
:101F9000054600BFD6F8980080073FF5EEAEFFF784
:101FA0000FFB401B02284FF00300F3D903E120F0A0
:101FB0000100C6F89400FFF703FB0546D6F894002D
:101FC00080077FF5D2AEFFF7FBFA401B0228F5D958
:101FD00081E0306840F480203060306840F4803028
:101FE0003060FFF7EDFA002D054611D03068800310
:101FF0003FF5B4AEFFF7E4FA401B6428F6D96AE077
:10200000FFF7DEFA401B64284FF0030000F2D38094
:1020100030688003F4D4A1E620F480703060FFF7CC
:10202000CFFA0546306840057FF59BAEFFF7C8FA4A
:10203000401B02284FF00300F4D9BCE031680228AD
:1020400021F0807131605FD1FFF7BAFA054600BF19
:102050003068800172D5FFF7B3FA401B02284FF0B9
:102060000300F5D9A7E07068216920F0FE4040EA3E
:102070000160706075E620F00100C6F89800FFF777
:102080009FFA0546D6F8980080077FF576AEFFF7F1
:1020900097FA401B02284FF00300F3D98BE0D6F8E3
:1020A000900040F00400C6F89000D6F8900040F090
:1020B0000100C6F89000FFF783FA002D054641F2B3
:1020C000883714D0D6F89000800714D4FFF778FA38
:1020D000401BB842F6D9032002B0BDE8F08100BF32
:1020E000FFF76EFA401BB8424FF0030063D8D6F8F2
:1020F00090008007F4D4B8F1000F7FF43AAEB06DD1
:1021000020F08050B06534E6F0684FF6FF7120F0A3
:102110000300F060F068CFF6EE610840F060FFF772
:102120004FFA0446306880017FF56BAEFFF748FA3E
:10213000001B02284FF00300F4D93CE0F06848F29D
:102140000C01C0F29F1104F1200700EA010C8ECFB0
:102150006FF00F00D4E90C5400EB02100022CFF610
:10216000E07241EA0C0102EB055208436FF31402DE
:102170004FF07E4540EA032005EB0465104305F06F
:102180007E4540EAC7602843F060306840F08070C8
:102190003060F06840F08070F060FFF711FA04469C
:1021A000306880013FF52DAEFFF70AFA001B0228C8
:1021B0004FF00300F4D902B0BDE8F08180B502F021
:1021C000E3FA80BD704700007047000070470000D0
:1021D00070470000704700007047000070B590F82D
:1021E0003C20012A4FF002024AD0012380F83C3003
:1021F00080F83D20026843F2004C54689368C4F2B2
:10220000010C42F6004E6245C4F2010E01D0724547
:1022100003D14D6824F470042C434FF68F75CFF62C
:10222000FF550E682C4042F6FF35C4F201053443D9
:10223000AA4254600FDCB2F1804F16D040F2004643
:10224000C4F20006B24210D040F60006C4F2000606
:10225000B2420AD00EE0724507D044F20006C4F242
:102260000106B24201D0624504D1896823F080039F
:10227000194391600121002280F83D1080F83C2034
:10228000104670BD70470000002804BF0120704751
:1022900010B5044690F83D0028B9002084F83C00B1
:1022A000204600F023F8022084F83D002068211D1C
:1022B00002F022FB012084F8480084F83E0084F8F4
:1022C0003F0084F8400084F8410084F8420084F81C
:1022D000430084F8440084F8450084F8460084F8FC
:1022E000470084F83D00002010BD000010B586B006
:1022F000006841F20001C4F2000188424FF0000181
:102300000591CDE90311CDE9011131D040F2004131
:10231000C4F20001884238D0B0F1804F4BD141F275
:102320005800C4F20200016841F001010160016837
:1023300001F001010091009950F80C1C41F00101DD
:1023400040F80C1C50F80C0C01A900F001000090A2
:10235000009806200190022002900020CDE90300A1
:10236000012005904FF09040FFF74EF81C241AE032
:1023700041F25800C4F202000168362441F0100115
:102380000160006800F010000BE041F25800C4F258
:10239000020001681D2441F002010160006800F0A4
:1023A000020000900098204600210022FFF778F9F3
:1023B0002046FFF771F906B010BD000090F83D10FF
:1023C00001291CBF01207047022180F83D100168DF
:1023D00042F6FF32C868C4F20102914240F00100A7
:1023E000C8600FDCB1F1804F1ED040F20040C4F253
:1023F0000000814218D040F60000C4F20000814283
:1024000012D024E042F60040C4F2010081420BD019
:1024100044F20000C4F20100814205D043F20040C2
:10242000C4F20100814212D188680722C0F2010281
:102430000240062A4FF000000ED0B2F5803F08BFE0
:102440007047086840F00100086000207047086885
:1024500040F00100086000207047000010B50446FD
:1024600090F83C0001284FF0020008BF10BD0B4659
:10247000012184F83C1084F83D002068882281689E
:10248000CFF6CE721140816019686F290DDD1F22D1
:10249000C0F21002914217DCB1F5005F26DA702914
:1024A00040D0B1F5805F5BD03AE02F2918DD4F298D
:1024B00021DC302952D0402932D15968DA6802F043
:1024C000F1FC2068402149E03F22C0F21002914215
:1024D0001CDC2022C0F2100291423FD030221BE0CF
:1024E000E1B310293AD0202938D019E025D0B1F134
:1024F000101F33D014E050292AD0602910D1596818
:10250000DA6802F025FD2068602127E04022C0F251
:102510001002914222D07022C0F2100291421DD0CE
:1025200001201EE0D3E90121DB6802F077FA206880
:10253000816841F07701816012E0D3E90121DB6815
:1025400002F06CFA2068816841F48041816007E004
:102550005968DA6802F0A6FC2068502102F01EFBE0
:102560000020012184F83D10002184F83C1010BDAA
:10257000B0B540F21C24C2F20004A04200D0B0BDAD
:10258000207F02281FD140F20200C2F20000007832
:102590000028F4D040F29015C2F20005287C0328F0
:1025A000EDD8DFE800F00236404E3820C4F20000DB
:1025B000006821682860086A20F0A0000862086AA4
:1025C00040F0200021E00428D9D140F20200C2F2FC
:1025D000000000780028D2D140F2A415C2F2000514
:1025E000287C032888BFB0BDDFE800F002314051ED
:1025F0003820C4F20000406821682860086A20F48E
:1026000020600862086A40F40070086201202874A3
:10261000B0BD3820C4F20000006821686860086A14
:1026200020F0A0001CE03820C4F2000000682168FF
:10263000A860086A20F0A0000862086A40F0200044
:1026400021E03820C4F200000068042124E0382092
:10265000C4F20000406821686860086A20F42060C5
:102660000862086A086202202874B0BD3820C4F2EB
:10267000000040682168A860086A20F420600862B1
:10268000086A40F40070086203202874B0BD382046
:10269000C4F2000040680821E860204600F046F9D6
:1026A00020680021416205202874B0BDB0B5044601
:1026B00090F83C00012804BF0220B0BD0D464FEA4F
:1026C000B2010120032984F83C0037D8DFE801F08B
:1026D000020C16242068D5E90012EB6802F0F4FB26
:1026E000206850F8181F12E02068D5E90012EB6846
:1026F00002F040FC206850F8181F16E02068D5E969
:102700000012EB6802F054FC206850F81C1F21F006
:102710000C010160A9680DE02068D5E90012EB68A2
:1027200002F060FC206850F81C1F21F44061016039
:10273000A96809020268114301600020002184F8A1
:102740003C10B0BD002804BF0120704710B50446FE
:1027500090F83D0028B9002084F83C00204600F0A5
:1027600023F8022084F83D002068211D02F0C4F8FF
:10277000012084F8480084F83E0084F83F0084F883
:10278000400084F8410084F8420084F8430084F853
:10279000440084F8450084F8460084F8470084F833
:1027A0003D00002010BD000070470000B0B5044699
:1027B00059B1081F4FEAB000032809D8DFE800F03C
:1027C000020B0E1104F13F000DE004F13E000AE09F
:1027D00004F1430007E004F1400004E004F141008B
:1027E00001E004F14200007841B1082909D0042930
:1027F00014BF04F1470204F1450204E004F144026D
:1028000001E004F1460201284FF00105127808BFEB
:10281000012A01D02846B0BD61B1081F4FEAB000BF
:1028200003280BD8DFE800F0020E1216022084F80D
:102830003F0012E0022084F83E000EE0022084F8FF
:1028400043000AE0022084F8400006E0022084F8F9
:10285000410002E0022084F84200022041B1082930
:1028600009D0042914BF84F8470084F8450004E027
:1028700084F8440001E084F846004FEAB1000328E0
:102880000AD8236825A252F82020DD682A430025B3
:10289000DA60032803D9BDE701250328BAD82068E8
:1028A000012202F0A9F8206842F6FF31C4F20101CA
:1028B00088420FDCB0F1804F1ED040F20041C4F2DC
:1028C0000001884218D040F60001C4F2000188429D
:1028D00012D01DE042F60041C4F2010188420BD043
:1028E00044F20001C4F20101884205D043F20041E4
:1028F000C4F2010188420BD181680722C0F20102B3
:10290000114006293FF486AFB1F5803F3FF482AF16
:10291000016841F0010101602846B0BD02000000DD
:1029200004000000080000001000000070B50E4612
:102930004FEAB101032904460BD822682DA050F8B4
:102940002100D36800251840D060032904D9284607
:1029500070BD01250329FAD820683146002202F013
:102960004BF8206841F21112016A114204D1016A48
:1029700044F2444211420DD096B1301F4FEAB000EC
:10298000032811D8DFE800F00214181C012084F895
:102990003F0018E0016821F001010160002EECD138
:1029A000012084F83E000EE0012084F843000AE094
:1029B000012084F8400006E0012084F8410002E094
:1029C000012084F8420001203EB1082E09D0042ED7
:1029D0000BD184F84500284670BD84F84400284691
:1029E00070BD84F84600284670BD84F8470028462C
:1029F00070BD00BFFDFFFFFFFBFFFFFFF7FFFFFF05
:102A0000EFFFFFFF10B5044600680169890744BF66
:102A1000C1685FEA817160D420680169490744BFD9
:102A2000C1685FEA417164D420680169090744BF45
:102A3000C1685FEA017169D420680169C90644BFB1
:102A4000C1685FEAC1616DD420680169C9071CBF14
:102A5000C1685FEAC17172D120680169090644BF8B
:102A6000C1685FEA016171D420680169C90544BF8A
:102A7000C1685FEA016170D420680169490644BFFA
:102A8000C1685FEA41616FD420680169890644BF6B
:102A9000C1685FEA81616ED420680169C90244BFE0
:102AA000C1685FEAC1216DD420680169890244BF11
:102AB000C1685FEA81216CD420680169490244BF82
:102AC000C1685FEA41216BD420680169090244BFF3
:102AD000C1685FEA01216AD410BD6FF00201016193
:102AE000012121778069800768D02046FFF740FDEB
:102AF0006AE06FF00401016102212177806910F41E
:102B0000407F64D02046FFF733FD66E06FF0080198
:102B1000016104212177C069800761D02046FFF759
:102B200027FD63E06FF01001016108212177C06982
:102B300010F4407F5DD02046FFF71AFD5FE06FF094
:102B400001010161204600F081FA85E76FF0800104
:102B500001612046FFF738FB86E76FF48071016161
:102B60002046FFF72FFB87E76FF040010161204609
:102B700000F090FA88E76FF0200101612046FFF72E
:102B800025FB89E76FF4801101612046FFF722FBE6
:102B90008AE76FF4001101612046FFF719FB8BE70C
:102BA0006FF4800101612046FFF716FB8CE76FF49C
:102BB000000101612046FFF765FB10BD204600F0D3
:102BC0007DF8204600F040FA0020207724E72046D8
:102BD00000F074F8204600F037FA0020207723E751
:102BE000204600F06BF8204600F02EFA00202077F7
:102BF00022E7204600F062F8204600F025FA002087
:102C0000207721E780B586B0006840F20042C4F228
:102C1000000200219042CDE90411CDE90211019199
:102C200001D006B080BD41F24C00C4F2020002683F
:102C300042F001020260006800F00100009000987C
:102C4000C02001900220CDE90201CDE9041001A9C4
:102C50004FF09040FEF7D8FB06B080BD10B504469B
:102C600090F83C00012804BF022010BD4FEAB202D8
:102C70000120052A84F83C001CD8DFE802F0030795
:102C80000B0F1317206801F095FF12E0206801F088
:102C9000D1FF0EE0206802F015F80AE0206802F08B
:102CA00059F806E0206802F09DF802E0206802F082
:102CB000C9F80020002184F83C1010BD80B540F216
:102CC0006821C2F20001884200D080BD087F02283E
:102CD00014D0012818BF80BD40F2030CC2F2000CD2
:102CE0009CF8002040F23441C4F20001C2B140F22D
:102CF0005810C2F20000436808681AE040F2040C61
:102D0000C2F2000C9CF8002040F23441C4F20001F1
:102D1000BAB140F25810C2F20000C368486819E026
:102D200040F25813C2F20003D3E900E00B68AEEBA7
:102D30000000B2FA82F25209184408608CF80020B0
:102D400080BD40F25813C2F20003D3E902E04B68A1
:102D5000AEEB0000B2FA82F25209184448608CF8D7
:102D6000002080BD002804BF0120704710B5044634
:102D700090F83D0028B9002084F83C00204600F07F
:102D800023F8022084F83D002068211D01F0B4FDE5
:102D9000012084F8480084F83E0084F83F0084F85D
:102DA000400084F8410084F8420084F8430084F82D
:102DB000440084F8450084F8460084F8470084F80D
:102DC0003D00002010BD00007047000070B50546B2
:102DD00059B1081F4FEAB000032809D8DFE800F016
:102DE000020B0E1105F13F000DE005F13E000AE077
:102DF00005F1430007E005F1400004E005F1410062
:102E000001E005F14200007801281CBF012070BDDF
:102E100061B1081F4FEAB00003280BD8DFE800F0CB
:102E2000020E1216022085F83F0012E0022085F8FB
:102E30003E000EE0022085F843000AE0022085F8FB
:102E4000400006E0022085F8410002E0022085F8FB
:102E500042004FEAB10003280AD82B683AA252F880
:102E60002020DE6800243243DA60032803D94BE0D7
:102E70000124032848D828680122012601F0BCFD5E
:102E80002868A0F18041A1F596314FEAB12242F6BF
:102E9000FF31062AC4F2010138D806FA02F212F014
:102EA000650F33D0426C884242F4004242640FDC2A
:102EB000B0F1804F1ED040F20041C4F200018842C0
:102EC00018D040F60001C4F20001884212D034E06C
:102ED00042F60041C4F2010188420BD044F20001E5
:102EE000C4F20101884205D043F20041C4F201015D
:102EF000884222D181680722C0F2010211400629CE
:102F000002D0B1F5803F18D1204670BD8842CFDD98
:102F100043F6FF72C4F20102904202DC42F6004125
:102F2000DEE744F20002C4F201029042E2D044F62D
:102F30000002C4F201029042B4D0016841F00101E4
:102F40000160204670BD00BF0200000004000000C8
:102F5000080000001000000070B54FEAB106032E13
:102F600005460BD82A6834A050F82600D368002400
:102F70001840D060032E04D9204670BD0124032ED2
:102F8000FAD82868002201F037FD2868A0F18041B6
:102F9000A1F596314FEAB121062914D8012202FA8F
:102FA00001F111F0650F0ED0016A41F211121142C8
:102FB0000FD1016A44F2444211420AD1416C21F41A
:102FC0000041416405E044F60001C4F20101884279
:102FD000EAD0016A41F21112114208D1016A44F2A9
:102FE0004442114203D1016821F001010160042E25
:102FF00009D8DFE806F0030D12171C00012085F840
:103000003E00204670BD012085F84300204670BD7B
:10301000012085F83F00204670BD012085F8400062
:10302000204670BD012085F84100204670BD01207A
:1030300085F84200204670BDFDFFFFFFFBFFFFFF4C
:10304000F7FFFFFFEFFFFFFF7047000040F2B421E2
:10305000C2F20001884200D0704740F27E00C2F206
:103060000000018840F29032C2F200020131136880
:10307000018089B20133C829136018BF704740F23C
:103080000202C2F2000213780021018083F00100E5
:10309000107070477047000090F88010012904BF3D
:1030A000022070472421C0F8841002681168136858
:1030B00023F00103136021F00053002141661360E7
:1030C0002022C0F8842080F8801008467047000055
:1030D0007047000070470000B0B5044690F88000CB
:1030E000012804BF0220B0BD012084F88000242004
:1030F000C4F8840020680568026822F001020260BA
:10310000826822F0606211438160204601F088FFEE
:10311000206805602020C4F88400002084F8800026
:10312000B0BD0000B0B5044690F88000012804BF8F
:103130000220B0BD012084F880002420C4F884005F
:1031400020680568026822F001020260826822F0AD
:10315000604211438160204601F062FF20680560F3
:103160002020C4F88400002084F88000B0BD000056
:103170007047000070470000B0B504460068D4F8FE
:103180008410D4F88850806821291AD110F080006A
:1031900017D000BF206850E8020F216820F080009F
:1031A00041E80202002AF5D1A06F38B1FDF798FF7F
:1031B00020B1A06FFEF70AF8202821D0204602F0A7
:1031C000CDF82068222D81684FF0000021D111F048
:1031D000400108BFB0BD00BF206850E8020F216861
:1031E00020F0400041E80202002AF5D1E06F60B112
:1031F000FDF776FF48B1E06FFDF7E8FF202804D126
:103200001020C4F88C000320B0BD204602F064F802
:103210000020B0BD7047000070B503680446D9694E
:1032200040F62F001E68D3F808E0084020280CD193
:1032300006F020000EF08052801806D0216F002981
:1032400000F0AC802046884770BD40F60F00084073
:1032500000F08C800120C1F200000EEA000C40F268
:103260002010C0F20040304010EB0C007ED0C807A8
:1032700018BF16F4807007D001201862D4F88C00B3
:1032800040F00100C4F88C0088070EF0010208D558
:103290003AB102201862D4F88C0040F00400C4F85F
:1032A0008C00480708D53AB104201862D4F88C0085
:1032B00040F00200C4F88C0008070CD506F020008E
:1032C00050EA0C0007D008201862D4F88C0040F0B7
:1032D0000800C4F88C0008050BD516F0806008D0F3
:1032E0004FF400601862D4F88C0040F02000C4F85D
:1032F0008C00D4F88C00002850D011F020001EBFA4
:1033000006F020000EF0805110EB010040F0EA8042
:103310002068D4F88C10806801F0280100F040008B
:10332000401800F0D880204601F0D6FF2068806861
:10333000400640F1C18000BF206850E8020F2168BC
:1033400020F0400041E80202002AF5D1E06F002899
:1033500000F0B28045F2CD11C0F600018163FDF7A7
:10336000F7FED8B1E06F816B884770BDE06E06EA6A
:103370000102D5063DD501283BD11020186298687E
:10338000400642D4B4F85C00B4F85E10B4F85E2095
:10339000002A1CBF401A5FEA004101D170BD00BF86
:1033A000216851E8001F226821F4907142E800135F
:1033B000002BF5D14FF6FE71CEF6FF71226852E870
:1033C000022F23680A4043E80226002EF6D120216E
:1033D000C4F888100021E166216700BF216851E828
:1033E000001F226821F0100142E80013002BF5D1E4
:1033F00050E0C80253D51EF4800050D04FF4801026
:1034000018622046FFF7B6FE70BDE06F00684168A5
:103410008AB2002AC2D0B4F85C309A42BED2A4F874
:103420005E100068800630D4206850E8000F2168E4
:1034300020F4807041E80002002AF5D1206850E8AD
:10344000020F216820F0010041E80202002AF5D1B4
:10345000206850E8020F216820F0400041E8020295
:10346000002AF5D12020C4F888000020E06600BFC3
:10347000206850E8000F216820F0100041E80002A9
:10348000002AF5D1E06FFDF72BFEB4F85C00B4F82C
:103490005E10401A81B22046FFF71AFE70BD080682
:1034A0000ED506F080000EF40003C01808D0616F3E
:1034B00000297FF4C7AE71E72046FFF7ABFE70BD71
:1034C000500616D4080218D516F0804015D02046B4
:1034D000FFF74EFE70BD2046FFF79CFE0020C4F8AB
:1034E0008C0070BD216F00293FF412AF2046884741
:1034F0000EE7204601F01EFF70BDC8017FF54EAFFC
:10350000B6F1FF3FC8BF70BD2046FFF7E3FD70BDB9
:1035100010B5B0B10446D0F8840028B9002084F872
:103520008000204600F026F82420C4F8840020689B
:10353000016821F001010160204601F027FF012808
:1035400001D1012010BDA06A10B1204601F092FD0A
:103550002068416821F490414160816821F02A018E
:103560008160016841F001010160204601F0F6FD33
:1035700010BD000070B598B00446002502A8442193
:103580001795CDE91555CDE91355FDF7D3F820680A
:1035900043F60001C4F20101884201D018B070BDA9
:1035A0000120CDE9020502A8FEF710F9002818BF96
:1035B000FDF7B6FC41F24C00C4F20200416900265E
:1035C00041F480414161416901F4804101910199D7
:1035D000016841F001010160006813A900F00100D9
:1035E000019001984FF4C0601390022014900720BE
:1035F00017904FF09040CDE91566FDF705FF40F2BA
:10360000BC150820C2F20005C4F202001821802275
:10361000202385E843002846C5E90362C5E905661D
:10362000C5E90736FDF72AFE002818BFFDF778FC2C
:10363000252000210022E567AC62FEF731F8252045
:10364000FEF72AF818B070BD80B5D0F88830202B6E
:103650000BD100294FF0010318BF002A01D11846F1
:1036600080BD90F88030012B01D1022080BD012364
:1036700080F880300023C366D0F800C048F2000311
:10368000C4F200039C450FD0DCF804301B020BD5BC
:10369000036853E800CFD0F800E04CF080634EE8B8
:1036A000003CBCF1000FF3D101F0D2FF03461846F5
:1036B00080BD0000704700007047000070470000A8
:1036C000FEE7000080B586B000200590C020019084
:1036D0000120CDE902000220049040F20040C4F62F
:1036E000000001A9FDF790FE06B080BDB0B501F065
:1036F00015F80825002400BF0020013D00F0F4FF6C
:10370000012000F0F1FF00F0FBFF290640EA44042D
:10371000F2D1002000F0E8FF01F020F8E0B2B0BDE7
:1037200080B5002001F00EF8012000F0DDFF002040
:1037300000F0DAFF80BD0000B0B50446082500BFE8
:103740000020013D00F0D0FF04F0800000F0FAFFFF
:103750000120640000F0C8FF2806F1D1002000F02D
:10376000C3FFB0BD80B5012000F0ECFF012000F0E8
:10377000BBFF002000F0B8FF80BD000080B5012035
:1037800000F0E0FF012000F0AFFF002000F0DAFFC2
:10379000002000F0A9FF80BD80B5002000F0A4FF4C
:1037A000002000F0CFFF012000F09EFF012000F07C
:1037B000C9FF80BD10B500F0B1FF012000F094FFFB
:1037C000052400BF00F09CFF40B1013C2004F9D16A
:1037D00000F0C4FFFFF7E0FF012010BD00F0BEFFC6
:1037E0000020002400F080FF204610BDB0B540F25C
:1037F0000044C4F6000420460121FDF7D5FE78B14F
:1038000020460221FDF7D0FE50B120460421FDF7ED
:10381000CBFE28B14FF090400121FDF7C5FEB0B9B5
:10382000204601210125FDF7BFFE88B12046022177
:103830000225FDF7B9FE58B120460421FDF7B4FE7C
:1038400040B14FF090400121FDF7AEFE20B10025C0
:103850002846B0BD0320B0BD0420B0BDB0B540F2D5
:103860008815C2F20005286802F0BEF8002818BFCB
:10387000B0BDFFF7BBFF40F28302C2F2000240F28C
:1038800082011378C2F2000140F28104087023EA39
:103890000001C2F20004217040F2800420EA030318
:1038A000C2F2000423704FF0FF3353FA81F1032971
:1038B000107025D8DFE801F00209121B40F27800F1
:1038C000C2F20000012101701AE040F27800C2F259
:1038D00000000179A1B90121417011E040F27800A6
:1038E000C2F20000017959B90121817008E040F26B
:1038F0007800C2F200000179002904BF0121C170E3
:1039000002F06CF80A302860B0BD000080B586B0C7
:1039100000200590CDE902004FF6FF7001900320D2
:10392000049040F60000C4F6000001A9FDF76CFD0C
:1039300006B080BD80B586B00020059003904FF69C
:10394000FF700190012002900320049040F60000D7
:10395000C4F6000001A9FDF757FD06B080BD0000C8
:10396000B0B504460020002100F066F900F0AAF985
:103970004FF49635204600F077F9013DFAD1B0BDFD
:10398000F0B587B0002541F24C000695CDE904550D
:10399000CDE90255C4F202000168182741F0040184
:1039A00001600168C4F6000701F00401019101996A
:1039B000016802AC41F0010101600168012601F0DB
:1039C000010101910199016841F002010160006863
:1039D000214600F00200019001984FF448700290D7
:1039E00007F57A700595CDE90365FDF70DFD4FF4F8
:1039F0008070CDE902064FF090402146CDE9045594
:103A0000FDF702FDFFF796FF386840F480703860DC
:103A1000D7F8000440F40870C7F8000407B0F0BD00
:103A2000B0B540F24C15C2F2000540F284042A6899
:103A3000C2F2000446F6B64104F12800C0F60001C7
:103A4000FCF7C0FC2A7A46F68E4104F15000C0F61D
:103A50000001FCF7B7FC6A6846F6C74104F178003C
:103A6000C0F60001FCF7AEFC6A7A46F6A24104F10A
:103A7000A000C0F60001FCF7A5FC46F6D840C0F651
:103A8000000090E82E00006904F1B40C8CE82E00D0
:103A9000C4F8C40020460221FDF77EF92046062125
:103AA000FDF77AF940F20600C2F20000018841F405
:103AB00055710180B0BD000080B5203AD3B25B00E3
:103AC00053FA82F245F69623C0F6000303EB021286
:103AD00000F01AF880BD0000F0B581B00A788AB114
:103AE00004464D1C002740F23F1600BFB1B2D2B2CF
:103AF0002046FFF7E1FF122F04D8EA5D103E0137A0
:103B0000002AF3D101B0F0BD2DE9F04714468846F4
:103B1000814600F091F840F2000A40F2B816002702
:103B2000C2F2000AC2F2000600F0CCF8002500BF85
:103B300034F81700E840C007304608BF50460088F8
:103B400000F092F80135102DF2D109F101095FFA68
:103B500089F0414600F070F80137182F08BFBDE822
:103B6000F087E1E710B5FFF70BFF002000F014F835
:103B700040F2BA14C2F200042080208848F23021BA
:103B8000884202D100F024FC01E000F0ADFC0020EE
:103B900000F002F8208010BDB0B540F21844C4F621
:103BA0000004216941F400712161216941F48071AF
:103BB0002161216841F02001216040F61401C4F622
:103BC00000010860206940F02000206100BF00BFB4
:103BD00000BF206840F020002060206840F4807022
:103BE0002060FFF793FE4FF61040CFF6FF7021588C
:103BF00041F48071215000BF00BF4FF6004000BF6C
:103C0000CFF6FF70D4F8F853215841F48071215059
:103C1000FFF790FE206840F40071A8B22160B0BDAB
:103C200081B0ADF80200BDF8020040F20001C2F21E
:103C30000001088001B0704710B50C4601462020F5
:103C400000F070F82120214600F06CF810BD000053
:103C500081B0ADF80200BDF8020040F2B811C2F226
:103C60000001088001B0704740F21841C4F600011D
:103C7000D1F8FC230B6943F400730B610B6843F428
:103C800080730B600B6843F020030B60C1F8FC03EA
:103C9000086940F02000086100BF00BF00BF08684D
:103CA00040F020000860086840F48070086000BFA1
:103CB00000BF00BF086840F40070086090B2C1F80F
:103CC000FC03704740F21840C4F60000D0F8FC1323
:103CD000026989B242F400720261026942F48072A0
:103CE0000261026842F0200202602222C0F8FC2336
:103CF000026942F02002026100BF00BF00BF0268FB
:103D000042F020020260026842F48072026000BF4A
:103D100000BF00BF026842F400720260C0F8FC13EA
:103D20007047000040F21842C4F60002D2F8FCC30B
:103D3000136943F400731361136943F480731361CF
:103D4000136843F020031360C2F8FC03106940F0CD
:103D50002000106100BF00BF00BF106840F02000CD
:103D60001060106840F480701060C2F8FC13106995
:103D700040F02000106100BF00BF00BF106840F09D
:103D800020001060106840F4807010601FFA8CF002
:103D9000C2F8FC0370470000F0B581B040F2840423
:103DA00040F206060025C2F20004C2F20006012716
:103DB00005E000BF01350A2D04F114040ED030884F
:103DC00007FA05F10142F5D08843308005EB450044
:103DD000C000C0B22146FFF77FFEEBE701B0F0BDA7
:103DE00010B540F60044C4F60004A4F580634A1EF2
:103DF0004FEA0021184618BF0122FDF7DBFB2046E1
:103E000004210122FDF7D6FB204604210022FDF704
:103E1000D1FB10BD80B582B041F24800C4F202006F
:103E20000168002241F004010160016801F0040111
:103E300001910199016841F00101016000680021D0
:103E400000F00100009000980B20FDF729FC0B20EA
:103E5000FDF722FC02B080BD2DE9F04F87B00025B0
:103E600041F24C000695CDE90455CDE90255C4F266
:103E70000200016840F2004441F004010160016861
:103E8000C4F6000401F0040101910199016804F5F0
:103E9000806741F0200101600168012201F02001EA
:103EA0000191019901684FF47F4641F040010160A2
:103EB00001684FF0010901F0400101910199016889
:103EC00041F001010160016801F0010101910199D6
:103ED000016841F002010160016801F002010191F5
:103EE0000199016841F00801016000684FF47F41C9
:103EF00000F00800019001983846FDF75BFB04F5DF
:103F000000684046042100224FF0040BFDF752FBED
:103F10002046C0210022FDF74DFBCDE9026902AE2B
:103F200038463146CDE90455FDF76EFA4FF480600E
:103F300002904FF0030A04F5A0503146CDE903A5E5
:103F4000FDF762FAFF20CDE9020A384631460495B2
:103F5000FDF75AFA4FF090403146CDE90295CDF881
:103F60001090FDF751FA49F63810CDE9020A4FF0EA
:103F7000904031460495FDF747FA072002A981E8F1
:103F8000210220463146FDF73FFA4FF63870CDE961
:103F9000020A204631460495FDF736FA404631467E
:103FA000CDE902B9CDE90455FDF72EFAC020CDE9DF
:103FB000020920463146CDE90455FDF725FA07B040
:103FC000BDE8F08F10B58CB040F21C200021C2F289
:103FD00000004FF080424F234FF0FF340B91CDE9AA
:103FE0000911CDE90711CDE90511CDE90311CDE99D
:103FF0000111C0E90023C0E9021401618161FEF7EB
:1040000043F9002818BFFCF78BFF4FF4805008904D
:1040100040F21C20C2F2000008A9FEF71FFA002897
:1040200018BFFCF77DFF40F21C20C2F20000FEF733
:1040300089FB002818BFFCF773FF40F21C20002406
:10404000C2F2000005A905940794FEF7C7F80028FE
:1040500018BFFCF765FF0120CDE9020440F21C20E7
:10406000C2F2000001A9042201940494FEF71EFB91
:10407000002818BFFCF754FF40F21C20C2F20000D9
:1040800001A90822FEF712FB002818BFFCF748FF21
:104090000CB010BD10B58EB040F268200021C2F205
:1040A000000040F200424FF6FF74CDE90C11CDE95B
:1040B0000A11CDE90811CDE90611CDE90411CDE9C8
:1040C0000211CDE90011C4F200024F23C0E902142D
:1040D00001618021C0E900238161FEF7D5F8002845
:1040E00018BFFCF71DFF4FF480500A9040F2682083
:1040F000C2F200000AA9FEF7B1F9002818BFFCF7C8
:104100000FFF40F26820C2F20000FEF72BFE0028ED
:1041100018BFFCF705FF40F268200024C2F200003F
:1041200007A907940994FEF759F8002818BFFCF76F
:10413000F7FE3020CDE9000440F26820C2F2000012
:104140006946002202940494FEF788FD002818BFF7
:10415000FCF7E6FE40F26820C2F200006946042245
:10416000FEF77CFD002818BFFCF7DAFE40F268205D
:10417000C2F20000FEF746FD0EB010BD10B584B0CF
:1041800040F2B42041F200010024C2F20000C4F267
:10419000000140F2E7330394CDE901444F2280E867
:1041A0001600C3608461FEF76FF8002818BFFCF7A3
:1041B000B7FE40F2B420C2F2000001A901940394BA
:1041C000FEF70CF8002818BFFCF7AAFE04B010BDDB
:1041D00010B540F2003043F60001C2F20000C4F214
:1041E000010100230C244FF4165280E80E00C0E9B0
:1041F0000333C0E90543C0E90733C0E90933FFF7DA
:1042000087F9002818BFFCF78BFE40F20030C2F29D
:1042100000000021FEF786FF002818BFFCF780FE93
:1042200040F20030C2F200000021FEF755FF0028E6
:1042300018BFFCF775FE40F20034C2F200042046BD
:10424000FEF72AFF002818BFFCF76AFE20681E222E
:10425000016841F020010160016841F01001016036
:1042600040F26811C2F200012046FFF7EDF910BDDF
:10427000FEE70000FEE7000000F0070080F0070303
:10428000042B28BF04234FF0FF3C03380CFA03F340
:1042900038BF0020994381400CFA00F022EA000068
:1042A0000843704780B586B00021CDE90311019025
:1042B00002200290059001A94FF09040FDF7A4F86C
:1042C00006B080BD80B582B00020ADF806000DF1CB
:1042D000060100200222FCF7D9FDBDF8060040F2DD
:1042E0004C11C2F2000108810520FDF779F802B0F7
:1042F00080BD000044F24022C0F20F02B2FBF0F099
:1043000048F21F524143C5F2EB12A1FB021240F2E8
:104310005811C2F200015209C1E9000240F23441D1
:10432000C4F200010860704744F24022C0F20F025C
:10433000B2FBF0F048F21F524143C5F2EB12A1FB71
:10434000021240F25811C2F200015209C1E9020200
:1043500040F23841C4F200010860704780B582B075
:1043600040F24C10C2F2000000890DF10601ADF8D8
:10437000060000200222FCF7B5FD0520FDF730F80D
:1043800002B080BD7047000041F20C00C4F2020090
:104390000168026842F2004301F00301C2F3031214
:1043A000C0F2F4030132032904BF43F20063C0F2F8
:1043B0006E130168B3FBF2F20068C1F306215143AA
:1043C000C0F34160022202EB4000B1FBF0F0704705
:1043D00080B500200121FFF7A5FC01200021FFF797
:1043E000A1FC102041F29071FFF79CFC60204FF47B
:1043F0001C51FFF797FC61200121FFF793FC462039
:104400000221FFF78FFC132048F21001FFF78AFC0E
:10441000122048F2FE01FFF785FC02204FF4A06154
:10442000FFF780FC032041F23001FFF77BFC3020D6
:1044300040F20331FFF776FC312040F20331FFF701
:1044400071FC322040F20331FFF76CFC33204FF453
:104450004071FFF767FC34200321FFF763FC352030
:1044600040F20331FFF75EFC36201421FFF75AFCBF
:10447000372040F20331FFF755FC382040F203317A
:10448000FFF750FC392040F20331FFF74BFC3A2094
:104490004FF44071FFF746FC3B200321FFF742FC3D
:1044A0003C2040F20331FFF73DFC3D204FF4A0518A
:1044B000FFF738FC92204FF40071FFF733FC932094
:1044C00040F20331FFF72EFC902040F60D01FFF77C
:1044D00029FC032041F21801FFF724FC072040F2D9
:1044E0007311FFF71FFC80BD80B5E32043F2080184
:1044F000FFF718FCE7201221FFF714FCEF2041F230
:104500003121FFF70FFC01200021FFF70BFC0220F7
:104510004FF4E061FFF706FC032041F23001FFF7A2
:1045200001FC04200021FFF7FDFB082040F20721D9
:10453000FFF7F8FB09200021FFF7F4FB0A20002118
:10454000FFF7F0FB0C200021FFF7ECFB0D20002112
:10455000FFF7E8FB0F200021FFF7E4FB102000210C
:10456000FFF7E0FB11200721FFF7DCFB1220002101
:10457000FFF7D8FB13200021FFF7D4FBC820FCF77E
:104580002FFF102041F29061FFF7CCFB112040F289
:104590002721FFF7C7FB3220FCF722FF12201D2145
:1045A000FFF7C0FB3220FCF71BFF13204FF4006124
:1045B000FFF7B8FB29201421FFF7B4FB2B200B21B8
:1045C000FFF7B0FB3220FCF70BFF20200021FFF7A4
:1045D000A9FB21200021FFF7A5FB30200721FFF7D1
:1045E000A1FB312040F20771FFF79CFB322006212E
:1045F000FFF798FB352040F20471FFF793FB36205C
:1046000041F60471FFF78EFB37200421FFF78AFB88
:1046100038200021FFF786FB392040F20671FFF7B2
:1046200081FB3C2040F20171FFF77CFB3D200F2114
:10463000FFF778FB50200021FFF774FB5120EF219A
:10464000FFF770FB52200021FFF76CFB532040F274
:104650003F11FFF767FB60204FF41C51FFF762FB2F
:1046600061200121FFF75EFB6A200021FFF75AFB62
:1046700080200021FFF756FB81200021FFF752FB2D
:1046800082200021FFF74EFB83200021FFF74AFB29
:1046900084200021FFF746FB85200021FFF742FB25
:1046A00090201021FFF73EFB92200021FFF73AFBFC
:1046B00093200321FFF736FB95204FF48871FFF715
:1046C00031FB97200021FFF72DFB98200021FFF7F9
:1046D00029FB032041F21801FFF724FB072040F2D9
:1046E0007311FFF71FFB80BD40F21841C4F60001B3
:1046F000002808BF1031086840F04000086070478B
:1047000080B540F20040C4F600008021FCF74CFF69
:104710000138B0FA80F0400980BD000080B586B055
:10472000002005900290802001900120039002203B
:10473000049040F20040C4F6000001A9FCF764FEBA
:1047400006B080BD40F21841C4F60001002808BF41
:104750001031086840F080000860704780B586B06E
:1047600000200590039080200190112002900220EB
:10477000049040F20040C4F6000001A9FCF744FE9A
:1047800006B080BD70470000B0B501380024B4EB1E
:10479000106F1CBF0120B0BD4EF21005CEF2000517
:1047A00068604FF0FF300F2101F0F6F80720AC6091
:1047B00028602046B0BD000080B5FCF707FF80BD33
:1047C00070B594B006AC20463821FBF7B3FF002546
:1047D0004FF400700595CDE90355CDE90155FCF77F
:1047E00073FF012006904FF48030079002201421BF
:1047F0000D900326CDE91010CDE912002046CDE939
:104800000E66FDF79DFA68B90F20CDE9010601A8F3
:104810000221CDE903550595FDF722F9002804BFD3
:1048200014B070BDFCF77CFB4EF68850CEF2000051
:10483000016841F4700101607047000010B501F09B
:10484000CDF840F288140A30C2F20004206001F072
:10485000C5F86430606010BD10B5FFF783F9002023
:10486000FFF77EF80020FFF7DBF94FF6FF70FFF748
:10487000EFF9FF200021FFF7B3FAFEF723FF40F224
:10488000B420C2F20000FDF799FDFFF7D7FFFFF754
:1048900019FD40F21C24C2F2000420460421FDF759
:1048A00085FF20460821FDF781FF40F26824C2F20F
:1048B000000420460021FEF789FA20460421FEF775
:1048C00085FAFFF7ADF810BD80B540F21C20C2F2AA
:1048D0000000FEF797F880BD80B540F26820C2F274
:1048E0000000FEF78FF880BD80B540F2B420C2F220
:1048F0000000FEF787F880BD80B540F2FF7C0268BB
:10490000C4F2000C604512DD40F60003C4F200035F
:10491000984215D043F20043C4F2010398420FD0ED
:1049200042F60043C4F20103984209D00CE0B0F112
:10493000804F05D040F20043C4F20003984203D1F7
:104940004B6822F070021A4343F2FF33C4F20103B2
:10495000984209DC604516DCB0F1804F28D040F267
:104960000043C4F2000321E044F2FF33C4F2010328
:10497000984211DC43F20043C4F20103984217D07D
:1049800044F2000310E040F60003C4F20003984232
:104990000ED042F6004307E044F60003C4F20103E0
:1049A000984205D044F20043C4F20103984203D177
:1049B000CB6822F440721A434B6922F0800E8A6859
:1049C00043EA0E03D1F800C00360C262A0F1804246
:1049D000A2F596324FEAB222072AC0F828C007D8BB
:1049E000012303FA02F212F0E50F1CBF096901630B
:1049F0000121416180BD000080B501F01F014FF031
:104A0000010CD0F820E00CFA01F32EEA0303036254
:104A1000036A02FA01F11943016280BDD0F808C0AF
:104A200011432CF47F4C41EA032141EA0C018160DF
:104A3000704700002DE9F04381B040F28814C2F2C3
:104A40000004606800F0D0FF10B101B0BDE8F08351
:104A500044F24028C0F20F0800F0C0FF40F2901668
:104A6000C2F200066430317C606040F24C1740F2C4
:104A7000840440F206090529C2F20007C2F20004CC
:104A8000C2F2000940D17068F16844F65952081A20
:104A9000B8FBF0F1C83890424FF04000396003D3C2
:104AA0000021FCF705FB13E0FFF7FCFB40F2682553
:104AB000C2F2000528460021FEF74EFA3868397A1E
:104AC00048433221FFF716FC28460021FEF77EF905
:104AD0003A6846F6B64104F12800C0F60001FBF73B
:104AE00071FC20460221FCF757F9B9F800000421B7
:104AF00040F00400A9F800000020307440F21C20AF
:104B0000C2F20000FDF752FE40F2A416C2F2000607
:104B1000307C052899D178684CF21F3132388842B0
:104B200005D340F2E7300021FFF7FEFB11E040F231
:104B30006825C2F2000528460421FEF70DFA7868C0
:104B4000797A48433221FFF7EFFB28460421FEF72C
:104B50003DF97068F168081AB8FBF0F246F6C741F3
:104B600004F17800C0F600017A60FBF72BFC2046C8
:104B70000621FCF711F9B9F80000082140F04000C7
:104B8000A9F800000020307440F21C20C2F200009E
:104B9000FDF70CFE01B0BDE8F083000082684FF61F
:104BA0008873CFF6CF731A40114341F0070181603B
:104BB00070470000B0B5026AA0F1804422F0010203
:104BC0000262036A4268D0F818C08D68A4F5963472
:104BD000D1F800E023F002034FEAB424072C43EAA3
:104BE00005030AD80125A54015F0E50F1FBFCD68C4
:104BF00023F00C0325F004052B43072C0BD80125CB
:104C000005FA04F414F0E50F1FBF22F44072D1E955
:104C1000054522432A434FF68C74CFF6FE740CEA06
:104C2000040545EA0E0542608561496841630362F7
:104C3000B0BD0000B0B5026A43F2004422F0100299
:104C40000262036AC4F201044268D0F818C0A042AC
:104C50008C68D1F800E023F0200343EA041305D068
:104C600042F60044C4F20104A04207D1CC686FF0C0
:104C7000400523F0C00305EA04142343A0F1804457
:104C8000A4F596344FEAB424072C0DD8012505FA73
:104C900004F414F0E50F1FBF22F44062D1E905458A
:104CA00042EA840242EA850248F6FF44CFF6FF64F6
:104CB0000CEA040545EA0E25426085614968816376
:104CC0000362B0BDB0B5026A43F2004422F48072C0
:104CD0000262036AC4F201044268D0F81CC0A04218
:104CE0008C68D1F800E023F4007343EA042305D074
:104CF00042F60044C4F20104A04207D1CC6840F25D
:104D0000FF45240223F44063AC432343A0F18044D5
:104D1000A4F596344FEAB424072C0DD8012505FAE2
:104D200004F414F0E50F1FBF22F44052D1E9054509
:104D300042EA041242EA05124FF68C74CFF6FE7472
:104D40000CEA040545EA0E054260C5614968C16385
:104D50000362B0BDB0B5026A43F2004422F480524F
:104D60000262036AC4F201044268D0F81CC0A04287
:104D70008C68D1F800E023F4005343EA043305D0F3
:104D800042F60044C4F20104A04207D1CC6844F6C4
:104D9000FF75240323F44043AC432343A0F1804434
:104DA000A4F596344FEAB424072C0DD8012505FA52
:104DB00004F414F0E50F1FBF22F44042D1E9054589
:104DC00042EA841242EA851248F6FF44CFF6FF64B5
:104DD0000CEA040545EA0E254260C5614968016494
:104DE0000362B0BD70B5026AA0F1804522F4803242
:104DF0000262A5F59635D0F820C04268036D0C68B4
:104E0000D1F808E04FEAB525072D0AD8012606FAA1
:104E100005F515F0E50F1EBF4D6922F4803242EA18
:104E200005224FF68F75CFF6FE752B402343426067
:104E300003652CF40036496846EA0E42816402623A
:104E400070BD000070B5026AA0F1804522F48012A6
:104E50000262A5F59635D0F820C04268036D0C6853
:104E6000D1F808E04FEAB525072D0AD8012606FA41
:104E700005F515F0E50F1EBF4D6922F4802242EAC8
:104E8000852248F6FF75CFF6FF652B4043EA0423E1
:104E9000426003652CF40016496846EA0E52C1646C
:104EA000026270BDD0F820C0036A23F001030362E0
:104EB000836923F0F00343EA02122CF00A0319433A
:104EC000826101627047000010B5D0F820C042F640
:104ED000FF342CF0010CC0F820C0D0F818E0D0F856
:104EE00020C0C4F20104A0420FDCB0F1804F1ED0FC
:104EF00040F20044C4F20004A04218D040F600047E
:104F0000C4F20004A04212D01EE042F60044C4F2F3
:104F10000104A0420BD044F20004C4F20104A042F8
:104F200005D043F20044C4F20104A0420CD12EF09B
:104F30000304224363F307122CF00A0301F00A0171
:104F400019448261016210BD4EF00102F2E70000D7
:104F5000036A23F0100303628369D0F820C023F4AE
:104F6000704343EA02322CF0A00343EA011182614C
:104F70000162704710B5D0F820C012022CF0100C5E
:104F8000C0F820C0D0F818C0D0F820E04FF2FF04DD
:104F9000A2432CF4734C63F30F322EF0A00301F004
:104FA0000A0142EA0C0243EA01118261016210BD6A
:104FB00080B5D0F820C063F307122CF4807CC0F8D1
:104FC00020C0D0F81CC0D0F820E02CF0F30C2EF458
:104FD000206301F00A0142EA0C0243EA0121C261A6
:104FE000016280BD10B5D0F820C012022CF4805CA4
:104FF000C0F820C0D0F81CC0D0F820E04FF2FF0469
:10500000A2432CF4734C63F30F322EF4204301F0CF
:105010000A0142EA0C0243EA0131C261016210BD99
:1050200080B5416E01B3016846F67E4C8A68896896
:10503000C0F6000C490F46F6864E1CF80130C0F64B
:10504000000E1EF80110C2F34262DB00B3FBF1F365
:105050001CF802101EF80220C900B1FBF2F1A0F802
:105060006A30A0F8681080BD0121A0F86A10A0F88D
:10507000681080BD80B5816ACA070CD18A0715D433
:105080004A071ED40A0727D4CA0630D48A0639D460
:105090004A0657D541E00268D0F82CC0536823F483
:1050A000003343EA0C0353608A07E9D50268D0F85D
:1050B00030C0536823F4803343EA0C0353604A073B
:1050C000E0D50268D0F834C0536823F4802343EA63
:1050D0000C0353600A07D7D50268D0F838C053686C
:1050E00023F4004343EA0C035360CA06CED502689A
:1050F000D0F83CC0936823F4805343EA0C039360D8
:105100008A06C5D50268D0F840C0936823F40053DE
:1051100043EA0C0393604A0614D50268D0F844C0F1
:105120005368BCF5801F23F4801343EA0C035360DB
:1051300008D1D2F804C0D0F848E02CF4C00343EA08
:105140000E035360090658BF80BD0168C06C4A68F1
:1051500022F400221043486080BD0000B0B582B048
:1051600004460020C4F88C00FCF72AFA21680546A2
:10517000096809070BD56FF07E4C20464FF40011EB
:1051800000222B46CDF800C000F0B6FA78B92068AE
:10519000006840070ED56FF07E4C20464FF480012A
:1051A00000222B46CDF800C000F0A6FA10B1032073
:1051B00002B0B0BD2020C4F88400C4F888000020EC
:1051C000E06684F8800002B0B0BD000080B5806A5F
:1051D0000021A0F85E10A0F85610FEF71BF880BD65
:1051E000B0B5846A2068D4F88410D4F888508068F8
:1051F000212908D110F0800005D00020A4F8560025
:10520000204600F0ABF82068222D806808D110F00D
:10521000400005D00020A4F85E00204600F05CF8B5
:10522000D4F88C0040F01000C4F88C002046FDF744
:10523000F1FFB0BD80B50168806A0968890631D484
:105240000021A0F85E1000BF016851E8001F02684D
:1052500021F4807142E80013002BF5D1016851E878
:10526000021F026821F0010142E80213002BF5D170
:10527000016851E8021F026821F0400142E8021370
:10528000002BF5D12021C0F88810C16E012909D169
:10529000016851E8001F026821F0100142E8001384
:1052A000002BF5D1C16E012904D1B0F85C10FDF7D7
:1052B0000FFF80BDFEF7FEF980BD000080B5806A5B
:1052C000C16E012905D1B0F85C104908FDF700FF57
:1052D00080BDFEF7F1F980BD016851E8001F02684A
:1052E00021F4907142E80013002BF5D14FF6FE7CBB
:1052F000CEF6FF7C026852E8022F036802EA0C0235
:1053000043E802210029F5D1C16E01290AD100BF6D
:10531000016851E8001F026821F0100142E8001303
:10532000002BF5D12021C0F888100021C16601674B
:105330007047000080B500BF016851E8001F026897
:1053400021F0400142E80013002BF5D12021C0F8E4
:10535000841000214167FEF7B1F980BD016851E872
:10536000001F026821F0C00142E80013002BF5D1B4
:10537000016851E8021F026821F4000142E80213AB
:10538000002BF5D12021C0F884107047F0B581B012
:1053900004462269D4E90213006867690A43E16997
:1053A0003A43076846F6F316CCF6FF760A433740D1
:1053B0003A43026042684FF2FF4622F440521A43D9
:1053C000426048F20002A369C4F2000290421CBF8E
:1053D000276A3B438768C1F2FF1637403B4383602F
:1053E000C36A676A23F00F033B43C36244F6FF338B
:1053F000C4F2000398424FF0100314DD44F6004756
:10540000C4F20007B84221D0904226D043F60007EC
:10541000C4F20107B84232D141F28803C4F2020358
:105420001B6887A727E044F20047C4F20007B84290
:105430001AD044F60007C4F20007B8421FD141F267
:105440008803C4F202031B681B0913E041F28803BE
:10545000C4F202031B689B090CE041F28803C4F20A
:1054600002031B689B0A05E041F28803C4F20203B1
:105470001B689B086EA703F0030357F82330904284
:1054800042F20040C0F2F40011D0B1F5004F1DD13E
:10549000082B00F26F800025DFE803F00568766CCA
:1054A0006F6C6C6C73000025FCF7E4FB6CE0082B60
:1054B0001BD80027DFE803F0051920191D19191959
:1054C00051000027FCF7D6FBB8B94BE0082B00F2DF
:1054D00081800025DFE803F0057A887E817E7E7E6C
:1054E00085000025FCF7C6FB7EE00020012720B9DF
:1054F00038E00027FCF7E6FBA0B3616A46F6664297
:10550000C0F6000232F811206668B0FBF2F106EB3B
:10551000460399424FF00105C0F080803303994261
:105520007CD800210023FAF7D5FE090241EA106178
:10553000000210EB560041F1000132460023FAF759
:10554000C9FE4FF6FF42A0F54071C0F20F02914232
:105550000AD821683D46C86060E04FF4004000274B
:105560000028CAD13D4659E0012557E00025FCF747
:1055700095FB09E00020012506E00025FCF7A2FBD1
:1055800002E04FF400400025002847D0616A46F64B
:105590006642C0F6000232F811106268B0FBF1F00A
:1055A000510801EB4000B0FBF2F04FF6EF72A0F1B2
:1055B0001001914208D84FF6F0710140C0F342004B
:1055C00022680844D06029E0012527E00025FCF787
:1055D00065FB09E00020012506E00025FCF772FBD1
:1055E00002E04FF400400025C0B1616A46F6664211
:1055F000C0F6000232F811106268B0FBF1F000EB67
:105600005200B0FBF2F04FF6EF72A0F110019142A0
:1056100003D8216880B2C86000E001254FF0011076
:105620000021A06621672846616701B0F0BD00BF78
:10563000000000000400000002000000080000005C
:10564000010000000400000002000000080000004B
:10565000B0B5002504468165A0F85C20C0F88C50E8
:105660002220C4F88800E06F134608B30A4645F2CA
:105670003521C0F6000145F2BD2C45F2E11E00F1D6
:105680002C07C0F6000CC0F6000E87E80250216817
:1056900085632431FBF75EFE50B11020C4F88C0006
:1056A000002084F880002020C4F888000120B0BDCC
:1056B000206984F8805048B1206850E8000F2168C4
:1056C00040F4807041E80002002AF5D1206850E8DB
:1056D000020F216840F0010041E80202002AF5D1E2
:1056E000206850E8020F216840F0400041E80202C3
:1056F000002AF5D10020B0BD2DE9F04381B0044669
:105700000068C0690840401AB0FA80F04009904231
:1057100064D1DDF8208015460E46994608F1010750
:1057200009E000BF2068C0693040801BB0FA80F0FB
:105730004009A84252D1002FF4D0FBF741FFB8F145
:10574000000F2BD0A0EB0900404527D82068016846
:10575000490744BFC1695FEA0151E3D54FF40061D5
:10576000016200BF206850E8000F216820F4D0706B
:1057700041E80002002AF5D1206850E8020F2168B4
:1057800020F0010041E80202002AF5D12020C4F8EF
:105790008400C4F88800C4F88C0018E0206850E841
:1057A000000F216820F4D07041E80002002AF5D1F2
:1057B000206850E8020F216820F0010041E8020251
:1057C000002AF5D12020C4F88400C4F88800002005
:1057D00084F88000032001B0BDE8F083002001B010
:1057E000BDE8F08380B540F20030C2F200000068EE
:1057F000C169C9061AD51021016240F20030C2F217
:105800000000FDF7B9FC40F2BC10C2F200000068D5
:1058100040F286114068C2F20001C0F11E0008701B
:1058200040F28710C2F200000121017040F2003006
:10583000C2F20000FDF7F0FC80BD000080B58AB028
:1058400040F28710C2F200000178002975D040F2C2
:105850007801C2F2000109790022002902706CD09F
:1058600040F28610C2F200000078002865D00DF1E9
:10587000230007A909AA0DF12503CDE9021040F282
:1058800068100DF1180CCDE90032C2F2000031A110
:105890000DF127020DF12603CDF810C0FAF716FE20
:1058A0009DF82700532848D19DF82600452844D16B
:1058B0009DF82500542840D19DF824003A283CD179
:1058C0009DF823003A2838D10799481E012834D87A
:1058D0000698821E082A30D8012912D140F24C11B4
:1058E000C2F200010872C2B240F28400C2F20000AB
:1058F00046F68E415030C0F60001FAF763FD1020E5
:1059000012E040F24C11C2F200014872C2B240F201
:105910008400C2F2000046F6A241A030C0F60001A9
:10592000FAF750FD4FF4807040F20601C2F2000118
:105930000A8810430880FEF711FD40F2003040F263
:105940006811C2F20000C2F200011E22FDF77CFEC7
:105950000AB080BD2563256325632563256425631F
:1059600025640000FEE70000002848BF704700F0F3
:105970001F01012202FA01F14EF200124009CEF29B
:10598000000242F8201070474EF60C50CEF2000094
:105990000068C0F3022070474EF6145300F00F0267
:1059A000CEF2000309011A4400F16043B0F1FF3F59
:1059B000C8BF03F564421170704700004EF60C51E9
:1059C000CEF200010A684FF6FF031A4060F30A2284
:1059D00042F0806040F0FD700860704740F2903007
:1059E000C2F200000068704710B50446FFF7F6FFEA
:1059F0000021A04238BF611E084610BDFBF7F4FD30
:105A0000FEF7DEFEFEF728FAFEF704FAFEF7DAFAF2
:105A1000FEF740FBFEF7DCFBFEF7B0FBFEF71CFFDA
:105A2000FDF71CFFFEF7B8F9FFF708FFFBF77EFA5A
:105A3000FFF700F8F4E7000010B500290AD0087855
:105A4000002807D005487844FBF766F9002801D004
:105A5000002010BD0248784410BD0000DA1200009A
:105A6000D2120000F1EE100A4FF6FF71C0F2C03101
:105A700020EA010040F04070E1EE100A704700009B
:105A800000000000000001020304060708090000EE
:105A900000000102030400000000000000000000FC
:105AA00000000000000000000000000000000000F6
:105AB00000000000000000000000000000000000E6
:105AC00000000000000000008001800180018001D2
:105AD00080018001800180018001800180018001BE
