:020000040800F2
:100000004009002099020008EB42000893380008DC
:10001000E9420008D5150008AD4B000800000000BB
:10002000000000000000000000000000BB460008C7
:100030008716000800000000A5430008BD46000820
:10004000B3020008B3020008B3020008B3020008BC
:10005000B3020008B3020008B3020008B3020008AC
:10006000B3020008B3020008B3020008D915000863
:10007000B3020008B3020008B3020008B30200088C
:10008000B302000800000000B3020008B302000839
:10009000B3020008B3020008B3020008B30200086C
:1000A000B3020008B3020008B3020008B30200085C
:1000B000B3020008B3020008B3020008B30200084C
:1000C000B3020008B3020008B3020008B30200083C
:1000D000B3020008B3020008B3020008B30200082C
:1000E000B3020008B3020008B3020008B30200081C
:1000F000B3020008B3020008B302000800000000C9
:1001000000000000B302000800000000B302000875
:10011000B302000800000000A9470008B30200086D
:10012000B3020008B3020008B3020008B3020008DB
:10013000B30200080000000000000000B302000845
:10014000B3020008B3020008000000000000000035
:10015000000000000000000000000000000000009F
:10016000000000000000000000000000B3020008D2
:10017000B3020008000000000000000000000000C2
:1001800000000000B30200080000000000000000B2
:10019000000000000000000000000000000000005F
:1001A0000000000000000000B3020008B3020008D5
:1001B000B3020008B3020008B30200080000000008
:1001C00000000000B3020008000000000000000072
:1001D000B3020008B302000800F002F800F04CF887
:1001E0000AA090E8000C82448344AAF10107DA4592
:1001F00001D100F041F8AFF2090EBAE80F0013F098
:10020000010F18BFFB1A43F001031847D45D00002B
:10021000F45D0000103A24BF78C878C1FAD85207BC
:1002200024BF30C830C144BF04680C607047000070
:100230000023002400250026103A28BF78C1FBD8EF
:10024000520728BF30C148BF0B607047662904F0D1
:100250008B85642900F05480002070471FB504F09E
:100260007EFD00F0C1FB04000020002104F0EAFC48
:10027000E0601FBD10B510BD00F0B6FC1146FFF7E1
:10028000EDFF04F0C3FC00F0D4FC03B4FFF7F2FF71
:1002900003BC00F017FD00000948804709480047EB
:1002A000FEE7FEE7FEE7FEE7FEE7FEE7FEE7FEE726
:1002B000FEE7FEE704480549054A064B7047000083
:1002C00029470008D9010008400300204009002008
:1002D00040050020400500200FB41CB5074B06AABE
:1002E0007B4469460090059800F065FB0020694654
:1002F00000F074FB1CBC5DF814FB0000F906000064
:100300002DE9F0410646002410687529314616A5EE
:1003100010D0AFF30080002802DA404213A507E0B6
:1003200031688A0701D512A502E0490704D511A555
:10033000012401E0AFF3008000210A2206F1240726
:1003400009E0B0FBF2FCB0FBF2F302FB1C00303022
:1003500078541846491C0028F3D123462A463046D3
:10036000BDE8F04100F0B9B8000000002D00000029
:100370002B000000200000002DE9F0474FF0000A9C
:1003800089460446C0F820A02046E1688847002836
:1003900076D0252806D0D4E901219047206A401C58
:1003A0002062F1E7E168204600258847C4F81CA0D8
:1003B00006460027C4F818A02A2E09D0304604F0BB
:1003C0001EFC38B304EB8708303EC8F8186019E00B
:1003D00059F8041B204604EB87029161E1688847C5
:1003E000012F064618D1E069002820DA25F0200503
:1003F0001DE0D8F8180000EB800006EB4000303814
:10040000C8F818002046E1688847064604F0F7FB64
:100410000028EED1012F0AD02E2E08D12046E16807
:1004200088477F1C0646022F45F02005C4DBA069E3
:10043000002803DA404245F00105A061E80701D039
:1004400025F01005B6B1A6F14100192802D82036D2
:1004500045F400654A463146204625604D46FFF783
:10046000F5FE58B1012806D0ED1D25F0070000F17A
:10047000080989E704E005F1040985E730468AE7C1
:10048000206ABDE8F0874FF0000200B5134694469D
:100490009646203922BFA0E80C50A0E80C50B1F1DC
:1004A0002001BFF4F7AF090728BFA0E80C5048BFF0
:1004B0000CC05DF804EB890028BF40F8042B08BF8E
:1004C000704748BF20F8022B11F0804F18BF00F88A
:1004D000012B70477047704770472DE9F0470D4674
:1004E00099469246044600F124080168880604D51E
:1004F000E06921F01001216000E00120A84201DD47
:10050000471B00E00027A1697A1902EB0900081ACD
:10051000A0612078C00602D42046AFF300800026F8
:1005200008E0D4E901211AF806009047206A401C2F
:10053000761C20624E45F4DB2078C0060AD52046A2
:10054000AFF3008006E0D4E9012130209047206A13
:10055000401C2062381EA7F10107F4DC07E0D4E953
:10056000012118F805009047206A401C2062281ECF
:10057000A5F10105F3DC2046AFF3008020780006EA
:1005800002D50220BDE8F0870120FBE770472DE986
:10059000FF4F0C461E464FF0FF378BB0D2E90001EB
:1005A000DDF860800A908A46C1F30A5505B93D46D8
:1005B000002108464FF00000BAF1000F00F440009F
:1005C00005DA00EB80004FF4400101EA50004FEAE9
:1005D0009059B9F1010F00DDB9460A9850EA4A0076
:1005E0000ED044F61050A5F2FF3545432F14B8F154
:1005F000000F1ED07542291E1EDDC9F100021CE04D
:10060000B8F1010F4FF0000001D0302103E0F243B8
:1006100005E02154401CB042FBDB304600220021A3
:1006200021540B99C1F80880C1E900200FB0BDE842
:10063000F08FBD1B6D1CDEE74A4600DA694206A852
:1006400000F05CFA06AB93E8070003AB83E8070011
:1006500050460A9900F03DFB8DE80700A0F50050D8
:100660001F3800900398002D0ADD42F21F014A4610
:100670000844002303A90390684600F0A6FD09E0A2
:10068000A0F500504A461F38002303A9039068468E
:1006900000F0B0FD8DE807000004000C03D04FF01F
:1006A000FF30410800E01046B8F1000F03D00022EF
:1006B000009215461EE0751E05D400F099F93032FF
:1006C00062556D1EF9D5B3460122084302D00022BF
:1006D0007F1C04E02078302801D100227F1E002AF0
:1006E000099784D01DE0112D07DA00F081F930322E
:1006F00062556D1C50EA0102F5D1084302D0009802
:10070000C8B10EE00021681E05E0235C625C635402
:100710002254401E491C8142F7DBAB46A81B401EF9
:100720000990002004F80B000B98099AC0F8088083
:10073000C0E9002B7AE711264FF0000857E72DE9B2
:10074000F04F88460446D21D22F0070191B0D1E94E
:100750000001CDE90A0104F02AFA02460B98C00F05
:1007600001D02D2007E02068810701D52B2002E071
:10077000202101EAC000032A099001D0072A05DBE5
:1007800003464146204600F079F90BE120788006C7
:1007900001D5E06900E00620B8F1650F814606D07A
:1007A000B8F1660F18D0B8F1670F70D131E00020B2
:1007B000B9F1110F009001DB112301E009F10103F0
:1007C0000AAA01A90CA8FFF7E2FEDDE90C700026D9
:1007D00009F10105834647E001204B4600904FF0A8
:1007E00000470AAA01A90CA8FFF7D1FEDDE90DB068
:1007F0000C995D46002610B909F101000D18B9EBFE
:10080000050003D4C0F1FF3609F10105A5EB09008D
:100810002BE0B9F1010F01DA4FF001090020B9F125
:10082000110F0090484601DD112300E003460AAA9B
:1008300001A90CA8FFF7ABFEDDE90C704D460026C0
:100840008346207800070AD4AB4500DA5D4601A84C
:10085000012D04DD411911F8011C302907D04F4545
:1008600002DA17F1040F04DA012082460FE06D1E50
:10087000EEE7002F02DCED1B3E4403E0781CA842AB
:1008800000DD7D1CB81B00F1010A4FF00047207805
:10089000000703D4AA4501DB4FF0FF3A0021B7F16E
:1008A000004F0DF143088DF8431024D002202B2374
:1008B000002F01DA7F422D230A21021EA0F1010040
:1008C00000DC5FB197FBF1FC97FBF1F201FB1C7CB4
:1008D00017460CF1300C08F801CDEEE7A8F1010045
:1008E00003702188090501D5452100E06521A0F1AB
:1008F000010800F8011C09980FA9A1EB0807FF1DCA
:1009000000B10120411901EBEA70A1693844081ACD
:10091000401EA0612078C00602D42046AFF30080BC
:10092000099828B1D4E901219047206A401C20622F
:100930002078C00622D52046AFF300801EE0002EAE
:1009400004DBB34502DD01A8805D00E03020D4E97E
:1009500001219047206A401C2062761CAAF1010008
:100960005FEA000A0AD100F03FF8C0680168405C05
:10097000D4E901219047206A401C2062281EA5F17D
:100980000105DCDC07E0D4E9012118F8010B9047F0
:10099000206A401C2062381EA7F10107F3DC2046C4
:1009A000AFF30080032011B041E6000001694A1C4A
:1009B00002610878704700B58FB0CDE901310021A0
:1009C000059105497944CDE9031011466846FFF7C2
:1009D000D3FC0FB000BD0000E5FFFFFF0A6802F87E
:1009E000010B0A60704700000048704700030020B8
:1009F00030B5B0F10A024FEA900E71F100034EEAF1
:100A0000817EB0EB0E0061EB91014FEA101E4EEAC1
:100A1000017E10EB0E0041EB11114FEA102E4EEA51
:100A2000016E10EB0E0041EB11214FEA104E4EEA21
:100A3000014E10EB0E0041EB1141401841F1000155
:100A40004FEAD00040EA41704FEAD10110EB800537
:100A50004FEA810444EA907444EB01046D1944EBBD
:100A60000404521BA3414FF0000348BF0A3200D5D3
:100A700030BD401C41F1000130BD00002DE9F041C6
:100A80001F46044603260168072A01F4006004DBC0
:100A900008B116A505E016A503E008B115A500E00C
:100AA00015A521F010002060A069C01EA0610FB143
:100AB000401EA0612046AFF300804FB1D4E9012170
:100AC00038469047206A401C2062C01C206206E025
:100AD000206AFAE7D4E9012115F8010B9047761E48
:100AE000F8D22046AFF30080BDE8F0814E414E00C1
:100AF0006E616E00494E4600696E66002DE9F04752
:100B0000814616468AB0354878440DC88DE80D00F8
:100B100032487844801C03AC0DC884E80D0041F6CF
:100B20009B300844372190FBF1F290FBF1F5A5F1E1
:100B3000800501FB12041B3C02D56442012000E049
:100B40000020DFF898A080460027FA44AAF1BE0AE8
:100B50000EE0E0070AD03246684607EB4701012362
:100B60000AEB810100F046FB8DE8070064107F1C52
:100B7000002CEED1194F7F44AE3F19E0E80715D0A5
:100B800007EB04100DF1180A90E80E008AE80E0039
:100B9000C068F04201D1981908903246012306A995
:100BA00003A800F027FB03AB83E807006D10641C6B
:100BB000002DE3D14FF0010332466946B8F1000F32
:100BC00003A802D000F001FB01E000F013FBC9E92B
:100BD0000001C9F808200AB0BDE8F087BC54000045
:100BE00000487047E00200207546FFF7F9FFAE4667
:100BF00005006946534620F00700854618B020B529
:100C0000FFF758FBBDE820404FF000064FF000070B
:100C10004FF000084FF0000B21F00701AC46ACE8A4
:100C2000C009ACE8C009ACE8C009ACE8C0098D4611
:100C3000704710B50446AFF300802046BDE8104071
:100C4000FFF723BB4FF0013C50F8042B51F8043B55
:100C50009A4221D1A2EB0C03934313EACC1317D190
:100C600050F8042B51F8043B9A4215D1A2EB0C0327
:100C7000934313EACC130BD150F8042B51F8043BE7
:100C80009A4209D1A2EB0C03934313EACC13DBD0B5
:100C90004FF00000704700BFD01A01BAB1FA81F1DD
:100CA00001F0180122FA01F0CB40C1F12001DBB2C2
:100CB000C0B2C01A2CFA01F3D11A914311EAC31140
:100CC000E6D1704701491820ABBEFEE726000200BE
:100CD00070475FEA400C08BF91F0000F4FEA8C2389
:100CE0004FEAC12243EA51514FEA1C5018BF00F5A8
:100CF000F0404FEA300018BF41F000415FEA6C5C01
:100D000000F02980BCF1FF3F08BF40F080407047F1
:100D1000130C06BF12044FF0100C4FF0000C130E12
:100D200004BF12020CF1080C130F04BF12010CF1E6
:100D3000040C930F04BF92000CF1020CD30F04BFFC
:100D400052000CF1010C11464FF00002A0F11F00FF
:100D5000A0EB0C00704711F0004F08BF704731F056
:100D600000413FF4D5AF0B0C06BF09044FF0100C47
:100D70004FF0000C0B0E04BF09020CF1080C0B0F16
:100D800004BF09010CF1040C8B0F04BF89000CF1A6
:100D9000020CCB0F04BF49000CF1010CCCF1200375
:100DA000A0EB0C0022FA03F302FA0CF241EA030171
:100DB00000F10100704720F07F4C80EA030023F02F
:100DC0007F47ACEB070303F57C5300F0004003F1D1
:100DD000FF032DE980494FEA154B09B44FEA14434C
:100DE00025EA0B4E24EA03480FF2042606EB1327EC
:100DF00049083E785FEA320203FB0667C7F5000741
:100E000007FB06F64FEA54374FEAD64606F10206CC
:100E100007FB066CCCF1005C4FEA1C472CEA074C40
:100E200007FB06F40CFB06F504EB15464FEA961695
:100E300034BF00204FF000404FEAD13706FB07FCDB
:100E40004FEA1C4C0CFB0BF7D21B03FB0CF761EBBE
:100E500007010CFB0EF7B0EB074072EB17420CFBDF
:100E600008F734BFA2EB0742B2EB074261EB174130
:100E70004FEA0C444FEA910706FB07FC4FEA1C4C73
:100E80000CFB0BF7B0EBC74072EB573203FB0CF7D0
:100E900034BFA2EBC742B2EBC74261EB57310CFB48
:100EA0000EF7B0EBC70072EB57720CFB08F734BFBC
:100EB000A2EBC702B2EBC70261EB5771039F4FEA87
:100EC000816141EA921104EBCC044FEAD1374FEA39
:100ED000826206FB07FC42EA90124FEA80604FEA0A
:100EE0001C4C0CFB0BF7D21B03FB0CF761EB07014F
:100EF0000CFB0EF7B0EB074072EB17420CFB08F748
:100F000034BFA2EB0742B2EB074261EB17414FEA55
:100F10008C554FEA910704EB9C2406FB07FC4FEA33
:100F20001C4C0CFB0BF7B0EBC74072EB573203FBCA
:100F30000CF734BFA2EBC742B2EBC74261EB5731AB
:100F40000CFB0EF7B0EBC70072EB57720CFB08F707
:100F500034BFA2EBC702B2EBC70261EB577115EBCE
:100F60004C254FEA816141EA92114FEA82624FEAD1
:100F7000D13742EA901206FB07FC44F100044FEA25
:100F800080604FEA1C4C0CFB0BF7D21B03FB0CF7E9
:100F900061EB07010CFB0EF7B0EB074072EB174259
:100FA0000CFB08F734BFA2EB0742B2EB074261EB40
:100FB000174115EB1C154FEA813141EA92414FEA86
:100FC000823242EA90424FEA80304FEA0C7644F196
:100FD000000448EA03434EEA0B484FF0000EB2EB20
:100FE000080C71EB030724BF624639464EEB0E0E28
:100FF0004FF0000B0018524149414BEB0B0BB2EB89
:10100000080C71EB03077BF1000B24BF62463946E5
:101010004EEB0E0E4FF0000B0018524149414BEBC6
:101020000B0BB2EB080C71EB03077BF1000B24BF39
:10103000624639464EEB0E0E51EA020718BF46F0E3
:10104000010616EB0E7655F1000254F1000103D5AE
:10105000BDE88901BDE80088BDE88901BDE8004818
:10106000B619524141EB0101A3F1010370478080A1
:101070007F7E7D7C7B7A79787776767574737271F2
:1010800071706F6E6E6D6C6C6B6A6A6968686766AA
:1010900066656464636362616160605F5F5E5E5D3C
:1010A0005D5C5C5B5B5A5A595958585757565655B0
:1010B00055555454535352525251515050504F4F12
:1010C0004F4E4E4D4D4D4C4C4C4B4B4B4A4A4A4962
:1010D00049494848484747474746464645454544A5
:1010E0004444444343434342424242414141002B32
:1010F0009C4630D477002BD01CB54FEA370703B499
:101100004FF010004FF01001BAF1000F06D0BCF103
:10111000000FDCBF40F0080040F008014FF0000075
:101120000FBCBDE810400BF1010BBBF1010F08BF74
:101130005FEA170722BF12F1010211F101014FF01E
:10114000004143F1000300F0004043EA0000704713
:10115000F9D35708D0E746EA064613F1400F4FEAA5
:1011600016461FDD13F1200FDFBF16430A4600218C
:1011700020335B42BED0C3F1200746EA064602FA9E
:1011800007F74FEA164646EA0706C3F1200722FA98
:1011900003F201FA07F721FA03F14FF0000342EAE4
:1011A0000702A7E746EA020646EA06464FEA16465F
:1011B00046EA0106BCBF46EA0646360C4FF000037D
:1011C0004FF000024FF0000194E72DE9804C9A4661
:1011D000934670B491E8380007C831EA400C48BF24
:1011E00034EA430C03D5FFF7E6FDFFF780FFF0BCC0
:1011F000BDE8008C2DE9804C9A46934670B491E886
:10120000380007C810F0804F08BF13F0804F03D19B
:1012100000F005F8FFF76BFFF0BCBDE8008C20F094
:101220007F4780EA030023F07F4C07EB0C03A3F514
:101230007C5300F00040A3F1FE0392F0000F00F099
:10124000B38095F0000F00F077802DE901494FEA57
:1012500011404FEA144621EA004800FB06FC24EA4C
:10126000064708FB06F607FB08F800FB07F718EB34
:1012700006484CEB164C4FEA124B18EB07484FEA66
:1012800015464CEB174022EA0B4E0BFB06FC25EAF9
:1012900006470EFB06F607FB0EFE0BFB07F71EEBE1
:1012A000064E4CEB164C4FF000061EEB074E4CEB77
:1012B000174B18EB0B0840F1000018EB0E0B58EB26
:1012C000000840F100008F1A4FF000013CBFC943F5
:1012D000661B14BFB5EB040C00213CBFC943F61BD1
:1012E0004FEA17444EEA8E0E27EA04454FEA1C47A0
:1012F00004FB07622CEA074C05FB07F70CFB05F61D
:1013000004FB0CFC16EB074642EB174216EB0C46AF
:1013100042EB1C421BEB060658EB0202414146EA37
:101320009E0601D5BDE80189B619524141EB010184
:10133000A3F10103BDE801894FEA14454FEA1147C3
:1013400024EA054621EA074C05FB07F406FB07F7EC
:101350000CFB06F105FB0CFC11EB074144EB1744B9
:101360004FEA124711EB0C4144EB1C4422EA074CB4
:1013700005FB07F206FB07F70CFB06F605FB0CFC6A
:1013800016EB074642EB174216EB0C4642EB1C45A8
:101390006A1854F1000148BF7047B619524141EB39
:1013A0000101A3F10103704795F0000F37D04FEA18
:1013B00011424FEA144721EA024624EA074C02FB95
:1013C00007F106FB07F70CFB06F402FB0CFC14EB21
:1013D000074441EB17414FEA154714EB0C4441EB2E
:1013E0001C4125EA074C02FB07F506FB07F70CFB3F
:1013F00006F602FB0CFC16EB074645EB174516EB11
:101400000C4645EB1C42121951F1000148BF7047D0
:10141000B619524141EB0101A3F1010370474FEAB4
:1014200014454FEA114724EA054621EA074C05FB1B
:1014300007F106FB07F70CFB06F24FF0000605FB71
:101440000CFC12EB074241EB174112EB0C4251EB43
:101450001C4148BF7047921841EB0101A3F1010301
:10146000704710B5846AE16D11F0500F06D0E16D40
:10147000C90625D5204600F073FC10BDE06D40F490
:101480000070E06520680168090716D502F046FD86
:1014900078B12068C068800400280ADBE06D20F481
:1014A0008070E065E06DC00403D4E06D40F00100A1
:1014B000E065204600F052FC10BDC0688007EBE7F5
:1014C000616D496BBDE81040084710B5806AC16D79
:1014D00041F04001C165016E41F00401016600F078
:1014E0003FFC10BD10B5806A00F039FC10BD000053
:1014F00070B50446006881688268C1F3400112F04B
:10150000010F28D039BB816801F00D01012914D1E8
:101510008168124A1140891C81602168032008609B
:1015200001F03AF8054612E001F036F8401B0228B7
:101530000DD920688068C00709D0E06D40F0100028
:10154000E065206E40F001002066012070BD20683B
:101550008068C007E8D1002070BD0000C0FFFF7F99
:1015600070B504460068816811F0010F2DD18168C3
:10157000174A11421AD18168D5432940491C81601C
:1015800001F00AF806461BE0816811F0010F03D153
:1015900081682940491C816000F0FEFF801B022801
:1015A0000ED920680068C043C00709D0E06D40F044
:1015B0001000E065206E40F001002066012070BD43
:1015C00020680168C943C907DED1002070BD000052
:1015D0003F000080FEE70000014800F091BD0000E0
:1015E000740100200D4902688A4201D20C4901E0D1
:1015F0000B492031D2B21423083AB2FBF3F2436C08
:1016000002F01F0223F0030319448164044980316E
:10161000C164012191400165704700000804024047
:10162000000802400179074A02EB81024265054A3F
:101630004432491E826501F01F0201219140C165BB
:1016400070470000FC08024030B5D0E913456560E2
:10165000446D14B1D0E91645656090F8444004F03B
:101660001F050124AC40056C6C60046863608368EE
:10167000102B036803D099600068C26030BD9A6087
:101680000068C16030BD7047002240F6B83306E004
:101690000021491C89B29942FBD3521C92B282426A
:1016A000F6D3704772B6FEE72DE9F0413B4C0026B9
:1016B0002078A8B12670607910B1012810D108E017
:1016C000012060710021022002F0FCFB02F036FADA
:1016D00006E066710121022002F0F4FB02F0DCF961
:1016E0002E4F6078143F07F11C05D8B1667028882A
:1016F00042F2283100F57A7080B22880884202D9FF
:101700004FF47A702880264980B208606421B0FBCB
:10171000F1F2224823A13C30FEF7DEFDF88840F0CC
:101720000400F880A078D8B1A670688841F28831AA
:1017300000F5FA7080B26880884202D34FF4FA70E4
:1017400068801E4980B208603221B0FBF1F2134874
:101750001BA16430FEF7C0FDF88840F01000F8804F
:10176000E078002818D0E670207998B10020207128
:101770004FF48071184800F002FF184C0122042138
:10178000204600F004FF2046BDE8F041002204217D
:1017900000F0FDBE0120EAE7BDE8F0812400002052
:1017A0003444014020202020205041363A25642531
:1017B0002520202020202020200000003448014047
:1017C00020202020205041373A2564252520202044
:1017D000202020202000000000080048000C0048C5
:1017E000F0B42D484088D0BB2C4900220025284663
:1017F000C2F1090611E000BF01EB800C51F8203066
:10180000DCF80470BB4205D941F820700125CCF802
:10181000043000E01DB1401CC0B28642ECDC521C1A
:10182000D2B2092AE2D3012051F82020401C80B214
:1018300014440928F8D3E00800EE100A9FED181AA6
:10184000DFED180AB8EE400A1349103120EE010A04
:1018500060EE200AC1ED020A80EE810A00E011E08C
:10186000DFED110A60EE200AFCEEE00A10EE900AAD
:10187000DFED0E0A888020EE200ABCEEC00A10EED2
:10188000100AC880044808304079002802D1F0BC12
:1018900002F002B9F0BC70471C000020B802002022
:1018A000333353400000803900401C4600409C45C3
:1018B000F8B500260446009690F858000D46012819
:1018C0000BD0012084F858002046FFF711FE0100DC
:1018D000E06D04D040F010002AE00220F8BD20F4B2
:1018E000885040F00200E06520688268134B1A407F
:1018F00005F080431A4342F000428260104A20689B
:101900000EE0009B5B1C0093934209D3E06D20F036
:10191000020040F01000E06584F858600120F8BD36
:101920008368DB0FEDD1E06D20F0020040F0010094
:10193000E06584F858600846F8BD0000C0FFFF3F2E
:1019400002DE04002DE9F84F00270446009790F8C6
:101950005800DFF8D8930D46B846012811D001266B
:1019600084F85860206802F0D5FA60B1E06D40F06C
:101970002000E0655FF0010784F858803846BDE834
:10198000F88F0220FBE7D5E900210C23206803EA49
:1019900091131844036B01F01F014FF01F0C0CFA58
:1019A00001FCC2F3846223EA0C038A4013430363FD
:1019B000206802F0AFFA8246206802F0A7FA5AEADD
:1019C00000003CD1AA6829682068B2F1004F37D0E6
:1019D00002F0ACFA2068416921F0004141612068C1
:1019E0006969C268C2F3C102520091402A69042A9F
:1019F00031D000EB82002B68026EDFF834C303F0B5
:101A0000F84302EA0C020B431A4342F0004101661C
:101A100020682A69A96900EB8200026E22F08072B8
:101A20000A430266297F22682869012910D0002113
:101A300002EB8000026E22F000720A4302667DE033
:101A4000002202F073FA2068416941F00041C5E7C5
:101A50004FF00071ECE7002102F052FA40032068D9
:101A60004FF0000172D002F04BFA90FAA0F0B0FAF9
:101A700080F1286842036ED090FAA0F0B0FA80F0AE
:101A8000814204D100221146206802F05EFA012151
:101A9000206802F035FA400320684FF001015DD064
:101AA00002F02EFA90FAA0F0B0FA80F12868420312
:101AB00059D090FAA0F0B0FA80F0814204D100220F
:101AC0000121206802F041FA0221206802F018FA90
:101AD000400320684FF0020148D002F011FA90FA5A
:101AE000A0F0B0FA80F12868420344D090FAA0F048
:101AF000B0FA80F0814204D100220221206802F075
:101B000024FA0321206802F0FBF9400320684FF01B
:101B1000030133D002F0F4F990FAA0F0B0FA80F1AA
:101B2000286842032FD090FAA0F0B0FA80F08142EA
:101B300004D100220321206802F007FA206881689E
:101B400011F0010F22D0A8E000E004E002F0D8F983
:101B5000C0F384618DE7C0F3846091E702F0D0F9AF
:101B6000C0F38461A2E7C0F38460A6E702F0C8F97D
:101B7000C0F38461B7E7C0F38460BBE702F0C0F94B
:101B8000C0F38461CCE7C0F38460D0E7EB682968D8
:101B90004B4550F8B03FC1F3120101D10B4300E0B7
:101BA0008B430360E868484577D1286841031CD01F
:101BB00090FAA0F1B1FA81F1491C01F01F01092945
:101BC0004FEA403132D8002912D000BF90FAA0F17C
:101BD000B1FA81F101F1010101F01F0106FA01F6EC
:101BE00009D100BFC0F3846109E0C0F38461E3E779
:101BF000C0F38461EEE790FAA0F1B1FA81F101F14E
:101C0000010101F01F0146EA816102D1C0F3846045
:101C100003E090FAA0F0B0FA80F000F1010000F0CB
:101C20001F0000EB400041EA005132E000290ED0D5
:101C300090FAA0F1B1FA81F101F1010101F01F0167
:101C400006FA01F606D100BFC0F3846106E0C0F3D6
:101C50008461F1E790FAA0F1B1FA81F101F101019B
:101C600001F01F0146EA816102D1C0F3846003E004
:101C700090FAA0F0B0FA80F000F1010000F01F002F
:101C80002C4A00EB400002EB005041EA000141F019
:101C90000071AA68206802F049F927482A680242C0
:101CA0003FF46AAE25488168254B01F0E0719A4205
:101CB00002D0244B9A421CD10B021AD42268B2F1F2
:101CC000A04F7FF459AE826841F4000122F0E07227
:101CD0000A4382601C481D490068B0FBF1F0401CBB
:101CE00000EB4000800000E0401E00900028FBD187
:101CF00042E6174D174BAA4207D1CD0105D4226801
:101D00009A42F5D041F0807109E0134DAA42EFD11B
:101D10004A02EDD422689A42EAD041F480018268F6
:101D200022F0E0720A43826026E6000000007F4055
:101D300000F0FF03000020FE0000088000030050B8
:101D4000000021C31000C0900C000020400D0300D3
:101D5000000052C700010050000084CB704770475C
:101D600070470000F8B54FF0000504002E460095BE
:101D700002D0E06D10B107E00120F8BD204600F070
:101D8000EFF8266684F8586020688168C1F34071D6
:101D900019B181686A4A1140816020688168C1F385
:101DA000007189B98168674A114041F080518160B2
:101DB000654866490068B0FBF1F04000801C00E017
:101DC000401E00900028FBD120688168C1F300719B
:101DD00041B9E16D41F01001E165216E41F0010171
:101DE0002166012502F096F8E16DC90600D430B1F4
:101DF000E06D40F01000E06501252846F8BDE06D7B
:101E000020F4807040F00200E0652068806810F0E7
:101E1000010F11D14FF0A04080684D4900F0010042
:101E2000896801F00101084306D14A486168826867
:101E300022F47C120A438260E168E06B627F08430F
:101E4000A16841EA4231084394F8241040EA014075
:101E5000012904D1218D404A02EB41410843E16A46
:101E600029B101F47871226B014342EA0100216833
:101E7000CA683A4B1A400243CA6020680169626B23
:101E800021F0406111430161206802F043F80646E9
:101E9000206802F03BF830432ED1207F94F83810B0
:101EA000800340EA41022068C16844F2020399437A
:101EB0001143C16020690028206801690AD041F4FB
:101EC00080310161206850F8C01F22696FF30D0155
:101ED000114307E021F480310161206850F8C01FF0
:101EE0006FF30D01016094F8400001280CD02068C8
:101EF000016921F001010161606901282068016B1D
:101F000021F00F0111D013E0D4E911010843D4E905
:101F100013121143084321680A6940F2FC739A4383
:101F2000104340F001000861E6E7226A521E1143A7
:101F30000163E06D20F0020040F00100E0655CE725
:101F4000C0FFFF5FC0FFFF7F0C000020400D0300BB
:101F500000010050000300500000FEFF0740F0FFAA
:101F600070B598B00546142111A8FEF78CFA4421EB
:101F70006846FEF788FA2149286888423CD1C401A6
:101F8000400500940F90684600F004FC08B1FFF78C
:101F900089FB1B49C86C40F40050C864C86C00F44D
:101FA00000501690C86C40F00200C864C86C00264F
:101FB00000F00200169003201396CDE9114011A9FC
:101FC000104800F0B3F9114C0F4820602420C4E9F8
:101FD00001068020C4E90360800060618000A06188
:101FE0002020E06100022062204600F0E7F808B1FE
:101FF000FFF758FB6C65A56218B070BD000100507A
:102000000010024000040048080002407401002053
:102010002DE9F0410446344817468846806800F0B0
:102020001F05206801F076FF00285AD194F8580067
:10203000012856D0012084F85800002625B1052D2E
:1020400002D0092D00D003E02046FFF789FA18B12D
:1020500084F85860BDE8F081E06D40F60161884386
:1020600040F48070E06521492068884202D14FF039
:10207000A04100E00146814200D01DB9E06D20F48E
:102080008010E065E06DC00404D5206E20F00600ED
:10209000206600E02666616D1548C862616D1548CE
:1020A0000863616D1448486321681C20086084F847
:1020B00058602068416841F0100141602068C168A3
:1020C00041F00101C16021683B4642464031606DEC
:1020D00000F0D4F821688A68084B1A40121D8A6003
:1020E000B8E70220B6E700000003005000010050EE
:1020F00063140008E5140008CB140008C0FFFF7F3C
:10210000F0B4016C0C6801680D6890F8442002F08E
:102110001F06042202FA06F3234211D06B070FD5E3
:102120000B689B0603D40B6823F004030B6090F844
:10213000441001F01F018A40016C4A60016B1DE0F0
:10214000022303FA06F727424FF0000C4FF001027A
:1021500018D0AF0716D50C68A40605D40C6824F077
:102160000A040C6080F8252090F8441001F01F014B
:102170008B40016C4B6080F824C0C16A00291AD0E2
:10218000F0BC08470823B340234214D02B0712D5D4
:102190000B6823F00E030B6090F84410036C01F001
:1021A0001F0102FA01F15960C26380F8252080F80E
:1021B00024C0416BE2E7F0BC7047000070B504003A
:1021C0000CD02B4A21681420914209D2294A0A4492
:1021D000B2FBF0F08000606427480AE0012070BD87
:1021E000234A52420A44B2FBF0F080006064204867
:1021F00008382064022084F825000A6847F6F07049
:102200008243D4E902031843D4E904352B4318432D
:10221000A3691843E3691843236A1843104308600D
:102220002046FFF7DFF9A0680025B0F5804F00D108
:102230006560A16C20790860D4E913014160606891
:10224000401E032808D82046FFF7ECF9606D0560B2
:10225000D4E91601416002E06565A565E565E563C1
:10226000012084F8250084F82450002070BD00006F
:1022700008040240F8FFFDBF0000024070B50446AC
:1022800090F82400002501280CD0012084F82400B7
:1022900094F825600020012E06D084F82400022541
:1022A000284670BD022070BD022684F82560E063D8
:1022B0002068066826F0010606602046FFF7C4F98C
:1022C000206B00282068016802D041F00E0106E072
:1022D00021F0040101602068016841F00A010160F9
:1022E000A06C0168C90303D5016841F480710160E5
:1022F000606D18B1016841F4807101602068016867
:1023000041F001010160CBE770B5044600F044F9EB
:102310000546601C02D004484068044400F03CF9C3
:10232000401BA042FAD370BD000000202DE9F04F01
:10233000DFF82092002301260324A9F1040B85B0C5
:102340000F2709F1040AABF1040EFAE006FA03F5CF
:102350002A407CD091F804C00CF0030CBCF1010FB2
:1023600002D0BCF1020F26D1D0F808C0CDF800C0D1
:102370004FEA430C04FA0CF8CDF810C0DDF800C0A9
:102380002CEA080CCDF800C0D1F80C80DDF810C0A4
:1023900008FA0CF8DDF800C048EA0C08C0F808801C
:1023A000D0F804C02CEA050C0D79C5F300159D404A
:1023B00045EA0C0545600D79ED43AD070ED0C568C3
:1023C0004FEA430804FA08FC25EA0C05D1F808C0D6
:1023D0000CFA08FC4CEA050CC0F80CC00D7905F0AD
:1023E0000305022D16D1DD0800EB850CCDF808C0E1
:1023F000DCF820805D074FEAD56C07FA0CF528EA77
:1024000005080D6905FA0CF5DDF808C045EA080570
:10241000CCF8205005684FEA430CCDF808C004FA08
:102420000CFC25EA0C0591F804C00CF00308DDF85B
:1024300008C008FA0CF848EA0508C0F800804D68A2
:1024400015F4403F7CD0444DD5F860C000E077E003
:102450004CF0010CC5F860C02D6E23F0030C05F0A4
:10246000010500953D4D65440295AD684FEA837CBA
:102470004FEA1C7807FA08FC25EA0C05B0F1904FEA
:1024800006D0DFF8DCC0604505D14FF0010C20E03C
:102490004FF0000C1DE0DFF8CCC0604502D14FF0DA
:1024A000020C16E0DFF8C0C0604502D14FF0030C0B
:1024B0000FE0DFF8B8C0604502D14FF0040C08E02F
:1024C000DFF8ACC0604502D14FF0050C01E04FF0E1
:1024D000060C0CFA08FC4CEA050C029DC5F808C075
:1024E000D9F80050CC46D1F8048095435FEAC8285B
:1024F00000D51543CCF80050DAF80050D446D1F896
:10250000048095435FEA882800D51543CCF8005035
:10251000DBF80050DC46D1F8048095435FEA883848
:1025200000D51543CCF80050DEF80050F446D1F841
:10253000048095435FEAC83800D51543CCF80050B5
:102540005B1C0A6832FA03F57FF400AF05B0BDE802
:10255000F08F00000804014000100240000001401C
:102560000004004800080048000C00480010004823
:10257000001400480069084000D0012070474269FB
:1025800021EA02030A4043EA0241816170470AB12D
:102590008161704781627047014880687047000020
:1025A0000000002002488168426811448160704741
:1025B0000000002010B50024032000F073F80F2065
:1025C00000F008F808B1012401E000F025F82046E9
:1025D00010BD000070B50E4E05460024706898B11D
:1025E0004FF47A71B1FBF0F00A490968B1FBF0F0E1
:1025F00000F040FD40B9102D06D200222946501EA1
:1026000000F030F8356000E00124204670BD000085
:10261000000000200C0000200A4882B0016E41F04A
:1026200001010166016E01F001010091816D41F02F
:1026300080518165806D00F08050009002B000F004
:10264000A1B8000000100240002809DB00F01F02C2
:10265000012191404009800000F1E020C0F8001104
:1026600070470000F0B40E4B1B680C46C3F3022306
:10267000C3F10705042D00D90425191D072901D22E
:10268000002300E0DB1E012606FA05F1491E214069
:1026900099409E40761E16403143F0BC02F09FBA2E
:1026A0000CED00E0064900F0070208684FF6FF0352
:1026B000184040EA0220034A1043086070470000B7
:1026C0000CED00E00000FA052B492C4B0A68322182
:1026D0004A432B4940B1B0F5007F086829D020F467
:1026E000C06040F480602CE00868C0F341200228FC
:1026F00004D051F8800F20F4807022E0D1F88000DF
:1027000020F48070C1F88000086820F4C06040F4B4
:1027100000700860B2FBF3F0401C00E0401E4A6904
:10272000520501D50028F9D1486940050AD5032092
:102730007047C0F34120022806D051F8800F40F4C2
:102740008070086000207047D1F8800040F48070ED
:10275000C1F88000086820F4C06040F40070086090
:10276000B2FBF3F0401C00E0401E4A695205DBD585
:102770000028F9D1D8E700000C00002040420F00EB
:10278000007000400248816841F4804181607047D8
:10279000007000402DE9F8430446006800269D4D76
:1027A00000035ED5A86D0027C00008D4A86D40F0D6
:1027B0008050A865A86D012700F080500090DFF8D8
:1027C0005892D9F8001041F48071C9F80010FFF751
:1027D000E3FE804606E000BFFFF7DEFEA0EB080048
:1027E00002282BD8D9F80000C005F5D5D5F89000FF
:1027F00010F4407014D0216C814211D0D5F89000B3
:10280000D5F8901020F4407041F48031C5F8901054
:10281000D5F8901021F48031C5F89010C5F89000DB
:10282000C00711D0FFF7B8FE804641F2883907E0B3
:10283000FFF7B2FEA0EB0801494501D903260BE0E2
:10284000D5F890008007F3D5D5F89000216C20F4DE
:1028500040700843C5F890001FB1A86D20F080506B
:10286000A8652078C00707D0D5F88800616820F0F7
:1028700003000843C5F888002078800707D5D5F8FD
:102880008800A16820F00C000843C5F88800207873
:10289000400707D5D5F88800E16820F030000843EC
:1028A000C5F888002078000707D5D5F88800216989
:1028B00020F0C0000843C5F888002078800607D5BE
:1028C000D5F88800616920F440600843C5F88800A5
:1028D0002078400607D5D5F88800A16920F440503B
:1028E0000843C5F888002078000607D5D5F8880089
:1028F000E16920F440400843C5F888002088C005FD
:1029000007D5D5F88800216A20F440300843C5F87F
:1029100088002088800507D5D5F88800616A20F4F2
:1029200040200843C5F88800208840050FD5D5F819
:102930008800A16A20F440100843C5F88800A06A06
:10294000B0F5801F03D1E86840F48010E86020886B
:1029500000050FD5D5F88800E16A20F4400008434F
:10296000C5F88800E06AB0F5800F03D1E86840F44C
:102970008010E8602088C0040FD5D5F88800216B4E
:1029800020F040700843C5F88800206BB0F1807FCC
:1029900003D1E86840F48010E86020884FF00061BF
:1029A00080040ED5D5F88800626B20F0406010439B
:1029B000C5F88800606B884203D1E86840F4801055
:1029C000E860208840040ED5D5F88800A26B20F07E
:1029D00040601043C5F88800A06B884203D1E868C6
:1029E00040F48010E860208800040FD5D5F88800F6
:1029F000E16B20F040500843C5F88800E06BB0F16F
:102A0000805F03D1E86840F48030E8603046BDE87C
:102A1000F883000000100240007000402DE9F047EC
:102A20000E4605004FF0000725D0DFF8AC81D8F83E
:102A3000000000F00F00B0420CD2D8F8001021F0D6
:102A40000F013143C8F80010D8F8000000F00F0063
:102A5000B04210D12968614CC80741F2883A5AD077
:102A60006868DFF87C91032808D0022820682DD000
:102A7000400500282CDB0120BDE8F087206880019C
:102A8000F9D5E06800F00302E068C0F30310401CD1
:102A9000032A19D0534A00BFB2FBF0F0E268C2F338
:102AA00006225043E268C2F34162521C5200B0FB5E
:102AB000F2F0484517D9A06810F0F00F0CD0880745
:102AC00011D5A86840B10EE0474AE5E78003D0E79A
:102AD00000F092F8484506D9A06820F0F00040F0D8
:102AE0008000A0608027A068696820F00300084388
:102AF000A060FFF751FD814606E000BFFFF74CFDE7
:102B0000A0EB090151453AD8A068696800F00C00B3
:102B1000B0EB810FF2D12868810714D5400703D5A7
:102B2000A06840F4E060A0602878000705D5A068A0
:102B300020F4605040F4E060A060A068A96820F034
:102B4000F000084304E0802F03D1A06820F0F000DB
:102B5000A060D8F80010404601F00F01B14216D92C
:102B6000016821F00F0131430160FFF715FD0746B1
:102B700007E000BFFFF710FDC11B514501D903203D
:102B80007AE7D8F8000000F00F00B042F2D12878C0
:102B9000400705D5A068E96820F4E0600843A0601C
:102BA0002878000706D5A068296920F4605040EA1B
:102BB000C100A06000F020F8A1680C4AC1F3031125
:102BC000515C01F01F01C8400949086009480068CC
:102BD000BDE8F047FFF7FEBC0020024000100240B5
:102BE00000B4C4040024F40000366E016C4D0008EB
:102BF0000C00002000000020184910B58868C0F3C0
:102C000081021748012A0BD08A68164BC2F3810251
:102C1000022A06D08A68C2F38102032A03D0002068
:102C200010BD184610BDCA6802F00304CA68C2F39A
:102C30000312521C032C02D0B0FBF2F001E0B3FBF4
:102C4000F2F0CA68C968C2F306225043C1F3416179
:102C5000491C4900B0FBF1F010BD0000001002401B
:102C60000024F40000366E012DE9F84304007AD008
:102C70002078FA4DC00747D0A868E96800F00C003A
:102C800001F003010C2802D0082817D001E0032925
:102C900014D06068B0F5803F17D0B0F5A02F286839
:102CA00017D020F480302860286820F48020286025
:102CB0006068E0B1FFF770FC064614E02868800306
:102CC00022D560680028D2D01EE0286840F4803009
:102CD000EDE740F480202860F7E700BFFFF75CFCD9
:102CE000801B642870D828688003F7D50CE0FFF7B4
:102CF00053FC064605E000BFFFF74EFC801B64282E
:102D0000F0D828688003F7D4207880074CD5A868CD
:102D1000E96800F00C0001F003010C2802D004283F
:102D20000DD001E002290AD0E068002828682BD0E5
:102D300040F480702860FFF72FFC064619E02868F1
:102D4000400502D5E068002891D06868217C20F019
:102D5000FE4040EA01606860C1480068FFF73AFC45
:102D6000002800D120E076E1FFF716FC801B022846
:102D7000B8D828684005F7D56868217C20F0FE4067
:102D800040EA016068600FE020F480702860FFF77F
:102D900003FC064605E000BFFFF7FEFB801B022890
:102DA000A0D828684005F7D42078000729D56069A5
:102DB0000028D5F8940013D040F00100C5F8940025
:102DC000FFF7EAFB064606E090E000BFFFF7E4FBF2
:102DD000801B022886D8D5F894008007F6D510E02D
:102DE00020F00100C5F89400FFF7D6FB064604E08A
:102DF000FFF7D2FB801B022878D8D5F89400800713
:102E0000F6D42078400761D5A86D0026C00008D40C
:102E1000A86D40F08050A865A86D012600F0805094
:102E2000009090480168C90511D40168804641F4BA
:102E300080710160FFF7B0FB074604E0FFF7ACFBD1
:102E4000C01B022852D8D8F80000C005F6D5A068EB
:102E5000012815D00528D5F8900016D020F00100E3
:102E6000C5F89000D5F8900020F00400C5F8900057
:102E7000A06841F28838B8B1FFF78EFB07460EE034
:102E8000D5F8900040F00100F0E740F00400C5F8EC
:102E90009000F5E7FFF780FBC11B414526D8D5F828
:102EA00090008007F6D50CE0FFF776FB074604E0BC
:102EB000FFF772FBC11B414518D8D5F89000800779
:102EC000F6D41EB1A86D20F08050A8652078800649
:102ED00029D5A0690028D5F8980013D040F001004A
:102EE000C5F89800FFF758FB064606E077E000BFFC
:102EF000FFF752FB801B022877D8D5F8980080078F
:102F0000F6D510E020F00100C5F89800FFF744FB6B
:102F1000064604E0FFF740FB801B022865D8D5F881
:102F200098008007F6D4E069F0B3A968C1F3810185
:102F3000032961D00228286820F0807028600BD017
:102F4000E86820F00300E860E86847490840E86066
:102F5000FFF722FB04464BE0FFF71EFB064604E0AA
:102F6000FFF71AFB801B02283FD828688001F7D49E
:102F7000F4E908016FF00F0202EB01110843218A06
:102F80005204490802EB4151A26841EA0221084378
:102F9000217D4FF07E42490802EB41610843217BCD
:102FA00040EAC160E96800E062E0304A114008434D
:102FB000E860286840F080702860E86840F0807021
:102FC000E860FFF7E9FA044605E000BFFFF7E4FA1E
:102FD000001B022809D828688001F7D548E004E0E2
:102FE000FFF7DAFA001B022802D90320BDE8F883B4
:102FF00028688001F4D43BE00128F7D0E868226A11
:1030000000F00301914226D1616A00F0F00209014B
:10301000103991421FD1A26A00F4FE41B1EB022F98
:1030200019D194F82C2000F07841B1EBC26F12D185
:10303000218E00F4C00249084905A1F50011914212
:1030400009D194F8341000F0C06049084906A1F194
:10305000007181420CD00120C8E70000001002403E
:103060000000002000700040FFFFEEFE0C809F017A
:103070000020BBE710B5401EB0F1807F01D30120D6
:1030800010BD4FF0E02460610F21601701F0A7FD33
:103090000020A06107202061002010BD704770470C
:1030A00070470000F0B590F83C20012A4AD0012278
:1030B00080F83C20CA688B6822F440721A434B683F
:1030C00022F480621A430B6822F400621A430B69EF
:1030D00022F480521A434B6922F400521A430B6BBC
:1030E00022F480421A430B8B22F4702242EA0342FC
:1030F000154C03680026154DA34201D0AB4203D105
:10310000CF6922F080523A43A34201D0AB4214D19E
:103110000F8D22F4700242EA07520F6A22F0807289
:103120003A434F6A22F000723A43A34201D0AB42C5
:1031300003D1C96A22F000520A435A6480F83C6005
:103140000020F0BD0220F0BD002C01400034014001
:103150007047704770470000F0B590F83C20012A96
:103160003AD0012580F83C50022280F83D200368C7
:103170005A689C68194E1A4FB34201D0BB4204D121
:1031800022F4700C4A6842EA0C02DFF858C002EAE6
:103190000C02D1F800C04CEA020CC3F804C002686B
:1031A000B2420DD0B2F1804F0AD00F4B9A4207D0F5
:1031B0000E4B9A4204D0BA4202D00D4B9A4204D12F
:1031C000896824F080031943916080F83D50002104
:1031D00080F83C100846F0BD0220F0BD002C0140F4
:1031E000003401408FFFFFFD000400400008004054
:1031F00000400140704710B5040003D094F83D0032
:1032000010B107E0012010BD002084F83C002046EA
:1032100000F022F8022084F83D00211D206801F012
:10322000C9FA012084F8480084F83E0084F83F0081
:1032300084F8400084F8410084F8420084F8430098
:1032400084F8440084F8450084F8460084F8470078
:1032500084F83D00002010BD08B5174A01681748E2
:10326000914211D1816D41F010018165806D002284
:1032700000F01000009001213620FFF7F3F9BDE8BF
:1032800008403620FFF7E0B90D4A914207D1016EA0
:1032900041F400310166006E00F4003009E0094A93
:1032A000914207D1016E41F480210166006E00F465
:1032B0008020009008BD0000001000400010024077
:1032C000004401400048014090F83D10012901D020
:1032D00001207047022180F83D100168CA6842F061
:1032E0000102CA600068104988420ED0B0F1804FD8
:1032F0000BD00E49884208D00D49884205D00D49AF
:10330000884202D00C49884207D181680B4A11409B
:10331000062906D0B1F5803F03D0016841F00101D4
:103320000160002070470000002C014000040040B4
:103330000008004000340140004001400700010047
:10334000704770B50446006801694FF00005C94335
:10335000890715D4C168C943890711D4E91E0161E1
:1033600001202077206880698007204602D0FFF77F
:10337000E7FF04E000F01CF9204600F0DEF92577B5
:1033800020680169C943490717D4C168C94349077F
:1033900013D46FF004010161022020772068806956
:1033A00010F4407F204602D0FFF7CAFF04E000F08F
:1033B000FFF8204600F0C1F9257720680169C9436C
:1033C000090716D4C168C943090712D46FF0080170
:1033D0000161042020772068C0698007204602D060
:1033E000FFF7AEFF04E000F0E3F8204600F0A5F997
:1033F000257720680169C943C90617D4C168C94344
:10340000C90613D46FF010010161082020772068ED
:10341000C06910F4407F204602D0FFF791FF04E01E
:1034200000F0C6F8204600F088F925772068016989
:10343000C943C90708D1C168C943C90704D1891E56
:103440000161204600F0F8F920680169C9430906C6
:1034500009D4C168C943090605D46FF08001016130
:103460002046FFF71CFE20680169C943C90509D43D
:10347000C168C943090605D46FF480710161204613
:10348000FFF70CFE20680169C943490609D4C168E9
:10349000C943490605D46FF040010161204600F0A0
:1034A000F7F920680169C943890609D4C168C9438D
:1034B000890605D46FF0200101612046FFF7F0FD79
:1034C00020680169C943C90209D4C168C943C90256
:1034D00005D46FF4801101612046FFF73AFE2068A1
:1034E0000169C943890209D4C168C943890205D465
:1034F0006FF4001101612046FFF72AFE2068016980
:10350000C943490209D4C168C943490205D46FF4CB
:10351000800101612046FFF71DFE20680169C94353
:1035200009020BD4C168C943090207D46FF4000132
:1035300001612046BDE87040FFF75CBE70BD000031
:1035400070B586B0044614216846FCF79CFF154E02
:10355000256800221449022401234FF09040B5420F
:1035600009D1CD6C45F00105CD64C96C01F00101B4
:10357000059140210BE00D4EB54210D1CD6C45F0C8
:103580000105CD64C96C01F0010105918021009114
:10359000CDE901426946CDE90323FEF7C7FE06B037
:1035A00070BD00000044014000100240004801408E
:1035B000704770B5044690F83C0000260D4601287F
:1035C0000BD0012084F83C000C2A4AD007DC82B1E1
:1035D000042A20D0082A06D131E0022070BD102A2A
:1035E00053D0142A63D00126002084F83C003046D2
:1035F00070BD206801F044F92068816941F008013C
:1036000081612068816921F00401816120688169FC
:103610002A69114311E0206801F080F9206881696E
:1036200041F4006181612068816921F480618161D8
:10363000206881692A6941EA02218161D4E7206812
:1036400001F0B4F92068C16941F00801C161206846
:10365000C16921F00401C1612068C1692A6911436F
:1036600011E0206801F0EAF92068C16941F40061C5
:10367000C1612068C16921F48061C1612068C169AC
:103680002A6941EA0221C161AEE7206801F01EFA11
:103690002068016D41F0080101652068016D21F08D
:1036A000040101652068016D2A69114311E0206859
:1036B00001F044FA2068016D41F400610165206861
:1036C000016D21F4806101652068016D2A6941EA7C
:1036D0000221016588E710B5040003D094F83D008D
:1036E00010B107E0012010BD002084F83C00204606
:1036F00000F022F8022084F83D00211D206801F02E
:1037000059F8012084F8480084F83E0084F83F000E
:1037100084F8400084F8410084F8420084F84300B3
:1037200084F8440084F8450084F8460084F8470093
:1037300084F83D00002010BD7047704730B5044646
:10374000022269B1042912D0082917D00C291CD0F3
:10375000102921D094F84300012824D0012030BD45
:1037600094F83E000128F9D184F83E201DE094F839
:103770003F000128F2D184F83F2016E094F8400081
:103780000128EBD184F840200FE094F84100012893
:10379000E4D184F8412008E094F842000128DDD10A
:1037A00084F8422001E084F843200122206801F0DF
:1037B00059F8194B20681949194A984209D088428A
:1037C00007D0904205D0174DA84202D0164DA8420E
:1037D00003D1456C45F400454564206898420CD0FF
:1037E000B0F1804F09D0114B984206D0104B98424F
:1037F00003D0884201D0904207D181680D4A114020
:10380000062906D0B1F5803F03D0016841F00101DF
:103810000160002030BD0000002C01400034014058
:1038200000400140004401400048014000040040C5
:103830000008004007000100134910B4884221D15C
:10384000124800F10C020169491C01614178491CD0
:10385000CCB244700189491C8BB20381118809B133
:10386000491E1180518809B1491E5180642C02D132
:103870004189491C4181962B04D10021018110BC52
:1038800000F034BD10BC7047D401002010000020AF
:103890007047FEE770B51A4C01212046FEF76AFE1C
:1038A0004FF0904570B102212046FEF763FE48B10B
:1038B00004212046FEF75EFE20B101212846FEF7D6
:1038C00059FE98B901212046FEF754FE80B102212D
:1038D0002046FEF74FFE68B104212046FEF74AFE5F
:1038E00050B101212846FEF745FE38B1002070BDD9
:1038F000012070BD022070BD032070BD042070BD8A
:103900000004004870B51D480188002922D1142107
:103910000180FFF7BFFF19490C3908710B7880EA65
:10392000030282438A7030EA0303CB70087002D02E
:103930000020488102E048890A280BD20F48012163
:103940000830012A07D0022A07D0032A0AD0042A05
:1039500000D1C17070BD017070BD4279002AFBD0EA
:10396000417070BD42790AB1817070BD044A13681C
:10397000044C256815602360817170BD1C00002017
:103980002C4401402C48014000B585B01421684604
:10399000FCF779FD4FF6FF70009000200321CDE980
:1039A0000201019069460248FEF7C0FC05B000BD67
:1039B0000008004800B585B014216846FCF763FD97
:1039C0004FF6FF700090012001900320039000202B
:1039D000029069460248FEF7A9FC05B000BD000050
:1039E0000008004870B5002406462146204600F035
:1039F0009BF900F0DDF94FF49635304600F0A8F958
:103A0000641CAC42F9D370BD30B587B01421684650
:103A1000FCF739FD1E48C16C41F00401C164C16C62
:103A200001F004010591C16C41F00101C164C16C58
:103A300001F001010591C16C41F00201C164C06C4B
:103A4000012500F0020005904FF44870CDE9000513
:103A500000240394694602940E48FEF767FC28028E
:103A600003940090CDE901544FF0904469462046FC
:103A7000FEF75CFCFFF79EFFA06940F48070A06138
:103A800004481830016841F40871016007B030BD86
:103A9000001002400004004810B511A11648FCF7C0
:103AA0001BFC15480C38806801F0E8F841EC100B5D
:103AB000114853EC102B11A12830FCF70DFC0E48D7
:103AC00014380179643009B110A100E015A1FCF7A8
:103AD00003FC09482838C18841F0FF01C18010BDAE
:103AE00020202020202020446174612020202020DC
:103AF000202020200000000038000020202020206E
:103B000020563A252E326676000000002020202024
:103B1000204D6F64653A4D414D55202020202020D6
:103B20000000000020202020204D6F64653A4155A0
:103B3000544F2020202020200000000010B50FA1AD
:103B40001448FCF7C9FB134C64210C3C2088B0FBE3
:103B5000F1F211A104F13400FCF7BEFB60883221C0
:103B6000B0FBF1F212A104F15C00FCF7B5FBA4F18B
:103B70001C00C18841F0FF01C18010BD2020202021
:103B80002020205061726120202020202020202031
:103B90000000000038000020202020202050413666
:103BA0003A25642525202020202020202000000008
:103BB00020202020205041373A2564252520202030
:103BC0002020202020000000203AD2B2034B02EB3C
:103BD000420203EB021200F019B800007C4D00080D
:103BE000F0B50E460746002540F23F1407E0214697
:103BF0003846FFF7E9FF103C6D1CA4B2761C327802
:103C0000002A01D0142DF2D3F0BD00002DE9F047B9
:103C100091468A460026044600F086F8DFF8408088
:103C2000012700BF00F0C4F85FF0000539F8160066
:103C300007FA05F10842404601D1408800E00088BB
:103C400000F086F86D1C102DF0D3641CE4B25146D0
:103C5000204600F069F8761C182EE3D3BDE8F08703
:103C60000001002010B5FFF7CFFE002000F014F88F
:103C7000084CA080A088A0F50241303906D000F0A1
:103C80001BFC002000F008F8A08010BD00F08BFBAA
:103C9000F7E700000001002070B51D490A6842F4F2
:103CA00000720A600A6842F480720A60184C103C84
:103CB000226842F020022260164A1060086840F034
:103CC0002000086000BF00BF00BF206840F0200057
:103CD0002060206840F480702060FFF755FE4FF0B0
:103CE0009041886A40F48070886200BF00BF00BFC6
:103CF0000848001F006885B2886940F480708861B8
:103D0000FFF758FE206840F400702060284670BD20
:103D1000280400481408004801B5BDF80000014916
:103D2000488008BD0001002010B50C460146202047
:103D300000F06EF82146BDE81040212000F068B880
:103D400001B5BDF800000149088008BD0001002050
:103D500030B5154B1C68154A116841F400711160AB
:103D6000124910390D6845F480750D600D6845F0F5
:103D700020050D601860106840F02000106000BF42
:103D800000BF00BF086840F020000860086840F4E9
:103D90008070086000BF00BF00BF086840F400707A
:103DA00008601C6030BD000014080048280400486A
:103DB000154A10B513681549086840F4007008608A
:103DC000086840F48070086010481038046844F0B7
:103DD00020040460222414600C6844F020040C6069
:103DE00000BF00BF00BF016841F020010160016811
:103DF00041F48071016000BF00BF00BF016841F461
:103E000000710160136010BD1408004828040048C8
:103E100070B5194C2568194B1A6842F400721A6083
:103E20001A6842F480721A60144A103A166846F012
:103E3000200616602060186840F02000186000BF5F
:103E400000BF00BF106840F020001060106840F410
:103E5000807010602160186840F02000186000BF7A
:103E600000BF00BF106840F020001060106840F4F0
:103E700080701060256070BD140800482804004858
:103E80002DE9F0410E4E0024012506F1280700BF60
:103E9000F18805FA04F008420BD08143F18004EB6D
:103EA000840007EB800104EB4400C006000EFFF71E
:103EB00097FE641CE4B20A2CEAD3BDE8F08100004E
:103EC0001000002010B50C4B0002012911D0012276
:103ED00001461846FEF75BFB084C012204212046F0
:103EE000FEF755FB20460022BDE810400421FEF7F6
:103EF0004EBB0022ECE7000000080048000C004820
:103F000000EB8100006E00F0F84070478068C0F35D
:103F1000C00070478068C0F380007047C06810F42C
:103F2000406F01D00020704701207047042303EA4E
:103F3000D15310B518444369C1F3045107248C4090
:103F4000A3438A401343436110BD00EB8100016E1F
:103F500021F00041114301667047000030B589B07F
:103F600020216846FCF78FFA19481849002401609F
:103F70004902C0E90114C46004250461C0E9054593
:103F8000047701214177016280F82440C462046310
:103F900080F83810C46380F84040FDF7E3FE08B1B4
:103FA000FDF780FB0B480090062001900520029051
:103FB0007F200594CDE9030569460548FDF7C2FC5D
:103FC000002801D0FDF76EFB09B030BD00010050A4
:103FD000080100200080F03E0D4808B5816C41F0DA
:103FE00004018164816C01F004010091816C41F055
:103FF00001018164806C002200F0010000901146F4
:104000000B20FEF72FFBBDE808400B20FEF71CBB82
:10401000001002402DE9F04387B014216846FCF7F8
:1040200032FA4C48C16C41F00401C164C16C01F02A
:1040300004010591C16C41F02001C164C16C01F023
:1040400020010591C16C41F04001C164C16C01F0D7
:1040500040010591C16C41F00101C164C16C01F0E6
:1040600001010591C16C41F00201C164C16C01F014
:1040700002010591C16C41F00801C164C06C364F6A
:1040800000F008004FF47F44059001222146384695
:10409000FEF77DFADFF8C480002204214046FEF7D7
:1040A00076FADFF8BC900022C0214846FEF76FFA8E
:1040B0000125CDE900450024029469463846039461
:1040C000FEF734F9A8020326CDE9000669460294FA
:1040D0002448FEF72BF9FF20CDE90006694602943B
:1040E0003846FEF723F9CDE900544FF09047694672
:1040F00038460295FEF71AF949F63E70CDE90006FA
:10410000694602943846FEF711F907208DE8310020
:1041100069464846FEF70AF947F63870CDE90006C9
:10412000694602944846FEF701F90420CDE90005EE
:1041300069464046CDE90245FEF7F8F8C0200090F8
:10414000CDE90154694648460394FEF7EFF807B0FD
:10415000BDE8F0830010024000080048000C004851
:10416000000400480018004810B594B01C210DA8A8
:10417000FCF789F934216846FCF785F920481F4986
:10418000002401604F21C0E9011442F20F71C0E91F
:10419000031444618461FFF72EF808B1FDF782FA39
:1041A0001748FFF798FA08B1FDF77CFA60200D90E8
:1041B0004FF47A70CDE90E041094119412940022F9
:1041C0000DA90F481394FFF7F4F908B1FDF76AFA47
:1041D00000944FF40050CDE90440019402940394FC
:1041E0000694694606480C94FEF75CFF08B1FDF79B
:1041F00059FA0348FFF7A4F914B010BD0044014078
:104200002002002010B594B01C210DA8FCF73BF94A
:1042100034216846FCF737F920481F490024016023
:104220004F21C0E9011441F28731C0E90314446110
:104230008461FEF7E0FF08B1FDF734FA1748FFF795
:104240004AFA08B1FDF72EFA60200D904FF4FA708B
:10425000CDE90E0410941194129400220DA90F4878
:104260001394FFF7A6F908B1FDF71CFA00944FF478
:104270000050CDE9044001940294039406946946E9
:1042800006480C94FEF70EFF08B1FDF70BFA034841
:10429000FFF756F914B010BD004801406C02002031
:1042A0003EB500240F48009401940D49029401602A
:1042B0004F21C0E9011440F2E7318461C160FEF78B
:1042C0009AFF08B1FDF7EEF900946946054802949B
:1042D000FEF742FF002801D0FDF7E4F93EBD0000E3
:1042E00000100040D4010020FEE7FEE7F0B52948A9
:1042F000284B2A49027928489D79012A1AD0002A98
:1043000017D1244A00230832254ED788948892ED8D
:10431000020A41F2883C42F2107E35B3B5EEC00A83
:10432000F1EE10FA10DD10EE102AB2420CDA07603E
:104330000C60F0BD174B08335A881B880DB1026022
:1043400011E003600A60F0BD10EE102AB24204DBF7
:10435000C0F800C0C1F800E0F0BDB5EEC00AF1EE53
:1043600010FAF9D803600B60F0BDB5EEC00AF1EEAB
:1043700010FA06DD10EE102AB24202DA04600F6075
:10438000F0BD10EE102AB242E7DBC0F800E0C1F841
:1043900000C0F0BD240000203444014034480140F6
:1043A00033335340704730B501210020FFF730FD13
:1043B0004FF47A70FDF768F900210120FFF728FD1E
:1043C00041F290711020FFF723FD4FF41C51602043
:1043D000FFF71EFD01216120FFF71AFD0221462093
:1043E000FFF716FD48F210011320FFF711FD48F208
:1043F000FE011220FFF70CFD4FF4A0610220FFF731
:1044000007FD41F230010320FFF702FD40F20334C3
:1044100021463020FFF7FCFC21463120FFF7F8FC55
:1044200021463220FFF7F4FCE51E29463320FFF732
:10443000EFFC03213420FFF7EBFC21463520FFF78A
:10444000E7FC14213620FFF7E3FC21463720FFF775
:10445000DFFC21463820FFF7DBFC21463920FFF73F
:10446000D7FC29463A20FFF7D3FC03213B20FFF776
:10447000CFFC21463C20FFF7CBFC4FF4A0513D2060
:10448000FFF7C6FC4FF400719220FFF7C1FC2146F4
:104490009320FFF7BDFC40F60D019020FFF7B8FC1C
:1044A00041F218010320FFF7B3FCBDE8304040F2B1
:1044B00073110720FFF7ACBC10B543F20801E320ED
:1044C000FFF7A6FC1221E720FFF7A2FC41F2312101
:1044D000EF20FFF79DFC00210120FFF799FC4FF42E
:1044E000E0610220FFF794FC41F230010320FFF766
:1044F0008FFC00210420FFF78BFC40F207210820ED
:10450000FFF786FC00210920FFF782FC00210A202A
:10451000FFF77EFC00210C20FFF77AFC00210D2024
:10452000FFF776FC00210F20FFF772FC002110201E
:10453000FFF76EFC07211120FFF76AFC0021122013
:10454000FFF766FC00211320FFF762FCC820FDF78F
:10455000DBFE41F290611020FFF75AFC40F2272168
:104560001120FFF755FC3220FDF7CEFE1D21122051
:10457000FFF74EFC3220FDF7C7FE4FF40061132019
:10458000FFF746FC14212920FFF742FC0B212B20CA
:10459000FFF73EFC3220FDF7B7FE00212020FFF799
:1045A00037FC00212120FFF733FC07213020FFF7E3
:1045B0002FFC40F207713120FFF72AFC0621322040
:1045C000FFF726FC40F204713520FFF721FC41F68D
:1045D00004713620FFF71CFC04213720FFF718FC7C
:1045E00000213820FFF714FC40F206713920FFF754
:1045F0000FFC40F201713C20FFF70AFC0F213D2027
:10460000FFF706FC00215020FFF702FCEF215120AC
:10461000FFF7FEFB00215220FFF7FAFB40F23F11AB
:104620005320FFF7F5FB4FF41C516020FFF7F0FB20
:1046300001216120FFF7ECFB00216A20FFF7E8FB76
:1046400000218020FFF7E4FB00218120FFF7E0FB41
:1046500000218220FFF7DCFB00218320FFF7D8FB3D
:1046600000218420FFF7D4FB00218520FFF7D0FB39
:1046700010219020FFF7CCFB00219220FFF7C8FB10
:1046800003219320FFF7C4FB4FF488719520FFF7B7
:10469000BFFB00219720FFF7BBFB00219820FFF70D
:1046A000B7FB41F218010320FFF7B2FBBDE8104051
:1046B00040F273110720FFF7ABBB7047FDF772BFE5
:1046C00010B594B038216846FBF7DDFE14210EA822
:1046D000FBF7D9FE4FF40070FDF7F6FF01200090C4
:1046E0000004019002200324CDE907041421CDE940
:1046F0000A100C900D9009946846FEF7B5FA08B1BF
:1047000072B6FEE70F20CDE90E0400201090119044
:10471000129002210EA8FEF781F9002801D072B68E
:10472000FEE714B010BD00000248016841F47001BA
:104730000160704788ED00E010B5FFF793FA0020A4
:10474000FFF750F90020FFF7E7FA4FF6FF70FFF789
:10475000F7FA0021FF20FFF7B5FB0E48FEF7B4FD86
:104760007F210D48FDF7A4F80A220C490A48FDF7FD
:104770004FFC00210A48FEF7E1FF00210948FEF73F
:10478000DDFF01210320FFF79DFBBDE81040FFF78F
:1047900083B90000D401002008010020B8020020E5
:1047A000200200206C0200200148FEF7CABD000074
:1047B000D40100202DE9F0430268234B234D244E01
:1047C000244C4FF08049984207D0484505D0A84274
:1047D00003D0B04201D0A04203D122F070074A6852
:1047E0003A431D4FDFF874C0DFF8748098420DD053
:1047F00048450BD0A84209D0B04207D0A04205D00E
:10480000B84203D0604501D0404503D122F4407541
:10481000CA682A434D6922F080022A4302608A68EE
:10482000C2620A688262984207D0A04205D0B842AC
:1048300003D0604501D0404501D1096901630121E0
:104840004161BDE8F0830000002C014000040040FD
:104850000008004000340140004001400044014095
:104860000048014010B501F01F030121046A99407E
:104870008C430462016A9A401143016210BD00003A
:104880002DE9F043026A22F001020262056A4368E0
:1048900082691C4C25F0020522400C6822F00302BC
:1048A00014438A68194E2A43174D194FDFF864C024
:1048B000DFF86490A84207D0B04205D0B84203D0D8
:1048C000604501D0484506D122F00808CA6842EA8E
:1048D000080222F00402A84207D0B04205D0B84234
:1048E00003D0604501D0484505D14D6923F440739C
:1048F0001D438B692B4343608461496841630262B5
:10490000BDE8F0838FFFFEFF002C01400034014022
:10491000004001400044014000480140F0B5026AF7
:1049200022F010020262056A42688369194C1B4E2C
:1049300023400C6823F4407343EA042425F0200349
:104940008D6843EA0513144DA84201D0B04206D148
:10495000CF6823F0800343EA071323F04003A84203
:104960000AD0B04208D00E4DA84205D00D4DA84245
:1049700002D00D4DA84207D14D6922F4406242EAAF
:1049800085028D6942EA85024260846149688163DB
:104990000362F0BDFF8FFFFE002C01400034014098
:1049A000004001400044014000480140F0B5026A67
:1049B00022F480720262056A4368C269194C1B4E78
:1049C00022400C6822F00302144325F400728D6823
:1049D00042EA0522144DA84201D0B04206D1CF6868
:1049E00022F4006242EA072222F48062A8420AD03E
:1049F000B04208D00E4DA84205D00E4DA84202D0BC
:104A00000D4DA84207D14D6923F4405343EA0513E5
:104A10008D6943EA05134360C4614968C16302625A
:104A2000F0BD00008FFFFEFF002C0140003401406C
:104A3000004001400044014000480140F0B5026AD6
:104A400022F480520262056A4268C369194C1B4E07
:104A500023400C6823F4407343EA042425F40053F4
:104A60008D6843EA0533144DA84201D0B04206D107
:104A7000CF6823F4004343EA073323F48043A8427A
:104A80000AD0B04208D00E4DA84205D00D4DA84224
:104A900002D00D4DA84207D14D6922F4404242EAAE
:104AA00085128D6942EA85124260C46149680164D9
:104AB0000362F0BDFF8FFFFE002C01400034014077
:104AC00000400140004401400048014030B5026A06
:104AD00022F480320262046A4268036D114D2B4059
:104AE0000D681D4324F400330C8943EA04430E4C43
:104AF000A0420BD00D4CA04208D00D4CA04205D0D6
:104B00000C4CA04202D00C4CA04204D14C6922F4BF
:104B1000803242EA0422426005654968816403628A
:104B200030BD00008FFFFEFF002C0140003401402B
:104B300000400140004401400048014030B5026A95
:104B400022F480120262046A4268036D114D24F45B
:104B500000142B400D6843EA05230D8944EA0554EF
:104B60000D4DA8420BD00D4DA84208D00C4DA842C7
:104B700005D00C4DA84202D00B4DA84204D14D697E
:104B800022F4802242EA8522426003654968C164BA
:104B9000046230BDFF8FFFFE002C01400034014055
:104BA000004001400044014000480140FEE703B4DA
:104BB00001984100009850EAC12018BF04204A0D16
:104BC00018BF40F0010040F2FF72B2EB515F08BF26
:104BD00040F00200012808BF052002B07047090715
:104BE000090E002804DB00F1E02080F80014704773
:104BF00000F00F0000F1E02080F8141D70473038FD
:104C00000A2801D20120704700207047FDF7D2FC2E
:104C1000FFF756FDFFF7FEF9FFF7DEF9FFF79EF904
:104C2000FFF7A2FAFFF7EEFAFFF73AFBFFF784FD72
:104C3000FFF726F9FCF7D4FDFEF764FEFCF734FD20
:104C4000F6E7000010B500290AD00878002807D040
:104C500005487844FBF7F6FF002801D0002010BD7E
:104C60000248784410BD0000AE130000A6130000F7
:104C70000808A0F500114FEA3101704743004FEAE0
:104C8000D30C4FEA3C0C43401FBF40070CF160516E
:104C900013F0FE4F70471CF0006F03D100200CF0A2
:104CA000004170470CF0004343EA507010B540EAF1
:104CB000CC0000F00EF800BF000000924FEA0001A7
:104CC000FFF7D6BF4FF000414FF00000A1F50021E3
:104CD00070470EF1020E2EF0030E5EF8044B2442D4
:104CE00004D44FEA4102B2F17F4F11D84FEA40039A
:104CF000B3F17F4F0CD80ED14FEAD07CB2F17F4F89
:104D00000CEB4C0C0CF1020C08BF4CEBD17C04E01A
:104D10004FF0080C01E04FEAD17C0CEB4C0324FA75
:104D200003F404F00704B4F1040C06D20EEB840C77
:104D3000BDE810404CF0010C6047DFE80CF00708BC
:104D400002024FF00040A0F5800010BD084642006E
:104D500018BFD2F1807288BF00F0004010BD4FF044
:104D60004070E1EE100A7047FBF7E9BC000000005C
:104D7000000000000102030406070809000000000B
:104D80000000000000000000000000000000000023
:104D90000000000000000000000000000000000013
:104DA0000000000000000000000000000000800182
:104DB00080018001800180018001800180018001EB
:104DC00080018001800180010000000080018001DD
:104DD00000000000000000000000000000000000D3
:104DE000CC00CC00CC00CC00CC00CC0000000000FB
:104DF00000000000000000000000000000000000B3
:104E000000000000000000000000000000000000A2
:104E10000000000000000000600C600C600C300618
:104E20003006FE1FFE1F300638071803FE1FFE1F48
:104E3000180318038C018C018C0100000000800015
:104E4000E003F80F9C0E8C1C8C188C009800F80165
:104E5000E007800E801C8C188C189C18B80CF00F82
:104E6000E00380008000000000000000000000005F
:104E700000000E181B0C110C110611061103110372
:104E80009B018E01C038C06C6044604430443044A3
:104E90001844186C0C380000000000000000E0010D
:104EA000F0033807180618063003F001F000F80088
:104EB0009C310E33061E061C061C063FFC73F021B7
:104EC00000000000000000000000000000000000E2
:104ED0000C000C000C000C000C000C00000000008A
:104EE00000000000000000000000000000000000C2
:104EF00000000000000000000000000000000002B0
:104F000000038001C000C00060006000300030007D
:104F100030003000300030003000300060006000B1
:104F2000C000C0008001000300020000000020005B
:104F30006000C0008001800100030003000600063D
:104F40000006000600060006000600060003000337
:104F500080018001C000600020000000000000000F
:104F60000000000000000000C000C000D806F807E4
:104F7000E0013003380700000000000000000000DE
:104F80000000000000000000000000000000000021
:104F9000000000000000000080018001800180010D
:104FA0008001FC3FFC3F8001800180018001800185
:104FB00000000000000000000000000000000000F1
:104FC00000000000000000000000000000000000E1
:104FD0000000000000000000000000000000800150
:104FE00080010001000180000000000000000000BE
:104FF00000000000000000000000000000000000B1
:1050000000000000E007E0070000000000000000D2
:105010000000000000000000000000000000000090
:105020000000000000000000000000000000000080
:105030000000000000000000000000000000C000B0
:10504000C000000000000000000000000000000C94
:10505000000C0006000600060003000300038003A6
:10506000800180018001C000C000C00060006000BD
:105070000000000000000000000000000000E0034D
:10508000F007380E180C0C180C180C180C180C180B
:105090000C180C180C180C18180C380EF007E0033C
:1050A00000000000000000000000000000000001FF
:1050B0008001C001F0019801880180018001800118
:1050C00080018001800180018001800180018001D8
:1050D0000000000000000000000000000000E003ED
:1050E000F80F180C0C180C1800180018000C00060B
:1050F00000038001C000600030001800FC1FFC1F8E
:105100000000000000000000000000000000E001BE
:10511000F807180E0C0C0C0C000C0006C003C0079E
:10512000000C001800180C180C18180CF807E003F5
:105130000000000000000000000000000000000C63
:10514000000E000F000F800DC00C600C600C300CC6
:10515000180C0C0CFC3FFC3F000C000C000C000C6D
:105160000000000000000000000000000000F80F38
:10517000F80F180018000C00EC03FC071C0E001CB4
:105180000018001800180C181C0C180EF807E00383
:105190000000000000000000000000000000C00748
:1051A000F00F381C181818000C00CC03EC0F3C0E44
:1051B0001C1C0C180C180C18181C380EF007E003F7
:1051C0000000000000000000000000000000FC1FC4
:1051D000FC1F000C00060006000380038001C001D4
:1051E000C000E0006000600070003000300030005F
:1051F0000000000000000000000000000000E003CC
:10520000F007380E180C180C180C3806F007F007C9
:10521000180C0C180C180C180C18380CF80FE003AC
:105220000000000000000000000000000000E0039B
:10523000F007380E1C0C0C180C180C181C1C381E0F
:10524000F81BE0190018000C000C1C0EF807F00108
:10525000000000000000000000000000000000004E
:10526000000000000000000080018001000000003C
:10527000000000000000000000000000800180012C
:10528000000000000000000000000000000000001E
:10529000000000000000000080018001000000000C
:1052A00000000000000000000000000080018001FC
:1052B000000100018000000000000000000000006C
:1052C0000000000000000000000000000010001CB2
:1052D000800FE003F8001800F800E003800F001CC6
:1052E00000100000000000000000000000000000AE
:1052F000000000000000000000000000F81F000097
:1053000000000000F81F0000000000000000000086
:10531000000000000000000000000000000000008D
:10532000000000000000000000000000080038003D
:10533000F001C007001F0018001FC007F00138006F
:105340000800000000000000000000000000E00372
:10535000F80F180C0C180C180018000C00060003AD
:105360008001C000C000C00000000000C000C000FC
:10537000000000000000000000000000000000002D
:10538000E00718180420C229224A1144094409449C
:10539000094409221113E20C024004201818E00706
:1053A000000000000000000000000000000080037A
:1053B0008003C006C006C006600C600C30183018B0
:1053C0003018F83FF83F1C700C600C6006C006C037
:1053D0000000000000000000000000000000FC03CE
:1053E000FC0F0C0C0C180C180C180C0CFC07FC0F08
:1053F0000C180C300C300C300C300C18FC1FFC0757
:105400000000000000000000000000000000C007D5
:10541000F01F38381C300C700660060006000600CD
:1054200006000600060006600C701C30F01FE00746
:105430000000000000000000000000000000FE036B
:10544000FE0F060E06180618063006300630063027
:1054500006300630063006180618060EFE0FFE034C
:105460000000000000000000000000000000FC3F01
:10547000FC3F0C000C000C000C000C00FC1FFC1F7F
:105480000C000C000C000C000C000C00FC3FFC3F5E
:105490000000000000000000000000000000F83FD5
:1054A000F83F18001800180018001800F81FF81F1F
:1054B000180018001800180018001800180018002C
:1054C0000000000000000000000000000000E00FED
:1054D000F83F3C780E6006E007C00300030003FEBF
:1054E00003FE03C007C006C00EC03CF0F83FE00F4B
:1054F00000000000000000000000000000000C3070
:105500000C300C300C300C300C300C30FC3FFC3FBD
:105510000C300C300C300C300C300C300C300C30AB
:1055200000000000000000000000000000008001FA
:105530008001800180018001800180018001800163
:105540008001800180018001800180018001800153
:105550000000000000000000000000000000000645
:10556000000600060006000600060006000600060B
:10557000000600060006180618063807F003E001CA
:1055800000000000000000000000000000000630E5
:105590000618060C060606038601C600660076009D
:1055A000DE008E0106030606060C061806300660AD
:1055B00000000000000000000000000000001800D3
:1055C000180018001800180018001800180018001B
:1055D000180018001800180018001800F81FF81F0D
:1055E00000000000000000000000000000000EE0CD
:1055F0001EF01EF01EF036D836D836D836D866CC17
:1056000066CC66CCC6C6C6C6C6C6C6C686C386C374
:1056100000000000000000000000000000000C304E
:105620001C303C303C306C306C30CC30CC308C3169
:105630000C330C330C360C360C3C0C3C0C380C3058
:105640000000000000000000000000000000E00773
:10565000F81F1C380E70066003C003C003C003C0EF
:1056600003C003C003C006600E701C38F81FE007BB
:105670000000000000000000000000000000FC0F1F
:10568000FC1F0C380C300C300C300C300C18FC1F8C
:10569000FC070C000C000C000C000C000C000C00B3
:1056A0000000000000000000000000000000E00713
:1056B000F81F1C380E70066003E003C003C003C06F
:1056C00003C003C007E006630E3F1C3CF83FE0F751
:1056D00000C0000000000000000000000000FE0FFD
:1056E000FE1F06380630063006300638FE1FFE075D
:1056F00006030606060C0618061806300630066075
:105700000000000000000000000000000000E003B6
:10571000F80F1C0C0C180C180C001C00F803E00F00
:10572000001E0038063006300E301C1CF80FE00753
:105730000000000000000000000000000000FE7FEC
:10574000FE7F800180018001800180018001800155
:105750008001800180018001800180018001800141
:1057600000000000000000000000000000000C30FD
:105770000C300C300C300C300C300C300C300C3049
:105780000C300C300C300C300C301818F81FE007BF
:1057900000000000000000000000000000000360A6
:1057A0000630063006300C180C180C18180C180CA3
:1057B000380E30063006700760036003C001C00178
:1057C0000000000000000000000000000000036076
:1057D000C361C361C3616633663366336633663360
:1057E00066336C1B6C1B6C1B2C1A3C1E380E380E5F
:1057F00000000000000000000000000000000FE0BA
:105800000C7018303018700C600EC00780038003D5
:10581000C003E006700C301C18180C300E6007E056
:10582000000000000000000000000000000003C0B5
:1058300006600C301C383818300C6006E007C003D6
:105840008001800180018001800180018001800150
:105850000000000000000000000000000000FC7FCD
:10586000FC7F006000300018000C0006000380017F
:10587000C0006000300018000C000600FE7FFE7FB4
:105880000000000000000000000000000000E00335
:10589000E003600060006000600060006000600085
:1058A00060006000600060006000600060006000F8
:1058B000600060006000E003E003000000003000D2
:1058C0003000600060006000C000C000C000C00187
:1058D0008001800180010003000300030006000630
:1058E0000000000000000000000000000000E003D5
:1058F000E0030003000300030003000300030003B0
:10590000000300030003000300030003000300037F
:10591000000300030003E003E003000000000000B8
:10592000C001C00160036003600330063006180C3C
:10593000180C000000000000000000000000000043
:105940000000000000000000000000000000000057
:105950000000000000000000000000000000000047
:105960000000000000000000000000000000FFFF39
:10597000FFFF0000000000000000000000000C001D
:105980000C000C000C000C000C00000000000000DB
:105990000000000000000000000000000000000007
:1059A00000000000000000000000000000000000F7
:1059B0000000000000000000F003F8071C0C0C0CB5
:1059C000000FF00FF80C0C0C0C0C1C0FF80FF0185B
:1059D00000000000000000000000000000001800AF
:1059E0001800180018001800D803F80F380C181801
:1059F00018181818181818181818380CF80FD80391
:105A00000000000000000000000000000000000096
:105A10000000000000000000C003F007300E180C6A
:105A20001800180018001800180C300EF007C003FA
:105A3000000000000000000000000000000000184E
:105A40000018001800180018C01BF01F301C181890
:105A500018181818181818181818301CF01FC01B20
:105A60000000000000000000000000000000000036
:105A70000000000000000000C003F00F300C1818F8
:105A8000F81FF81F180018003818301CF00FC00756
:105A90000000000000000000000000000000800F77
:105AA000C00FC000C000C000F007F007C000C00079
:105AB000C000C000C000C000C000C000C000C000E6
:105AC00000000000000000000000000000000000D6
:105AD0000000000000000000E00DF80F180E0C0C94
