:020000040800F2
:10000000980A0020F1010008CB59000805470008B4
:10001000C9590008E50A0008FD6B0008000000004F
:10002000000000000000000000000000595E000811
:10003000DB0B000800000000CD5900085B5E0008E3
:100040000B0200080B0200080B0200080B0200085C
:100050000B0200080B0200080B0200080B0200084C
:100060000B0200080B0200080B020008090B000835
:10007000150B0008210B00082D0B00080B020008CF
:100080000B020008000000000B0200080B02000831
:100090000B0200080B0200080B0200080B0200080C
:1000A0000B0200080B0200080B0200080B020008FC
:1000B000DD5E0008E95E0008F55E00080B0200083E
:1000C0000B0200080B0200080B0200080B020008DC
:1000D0000B020008B16B00080B0200080B020008BD
:1000E0000B020008E55C00080B0200080B02000888
:1000F0000B0200080B0200080B02000800000000C1
:10010000000000000B020008000000000B020008C5
:100110000B020008000000000B020008015F00084D
:100120000B0200080B0200080B0200080B0200087B
:100130000B02000800000000000000000B02000895
:100140000B0200080B020008000000000000000085
:10015000000000000000000000000000000000009F
:100160000000000000000000000000000B0200087A
:100170000B0200080000000000000000000000006A
:10018000000000000B02000800000000000000005A
:10019000000000000000000000000000000000005F
:1001A00000000000000000000B0200080B02000825
:1001B0000B0200080B0200080B0200080000000000
:1001C000000000000B02000800000000000000001A
:1001D0000B0200080B020008DFF810D000F004FB4F
:1001E000004800473D760008AFF30080980A0020E1
:1001F0000648804706480047FEE7FEE7FEE7FEE7C1
:10020000FEE7FEE7FEE7FEE7FEE7FEE7CD5E00085D
:10021000D90100082DE9F05F0546002092469B4673
:1002200088460646814640241BE02846414647460C
:10023000224600F02AFA53465A46C01A914110D37A
:1002400011461846224600F011FA2D1A67EB0108F4
:100250004F4622460120002100F008FA17EB000962
:100260004E41201EA4F10104DFDC484631462A46F7
:100270004346BDE8F09F40EA01039B0703D009E035
:1002800008C9121F08C0042AFAD203E011F8013B82
:1002900000F8013B521EF9D27047D2B201E000F8DB
:1002A000012B491EFBD270470022F6E710B513461A
:1002B0000A4604461946FFF7F0FF204610BD2DE917
:1002C000FE4F804681EA0300C00F0C46009021F0EB
:1002D000004123F00045B8EB0200A94105D2404699
:1002E000214690461C460B46024623F00040104330
:1002F00047D0270DC7F30A00C3F30A510290401AF2
:10030000019040286BDAC3F3130040F4801B00987F
:10031000924620B10023D2EB030A63EB0B0B01984A
:100320005946C0F14002504600F0A0F906460D467D
:1003300050465946019A00F0B8F910EB08006141A7
:10034000002487EA115284EAE7731A4340D0009AE6
:1003500062B3019A012A4FEA075215DC001B61EBD8
:1003600002014FF0004202EA0752CDE90042001CB0
:1003700041F5801132462B4600F0B8F903B0BDE8D4
:10038000F08F40462146F9E7001B61EB0201001C9B
:1003900041F5801300185B412018A2F5001747EBC8
:1003A000030140EAD570B6196D4111E06D084FEABE
:1003B000360645EAC0754FEA0752001B61EB0201A1
:1003C000001C41F5801149084FEA300000195141E5
:1003D00032462B4603B0BDE8F04F00F078B90098E4
:1003E000012240000023D0EB020263EBE07300988F
:1003F00021464FEAE074B8EB000061EB0401E9E745
:1004000083F000435BE781F0004158E72DE9FE4FA0
:1004100081EA030404F0004421F0004100944FF00D
:10042000000B23F0004350EA01045ED052EA0304BB
:100430005BD0C3F30A54C1F30A552C44A4F2F3343D
:100440000194A0FB0254C1F3130141F48011C3F3E2
:10045000130343F4801301FB024400FB034E840AA0
:10046000970A44EA815447EA8357A4FB0768029538
:100470008D0A05FB07854FEA932C04FB0C542705D6
:10048000029D4FEA065847EA1637B5EB08056EEBB2
:10049000070C870E920E47EA811742EA8312A7FBE8
:1004A0000201B6EB0B0164EB00042B0D43EA0C33A5
:1004B0005E1844EB1C50DA465146E7FB0201C5F3D7
:1004C00013044FEA0B3343EA14534FEA0432019CFE
:1004D00043EA0603A4F10C040294009CCDE900B4A5
:1004E00000F004F903B0BDE8F08F00200146F9E701
:1004F0002DE9F04D81EA030404F0004B21F00045A2
:1005000014464FF0000A23F0004150EA050220D0C3
:1005100054EA01021DD0C5F30A570246C5F313037E
:10052000C1F31300C1F30A5640F4801543F480135D
:10053000A7EB0608101BD64608F2FD3873EB050042
:1005400002D308F1010801E092185B41B8F1000FF5
:1005500003DA00200146BDE8F08D00204FF4801141
:10056000064684460EE0171B73EB050705D3121BE6
:1005700063EB050306434CEA010C49084FEA3000DF
:1005800092185B4150EA0107EDD152EA030012D004
:1005900082EA040083EA0501084305D0101BAB4141
:1005A00006D20122002306E000224FF0004302E0C1
:1005B0006FF0010253101AEB06004CEB085110EBE0
:1005C0000A0041EB0B01BDE8F04D00F080B80EB51C
:1005D00040F2334102910021CDE900110A460B4659
:1005E00000F084F803B000BDC1F30A5210B5C1F3A6
:1005F000130140F2FF3341F480119A4201DA0020E6
:1006000010BD40F233439A42A2F2334203DC52421D
:1006100000F03BF810BD904010BD00F0004230F0FB
:1006200000400AD0C10D01F56071C0F3160042EA26
:100630000151C2084007114370470020014670472E
:1006400030B50B46014600202022012409E021FAA2
:1006500002F59D4205D303FA02F5491B04FA02F59F
:100660002844151EA2F10102F1DC30BD202A04DB72
:10067000203A00FA02F1002070479140C2F12003B5
:1006800020FA03F3194390407047202A04DB203AF4
:1006900021FA02F00021704721FA02F3D040C2F1A2
:1006A00020029140084319467047202A06DBCB17E9
:1006B000203A41FA02F043EAE07306E041FA02F31D
:1006C000D040C2F12002914008431946704710B54E
:1006D000141E73F1000408DA401C41F10001921865
:1006E0005B411A4301D120F0010010BD2DE9F04D0E
:1006F00092469B4611B1B1FA81F202E0B0FA80F263
:1007000020329046FFF7B2FF04460F4640EA0A0047
:1007100041EA0B0153465A46084313D0114653EAA7
:10072000010019D0C8F140025046FFF7AEFF054660
:100730000E46504659464246FFF798FF084305D0FB
:10074000012004E020463946BDE8F08D0020054335
:1007500046EAE0762C4337430A986305E40AA0EBA7
:1007600008000022FD0A44EA47540A3002D500205E
:100770000146E9E7010510196941DDE9084500195D
:100780006941BDE8F04DA2E7C1F30A52C1F313017C
:1007900040F2FF3341F480119A4202DA0020014610
:1007A000704740F233439A42A2F2334202DC524293
:1007B000FFF76BBFFFF75ABF30B5041E71F100049D
:1007C00004DB4FF00044404264EB0101141E73F15E
:1007D000000405DB1C464FF00043524263EB040368
:1007E000994208BF904230BD064C074D06E0E068D4
:1007F00040F0010394E8070098471034AC42F6D368
:10080000FFF7EEFCEC8E00080C8F000810B5846A30
:10081000E16D11F0500F06D0E16DC90625D52046D7
:1008200000F0B0FC10BDE06D40F40070E0652068A1
:100830000168090716D504F007FB78B12068C06885
:10084000800400280ADBE06D20F48070E065E06D34
:10085000C00403D4E06D40F00100E065204600F0E4
:100860008FFC10BDC0688007EBE7616D496BBDE888
:100870001040084710B5806AC16D41F04001C16564
:10088000016E41F00401016600F07CFC10BD10B562
:10089000806A00F076FC10BD70B50446006881687F
:1008A0008268C1F3400112F0010F28D039BB816882
:1008B00001F00D01012914D18168124A1140891CEF
:1008C000816021680320086001F0B2FA054612E059
:1008D00001F0AEFA401B02280DD920688068C007DD
:1008E00009D0E06D40F01000E065206E40F001009E
:1008F0002066012070BD20688068C007E8D1002014
:1009000070BD0000C0FFFF7F70B5044600688168BD
:1009100011F0010F2DD18168174A11421AD1816857
:10092000D5432940491C816001F082FA06461BE04C
:10093000816811F0010F03D181682940491C816051
:1009400001F076FA801B02280ED920680068C043A7
:10095000C00709D0E06D40F01000E065206E40F067
:1009600001002066012070BD20680168C943C907E5
:10097000DED1002070BD00003F000080F0B59FED8B
:100980001F0A002200231946C2F1090514E000BF26
:1009900000EB810750F821407E68B4420AD200EE95
:1009A000904A40F821600123F8EE600AFCEEE00A6C
:1009B000C7ED010A491CC9B28D42E9DC1BB1521CCA
:1009C000D2B2092ADED3012150F82120491C00EEC1
:1009D000902AC9B20929F8EE600A30EE800AF3D3F2
:1009E000F4EE000A20EE200ADFED050A20EE200AD0
:1009F000DFED040A20EE200AF0BD00000000000038
:100A0000000080393333534070B586B00D4604463C
:100A1000164614216846FFF747FC00200246059061
:100A200069461B4801F0F2FF002205A9184801F0B1
:100A3000CBFF9DF802003044C2B23C203B2A08D9CB
:100A4000B2FBF0F100FB11229DF80110491C8DF85A
:100A500001109DF801102944C9B23B2908D9B1FB06
:100A6000F0F300FB13119DF80000401C8DF800000E
:100A70009DF800002044C0B2172804D91723B0FB0A
:100A8000F3F403FB140000F005F806B070BD00009D
:100A9000AC02002070B58AB00D46064614462821E7
:100AA0006846FFF701FC8DF800608DF801500020CA
:100AB0008DF802404FF000410190CDE905100790FC
:100AC00001208DF8200000020990002269460448A8
:100AD00002F044F8002801D072B6FEE70AB070BDFB
:100AE000AC020020FEE70000064B012806D00028DB
:100AF00006D101220821184601F095B90022F9E734
:100B00007047000000040048014800F04DBF00009D
:100B1000D8010020014800F047BF00003802002043
:100B2000014800F041BF0000CC050020014800F062
:100B30003BBF00002C0600200D4902688A4201D20A
:100B40000C4901E00B492031D2B21423083AB2FB20
:100B5000F3F2436C02F01F0223F003031944816493
:100B600004498031C1640121914001657047000052
:100B700008040240000802400179074A02EB8102A2
:100B80004265054A4432491E826501F01F02012177
:100B90009140C16570470000FC08024030B5D0E9C3
:100BA00013456560446D14B1D0E91645656090F851
:100BB000444004F01F050124AC40056C6C600468DF
:100BC00063608368102B036803D099600068C2607B
:100BD00030BD9A600068C16030BD7047002240F6A9
:100BE000B83306E00021491C89B29942FBD3521C5C
:100BF00092B28242F6D3704772B6FEE7F8B500268D
:100C00000446009690F858000D4601280BD00120AC
:100C100084F858002046FFF73FFE0100E06D04D045
:100C200040F010002AE00220F8BD20F4885040F087
:100C30000200E06520688268134B1A4005F080438B
:100C40001A4342F000428260104A20680EE0009B86
:100C50005B1C0093934209D3E06D20F0020040F04A
:100C60001000E06584F858600120F8BD8368DB0F50
:100C7000EDD1E06D20F0020040F00100E06584F865
:100C800058600846F8BD0000C0FFFF3F02DE0400C8
:100C90002DE9F047044690F858009CB00E464FF0FE
:100CA0000009012815D0012084F858000025179567
:100CB000189520684FF0A04840450ED1284F009766
:100CC000384604F0BDF88246206804F0B9F860B1F7
:100CD0000EE002201CB0BDE8F087E06D40F020007F
:100CE000E06584F858500120F4E7BAF1000F09D00C
:100CF000E06D40F02000E0654FF0010984F85850A5
:100D00004846E7E71748326840F61F71002A8268B4
:100D100022F4604216D094F8383042EA43327368C5
:100D20001A438260D8F80820BB6802F0010203F081
:100D300001031A43E2D1B36832681A4383688B43D4
:100D40001A430BE08260D8F80820BB6802F0010269
:100D500003F001031A43D1D182688A438260CDE750
:100D600000010050000300502DE9F84F0027044611
:100D7000009790F85800DFF8D8930D46B846012840
:100D800011D0012684F85860206804F055F860B14D
:100D9000E06D40F02000E0655FF0010784F85880C6
:100DA0003846BDE8F88F0220FBE7D5E900210C2387
:100DB000206803EA91131844036B01F01F014FF000
:100DC0001F0C0CFA01FCC2F3846223EA0C038A4074
:100DD00013430363206804F02FF88246206804F070
:100DE00027F85AEA00003CD1AA6829682068B2F1C5
:100DF000004F37D004F030F82068416921F00041FD
:100E0000416120686969C268C2F3C1025200914021
:100E10002A69042A31D000EB82002B68026EDFF8C9
:100E200034C303F0F84302EA0C020B431A4342F0C6
:100E30000041016620682A69A96900EB8200026E00
:100E400022F080720A430266297F226828690129FC
:100E500010D0002102EB8000026E22F000720A43E3
:100E600002667DE0002203F0F7FF2068416941F04F
:100E70000041C5E74FF00071ECE7002103F0D2FF1D
:100E8000400320684FF0000172D003F0CBFF90FACE
:100E9000A0F0B0FA80F1286842036ED090FAA0F07A
:100EA000B0FA80F0814204D100221146206803F09C
:100EB000E2FF0121206803F0B5FF400320684FF0F6
:100EC00001015DD003F0AEFF90FAA0F0B0FA80F11E
:100ED0002868420359D090FAA0F0B0FA80F081421D
:100EE00004D100220121206803F0C5FF02212068FF
:100EF00003F098FF400320684FF0020148D003F050
:100F000091FF90FAA0F0B0FA80F12868420344D033
:100F100090FAA0F0B0FA80F0814204D100220221C0
:100F2000206803F0A8FF0321206803F07BFF400343
:100F300020684FF0030133D003F074FF90FAA0F063
:100F4000B0FA80F1286842032FD090FAA0F0B0FAEE
:100F500080F0814204D100220321206803F08BFF3E
:100F60002068816811F0010F22D0A8E000E004E0C1
:100F700003F058FFC0F384618DE7C0F3846091E70C
:100F800003F050FFC0F38461A2E7C0F38460A6E7DA
:100F900003F048FFC0F38461B7E7C0F38460BBE7A8
:100FA00003F040FFC0F38461CCE7C0F38460D0E776
:100FB000EB6829684B4550F8B03FC1F3120101D1ED
:100FC0000B4300E08B430360E868484577D128680D
:100FD00041031CD090FAA0F1B1FA81F1491C01F053
:100FE0001F0109294FEA403132D8002912D000BF31
:100FF00090FAA0F1B1FA81F101F1010101F01F01B4
:1010000006FA01F609D100BFC0F3846109E0C0F31C
:101010008461E3E7C0F38461EEE790FAA0F1B1FAEE
:1010200081F101F1010101F01F0146EA816102D164
:10103000C0F3846003E090FAA0F0B0FA80F000F111
:10104000010000F01F0000EB400041EA005132E0D7
:1010500000290ED090FAA0F1B1FA81F101F101015D
:1010600001F01F0106FA01F606D100BFC0F384614A
:1010700006E0C0F38461F1E790FAA0F1B1FA81F1E2
:1010800001F1010101F01F0146EA816102D1C0F3C3
:10109000846003E090FAA0F0B0FA80F000F1010063
:1010A00000F01F002C4A00EB400002EB005041EA28
:1010B000000141F00071AA68206803F0CDFE2748C6
:1010C0002A6802423FF46AAE25488168254B01F048
:1010D000E0719A4202D0244B9A421CD10B021AD4DE
:1010E0002268B2F1A04F7FF459AE826841F400014A
:1010F00022F0E0720A4382601C481D490068B0FB80
:10110000F1F0401C00EB4000800000E0401E009029
:101110000028FBD142E6174D174BAA4207D1CD015B
:1011200005D422689A42F5D041F0807109E0134D50
:10113000AA42EFD14A02EDD422689A42EAD041F4A1
:101140008001826822F0E0720A43826026E6000095
:1011500000007F4000F0FF03000020FE0000088038
:1011600000030050000021C31000C09024000020A4
:10117000400D0300000052C700010050000084CB66
:101180007047704770470000F8B54FF00005040045
:101190002E46009502D0E06D10B107E00120F8BDA9
:1011A000204600F0EFF8266684F8586020688168D1
:1011B000C1F3407119B181686A4A114081602068A9
:1011C0008168C1F3007189B98168674A114041F0B3
:1011D00080518160654866490068B0FBF1F04000CD
:1011E000801C00E0401E00900028FBD12068816830
:1011F000C1F3007141B9E16D41F01001E165216E6B
:1012000041F001012166012503F016FEE16DC906DA
:1012100000D430B1E06D40F01000E06501252846B3
:10122000F8BDE06D20F4807040F00200E0652068B9
:10123000806810F0010F11D14FF0A04080684D4937
:1012400000F00100896801F00101084306D14A4815
:101250006168826822F47C120A438260E168E06B74
:10126000627F0843A16841EA4231084394F82410A0
:1012700040EA0140012904D1218D404A02EB41415D
:101280000843E16A29B101F47871226B014342EA13
:1012900001002168CA683A4B1A400243CA602068BC
:1012A0000169626B21F0406111430161206803F024
:1012B000C3FD0646206803F0BBFD30432ED1207FDE
:1012C00094F83810800340EA41022068C16844F273
:1012D000020399431143C160206900282068016915
:1012E0000AD041F480310161206850F8C01F2269A2
:1012F0006FF30D01114307E021F480310161206893
:1013000050F8C01F6FF30D01016094F840000128F0
:101310000CD02068016921F0010101616069012898
:101320002068016B21F00F0111D013E0D4E9110105
:101330000843D4E913121143084321680A6940F2B3
:10134000FC739A43104340F001000861E6E7226A0B
:10135000521E11430163E06D20F0020040F00100D5
:10136000E0655CE7C0FFFF5FC0FFFF7F2400002057
:10137000400D030000010050000300500000FEFF7C
:101380000740F0FF2DE9F04F97B00646142111A851
:10139000FEF78AFF44216846FEF786FF4FF00051B2
:1013A00032680025454F8813454C4FF003094FF034
:1013B000800A4FF4007BB2F1A04F11D0414B9A420A
:1013C00046D10F9180460090684600F02FFE08B18C
:1013D000FFF712FC3868401C386001283BD042E01F
:1013E0000F910090684600F021FE08B1FFF704FC61
:1013F0003868401C3860012807D1E06C40F4005088
:10140000E064E06C00F400501690E06C40F00200E4
:10141000E064E06C139500F0020016904FF4A040D9
:10142000CDE9110911A9284800F0D4FB284C274820
:1014300020600520C4E901054FF40060C4E905B04F
:101440002020E0610002206220462DE07465A66243
:1014500017B0BDE8F08FE06C40F40050E064E06C41
:1014600000F400501690E06C40F00200E064E06C84
:10147000CDF8448000F00200CDE91295169011A934
:10148000114800F0A7FB1148114C14306034206063
:101490002420C4E901054FF40060C4E905B0202010
:1014A000E061000220622046C4E9035A00F0DAFA43
:1014B0000028CBD0FFF7A0FBC8E7000010000020F9
:1014C00000100240000100500004004808000240E3
:1014D000D80100202DE9F0410446344817468846DB
:1014E000806800F01F05206803F0A6FC00285AD190
:1014F00094F85800012856D0012084F8580000269E
:1015000025B1052D02D0092D00D003E02046FFF7BC
:10151000FBF918B184F85860BDE8F081E06D40F641
:101520000161884340F48070E06521492068884269
:1015300002D14FF0A04100E00146814200D01DB928
:10154000E06D20F48010E065E06DC00404D5206EED
:1015500020F00600206600E02666616D1548C8622E
:10156000616D15480863616D1448486321681C204B
:10157000086084F858602068416841F010014160BB
:101580002068C16841F00101C16021683B464246C4
:101590004031606D00F0C6FA21688A68084B1A4035
:1015A000121D8A60B8E70220B6E700000003005071
:1015B000000100500D0800088F0800087508000899
:1015C000C0FFFF7F70B54379012B15D00124447112
:1015D0000223037103681D6801F010014FF47C665B
:1015E0008E4042F08002B5438A4015431D6004716D
:1015F00000214171084670BD022070BD2DE9F04701
:101600000446407990460D4601280BD04FF0010961
:1016100084F8059002202071A96808F010060429BA
:1016200003D045E00220BDE8F08700F001FC07464A
:101630005FEA08004FF0030805D01CE000F0F8FB5B
:10164000C01B01280FD82068406B0004F6D401208D
:1016500000F0AEFA2168686A086416E000F0E8FB62
:10166000C01B012807D9206940F00800206184F8D8
:1016700004800320D7E72068406B0028EEDB0120C0
:1016800000F096FA2168686A48642068816C40F22C
:10169000FF32B2409143AA6AB2401143816420688C
:1016A000C16CFF22B2409143EA6AB2401143C16467
:1016B000E869012808D12268916B1F20B04081435E
:1016C000286AB040084390632068C06B0721B1408E
:1016D0008843A969012903D0022955D06969E9B372
:1016E00000216B69AA681A430A434FF4807101FA1A
:1016F00006F398432B79012B00D0002111434FF4BE
:10170000007202FA06F398436B79012B00D0002295
:1017100020F44047286842EA0108022836D00743EF
:10172000216808FA06F03843C863206801684FF45E
:101730008042B240914301602268116840F6FE7019
:10174000B0408143E868B0400843106020680168F9
:10175000C022B24091430160287B00E014E0297C64
:101760002268C0F3830001F03C0140EA8110116E51
:1017700040F60F73B3409943B0400143116684F8BB
:101780000490002060714EE70121AAE700F080FE7E
:101790000549884202D947F40047C1E70349884216
:1017A000BED947F48047BBE70068890900B4C40488
:1017B000006809B1006B7047C06A704770B50400DB
:1017C00003D02079002510B105E0012070BD6571BE
:1017D000204600F007F802202071256101202071C9
:1017E000002070BD10B586B0044614216846FEF78F
:1017F0005BFD1149206888421BD11048C16C41F43F
:101800008031C164C16C01F480310591C16C41F03B
:101810000101C164C06C694600F0010005903020F0
:10182000009003200190002002904FF0904000F0C3
:10183000D1F906B010BD00000008005000100240B1
:1018400018B50068C46B0090104421B114300090AA
:101850000360002018BD0830F9E72DE9F041044687
:1018600040790D46012822D04FF0010884F8058008
:101870000226267121680A6805F0100708FA07F0A9
:1018800002430A60404600F093F92068016885B180
:1018900001F47811BE40B14203D1416841F0020128
:1018A000416084F8048000206071BDE8F08102206E
:1018B000FBE7C1F344010129F3D1416841F0010183
:1018C000EEE710B590F8253000210122022B03D05D
:1018D0000421C163012122E003681C6824F00E0486
:1018E0001C60836C1C6824F480741C6003681C6892
:1018F00024F001041C6090F84430046C03F01F03D2
:1019000002FA03F36360D0E913345C60436D33B1D2
:101910001C6824F480741C60D0E916345C6080F884
:101920002520002280F82420084610BD70B590F8CC
:101930002520002401212346022A07D00422C26365
:1019400080F8251080F82430012429E00268156809
:1019500025F00E0515600268156825F00105156073
:10196000826C156825F48075156090F84420056C2C
:1019700002F01F0201FA02F26A60D0E913255560F5
:10198000426D32B1156825F480751560D0E91625D1
:10199000556080F8251080F82430816B01B18847AC
:1019A000204670BDC06B7047F0B4016C0C680168D4
:1019B0000D6890F8442002F01F06042202FA06F394
:1019C000234211D06B070FD50B689B0603D40B681D
:1019D00023F004030B6090F8441001F01F018A40CB
:1019E000016C4A60016B1DE0022303FA06F72742EF
:1019F0004FF0000C4FF0010218D0AF0716D50C685D
:101A0000A40605D40C6824F00A040C6080F8252094
:101A100090F8441001F01F018B40016C4B6080F87E
:101A200024C0C16A00291AD0F0BC08470823B3407B
:101A3000234214D02B0712D50B6823F00E030B6042
:101A400090F84410036C01F01F0102FA01F1596093
:101A5000C26380F8252080F824C0416BE2E7F0BC27
:101A60007047000070B504000CD02B4A2168142088
:101A7000914209D2294A0A44B2FBF0F08000606426
:101A800027480AE0012070BD234A52420A44B2FBB3
:101A9000F0F080006064204808382064022084F858
:101AA00025000A6847F6F0708243D4E90203184320
:101AB000D4E904352B431843A3691843E369184359
:101AC000236A1843104308602046FFF735F8A068E2
:101AD0000025B0F5804F00D16560A16C20790860C9
:101AE000D4E9130141606068401E032808D82046ED
:101AF000FFF742F8606D0560D4E91601416002E02D
:101B00006565A565E565E563012084F8250084F831
:101B10002450002070BD000008040240F8FFFDBF03
:101B20000000024070B5044690F82400002501280A
:101B30000CD0012084F8240094F825600020012EA8
:101B400006D084F824000225284670BD022070BD0E
:101B5000022684F82560E0632068066826F0010606
:101B600006602046FFF71AF8206B002820680168FD
:101B700002D041F00E0106E021F00401016020686E
:101B8000016841F00A010160A06C0168C90303D536
:101B9000016841F480710160606D18B1016841F421
:101BA000807101602068016841F001010160CBE7AC
:101BB00070B5044600F03CF90546601C02D00448AC
:101BC0004068044400F034F9401BA042FAD370BDD1
:101BD000180000202DE9F04FDFF8209200230126A5
:101BE0000324A9F1040B85B00F2709F1040AABF116
:101BF000040EFAE006FA03F52A407CD091F804C0FE
:101C00000CF0030CBCF1010F02D0BCF1020F26D185
:101C1000D0F808C0CDF800C04FEA430C04FA0CF825
:101C2000CDF810C0DDF800C02CEA080CCDF800C0DB
:101C3000D1F80C80DDF810C008FA0CF8DDF800C00F
:101C400048EA0C08C0F80880D0F804C02CEA050C5B
:101C50000D79C5F300159D4045EA0C0545600D79E9
:101C6000ED43AD070ED0C5684FEA430804FA08FCFF
:101C700025EA0C05D1F808C00CFA08FC4CEA050C62
:101C8000C0F80CC00D7905F00305022D16D1DD0852
:101C900000EB850CCDF808C0DCF820805D074FEA2A
:101CA000D56C07FA0CF528EA05080D6905FA0CF55C
:101CB000DDF808C045EA0805CCF8205005684FEA71
:101CC000430CCDF808C004FA0CFC25EA0C0591F889
:101CD00004C00CF00308DDF808C008FA0CF848EA64
:101CE0000508C0F800804D6815F4403F7CD0444D95
:101CF000D5F860C000E077E04CF0010CC5F860C09A
:101D00002D6E23F0030C05F0010500953D4D654453
:101D10000295AD684FEA837C4FEA1C7807FA08FC0D
:101D200025EA0C05B0F1904F06D0DFF8DCC0604525
:101D300005D14FF0010C20E04FF0000C1DE0DFF862
:101D4000CCC0604502D14FF0020C16E0DFF8C0C0F5
:101D5000604502D14FF0030C0FE0DFF8B8C06045DA
:101D600002D14FF0040C08E0DFF8ACC0604502D1AE
:101D70004FF0050C01E04FF0060C0CFA08FC4CEAA1
:101D8000050C029DC5F808C0D9F80050CC46D1F822
:101D9000048095435FEAC82800D51543CCF800506D
:101DA000DAF80050D446D1F8048095435FEA8828D9
:101DB00000D51543CCF80050DBF80050DC46D1F8D4
:101DC000048095435FEA883800D51543CCF800506D
:101DD000DEF80050F446D1F8048095435FEAC83835
:101DE00000D51543CCF800505B1C0A6832FA03F5A5
:101DF0007FF400AF05B0BDE8F08F0000080401409B
:101E000000100240000001400004004800080048A3
:101E1000000C004800100048001400480069084009
:101E200000D0012070470AB181617047816270471C
:101E3000014880687047000018000020024881684F
:101E400042681144816070471800002010B50024DA
:101E5000032000F073F80F2000F008F808B1012407
:101E600001E000F025F8204610BD000070B50E4ED0
:101E700005460024706898B14FF47A71B1FBF0F018
:101E80000A490968B1FBF0F000F0F7FF40B9102DE6
:101E900006D200222946501E00F030F8356000E0DE
:101EA0000124204670BD00001800002024000020FE
:101EB0000A4882B0016E41F001010166016E01F035
:101EC00001010091816D41F080518165806D00F0CC
:101ED0008050009002B000F0A1B800000010024055
:101EE000002809DB00F01F02012191404009800019
:101EF00000F1E020C0F8001170470000F0B40E4B74
:101F00001B680C46C3F30223C3F10705042D00D957
:101F10000425191D072901D2002300E0DB1E01263C
:101F200006FA05F1491E214099409E40761E164052
:101F30003143F0BC04F078BE0CED00E0064900F03F
:101F4000070208684FF6FF03184040EA0220034AE0
:101F500010430860704700000CED00E00000FA0537
:101F60002B492C4B0A6832214A432B4940B1B0F52A
:101F7000007F086829D020F4C06040F480602CE025
:101F80000868C0F34120022804D051F8800F20F4E3
:101F9000807022E0D1F8800020F48070C1F88000C9
:101FA000086820F4C06040F400700860B2FBF3F0F1
:101FB000401C00E0401E4A69520501D50028F9D1B5
:101FC000486940050AD503207047C0F34120022824
:101FD00006D051F8800F40F48070086000207047F0
:101FE000D1F8800040F48070C1F88000086820F4C7
:101FF000C06040F400700860B2FBF3F0401C00E0E9
:10200000401E4A695205DBD50028F9D1D8E7000007
:102010002400002040420F00007000400248816808
:1020200041F4804181607047007000402DE9F84321
:102030000446006800269D4D00035ED5A86D00276C
:10204000C00008D4A86D40F08050A865A86D012795
:1020500000F080500090DFF85892D9F8001041F459
:102060008071C9F80010FFF7E3FE804606E000BF6C
:10207000FFF7DEFEA0EB080002282BD8D9F80000FD
:10208000C005F5D5D5F8900010F4407014D0216C3F
:10209000814211D0D5F89000D5F8901020F440700E
:1020A00041F48031C5F89010D5F8901021F48031BA
:1020B000C5F89010C5F89000C00711D0FFF7B8FE22
:1020C000804641F2883907E0FFF7B2FEA0EB080135
:1020D000494501D903260BE0D5F890008007F3D5D8
:1020E000D5F89000216C20F440700843C5F89000AA
:1020F0001FB1A86D20F08050A8652078C00707D0D8
:10210000D5F88800616820F003000843C5F888000E
:102110002078800707D5D5F88800A16820F00C004A
:102120000843C5F888002078400707D5D5F888000F
:10213000E16820F030000843C5F8880020780007E7
:1021400007D5D5F88800216920F0C0000843C5F8FC
:1021500088002078800607D5D5F88800616920F4CA
:1021600040600843C5F888002078400607D5D5F8B8
:102170008800A16920F440500843C5F88800207801
:10218000000607D5D5F88800E16920F440400843EF
:10219000C5F888002088C00507D5D5F88800216AD1
:1021A00020F440300843C5F888002088800507D512
:1021B000D5F88800616A20F440200843C5F88800FB
:1021C000208840050FD5D5F88800A16A20F440107A
:1021D0000843C5F88800A06AB0F5801F03D1E868FD
:1021E00040F48010E860208800050FD5D5F88800FD
:1021F000E16A20F440000843C5F88800E06AB0F5C1
:10220000800F03D1E86840F48010E8602088C004A3
:102210000FD5D5F88800216B20F040700843C5F831
:102220008800206BB0F1807F03D1E86840F4801013
:10223000E86020884FF0006180040ED5D5F8880052
:10224000626B20F040601043C5F88800606B8842E4
:1022500003D1E86840F48010E860208840040ED57F
:10226000D5F88800A26B20F040601043C5F88800C4
:10227000A06B884203D1E86840F48010E8602088B1
:1022800000040FD5D5F88800E16B20F040500843DA
:10229000C5F88800E06BB0F1805F03D1E86840F4D6
:1022A0008030E8603046BDE8F8830000001002404E
:1022B000007000402DE9F0470E4605004FF0000782
:1022C00025D0DFF8AC81D8F8000000F00F00B04254
:1022D0000CD2D8F8001021F00F013143C8F80010DB
:1022E000D8F8000000F00F00B04210D12968614C0E
:1022F000C80741F2883A5AD06868DFF87C91032811
:1023000008D0022820682DD0400500282CDB0120B1
:10231000BDE8F08720688001F9D5E06800F003028D
:10232000E068C0F30310401C032A19D0534A00BFD1
:10233000B2FBF0F0E268C2F306225043E268C2F357
:102340004162521C5200B0FBF2F0484517D9A06818
:1023500010F0F00F0CD0880711D5A86840B10EE03E
:10236000474AE5E78003D0E700F0BCF8484506D9C6
:10237000A06820F0F00040F08000A0608027A068F6
:10238000696820F003000843A060FFF751FD814613
:1023900006E000BFFFF74CFDA0EB090151453AD81C
:1023A000A068696800F00C00B0EB810FF2D12868DA
:1023B000810714D5400703D5A06840F4E060A06011
:1023C0002878000705D5A06820F4605040F4E0604C
:1023D000A060A068A96820F0F000084304E0802F06
:1023E00003D1A06820F0F000A060D8F800104046AB
:1023F00001F00F01B14216D9016821F00F013143FC
:102400000160FFF715FD074607E000BFFFF710FD6D
:10241000C11B514501D903207AE7D8F8000000F02C
:102420000F00B042F2D12878400705D5A068E968CE
:1024300020F4E0600843A0602878000706D5A06873
:10244000296920F4605040EAC100A06000F04AF819
:10245000A1680C4AC1F30311515C01F01F01C8408F
:102460000949086009480068BDE8F047FFF7FEBC6D
:10247000002002400010024000B4C4040024F40014
:1024800000366E01F07C00082400002018000020B7
:1024900001480068704700002400002005480649F4
:1024A00000688968054AC1F30221515C01F01F01EF
:1024B000C84070472400002000100240007D000842
:1024C0000548064900688968054AC1F3C221515C84
:1024D00001F01F01C8407047240000200010024096
:1024E000007D0008184910B58868C0F381021748BC
:1024F000012A0BD08A68164BC2F38102022A06D049
:102500008A68C2F38102032A03D0002010BD184656
:1025100010BDCA6802F00304CA68C2F30312521C59
:10252000032C02D0B0FBF2F001E0B3FBF2F0CA687A
:10253000C968C2F306225043C1F34161491C4900F6
:10254000B0FBF1F010BD0000001002400024F400C8
:1025500000366E012DE9F84304007AD02078FA4D58
:10256000C00747D0A868E96800F00C0001F003013B
:102570000C2802D0082817D001E0032914D0606885
:10258000B0F5803F17D0B0F5A02F286817D020F401
:1025900080302860286820F4802028606068E0B1DE
:1025A000FFF746FC064614E02868800322D56068E1
:1025B0000028D2D01EE0286840F48030EDE740F4D7
:1025C00080202860F7E700BFFFF732FC801B6428FB
:1025D00070D828688003F7D50CE0FFF729FC064681
:1025E00005E000BFFFF724FC801B6428F0D82868B2
:1025F0008003F7D4207880074CD5A868E96800F0FC
:102600000C0001F003010C2802D004280DD001E0D9
:1026100002290AD0E068002828682BD040F4807096
:102620002860FFF705FC064619E02868400502D53A
:10263000E068002891D06868217C20F0FE4040EAE4
:1026400001606860C1480068FFF710FC002800D1F5
:1026500020E076E1FFF7ECFB801B0228B8D8286861
:102660004005F7D56868217C20F0FE4040EA016013
:1026700068600FE020F480702860FFF7D9FB064601
:1026800005E000BFFFF7D4FB801B0228A0D8286814
:102690004005F7D42078000729D560690028D5F8CF
:1026A000940013D040F00100C5F89400FFF7C0FB80
:1026B000064606E090E000BFFFF7BAFB801B022849
:1026C00086D8D5F894008007F6D510E020F00100F8
:1026D000C5F89400FFF7ACFB064604E0FFF7A8FB43
:1026E000801B022878D8D5F894008007F6D420788B
:1026F000400761D5A86D0026C00008D4A86D40F041
:102700008050A865A86D012600F080500090904888
:102710000168C90511D40168804641F480710160E7
:10272000FFF786FB074604E0FFF782FBC01B022889
:1027300052D8D8F80000C005F6D5A068012815D0F9
:102740000528D5F8900016D020F00100C5F89000BB
:10275000D5F8900020F00400C5F89000A06841F280
:102760008838B8B1FFF764FB07460EE0D5F8900053
:1027700040F00100F0E740F00400C5F89000F5E7F4
:10278000FFF756FBC11B414526D8D5F890008007BE
:10279000F6D50CE0FFF74CFB074604E0FFF748FBDB
:1027A000C11B414518D8D5F890008007F6D41EB15A
:1027B000A86D20F08050A8652078800629D5A069F2
:1027C0000028D5F8980013D040F00100C5F8980013
:1027D000FFF72EFB064606E077E000BFFFF728FB79
:1027E000801B022877D8D5F898008007F6D510E02E
:1027F00020F00100C5F89800FFF71AFB064604E038
:10280000FFF716FB801B022865D8D5F898008007D3
:10281000F6D4E069F0B3A968C1F38101032961D05E
:102820000228286820F0807028600BD0E86820F02B
:102830000300E860E86847490840E860FFF7F8FAF5
:1028400004464BE0FFF7F4FA064604E0FFF7F0FA1F
:10285000801B02283FD828688001F7D4F4E90801DA
:102860006FF00F0202EB01110843218A520449085C
:1028700002EB4151A26841EA02210843217D4FF059
:102880007E42490802EB41610843217B40EAC16076
:10289000E96800E062E0304A11400843E8602868D7
:1028A00040F080702860E86840F08070E860FFF7D2
:1028B000BFFA044605E000BFFFF7BAFA001B022882
:1028C00009D828688001F7D548E004E0FFF7B0FA9E
:1028D000001B022802D90320BDE8F8832868800184
:1028E000F4D43BE00128F7D0E868226A00F0030145
:1028F000914226D1616A00F0F0020901103991423B
:102900001FD1A26A00F4FE41B1EB022F19D194F855
:102910002C2000F07841B1EBC26F12D1218E00F46F
:10292000C00249084905A1F50011914209D194F866
:10293000341000F0C06049084906A1F100718142DD
:102940000CD00120C8E70000001002401800002051
:1029500000700040FFFFEEFE0C809F010020BBE7EF
:102960007047000005490120087005490002886190
:102970000A2200210846FEF747B8000000000020A8
:10298000007000402DE9F04104460068456D0D4F90
:10299000E9074FF001084FF4003605D0C0F85C801D
:1029A0003E602046FFF7DEFFA80706D5216802201B
:1029B000C8653E602046FFF7D3FF84F82580BDE858
:1029C000F08100001404014010B500680B46416816
:1029D0000D480140080CD870C1F304245C7001F06C
:1029E0003F049C70C1F34231197052B903F080F971
:1029F000D870587803F07CF95870987803F078F91B
:102A00009870002010BD00003FFFFF0010B50B467E
:102A100001688968596001680969C1F30E0199600C
:102A2000006801680D480140C1F305401870C1F30A
:102A300006245C7001F07F049C70890DD97052B936
:102A400003F056F91870587803F052F958709878D6
:102A500003F04EF99870002010BD00007F7F7F00CA
:102A600070B504004FF0010040D094F8250028B95B
:102A7000002084F82400204600F03CF8022084F86E
:102A800025002168CA2048622168532048622046F8
:102A900003F044F910BB20688169154A1140816137
:102AA000216888696268A369104322691A43104348
:102AB00088612189E06840EA014021680861204678
:102AC00003F051F950B9D4E9072111432268636931
:102AD000956925F060452B43194391612268FF21D8
:102AE0005162002802D1012184F8251070BD000038
:102AF000BFFF8FFB10B592B0044644216846FDF736
:102B0000D3FB14492068884221D14FF40020009063
:102B1000801210906846FFF789FA08B1FEF76CF84A
:102B20000D4850F8901F41F4004140F838190168F1
:102B300041F4806101600068002200F4806011901F
:102B400001212920FFF7DAF92920FFF7C9F912B08E
:102B500010BD000000280040001002402DE9F05F89
:102B6000044690F824000B46012844D04FF0010998
:102B700084F824904FF0020A84F825A020680026EB
:102B800080694FEA4060AAB3002800DBDE709878C5
:102B90001978DA7840EA01405978090241EA82510D
:102BA000084393F8201040EA0165D8695F6805433F
:102BB00058692168054398690743CA20486221681B
:102BC000532048625A6A4349B2F5807F22684FF425
:102BD00000304FF0FF0893694FF47A7B28D023F43C
:102BE000085393612368C3F85CA00860FFF720F9DD
:102BF00082464CE002E00220BDE8F09F002800DBA6
:102C0000DE70187803F07DF80504587803F079F841
:102C100045EA0025987803F074F80543D87845EA2A
:102C2000805593F8200003F06CF845EA0065BCE796
:102C300023F4885393612368C3F85C900860FFF71E
:102C4000F7F8824606E000BFFFF7F2F8A0EB0A00B3
:102C5000584513D82068C068C007F5D020680564BF
:102C6000206847642068816941F488511BE000BFF7
:102C7000FFF7DEF8A0EB0A00584508D92168C1F833
:102C80002480032084F8250084F82460B4E72068B9
:102C9000C0688007ECD5206885642068C764206818
:102CA000816941F4085181610A481438016841F48E
:102CB0000031016007480C38016841F400310160BF
:102CC0002168C1F8248084F8259084F824600020CD
:102CD00092E700001404014070B5044690F8240007
:102CE0000B4601281BD0012684F82460022084F8BA
:102CF0002500B2B19878D97840EA0145587819781A
:102D0000000240EA413005432168CA204862216838
:102D100053204862204603F001F8D0B120E00220A1
:102D200070BD5878C10603D500F0EF000A30587026
:102D3000D87802F0E6FF0504587802F0E2FF45EA91
:102D40000025987802F0DDFF0543187845EA403504
:102D5000DAE70848054020684560204603F003F89C
:102D60002268FF21516208B984F82560002184F8A7
:102D7000241070BD3FFFFF002DE9F041044690F89C
:102D8000240090460D46012811D0012784F82470B4
:102D9000022084F825002168CA2048622168532057
:102DA0004862204602F0BAFF002618B129E002204E
:102DB000BDE8F0812068B8F1000F80694FEA4060FB
:102DC00024D0002800DBEE70A8782978EA7840EA61
:102DD00001406978090241EA8251084318490840D4
:102DE000216808602068816921F480218161D5E92A
:102DF0000301084321688A6910438861204602F074
:102E0000B2FF2268FF215162A0B115E0002800DB6B
:102E1000EE70287802F075FF0304687802F071FF05
:102E200043EA0023A87802F06CFF0343E87843EA02
:102E30008050D3E784F8257084F82460B8E7000058
:102E40007F7F7F0070B504460068C16821F02001D3
:102E5000C160FEF7EDFF05464FF47A7607E000BF4C
:102E6000FEF7E6FF401BB04201D9032070BD206889
:102E7000C0688006F4D5002070BD10B5401EB0F1CA
:102E8000807F01D3012010BD4FF0E02460610F214D
:102E9000601703F0C9FE0020A06107202061002018
:102EA00010BD704770477047F0B590F83C20012A7C
:102EB0004AD0012280F83C20CA688B6822F4407214
:102EC0001A434B6822F480621A430B6822F40062B2
:102ED0001A430B6922F480521A434B6922F40052C0
:102EE0001A430B6B22F480421A430B8B22F470229C
:102EF00042EA0342154C03680026154DA34201D057
:102F0000AB4203D1CF6922F080523A43A34201D0B1
:102F1000AB4214D10F8D22F4700242EA07520F6ABD
:102F200022F080723A434F6A22F000723A43A34281
:102F300001D0AB4203D1C96A22F000520A435A645D
:102F400080F83C600020F0BD0220F0BD002C014064
:102F5000003401407047704770470000F0B590F8AA
:102F60003C20012A3AD0012580F83C50022280F80A
:102F70003D2003685A689C68194E1A4FB34201D02D
:102F8000BB4204D122F4700C4A6842EA0C02DFF81A
:102F900058C002EA0C02D1F800C04CEA020CC3F897
:102FA00004C00268B2420DD0B2F1804F0AD00F4B7C
:102FB0009A4207D00E4B9A4204D0BA4202D00D4B2F
:102FC0009A4204D1896824F080031943916080F803
:102FD0003D50002180F83C100846F0BD0220F0BDB5
:102FE000002C0140003401408FFFFFFD0004004031
:102FF0000008004000400140704710B5040003D0B5
:1030000094F83D0010B107E0012010BD002084F8C5
:103010003C00204600F022F8022084F83D00211DEB
:10302000206802F073FF012084F8480084F83E0015
:1030300084F83F0084F8400084F8410084F842009E
:1030400084F8430084F8440084F8450084F846007E
:1030500084F8470084F83D00002010BD10B586B00C
:10306000044614216846FDF71FF94B4A21684B4876
:10307000914207D1016E41F400610166006E00F4D7
:10308000006069E000230222B1F1804F26D0444C59
:10309000A14245D1816D41F002018165816D01F050
:1030A00002010591C16C41F00201C164C06CCDE91F
:1030B000022300F0020005901020CDE900026946CD
:1030C00038480492FEF786FD002204211D20FEF7F9
:1030D00015FF1D20FEF704FF06B010BD816D41F005
:1030E00001018165816D01F001010591C16C41F023
:1030F0000101C164C06C694600F001000590062022
:103100008DE80D000120CDE903304FF09040FEF72F
:1031100061FD002205211C20FEF7F0FE1C20D9E7EE
:10312000214A91420ED1816D41F004018165806D8B
:10313000002200F00400059003211E20FEF7DEFEB1
:103140001E20C7E7194A914208D1816D41F0100154
:103150008165806D00F010000590BDE7144A914232
:103160000ED1816D41F020018165806D002200F05B
:103170002000059011463720FEF7C0FE3720A9E752
:103180000C4A9142A8D1016E41F400510166006ED3
:1031900000F40050E0E70000002C01400010024065
:1031A00000040040000400480008004000100040F7
:1031B000001400400034014090F83D10012901D076
:1031C00001207047022180F83D1000680F498842B5
:1031D0000ED0B0F1804F0BD00D49884208D00D4978
:1031E000884205D00C49884202D00C49884207D158
:1031F00081680B4A1140062906D0B1F5803F03D003
:10320000016841F00101016000207047002C01407D
:10321000000400400008004000340140004001402C
:103220000700010090F83D10012901D001207047EE
:10323000022180F83D100168CA6842F00102CA60AC
:103240000068104988420ED0B0F1804F0BD00E4973
:10325000884208D00D49884205D00D49884202D0E5
:103260000C49884207D181680B4A1140062906D0D3
:10327000B1F5803F03D0016841F0010101600020F9
:1032800070470000002C014000040040000800408E
:1032900000340140004001400700010070B50446C1
:1032A00090F83C000025012814D0012684F83C60E9
:1032B000022084F83D0022689068364B184020F4C4
:1032C0007F409060086870282ED010DC10F00F0F3F
:1032D00003D021E04FF0020070BD4FEA2012072A10
:1032E0001AD2DFE802F0525252524A3840002A4BBA
:1032F000C21A984249D009DCB0F5805F0DD0B0F514
:10330000005F1CD0B0F1101F06D13EE0102A3CD067
:10331000202A3AD0502A38D0012584F83D60002078
:1033200084F83C00284670BDCB68D1E901212068B3
:1033300002F051FE2068816841F0770109E0CB6816
:10334000D1E90121206802F046FE2068816841F43D
:1033500080418160E1E7CA684968206802F0E6FFC1
:103360005021206806E0CA684968206803F026F802
:103370006021206802F03AFECFE7CA6849682068F9
:1033800002F0D4FF40212068F4E72268014610468D
:10339000F0E7000088FFCEFF200010002DE9F05F6D
:1033A000444D0226444C07464FF003084FF00409F1
:1033B0004FF0000B4FF0050AA8423DD1387F02289C
:1033C00035D14207284621783C4B0068012906D0B8
:1033D000022908D0032911D004291DD02CE0267021
:1033E000916B19600EE084F80080916B5960016A5E
:1033F00021F0A00101622868016A0BE084F80090C6
:10340000916B9960016A21F0A00101622868016A4C
:1034100041F0200101620AE084F800A0906BD860BE
:103420000421244800F0AAF92968C1F824B0387FA3
:10343000042801D101F0D0FC214DAF4218D1387FD2
:10344000012815D120781F491F4A012812D00228CF
:1034500014D003281FD004280AD184F800A00868DB
:10346000D0600021284600F089F92968C1F824B00D
:10347000BDE8F09F26700868106010E084F80080B6
:10348000086850602868016A21F00A010162286812
:10349000016A0162ECE784F800900868906028688F
:1034A000016A21F00A0101622868016A41F0020103
:1034B000EFE700002003002002000020D0000020E1
:1034C0006C03002034040040E80000202DE9F041A6
:1034D000054690F83C0000260C46012810D001203B
:1034E00085F83C0072B1042A1CD0082A2CD00C2A82
:1034F00050D00126002085F83C003046BDE8F08120
:103500000220FBE7D4E90012E368286802F020FFFC
:103510002868816921F00C01816128688169A268AD
:1035200011430FE0D4E90012E368286802F058FF65
:103530002868816921F44061816128688169A268F5
:1035400041EA02218161D5E72868D4E9002C277B74
:10355000016A21F480710162C169036A21F00301EB
:1035600041EA0C0121F0F00C39074FF420674CEAD6
:10357000116123F4206307EA02221A43C161026247
:103580002868C16921F00C01C1612868C169A2687D
:10359000114328E02868D4E90027E168036A23F48E
:1035A00080530362D0F81CC0036A2CF4407C4CEAC0
:1035B00007274FF6FF7C27F470470CEA01313943A7
:1035C0004FF4204723F4204307EA02321A43C16133
:1035D00002622868C16921F44061C1612868C1693B
:1035E000A26841EA0221C16184E710B5040003D05A
:1035F00094F83D0010B107E0012010BD002084F8D0
:103600003C00204600F022F8022084F83D00211DF5
:10361000206802F07BFC012084F8480084F83E001A
:1036200084F83F0084F8400084F8410084F84200A8
:1036300084F8430084F8440084F8450084F8460088
:1036400084F8470084F83D00002010BD704700005A
:1036500030B50446002571B1042911D0082914D0D1
:103660000C2917D0102918D094F8430094F847205B
:10367000012817D114E094F83E0094F84420F7E7AD
:1036800094F83F0094F84520F2E794F8400094F84D
:103690004620EDE794F84100E8E794F84200E5E7BA
:1036A000012A01D0012030BD022079B1042916D0B1
:1036B00008291DD00C2949D010294AD084F843008C
:1036C00084F847000C2947D001253DE084F83E00EE
:1036D00084F844002068C26842F0020210E084F8D6
:1036E0003F0084F845002068C26842F0040207E009
:1036F00084F8400084F846002068C26842F008025E
:10370000C2600122206802F059FC164920688842F4
:103710000ED0B0F1804F0BD01349884208D0134926
:10372000884205D01249884202D01249884207D106
:103730008168114A1140062906D0B1F5803F03D0B7
:10374000016841F001010160284630BD84F8410064
:10375000B6E784F84200B3E72068C26842F010027E
:10376000CEE70000002C01400004004000080040AB
:1037700000340140004001400700010070B50D0019
:1037800004464FF0000607D0042D0AD0082D0DD0B6
:103790000C2D10D0012635E02068C16821F002010F
:1037A0000DE02068C16821F0040108E02068C168CC
:1037B00021F0080103E02068C16821F01001C16018
:1037C00000222946206802F0F9FB2068016A41F2D4
:1037D0001112114207D1016A9200114203D101680E
:1037E00021F001010160012075B1042D0FD0082DD9
:1037F00010D00C2D12D0102D13D084F8430000BF30
:1038000084F84700304670BD04F83E0F04E004F829
:103810003F0F01E004F8400FA071F3E784F8410086
:10382000EEE784F84200EBE770B5044600680169F2
:103830004FF00005C943890715D4C168C9438907FA
:1038400011D4E91E0161012020772068806980077A
:10385000204602D0FFF7A2FD04E000F05DF920460B
:1038600000F018FB257720680169C943490717D480
:10387000C168C943490713D46FF0040101610220F4
:1038800020772068806910F4407F204602D0FFF73F
:1038900085FD04E000F040F9204600F0FBFA2577B2
:1038A00020680169C943090716D4C168C9430907DB
:1038B00012D46FF008010161042020772068C069EC
:1038C0008007204602D0FFF769FD04E000F024F9EC
:1038D000204600F0DFFA257720680169C943C90650
:1038E00017D4C168C943C90613D46FF01001016130
:1038F000082020772068C06910F4407F204602D05D
:10390000FFF74CFD04E000F007F9204600F0C2FA92
:10391000257720680169C943C90708D1C168C9432F
:10392000C90704D1891E0161204600F033FB2068DD
:103930000169C943090609D4C168C943090605D408
:103940006FF0800101612046FFF7ACFA2068016941
:10395000C943C90509D4C168C943090605D46FF430
:10396000807101612046FFF79CFA20680169C94314
:10397000490609D4C168C943490605D46FF040011E
:103980000161204600F062FB20680169C943890695
:1039900009D4C168C943890605D46FF020010161CB
:1039A0002046FFF780FA20680169C943C90209D49B
:1039B000C168C943C90205D46FF480110161204672
:1039C000FFF7C9FA20680169C943890209D4C168AF
:1039D000C943890205D46FF4001101612046FFF745
:1039E000B9FA20680169C943490209D4C168C943C9
:1039F000490205D46FF4800101612046FFF7ACFA5B
:103A000020680169C94309020BD4C168C94309028E
:103A100007D46FF4000101612046BDE87040FFF754
:103A2000EBBA70BD10B586B0044614216846FCF7A9
:103A30003BFC2368184C002118480222A34213D1F2
:103A4000C36C43F00103C364C06C00F00100059037
:103A50004FF4C0500090CDE901210A20CDE90310B8
:103A600069464FF0904013E00D4CA34212D1C36C55
:103A700043F00403C364C06C00F004000590C02050
:103A80000090CDE901210420CDE9031069460548E5
:103A9000FEF7A0F806B010BD00080040001002407C
:103AA000003401400008004870B5044690F83C001E
:103AB000002501280BD0012084F83C000C2A1ED0E0
:103AC00007DC82B1042A12D0082A06D113E00220B2
:103AD00070BD102A17D0142A19D00125002084F8AF
:103AE0003C00284670BD206802F08AFAF6E720689C
:103AF00002F0D4FAF2E7206802F018FBEEE7206843
:103B000002F05CFBEAE7206802F0A0FBE6E7206831
:103B100002F0D4FBE2E7000070B5174A904229D1C9
:103B2000037F1649012B11D10B460D781C691346F2
:103B3000002D1B685D6B03D02C445C63002304E004
:103B40008E68341B2C445C6301230B70007F0228B9
:103B500010D14B7809481268002B4069936B03D051
:103B600018449063002004E0CC68201A1844906345
:103B70000120487070BD0000B80300207C000020C8
:103B800010B5040003D094F83D0010B107E0012007
:103B900010BD002084F83C00204600F022F80220EE
:103BA00084F83D00211D206802F0B0F9012084F85E
:103BB000480084F83E0084F83F0084F8400084F810
:103BC000410084F8420084F8430084F8440084F8FB
:103BD000450084F8460084F8470084F83D00002042
:103BE00010BD704770B500250446022269B1042952
:103BF00016D0082955D00C295ED0102963D094F82E
:103C00004300012866D0012070BD94F83E000128D1
:103C1000F9D184F83E202068C26842F0020209E02F
:103C200094F83F000128EED184F83F202068C26854
:103C300042F00402C2600122206802F0BFF92B4961
:103C400020682B4A2B4B884209D0904207D09842DB
:103C500005D0294EB04202D0284EB04203D1466C66
:103C600046F400464664206888420CD0B0F1804F8C
:103C700009D02349884206D02249884203D0904285
:103C800001D0984207D181681F4A1140062906D009
:103C9000B1F5803F03D0016841F001010160284681
:103CA00070BD94F840000128ADD184F84020206810
:103CB000C26842F00802BDE794F841000128A2D191
:103CC00084F8412008E094F8420001289BD184F850
:103CD000422003E084F843200C2901D00125DEE7CF
:103CE0002068C26842F01002A4E70000002C0140E6
:103CF00000340140004001400044014000480140C0
:103D000000040040000800400700010070B50446B0
:103D100090F83C0000260D4601280BD0012084F8C5
:103D20003C000C2A4AD007DC82B1042A20D0082AA1
:103D300006D131E0022070BD102A53D0142A63D07E
:103D40000126002084F83C00304670BD206802F057
:103D500057F92068816941F0080181612068816913
:103D600021F004018161206881692A69114311E011
:103D7000206802F093F92068816941F40061816153
:103D80002068816921F480618161206881692A69E4
:103D900041EA02218161D4E7206802F0C7F9206876
:103DA000C16941F00801C1612068C16921F00401C5
:103DB000C1612068C1692A69114311E0206802F0DD
:103DC000FDF92068C16941F40061C1612068C169E1
:103DD00021F48061C1612068C1692A6941EA022138
:103DE000C161AEE7206802F031FA2068016D41F050
:103DF000080101652068016D21F00401016520685A
:103E0000016D2A69114311E0206802F057FA206819
:103E1000016D41F4006101652068016D21F480614C
:103E200001652068016D2A6941EA0221016588E780
:103E300010B5040003D094F83D0010B107E0012054
:103E400010BD002084F83C00204600F022F802203B
:103E500084F83D00211D206802F058F8012084F804
:103E6000480084F83E0084F83F0084F8400084F85D
:103E7000410084F8420084F8430084F8440084F848
:103E8000450084F8460084F8470084F83D0000208F
:103E900010BD70477047000030B50446022269B17A
:103EA000042912D0082917D00C291CD0102921D0A0
:103EB00094F84300012824D0012030BD94F83E003E
:103EC0000128F9D184F83E201DE094F83F00012834
:103ED000F2D184F83F2016E094F840000128EBD19D
:103EE00084F840200FE094F841000128E4D184F8E0
:103EF000412008E094F842000128DDD184F84220F6
:103F000001E084F843200122206802F057F8194BA1
:103F100020681949194A984209D0884207D090422E
:103F200005D0174DA84202D0164DA84203D1456CCA
:103F300045F400454564206898420CD0B0F1804FAC
:103F400009D0114B984206D0104B984203D08842BA
:103F500001D0904207D181680D4A1140062906D050
:103F6000B1F5803F03D0016841F0010101600020FC
:103F700030BD0000002C01400034014000400140F1
:103F80000044014000480140000400400008004097
:103F9000070001002DE9F0412649884247D1264813
:103FA00001228188491C8FB28780C188491C1FFA71
:103FB00081FCA0F806C00189491C8DB205814189A8
:103FC000491C8CB244818189491C8BB28381C1898F
:103FD000491C8EB20021C681BCF10A0F01D1C180FB
:103FE0008270642F07D1DFF854C081809CF8007084
:103FF0007F1C8CF80070C82E01D1C181C270322D97
:1040000001D101810270502C01D141814270B3F580
:104010007A7F0CD18181002209490A48FEF7F6FC1B
:10402000BDE8F041002208490648FEF7CDBCBDE8D6
:10403000F081000050040020360000202F000020F6
:10404000BC000020AC02002004000020704790F863
:104050008010012918D0012180F880102421C0F897
:10406000841050F8641B0A680B6823F001030B608E
:1040700022F000510022026050F8643C19602021B7
:104080000162027710467047022070477047704700
:1040900070B5044690F8800001281DD0012084F8F6
:1040A00080002420C4F8840020680568026822F09B
:1040B000010202602068826822F060620A43826026
:1040C000204602F0E5F9206805602020C4F884004D
:1040D000002084F8800070BD022070BD70B50446D9
:1040E00090F8800001281DD0012084F88000242051
:1040F000C4F8840020680568026822F001020260AA
:104100002068826822F060420A438260204602F002
:10411000BFF9206805602020C4F88400002084F8DE
:10412000800070BD022070BD7047704770B50446B6
:10413000D0F88400D4F88860216889684FF01005B1
:10414000090618D5212816D12068083050E8001F2C
:1041500021F0800140E80012002AF5D1A06F38B1AB
:10416000FDF7AFFB20B1A06FFDF71CFC202821D08C
:10417000204602F015FB20688068400618D5222EE4
:1041800016D12068083050E8001F21F0400140E8B7
:104190000012002AF5D1E06F38B1FDF792FB20B193
:1041A000E06FFDF7FFFB202804D0204602F0CEFA96
:1041B000002070BDC4F88C50032070BD7047000013
:1041C0002DE9F04103680446D86919689A6840F6F9
:1041D0000F0528424FF0000509D186067ED501F073
:1041E000200602F080573E4378D0216F27E1A94E88
:1041F000A94F16400F40374370D0C70709D0CF05ED
:1042000007D501271F62D4F88C3043F00103C4F8AE
:104210008C3083070AD5D30708D0276802233B6276
:10422000D4F88C3043F00403C4F88C3043070AD52B
:10423000D30708D0276804233B62D4F88C3043F0BE
:104240000203C4F88C3003070CD501F0200333437C
:1042500008D0266808233362D4F88C3043F0080372
:10426000C4F88C3003050BD54B0109D526684FF4F3
:1042700000633362D4F88C3043F02003C4F88C30F0
:10428000D4F88C30002B3AD0800609D501F02000FC
:1042900002F08051084303D0216F09B120468847BE
:1042A000D4F88C0021688968490602D410F0280FE0
:1042B00027D0204602F04AFA2068806840061BD5C5
:1042C0002068083050E8001F21F0400140E800124B
:1042D000002AF5D1E06F78B1704900E017E0816302
:1042E000E06FFDF723FB002809D0E06F816B00E051
:1042F0002046BDE8F04108472046FFF75FFFBDE8D4
:10430000F0812046FFF75AFFC4F88C50F7E7E76EBC
:104310002026012F7ED1C7067CD5CF067AD5102066
:10432000186220688068400642D5E16F08684068DE
:104330000004000CE3D0B4F85C208242DFD9A4F87A
:104340005E000868006880062BD4206850E8001FD3
:1043500021F4807140E80012002AF6D1206808306C
:1043600050E8001F21F0010140E80012002AF5D1B9
:104370002068083050E8001F21F0400140E800129A
:10438000002AF5D1C4F88860E566216851E8000F7D
:1043900020F0100041E80002002AF6D1E06FFDF79E
:1043A00090FAB4F85C00B4F85E10401A81B22CE0C8
:1043B000B4F85C00B4F85E10401A81B2B4F85E0044
:1043C00000289CD000299AD0226852E8000F20F4DF
:1043D000907042E80003002BF6D12E4BDB4320689F
:1043E000083050E8002F1A4040E80027002FF6D18F
:1043F000C4F88860E5662567226852E8000F20F05F
:10440000100042E80003002BF6D12046FFF73EFEE5
:1044100075E7FFE7C70209D5570207D54FF48010AB
:1044200018622046BDE8F041FFF77FBE03060AD5BB
:1044300001F0800302F40002134304D0616F0029ED
:104440007FF456AF5BE7420611D54A060FD52046EA
:10445000016851E8002F22F0400241E80023002BC0
:10446000F6D1C0F88460456700F04AF947E70202D8
:1044700006D54A0004D52046BDE8F041FFF754BEFA
:10448000C001C5D50029C3DA2046BDE8F041FFF7D9
:10449000FEBD00000100001020010004FD650008C1
:1044A00010B5040003D0D4F8840010B107E0012057
:1044B00010BD002084F88000204600F027F824205A
:1044C000C4F884002068016821F0010101602046E1
:1044D00002F07EF90128EBD0A06A10B1204601F06D
:1044E000F9FF2068416821F49041416020688168AB
:1044F00021F02A0181602068016841F0010101601A
:104500002046BDE8104002F049B800002DE9F04116
:1045100098B00646142111A8FBF7C6FE4421684650
:10452000FBF7C2FE3349306888425FD10120002486
:10453000CDE900046846FDF779FD08B1FCF75CFBA6
:104540002D48016E41F480410166016E01F4804105
:104550001691C16C41F00101C164C06C11A900F059
:10456000010016904FF4C06011900220CDE91204B2
:104570000720CDE914404FF09040FDF72BFB204D74
:104580001E4805F1080128601920686010204FF0CE
:10459000800881E811016C610702AC61C5E9074739
:1045A0002846FDF75FFA08B1FCF726FBB567AE6257
:1045B000134D12486035143028601820C5E90104F5
:1045C000C5E903486C61AC61C5E907472846FDF7BA
:1045D00049FA08B1FCF710FBF567002202212520FB
:1045E000AE62FDF78BFC2520FDF77AFC18B0BDE824
:1045F000F08100000038014000100240300002400D
:10460000CC05002030B4D0F88830202B20D1E1B187
:10461000DAB190F88030012B1AD0012380F8803075
:104620000023C3660B4C0368A3420BD05B681B02DC
:1046300008D5046854E8003F43F0806344E800353F
:10464000002DF6D130BC02F0FDB9012030BC70471E
:104650000220FBE7008000407047704770B50446B9
:10466000D0F88400202842D171B36AB394F8800056
:1046700001283CD0012084F880002165A4F8542052
:10468000A4F856200025C4F88C502120C4F88400DA
:10469000A06FD8B11749C162A16F174813460863CC
:1046A000A16F16484863A06F85632668216D06F1E7
:1046B0002802A06FFDF736FA40B11020C4F88C0034
:1046C00004F8805F20206060012070BD21684020D8
:1046D000086284F880502068083050E8001F41F0DC
:1046E000800140E80012002AF5D1002070BD0220B0
:1046F00070BD0000FF6600084167000811660008F1
:1047000070477047FEE7000000B585B01421684689
:10471000FBF7CAFDC020009001200190029002200A
:10472000039069460248FDF755FA05B000BD000048
:104730000004004870B50446082516E001F03CFB73
:10474000142002F0DBFE04F0800001F063FB142073
:1047500002F0D4FE6006040E142002F0CFFE012009
:1047600001F02AFB142002F0C9FE6D1EEDB24FF0DD
:104770000000E3D201F020FBBDE87040142002F0FD
:10478000BDBE10B5012001F045FB142002F0B6FEBD
:10479000012001F011FB142002F0B0FE002001F016
:1047A00039FB142002F0AAFE002001F005FBBDE851
:1047B0001040142002F0A2BE10B5002001F0FCFA57
:1047C000142002F09BFE002001F024FB142002F0D4
:1047D00095FE012001F0F0FA142002F08FFE012076
:1047E00001F018FBBDE81040142002F087BE10B5A0
:1047F000052401F0F9FA142002F080FE012001F0F6
:10480000DBFA142002F07AFE05E0641EA4B2142044
:1048100002F074FE64B101F0DBFA0028F5D101F07A
:10482000CBFA142002F06AFE01F000FB002010BD5C
:1048300001F0FCFAFFF7C0FF012010BD10B52DED0F
:10484000028B00F0ADF84B4C2071A1780B46414033
:104850008143617130EA03030A46A371A0704FF0EF
:10486000000101D0E17002E0E3780A2B5ED2012A58
:104870000AD0022A16D00120032A55D0042A00D1DA
:104880006070BDEC028B10BD3B48017841B1002146
:1048900001700020BDEC028BBDE8104000F0D2B8E2
:1048A0000121F5E7E079401CC2B2E271207A401C98
:1048B000C0B22072082A00D9E171042800D92172FF
:1048C000E079FBF784FE9FED2D1B53EC112BFBF7DA
:1048D0009DFD9FED2C8B53EC182BFBF797FD53ECB4
:1048E000182BFBF7ECFCFBF77FFE462103F0B0F939
:1048F000207AFBF76CFE9FED251B53EC112BFBF789
:1049000085FD9FED248B53EC182BFBF77FFD53ECBB
:10491000182BFBF7D4FCFBF767FEBDEC028B3221B2
:10492000BDE8104003F0A8B92070AAE701280CD018
:10493000022811D0032816D00428A2D1BDEC028B86
:104940000020BDE81040FCF7CFB8BDEC028B002082
:10495000BDE8104002F018BEBDEC028B0020BDE89F
:10496000104002F02FBE0D4850F8901F41F4004156
:10497000016086E72C000020010000209A99999997
:104980009999B93F000000000094C1409A99999903
:104990009999C93F0000000000C082400010024009
:1049A00010B5104C01212046FDF738FA88B10221DC
:1049B0002046FDF733FA70B104212046FDF72EFAA8
:1049C00058B101214FF09040FDF728FA38B100208E
:1049D00010BD012010BD022010BD032010BD042019
:1049E00010BD00000004004800B585B014216846E1
:1049F000FBF75AFC4FF6FF70009000200321CDE931
:104A00000201019069460248FDF7E4F805B000BDD7
:104A10000008004800B585B014216846FBF744FC47
:104A20004FF6FF70009001200190032003900020BA
:104A3000029069460248FDF7CDF805B000BD0000C0
:104A40000008004870B5002406462146204600F0C4
:104A500013F900F055F94FF49635304600F020F97F
:104A6000641CAC42F9D370BD01A100F061B8000034
:104A70002020202020202020202020202020202036
:104A8000202020200000000030B587B014216846A7
:104A9000FBF70AFC1E48C16C41F00401C164C16C03
:104AA00001F004010591C16C41F00101C164C16CC8
:104AB00001F001010591C16C41F00201C164C06CBB
:104AC000012500F0020005904FF44870CDE9000583
:104AD00000240394694602940E48FDF77BF82802EF
:104AE00003940090CDE901544FF09044694620466C
:104AF000FDF770F8FFF78EFFA06940F48070A061A9
:104B000004481830016841F40871016007B030BDF5
:104B10000010024000040048203AD2B2034B02EBDE
:104B2000420203EB021200F019B80000087D0008F1
:104B3000F0B50E460746002540F23F1407E0214637
:104B40003846FFF7E9FF103C6D1CA4B2761C3278A2
:104B5000002A01D0142DF2D3F0BD00002DE9F0475A
:104B600091468A460026044600F086F8DFF8408029
:104B7000012700BF00F0C4F85FF0000539F8160007
:104B800007FA05F10842404601D1408800E000885C
:104B900000F086F86D1C102DF0D3641CE4B2514671
:104BA000204600F069F8761C182EE3D3BDE8F087A4
:104BB0004600002010B5FFF767FF002000F014F852
:104BC000084CA080A088A0F50241303906D000F042
:104BD00087FF002000F008F8A08010BD00F0F7FE6D
:104BE000F7E700004600002070B51D490A6842F44E
:104BF00000720A600A6842F480720A60184C103C25
:104C0000226842F020022260164A1060086840F0D4
:104C10002000086000BF00BF00BF206840F02000F7
:104C20002060206840F480702060FFF7DDFE4FF0C8
:104C30009041886A40F48070886200BF00BF00BF66
:104C40000848001F006885B2886940F48070886158
:104C5000FFF7E0FE206840F400702060284670BD39
:104C6000280400481408004801B5BDF800000149B7
:104C7000488008BD4600002010B50C4601462020A3
:104C800000F070F82146BDE81040212000F06AB81D
:104C900001B5BDF800000149088008BD46000020AC
:104CA00030B5154B1968154A8CB2116841F4007182
:104CB0001160124910390D6845F480750D600D685A
:104CC00045F020050D601860106840F0200010606D
:104CD00000BF00BF00BF086840F0200008600868FF
:104CE00040F48070086000BF00BF00BF086840F457
:104CF000007008601C6030BD14080048280400489B
:104D0000164A10B51068164983B2086840F400705E
:104D10000860086840F48070086011481038046822
:104D200044F020040460222414600C6844F0200441
:104D30000C6000BF00BF00BF016841F020010160AE
:104D4000016841F48071016000BF00BF00BF0168CD
:104D500041F400710160136010BD000014080048A8
:104D60002804004870B51A4C22681A4B95B21A688C
:104D700042F400721A601A6842F480721A60154A8E
:104D8000103A166846F0200616602060186840F059
:104D90002000186000BF00BF00BF106840F0200076
:104DA0001060106840F4807010602160186840F056
:104DB0002000186000BF00BF00BF106840F0200056
:104DC0001060106840F480701060256070BD0000B5
:104DD0001408004828040048114810B5017869B14A
:104DE000012915D002291AD100210170084602F0CC
:104DF00007FCBDE81040012002F0C6BB0121017094
:104E0000002002F0C1FBBDE81040012002F0DABB37
:104E100002210170BDE81040012002F0F1BB10BD7D
:104E20002800002000EB8100006E00F0F840704781
:104E30008068C0F3C00070478068C0F3800070478E
:104E40008068C0F380007047C06810F4406F01D0E4
:104E50000020704701207047042303EAD15310B5A6
:104E600018444369C1F3045107248C40A3438A408A
:104E70001343436110BD00EB8100016E21F000413E
:104E8000114301667047000030B58BB000240894D0
:104E90000994202168460A94FBF706FA23484FF04C
:104EA000A041042501604FF44031C0E9011485613F
:104EB0000121C460C0E90441047741770222026203
:104EC00080F82440C462046380F83810C46380F81A
:104ED0004040FCF759F908B1FBF78EFE08A91348CA
:104EE0000894FBF7D5FE08B1FBF786FE104800904A
:104EF00006200190072002907F200594CDE903054C
:104F000069460A48FBF730FF08B1FBF775FE094810
:104F100000900C20019069460448FBF725FF00280B
:104F200001D0FBF769FE0BB030BD0000000100208E
:104F30000008302E2000F01430B589B020216846DA
:104F4000FBF7B2F91A481949002401604FF44031C7
:104F5000C0E90114C46004250461C0E90545047773
:104F600001214177016280F82440C462046380F823
:104F70003810C46380F84040FCF706F908B1FBF72D
:104F80003BFE0C48009006200190072002907F20F5
:104F90000594CDE9030569460548FBF7E5FE0028C1
:104FA00001D0FBF729FE09B030BD00000001005020
:104FB0006C0100200080F03E10B58CB030216846B6
:104FC000FBF772F91B491A4808600846FCF7F6FB24
:104FD00008B1FBF711FE0024022000901E20CDE94D
:104FE00002408DF804408DF8054001200494CDE97D
:104FF0000540224669460F480794FCF7FFFA08B1BE
:10500000FBF7FAFD4FF4306200210A48FCF7DAFAA8
:1050100008B1FBF7F1FD1022694606480394FCF73E
:10502000EDFA002801D0FBF7E7FD0CB010BD000041
:105030000008005098020020194808B5816C41F022
:1050400004018164816C01F004010091816C41F0E4
:1050500001018164806C002200F001000090114683
:105060000B20FCF74BFF0B20FCF73AFF0022114608
:105070000C20FCF743FF0C20FCF732FF0022114606
:105080000D20FCF73BFF0D20FCF72AFF0022114604
:105090000E20FCF733FFBDE808400E20FCF720BFD0
:1050A000001002402DE9F04387B014216846FBF759
:1050B000FBF85448C16C41F00401C164C16C01F0BB
:1050C00004010591C16C41F02001C164C16C01F083
:1050D00020010591C16C41F04001C164C16C01F037
:1050E00040010591C16C41F00101C164C16C01F046
:1050F00001010591C16C41F00201C164C16C01F074
:1051000002010591C16C41F00801C164C06C3E4FC1
:1051100000F008004FF47F440590012221463846F4
:10512000FCF781FEDFF8E480002204214046FCF712
:105130007AFEDFF8DC90012208214846FCF773FE76
:105140000022C0214846FCF76EFE0125CDE900454E
:1051500000240294694638460394FCF73BFDA802FC
:105160000326CDE90006694602942A48FCF732FD81
:105170003F20CDE90006694602943846FCF72AFD37
:10518000CDE900544FF09047694638460295FCF748
:1051900021FD48F2C810CDE9000669460294384660
:1051A000FCF718FD07208DE8310069464846FCF7FA
:1051B00011FD42F62070CDE900066946029448468A
:1051C000FCF708FD04200090CDE9015469464046F3
:1051D0000394FCF7FFFC0820CDE900050220CDE98F
:1051E000024069464846FCF7F5FCC0200090CDE936
:1051F0000154694648460394FCF7ECFC07B0BDE84F
:10520000F08300000010024000080048000C004835
:10521000000400480018004830B591B014210AA8D5
:10522000FBF742F80024282168460F94FBF73CF86E
:105230002C482B49C0E900141F21816040F2E7315E
:10524000C0E903144FF080414461C0E906410462A3
:10525000FDF706FC08B1FBF7CFFC23258DF828509D
:1052600059208DF8290050208DF82A000B940D94B8
:1052700001220AA91B480E94FDF77EFD08B1FBF739
:10528000BBFC02208DF83C008DF83D0007208DF816
:105290003E008DF83F5001220FA91248FDF71CFD7A
:1052A00008B1FBF7A9FC8DF800408DF801408DF89E
:1052B00002404FF000400194CDE9050401208DF833
:1052C0002000000209900794012269460548FDF775
:1052D00045FC002801D0FBF78FFC11B030BD000069
:1052E00000280040AC02002010B588B00024184807
:1052F0000594069403940494009401941349029431
:10530000C0E900144FF6FF71C0E902410461446135
:105310008461FDF772FE08B1FBF76EFC4FF480501C
:10532000039003A90A48FDF7B9FF08B1FBF764FC35
:1053300000940194694606480294FDF70FFE002888
:1053400001D0FBF759FC08B010BD0000002C014053
:10535000D402002010B58CB0002405942548049494
:105360000694079408940A94099400940194029472
:105370004FF08041039401604F21C0E90114611E88
:10538000C0E903148461FDF738FE08B1FBF734FC73
:105390004FF48050049004A91648FDF77FFF08B130
:1053A000FBF72AFC1348FEF720F908B1FBF724FCB1
:1053B000089408A90F480A94FDF7D0FD08B1FBF73F
:1053C0001BFC0120CDE900400294042269460948F3
:1053D0000394FEF77BF808B1FBF70EFC0822694640
:1053E0000448FEF773F8002801D0FBF705FC0CB069
:1053F00010BD00002003002010B58CB000240594DF
:10540000224804940694079408940A9409940094FA
:10541000019402941C49039401604F21C0E90114D6
:105420004FF6FF71C0E903148461FDF7E6FD08B192
:10543000FBF7E2FB4FF48050049004A91348FDF7FA
:105440002DFF08B1FBF7D8FB1048FEF7CEF808B1E6
:10545000FBF7D2FB089408A90C480A94FDF77EFDDF
:1054600008B1FBF7C9FB0120CDE9004002940022FE
:10547000694606480394FEF729F8002801D0FBF797
:10548000BBFB0CB010BD0000000400406C0300200A
:1054900010B58EB000240794089409940A940B94D4
:1054A0000C941C2168460D94FAF7FEFE224821490F
:1054B00001604F21C0E901144FF6FF71C0E90314E8
:1054C00080218161FDF799FD08B1FBF795FB4FF451
:1054D0008050079007A91848FDF7E0FE08B1FBF7D8
:1054E0008BFB1548FEF74CFB08B1FBF785FB0B94D3
:1054F0000BA911480D94FDF731FD08B1FBF77CFBBA
:105500003020CDE900040294002269460A48049440
:10551000FEF7CAFA08B1FBF76FFB0422694606489A
:10552000FEF7C2FA08B1FBF767FB0348FEF77AFA09
:105530000EB010BD00080040B80300203EB50024A6
:105540000F48009401940D49029401604F21C0E975
:10555000011479218461C160FDF74FFD08B1FBF7AB
:105560004BFB20200090694602940548FDF7F6FCAD
:10557000002801D0FBF740FB3EBD000000100040BA
:10558000040400203EB500240F48009401940D4906
:10559000029401604F21C0E9011440F2E7318461B7
:1055A000C160FDF72AFD08B1FBF726FB00946946B0
:1055B00005480294FDF7D2FC002801D0FBF71CFB44
:1055C0003EBD0000001400405004002010B59CB007
:1055D000002419941A9417941894149415941C2167
:1055E0000DA81694FAF760FE34216846FAF75CFEBF
:1055F0003248314901601F21C0E9011440F2E7310E
:10560000C0E9031444618461FDF7F7FC08B1FBF7BE
:10561000F3FA4FF48050179017A92848FDF73EFE83
:1056200008B1FBF7E9FA2548FEF702FC08B1FBF7E1
:10563000E3FA1494159414A920481694FDF78EFCEF
:1056400008B1FBF7D9FA60200D906420CDE90E0473
:1056500010941194129400220DA918481394FEF787
:1056600055FB08B1FBF7C8FA4FF4FA700E9004220C
:105670000DA91248FEF74AFB08B1FBF7BDFA0094EA
:105680004FF40050CDE9044003940003CDE90840F5
:1056900001940294069407940A940B94694607486F
:1056A0000C94FDF701FC08B1FBF7A6FA0348FEF7DE
:1056B000B9F91CB010BD0000003401409C0400206A
:1056C00010B51F4C1D480C2120604FF4165060602F
:1056D0000020A060E060C4E90401A061E0612062F4
:1056E0006062A0622046FEF7DBFE08B1FBF784FA99
:1056F00000211348FEF7F2FC08B1FBF77DFA002108
:105700000F48FEF7C5FC08B1FBF776FA0C48FEF728
:105710009EFC08B1FBF770FA2068016841F0200197
:1057200001602068016841F01001016004494022D5
:10573000BDE8104040390248FEF764BF0038014020
:105740003C05002000212022435C03B94254491C3F
:10575000C9B21429F8D370471CB50D490020FFF7D2
:10576000E7F94FF478414FF6FF70094ACDE900019F
:10577000521F05231821501D01F0C6FE02B0402221
:10578000BDE810404FF498713020FFF7C5B9000014
:105790005100002010B5B0B00446142102A8FAF759
:1057A00083FD142107A8FAF77FFD14210CA8FAF74E
:1057B0007BFD142111A8FAF777FD14212AA8FAF726
:1057C00073FD142116A8FAF76FFD14211BA8FAF730
:1057D0006BFD1422514925A8FAF74DFDFFF7BCFFD8
:1057E00022464FA102A801F00BFA02A8FFF7AAFF78
:1057F0004FF6E0700024CDE90040052325AA48219A
:1058000002A801F081FE4A4881780091437802782D
:1058100048A116A801F0F4F916A8FFF793FF16A9FE
:10582000C020FFF785F9484802788178CDE9001259
:105830004378C27845A11BA801F0E2F91BA8FFF745
:1058400081FF1BA9D820FFF773F947480178C9B138
:1058500004706020FFF708F97820FFF705F9434846
:1058600043A1D0E9012320A801F0CAF93F496020F3
:10587000FFF75EF920A97820FFF75AF9142120A834
:10588000FAF712FD3C480178002945D004703B48E6
:105890000068FAF79CFE9FED3A1B53EC112BFAF7C8
:1058A000B5FD9FED391B53EC112BFAF7AFFD41EC21
:1058B000100B37A153EC102B07A801F0A1F907A892
:1058C000FFF740FF07A97820FFF732F93448FBF7CC
:1058D00055F810EE100AFAF7A0FE41EC100B31A1BA
:1058E00053EC102B0CA801F08BF90CA8FFF72AFF42
:1058F0000CA99020FFF71CF900212E48FBF758FF58
:1059000002462DA111A801F07BF911A8FFF71AFF9B
:1059100011A9A820FFF70CF930B010BDD88E0008EF
:1059200054494D5F4E5649435F6E756D3A2564008C
:10593000BC00002074696D653A253032643A253028
:1059400032643A25303264000400002064617465DA
:105950003A253032642D253032642D2530326420D2
:105960007765656B3A256400790000208C0600207D
:105970002564202564000000370000200800002076
:10598000000000000000303F0000006066660A4032
:10599000616463312D31313A252E326600000000FA
:1059A00094000020616463322D31353A252E326631
:1059B00000000000980200204441435F76616C754E
:1059C000653A256400000000FEE7FEE7704730B549
:1059D00001210020FFF7C6F94FF47A70FBF7FEF8BB
:1059E00000210120FFF7BEF941F290711020FFF76E
:1059F000B9F94FF41C516020FFF7B4F9012161207F
:105A0000FFF7B0F902214620FFF7ACF948F2100188
:105A10001320FFF7A7F948F2FE011220FFF7A2F9C1
:105A20004FF4A0610220FFF79DF941F230010320FD
:105A3000FFF798F940F2033421463020FFF792F93E
:105A400021463120FFF78EF921463220FFF78AF9EF
:105A5000E51E29463320FFF785F903213420FFF79F
:105A600081F921463520FFF77DF914213620FFF713
:105A700079F921463720FFF775F921463820FFF7DD
:105A800071F921463920FFF76DF929463A20FFF7D1
:105A900069F903213B20FFF765F921463C20FFF718
:105AA00061F94FF4A0513D20FFF75CF94FF400710C
:105AB0009220FFF757F921469320FFF753F940F65C
:105AC0000D019020FFF74EF941F218010320FFF776
:105AD00049F9BDE8304040F273110720FFF742B9A1
