:020000040800F2
:10000000A00A0020ED01000881480008013900081D
:1000100029480008250B0008F55E000800000000D4
:10002000000000000000000000000000D54E0008A5
:10003000050C00080000000075490008094F000881
:10004000070200080702000807020008070200086C
:10005000070200080702000807020008070200085C
:10006000070200080702000807020008290B000821
:1000700007020008390B0008070200080702000801
:10008000070200080000000007020008070200083D
:10009000070200080702000807020008070200081C
:1000A000070200080702000807020008070200080C
:1000B00007020008070200080702000807020008FC
:1000C00007020008070200080702000807020008EC
:1000D00007020008B55E00080702000807020008D2
:1000E00007020008070200080702000807020008CC
:1000F00007020008070200080702000800000000CD
:1001000000000000070200080000000007020008CD
:100110000702000800000000994F000807020008CD
:10012000070200080702000807020008070200088B
:10013000070200080000000000000000070200089D
:10014000070200080702000800000000000000008D
:10015000000000000000000000000000000000009F
:10016000000000000000000000000000070200087E
:10017000070200080000000000000000000000006E
:10018000000000000702000800000000000000005E
:10019000000000000000000000000000000000005F
:1001A000000000000000000007020008070200082D
:1001B000070200080702000807020008000000000C
:1001C000000000000702000800000000000000001E
:1001D0000702000807020008DFF80CD000F062FAFE
:1001E000004800478D5F0008A00A002006488047AD
:1001F00006480047FEE7FEE7FEE7FEE7FEE7FEE70C
:10020000FEE7FEE7FEE7FEE77D4F0008D9010008A4
:100210002DE9F05F0546002092469B46884606463B
:10022000814640241BE0284641464746224600F0CE
:1002300071F853465A46C01A914110D311461846D8
:10024000224600F058F82D1A67EB01084F46224667
:100250000120002100F04FF817EB00094E41201E4D
:10026000A4F10104DFDC484631462A464346BDE896
:10027000F09FD2B201E000F8012B491EFBD270477B
:100280000022F6E710B513460A4604461946FFF762
:10029000F0FF204610BD421C10F8011B0029FBD1C5
:1002A000801A704700F0004230F000400AD0C10DC3
:1002B00001F56071C0F3160042EA0151C20840071F
:1002C0001143704700200146704730B50B46014688
:1002D00000202022012409E021FA02F59D4205D3E5
:1002E00003FA02F5491B04FA02F52844151EA2F18F
:1002F0000102F1DC30BD202A04DB203A00FA02F1D1
:10030000002070479140C2F1200320FA03F3194303
:1003100090407047202A04DB203A21FA02F00021A5
:10032000704721FA02F3D040C2F120029140084305
:10033000194670472DE9FE4F804681EA0300C00F41
:100340000C46009021F0004123F00045B8EB02007C
:10035000A94105D24046214690461C460B4602461E
:1003600023F00040104347D0270DC7F30A00C3F322
:100370000A510290401A019040286BDAC3F313002F
:1003800040F4801B0098924620B10023D2EB030A70
:1003900063EB0B0B01985946C0F140025046FFF742
:1003A000AAFF06460D4650465946019A00F08CF9C0
:1003B00010EB08006141002487EA115284EAE773D8
:1003C0001A4340D0009A62B3019A012A4FEA0752B9
:1003D00015DC001B61EB02014FF0004202EA0752FC
:1003E000CDE90042001C41F5801132462B4600F059
:1003F0008CF903B0BDE8F08F40462146F9E7001BB9
:1004000061EB0201001C41F5801300185B412018CC
:10041000A2F5001747EB030140EAD570B6196D410C
:1004200011E06D084FEA360645EAC0754FEA0752FB
:10043000001B61EB0201001C41F5801149084FEAE5
:1004400030000019514132462B4603B0BDE8F04F51
:1004500000F04CB90098012240000023D0EB0202CA
:1004600063EBE073009821464FEAE074B8EB0000BC
:1004700061EB0401E9E783F000435BE781F00041B1
:1004800058E72DE9FE4F81EA030404F0004421F00F
:10049000004100944FF0000B23F0004350EA0104A8
:1004A0005ED052EA03045BD0C3F30A54C1F30A5589
:1004B0002C44A4F2F3340194A0FB0254C1F31301C1
:1004C00041F48011C3F3130343F4801301FB02448E
:1004D00000FB034E840A970A44EA815447EA835793
:1004E000A4FB076802958D0A05FB07854FEA932C4C
:1004F00004FB0C542705029D4FEA065847EA1637BD
:10050000B5EB08056EEB070C870E920E47EA8117D4
:1005100042EA8312A7FB0201B6EB0B0164EB000475
:100520002B0D43EA0C335E1844EB1C50DA4651465F
:10053000E7FB0201C5F313044FEA0B3343EA1453FC
:100540004FEA0432019C43EA0603A4F10C0402942E
:10055000009CCDE900B400F0D8F803B0BDE8F08FFE
:1005600000200146F9E72DE9F04D81EA030404F08B
:10057000004B21F0004514464FF0000A23F00041E3
:1005800050EA050220D054EA01021DD0C5F30A57F3
:100590000246C5F31303C1F31300C1F30A5640F436
:1005A000801543F48013A7EB0608101BD64608F20B
:1005B000FD3873EB050002D308F1010801E0921841
:1005C0005B41B8F1000F03DA00200146BDE8F08D71
:1005D00000204FF48011064684460EE0171B73EB93
:1005E000050705D3121B63EB050306434CEA010C18
:1005F00049084FEA300092185B4150EA0107EDD1FB
:1006000052EA030012D082EA040083EA050108439B
:1006100005D0101BAB4106D20122002306E00022C8
:100620004FF0004302E06FF0010253101AEB060096
:100630004CEB085110EB0A0041EB0B01BDE8F04D0B
:1006400000F054B8C1F30A52C1F3130140F2FF3372
:1006500041F480119A4202DA00200146704740F2CC
:1006600033439A42A2F2334202DC5242FFF752BEB7
:10067000FFF741BE30B5041E71F1000404DB4FF0FA
:100680000044404264EB0101141E73F1000405DBD9
:100690001C464FF00043524263EB0403994208BFEB
:1006A000904230BD064C074D06E0E06840F0010383
:1006B00094E8070098471034AC42F6D3FFF790FD5A
:1006C0002C7B00084C7B0008202A06DBCB17203A45
:1006D00041FA02F043EAE07306E041FA02F3D04047
:1006E000C2F12002914008431946704710B5141E0C
:1006F00073F1000408DA401C41F1000192185B41DB
:100700001A4301D120F0010010BD2DE9F04D9246B1
:100710009B4611B1B1FA81F202E0B0FA80F22032C8
:100720009046FFF7E8FD04460F4640EA0A0041EA1A
:100730000B0153465A46084313D0114653EA0100B1
:1007400019D0C8F140025046FFF7E4FD05460E46B9
:10075000504659464246FFF7CEFD084305D00120DA
:1007600004E020463946BDE8F08D0020054346EA06
:10077000E0762C4337430A986305E40AA0EB0800AF
:100780000022FD0A44EA47540A3002D500200146FF
:10079000E9E7010510196941DDE9084500196941DA
:1007A000BDE8F04DA2E730B58C1810F8012B12F01F
:1007B0000F0301D110F8013B120906D110F8012BEB
:1007C00003E010F8015B01F8015B5B1EF9D101E069
:1007D00001F8013B521EFBD1A142E6D3002030BDFF
:1007E00070B5044600680D4603F016FD2168064604
:1007F000084603F0EFFC30435BD02068C1688901F4
:1008000014D5617F012911D1217F01290ED1016801
:10081000490608D40121CAF2403100BF01393ED057
:1008200002685206FAD5402101250160022D0FD041
:1008300003F0F2FC18B1206803F0E2FC18B1012DBE
:1008400006D1042616E0206803F010FD012DF8D033
:10085000206803F0BFFC30B1206803F0D1FC10B970
:10086000206803F0BBFC0426022D08BF0826032DD8
:1008700008BF0C2601F094F821688968314218D02D
:10088000054603E020688068304212D001F088F805
:10089000401B0628F6D3206880683042F2D0E06D15
:1008A00040F01000E065206E40F00100206601205D
:1008B00070BD002070BD0000F0B581B040F238304E
:1008C000C2F2000000F0BAFD40F25C174FF0000CDD
:1008D000C2F20007CCF1630100250023002200BF13
:1008E0006C1C57F8250057F824600133B04282BFD2
:1008F00047F8256047F824000132DDB2A942EFD85D
:10090000100604D00CF1010CBCF1630FE2D10025FC
:100910006FF00300391889680430B0F5C27F0D44C8
:10092000F8D140F23830C2F200003946642200F0BB
:1009300009FD48F29D20C5F29730A5FB000148094A
:1009400000EE100A9FED111AB8EE400A9FED102A32
:1009500020EE010A20EE020A87ED640AD7F8900122
:10096000FFF7A0FC40F23005C2F2000505F1B40427
:1009700002460B4607A1204605F03CFBD5F8CC20EB
:1009800020461421904701B0F0BD00BF33335340DF
:10099000000080394144433A252E3166560000005C
:1009A00010B5846AE26DE16D12F0500F05D0C906F2
:1009B0000ED4616D496B884710BD41F40070E0654D
:1009C00020680168090707D4C068800716D40AE0C8
:1009D000204600F05BFB10BD03F022FC70B12068E4
:1009E000C06880040AD4E06D20F48070E065E06D9A
:1009F000C00403D4E06D40F00100E065204600F043
:100A000041FB10BD80B5806AC16D41F04001C165F8
:100A1000016E41F00401016600F038FB80BD00006A
:100A200080B5806A00F030FB80BD0000B0B50446A0
:100A3000006803F0E5FB21680546084603F0E4FB87
:100A400001464FF000007DBB002908BFB0BD206803
:100A5000816801F00D0101291BD103F07FFB2068A3
:100A60000321016000F09CFF21688968C90704BF69
:100A70000020B0BD054603E020688068C00712D0A2
:100A800000F08EFF401B0328F6D320688068C00763
:100A9000F2D0E06D40F01000E065206E40F0010003
:100AA00020660120B0BD0020B0BD0000B0B50446F6
:100AB000006803F0A9FB08B10020B0BD20683F2208
:100AC0008168C8F20002114209D0E06D40F01000C8
:100AD000E065206E40F0010020660120B0BD03F00B
:100AE0004FFB00F05DFF21680A68D2071CBF0020A1
:100AF000B0BD054604E000BF21680868C007DBD12F
:100B0000084603F081FB10B9206803F039FB00F0C0
:100B100047FF401B0328EFD320680068C007EBD1D4
:100B2000D3E70000FEE7000080B540F2A430C2F237
:100B3000000000F035FD80BD80B540F26440C2F297
:100B4000000000F02DFD80BD80B501686FF0070248
:100B50004CF6CD4352FA81F2CCF6CC43A2FB032CE7
:100B600040F20842C4F20202D0F844E002F5836386
:100B7000914238BF02F57E732EF00301194402F54D
:100B80008F6ECCF3041301229A40C0E9121E026555
:100B900080BD0000017940F600120139C4F2020262
:100BA00002EB810302F1400C01F01F01012202FA65
:100BB00001F1C0E9153CC1657047000070B5D0E98E
:100BC00013C4D0F854E0CCF80440BEF1000F1CBFB1
:100BD000D0E916C4CCF80440D0E9106E0468D0F80F
:100BE00008C00EF01F00012505FA00F070600846ED
:100BF0006360BCF1100F04BF10460A46A060E260BB
:100C000070BD00007047000070B514460D460646E2
:100C100002F062FFA02002F03DFF02F02FFF3046FD
:100C200002F038FF02F02AFF02F056FFA12002F086
:100C300031FF02F023FF24B90EE000BF02F040FFB5
:100C400056B1013C02F000FF260605F8010BF5D075
:100C500002F014FF002EF4D102F04CFF70BD000032
:100C600070B514460D46064602F036FFA02002F08D
:100C700011FF02F003FF304602F00CFF02F0FEFE0F
:100C8000200609D015F8010B013C02F003FF02F029
:100C9000F5FE01367007F3D102F02CFF70BD0000A5
:100CA000EFF3108072B600BFFEE7000070B582B0AF
:100CB00004460020019094F85800012801D1022533
:100CC00033E0012084F8580020460E46FFF7AEFEC0
:100CD0000546E06D15B140F0100022E041F202112E
:100CE00088430230E0652068314603F02FFB4DF663
:100CF0000266C0F2040600BF206803F079FA60B112
:100D00000198013001900198B042F5D3E06D0125C2
:100D100040F0100020F0020003E0E06D012161F3DB
:100D20000100E065002084F85800284602B070BD3C
:100D3000F0B581B004460020009094F858000128D6
:100D400002D1022001B0F0BD20680D46012184F8D7
:100D5000581003F061FA48B1E06D40F02000E06502
:100D60000120002184F8581001B0F0BD2068D5E9B9
:100D7000002103F05DFA206803F04EFA2168064670
:100D8000084603F027FA304340F0B880AB68296882
:100D900003F10040B0FA80F047092068B3F1004247
:100DA00018BF1A46FE0703F06BFA2068314603F0BD
:100DB000C7FA206829696B69C268042940F08880F5
:100DC0004FF6FF770021C0F2070703F0FDF9216815
:100DD00006460846002103F0F7F9720390FAA0F1E5
:100DE0002A68B1FA81F108BFC0F3846192FAA2F0D7
:100DF000B0FA80F0530308BFC2F38460814203D18C
:100E00002068002103F094FA2068012103F0DCF946
:100E1000216806460846012103F0D6F990FAA0F1B0
:100E20002A68B1FA81F13E4208BFC0F3846192FAA8
:100E3000A2F0B0FA80F03A4208BFC2F38460814267
:100E400003D12068012103F073FA2068022103F026
:100E5000BBF9216806460846022103F0B5F990FA6D
:100E6000A0F12A68B1FA81F13E4208BFC0F3846163
:100E700092FAA2F0B0FA80F03A4208BFC2F384605E
:100E8000814203D12068022103F052FA2068032135
:100E900003F09AF9216806460846032103F094F905
:100EA00090FAA0F12A68B1FA81F13E4208BFC0F37E
:100EB000846192FAA2F0B0FA80F03A4208BFC2F31D
:100EC000846081421AD12068032103F031FA15E0D1
:100ED000062707EA92072A68BB4003F007FA206852
:100EE0002969AA6903F01CFA2A7F2068013AB2FA3C
:100EF00082F229695209520603F00AFA206803F0C7
:100F000083F900284DD120682968EA6803F0CAF9FE
:100F1000E8680021C4F27F01884242D1D5F800E0A0
:100F20004FF080619EFAAEF27346B2FA82F76FF329
:100F3000DF433A462068002B08BF4FEA9E62561CEA
:100F400001EB826106F01E0C01F0F84206F01F0171
:100F50000126BCF1090F06FA01F60DD842EA060196
:100F6000002B08BF4FEA9E677A1C02F01F0202EBBB
:100F7000420241EA025111E0002B08BF4FEA9E678E
:100F8000791C01F01F01002301EB4101CFF6206322
:100F900003EB01513243114341F00071AA6803F0A1
:100FA0006FF9688848F20801084232D003F0FCF873
:100FB0002A680021CCF221318A42014604D0102057
:100FC000C9F2C000824207D1080205D42068B0F1FE
:100FD000A04F2DD00020C4E60020CCF252708242F7
:100FE00008BF11F0807016D00020CCF68430824209
:100FF0004FF0000008BF11F480027FF4B2AE206809
:1010000040F20012C5F20002904236D041F4800056
:101010000AE00020A5E6206840F20012C5F20002B6
:10102000904228D041F0807003F056F9002098E6F5
:1010300041F4000003F050F940F21010C2F2000039
:10104000006842F663518009C0F23E51A0FB0101E5
:10105000880900EB40000C2101EB80000090009813
:1010600068B100BF009801380090009800284FF048
:101070000000F7D175E6002073E6002071E600203D
:101080006FE60000704700007047000070470000E6
:1010900070B582B0044600200190CCB1E06D30B94B
:1010A000204600F0E5F80020206684F8580020680B
:1010B00003F0A2F810B1206803F05AF8206803F09A
:1010C000A7F838B1206803F0A3F8F0B1002525E0B7
:1010D0000125C9E0206803F05DF840F21010C2F26B
:1010E0000000006842F663518009C0F23E51A0FB47
:1010F00001018809022101EB400000BF0190019825
:101100000028DFD001980138F8E7E06D012540F0B4
:101110001000E065206E40F001002066206803F0BA
:101120007BF8E16D01F010010843E06D03D040F061
:101130001000012597E020F481700230E0652068FE
:1011400003F062F878B94FF0A04003F05DF806466E
:1011500040F20010C5F2000003F056F8304302D10F
:10116000606803F0AFF8607FE16B41EA4030D4E99A
:101170000221084394F824101043012940EA014158
:1011800006D1A06A0022CFF6FE7202EB4040014376
:10119000E06A28B100F47870226B084340EA02014B
:1011A0002068626BC36844F20706CFF6F0763340DE
:1011B0001943C160016921F040611143016103F0ED
:1011C0002BF821680646084603F004F830433BD16B
:1011D00094F83800217F400040EA8132206821697C
:1011E000C36844F20206B3431A43C260026949B1BC
:1011F00042F480320261D0F8C02043F6FF739A4374
:10120000114307E022F480310161D0F8C01043F6A9
:10121000FF729143C0F8C01094F840200169012A80
:101220000FD140F2FD7204F1440621EA020C4CCECB
:10123000216D42EA0C021A433243114341F001018D
:1012400001E021F00101016120686169026B01295F
:1012500022F00F0102D1226A013A11430163E06DCD
:10126000012161F30100E065284602B070BD000075
:1012700070B598B0044600201790CDE91500CDE96F
:10128000130002A84421FEF7FBFF206840F2001182
:10129000C5F20001884201D018B070BD4FF0005077
:1012A0004FF40045119002A8029500F07FFC002841
:1012B00018BFFFF7F5FC41F24C00C4F202000168D0
:1012C000002641F400510160016801F400510191D0
:1012D0000199016841F002010160006813A900F062
:1012E0000200019001980320149040F20040C4F6DF
:1012F00000001395159600F06FFA40F2A43508200F
:10130000C2F20005C4F2020024214FF4007385E804
:10131000430005F114004FF4006C4FF0200E80E8FC
:1013200008504FF40050802228622846C5E9036225
:1013300000F08CF9002818BFFFF7B2FC6565AC62BD
:1013400018B070BD2DE9F04190460E46044602F0FB
:1013500033FF21680746084602F05EFF18B994F88B
:101360005800012802D10220BDE8F0810120092F98
:1013700084F858005BD8B84040F22121084256D08A
:101380002046FFF793FB30B10546002084F8580053
:101390002846BDE8F0812168E06D40F60172904377
:1013A00000F5807240F20010C5F20000814208464C
:1013B00008BF4FF0A040002FE26518BF884203D15C
:1013C000E06D20F48010E065E06D40F6A113C004EC
:1013D0004FF0000044BF206E20F006002066606DD4
:1013E00040F62127C0F60003C0F6000740F60525A9
:1013F0000022C0F60005C0E90B371C2345630B60D3
:1014000084F858204A68434642F010024A60CA688D
:1014100042F00102CA604031324600F083F921688F
:101420000546084602F018FF2846BDE8F081002076
:1014300084F858000120BDE8F0810000B0B50446F2
:1014400090F85800012804BF0220B0BD012084F8A4
:10145000580020460321FFF7C3F9054618BB216851
:10146000606DCA6822F00102CA6090F82510022956
:1014700007D100F01DF8054618B1E06D40F04000BE
:10148000E0652068416821F0100141602046FFF7C7
:10149000CDFA002D08BF05462DB9E06D41F20111CE
:1014A00088430130E065002084F858002846B0BD2C
:1014B00080B5014690F82500022824D10868D1E9BA
:1014C00010CE8A6C036823F00E030360136823F4C4
:1014D00080731360026822F0010202600EF01F00A8
:1014E000012202FA00F0CCF80400D1E91320506088
:1014F000486D60B1026822F480720260D1E9160280
:101500004260002004E00420C863012000E00020C5
:10151000012281F82520002281F8242080BD0000CE
:1015200080B590F8251002292DD10168D0E910CEA0
:10153000826C0B6823F00E030B600B6823F0010331
:101540000B60116821F4807111600EF01F020121FF
:1015500001FA02F2CCF80420D0E913325A60426D4D
:1015600032B1136823F480731360D0E916235360FB
:1015700080F82510826B002180F824100AB1904772
:101580000021084680BD0421C1630121002280F8AA
:10159000251080F82420084680BD0000C06B7047ED
:1015A000B0B50268D0E910C4DCF80050136804F04C
:1015B0001F0E590712D5042101FA0EF414EA050191
:1015C0000CD01168890603D4116821F00401116060
:1015D000CCF80440016BB9B38847B0BD990718D562
:1015E000022101FA0EF414EA050112D011688906ED
:1015F00006D4116821F00A011160012180F825103C
:10160000CCF80440C16A002280F82420E1B1884768
:10161000B0BD190758BFB0BD082101FA0EF129402D
:1016200012D0116821F00E011160012101FA0EF2B1
:10163000CCF80420C16380F82510416B00220029FA
:1016400080F8242018BF8847B0BD0000002804BFE0
:10165000012070472DE9F04140F2000C0446C4F22D
:10166000020C00684FF6F8330CF58162CBF6FD737F
:10167000904238BF03F5806303EB00024CF6CD4384
:10168000CCF6CC43A2FB032304F1080E0CF58061D9
:101690006FF003059EE804413CBF0021C4F2020143
:1016A00005EA9303C4E91013022184F825100168A8
:1016B00047F6F073994304F114071143E8CF41EA68
:1016C000080141EA0E0119432943314339430160BE
:1016D0002046FFF739FAA06804F14803B0F5804FBF
:1016E00004BF0020606060680ECBC7B201380328D9
:1016F0000F60536009D82046FFF74CFA04F15402FA
:1017000007CA002303604A6003E00020C4E9150013
:10171000E06500200121E06384F8251084F82400AE
:10172000BDE8F08110B5044690F82400012820D0CF
:10173000012084F8240094F82500012816D1022005
:1017400084F825000020E063D4F800C0DCF8000035
:1017500020F00100CCF800002046FFF72FFA2068A7
:10176000226B01683AB141F00E010AE0002084F8D2
:101770002400022010BD21F004010160016841F045
:101780000A010160A06C0168C90303D5016841F436
:1017900080710160606D18B1016841F48071016071
:1017A0002068016841F001010160002010BD0000C7
:1017B000B0B5044600F0F4F8054640F22430C2F219
:1017C00000000068611C18BF044400BF00F0E8F886
:1017D000401BA042FAD3B0BD2DE9F04F83B00D6895
:1017E000002D00F0C58000F138424FEAB22241F2EC
:1017F00000470192C4F600070622002600244FF09D
:10180000010AB84208BF0522009209E00D680434BD
:1018100035FA0AF20AF1010A06F1020600F0A88080
:10182000AAF1010C012202FA0CFB15EA0B09EDD01A
:10183000D1F8048008F00305A5F1010EBEF1010FF7
:1018400011D887680322CB68B24027EA0202B3406E
:101850001A4382604268C8F3001322EA0B0203FABB
:101860000CF31A434260032D1CD0C26803238F6817
:10187000B3409A4307FA06F31A43022DC26011D10E
:101880006FF0030202EA5C02024404F01C070F231B
:10189000D2F820E003FA07F50B692EEA0505BB40F4
:1018A0002B431362026803234F68B3409A4307F047
:1018B0000303B3401A4317F4403F0260A6D041F23D
:1018C0006003C4F202031A6840F2004E42F00102C3
:1018D0001A601A68C4F2010E02F001020292029A22
:1018E0002CF003024FF608487244CFF6FF7852F806
:1018F000083004F00C070F25BD4023EA050C019BBE
:10190000009D052B38BF1D4605FA07F747EA0C0373
:1019100042F80830DEF808204B6842EA090740F236
:101920000C4CDD0258BF22EA0907CEF80870C4F259
:10193000010CDCF800209D0242EA090758BF22EAA8
:101940000907CCF80070DEF804209D0342EA09077D
:1019500058BF22EA0907CEF80470DEF80020DB0346
:1019600042EA090758BF22EA0907CEF800704DE79E
:1019700003B0BDE8F08F00000069084018BF0120E7
:1019800070470000426902EA0103914341EA0341C2
:10199000816170471823002A08BF2823C15070476F
:1019A00040F29C60C2F200000068704740F22430B0
:1019B00040F29C61C2F20000C2F2000100680A68B5
:1019C000104408607047000080B5032000F068F8FC
:1019D0000F2000F009F800281CBF012080BD00F096
:1019E0002FF8002080BD0000B0B540F22431C2F2D3
:1019F0000001096801B3044640F21010C2F2000071
:101A00004FF47A720068B2FBF1F1B0FBF1F000F034
:101A10004FFF0F2C4FF001050CD858B94FF0FF3095
:101A200021460022002500F02BF840F22830C2F2B7
:101A3000000004602846B0BD01252846B0BD000066
:101A400080B582B041F25800C4F20200816841F0D2
:101A500001018160816801F0010101910199016832
:101A600041F080510160006800F0805000900098C3
:101A700000F092F802B080BD80B504F03DFA80BD60
:101A800070B514460D46064604F046FA294622462D
:101A900002F0F8FE0146304604F046FA70BD000040
:101AA00080B504F053FA80BDB0F5007F35D0002832
:101AB00066D147F20000C4F200000168D0F880202F
:101AC00001F4C06122F48072B1F5806FC0F880200B
:101AD00021D10168012262F34A21016040F2101114
:101AE000C2F200010968322359434DF68363C4F200
:101AF0001B33A1FB031302EB934100BF43694A1E52
:101B00008A4203D213F480611146F7D1406940053F
:101B100044BF032070470020704747F20000C4F222
:101B200000000168D0F8802001F4C06142F48072A6
:101B3000B1F5806FC0F88020EDD10168012262F319
:101B40004A21016040F21011C2F2000109683223FB
:101B500059434DF68363C4F21B33A1FB031302EB1D
:101B6000934100BF43694A1E8A4203D213F4806145
:101B70001146F7D14069400544BF03207047CAE7CA
:101B800047F20000C4F200000168022262F34A2119
:101B9000016000207047000047F20800C4F2000016
:101BA000016841F480410160704700002DE9F04375
:101BB00081B08146807841F288070007C4F20207AD
:101BC00001D4002565E057F8300C10F080580BD197
:101BD00057F8300C40F0805047F8300C57F8300C74
:101BE00000F080500090009847F20004C4F2000416
:101BF000206840F480702060FFF7D2FE054600BFE9
:101C0000206810F4807607D1FFF7CAFE401B032836
:101C1000F6D3032516B933E000258EB3B86810F467
:101C2000407012D0D9F8401088420BD0B868B9681B
:101C300020F4407041F48031B960B96821F48031FA
:101C4000B960B860C00703D111E00020C0070ED012
:101C5000FFF7A6FE064641F2893400BFB868800748
:101C600005D4FFF79DFE801BA042F7D303253DB9A5
:101C7000B868D9F8401020F4407008430025B860D7
:101C8000B8F1000F05D157F8300C20F0805047F81C
:101C9000300CD9F80000C10712D1810719D44107CF
:101CA00020D4010727D481062ED4410635D401065D
:101CB0003CD4C10543D481054AD4410551D460E0E8
:101CC0003968D9F8042021F00301114339608107F4
:101CD000E5D53968D9F8082021F00C0111433960A5
:101CE0004107DED53968D9F80C2021F030011143C5
:101CF00039600107D7D53968D9F8102021F0C00123
:101D0000114339608106D0D53968D9F8142021F4FF
:101D10004061114339604106C9D53968D9F81820A6
:101D200021F44051114339600106C2D53968D9F810
:101D30001C2021F4404111433960C105BBD53968ED
:101D4000D9F8202021F44031114339608105B4D500
:101D50003968D9F8242021F4402111433960410524
:101D60000FD53968D9F8282021F440111143B2F574
:101D7000801F396005D157F87C1C41F4801147F869
:101D80007C1C01050FD53968D9F82C2021F44001BD
:101D90001143B2F5800F396005D157F87C1C41F42E
:101DA000801147F87C1CC1040FD53968D9F8302060
:101DB00021F040711143B2F1807F396005D157F8AD
:101DC0007C1C41F4801147F87C1C81040FD53968D4
:101DD000D9F8342021F040611143B2F1006F39602D
:101DE00005D157F87C1C41F4801147F87C1C410454
:101DF0000FD53968D9F8382021F040611143B2F18C
:101E0000006F396005D157F87C1C41F4801147F808
:101E10007C1C00040FD53868D9F83C1020F04050E5
:101E20000843B1F1805F386005D157F87C0C40F46D
:101E3000803047F87C0C284601B0BDE8F0830000F4
:101E40002DE9F047002800F0CA8042F2000AC4F2EF
:101E5000020A0446DAF800000D4600F00F0088423E
:101E60000DD2DAF8000020F00F002843CAF8000075
:101E7000DAF8000000F00F00A84240F0B0802078AF
:101E800041F20808C007C4F202080CD14FF0000963
:101E9000206881072BD4B9F1800F41D1D8F8000018
:101EA00020F0F0003AE06068022800F08C800328FF
:101EB00040F0918058F8080C800140F1908002F0C9
:101EC0005BFD4BF20041C0F2C44188420CD9D8F806
:101ED000000010F0F00F00F08E802078800703D50E
:101EE000A068002800F087804FF000098CE04107CF
:101EF00005D5D8F8001041F4E061C8F800100007DB
:101F000006D5D8F80000072161F30D20C8F80000BD
:101F1000D8F80000A16820F0F0000843C8F80000DD
:101F2000DAF8000000F00F00A84219D9DAF8000032
:101F300020F00F002843CAF80000FFF731FD0646E5
:101F400041F28837DAF8000000F00F00A84207D00D
:101F5000FFF726FD801BB842F4D90320BDE8F087C7
:101F60002068410707D5D8F80010E26821F4E06145
:101F70001143C8F80010000708D5D8F800002169FF
:101F800020F4605040EAC100C8F8000000F08AF870
:101F9000D8F8001046F61C12C1F30311C0F6000277
:101FA000515C40F2101201F01F0120FA01F140F2E1
:101FB0002830C2F200000068C2F200021160FFF790
:101FC00013FDBDE8F08758F8080C80035CBF0120C2
:101FD000BDE8F08706E058F8080C400502D401205F
:101FE000BDE8F08700F05EF84BF20041C0F2C4415A
:101FF00088427FF679AFD8F80000082161F3071016
:102000004FF08009C8F80000D8F80000616820F09F
:1020100003000843C8F80000FFF7C2FC064641F27F
:10202000883700BFD8F80000616800F00C00B0EB02
:10203000810F3FF42DAFFFF7B3FC801BB842F1D9FD
:102040000320BDE8F087000040F21010C2F200004B
:102050000068704780B5FFF7F7FF41F20801C4F24E
:102060000201096846F62C12C1F30221C0F60002F3
:10207000515C01F01F01C84080BD000080B5FFF732
:10208000E3FF41F20801C4F20201096846F62C128E
:10209000C1F3C221C0F60002515C01F01F01C8402B
:1020A00080BD000041F20C01C4F2020151F8040CA1
:1020B00042F20042C0F2F40200F00C000428104684
:1020C00008BF704751F8040C00F00C00082843F2D8
:1020D0000060C0F26E1021D051F8043C03F00C03F4
:1020E0000C2B1CBF00207047D1F800C00B680CF00F
:1020F000030CC3F303130133BCF1030F08BF024603
:102100000868B2FBF3F20968C0F306205043C1F33C
:102110004161022202EB4101B0FBF1F07047000087
:102120002DE9F04182B0002800F0018104460078DA
:1021300041F20006C007C4F2020654D1207880079D
:1021400072D42078000700F195802078400700F1D4
:10215000B3802078800600F10081E069002840D03B
:10216000B16801F00C010C2940F05881012800F001
:10217000DE80F068216A00F003028A4240F0D780D6
:10218000626A6FF00F0300F0F00103EB021291425C
:1021900040F0CD80A16A00F4FE42B2EB012F40F086
:1021A000C680E16A00F07842B2EBC16F40F0BF80B8
:1021B000226B0023CFF6E07303EB025200F4C00160
:1021C0006FF31402914240F0B280616B4FF07E4297
:1021D00002EB016100F0C06001F07E41884240F0F6
:1021E000A6800020D7E1B06800F00C01F068082953
:1021F00059D0032281F00C0122EA00000844B0FA11
:1022000080F040094FD16568B5F5A02F00F0D1806E
:10221000B5F5803F00F0D180306820F48030306028
:10222000306820F48020CBE0B068F16800F00C004A
:10223000042866D001F0030180F00C0081F0020157
:102240000844B0FA80F040095BD1E16830680029A9
:1022500000F0D28040F480703060FFF7A1FB0546AB
:102260003068400500F1EF80FFF79AFB401B022821
:10227000F6D920E16169D6F89400002900F0878042
:1022800040F00100C6F89400FFF78AFB054600BF46
:10229000D6F8940080073FF558AFFFF781FB401B4D
:1022A0000228F5D907E1306880037FF547AF606801
:1022B00000287FF443AF3AE0B06D10F0805808D1A9
:1022C000B06D40F08050B065B06D00F0805001906E
:1022D000019847F20007C4F200073868C0052AD405
:1022E000386840F480703860FFF75AFB054600BF3D
:1022F0003868C0051FD4FFF753FB401B0228F7D9ED
:10230000D9E03068400501D5E06880B17068216986
:1023100020F0FE4040EA0160706040F22830C2F2D6
:1023200000000068FFF760FB00283FF40AAF0120BF
:1023300002B0BDE8F081A568052D00F0A080012D58
:1023400000F0A380D6F8900020F00100C6F89000BD
:10235000D6F8900020F004009BE0A169D6F8980020
:10236000002978D040F00100C6F89800FFF718FB6C
:10237000054600BFD6F8980080073FF5EEAEFFF7A0
:102380000FFB401B02284FF00300F3D903E120F0BC
:102390000100C6F89400FFF703FB0546D6F8940049
:1023A00080077FF5D2AEFFF7FBFA401B0228F5D974
:1023B00081E0306840F480203060306840F4803044
:1023C0003060FFF7EDFA002D054611D0306880032C
:1023D0003FF5B4AEFFF7E4FA401B6428F6D96AE093
:1023E000FFF7DEFA401B64284FF0030000F2D380B1
:1023F00030688003F4D4A1E620F480703060FFF7E9
:10240000CFFA0546306840057FF59BAEFFF7C8FA66
:10241000401B02284FF00300F4D9BCE031680228C9
:1024200021F0807131605FD1FFF7BAFA054600BF35
:102430003068800172D5FFF7B3FA401B02284FF0D5
:102440000300F5D9A7E07068216920F0FE4040EA5A
:102450000160706075E620F00100C6F89800FFF793
:102460009FFA0546D6F8980080077FF576AEFFF70D
:1024700097FA401B02284FF00300F3D98BE0D6F8FF
:10248000900040F00400C6F89000D6F8900040F0AC
:102490000100C6F89000FFF783FA002D054641F2CF
:1024A000883714D0D6F89000800714D4FFF778FA54
:1024B000401BB842F6D9032002B0BDE8F08100BF4E
:1024C000FFF76EFA401BB8424FF0030063D8D6F80E
:1024D00090008007F4D4B8F1000F7FF43AAEB06DED
:1024E00020F08050B06534E6F0684FF6FF7120F0C0
:1024F0000300F060F068CFF6EE610840F060FFF78F
:102500004FFA0446306880017FF56BAEFFF748FA5A
:10251000001B02284FF00300F4D93CE0F06848F2B9
:102520000C01C0F29F1104F1200700EA010C8ECFCC
:102530006FF00F00D4E90C5400EB02100022CFF62C
:10254000E07241EA0C0102EB055208436FF31402FA
:102550004FF07E4540EA032005EB0465104305F08B
:102560007E4540EAC7602843F060306840F08070E4
:102570003060F06840F08070F060FFF711FA0446B8
:10258000306880013FF52DAEFFF70AFA001B0228E4
:102590004FF00300F4D902B0BDE8F08170B50068D7
:1025A0000C4643684FEA1340C3F3042603F03F058B
:1025B000C8704E708D70C3F3423121700AB1002093
:1025C00070BDC0B202F088FBE070304602F084FBC0
:1025D0006070284602F080FBA070002070BD0000F3
:1025E00070B500680C4683684B6001696FF3DF319A
:1025F000A1600168C1F30540C1F3062601F07F0523
:10260000C1F3805120706670A570E1700AB100209E
:1026100070BD02F061FB2070304602F05DFB60701F
:10262000284602F059FBA070002070BD10B50028AC
:1026300043D0044690F8250028B9002084F82400EF
:10264000204600F03DF8022084F825002068CA21C9
:10265000416253214162204602F060FB20BB94E8B6
:1026600003504FF6BF738269CFF68F331A408261F1
:1026700022691143A26983691143194381614EEABA
:102680000C410161204602F071FB68B92168D4F861
:1026900014C0D4E907E28B6923F060431A4342EA8D
:1026A0000E0242EA0C028A612168FF2200284A6277
:1026B00004BF012184F8251010BD012010BD0000C9
:1026C00010B592B0044601A84421FDF7D9FD206859
:1026D00042F60001C4F20001884201D012B010BDE0
:1026E0004FF4002001904FF40070119001A8FFF703
:1026F0005DFA002818BFFEF7D3FA41F25800C4F281
:102700000200816B41F400418163016841F4806102
:102710000160006800F480600090009812B010BD65
:10272000F0B581B0044690F8240001284FF0020073
:1027300043D00D46012184F8241084F8250032B1DD
:102740006878E978AE78000240EA014715E06878D9
:10275000C10642BF00F0EF000A306870E87802F06E
:10276000C5FA69780646084602F0C0FA0102A87860
:1027700041EA064702F0BAFA06462068CA212D78D7
:10278000416253214162204602F0C8FA50B947EA3B
:10279000060020F0C000216840EA4530486020462D
:1027A00002F0E4FA2168FF2200284A6204BF0121F6
:1027B00084F82510002184F8241001B0F0BD000039
:1027C00070B5044690F8240001284FF0020008BFBD
:1027D00070BD0D46012184F8241084F8250020687E
:1027E000CA214162532141622046164602F096FA00
:1027F000C8BB2068806900F0400056B1002804BFC3
:102800000020E8706A782978A878120242EA014626
:1028100011E0002804BF0020E870287802F066FA72
:1028200069780646084602F061FA0102A87841EA92
:10283000064602F05BFAE978304340EA815047F6F9
:102840007F71C0F27F01226808401060906920F417
:1028500080209061D5E90301936908431843906192
:10286000204602F083FA2168FF2200284A6204BF52
:10287000012184F82510002184F8241070BD000087
:10288000B0B504460068C16821F02001C160FFF7BF
:1028900087F805462068C068800607D4FFF780F8EF
:1028A000401BB0F57A7FF5D90320B0BD0020B0BD44
:1028B00080B502F011FB80BD70470000704700003A
:1028C000704700007047000070470000704700002C
:1028D00070B590F83C20012A4FF002024AD0012343
:1028E00080F83C3080F83D20026843F2004C546888
:1028F0009368C4F2010C42F6004E6245C4F2010E28
:1029000001D0724503D14D6824F470042C434FF676
:102910008F75CFF6FF550E682C4042F6FF35C4F296
:1029200001053443AA4254600FDCB2F1804F16D047
:1029300040F20046C4F20006B24210D040F6000653
:10294000C4F20006B2420AD00EE0724507D044F24B
:102950000006C4F20106B24201D0624504D1896882
:1029600023F08003194391600121002280F83D107B
:1029700080F83C20104670BD70470000002804BF5E
:102980000120704710B5044690F83D0028B900209A
:1029900084F83C00204600F023F8022084F83D0033
:1029A0002068211D02F000FB012084F8480084F813
:1029B0003E0084F83F0084F8400084F8410084F829
:1029C000420084F8430084F8440084F8450084F809
:1029D000460084F8470084F83D00002010BD000048
:1029E00080B582B0006841F20001C4F20001884263
:1029F00011D0B0F1804F23D141F25800C4F202004F
:102A0000016841F001010160006800F001000190DF
:102A1000019802B080BD41F25800C4F20200016882
:102A2000002241F0100101600068032100F0100055
:102A3000009000983620FFF723F83620FFF71CF8A7
:102A400002B080BD90F83D1001291CBF01207047E5
:102A5000022180F83D10016842F6FF32C868C4F2D6
:102A60000102914240F00100C8600FDCB1F1804FDB
:102A70001ED040F20040C4F20000814218D040F65F
:102A80000000C4F20000814212D024E042F600406F
:102A9000C4F2010081420BD044F20000C4F20100F4
:102AA000814205D043F20040C4F20100814212D1BC
:102AB00088680722C0F201020240062A4FF0000097
:102AC0000ED0B2F5803F08BF7047086840F00100A3
:102AD000086000207047086840F00100086000208E
:102AE0007047000010B5044690F83C0001284FF0F4
:102AF000020008BF10BD0B46012184F83C1084F889
:102B00003D00206888228168CFF6CE721140816036
:102B100019686F290DDD1F22C0F21002914217DCE7
:102B2000B1F5005F26DA702940D0B1F5805F5BD047
:102B30003AE02F2918DD4F2921DC302952D04029D5
:102B400032D15968DA6802F051FC2068402149E02E
:102B50003F22C0F2100291421CDC2022C0F210027F
:102B600091423FD030221BE0E1B310293AD0202916
:102B700038D019E025D0B1F1101F33D014E050291E
:102B80002AD0602910D15968DA6802F041FC206827
:102B9000602127E04022C0F21002914222D0702230
:102BA000C0F2100291421DD001201EE0D3E90121A4
:102BB000DB6802F08BFA2068816841F07701816060
:102BC00012E0D3E90121DB6802F080FA2068816815
:102BD00041F48041816007E05968DA6802F006FC40
:102BE0002068502102F07EFA0020012184F83D1077
:102BF000002184F83C1010BD7047000010B5044659
:102C000000680169890744BFC1685FEA817160D4C7
:102C100020680169490744BFC1685FEA417164D413
:102C200020680169090744BFC1685FEA017169D47E
:102C300020680169C90644BFC1685FEAC1616DD4FB
:102C400020680169C9071CBFC1685FEAC17172D100
:102C500020680169090644BFC1685FEA016171D457
:102C600020680169C90544BFC1685FEA016170D489
:102C700020680169490644BFC1685FEA41616FD4B9
:102C800020680169890644BFC1685FEA81616ED42A
:102C900020680169C90244BFC1685FEAC1216DD4DF
:102CA00020680169890244BFC1685FEA81216CD450
:102CB00020680169490244BFC1685FEA41216BD4C1
:102CC00020680169090244BFC1685FEA01216AD432
:102CD00010BD6FF002010161012121778069800739
:102CE00068D02046FFF788FF6AE06FF004010161B9
:102CF00002212177806910F4407F64D02046FFF7DD
:102D00007BFF66E06FF00801016104212177C06953
:102D1000800761D02046FFF76FFF63E06FF010017E
:102D2000016108212177C06910F4407F5DD0204601
:102D3000FFF762FF5FE06FF001010161204600F0E4
:102D4000CFF985E76FF0800101612046FFF7B6FDFE
:102D500086E76FF4807101612046FFF7ADFD87E7DC
:102D60006FF040010161204600F0CCF988E76FF078
:102D7000200101612046FFF7A3FD89E76FF4801170
:102D800001612046FFF7A0FD8AE76FF400110161A1
:102D90002046FFF797FD8BE76FF480010161204625
:102DA000FFF794FD8CE76FF4000101612046FFF707
:102DB000E3FD10BD204600F04BF8204600F0DCF8A3
:102DC0000020207724E7204600F042F8204600F05B
:102DD000D3F80020207723E7204600F039F820467A
:102DE00000F0CAF80020207722E7204600F030F8F3
:102DF000204600F0C1F80020207721E780B586B09A
:102E000000680021B0F1804F0591CDE903110291D6
:102E1000019101D006B080BD41F24C00C4F2020025
:102E2000026842F001020260006800F001000090B8
:102E30000098082001900220CDE9020101200491B0
:102E4000059001A94FF09040FEF7C6FC06B080BD8A
:102E500070470000B0B5044690F83C00012804BF5C
:102E60000220B0BD0D464FEAB2010120052984F8C9
:102E70003C0048D8DFE801F0030B131B2333206824
:102E8000294602F03BF9206850F8181F1EE0206820
:102E9000294602F073F9206850F8181F26E02068D0
:102EA000294602F0B3F9206850F81C1F0EE0206894
:102EB000294602F0F3F9206850F81C1F16E020683C
:102EC000294602F033FA206850F8501F41F00801FB
:102ED0000160016821F00401016029690FE02068A8
:102EE000294602F053FA206850F8501F41F400615F
:102EF0000160016821F480610160296909020268AA
:102F0000114301600020002184F83C10B0BD000096
:102F1000002804BF0120704710B5044690F83D001A
:102F200028B9002084F83C00204600F023F8022055
:102F300084F83D002068211D02F036F8012084F855
:102F4000480084F83E0084F83F0084F8400084F88C
:102F5000410084F8420084F8430084F8440084F877
:102F6000450084F8460084F8470084F83D000020BE
:102F700010BD00007047000070470000B0B5044667
:102F800059B1081F4FEAB000032809D8DFE800F064
:102F9000020B0E1104F13F000DE004F13E000AE0C7
:102FA00004F1430007E004F1400004E004F14100B3
:102FB00001E004F14200007801281CBF0120B0BDEF
:102FC00061B1081F4FEAB00003280BD8DFE800F01A
:102FD000020E1216022084F83F0012E0022084F84C
:102FE0003E000EE0022084F843000AE0022084F84C
:102FF000400006E0022084F8410002E0022084F84C
:10300000420020680122012502F04EF82168A1F15A
:103010008040A0F596304FEAB02242F6FF30062AF3
:10302000C4F201003FD805FA02F212F0650F3AD05F
:103030004A6C814242F400424A640FDCB1F1804F95
:103040001ED040F20040C4F20000814218D040F689
:103050000000C4F20000814212D03BE042F6004082
:10306000C4F2010081420BD044F20000C4F201001E
:10307000814205D043F20040C4F20100814229D1CF
:1030800088680722C0F201020240062A4FF00000C1
:1030900025D0B2F5803F08BFB0BD086840F0010000
:1030A00008600020B0BD8142C8DD43F6FF72C4F263
:1030B0000102914202DC42F60040D7E744F20002EE
:1030C000C4F201029142DBD044F60002C4F20102D4
:1030D0009142ADD0086840F0010008600020B0BD0A
:1030E00040F23851C2F20001884218BF704780B5E3
:1030F00040F20410C2F2000080688047BDE88040C2
:10310000704700007047000090F88010012904BF4C
:10311000022070472421C0F88410026811681368E7
:1031200023F00103136021F0005300214166136076
:103130002022C0F8842080F88010084670470000E4
:103140007047000070470000B0B5044690F880005A
:10315000012804BF0220B0BD012084F88000242093
:10316000C4F8840020680568026822F00102026049
:10317000826822F0606211438160204602F028FAE2
:10318000206805602020C4F88400002084F88000B6
:10319000B0BD0000B0B5044690F88000012804BF1F
:1031A0000220B0BD012084F880002420C4F88400EF
:1031B00020680568026822F001020260826822F03D
:1031C000604211438160204602F002FA20680560E7
:1031D0002020C4F88400002084F88000B0BD0000E6
:1031E0007047000070470000B0B504460068D4F88E
:1031F0008410D4F88850806821291AD110F08000FA
:1032000017D000BF206850E8020F216820F080002E
:1032100041E80202002AF5D1A06F38B1FEF748F963
:1032200020B1A06FFEF7BAF9202821D0204602F085
:1032300095FB2068222D81684FF0000021D111F00C
:10324000400108BFB0BD00BF206850E8020F2168F0
:1032500020F0400041E80202002AF5D1E06F60B1A1
:10326000FEF726F948B1E06FFEF798F9202804D15F
:103270001020C4F88C000320B0BD204602F02CFBC7
:103280000020B0BD7047000070B503680446D969DE
:1032900040F62F001E68D3F808E0084020280CD123
:1032A00006F020000EF08052801806D0216F002911
:1032B00000F0AC802046884770BD40F60F00084003
:1032C00000F08C800120C1F200000EEA000C40F2F8
:1032D0002010C0F20040304010EB0C007ED0C80738
:1032E00018BF16F4807007D001201862D4F88C0043
:1032F00040F00100C4F88C0088070EF0010208D5E8
:103300003AB102201862D4F88C0040F00400C4F8EE
:103310008C00480708D53AB104201862D4F88C0014
:1033200040F00200C4F88C0008070CD506F020001D
:1033300050EA0C0007D008201862D4F88C0040F046
:103340000800C4F88C0008050BD516F0806008D082
:103350004FF400601862D4F88C0040F02000C4F8EC
:103360008C00D4F88C00002850D011F020001EBF33
:1033700006F020000EF0805110EB010040F0EA80D2
:103380002068D4F88C10806801F0280100F040001B
:10339000401800F0D880204602F09EFA206880682D
:1033A000400640F1C18000BF206850E8020F21684C
:1033B00020F0400041E80202002AF5D1E06F002829
:1033C00000F0B28045F27D71C0F600018163FEF726
:1033D000A7F8D8B1E06F816B884770BDE06E06EA50
:1033E0000102D5063DD501283BD11020186298680E
:1033F000400642D4B4F85C00B4F85E10B4F85E2025
:10340000002A1CBF401A5FEA004101D170BD00BF15
:10341000216851E8001F226821F4907142E80013EE
:10342000002BF5D14FF6FE71CEF6FF71226852E8FF
:10343000022F23680A4043E80226002EF6D12021FD
:10344000C4F888100021E166216700BF216851E8B7
:10345000001F226821F0100142E80013002BF5D173
:1034600050E0C80253D51EF4800050D04FF48010B5
:1034700018622046FFF7B6FE70BDE06F0068416835
:103480008AB2002AC2D0B4F85C309A42BED2A4F804
:103490005E100068800630D4206850E8000F216874
:1034A00020F4807041E80002002AF5D1206850E83D
:1034B000020F216820F0010041E80202002AF5D144
:1034C000206850E8020F216820F0400041E8020225
:1034D000002AF5D12020C4F888000020E06600BF53
:1034E000206850E8000F216820F0100041E8000239
:1034F000002AF5D1E06FFDF7DBFFB4F85C00B4F80B
:103500005E10401A81B22046FFF71AFE70BD080611
:103510000ED506F080000EF40003C01808D0616FCD
:1035200000297FF4C7AE71E72046FFF7ABFE70BD00
:10353000500616D4080218D516F0804015D0204643
:10354000FFF74EFE70BD2046FFF79CFE0020C4F83A
:103550008C0070BD216F00293FF412AF20468847D0
:103560000EE7204602F0E6F970BDC8017FF54EAFC8
:10357000B6F1FF3FC8BF70BD2046FFF7E3FD70BD49
:1035800010B5B0B10446D0F8840028B9002084F802
:103590008000204600F026F82420C4F8840020682B
:1035A000016821F001010160204602F057FA01286C
:1035B00001D1012010BDA06A10B1204602F032F8FE
:1035C0002068416821F490414160816821F02A011E
:1035D0008160016841F001010160204602F096F827
:1035E00010BD00002DE9F04397B00446002501A866
:1035F00044211695CDE91455CDE91255FCF740FE4E
:10360000206843F60001C4F20101884202D017B0DD
:10361000BDE8F0830120CDE9010501A8FEF7C6FA57
:10362000002818BFFDF73CFB41F24C00C4F2020039
:10363000416940F21C0841F4804141614169002622
:1036400001F48041009100990168C4F2020841F040
:1036500001010160006812A900F0010000900098CB
:103660004FF4C060129002201390072016904FF084
:103670009040CDE91466FEF7AFF840F20445C2F27F
:10368000000518204FF08009C5E900804FF400576D
:103690002846C5E90266C5E90496C5E906662F62B3
:1036A000FDF7D4FF002818BFFDF7FAFAE567AC6212
:1036B00040F2644508F11400C2F2000519211022FD
:1036C00085E847022846C5E90566C5E90767FDF7AD
:1036D000BDFF002818BFFDF7E3FA252001210022D5
:1036E000A567AC62FEF7CCF92520FEF7C5F917B047
:1036F000BDE8F08380B5D0F88830202B0BD10029AD
:103700004FF0010318BF002A01D1184680BD90F880
:103710008030012B01D1022080BD012380F8803050
:103720000023C366D0F800C048F20003C4F20003CF
:103730009C450FD0DCF804301B020BD5036853E81E
:1037400000CFD0F800E04CF080634EE8003CBCF1C4
:10375000000FF3D102F0E4FA0346184680BD0000E2
:1037600070470000704700002DE9F04381B0044627
:10377000D0F8840020280BD10E4600294FF001001C
:103780005CD01746002A59D094F88000012803D154
:10379000022001B0BDE8F083012084F880004FF0E2
:1037A000000921201D46C4F88C90C4F88400FEF75F
:1037B000F7F8A4F85470A4F85670A1680746B1F55C
:1037C000805F07D1206900281CBF30464E46B046B6
:1037D000064601E04FF0000884F8809009E000BF41
:1037E00016F8010B21688862B4F856000138A4F875
:1037F0005600B4F8560088B12046802100223B468E
:10380000009502F0E1FA88B9002EE9D138F8020BF0
:1038100021686FF35F2088620026E5E7204640219B
:1038200000223B46009502F0CFFA18B1032001B008
:10383000BDE8F0832020C4F88400002001B0BDE87A
:10384000F0830000B0B50446D0F8840020280BD1E6
:1038500000294FF001004ED0002A134608BFB0BD2A
:1038600094F88000012801D10220B0BD012084F825
:103870008000002521202165A4F85430A4F856309A
:10388000C4F88C50C4F88400A06F00B345F68902D8
:10389000C0F6000245F6CD0C45F2917E00F12C07F2
:1038A000C0F6000CC0F6000E87E80450226885635D
:1038B0002832FDF737FF50B11020C4F88C000020EB
:1038C00084F880002020C4F884000120B0BD206866
:1038D00040210162202084F88050C4F8840000BF99
:1038E000206850E8020F216840F0800041E80202A1
:1038F000002AF5D10020B0BD7047000070470000DD
:10390000FEE7000070B582B04BF6A130ADF80400C0
:1039100040F25510009040F23850C2F20000FFF71C
:1039200091F800F07DF800F0FFFA002000F046FA70
:10393000002000F057FB4FF6FF7000F06BFB40F2E9
:103940002000C2F200008168FF20884740F238342E
:10395000C2F2000420467F21FDF7A8F940F25C1175
:10396000C2F2000120466422FDF7ECFC40F2F4258F
:10397000C2F20005E868804740F2EC40C2F2000065
:103980000C21FFF7FBFA6868FCF78CFC40F230066C
:10399000C2F2000606F18C0402460B4617A120462F
:1039A00002F028FBD6F8CC202046142190472A8824
:1039B00006F1640415A1204602F01CFBD6F8CC20C9
:1039C00020461421904740F28450C2F20000016862
:1039D00040F208340A68C2F2000442F010020A60A1
:1039E000A1683222FFF786FEE2686846062190470A
:1039F0000AA002F081FF02B070BD00BF5041335FEA
:103A0000447574793A252E30662525005041335F80
:103A10004672653A2564487A00000000200D0000D7
:103A200080B586B000200590C02001900120CDE92E
:103A300002000220049040F20040C4F6000001A9F8
:103A4000FDF7CAFE06B080BDB0B501F00FFA08253B
:103A5000002400BF0020013D01F0EEF9012001F03B
:103A6000EBF901F0F5F9290640EA4404F2D100200F
:103A700001F0E2F901F01AFAE0B2B0BD80B5002021
:103A800001F008FA012001F0D7F9002001F0D4F983
:103A900080BD0000B0B50446082500BF0020013DF0
:103AA00001F0CAF904F0800001F0F4F9012064008B
:103AB00001F0C2F92806F1D1002001F0BDF9B0BD36
:103AC00080B5012001F0E6F9012001F0B5F90020F0
:103AD00001F0B2F980BD000080B5012001F0DAF9F3
:103AE000012001F0A9F9002001F0D4F9002001F033
:103AF000A3F980BD80B5002001F09EF9002001F0FF
:103B0000C9F9012001F098F9012001F0C3F980BD45
:103B1000F0B581B040F21005C2F20005A878002887
:103B200040D040F2F426C2F2000696ED010AB1EE52
:103B3000041A9FED4F2A30EE010AB4EE420A9FEDBF
:103B40004D2AF1EE10FAC8BFB0EE410A80EE021A1B
:103B50002C2086ED010AC4F2000090ED002AB8EE98
:103B6000422A21EE021ABCEEC11A80ED051A10EEAF
:103B7000100AFCF797FB40F23007C2F2000707F18A
:103B80008C0402460B463CA1204602F033FAD7F8DB
:103B9000CC20204614219047B06880470020A870B0
:103BA00001B0F0BDE878002847D040F2F426C2F218
:103BB0000006308841F2941200F5FA7081B2914209
:103BC00088BF4FF4FA7082B200EE102A9FED2E1AD1
:103BD000B8EE400A81EE000ABFEE001A30802C20B9
:103BE000C4F2000040F23007C2F2000707F164049B
:103BF00026A130EE010ABCEEC00A80ED000A96ED67
:103C0000010A9FED1C1A80EE010A90ED001AB8EE31
:103C1000411A20EE010ABCEEC00A80ED050A2046DA
:103C200002F0E8F9D7F8CC20204614219047B0687C
:103C300080470020E87001B0F0BD287950B140F213
:103C40002000C2F200000121A0F80110002028711C
:103C500001B0F0BD687948B140F22000C2F2000026
:103C60004FF48071A0F801100020687101B0F0BD20
:103C7000000034420000C8425041335F44757479FB
:103C80003A252E3066252500002474495041335FC3
:103C90004672653A2564487A00000000B0B540F2EB
:103CA0000044C4F6000420460121FDF765FE78B10A
:103CB00020460221FDF760FE50B120460421FDF7A9
:103CC0005BFE28B14FF090400121FDF755FEB0B9E1
:103CD000204601210125FDF74FFE88B12046022133
:103CE0000225FDF749FE58B120460421FDF744FEA8
:103CF00040B14FF090400121FDF73EFE20B100257C
:103D00002846B0BD0320B0BD0420B0BD80B5FFF78C
:103D1000C5FF40F23031C2F200010A78087082F02B
:103D2000FF0340F210011842C2F200011CBF002341
:103D30000B800B88092B12D880F0FF00104001384F
:103D4000032888BF80BDDFE800F0020B05080120D2
:103D5000887080BD0120087180BD0120487180BD40
:103D60000120C87080BD000080B586B0002005909D
:103D7000CDE902004FF6FF7001900320049040F659
:103D80000000C4F6000001A9FDF726FD06B080BDC5
:103D900080B586B00020059003904FF6FF7001902B
:103DA000012002900320049040F60000C4F60000B9
:103DB00001A9FDF711FD06B080BD0000B0B50446B5
:103DC0000020002100F01AF900F05EF94FF496355A
:103DD000204600F02BF9013DFAD1B0BDF0B587B017
:103DE000002541F24C000695CDE90455CDE9025578
:103DF000C4F202000168182741F004010160016863
:103E0000C4F6000701F0040101910199016802ACB8
:103E100041F0010101600168012601F001010191F9
:103E20000199016841F0020101600068214600F03B
:103E30000200019001984FF44870029007F57A70E3
:103E40000595CDE90365FDF7C7FC4FF48070CDE91A
:103E500002064FF090402146CDE90455FDF7BCFC29
:103E6000FFF796FF386840F480703860D7F8000498
:103E700040F40870C7F8000407B0F0BD80B5203AE0
:103E8000D3B25B0053FA82F246F63413C0F6000355
:103E900003EB021200F01AF880BD0000F0B581B00B
:103EA0000A788AB104464D1C002740F23F1600BF35
:103EB000B1B2D2B22046FFF7E1FF122F04D8EA5D7B
:103EC000103E0137002AF3D101B0F0BD2DE9F047D3
:103ED00014468846814600F091F840F2040A40F208
:103EE00032360027C2F2000AC2F2000600F0CCF817
:103EF000002500BF34F81700E840C007304608BF6F
:103F00005046008800F092F80135102DF2D109F1E9
:103F100001095FFA89F0414600F070F80137182F67
:103F200008BFBDE8F087E1E710B5FFF757FF0020B5
:103F300000F014F840F23434C2F2000420802088EB
:103F400048F23021884202D100F03AFD01E000F051
:103F5000C3FD002000F002F8208010BDB0B540F293
:103F60001844C4F60004216941F4007121612169FB
:103F700041F480712161216841F02001216040F607
:103F80001401C4F600010860206940F0200020619F
:103F900000BF00BF00BF206840F020002060206804
:103FA00040F480702060FFF7DFFE4FF61040CFF640
:103FB000FF70215841F48071215000BF00BF4FF6BF
:103FC000004000BFCFF6FF70D4F8F853215841F4F9
:103FD00080712150FFF7DCFE206840F40071A8B228
:103FE0002160B0BD81B0ADF80200BDF8020040F222
:103FF0000401C2F20001088001B0704710B50C4600
:104000000146202000F070F82120214600F06CF8D5
:1040100010BD000081B0ADF80200BDF8020040F212
:104020003231C2F20001088001B0704740F21841FD
:10403000C4F60001D1F8FC230B6943F400730B6153
:104040000B6843F480730B600B6843F020030B6034
:10405000C1F8FC03086940F02000086100BF00BF00
:1040600000BF086840F020000860086840F48070D5
:10407000086000BF00BF00BF086840F4007008601F
:1040800090B2C1F8FC03704740F21840C4F600003B
:10409000D0F8FC13026989B242F40072026102692D
:1040A00042F480720261026842F020020260222221
:1040B000C0F8FC23026942F02002026100BF00BF89
:1040C00000BF026842F020020260026842F480727F
:1040D000026000BF00BF00BF026842F400720260CD
:1040E000C0F8FC137047000040F21842C4F600020A
:1040F000D2F8FCC3136943F400731361136943F4EA
:1041000080731361136843F020031360C2F8FC034B
:10411000106940F02000106100BF00BF00BF1068B0
:1041200040F020001060106840F480701060C2F809
:10413000FC13106940F02000106100BF00BF00BFF9
:10414000106840F020001060106840F4807010602B
:104150001FFA8CF0C2F8FC037047000081684FF62C
:10416000C072C7F6FF7211400231816070470000D3
:1041700081684FF6C072C5F6FF72114081607047CA
:1041800081684FF6C072C7F6FF721140013181603D
:104190007047000081684FF6C072C6F6FF7211408A
:1041A00001F180518160704740F20830C5F2000093
:1041B000006800F0E070704740F20830C5F200007F
:1041C000006800F01F00704700EB8100006E00F0F7
:1041D000F84070478068C0F3C000704781684FF6B0
:1041E000C072C7F6FF721140203181607047000035
:1041F0008068C00F704700008068C0F3407070474F
:104200008068C0F340007047806800F0010070478C
:104210008068C0F3007070478068C0F3800070470A
:10422000C06800F44060B0FA80F0400970470000B8
:10423000C1F3012300EB8300D0F830C001F01F016F
:104240001F238B40C2F384622CEA030302FA01F1BC
:10425000194301637047000081684FF6C072C7F6CA
:10426000FF721140043181607047000081684FF691
:10427000C072C7F6FF7211401031816070470000B4
:10428000C1F3406300EB8300D0F814C0C1F30451C4
:1042900007238B402CEA030302FA01F11943416121
:1042A000704700000023C4F27F036FF3DF419A429E
:1042B000D0F8B02014BF22EA01011143C0F8B010B9
:1042C0007047000040F20831C5F200010A6822F48C
:1042D0007C1210430860704740F20831C5F20001BB
:1042E0000A6822F0E07210430860704700EB81001A
:1042F000D0F860C04FF20001C0F2FF3102F0F84286
:1043000001EA0C011A43114341F000410166704774
:1043100000EB8100016E21F00071114301667047CE
:1043200000EB8100016E21F080711143016670473E
:1043300000EB8100016E21F0004101667047000032
:10434000426922F0004211434161704782684FF692
:10435000C073C3F6FF731A4001F08041114401F1AC
:10436000004181607047000010B540F60044C4F67B
:104370000004A4F5806201021046FDF703FB20460D
:1043800004210122FDF706FB204604210022FDF74F
:1043900001FB10BD10B540F60044C4F60004A4F5BE
:1043A0008062010210460122FDF7F4FA2046042142
:1043B0000122FDF7EFFA204604210022FDF7EAFA78
:1043C00010BD000010B540F60044C4F60004A4F58A
:1043D0008062010210460022FDF7DCFA204604212B
:1043E0000122FDF7D7FA204604210022FDF7D2FA78
:1043F00010BD0000B0B588B040F2383040F2001176
:10440000C2F20000C5F2000100244FF4003280E83F
:1044100016004FF48071042581830121CDE9064403
:10442000CDE90444CDE90244CDE90044C0E90344A8
:10443000C0E90545016280F82440C0E90B4480F8DA
:104440003810C46380F84040FCF722FE002818BFF3
:10445000FCF726FC48F20000C3F6F060009006204E
:10446000CDE901007F20CDE9030540F23830C2F2EA
:10447000000069460594FCF75BFC002818BFFCF7B8
:104480000FFC08B0B0BD000080B582B041F248001A
:10449000C4F202000168002241F0040101600168D9
:1044A00001F0040101910199016841F001010160ED
:1044B0000068002100F00100009000980B20FDF73B
:1044C000DFFA0B20FDF7D8FA0D2000210022FDF7BE
:1044D000D7FA0D20FDF7D0FA02B080BD2DE9F04FDC
:1044E00087B0002441F24C000694CDE90444CDE9A4
:1044F0000244C4F20200016840F2004841F00401A5
:1045000001600168C4F6000801F0040101910199FD
:10451000016808F5806741F020010160016801220F
:1045200001F020010191019901684FF47F4641F0AB
:10453000010101600168012501F00101019101996A
:10454000016841F002010160016801F0020101917E
:104550000199016841F00801016000684FF47F4152
:1045600000F00800019001983846FDF713FA08F5AD
:1045700000694846042100224FF0040BFDF70AFAB7
:104580004046C02100224FF0C00AFDF703FACDE9F2
:10459000026502AE38463146CDE90444FDF71CF908
:1045A0004FF090403146CDE902540495FDF714F9DF
:1045B000072002A931C140463146FDF70DF902201E
:1045C000059048463146CDE902B50494FDF704F95B
:1045D00040463146CDE902A5CDE90444FDF7FCF89B
:1045E00007B0BDE8F08F000010B586B040F2C440BF
:1045F00042F600010024C2F20000C4F200011F22B2
:104600004FF0804CC0E9001400F10801CDE90444EA
:10461000CDE90244CDE9004440F2E7331CC1C0E9D2
:104620000544C0E907C4FEF701F8002818BFFCF7ED
:1046300037FB45F62310ADF8040050208DF8060036
:1046400040F2C440C2F2000001A901220294CDE967
:104650000444FEF7B5F8002818BFFCF721FB40F230
:104660000110C0F20100009040F2C440C2F200000C
:1046700069460122FEF754F8002818BFFCF710FB2A
:1046800006B010BD10B58EB040F2EC400021C2F271
:10469000000040F28F14CDE90C11CDE90A11CDE9EB
:1046A0000811CDE90611CDE90411CDE90211CDE9DA
:1046B00000114FF080424F23C0E9021401618021B4
:1046C000C0E900238161FEF759F9002818BFFCF703
:1046D000E7FA4FF480500A9040F2EC40C2F200003A
:1046E0000AA9FEF7FFF9002818BFFCF7D9FA40F233
:1046F000EC40C2F20000FEF70BFC002818BFFCF7EC
:10470000CFFA40F2EC400024C2F2000007A907945F
:104710000994FEF7DDF8002818BFFCF7C1FA602005
:1047200000902820CDE9010440F2EC40C2F20000E4
:1047300069460C220494FEF78DFB002818BFFCF795
:10474000AFFA40F2EC40C2F20000FEF757FB0EB0A9
:1047500010BD000010B584B040F2385041F20001A5
:104760000024C2F20000C4F2000140F2E7330394D7
:10477000CDE901444F2280E81600C3608461FEF752
:10478000FDF8002818BFFCF78BFA40F23850C2F24F
:10479000000001A901940394FEF79AF8002818BFBD
:1047A000FCF77EFA04B010BD80B540F2845043F6A9
:1047B0000001C2F20000C4F2010100234FF00C0C12
:1047C0004FF4E13280E80E00C0E90333C0E905C3CD
:1047D000C0E90733C0E90933FEF7D2FE002818BF4D
:1047E000FCF75EFA40F28450C2F200000021FEF7AE
:1047F000D1FC002818BFFCF753FA40F28450C2F2F3
:1048000000000021FEF7A0FC002818BFFCF748FAC2
:1048100040F28450C2F20000FEF776FC002818BF78
:10482000FCF73EFA80BD0000FEE7000010B50EA1C7
:104830001820FFF733FB40F23004C2F2000404F109
:104840003C014820FFF72AFB04F164017820FFF7C0
:1048500025FB04F18C01A820FFF720FB04F1B40133
:10486000D820FFF71BFB10BD202020202020202077
:104870004D61696E202020202020202000000000B3
:10488000FEE7000000F0070080F00703042B28BFBC
:1048900004234FF0FF3C03380CFA03F338BF002029
:1048A000994381400CFA00F022EA00000843704767
:1048B00080B582B040F20801C2F2000100204B68CE
:1048C0008DF80600ADF8040001A9082003229847DE
:1048D000BDF804009FED171A00EE100AB8EE400A6A
:1048E00081EE000A9DF806109FED132A01EE101AC2
:1048F000B8EE411A81EE022A40F2F421C2F2000120
:1049000081ED011ABFEE001A08802C20C4F20000CD
:1049100030EE010ABCEEC00A80ED000A90ED000AFC
:10492000B8EE400A22EE000ABCEEC00A80ED050A8D
:1049300002B080BD002474490000C84280B582B036
:1049400040F2F420C2F20000018890ED010AADF8B7
:10495000041040F20801BDEEC00AC2F2000110EEE0
:10496000100A0B688DF8060001A908200322984759
:1049700002B080BD7047000041F20C00C4F202009A
:104980000168026842F2004301F00301C2F303121E
:10499000C0F2F4030132032904BF43F20063C0F202
:1049A0006E130168B3FBF2F20068C1F306215143B4
:1049B000C0F34160022202EB4000B1FBF0F070470F
:1049C00080B500200121FFF78FFB01200021FFF7B8
:1049D0008BFB102041F29071FFF786FB60204FF4B3
:1049E0001C51FFF781FB61200121FFF77DFB462071
:1049F0000221FFF779FB132048F21001FFF774FB47
:104A0000122048F2FE01FFF76FFB02204FF4A06175
:104A1000FFF76AFB032041F23001FFF765FB30200E
:104A200040F20331FFF760FB312040F20331FFF722
:104A30005BFB322040F20331FFF756FB33204FF48B
:104A40004071FFF751FB34200321FFF74DFB352068
:104A500040F20331FFF748FB36201421FFF744FBF7
:104A6000372040F20331FFF73FFB382040F203319B
:104A7000FFF73AFB392040F20331FFF735FB3A20CC
:104A80004FF44071FFF730FB3B200321FFF72CFB75
:104A90003C2040F20331FFF727FB3D204FF4A051AB
:104AA000FFF722FB92204FF40071FFF71DFB9320CC
:104AB00040F20331FFF718FB902040F60D01FFF79D
:104AC00013FB032041F21801FFF70EFB072040F211
:104AD0007311FFF709FB80BD80B5E32043F20801A5
:104AE000FFF702FBE7201221FFF7FEFAEF2041F269
:104AF0003121FFF7F9FA01200021FFF7F5FA022032
:104B00004FF4E061FFF7F0FA032041F23001FFF7C4
:104B1000EBFA04200021FFF7E7FA082040F2072112
:104B2000FFF7E2FA09200021FFF7DEFA0A20002150
:104B3000FFF7DAFA0C200021FFF7D6FA0D2000214A
:104B4000FFF7D2FA0F200021FFF7CEFA1020002144
:104B5000FFF7CAFA11200721FFF7C6FA1220002139
:104B6000FFF7C2FA13200021FFF7BEFAC820FCF7B6
:104B70001FFE102041F29061FFF7B6FA112040F2BB
:104B80002721FFF7B1FA3220FCF712FE12201D2177
:104B9000FFF7AAFA3220FCF70BFE13204FF4006156
:104BA000FFF7A2FA29201421FFF79EFA2B200B21F0
:104BB000FFF79AFA3220FCF7FBFD20200021FFF7D7
:104BC00093FA21200021FFF78FFA30200721FFF709
:104BD0008BFA312040F20771FFF786FA3220062166
:104BE000FFF782FA352040F20471FFF77DFA362094
:104BF00041F60471FFF778FA37200421FFF774FAC1
:104C000038200021FFF770FA392040F20671FFF7D3
:104C10006BFA3C2040F20171FFF766FA3D200F214C
:104C2000FFF762FA50200021FFF75EFA5120EF21D2
:104C3000FFF75AFA52200021FFF756FA532040F2AC
:104C40003F11FFF751FA60204FF41C51FFF74CFA67
:104C500061200121FFF748FA6A200021FFF744FA9A
:104C600080200021FFF740FA81200021FFF73CFA65
:104C700082200021FFF738FA83200021FFF734FA61
:104C800084200021FFF730FA85200021FFF72CFA5D
:104C900090201021FFF728FA92200021FFF724FA34
:104CA00093200321FFF720FA95204FF48871FFF736
:104CB0001BFA97200021FFF717FA98200021FFF731
:104CC00013FA032041F21801FFF70EFA072040F211
:104CD0007311FFF709FA80BD010901EB810100F0B2
:104CE0000F0000EB4100C0B270470000A0F10A01C4
:104CF0004CF6CD43CAB2CCF6CC43A2FB0323DA0870
:104D000002EB8202A1EB4201012202EBD30209284D
:104D100088BF41EA0210C0B27047000070B5044677
:104D20000068C16849061DD4C16841F08001C160B6
:104D3000FCF736FE2168C968490613D405460026EB
:104D4000FCF72EFE401BB0F57A7F84BF032684F863
:104D500025602068032EC06802D010F04000EFD01C
:104D6000F0B270BD0026F0B270BD000010B5044670
:104D70000068C16821F08001C1608169890609D499
:104D80002046FDF77DFD00280EBF0020032084F89B
:104D9000250010BD816921F0200181612046FDF7C9
:104DA0006FFD00281ABF032084F825000020216829
:104DB0008A6942F020028A6110BD000070B582B09D
:104DC00040F21864C2F20004A07840F2001640F2EB
:104DD000C445C2F20006C2F20005307028462146E2
:104DE0000022FDF7FDFB40F21461C2F200012846EB
:104DF0000022FDF7D3FB3078A578A84211D040F20D
:104E00003006C2F200062278637806F13C0406A15F
:104E10002046009501F0EEF8D6F8CC20204614216B
:104E2000904702B070BD00BF54696D653A25643A81
:104E300025643A256400000040F21841C4F60001E0
:104E4000002808BF1031086840F040000860704733
:104E500080B540F20040C4F600008021FCF78CFDD4
:104E60000138B0FA80F0400980BD000080B586B0FE
:104E700000200590029080200190012003900220E4
:104E8000049040F20040C4F6000001A9FCF7A4FC25
:104E900006B080BD40F21841C4F60001002808BFEA
:104EA0001031086840F080000860704780B586B017
:104EB0000020059003908020019011200290022094
:104EC000049040F20040C4F6000001A9FCF784FC05
:104ED00006B080BD70470000B0B501380024B4EBC7
:104EE000106F1CBF0120B0BD4EF21005CEF20005C0
:104EF00068604FF0FF300F2101F016F80720AC601A
:104F000028602046B0BD000080B5FCF74FFD80BD95
:104F100070B594B006AC20463821FBF7B1F90025F6
:104F20004FF400700595CDE90355CDE90155FCF727
:104F3000BBFD092006904FF48030079001200B90B4
:104F4000022014210D900326CDE91010CDE91200A6
:104F50002046CDE90E66FDF7E3F868B90F20CDE9EC
:104F6000010601A80221CDE903550595FCF768FF6C
:104F7000002804BF14B070BDFBF792FE4EF68850B7
:104F8000CEF20000016841F470010160704700003A
:104F900080B500F075FA80BD80B540F23850C2F29D
:104FA0000000FDF72BFE80BD80B540F2FF7C02685B
:104FB000C4F2000C604512DD40F60003C4F20003A9
:104FC000984215D043F20043C4F2010398420FD037
:104FD00042F60043C4F20103984209D00CE0B0F15C
:104FE000804F05D040F20043C4F20003984203D141
:104FF0004B6822F070021A4343F2FF33C4F20103FC
:10500000984209DC604516DCB0F1804F28D040F2B0
:105010000043C4F2000321E044F2FF33C4F2010371
:10502000984211DC43F20043C4F20103984217D0C6
:1050300044F2000310E040F60003C4F2000398427B
:105040000ED042F6004307E044F60003C4F2010329
:10505000984205D044F20043C4F20103984203D1C0
:10506000CB6822F440721A434B6922F0800E8A68A2
:1050700043EA0E03D1F800C00360C262A0F180428F
:10508000A2F596324FEAB222072AC0F828C007D804
:10509000012303FA02F212F0E50F1CBF0969016354
:1050A0000121416180BD000080B501F01F014FF07A
:1050B000010CD0F820E00CFA01F32EEA030303629E
:1050C000036A02FA01F11943016280BDD0F808C0F9
:1050D00011432CF47F4C41EA032141EA0C01816029
:1050E0007047000082684FF68873CFF6CF731A407E
:1050F000114341F00701816070470000B0B5026ABA
:10510000A0F1804422F001020262036A4268D0F8F2
:1051100018C08D68A4F59634D1F800E023F002039E
:105120004FEAB424072C43EA05030AD80125A54019
:1051300015F0E50F1FBFCD6823F00C0325F0040523
:105140002B43072C0BD8012505FA04F414F0E50FC6
:105150001FBF22F44072D1E9054522432A434FF68E
:105160008C74CFF6FE740CEA040545EA0E05426025
:105170008561496841630362B0BD0000B0B5026A51
:1051800043F2004422F010020262036AC4F20104F6
:105190004268D0F818C0A0428C68D1F800E023F033
:1051A000200343EA041305D042F60044C4F201048C
:1051B000A04207D1CC686FF0400523F0C00305EA98
:1051C00004142343A0F18044A4F596344FEAB42498
:1051D000072C0DD8012505FA04F414F0E50F1FBFC4
:1051E00022F44062D1E9054542EA840242EA85029E
:1051F00048F6FF44CFF6FF640CEA040545EA0E25A5
:1052000042608561496881630362B0BDB0B5026ADE
:1052100043F2004422F480720262036AC4F2010481
:105220004268D0F81CC0A0428C68D1F800E023F49A
:10523000007343EA042305D042F60044C4F201049B
:10524000A04207D1CC6840F2FF45240223F440631A
:10525000AC432343A0F18044A4F596344FEAB42430
:10526000072C0DD8012505FA04F414F0E50F1FBF33
:1052700022F44052D1E9054542EA041242EA0512FD
:105280004FF68C74CFF6FE740CEA040545EA0E0561
:105290004260C5614968C1630362B0BDB0B5026ACE
:1052A00043F2004422F480520262036AC4F2010411
:1052B0004268D0F81CC0A0428C68D1F800E023F40A
:1052C000005343EA043305D042F60044C4F201041B
:1052D000A04207D1CC6844F6FF75240323F4404371
:1052E000AC432343A0F18044A4F596344FEAB424A0
:1052F000072C0DD8012505FA04F414F0E50F1FBFA3
:1053000022F44042D1E9054542EA841242EA85127C
:1053100048F6FF44CFF6FF640CEA040545EA0E2583
:105320004260C561496801640362B0BD70B5026A3C
:10533000A0F1804522F480320262A5F59635D0F8BE
:1053400020C04268036D0C68D1F808E04FEAB5252B
:10535000072D0AD8012606FA05F515F0E50F1EBF40
:105360004D6922F4803242EA05224FF68F75CFF65E
:10537000FE752B402343426003652CF400364968D8
:1053800046EA0E428164026270BD000070B5026A96
:10539000A0F1804522F480120262A5F59635D0F87E
:1053A00020C04268036D0C68D1F808E04FEAB525CB
:1053B000072D0AD8012606FA05F515F0E50F1EBFE0
:1053C0004D6922F4802242EA852248F6FF75CFF625
:1053D000FF652B4043EA0423426003652CF400166A
:1053E000496846EA0E52C164026270BDD0F820C01E
:1053F000036A23F001030362836923F0F00343EAA5
:1054000002122CF00A031943826101627047000006
:10541000036A23F0100303628369D0F820C023F4E9
:10542000704343EA02322CF0A00343EA0111826187
:105430000162704740F22030C2F20000017800297A
:1054400008BF704740F214120078C2F200024FF019
:10545000010C0232012898BF604603E0013802F1D6
:105460000C020BD01388002BF8D0013B19041380D9
:10547000F4D1518802F802CC1180EFE770470000A8
:10548000F0B581B040F22034C2F200042078C0B1FF
:1054900040F21410C2F2000000F1080500260027B7
:1054A00006E000BF20780137874205F10C0508D2DD
:1054B00015F8080C0028F5D0286805F8086C804716
:1054C000F0E701B0F0BD000080B540F22000C2F26C
:1054D0000000017800290CBF8168C16880208847DE
:1054E00040F23000C2F20000D0F8C800804780BD12
:1054F00010B540F21004C2F20004A0688047E068D2
:10550000804710BD80B540F22000C2F20000417813
:1055100009B1C16804E08178002908BF80BD8168B5
:105520001520884780BD000080B540F20430C2F2EB
:1055300000000068804780BD2DE9F04184B040F252
:105540000837C2F20007387808B340F25C10C2F2A4
:105550000000D7F80480D0F89001FAF7A3FE0546C2
:1055600040F2F420C2F20000048840680E46FAF7C8
:1055700099FE41EC100B07A140462A4633468DEDBB
:10558000020B009400F036FD78683969884704B052
:10559000BDE8F0810D0A6164633A252E3266560D2E
:1055A0000A6672653A2564487A0D0A647574793A18
:1055B000252E306625250D0A0000000080B540F23A
:1055C0005C10C2F20000D0F89401804780BD00005A
:1055D00080B5416E01B3016847F61C3C8A68896852
:1055E000C0F6000C490F47F6243E1CF80130C0F607
:1055F000000E1EF80110C2F34262DB00B3FBF1F3B0
:105600001CF802101EF80220C900B1FBF2F1A0F84C
:105610006A30A0F8681080BD0121A0F86A10A0F8D7
:10562000681080BD80B5816ACA070CD18A0715D47D
:105630004A071ED40A0727D4CA0630D48A0639D4AA
:105640004A0657D541E00268D0F82CC0536823F4CD
:10565000003343EA0C0353608A07E9D50268D0F8A7
:1056600030C0536823F4803343EA0C0353604A0785
:10567000E0D50268D0F834C0536823F4802343EAAD
:105680000C0353600A07D7D50268D0F838C05368B6
:1056900023F4004343EA0C035360CA06CED50268E4
:1056A000D0F83CC0936823F4805343EA0C03936022
:1056B0008A06C5D50268D0F840C0936823F4005329
:1056C00043EA0C0393604A0614D50268D0F844C03C
:1056D0005368BCF5801F23F4801343EA0C03536026
:1056E00008D1D2F804C0D0F848E02CF4C00343EA53
:1056F0000E035360090658BF80BD0168C06C4A683C
:1057000022F400221043486080BD0000B0B582B092
:1057100004460020C4F88C00FCF742F921680546D5
:10572000096809070BD56FF07E4C20464FF4001135
:1057300000222B46CDF800C000F046FB78B9206867
:10574000006840070ED56FF07E4C20464FF4800174
:1057500000222B46CDF800C000F036FB10B103202C
:1057600002B0B0BD2020C4F88400C4F88800002036
:10577000E06684F8800002B0B0BD000080B5806AA9
:105780000021A0F85E10A0F85610FDF77BFD80BD4B
:10579000B0B5846A2068D4F88410D4F88850806842
:1057A000212908D110F0800005D00020A4F856006F
:1057B000204600F0D3F82068222D806808D110F030
:1057C000400005D00020A4F85E00204600F084F8D8
:1057D000D4F88C0040F01000C4F88C002046FDF78F
:1057E00051FDB0BD80B50168806A0968890631D471
:1057F0000021A0F85E1000BF016851E8001F026898
:1058000021F4807142E80013002BF5D1016851E8C2
:10581000021F026821F0010142E80213002BF5D1BA
:10582000016851E8021F026821F0400142E80213BA
:10583000002BF5D12021C0F88810C16E012909D1B3
:10584000016851E8001F026821F0100142E80013CE
:10585000002BF5D1C16E012904D1B0F85C10FDF721
:105860006FFC80BDFDF77CFF80BD000080B5806AC5
:10587000C16E012905D1B0F85C104908FDF760FC44
:1058800080BDFDF76FFF80BD80B50168806A096843
:10589000890618D40021A0F8561000BF016851E80D
:1058A000021F026821F0800142E80213002BF5D1AB
:1058B000016851E8001F026841F0400142E800130E
:1058C000002BF5D180BDFEF717F880BD80B5806A4A
:1058D000FEF714F880BD0000016851E8001F02685F
:1058E00021F4907142E80013002BF5D14FF6FE7CB5
:1058F000CEF6FF7C026852E8022F036802EA0C022F
:1059000043E802210029F5D1C16E01290AD100BF67
:10591000016851E8001F026821F0100142E80013FD
:10592000002BF5D12021C0F888100021C166016745
:105930007047000080B500BF016851E8001F026891
:1059400021F0400142E80013002BF5D12021C0F8DE
:10595000841000214167FDF7CFFF80BD016851E849
:10596000001F026821F0C00142E80013002BF5D1AE
:10597000016851E8021F026821F4000142E80213A5
:10598000002BF5D12021C0F88410704780B540F27B
:105990008450C2F20000FDF727FC40F2083C0021D1
:1059A000C2F2000C4FF0000E0BE000BFDCF8080064
:1059B000062B425CC2540ED00EF1010E0131322989
:1059C00009D05FFA8EF3002BF0D1DCF80800405CC0
:1059D0005528EBD0F2E7DCF80810487802281AD1F5
:1059E0008878C0B9C878012815D14879BB2812D168
:1059F0000979022907D001290DD140F22000C2F215
:105A00000000012104E040F22000C2F20000002169
:105A100001708CF800104FF0FF310022DCF8080014
:105A20000844013131294270F8D180BD80B50A4661
:105A3000014640F28450C2F20000FDF703FF80BD32
:105A400010B50446FAF727FC82B240F28450C2F245
:105A500000002146FDF7F6FE10BD0000F0B581B054
:105A600004462269D4E90213006867690A43E169C0
:105A70003A43076846F6F316CCF6FF760A433740FA
:105A80003A43026042684FF2FF4622F440521A4302
:105A9000426048F20002A369C4F2000290421CBFB7
:105AA000276A3B438768C1F2FF1637403B43836058
:105AB000C36A676A23F00F033B43C36244F6FF33B4
:105AC000C4F2000398424FF0100314DD44F600477F
:105AD000C4F20007B84221D0904226D043F6000716
