:020000040800F2
:10000000B0050020F10100082B260008A719000800
:100010002926000889020008593000080000000065
:10002000000000000000000000000000492A000855
:100030008B020008000000002D2600084B2A000853
:100040000B0200080B0200080B0200080B0200085C
:100050000B0200080B0200080B0200080B0200084C
:100060000B0200080B0200080B0200080B0200083C
:100070000B0200080B0200080B0200080B0200082C
:100080000B020008000000000B0200080B02000831
:100090000B0200080B0200080B0200080B0200080C
:1000A0000B0200080B0200080B0200080B020008FC
:1000B0000B0200080B0200080B0200080B020008EC
:1000C0000B0200080B0200080B0200080B020008DC
:1000D0000B0200080B0200080B0200080B020008CC
:1000E0000B0200080B0200080B0200080B020008BC
:1000F0000B0200080B0200080B02000800000000C1
:10010000000000000B020008000000000B020008C5
:100110000B02000800000000252B00080B0200085D
:100120000B0200080B0200080B0200080B0200087B
:100130000B02000800000000000000000B02000895
:100140000B0200080B020008000000000000000085
:10015000000000000000000000000000000000009F
:100160000000000000000000000000000B0200087A
:100170000B0200080000000000000000000000006A
:10018000000000000B02000800000000000000005A
:10019000000000000000000000000000000000005F
:1001A00000000000000000000B0200080B02000825
:1001B0000B0200080B0200080B0200080000000000
:1001C000000000000B02000800000000000000001A
:1001D0000B0200080B020008DFF810D000F042F814
:1001E0000048004749340008AFF30080B005002004
:1001F0000648804706480047FEE7FEE7FEE7FEE7C1
:10020000FEE7FEE7FEE7FEE7FEE7FEE7B52A0008A9
:10021000D9010008D2B201E000F8012B491EFBD23F
:1002200070470022F6E710B513460A460446194601
:10023000FFF7F0FF204610BD30B50B460146002009
:100240002022012409E021FA02F59D4205D303FA98
:1002500002F5491B04FA02F52844151EA2F1010219
:10026000F1DC30BD064C074D06E0E06840F00103CC
:1002700094E8070098471034AC42F6D3FFF7B0FF7C
:100280004C4600086C460008FEE77047002240F626
:10029000B83306E00021491C89B29942FBD3521CB5
:1002A00092B28242F6D3704770B515460C460646A8
:1002B00001F00EFCA02001F0CCFB01F0B2FB3046B7
:1002C00001F0C7FB01F0ADFB01F002FCA12001F041
:1002D000C0FB04E001F07EFB04F8010B15B101F056
:1002E000A0FB01E001F0DCFB6D1EEDB2F2D2BDE837
:1002F000704001F008BC000070B516460D4604467B
:1003000001F0E6FBA02001F0A4FB01F08AFB2046EF
:1003100001F09FFB01F085FB0AE000BF15F8010B1F
:1003200001F097FB01F07DFB641CE4B2600702D092
:10033000761EF6B2F2D2BDE8704001F0E4BB72B6B0
:10034000FEE700002DE9F041564C0025A07810B1E1
:10035000A57001F0F3FBE07810B1E57001F078FCD6
:10036000DFF8448121790127A8F1C80659B3257126
:10037000A5723770306A4DA140F0200030624046CF
:1003800002F082FE306A40F48070306220780628E5
:1003900019D2DFE800F01803070B0F1342480021C1
:1003A000BA380EE040480821B7380AE03E4810212C
:1003B000B43806E03C481821B13802E03A48202120
:1003C000AE3802F04AFE607910B1657101F074FC3C
:1003D000A07928B1A57101F06FFC3C2000F08CF8E9
:1003E000E07900B3E571A5723770306A40F0200003
:1003F0003062307910B101282AD115E003206072F3
:1004000030A1404602F040FE306A002140F4807086
:100410003062A581314801F04FF930494FF44870FE
:1004200009684863377113E0042060722CA14046CC
:1004300002F02AFE306A002140F480703062A5810B
:10044000264801F0B7F90021012001F0B3FF357112
:10045000207AC0B125722078062814D2DFE800F097
:10046000130306090C0F1048BA380AE00E48B738D3
:1004700007E00D48B43804E00B48B13801E00A4801
:10048000AE3801F073FC607A012808D100211348CE
:1004900001F090F90021012001F08CFF3571BDE8D9
:1004A000F0810000A0010020E0000020202020209A
:1004B000202020202020202020202020202020203C
:1004C000000000002020202020202052756E6E6940
:1004D0006E6720202020202000000000080100205E
:1004E00020202020202020506175736520202020AE
:1004F000202020200000000070B5044600F044F9E0
:100500000546601C02D004484068044400F03CF9F1
:10051000401BA042FAD370BD080000202DE9F04F27
:10052000DFF82092002301260324A9F1040B85B0F3
:100530000F2709F1040AABF1040EFAE006FA03F5FD
:100540002A407CD091F804C00CF0030CBCF1010FE0
:1005500002D0BCF1020F26D1D0F808C0CDF800C0FF
:100560004FEA430C04FA0CF8CDF810C0DDF800C0D7
:100570002CEA080CCDF800C0D1F80C80DDF810C0D2
:1005800008FA0CF8DDF800C048EA0C08C0F808804A
:10059000D0F804C02CEA050C0D79C5F300159D4078
:1005A00045EA0C0545600D79ED43AD070ED0C568F1
:1005B0004FEA430804FA08FC25EA0C05D1F808C004
:1005C0000CFA08FC4CEA050CC0F80CC00D7905F0DB
:1005D0000305022D16D1DD0800EB850CCDF808C00F
:1005E000DCF820805D074FEAD56C07FA0CF528EAA5
:1005F00005080D6905FA0CF5DDF808C045EA08059F
:10060000CCF8205005684FEA430CCDF808C004FA36
:100610000CFC25EA0C0591F804C00CF00308DDF889
:1006200008C008FA0CF848EA0508C0F800804D68D0
:1006300015F4403F7CD0444DD5F860C000E077E031
:100640004CF0010CC5F860C02D6E23F0030C05F0D2
:10065000010500953D4D65440295AD684FEA837CE8
:100660004FEA1C7807FA08FC25EA0C05B0F1904F18
:1006700006D0DFF8DCC0604505D14FF0010C20E06A
:100680004FF0000C1DE0DFF8CCC0604502D14FF008
:10069000020C16E0DFF8C0C0604502D14FF0030C39
:1006A0000FE0DFF8B8C0604502D14FF0040C08E05D
:1006B000DFF8ACC0604502D14FF0050C01E04FF00F
:1006C000060C0CFA08FC4CEA050C029DC5F808C0A3
:1006D000D9F80050CC46D1F8048095435FEAC82889
:1006E00000D51543CCF80050DAF80050D446D1F8C4
:1006F000048095435FEA882800D51543CCF8005064
:10070000DBF80050DC46D1F8048095435FEA883876
:1007100000D51543CCF80050DEF80050F446D1F86F
:10072000048095435FEAC83800D51543CCF80050E3
:100730005B1C0A6832FA03F57FF400AF05B0BDE830
:10074000F08F00000804014000100240000001404A
:100750000004004800080048000C00480010004851
:10076000001400480069084000D001207047426929
:1007700021EA02030A4043EA0241816170470AB15B
:10078000816170478162704701488068704700004E
:100790000800002002488168426811448160704767
:1007A0000800002010B50024032000F073F80F208B
:1007B00000F008F808B1012401E000F025F8204617
:1007C00010BD000070B50E4E05460024706898B14B
:1007D0004FF47A71B1FBF0F00A490968B1FBF0F00F
:1007E00000F0FCFB40B9102D06D200222946501E15
:1007F00000F030F8356000E00124204670BD0000B4
:1008000008000020140000200A4882B0016E41F068
:1008100001010166016E01F001010091816D41F05D
:1008200080518165806D00F08050009002B000F032
:10083000A1B8000000100240002809DB00F01F02F0
:10084000012191404009800000F1E020C0F8001132
:1008500070470000F0B40E4B1B680C46C3F3022334
:10086000C3F10705042D00D90425191D072901D25C
:10087000002300E0DB1E012606FA05F1491E214097
:1008800099409E40761E16403143F0BC02F010BCE9
:100890000CED00E0064900F0070208684FF6FF0380
:1008A000184040EA0220034A1043086070470000E5
:1008B0000CED00E00000FA052B492C4B0A683221B0
:1008C0004A432B4940B1B0F5007F086829D020F495
:1008D000C06040F480602CE00868C0F3412002282A
:1008E00004D051F8800F20F4807022E0D1F880000D
:1008F00020F48070C1F88000086820F4C06040F4E3
:1009000000700860B2FBF3F0401C00E0401E4A6932
:10091000520501D50028F9D1486940050AD50320C0
:100920007047C0F34120022806D051F8800F40F4F0
:100930008070086000207047D1F8800040F480701B
:10094000C1F88000086820F4C06040F400700860BE
:10095000B2FBF3F0401C00E0401E4A695205DBD5B3
:100960000028F9D1D8E700001400002040420F0011
:10097000007000400248816841F480418160704706
:10098000007000402DE9F0470E4605004FF00007CB
:1009900025D0DFF8AC81D8F8000000F00F00B0429D
:1009A0000CD2D8F8001021F00F013143C8F8001024
:1009B000D8F8000000F00F00B04210D12968614C57
:1009C000C80741F2883A5AD06868DFF87C9103285A
:1009D00008D0022820682DD0400500282CDB0120FB
:1009E000BDE8F08720688001F9D5E06800F00302D7
:1009F000E068C0F30310401C032A19D0534A00BF1B
:100A0000B2FBF0F0E268C2F306225043E268C2F3A0
:100A10004162521C5200B0FBF2F0484517D9A06861
:100A200010F0F00F0CD0880711D5A86840B10EE087
:100A3000474AE5E78003D0E700F092F8484506D939
:100A4000A06820F0F00040F08000A0608027A0683F
:100A5000696820F003000843A060FFF795FE814617
:100A600006E000BFFFF790FEA0EB090151453AD820
:100A7000A068696800F00C00B0EB810FF2D1286823
:100A8000810714D5400703D5A06840F4E060A0605A
:100A90002878000705D5A06820F4605040F4E06095
:100AA000A060A068A96820F0F000084304E0802F4F
:100AB00003D1A06820F0F000A060D8F800104046F4
:100AC00001F00F01B14216D9016821F00F01314345
:100AD0000160FFF759FE074607E000BFFFF754FE2D
:100AE000C11B514501D903207AE7D8F8000000F076
:100AF0000F00B042F2D12878400705D5A068E96818
:100B000020F4E0600843A0602878000706D5A068BC
:100B1000296920F4605040EAC100A06000F020F88C
:100B2000A1680C4AC1F30311515C01F01F01C840D8
:100B30000949086009480068BDE8F047FFF742BE70
:100B4000002002400010024000B4C4040024F4005D
:100B500000366E013A46000814000020080000200C
:100B6000184910B58868C0F381021748012A0BD0D4
:100B70008A68164BC2F38102022A06D08A68C2F341
:100B80008102032A03D0002010BD184610BDCA6898
:100B900002F00304CA68C2F30312521C032C02D0F1
:100BA000B0FBF2F001E0B3FBF2F0CA68C968C2F32F
:100BB00006225043C1F34161491C4900B0FBF1F0EA
:100BC00010BD0000001002400024F40000366E0149
:100BD0002DE9F84304007AD02078FA4DC00747D0B9
:100BE000A868E96800F00C0001F003010C2802D0AD
:100BF000082817D001E0032914D06068B0F5803FC1
:100C000017D0B0F5A02F286817D020F480302860C6
:100C1000286820F4802028606068E0B1FFF7B4FD08
:100C2000064614E02868800322D560680028D2D0E8
:100C30001EE0286840F48030EDE740F48020286012
:100C4000F7E700BFFFF7A0FD801B642870D8286875
:100C50008003F7D50CE0FFF797FD064605E000BFDF
:100C6000FFF792FD801B6428F0D828688003F7D432
:100C7000207880074CD5A868E96800F00C0001F0E6
:100C800003010C2802D004280DD001E002290AD06B
:100C9000E068002828682BD040F480702860FFF7B7
:100CA00073FD064619E02868400502D5E068002873
:100CB00091D06868217C20F0FE4040EA01606860C5
:100CC000C1480068FFF77EFD002800D120E076E1F2
:100CD000FFF75AFD801B0228B8D828684005F7D5D1
:100CE0006868217C20F0FE4040EA016068600FE007
:100CF00020F480702860FFF747FD064605E000BF3E
:100D0000FFF742FD801B0228A0D828684005F7D4D1
:100D10002078000729D560690028D5F8940013D001
:100D200040F00100C5F89400FFF72EFD064606E0EE
:100D300090E000BFFFF728FD801B022886D8D5F879
:100D400094008007F6D510E020F00100C5F894006B
:100D5000FFF71AFD064604E0FFF716FD801B022888
:100D600078D8D5F894008007F6D42078400761D56C
:100D7000A86D0026C00008D4A86D40F08050A8657A
:100D8000A86D012600F08050009090480168C905C8
:100D900011D40168804641F480710160FFF7F4FCD2
:100DA000074604E0FFF7F0FCC01B022852D8D8F831
:100DB0000000C005F6D5A068012815D00528D5F893
:100DC000900016D020F00100C5F89000D5F89000F2
:100DD00020F00400C5F89000A06841F28838B8B14E
:100DE000FFF7D2FC07460EE0D5F8900040F0010076
:100DF000F0E740F00400C5F89000F5E7FFF7C4FC09
:100E0000C11B414526D8D5F890008007F6D50CE0E7
:100E1000FFF7BAFC074604E0FFF7B6FCC11B4145EB
:100E200018D8D5F890008007F6D41EB1A86D20F030
:100E30008050A8652078800629D5A0690028D5F8BB
:100E4000980013D040F00100C5F89800FFF79CFC13
:100E5000064606E077E000BFFFF796FC801B0228FD
:100E600077D8D5F898008007F6D510E020F001007B
:100E7000C5F89800FFF788FC064604E0FFF784FCFD
:100E8000801B022865D8D5F898008007F6D4E06961
:100E9000F0B3A968C1F38101032961D00228286851
:100EA00020F0807028600BD0E86820F00300E86034
:100EB000E86847490840E860FFF766FC04464BE0F5
:100EC000FFF762FC064604E0FFF75EFC801B022889
:100ED0003FD828688001F7D4F4E908016FF00F02C9
:100EE00002EB01110843218A5204490802EB4151E7
:100EF000A26841EA02210843217D4FF07E42490861
:100F000002EB41610843217B40EAC160E96800E0EF
:100F100062E0304A11400843E860286840F0807081
:100F20002860E86840F08070E860FFF72DFC044618
:100F300005E000BFFFF728FC001B022809D828683D
:100F40008001F7D548E004E0FFF71EFC001B0228F3
:100F500002D90320BDE8F88328688001F4D43BE07F
:100F60000128F7D0E868226A00F00301914226D1F7
:100F7000616A00F0F0020901103991421FD1A26AA2
:100F800000F4FE41B1EB022F19D194F82C2000F0AF
:100F90007841B1EBC26F12D1218E00F4C002490832
:100FA0004905A1F50011914209D194F8341000F0DF
:100FB000C06049084906A1F1007181420CD00120AE
:100FC000C8E7000000100240080000200070004048
:100FD000FFFFEEFE0C809F010020BBE710B5401E16
:100FE000B0F1807F01D3012010BD4FF0E02460619B
:100FF0000F21601702F05CF80020A061072020613B
:10100000002010BD704770477047704770477047A9
:10101000F0B590F83C20012A3AD0012580F83C50E8
:10102000022280F83D2003685A689C68194E1A4FC6
:10103000B34201D0BB4204D122F4700C4A6842EAA8
:101040000C02DFF858C002EA0C02D1F800C04CEAEA
:10105000020CC3F804C00268B2420DD0B2F1804F56
:101060000AD00F4B9A4207D00E4B9A4204D0BA4294
:1010700002D00D4B9A4204D1896824F080031943B1
:10108000916080F83D50002180F83C100846F0BD8A
:101090000220F0BD002C0140003401408FFFFFFD15
:1010A000000400400008004000400140704710B5B7
:1010B000040003D094F83D0010B107E0012010BDFA
:1010C000002084F83C00204600F022F8022084F83A
:1010D0003D00211D206801F02BFD012084F848000F
:1010E00084F83E0084F83F0084F8400084F8410012
:1010F00084F8420084F8430084F8440084F84500F2
:1011000084F8460084F8470084F83D00002010BDB4
:1011100008B5114A01681148914208D1816D41F02A
:1011200002018165806D00F00200009008BD0C4A4C
:101130009142FBD1816D41F010018165806D0022EB
:1011400000F01000009011463620FFF783FBBDE849
:1011500008403620FFF770BB00040040001002403A
:101160000010004090F83D10012901D00120704787
:10117000022180F83D100168CA6842F00102CA608D
:101180000068104988420ED0B0F1804F0BD00E4954
:10119000884208D00D49884205D00D49884202D0C6
:1011A0000C49884207D181680B4A1140062906D0B4
:1011B000B1F5803F03D0016841F0010101600020DA
:1011C00070470000002C014000040040000800406F
:1011D00000340140004001400700010070B50446A2
:1011E00090F83C000025012814D0012684F83C60CA
:1011F000022084F83D0022689068364B184020F4A5
:101200007F409060086870282ED010DC10F00F0F1F
:1012100003D021E04FF0020070BD4FEA2012072AF0
:101220001AD2DFE802F0525252524A3840002A4B9A
:10123000C21A984249D009DCB0F5805F0DD0B0F5F4
:10124000005F1CD0B0F1101F06D13EE0102A3CD048
:10125000202A3AD0502A38D0012584F83D60002059
:1012600084F83C00284670BDCB68D1E90121206894
:1012700001F0C3FC2068816841F0770109E0CB6888
:10128000D1E90121206801F0B8FC2068816841F4AF
:1012900080418160E1E7CA684968206801F058FE32
:1012A0005021206806E0CA684968206801F061FEA4
:1012B0006021206801F0ACFCCFE7CA68496820686B
:1012C00001F046FE40212068F4E7226801461046FE
:1012D000F0E7000088FFCEFF20001000704770B5D7
:1012E0000446006801694FF00005C943890715D419
:1012F000C168C943890711D4E91E01610120207723
:10130000206880698007204602D0FFF7E7FF04E0ED
:1013100000F00CF9204600F0CEF92577206801692D
:10132000C943490717D4C168C943490713D46FF0AB
:1013300004010161022020772068806910F4407F59
:10134000204602D0FFF7CAFF04E000F0EFF8204685
:1013500000F0B1F9257720680169C943090716D45F
:10136000C168C943090712D46FF008010161042064
:1013700020772068C0698007204602D0FFF7AEFFC3
:1013800004E000F0D3F8204600F095F925772068B6
:101390000169C943C90617D4C168C943C90613D432
:1013A0006FF010010161082020772068C06910F4F7
:1013B000407F204602D0FFF791FF04E000F0B6F82E
:1013C000204600F078F9257720680169C943C907EC
:1013D00008D1C168C943C90704D1891E01612046EB
:1013E00000F03EFA20680169C943090609D4C168C2
:1013F000C943090605D46FF0800101612046FFF75B
:1014000002FE20680169C943C90509D4C168C943FE
:10141000090605D46FF4807101612046FFF7F2FDE3
:1014200020680169C943490609D4C168C94349060E
:1014300005D46FF040010161204600F0B3FA206846
:101440000169C943890609D4C168C943890605D41D
:101450006FF0200101612046FFF7D6FD2068016989
:10146000C943C90209D4C168C943C90205D46FF48C
:10147000801101612046FFF7C9FD20680169C94359
:10148000890209D4C168C943890205D46FF40011E7
:1014900001612046FFF7B9FD20680169C94349028F
:1014A00009D4C168C943490205D46FF480010161C0
:1014B0002046FFF7ACFD20680169C94309020BD43F
:1014C000C168C943090207D46FF4000101612046D5
:1014D000BDE87040FFF7EABD70BD000010B586B0F2
:1014E000044614216846FEF79CFE0E492068884297
:1014F00015D10D48C16C41F00101C164C06C0021DF
:1015000000F001000590402000900220CDE901018B
:10151000CDE9031069464FF09040FEF7FFFF06B09B
:1015200010BD00000004004000100240704770B57C
:10153000044690F83C0000260D4601280BD00120FF
:1015400084F83C000C2A4AD007DC82B1042A20D05F
:10155000082A06D131E0022070BD102A53D0142A87
:1015600063D00126002084F83C00304670BD20681E
:1015700001F058FB2068816941F008018161206811
:10158000816921F004018161206881692A69114320
:1015900011E0206801F094FB2068816941F400614A
:1015A00081612068816921F480618161206881699D
:1015B0002A6941EA02218161D4E7206801F0C8FB71
:1015C0002068C16941F00801C1612068C16921F04A
:1015D0000401C1612068C1692A69114311E02068D2
:1015E00001F0FEFB2068C16941F40061C16120681F
:1015F000C16921F48061C1612068C1692A6941EA39
:101600000221C161AEE7206801F032FC2068016D63
:1016100041F0080101652068016D21F004010165B8
:101620002068016D2A69114311E0206801F058FC1F
:101630002068016D41F4006101652068016D21F4AD
:10164000806101652068016D2A6941EA0221016516
:1016500088E710B5040003D094F83D0010B107E00E
:10166000012010BD002084F83C00204600F022F844
:10167000022084F83D00211D206801F059FA012064
:1016800084F8480084F83E0084F83F0084F8400065
:1016900084F8410084F8420084F8430084F8440050
:1016A00084F8450084F8460084F8470084F83D003B
:1016B000002010BD7047704730B50446022269B162
:1016C000042912D0082917D00C291CD0102921D0A8
:1016D00094F84300012824D0012030BD94F83E0046
:1016E0000128F9D184F83E201DE094F83F0001283C
:1016F000F2D184F83F2016E094F840000128EBD1A5
:1017000084F840200FE094F841000128E4D184F8E7
:10171000412008E094F842000128DDD184F84220FD
:1017200001E084F843200122206801F059FA194BA6
:1017300020681949194A984209D0884207D0904236
:1017400005D0174DA84202D0164DA84203D1456CD2
:1017500045F400454564206898420CD0B0F1804FB4
:1017600009D0114B984206D0104B984203D08842C2
:1017700001D0904207D181680D4A1140062906D058
:10178000B1F5803F03D0016841F001010160002004
:1017900030BD0000002C01400034014000400140F9
:1017A000004401400048014000040040000800409F
:1017B0000700010030B504460D460068002201F024
:1017C0000FFA224B41F2111120688A0098420BD087
:1017D0001F4B984208D01F4B984205D01E4B984291
:1017E00002D01E4B984209D1036A0B4206D1036A0C
:1017F000134203D1436C23F4004343642068036A1B
:101800000B4206D1016A114203D1016821F00101A6
:10181000016001205DB1042D0CD0082D0DD00C2DE0
:101820000ED0102D0FD084F84300002030BD84F876
:101830003E00FAE784F83F00F7E784F84000F4E759
:1018400084F84100F1E784F84200EEE7002C014003
:101850000034014000400140004401400048014084
:101860002DE9F0414A49884270D14A4C4A4D002640
:10187000606A401C60622089401C80B220816189BE
:10188000491C6181A989491CA9810A2802D12681A4
:1018900000F0B2FA6089502803D16681A078401C1C
:1018A000A070687A032871D1A089401C80B2A08101
:1018B000B0F5FA7F10D1A6814FF480713748FEF75A
:1018C00056FF374F012204213846FEF758FF002209
:1018D00004213846FEF753FFA889B0F57A7F55D129
:1018E000AE812C482A7801211D30062A4ED2DFE82D
:1018F00002F04D03111F2E3C627842B9254A0E3288
:101900001378037053784370927882706170214825
:101910000E3037E0627842B91E4A113213780370F4
:10192000537843709278827061701A48113029E0C0
:10193000627842B9174A14321378037053784370AF
:10194000927882706170134814301BE01EE0627858
:1019500042B9104A17321378037053784370927863
:10196000827061700B4817300CE0627842B9094A06
:101970001A321378037053784370927882706170D2
:1019800004481A30BDE8F04101F006BBBDE8F08123
:101990005401002018000020A00100200008004889
:1019A000000C00487047FEE700B585B0142168467A
:1019B000FEF737FCC0200090012001900290022029
:1019C000039069460248FEF7A9FD05B000BD00007E
:1019D0000004004870B50824002500F0FDFF13E066
:1019E0006806050E002000F0DFFF142001F026FD40
:1019F000142001F023FD012000F0D6FF142001F097
:101A00001DFD00F0DDFF0543641EE4B2E8D20020B6
:101A100000F0CAFF142001F011FD00F0FFFF28467E
:101A200070BD00B5002000F0EDFF142001F006FDB0
:101A3000142001F003FD012000F0B6FF142001F096
:101A4000FDFC002000F0B0FF14205DF804EB01F075
:101A5000F5BC00B50246082316E000F0A5FF1420EF
:101A600001F0ECFC02F0800000F0CCFF142001F04B
:101A7000E5FC5006020E142001F0E0FC012000F00D
:101A800093FF142001F0DAFC5B1EDBB24FF0000084
:101A9000E3D200F089FF14205DF804EB01F0CEBC26
:101AA00000B5012000F0AEFF142001F0C7FC1420A7
:101AB00001F0C4FC012000F077FF142001F0BEFC0F
:101AC000002000F071FF14205DF804EB01F0B6BCBB
:101AD00000B5012000F096FF142001F0AFFC0120BA
:101AE00000F062FF142001F0A9FC002000F08AFF42
:101AF000142001F0A3FC002000F056FF14205DF834
:101B000004EB01F09BBC00B5002000F04DFF142059
:101B100001F094FC002000F075FF142001F08EFC11
:101B2000012000F041FF142001F088FC012000F0AA
:101B300069FF14205DF804EB01F080BC70B5244C03
:101B4000244D207806281AD2DFE800F019030E2071
:101B50002B36204808213F3800F0F4FE1EA128460D
:101B600001F092FA022009E01A4810213C3800F0F6
:101B7000E9FE1FA1284601F087FA032020701548CE
:101B80005038016A41F00401016270BD114818210A
:101B9000393800F0D7FE1CA1284601F075FA042060
:101BA000ECE70C482021363800F0CCFE1CA128467A
:101BB00001F06AFA0520E1E706480021423800F00A
:101BC000C1FE1DA1284601F05FFA0120D6E7000002
:101BD000A001002068000020202020204E6F20322D
:101BE0002020202020202020202020200000000075
:101BF000202020204E6F2033202020202020202055
:101C00002020202000000000202020204E6F2034C3
:101C10002020202020202020202020200000000044
:101C2000202020204E6F2035202020202020202022
:101C30002020202000000000202020204E6F203196
:101C40002020202020202020202020200000000014
:101C500070B511A1164801F017FA15480124C838CB
:101C60000223016A41F48072026206781149012E52
:101C700005D00325022E05D0032E08D105E08C7275
:101C8000037004E08B72057001E08D72047042F005
:101C90002001016270BD0000202020202020205360
:101CA000657474696E6720202020202000000000E9
:101CB000E0000020A001002038B52348224B00227C
:101CC000017822489B7A062912D2DFE801F011033D
:101CD0001824272A1D497E3913E0022B24D0032B18
:101CE0002AD08A7800924B780A7819A101F0CCF9B1
:101CF00016488C38016A41F02001016238BD134951
:101D00007B39012BE9D10B785B1CDBB20B70172BF5
:101D1000E7D90A70E5E70D497839F2E70B497539DB
:101D2000EFE70A497239ECE74B785B1CDBB24B708A
:101D30003B2BD6D94A70D4E78B785B1CDBB28B7017
:101D40003B2BCED98A70CCE7A0010020A400002054
:101D5000202020202020253032643A253032643A79
:101D600025303264202020202020000038B5044691
:101D70001248124D01782170417861708078A0700E
:101D80001D3D00200E496870012048720DA105F12B
:101D9000C80001F079F9286A10A140F48070286227
:101DA000A07800906378227805F18C0001F06CF93E
:101DB000286A40F02000286238BD0000350000206D
:101DC000A00100202020202020205374616E646236
:101DD000792020202020202000000000202020202A
:101DE0002020253032643A253032643A253032647E
:101DF000202020202020000070B500F055F8284A4F
:101E00004FF000064FF00103D071D17880EA010451
:101E1000844330EA0105547195712249D07001D094
:101E2000967002E092780A2A1ED2012C07D0022C6A
:101E30000CD0032C13D0042C00D1CB7170BD487A88
:101E40000328FBD00428F9D08B7070BD487A032892
:101E5000FBD00428F9D0CB700220487270BD487ABC
:101E60000228FBD14B7170BD0128FCD002280AD09A
:101E7000032810D00428F6D1487A032801D004287A
:101E8000F1D10B7270BD487A0328FBD00428F9D039
:101E90000B714E7270BD487A0228FBD18B7170BDF8
:101EA00018000020A001002070B51A4C0121204626
:101EB000FEF758FC4FF0904570B102212046FEF726
:101EC00051FC48B104212046FEF74CFC20B1012111
:101ED0002846FEF747FC98B901212046FEF742FC50
:101EE00080B102212046FEF73DFC68B10421204666
:101EF000FEF738FC50B101212846FEF733FC38B11B
:101F0000002070BD012070BD022070BD032070BD97
:101F1000042070BD0004004800B585B01421684657
:101F2000FEF77FF94FF6FF70009000200321CDE906
:101F30000201019069460248FEF7F0FA05B000BDC3
:101F40000008004800B585B014216846FEF769F91D
:101F50004FF6FF70009001200190032003900020B5
:101F6000029069460248FEF7D9FA05B000BD0000AC
:101F70000008004870B5002406462146204600F0BF
:101F800003F900F045F94FF49635304600F010F9AA
:101F9000641CAC42F9D370BD30B587B014216846DB
:101FA000FEF73FF91E48C16C41F00401C164C16CE9
:101FB00001F004010591C16C41F00101C164C16CE3
:101FC00001F001010591C16C41F00201C164C06CD6
:101FD000012500F0020005904FF44870CDE900059E
:101FE00000240394694602940E48FEF797FA2802EB
:101FF00003940090CDE901544FF090446946204687
:10200000FEF78CFAFFF79EFFA06940F48070A06194
:1020100004481830016841F40871016007B030BD10
:102020000010024000040048203AD2B2034B02EBF9
:10203000420203EB021200F019B800006A340008F3
:10204000F0B50E460746002540F23F1407E0214652
:102050003846FFF7E9FF103C6D1CA4B2761C3278BD
:10206000002A01D0142DF2D3F0BD00002DE9F04775
:1020700091468A460026044600F086F8DFF8408044
:10208000012700BF00F0C4F85FF0000539F8160022
:1020900007FA05F10842404601D1408800E0008877
:1020A00000F086F86D1C102DF0D3641CE4B251468C
:1020B000204600F069F8761C182EE3D3BDE8F087BF
:1020C0000000002010B5FFF767FF002000F014F8B3
:1020D000084CA080A088A0F50241303906D000F05D
:1020E0002FFB002000F008F8A08010BD00F09FFA40
:1020F000F7E700000000002070B51D490A6842F4AF
:1021000000720A600A6842F480720A60184C103C3F
:10211000226842F020022260164A1060086840F0EF
:102120002000086000BF00BF00BF206840F0200012
:102130002060206840F480702060FFF7EDFE4FF0D3
:102140009041886A40F48070886200BF00BF00BF81
:102150000848001F006885B2886940F48070886173
:10216000FFF7F0FE206840F400702060284670BD44
:10217000280400481408004801B5BDF800000149D2
:10218000488008BD0000002010B50C460146202004
:1021900000F070F82146BDE81040212000F06AB838
:1021A00001B5BDF800000149088008BD000000200D
:1021B00030B5154B1968154A8CB2116841F400719D
:1021C0001160124910390D6845F480750D600D6875
:1021D00045F020050D601860106840F02000106088
:1021E00000BF00BF00BF086840F02000086008681A
:1021F00040F48070086000BF00BF00BF086840F472
:10220000007008601C6030BD1408004828040048B5
:10221000164A10B51068164983B2086840F4007079
:102220000860086840F4807008601148103804683D
:1022300044F020040460222414600C6844F020045C
:102240000C6000BF00BF00BF016841F020010160C9
:10225000016841F48071016000BF00BF00BF0168E8
:1022600041F400710160136010BD000014080048C3
:102270002804004870B51A4C22681A4B95B21A68A7
:1022800042F400721A601A6842F480721A60154AA9
:10229000103A166846F0200616602060186840F074
:1022A0002000186000BF00BF00BF106840F0200091
:1022B0001060106840F4807010602160186840F071
:1022C0002000186000BF00BF00BF106840F0200071
:1022D0001060106840F480701060256070BD0000D0
:1022E00014080048280400482DE9F0472F4F002427
:1022F0002F4E012507F128084FF47849396A05FA6D
:1023000004F0084240D08143396204EB440004EBFE
:102310008401C00608EB8101000EFFF791FEB07A40
:1023200090B3012804D002280FD003282CD119E043
:102330004846FFF721FF98F86A20DF217820FFF751
:1023400073FE98F86B20CF2118E04846FFF714FF82
:1023500098F86D20AF217820FFF766FE98F86E2080
:102360009F210BE04846FFF707FF98F870207F2178
:102370007820FFF759FE98F871206F217820FFF739
:1023800053FE0020FFF7F8FE641CE4B20A2CB5D31C
:102390007078002808D000207070BDE8F047014632
:1023A00002480E3000F0CEBABDE8F08718000020D9
:1023B000A001002010B50C4B0002012911D0012210
:1023C00001461846FEF7DBF9084C0122042120469D
:1023D000FEF7D5F920460022BDE810400421FEF7A3
:1023E000CEB90022ECE7000000080048000C0048CD
:1023F0002DE9F04387B014216846FDF712FF4C48E1
:10240000C16C41F00401C164C16C01F0040105918B
:10241000C16C41F02001C164C16C01F02001059143
:10242000C16C41F04001C164C16C01F040010591F3
:10243000C16C41F00101C164C16C01F00101059161
:10244000C16C41F00201C164C16C01F0020105914F
:10245000C16C41F00801C164C06C364F00F0080047
:102460004FF47F440590012221463846FEF787F954
:10247000DFF8C480002204214046FEF780F9DFF82F
:10248000BC900022C0214846FEF779F90125CDE92C
:10249000004500240294694638460394FEF73EF84E
:1024A000A8020326CDE90006694602942448FEF7F7
:1024B00035F8FF20CDE90006694602943846FEF75C
:1024C0002DF8CDE900544FF0904769463846029503
:1024D000FEF724F849F6BE70CDE90006694602947D
:1024E0003846FEF71BF807208DE83100694648465C
:1024F000FEF714F84FF63870CDE9000669460294ED
:102500004846FEF70BF804200090CDE901546946D7
:1025100040460394FEF702F8C0200090CDE9015434
:10252000694648460394FDF7F9FF07B0BDE8F0831C
:102530000010024000080048000C00480004004859
:102540000018004810B58EB0002407940894099430
:102550000A940B940C941C2168460D94FDF761FEBF
:102560001E481D4901604F21C0E9011440F2E731C6
:10257000C0E903148461FEF79AFD08B1FDF7DFFEA0
:102580004FF48050079007A91448FEF727FE08B1C2
:10259000FDF7D5FE1148FFF75CF808B1FDF7CFFE57
:1025A0000B940BA90D480D94FEF732FD08B1FDF711
:1025B000C6FE6020CDE90004029400226946074867
:1025C0000494FEF7B4FF08B1FDF7B9FE0348FEF727
:1025D00085FF0EB010BD000000040040080100207F
:1025E0003EB500240F48009401940D490294016007
:1025F0004F21C0E9011440F2E7318461C160FEF768
:1026000056FD08B1FDF79BFE00946946054802940B
:10261000FEF7FEFC002801D0FDF791FE3EBD000054
:102620000010004054010020FEE7FEE7704730B57F
:1026300001210020FFF71EFE4FF47A70FDF726FE01
:1026400000210120FFF716FE41F290711020FFF7E4
:1026500011FE4FF41C516020FFF70CFE0121612098
:10266000FFF708FE02214620FFF704FE48F21001A2
:102670001320FFF7FFFD48F2FE011220FFF7FAFDDD
:102680004FF4A0610220FFF7F5FD41F23001032075
:10269000FFF7F0FD40F2033421463020FFF7EAFD5A
:1026A00021463120FFF7E6FD21463220FFF7E2FD0B
:1026B000E51E29463320FFF7DDFD03213420FFF717
:1026C000D9FD21463520FFF7D5FD14213620FFF72F
:1026D000D1FD21463720FFF7CDFD21463820FFF7F9
:1026E000C9FD21463920FFF7C5FD29463A20FFF7ED
:1026F000C1FD03213B20FFF7BDFD21463C20FFF734
:10270000B9FD4FF4A0513D20FFF7B4FD4FF4007127
:102710009220FFF7AFFD21469320FFF7ABFD40F677
:102720000D019020FFF7A6FD41F218010320FFF7ED
:10273000A1FDBDE8304040F273110720FFF79ABDBC
:1027400010B543F20801E320FFF794FD1221E720C2
:10275000FFF790FD41F23121EF20FFF78BFD0021C3
:102760000120FFF787FD4FF4E0610220FFF782FDB3
:1027700041F230010320FFF77DFD00210420FFF727
:1027800079FD40F207210820FFF774FD00210920A0
:10279000FFF770FD00210A20FFF76CFD00210C20DF
:1027A000FFF768FD00210D20FFF764FD00210F20D9
:1027B000FFF760FD00211020FFF75CFD07211120CD
:1027C000FFF758FD00211220FFF754FD00211320D0
:1027D000FFF750FDC820FDF78FFE41F290611020F9
:1027E000FFF748FD40F227211120FFF743FD32207B
:1027F000FDF782FE1D211220FFF73CFD3220FDF780
:102800007BFE4FF400611320FFF734FD14212920D3
:10281000FFF730FD0B212B20FFF72CFD3220FDF7B9
:102820006BFE00212020FFF725FD00212120FFF76E
:1028300021FD07213020FFF71DFD40F207713120F7
:10284000FFF718FD06213220FFF714FD40F2047156
:102850003520FFF70FFD41F604713620FFF70AFD22
:1028600004213720FFF706FD00213820FFF702FD85
:1028700040F206713920FFF7FDFC40F201713C2067
:10288000FFF7F8FC0F213D20FFF7F4FC002150205A
:10289000FFF7F0FCEF215120FFF7ECFC0021522064
:1028A000FFF7E8FC40F23F115320FFF7E3FC4FF441
:1028B0001C516020FFF7DEFC01216120FFF7DAFCEC
:1028C00000216A20FFF7D6FC00218020FFF7D2FC10
:1028D00000218120FFF7CEFC00218220FFF7CAFCF7
:1028E00000218320FFF7C6FC00218420FFF7C2FCF3
:1028F00000218520FFF7BEFC10219020FFF7BAFCD5
:1029000000219220FFF7B6FC03219320FFF7B2FCD1
:102910004FF488719520FFF7ADFC00219720FFF759
:10292000A9FC00219820FFF7A5FC41F21801032023
:10293000FFF7A0FCBDE8104040F273110720FFF73D
:1029400099BC00001CB504460B46002001900322F0
:1029500001A91846FDF7A8FC0A20FDF7CDFD9DF85A
:10296000042022709DF8053063709DF80600A07069
:10297000009005A10B4800F087FB0A488C38016ADB
:1029800041F0200101621CBD2020202020202530A4
:1029900032643A253032643A2530326420202020D7
:1029A00020200000A400002008B1044801E00348F2
:1029B0001030016841F04001016070471804004880
:1029C00010B580210348FDF7CDFE012800D000207E
:1029D00010BD00000004004800B585B01421684611
:1029E000FDF71FFC80200090002001900120029044
:1029F0000220039069460248FDF790FD05B000BD36
:102A00000004004808B1044801E0034810300168A0
:102A100041F08001016070471804004800B585B09E
:102A200014216846FDF7FDFB8020009011200190E5
:102A3000002002900220039069460248FDF76EFDD7
:102A400005B000BD000400487047FDF7A3BE10B5F7
:102A500094B038216846FDF7E4FB14210EA8FDF779
:102A6000E0FB4FF40070FDF727FF01200090000409
:102A7000019002200324CDE907041421CDE90A10B6
:102A80000C900D9009946846FEF7A2F808B172B652
:102A9000FEE70F20CDE90E04002010901190129057
:102AA00002210EA8FDF76EFF002801D072B6FEE7E6
:102AB00014B010BD0248016841F470010160704714
:102AC00088ED00E010B5FFF7FDFAFEF76DFF00207E
:102AD000FFF750FA0020FFF74FFB4FF6FF70FFF7AC
:102AE0005FFB01224FF47F410A48FDF748FE0A4C84
:102AF000012204212046FDF742FE00220421204647
:102B0000FDF73DFE0548FEF72DFB05490120087045
:102B1000487010BD00080048000C00485401002017
:102B2000A00100200148FEF7DABB0000540100209C
:102B30002DE9F0430268234B234D244E244C4FF0E3
:102B40008049984207D0484505D0A84203D0B042FA
:102B500001D0A04203D122F070074A683A431D4FCA
:102B6000DFF874C0DFF8748098420DD048450BD070
:102B7000A84209D0B04207D0A04205D0B84203D045
:102B8000604501D0404503D122F44075CA682A430C
:102B90004D6922F080022A4302608A68C2620A6894
:102BA0008262984207D0A04205D0B84203D0604567
:102BB00001D0404501D10969016301214161BDE8AE
:102BC000F0830000002C0140000400400008004099
:102BD00000340140004001400044014000480140F1
:102BE00010B501F01F030121046A99408C4304626F
:102BF000016A9A401143016210BD10B5846842EA2F
:102C0000032224F47F440A432243826010BD000063
:102C10008268034B1A400A4342F007018160704703
:102C20008FFFCFFF2DE9F043026A22F0010202621A
:102C3000056A436882691C4C25F0020522400C6835
:102C400022F0030214438A68194E2A43174D194F84
:102C5000DFF864C0DFF86490A84207D0B04205D026
:102C6000B84203D0604501D0484506D122F008089B
:102C7000CA6842EA080222F00402A84207D0B04221
:102C800005D0B84203D0604501D0484505D14D6913
:102C900023F440731D438B692B434360846149686F
:102CA00041630262BDE8F0838FFFFEFF002C01400C
:102CB0000034014000400140004401400048014010
:102CC000F0B5026A22F010020262056A4268836966
:102CD000194C1B4E23400C6823F4407343EA042430
:102CE00025F020038D6843EA0513144DA84201D056
:102CF000B04206D1CF6823F0800343EA071323F0E4
:102D00004003A8420AD0B04208D00E4DA84205D0D8
:102D10000D4DA84202D00D4DA84207D14D6922F4B5
:102D2000406242EA85028D6942EA8502426084611E
:102D3000496881630362F0BDFF8FFFFE002C0140F4
:102D4000003401400040014000440140004801407F
:102D5000F0B5026A22F480720262056A4368C269B1
:102D6000194C1B4E22400C6822F00302144325F438
:102D700000728D6842EA0522144DA84201D0B0428B
:102D800006D1CF6822F4006242EA072222F4806270
:102D9000A8420AD0B04208D00E4DA84205D00E4D30
:102DA000A84202D00D4DA84207D14D6923F44053EB
:102DB00043EA05138D6943EA05134360C46149681A
:102DC000C1630262F0BD00008FFFFEFF002C0140D6
:102DD00000340140004001400044014000480140EF
:102DE000F0B5026A22F480520262056A4268C36941
:102DF000194C1B4E23400C6823F4407343EA04240F
:102E000025F400538D6843EA0533144DA84201D0E0
:102E1000B04206D1CF6823F4004343EA073323F4DA
:102E20008043A8420AD0B04208D00E4DA84205D037
:102E30000D4DA84202D00D4DA84207D14D6922F494
:102E4000404242EA85128D6942EA85124260C461BD
:102E5000496801640362F0BDFF8FFFFE002C014052
:102E6000003401400040014000440140004801405E
:102E700030B5026A22F480320262046A4268036D4D
:102E8000114D2B400D681D4324F400330C8943EA97
:102E900004430E4CA0420BD00D4CA04208D00D4C68
:102EA000A04205D00C4CA04202D00C4CA04204D150
:102EB0004C6922F4803242EA042242600565496886
:102EC0008164036230BD00008FFFFEFF002C0140D3
:102ED00000340140004001400044014000480140EE
:102EE00030B5026A22F480120262046A4268036DFD
:102EF000114D24F400142B400D6843EA05230D897D
:102F000044EA05540D4DA8420BD00D4DA84208D0FF
:102F10000C4DA84205D00C4DA84202D00B4DA84242
:102F200004D14D6922F4802242EA85224260036581
:102F30004968C164046230BDFF8FFFFE002C014070
:102F4000003401400040014000440140004801407D
:102F500010B5036A046A24F001040462846924F051
:102F6000F00444EA021423F00A020A438461026274
:102F700010BD10B5036A23F0100303628369046A6D
:102F800023F4704343EA023224F0A00343EA011120
:102F90008261016210BD000038B504468078401E91
:102FA000C1B23B20A170FF2903D16178491E617035
:102FB000A0706178FF2903D12178491E21706070CB
:102FC0002078164DFF281BD160783B2818D1A078B7
:102FD0003B2815D105F11D00017821704178617001
:102FE0008078A07000200E496870012048720DA101
:102FF00005F1C80000F048F8286A40F480702862A3
:10300000A07800900548637822780CA18C3000F0FD
:103010003BF8286A40F02000286238BD18000020E4
:10302000A00100202020202020205374616E6462C3
:1030300079202020202020200000000020202020B7
:103040002020253032643A253032643A253032640B
:103050002020202020200000FEE708B5002200925A
:1030600002788DF800200B4641788DF801108078A9
:103070008DF80200032269461846FDF73DF90A2043
:10308000FDF73AFA08BD00000FB4084B10B504A9CB
:1030900002AA039800F02CF8044602A9002000F0D0
:1030A000C8F9204610BC5DF814FB0000333400085A
:1030B0000907090E002804DB00F1E02080F8001465
:1030C000704700F00F0000F1E02080F8141D7047F9
:1030D00002E008C8121F08C1002AFAD170477047E1
:1030E000002001E001C1121F002AFBD1704700003F
:1030F0002DE9FF4F8BB088460546002606E02528BF
:103100000BD0DDE90D1290476D1C761C2878002845
:10311000F5D10FB03046BDE8F08F0024A146A2469D
:103120000122AE4900E0044315F8013F203B02FABA
:1031300003F00842F7D128782A2810D06FF02F0228
:103140002878A0F13001092915D809EB890102EB93
:10315000410144F0020400EB01096D1CF0E758F84E
:10316000041B5FEA010903D544F40054C9F10009C6
:1031700044F002046D1C28782E2817D115F8010F91
:1031800044F004042A280ED06FF02F022878A0F112
:10319000300109290AD80AEB8A0102EB410100EB50
:1031A000010A6D1CF2E758F804AB6D1C28786C28F6
:1031B0000FD006DC4C2817D068280DD06A2814D10F
:1031C00004E0742810D07A280FD10DE044F40014E4
:1031D0000AE044F4801401E044F440146978814228
:1031E00002D104F580146D1C6D1C2878692865D007
:1031F00006DC00288DD0632827D0642806D15DE046
:103200006E2808D073282AD0752877D0DDE90D12F2
:103210009047761CE0E0C4F30250022809D003284E
:103220000DD0D8F8001004280DD00E6008F1040865
:10323000D2E0D8F80010F217C1E90062F6E7D8F83A
:1032400000100E80F2E70E70F0E718F8041B8DF8FE
:10325000001000208DF80100EB46012003E058F833
:1032600004BB4FF0FF3061074FF0000701D40AE0C4
:103270007F1C57450DDA8742FADB1BF8071000293F
:10328000F6D106E07F1C8742FCDB1BF80710002903
:10329000F8D1DDE90D23A9EB07008146214600F0B6
:1032A000B1F83044C61904E0DDE90D121BF8010B3A
:1032B00090477F1EF8D22146484688E058F8040B14
:1032C000C4F302514FF00A0B032900D100B20429C4
:1032D00000D140B2002802DA40422D2102E021054F
:1032E00005D52B218DF82410012104E006E0E1072B
:1032F00010D02021F6E708AF089113E058F8040B2E
:10330000C4F302514FF00A0B032900D180B2042903
:1033100000D1C0B20021EEE75946FCF78DFF3031F5
:1033200007F8011D0028F7D1ADEB070000F1200BD5
:10333000600702D524F4803401E04FF0010ADA4539
:1033400002DDAAEB0B0000E00020824600EB0B013F
:1033500008980144A9EB01000A90E00306D4DDE9D6
:103360000D2321460A9800F04DF806444FF000095D
:1033700008E009A911F80900DDE90D12904709F1EB
:103380000109761C08998945F3DBE0030CD5DDE9DA
:103390000D2321460A9800F035F8064404E0DDE9E3
:1033A0000D1230209047761CBAF10001AAF1010AF3
:1033B000F5DC05E0DDE90D1217F8010B9047761CEE
:1033C000BBF10001ABF1010BF4DC0A982146DDE909
:1033D0000D2300F005F806446D1C97E6092801004E
:1033E0002DE9F041044600251E461746880404D402
:1033F00005E039462020B0476D1C641EF9D52846EB
:10340000BDE8F0812DE9F041044600251E469046B6
:10341000C80301D5302700E02027880404D505E043
:1034200041463846B0476D1C641EF9D52846BDE8B4
:10343000F0810A68531C0B6010707047002100E097
:10344000491C8142FCD37047FDF7ACF9FFF7FFFA46
:10345000FEF7CEFFFFF776F8FFF7C2F8FFF732FB73
:10346000FEF742FFFCF76EFFFAE7000000000000E5
:10347000000000000000000000000000000000004C
:10348000000000000000000000000000000000003C
:10349000000000000000000000000000800180012A
:1034A0008001800180018001800180018001800114
:1034B0008001800180010000000080018001000087
:1034C0000000000000000000000000000000CC0030
:1034D000CC00CC00CC00CC00CC00000000000000F0
:1034E00000000000000000000000000000000000DC
:1034F00000000000000000000000000000000000CC
:10350000000000000000600C600C600C300630060B
:10351000FE1FFE1F300638071803FE1FFE1F18038C
:1035200018038C018C018C01000000008000E00376
:10353000F80F9C0E8C1C8C188C009800F801E0078A
:10354000800E801C8C188C189C18B80CF00FE003AF
:10355000800080000000000000000000000000006B
:103560000E181B0C110C11061106110311039B01FF
:103570008E01C038C06C604460443044304418440C
:10358000186C0C380000000000000000E001F0039F
:103590003807180618063003F001F000F8009C31D7
:1035A0000E33061E061C061C063FFC73F0210000AD
:1035B00000000000000000000000000000000C00FF
:1035C0000C000C000C000C000C00000000000000BF
:1035D00000000000000000000000000000000000EB
:1035E00000000000000000000000000000020003D6
:1035F0008001C000C000600060003000300030007A
:103600003000300030003000300060006000C0004A
:10361000C0008001000300020000000020006000E4
:10362000C0008001800100030003000600060006C0
:1036300000060006000600060006000300038001E5
:103640008001C000600020000000000000000000B9
:10365000000000000000C000C000D806F807E0012C
:1036600030033807000000000000000000000000E8
:10367000000000000000000000000000000000004A
:1036800000000000000080018001800180018001B5
:10369000FC3FFC3F8001800180018001800100002F
:1036A000000000000000000000000000000000001A
:1036B000000000000000000000000000000000000A
:1036C00000000000000000000000000080018001F8
:1036D0000001000180000000000000000000000068
:1036E00000000000000000000000000000000000DA
:1036F0000000E007E00700000000000000000000FC
:1037000000000000000000000000000000000000B9
:1037100000000000000000000000000000000000A9
:10372000000000000000000000000000C000C00019
:10373000000000000000000000000000000C000C71
:10374000000600060006000300030003800380015A
:1037500080018001C000C000C00060006000000067
:10376000000000000000000000000000E003F0077F
:10377000380E180C0C180C180C180C180C180C1807
:103780000C180C180C18180C380EF007E003000089
:1037900000000000000000000000000000018001A7
:1037A000C001F00198018801800180018001800141
:1037B0008001800180018001800180018001000082
:1037C000000000000000000000000000E003F80F0F
:1037D000180C0C180C1800180018000C0006000338
:1037E0008001C000600030001800FC1FFC1F0000BA
:1037F000000000000000000000000000E001F807E9
:10380000180E0C0C0C0C000C0006C003C007000CBA
:10381000001800180C180C18180CF807E00300002A
:10382000000000000000000000000000000C000E7E
:10383000000F000F800DC00C600C600C300C180CD9
:103840000C0CFC3FFC3F000C000C000C000C0000BA
:10385000000000000000000000000000F80FF80F5A
:10386000180018000C00EC03FC071C0E001C0018CC
:10387000001800180C181C0C180EF807E0030000C4
:10388000000000000000000000000000C007F00F72
:10389000381C181818000C00CC03EC0F3C0E1C1C34
:1038A0000C180C180C18181C380EF007E003000058
:1038B000000000000000000000000000FC1FFC1FD2
:1038C000000C00060006000380038001C001C00058
:1038D000E000600060007000300030003000000048
:1038E000000000000000000000000000E003F007FE
:1038F000380E180C180C180C3806F007F007180CC6
:103900000C180C180C180C18380CF80FE0030000F9
:10391000000000000000000000000000E003F007CD
:10392000380E1C0C0C180C180C181C1C381EF81B1C
:10393000E0190018000C000C1C0EF807F001000044
:103940000000000000000000000000000000000077
:103950000000000000008001800100000000000065
:103960000000000000000000000080018001000055
:103970000000000000000000000000000000000047
:103980000000000000008001800100000000000035
:103990000000000000000000000080018001000124
:1039A0000001800000000000000000000000000096
:1039B000000000000000000000000010001C800F4C
:1039C000E003F8001800F800E003800F001C00106E
:1039D00000000000000000000000000000000000E7
:1039E00000000000000000000000F81F00000000C0
:1039F0000000F81F000000000000000000000000B0
:103A000000000000000000000000000000000000B6
:103A10000000000000000000000008003800F00175
:103A2000C007001F0018001FC007F0013800080081
:103A3000000000000000000000000000E003F80F9C
:103A4000180C0C180C180018000C0006000380015C
:103A5000C000C000C00000000000C000C0000000A6
:103A60000000000000000000000000000000E0076F
:103A700018180420C229224A11440944094409445F
:103A800009221113E20C024004201818E00700007C
:103A90000000000000000000000000008003800320
:103AA000C006C006C006600C600C30183018301814
:103AB000F83FF83F1C700C600C6006C006C00000A8
:103AC000000000000000000000000000FC03FC0FEC
:103AD0000C0C0C180C180C180C0CFC07FC0F0C1818
:103AE0000C300C300C300C300C18FC1FFC070000A4
:103AF000000000000000000000000000C007F01FF0
:103B000038381C300C7006600600060006000600FF
:103B10000600060006600C701C30F01FE007000075
:103B2000000000000000000000000000FE03FE0F87
:103B3000060E061806180630063006300630063027
:103B40000630063006180618060EFE0FFE030000AB
:103B5000000000000000000000000000FC3FFC3FEF
:103B60000C000C000C000C000C00FC1FFC1F0C00D7
:103B70000C000C000C000C000C00FC3FFC3F000093
:103B8000000000000000000000000000F83FF83FC7
:103B900018001800180018001800F81FF81F180067
:103BA000180018001800180018001800180000006D
:103BB000000000000000000000000000E00FF83FDF
:103BC0003C780E6006E007C00300030003FE03FE1E
:103BD00003C007C006C00EC03CF0F83FE00F000075
:103BE0000000000000000000000000000C300C305D
:103BF0000C300C300C300C300C30FC3FFC3F0C30E7
:103C00000C300C300C300C300C300C300C30000010
:103C100000000000000000000000000080018001A2
:103C2000800180018001800180018001800180018C
:103C300080018001800180018001800180010000FD
:103C40000000000000000000000000000006000668
:103C50000006000600060006000600060006000634
:103C600000060006180618063807F003E0010000F9
:103C700000000000000000000000000006300618F0
:103C8000060C060606038601C60066007600DE0006
:103C90008E0106030606060C0618063006600000B4
:103CA00000000000000000000000000018001800E4
:103CB0001800180018001800180018001800180044
:103CC00018001800180018001800F81FF81F00004E
:103CD0000000000000000000000000000EE01EF0E8
:103CE0001EF01EF036D836D836D836D866CC66CC1C
:103CF00066CCC6C6C6C6C6C6C6C686C386C30000D0
:103D00000000000000000000000000000C301C302B
:103D10003C303C306C306C30CC30CC308C310C339F
:103D20000C330C360C360C3C0C3C0C380C300000C0
:103D3000000000000000000000000000E007F81F85
:103D40001C380E70066003C003C003C003C003C06C
:103D500003C003C006600E701C38F81FE0070000A7
:103D6000000000000000000000000000FC0FFC1F2D
:103D70000C380C300C300C300C300C18FC1FFC07CD
:103D80000C000C000C000C000C000C000C000000DF
:103D9000000000000000000000000000E007F81F25
:103DA0001C380E70066003E003C003C003C003C0EC
:103DB00003C007E006630E3F1C3CF83FE0F700C07D
:103DC000000000000000000000000000FE0FFE1FC9
:103DD00006380630063006300638FE1FFE0706039A
:103DE0000606060C061806180630063006600000A7
:103DF000000000000000000000000000E003F80FD9
:103E00001C0C0C180C180C001C00F803E00F001E12
:103E10000038063006300E301C1CF80FE00700009A
:103E2000000000000000000000000000FE7FFE7F98
:103E3000800180018001800180018001800180017A
:103E400080018001800180018001800180010000EB
:103E50000000000000000000000000000C300C30EA
:103E60000C300C300C300C300C300C300C300C3072
:103E70000C300C300C300C301818F81FE007000024
:103E80000000000000000000000000000360063099
:103E9000063006300C180C180C18180C180C380EBC
:103EA00030063006700760036003C001C0010000E7
:103EB0000000000000000000000000000360C3617B
:103EC000C361C36166336633663366336633663314
:103ED0006C1B6C1B6C1B2C1A3C1E380E380E000021
:103EE0000000000000000000000000000FE00C7067
:103EF00018303018700C600EC00780038003C003B8
:103F0000E006700C301C18180C300E6007E0000042
:103F100000000000000000000000000003C0066078
:103F20000C301C383818300C6006E007C0038001E4
:103F300080018001800180018001800180010000FA
:103F4000000000000000000000000000FC7FFC7F7B
:103F5000006000300018000C000600038001C00063
:103F60006000300018000C000600FE7FFE7F00009D
:103F7000000000000000000000000000E003E0037B
:103F80006000600060006000600060006000600031
:103F90006000600060006000600060006000600021
:103FA00060006000E003E00300000000300030002B
:103FB000600060006000C000C000C000C00180015F
:103FC00080018001000300030003000600060000DA
:103FD000000000000000000000000000E003E0031B
:103FE00000030003000300030003000300030003B9
:103FF00000030003000300030003000300030003A9
:1040000000030003E003E003000000000000C00123
:10401000C00160036003600330063006180C180C02
:104020000000000000000000000000000000000090
:104030000000000000000000000000000000000080
:104040000000000000000000000000000000000070
:10405000000000000000000000000000FFFFFFFF64
:104060000000000000000000000000000C000C0038
:104070000C000C000C000C00000000000000000010
:104080000000000000000000000000000000000030
:104090000000000000000000000000000000000020
:1040A000000000000000F003F8071C0C0C0C000FCF
:1040B000F00FF80C0C0C0C0C1C0FF80FF018000093
:1040C00000000000000000000000000018001800C0
:1040D000180018001800D803F80F380C1818181812
:1040E0001818181818181818380CF80FD8030000EA
:1040F00000000000000000000000000000000000C0
:10410000000000000000C003F007300E180C18007B
:10411000180018001800180C300EF007C00300003B
:10412000000000000000000000000000001800185F
:10413000001800180018C01BF01F301C18181818A1
:104140001818181818181818301CF01FC01B000079
:10415000000000000000000000000000000000005F
:10416000000000000000C003F00F300C1818F81F0A
:10417000F81F180018003818301CF00FC007000096
:10418000000000000000000000000000800FC00FD1
:10419000C000C000C000F007F007C000C000C000B1
:1041A000C000C000C000C000C000C000C0000000CF
:1041B00000000000000000000000000000000000FF
:1041C000000000000000E00DF80F180E0C0C0C0CA5
:1041D0000C0C0C0C0C0C0C0C180EF80FE00D000C59
:1041E0000C0C1C06F807F001000000001800180075
:1041F000180018001800D807F80F381C18181818DD
:10420000181818181818181818181818181800005E
:10421000000000000000000000000000C000C0001E
:10422000000000000000C000C000C000C000C000CE
:10423000C000C000C000C000C000C000C00000003E
:10424000000000000000000000000000C000C000EE
:10425000000000000000C000C000C000C000C0009E
:10426000C000C000C000C000C000C000C000C0004E
:10427000C000C000F8007800000000000C000C0036
:104280000C000C000C000C0C0C060C038C01CC0078
:104290006C00FC009C018C030C030C060C0C000051
:1042A000000000000000000000000000C000C0008E
:1042B000C000C000C000C000C000C000C000C000FE
:1042C000C000C000C000C000C000C000C0000000AE
:1042D00000000000000000000000000000000000DE
:1042E0000000000000007C3CFF7EC7E383C183C167
:1042F00083C183C183C183C183C183C183C10000E2
:1043000000000000000000000000000000000000AD
:104310000000000000009807F80F381C1818181843
:10432000181818181818181818181818181800003D
:10433000000000000000000000000000000000007D
:10434000000000000000C003F00F300C181818180F
:104350001818181818181818300CF00FC00300009F
:10436000000000000000000000000000000000004D
:10437000000000000000D803F80F380C18181818B7
:104380001818181818181818380CF80FD80318002F
:1043900018001800180018000000000000000000BD
:1043A000000000000000C01BF01F301C1818181877
:1043B0001818181818181818301CF01FC01B0018EF
:1043C000001800180018001800000000000000008D
:1043D000000000000000B007F00370003000300063
:1043E000300030003000300030003000300000007D
:1043F00000000000000000000000000000000000BD
:10440000000000000000E003F003380E180C380034
:10441000F003C007000C180C380EF007E003000092
:10442000000000000000000000000000000080000C
:10443000C000C000C000F007F007C000C000C0000E
:10444000C000C000C000C000C000C007800700005E
:10445000000000000000000000000000000000005C
:10446000000000000000181818181818181818185C
:104470001818181818181818381CF01FE019000020
:10448000000000000000000000000000000000002C
:104490000000000000000C18180C180C180C300656
:1044A00030063006600360036003C001C0010000F5
:1044B00000000000000000000000000000000000FC
:1044C000000000000000C141C141C3616363636338
:1044D00063633636363636361C1C1C1C1C1C00002A
:1044E00000000000000000000000000000000000CC
:1044F0000000000000001C38381C300C600660030F
:104500006003600360036006300C381C1C38000038
:10451000000000000000000000000000000000009B
:104520000000000000001830301830187018600CBF
:10453000600CE00CC006C00680038003800380018D
:104540008001C001F00070000000000000000000C9
:10455000000000000000FC1FFC1F000C0006000310
:104560008001C000600030001800FC1FFC1F00002C
:1045700000000000000000000000000000038001B7
:10458000C000C000C000C000C000C00060006000EB
:10459000300060004000C000C000C000C000C0008B
:1045A000C0008001000300000000000080018001C5
:1045B00080018001800180018001800180018001F3
:1045C00080018001800180018001800180018001E3
:1045D0008001800180018001000000006000C000B7
:1045E000C00180018001800180018001000300037F
:1045F000000600030001800180018001800180012C
:104600008001C00060000000000000000000000009
:1046100000000000000000000000F010F81F080F6C
:10462000000000000000000000000000000000008A
:10463000000000000000000000000000000000007A
:104640000000010203040607080900006C46000888
:104650000000002008010000D03000087447000866
:1046600008010020A8040000E03000080000FFFF5F
:104670000000000010000000010000000000000029
:104680000024F40001000000000000000000000011
:10469000000000000000000000000000000000001A
:1046A00000000000FFFF000000000000202020208C
:1046B00020202020202020202020202020202020FA
:1046C00020202020202020202020202020202020EA
:1046D00020202020202020204E6F2031202020204C
:1046E00020202020202020202020202020202020CA
:1046F00020202020202020202020202020202020BA
:1047000020202020202020202020202020202020A9
:104710002020202020202020202020202020202099
:104720002020202020202020202020202020202089
:104730002020202020202020202020202020202079
:104740002020202020202020202020202020202069
:104750002020202020202020202020202020202059
:104760002020202020202020202020202020202049
:0447700020202020C5
:04000005080001D915
:00000001FF
