:020000040800F2
:10000000A009002099020008AD480008293E000818
:10001000A948000839100008DD5800080000000059
:10002000000000000000000000000000414C00083B
:100030000911000800000000DD480008754C0008A8
:10004000B3020008B3020008B3020008B3020008BC
:10005000B3020008B3020008B3020008B3020008AC
:10006000B3020008B3020008B30200083D10000804
:10007000B3020008B3020008B3020008B30200088C
:10008000B302000800000000B3020008B302000839
:10009000B3020008B3020008B3020008B30200086C
:1000A000B3020008B3020008B3020008B30200085C
:1000B000B3020008F94C0008B3020008B3020008BC
:1000C000B3020008B3020008B3020008B30200083C
:1000D000B3020008CD580008B3020008B3020008BC
:1000E000B3020008B3020008B3020008B30200081C
:1000F000B3020008B3020008B302000800000000C9
:1001000000000000B302000800000000B302000875
:10011000B302000800000000094D0008B302000807
:10012000B3020008B3020008B3020008B3020008DB
:10013000B30200080000000000000000B302000845
:10014000B3020008B3020008000000000000000035
:10015000000000000000000000000000000000009F
:10016000000000000000000000000000B3020008D2
:10017000B3020008000000000000000000000000C2
:1001800000000000B30200080000000000000000B2
:10019000000000000000000000000000000000005F
:1001A0000000000000000000B3020008B3020008D5
:1001B000B3020008B3020008B30200080000000008
:1001C00000000000B3020008000000000000000072
:1001D000B3020008B302000800F002F800F04CF887
:1001E0000AA090E8000C82448344AAF10107DA4592
:1001F00001D100F041F8AFF2090EBAE80F0013F098
:10020000010F18BFFB1A43F001031847388800009C
:1002100058880000103A24BF78C878C1FAD852072D
:1002200024BF30C830C144BF04680C607047000070
:100230000023002400250026103A28BF78C1FBD8EF
:10024000520728BF30C148BF0B607047662907F0CE
:100250006482642900F0D280002070471FB507F047
:100260004AFA00F045FC04000020002106F02AFCB8
:10027000E0601FBD10B510BD00F03AFD1146FFF75C
:10028000EDFF05F067FB00F058FD03B4FFF7F2FF48
:1002900003BC00F09BFD0000094880470948004767
:1002A000FEE7FEE7FEE7FEE7FEE7FEE7FEE7FEE726
:1002B000FEE7FEE704480549054A064B7047000083
:1002C000E54C0008D9010008A0030020A009002087
:1002D000A0050020A005002053EA020C00F0698070
:1002E0002DE9F04B4FF00006002B1FBFB3FA83F54A
:1002F00003FA05F424FA05F65E4012BF1643B2FA7B
:1003000082F502FA05F4C5F120051EBF22FA05FCAC
:1003100044EA0C04203556EA044C4FEA144418BF52
:10032000641C4FF000084FF00009904271EB030C81
:1003300039D3002919BFB1FA81F701FA07F6B0FAEB
:1003400080F700FA07F6C7F120071EBF20FA07FC66
:1003500046EA0C062037B6FBF4FCA7EB0507103F76
:1003600007F01F0BCBF120062CFA06F60CFA0BFB5C
:1003700044BFB3460026202FA4BF5E464FF0000BBB
:100380005BEA060C08BF4FF0010B19EB0B0948EBB9
:100390000608ABFB027C06FB02CC0BFB03CCC01BAC
:1003A00071EB0C01C1E70B46024641464846BDE8E9
:1003B000F08B13B5084318BF4FF0FF300146AFF381
:1003C0000080BDE81C4070470FB41CB50C0007AAA4
:1003D000009001D02044401E074B7B4469460190A9
:1003E000069800F064FB002C03D06946002000F062
:1003F00071FB1CBC5DF814FB010700002DE9F04106
:100400000646002410687529314616A510D0AFF3B2
:100410000080002802DA404213A507E031688A070D
:1004200001D512A502E0490704D511A5012401E078
:10043000AFF3008000210A2206F1240709E0B0FB97
:10044000F2FCB0FBF2F302FB1C003030785418468B
:10045000491C0028F3D123462A463046BDE8F04126
:1004600000F0B9B8000000002D0000002B000000D3
:10047000200000002DE9F0474FF0000A89460446AD
:10048000C0F820A02046E1688847002876D02528BB
:1004900006D0D4E901219047206A401C2062F1E790
:1004A000E168204600258847C4F81CA006460027BE
:1004B000C4F818A02A2E09D0304606F0FBFA38B34B
:1004C00004EB8708303EC8F8186019E059F8041B9F
:1004D000204604EB87029161E1688847012F0646B8
:1004E00018D1E069002820DA25F020051DE0D8F8B1
:1004F000180000EB800006EB40003038C8F8180008
:100500002046E1688847064606F0D4FA0028EED176
:10051000012F0AD02E2E08D12046E16888477F1C83
:100520000646022F45F02005C4DBA069002803DA47
:10053000404245F00105A061E80701D025F0100513
:10054000B6B1A6F14100192802D8203645F400655D
:100550004A463146204625604D46FFF777FE58B1A2
:10056000012806D0ED1D25F0070000F1080989E7F4
:1005700004E005F1040985E730468AE7206ABDE812
:10058000F0874FF0000200B5134694469646203996
:1005900022BFA0E80C50A0E80C50B1F12001BFF43C
:1005A000F7AF090728BFA0E80C5048BF0CC05DF8A2
:1005B00004EB890028BF40F8042B08BF704748BFF0
:1005C00020F8022B11F0804F18BF00F8012B704764
:1005D0007047704770472DE9F0470D46994692469F
:1005E000044600F124080168880604D5E06921F07A
:1005F0001001216000E00120A84201DD471B00E05E
:100600000027A1697A1902EB0900081AA061207875
:10061000C00602D42046AFF30080002608E0D4E9EB
:1006200001211AF806009047206A401C761C2062BF
:100630004E45F4DB2078C0060AD52046AFF3008093
:1006400006E0D4E9012130209047206A401C206256
:10065000381EA7F10107F4DC07E0D4E9012118F8FE
:1006600005009047206A401C2062281EA5F1010564
:10067000F3DC2046AFF300802078000602D502208C
:10068000BDE8F0870120FBE72DE9FF4F0C461E4631
:100690004FF0FF378BB0D2E90001DDF860800A909F
:1006A0008A46C1F30A5505B93D46002108464FF078
:1006B0000000BAF1000F00F4400005DA00EB800002
:1006C0004FF4400101EA50004FEA9059B9F1010F8F
:1006D00000DDB9460A9850EA4A000ED044F61050A0
:1006E000A5F2FF3545432F14B8F1000F1ED0754217
:1006F000291E1EDDC9F100021CE0B8F1010F4FF008
:10070000000001D0302103E0F24305E02154401CF9
:10071000B042FBDB30460022002121540B99C1F886
:100720000880C1E900200FB0BDE8F08FBD1B6D1C33
:10073000DEE74A4600DA694206A800F063FA06AB33
:1007400093E8070003AB83E8070050460A9905F0D9
:10075000D1FD8DE80700A0F500501F3800900398E8
:10076000002D0ADD42F21F014A460844002303A976
:100770000390684606F03AF809E0A0F500504A46B2
:100780001F38002303A90390684606F044F88DE85B
:1007900007000004000C03D04FF0FF30410800E0D8
:1007A0001046B8F1000F03D00022009215461EE05B
:1007B000751E05D400F0A0F9303262556D1EF9D5D2
:1007C000B3460122084302D000227F1C04E02078B7
:1007D000302801D100227F1E002A099784D01DE015
:1007E000112D07DA00F088F9303262556D1C50EA9D
:1007F0000102F5D1084302D00098C8B10EE00021F3
:10080000681E05E0235C625C63542254401E491C50
:100810008142F7DBAB46A81B401E0990002004F87C
:100820000B000B98099AC0F80880C0E9002B7AE702
:1008300011264FF0000857E72DE9F04F884604468F
:10084000D21D22F0070191B0D1E90001CDE90A01E2
:1008500006F018F902460B98C00F01D02D2007E0D2
:100860002068810701D52B2002E0202101EAC00089
:10087000032A099001D0072A05DB0346414620469A
:1008800000F080F90BE12078800601D5E06900E0F6
:100890000620B8F1650F814606D0B8F1660F18D072
:1008A000B8F1670F70D131E00020B9F1110F00905D
:1008B00001DB112301E009F101030AAA01A90CA837
:1008C000FFF7E2FEDDE90C70002609F10105834621
:1008D00047E001204B4600904FF000470AAA01A9CB
:1008E0000CA8FFF7D1FEDDE90DB00C995D4600269E
:1008F00010B909F101000D18B9EB050003D4C0F1DE
:10090000FF3609F10105A5EB09002BE0B9F1010F54
:1009100001DA4FF001090020B9F1110F00904846AB
:1009200001DD112300E003460AAA01A90CA8FFF784
:10093000ABFEDDE90C704D460026834620780007AB
:100940000AD4AB4500DA5D4601A8012D04DD41194A
:1009500011F8011C302907D04F4502DA17F1040FB6
:1009600004DA012082460FE06D1EEEE7002F02DC64
:10097000ED1B3E4403E0781CA84200DD7D1CB81B43
:1009800000F1010A4FF000472078000703D4AA4580
:1009900001DB4FF0FF3A0021B7F1004F0DF14308A2
:1009A0008DF8431024D002202B23002F01DA7F4240
:1009B0002D230A21021EA0F1010000DC5FB197FB8C
:1009C000F1FC97FBF1F201FB1C7C17460CF1300C9B
:1009D00008F801CDEEE7A8F10100037021880905B0
:1009E00001D5452100E06521A0F1010800F8011CB6
:1009F00009980FA9A1EB0807FF1D00B101204119BB
:100A000001EBEA70A1693844081A401EA061207801
:100A1000C00602D42046AFF30080099828B1D4E97B
:100A200001219047206A401C20622078C00622D510
:100A30002046AFF300801EE0002E04DBB34502DD4C
:100A400001A8805D00E03020D4E901219047206AB0
:100A5000401C2062761CAAF101005FEA000A0AD15C
:100A600000F046F8C0680168405CD4E90121904775
:100A7000206A401C2062281EA5F10105DCDC07E08D
:100A8000D4E9012118F8010B9047206A401C20622C
:100A9000381EA7F10107F3DC2046AFF300800320E6
:100AA00011B041E601694A1C02610878704700B53F
:100AB0008FB0CDE901310021059105497944CDE997
:100AC000031011466846FFF7D5FC0FB000BD0000CB
:100AD000E5FFFFFF0A6802F8010B0A607047D1E9E1
:100AE00000239A4202D2531C0B6010707047000022
:100AF000004870476800002030B5B0F10A0271F17B
:100B000000034FEA900E4EEA817EB0EB0E0061EBDF
:100B100091014FEA101E4EEA017E10EB0E0041EBF0
:100B200011114FEA102E4EEA016E10EB0E0041EB50
:100B300011214FEA104E4EEA014E10EB0E0041EB30
:100B40001141401841F100014FEAD00040EA4170E4
:100B50004FEAD1014FEA810444EA907410EB80051A
:100B600044EB01046D1944EB0404521BA3414FF004
:100B7000000348BF0A3200D530BD401C41F10001DE
:100B800030BD00002DE9F0411F46044603260168F0
:100B9000072A01F4006004DB08B116A505E016A5DC
:100BA00003E008B115A500E015A521F010002060B4
:100BB000A069C01EA0610FB1401EA0612046AFF326
:100BC00000804FB1D4E9012138469047206A401C8B
:100BD0002062C01C206206E0206AFAE7D4E9012105
:100BE00015F8010B9047761EF8D22046AFF300802F
:100BF000BDE8F0814E414E006E616E00494E4600E8
:100C0000696E66002DE9F047814616468AB0354880
:100C100078440DC88DE80D0032487844801C03AC40
:100C20000DC884E80D0041F69B300844372190FB45
:100C3000F1F290FBF1F5A5F1800501FB12041B3CDC
:100C400002D56442012000E00020DFF898A0804631
:100C50000027FA44AAF1BE0A0EE0E0070AD03246A5
:100C6000684607EB470101230AEB810105F0D3FD3C
:100C70008DE8070064107F1C002CEED1194F7F44D3
:100C8000AE3F19E0E80715D007EB04100DF1180A84
:100C900090E80E008AE80E00C068F04201D1981971
:100CA00008903246012306A903A805F0B4FD03AB62
:100CB00083E807006D10641C002DE3D14FF00103A1
:100CC00032466946B8F1000F03A802D005F08EFD48
:100CD00001E005F0A0FDC9E90001C9F808200AB04B
:100CE000BDE8F087886B000000487047480000208E
:100CF0007546FFF7F9FFAE4605006946534620F0FA
:100D00000700854618B020B5FFF7D4FABDE82040AB
:100D10004FF000064FF000074FF000084FF0000BB7
:100D2000AC46ACE8C009ACE8C009ACE8C009ACE826
:100D3000C00921F007018D46704710B50446AFF396
:100D400000802046BDE81040FFF79FBA0000000079
:100D500030B44FF0013C50F8042B51F8043BCCFA6E
:100D600052F4D51A20D1FCB950F8042B51F8043BA9
:100D7000CCFA52F4D51A17D1B4B950F8042B51F863
:100D8000043BCCFA52F4D51A0ED16CB950F8042BAE
:100D900051F8043BCCFA52F4D51A05D1002CDAD024
:100DA00030BC4FF00000704729BAB1FA81F111F060
:100DB0001801D1F120008440F2D1CA40CB4012F09A
:100DC000FF0213F0FF0330BCD01A7047014918200E
:100DD000ABBEFEE7260002007047000070B5044677
:100DE00000680D4603F07AFA21680646084603F0CB
:100DF00053FA30435BD02068C168890114D5617F04
:100E0000012911D1217F01290ED10168490608D499
:100E10000121CAF2403100BF01393ED002685206BA
:100E2000FAD5402101250160022D0FD003F056FABA
:100E300018B1206803F046FA18B1012D06D1042636
:100E400016E0206803F074FA012DF8D0206803F052
:100E500023FA30B1206803F035FA10B9206803F0A6
:100E60001FFA0426022D08BF0826032D08BF0C26F2
:100E700000F0C0FF21688968314218D0054603E0C0
:100E800020688068304212D000F0B4FF401B062872
:100E9000F6D3206880683042F2D0E06D40F0100058
:100EA000E065206E40F001002066012070BD00204A
:100EB00070BD000010B5846AE26DE16D12F0500F54
:100EC00005D0C9060ED4616D496B884710BD41F449
:100ED0000070E06520680168090707D4C0688007D2
:100EE00016D40AE0204600F007FB10BD03F0FAF923
:100EF00070B12068C06880040AD4E06D20F480706E
:100F0000E065E06DC00403D4E06D40F00100E065F1
:100F1000204600F0EDFA10BD80B5806AC16D41F049
:100F20004001C165016E41F00401016600F0E4FA80
:100F300080BD000080B5806A00F0DCFA80BD000052
:100F4000B0B50446006803F0BDF9216805460846BF
:100F500003F0BCF901464FF000007DBB002908BF3B
:100F6000B0BD2068816801F00D0101291BD103F09B
:100F700057F920680321016000F03CFF216889686F
:100F8000C90704BF0020B0BD054603E020688068A3
:100F9000C00712D000F02EFF401B0328F6D32068B4
:100FA0008068C007F2D0E06D40F01000E065206E70
:100FB00040F0010020660120B0BD0020B0BD00005F
:100FC000B0B50446006803F081F908B10020B0BD57
:100FD00020683F228168C8F20002114209D0E06D0A
:100FE00040F01000E065206E40F001002066012016
:100FF000B0BD03F027F900F0FDFE21680A68D207B2
:101000001CBF0020B0BD054604E000BF2168086891
:10101000C007DBD1084603F059F910B9206803F086
:1010200011F900F0E7FE401B0328EFD320680068A9
:10103000C007EBD1D3E70000FEE7000080B540F227
:10104000C010C2F2000000F0DDFC80BD80B5016878
:101050006FF007024CF6CD4352FA81F2CCF6CC4346
:10106000A2FB032C40F20842C4F20202D0F844E092
:1010700002F58363914238BF02F57E732EF00301BF
:10108000194402F58F6ECCF3041301229A40C0E993
:10109000121E026580BD0000017940F60012013980
:1010A000C4F2020202EB810302F1400C01F01F01C5
:1010B000012202FA01F1C0E9153CC1657047000048
:1010C00070B5D0E913C4D0F854E0CCF80440BEF1B8
:1010D000000F1CBFD0E916C4CCF80440D0E9106E54
:1010E0000468D0F808C00EF01F00012505FA00F0D2
:1010F000706008466360BCF1100F04BF10460A46DA
:10110000A060E26070BD000070470000EFF3108047
:1011100072B600BFFEE7000070B582B00446002042
:10112000019094F85800012801D1022533E00120F4
:1011300084F8580020460E46FFF702FF0546E06D92
:1011400015B140F0100022E041F202118843023054
:10115000E0652068314603F05BF94DF60266C0F2A7
:10116000040600BF206803F0A5F860B101980130C3
:1011700001900198B042F5D3E06D012540F01000D8
:1011800020F0020003E0E06D012161F30100E06561
:10119000002084F85800284602B070BDF0B581B038
:1011A00004460020009094F85800012802D1022043
:1011B00001B0F0BD20680D46012184F8581003F0FD
:1011C0008DF848B1E06D40F02000E065012000217D
:1011D00084F8581001B0F0BD2068D5E9002103F073
:1011E00089F8206803F07AF821680646084603F07B
:1011F00053F8304340F0B880AB68296803F10040F1
:10120000B0FA80F047092068B3F1004218BF1A46CF
:10121000FE0703F097F82068314603F0F3F82068E2
:1012200029696B69C268042940F088804FF6FF770E
:101230000021C0F2070703F029F821680646084696
:10124000002103F023F8720390FAA0F12A68B1FAA2
:1012500081F108BFC0F3846192FAA2F0B0FA80F085
:10126000530308BFC2F38460814203D12068002188
:1012700003F0C0F82068012103F008F82168064651
:101280000846012103F002F890FAA0F12A68B1FAA9
:1012900081F13E4208BFC0F3846192FAA2F0B0FA35
:1012A00080F03A4208BFC2F38460814203D12068D3
:1012B000012103F09FF82068022102F0E7FF216876
:1012C00006460846022102F0E1FF90FAA0F12A68E2
:1012D000B1FA81F13E4208BFC0F3846192FAA2F0F4
:1012E000B0FA80F03A4208BFC2F38460814203D171
:1012F0002068022103F07EF82068032102F0C6FF77
:10130000216806460846032102F0C0FF90FAA0F1CA
:101310002A68B1FA81F13E4208BFC0F3846192FAB3
:10132000A2F0B0FA80F03A4208BFC2F38460814272
:101330001AD12068032103F05DF815E0062707EABB
:1013400092072A68BB4003F033F820682969AA692C
:1013500003F048F82A7F2068013AB2FA82F229693C
:101360005209520603F036F8206802F0AFFF002859
:101370004DD120682968EA6802F0F6FFE86800218C
:10138000C4F27F01884242D1D5F800E04FF080617D
:101390009EFAAEF27346B2FA82F76FF3DF433A4633
:1013A0002068002B08BF4FEA9E62561C01EB826149
:1013B00006F01E0C01F0F84206F01F010126BCF1F8
:1013C000090F06FA01F60DD842EA0601002B08BF04
:1013D0004FEA9E677A1C02F01F0202EB420241EACA
:1013E000025111E0002B08BF4FEA9E67791C01F003
:1013F0001F01002301EB4101CFF6206303EB0151F4
:101400003243114341F00071AA6802F09BFF6888E3
:1014100048F20801084232D002F028FF2A68002171
:10142000CCF221318A42014604D01020C9F2C0001A
:10143000824207D1080205D42068B0F1A04F2DD018
:101440000020C4E60020CCF25270824208BF11F0A6
:10145000807016D00020CCF6843082424FF000001D
:1014600008BF11F480027FF4B2AE206840F200128F
:10147000C5F20002904236D041F480000AE000201C
:10148000A5E6206840F20012C5F20002904228D082
:1014900041F0807002F082FF002098E641F40000E5
:1014A00002F07CFF40F23800C2F20000006842F611
:1014B00063518009C0F23E51A0FB0101880900EB95
:1014C00040000C2101EB80000090009868B100BF43
:1014D000009801380090009800284FF00000F7D1E4
:1014E00075E6002073E6002071E600206FE600003C
:1014F00070470000704700007047000070B582B070
:10150000044600200190CCB1E06D30B9204600F0D7
:10151000E5F80020206684F85800206802F0CEFE2E
:1015200010B1206802F086FE206802F0D3FE38B1C8
:10153000206802F0CFFEF0B1002525E00125C9E0CA
:10154000206802F089FE40F23800C2F20000006814
:1015500042F663518009C0F23E51A0FB01018809A7
:10156000022101EB400000BF019001980028DFD06C
:1015700001980138F8E7E06D012540F01000E065C2
:10158000206E40F001002066206802F0A7FEE16DA9
:1015900001F010010843E06D03D040F01000012578
:1015A00097E020F481700230E065206802F08EFE42
:1015B00078B94FF0A04002F089FE064640F20010D4
:1015C000C5F2000002F082FE304302D1606802F0F2
:1015D000DBFE607FE16B41EA4030D4E90221084341
:1015E00094F824101043012940EA014106D1A06A71
:1015F0000022CFF6FE7202EB40400143E06A28B1C0
:1016000000F47870226B084340EA02012068626BA4
:10161000C36844F20706CFF6F07633401943C16041
:10162000016921F040611143016102F057FE216818
:101630000646084602F030FE30433BD194F83800AD
:10164000217F400040EA813220682169C36844F26A
:101650000206B3431A43C260026949B142F48032C0
:101660000261D0F8C02043F6FF739A43114307E0AC
:1016700022F480310161D0F8C01043F6FF7291432B
:10168000C0F8C01094F840200169012A0FD140F23F
:10169000FD7204F1440621EA020C4CCE216D42EAAF
:1016A0000C021A433243114341F0010101E021F0E1
:1016B0000101016120686169026B012922F00F01BB
:1016C00002D1226A013A11430163E06D012161F305
:1016D0000100E065284602B070BD000070B598B00A
:1016E000044600201790CDE91500CDE9130002A8AB
:1016F0004421FEF746FF206840F20011C5F20001C8
:10170000884201D018B070BD4FF000504FF4004532
:10171000119002A8029500F073FC002818BFFFF793
:10172000F5FC41F24C00C4F202000168002641F4CD
:1017300000510160016801F40051019101990168B3
:1017400041F002010160006813A900F0020001905D
:1017500001980320149040F20040C4F60000139555
:10176000159600F06BFA40F2C0150820C2F2000591
:10177000C4F2020024214FF4007385E8430005F110
:10178000140080224FF4006C4FF0200E80E80850C7
:101790002846C5E903622E6200F08AF9002818BFC6
:1017A000FFF7B4FC6565AC6218B070BD2DE9F0417F
:1017B00090460E46044602F061FD21680746084641
:1017C00002F08CFD18B994F85800012802D10220CB
:1017D000BDE8F0810120092F84F858005BD8B8409B
:1017E00040F22121084256D02046FFF7E9FB30B1F4
:1017F0000546002084F858002846BDE8F08121689D
:10180000E06D40F60172904300F5807240F20010E6
:10181000C5F200008142084608BF4FF0A040002FEB
:10182000E26518BF884203D1E06D20F48010E065C6
:10183000E06D40F6B563C0044FF0000044BF206E79
:1018400020F006002066606D40F63577C0F6000394
:10185000C0F6000740F619750022C0F60005C0E981
:101860000B371C2345630B6084F858204A684346B5
:1018700042F010024A60CA6842F00102CA60403178
:10188000324600F081F921680546084602F046FD1F
:101890002846BDE8F081002084F858000120BDE80A
:1018A000F0810000B0B5044690F85800012804BF4C
:1018B0000220B0BD012084F8580020460321FFF724
:1018C0008DFA054618BB2168606DCA6822F00102D6
:1018D000CA6090F82510022907D100F01DF80546CE
:1018E00018B1E06D40F04000E0652068416821F0EB
:1018F000100141602046FFF723FB002D08BF05467D
:101900002DB9E06D41F2011188430130E0650020FE
:1019100084F858002846B0BD80B5014690F82500EF
:10192000022824D10868D1E910CE8A6C036823F01C
:101930000E030360136823F480731360026822F0BF
:10194000010202600EF01F00012202FA00F0CCF842
:101950000400D1E913205060486D60B1026822F4A0
:1019600080720260D1E916024260002004E0042087
:10197000C863012000E00020012281F82520002218
:1019800081F8242080BD000080B590F82510022940
:101990002DD10168D0E910CE826C0B6823F00E03C4
:1019A0000B600B6823F001030B60116821F4807158
:1019B00011600EF01F02012101FA02F2CCF804209E
:1019C000D0E913325A60426D32B1136823F4807348
:1019D0001360D0E91623536080F82510826B002134
:1019E00080F824100AB190470021084680BD0421E8
:1019F000C1630121002280F8251080F824200846C8
:101A000080BD0000B0B50268D0E910C4DCF8005019
:101A1000136804F01F0E590712D5042101FA0EF4C1
:101A200014EA05010CD01168890603D4116821F06D
:101A300004011160CCF80440016BB9B38847B0BD14
:101A4000990718D5022101FA0EF414EA050112D003
:101A50001168890606D4116821F00A01116001217C
:101A600080F82510CCF80440C16A002280F82420B8
:101A7000E1B18847B0BD190758BFB0BD082101FAD0
:101A80000EF1294012D0116821F00E0111600121E0
:101A900001FA0EF2CCF80420C16380F82510416BE6
:101AA0000022002980F8242018BF8847B0BD00001C
:101AB000002804BF012070472DE9F04140F2000CDE
:101AC0000446C4F2020C00684FF6F8330CF581624C
:101AD000CBF6FD73904238BF03F5806303EB000241
:101AE0004CF6CD43CCF6CC43A2FB032304F1080E05
:101AF0000CF580616FF003059EE804413CBF0021B6
:101B0000C4F2020105EA9303C4E91013022184F828
:101B10002510016847F6F073994304F11407114347
:101B2000E8CF41EA080141EA0E0119432943314354
:101B3000394301602046FFF789FAA06804F14803A1
:101B4000B0F5804F04BF0020606060680ECBC7B264
:101B5000013803280F60536009D82046FFF79CFA2C
:101B600004F1540207CA002303604A6003E0002026
:101B7000C4E91500E06500200121E06384F8251028
:101B800084F82400BDE8F08110B5044690F82400E4
:101B9000012820D0012084F8240094F82500012891
:101BA00016D1022084F825000020E063D4F800C09C
:101BB000DCF8000020F00100CCF800002046FFF720
:101BC0007FFA2068226B01683AB141F00E010AE009
:101BD000002084F82400022010BD21F004010160DF
:101BE000016841F00A010160A06C0168C90303D5D6
:101BF000016841F480710160606D18B1016841F4C1
:101C0000807101602068016841F0010101600020DD
:101C100010BD0000B0B5044600F0ECF8054640F2F7
:101C20003C00C2F200000068611C18BF044400BF01
:101C300000F0E0F8401BA042FAD3B0BD2DE9F04F10
:101C400083B00D68002D00F0C58000F138424FEAE6
:101C5000B22241F200470192C4F600070622002694
:101C600000244FF0010AB84208BF0522009209E0A3
:101C70000D68043435FA0AF20AF1010A06F1020687
:101C800000F0A880AAF1010C012202FA0CFB15EA6F
:101C90000B09EDD0D1F8048008F00305A5F1010E81
:101CA000BEF1010F11D887680322CB68B24027EA42
:101CB0000202B3401A4382604268C8F3001322EA6A
:101CC0000B0203FA0CF31A434260032D1CD0C268C6
:101CD00003238F68B3409A4307FA06F31A43022D91
:101CE000C26011D16FF0030202EA5C02024404F008
:101CF0001C070F23D2F820E003FA07F50B692EEA40
:101D00000505BB402B431362026803234F68B340B1
:101D10009A4307F00303B3401A4317F4403F0260AD
:101D2000A6D041F26003C4F202031A6840F2004EEA
:101D300042F001021A601A68C4F2010E02F00102B8
:101D40000292029A2CF003024FF608487244CFF632
:101D5000FF7852F8083004F00C070F25BD4023EA45
:101D6000050C019B009D052B38BF1D4605FA07F7A2
:101D700047EA0C0342F80830DEF808204B6842EAD4
:101D8000090740F20C4CDD0258BF22EA0907CEF8E1
:101D90000870C4F2010CDCF800209D0242EA090739
:101DA00058BF22EA0907CCF80070DEF804209D0332
:101DB00042EA090758BF22EA0907CEF80470DEF8A4
:101DC0000020DB0342EA090758BF22EA0907CEF8E0
:101DD00000704DE703B0BDE8F08F000000690840D7
:101DE00018BF0120704700001823002A08BF2823CD
:101DF000C150704740F29430C2F200000068704752
:101E000040F23C0040F29431C2F20000C2F2000104
:101E100000680A68104408607047000080B503201D
:101E200000F068F80F2000F009F800281CBF01201E
:101E300080BD00F02FF8002080BD0000B0B540F25A
:101E40003C01C2F20001096801B3044640F23800C7
:101E5000C2F200004FF47A720068B2FBF1F1B0FBFD
:101E6000F1F000F0C5FD0F2C4FF001050CD858B96A
:101E70004FF0FF3021460022002500F02BF840F201
:101E80004000C2F2000004602846B0BD012528468B
:101E9000B0BD000080B582B041F25800C4F202002B
:101EA000816841F001018160816801F001010191C7
:101EB0000199016841F080510160006800F0805094
:101EC0000090009800F092F802B080BD80B503F059
:101ED00007FD80BD70B514460D46064603F010FDA3
:101EE0002946224602F0E4FC0146304603F010FD8C
:101EF00070BD000080B503F01DFD80BDB0F5007F12
:101F000035D0002866D147F20000C4F20000016815
:101F1000D0F8802001F4C06122F48072B1F5806FA6
:101F2000C0F8802021D10168012262F34A210160BA
:101F300040F23801C2F200010968322359434DF6DC
:101F40008363C4F21B33A1FB031302EB934100BF75
:101F500043694A1E8A4203D213F480611146F7D1C5
:101F60004069400544BF032070470020704747F296
:101F70000000C4F200000168D0F8802001F4C061C4
:101F800042F48072B1F5806FC0F88020EDD1016815
:101F9000012262F34A21016040F23801C2F20001DD
:101FA0000968322359434DF68363C4F21B33A1FB06
:101FB000031302EB934100BF43694A1E8A4203D2D6
:101FC00013F480611146F7D14069400544BF0320F6
:101FD0007047CAE747F20000C4F20000016802221D
:101FE00062F34A21016000207047000047F20800B8
:101FF000C4F20000016841F48041016070470000B4
:102000002DE9F04381B08146807841F288070007CE
:10201000C4F2020701D4002565E057F8300C10F037
:1020200080580BD157F8300C40F0805047F8300CF6
:1020300057F8300C00F080500090009847F20004F0
:10204000C4F20004206840F480702060FFF7D2FEE4
:10205000054600BF206810F4807607D1FFF7CAFE5E
:10206000401B0328F6D3032516B933E000258EB3B1
:10207000B86810F4407012D0D9F8401088420BD0E4
:10208000B868B96820F4407041F48031B960B9682B
:1020900021F48031B960B860C00703D111E000209D
:1020A000C0070ED0FFF7A6FE064641F2893400BFF6
:1020B000B868800705D4FFF79DFE801BA042F7D3C8
:1020C00003253DB9B868D9F8401020F440700843A2
:1020D0000025B860B8F1000F05D157F8300C20F09A
:1020E000805047F8300CD9F80000C10712D18107A1
:1020F00019D4410720D4010727D481062ED44106E4
:1021000035D401063CD4C10543D481054AD44105E8
:1021100051D460E03968D9F8042021F0030111435B
:1021200039608107E5D53968D9F8082021F00C011C
:10213000114339604107DED53968D9F80C2021F008
:102140003001114339600107D7D53968D9F810201B
:1021500021F0C001114339608106D0D53968D9F822
:10216000142021F44061114339604106C9D5396812
:10217000D9F8182021F44051114339600106C2D525
:102180003968D9F81C2021F4404111433960C10558
:10219000BBD53968D9F8202021F44031114339608A
:1021A0008105B4D53968D9F8242021F440211143A0
:1021B000396041050FD53968D9F8282021F440113C
:1021C0001143B2F5801F396005D157F87C1C41F4EA
:1021D000801147F87C1C01050FD53968D9F82C20EF
:1021E00021F440011143B2F5800F396005D157F851
:1021F0007C1C41F4801147F87C1CC1040FD5396860
:10220000D9F8302021F040711143B2F1807F39605C
:1022100005D157F87C1C41F4801147F87C1C8104DF
:102220000FD53968D9F8342021F040611143B2F15B
:10223000006F396005D157F87C1C41F4801147F8D4
:102240007C1C41040FD53968D9F8382021F0406151
:102250001143B2F1006F396005D157F87C1C41F48D
:10226000801147F87C1C00040FD53868D9F83C1061
:1022700020F040500843B1F1805F386005D157F835
:102280007C0C40F4803047F87C0C284601B0BDE857
:10229000F08300002DE9F047002800F0CA8042F2E8
:1022A000000AC4F2020A0446DAF800000D4600F003
:1022B0000F0088420DD2DAF8000020F00F0028430A
:1022C000CAF80000DAF8000000F00F00A84240F061
:1022D000B080207841F20808C007C4F202080CD18F
:1022E0004FF00009206881072BD4B9F1800F41D14C
:1022F000D8F8000020F0F0003AE06068022800F012
:102300008C80032840F0918058F8080C800140F13F
:10231000908002F0E5FA4BF20041C0F2C4418842DD
:102320000CD9D8F8000010F0F00F00F08E80207863
:10233000800703D5A068002800F087804FF00009CF
:102340008CE0410705D5D8F8001041F4E061C8F8E9
:102350000010000706D5D8F80000072161F30D2012
:10236000C8F80000D8F80000A16820F0F000084389
:10237000C8F80000DAF8000000F00F00A84219D9F0
:10238000DAF8000020F00F002843CAF80000FFF739
:1023900031FD064641F28837DAF8000000F00F0000
:1023A000A84207D0FFF726FD801BB842F4D90320CE
:1023B000BDE8F0872068410707D5D8F80010E2682B
:1023C00021F4E0611143C8F80010000708D5D8F8DF
:1023D0000000216920F4605040EAC100C8F8000004
:1023E00000F08AF8D8F8001047F2B472C1F3031174
:1023F000C0F60002515C40F2380201F01F0120FAE1
:1024000001F140F24000C2F200000068C2F2000296
:102410001160FFF713FDBDE8F08758F8080C800342
:102420005CBF0120BDE8F08706E058F8080C4005C5
:1024300002D40120BDE8F08700F05EF84BF20041C5
:10244000C0F2C44188427FF679AFD8F80000082175
:1024500061F307104FF08009C8F80000D8F80000B9
:10246000616820F003000843C8F80000FFF7C2FCD1
:10247000064641F2883700BFD8F80000616800F0D6
:102480000C00B0EB810F3FF42DAFFFF7B3FC801BC6
:10249000B842F1D90320BDE8F087000040F23800CF
:1024A000C2F200000068704780B5FFF7F7FF41F205
:1024B0000801C4F20201096847F2C472C1F30221A3
:1024C000C0F60002515C01F01F01C84080BD000051
:1024D00080B5FFF7E3FF41F20801C4F20201096889
:1024E00047F2C472C1F3C221C0F60002515C01F090
:1024F0001F01C84080BD000041F20C01C4F202017E
:1025000051F8040C42F20042C0F2F40200F00C0058
:102510000428104608BF704751F8040C00F00C0066
:10252000082843F20060C0F26E1021D051F8043C3C
:1025300003F00C030C2B1CBF00207047D1F800C027
:102540000B680CF0030CC3F303130133BCF1030F4E
:1025500008BF02460868B2FBF3F20968C0F3062020
:102560005043C1F34161022202EB4101B0FBF1F0A3
:10257000704700002DE9F04182B0002800F0018191
:102580000446007841F20006C007C4F2020654D1A6
:102590002078800772D42078000700F19580207899
:1025A000400700F1B3802078800600F10081E069E7
:1025B000002840D0B16801F00C010C2940F058818E
:1025C000012800F0DE80F068216A00F003028A42F0
:1025D00040F0D780626A6FF00F0300F0F00103EB68
:1025E0000212914240F0CD80A16A00F4FE42B2EBAB
:1025F000012F40F0C680E16A00F07842B2EBC16F73
:1026000040F0BF80226B0023CFF6E07303EB025251
:1026100000F4C0016FF31402914240F0B280616B8C
:102620004FF07E4202EB016100F0C06001F07E419C
:10263000884240F0A6800020D7E1B06800F00C018D
:10264000F068082959D0032281F00C0122EA000029
:102650000844B0FA80F040094FD16568B5F5A02F65
:1026600000F0D180B5F5803F00F0D180306820F4D3
:1026700080303060306820F48020CBE0B068F168B2
:1026800000F00C00042866D001F0030180F00C007B
:1026900081F002010844B0FA80F040095BD1E168A2
:1026A0003068002900F0D28040F480703060FFF77D
:1026B000A1FB05463068400500F1EF80FFF79AFB6B
:1026C000401B0228F6D920E16169D6F89400002960
:1026D00000F0878040F00100C6F89400FFF78AFB05
:1026E000054600BFD6F8940080073FF558AFFFF7C6
:1026F00081FB401B0228F5D907E1306880037FF594
:1027000047AF606800287FF443AF3AE0B06D10F047
:10271000805808D1B06D40F08050B065B06D00F0C9
:1027200080500190019847F20007C4F20007386812
:10273000C0052AD4386840F480703860FFF75AFB2F
:10274000054600BF3868C0051FD4FFF753FB401B88
:102750000228F7D9D9E03068400501D5E06880B19A
:102760007068216920F0FE4040EA0160706040F22C
:102770004000C2F200000068FFF760FB00283FF451
:102780000AAF012002B0BDE8F081A568052D00F078
:10279000A080012D00F0A380D6F8900020F0010069
:1027A000C6F89000D6F8900020F004009BE0A169E4
:1027B000D6F89800002978D040F00100C6F89800BB
:1027C000FFF718FB054600BFD6F8980080073FF5D5
:1027D000EEAEFFF70FFB401B02284FF00300F3D9CA
:1027E00003E120F00100C6F89400FFF703FB054663
:1027F000D6F8940080077FF5D2AEFFF7FBFA401BB6
:102800000228F5D981E0306840F4802030603068DB
:1028100040F480303060FFF7EDFA002D054611D00E
:10282000306880033FF5B4AEFFF7E4FA401B64283C
:10283000F6D96AE0FFF7DEFA401B64284FF0030088
:1028400000F2D38030688003F4D4A1E620F48070D5
:102850003060FFF7CFFA0546306840057FF59BAE44
:10286000FFF7C8FA401B02284FF00300F4D9BCE080
:102870003168022821F0807131605FD1FFF7BAFA28
:10288000054600BF3068800172D5FFF7B3FA401BE0
:1028900002284FF00300F5D9A7E07068216920F005
:1028A000FE4040EA0160706075E620F00100C6F865
:1028B0009800FFF79FFA0546D6F8980080077FF545
:1028C00076AEFFF797FA401B02284FF00300F3D9CA
:1028D0008BE0D6F8900040F00400C6F89000D6F8DF
:1028E000900040F00100C6F89000FFF783FA002D39
:1028F000054641F2883714D0D6F89000800714D4EA
:10290000FFF778FA401BB842F6D9032002B0BDE8C1
:10291000F08100BFFFF76EFA401BB8424FF0030092
:1029200063D8D6F890008007F4D4B8F1000F7FF494
:102930003AAEB06D20F08050B06534E6F0684FF6E6
:10294000FF7120F00300F060F068CFF6EE61084000
:10295000F060FFF74FFA0446306880017FF56BAEF8
:10296000FFF748FA001B02284FF00300F4D93CE0BF
:10297000F06848F20C01C0F29F1104F1200700EA50
:10298000010C8ECF6FF00F00D4E90C5400EB021055
:102990000022CFF6E07241EA0C0102EB0552084337
:1029A0006FF314024FF07E4540EA032005EB046507
:1029B000104305F07E4540EAC7602843F060306868
:1029C00040F080703060F06840F08070F060FFF799
:1029D00011FA0446306880013FF52DAEFFF70AFA80
:1029E000001B02284FF00300F4D902B0BDE8F081CB
:1029F00080B502F027F980BD7047000070470000E5
:102A000070470000704700007047000070470000EA
:102A100070B590F83C20012A4FF002024AD0012301
:102A200080F83C3080F83D20026843F2004C546846
:102A30009368C4F2010C42F6004E6245C4F2010EE6
:102A400001D0724503D14D6824F470042C434FF635
:102A50008F75CFF6FF550E682C4042F6FF35C4F255
:102A600001053443AA4254600FDCB2F1804F16D006
:102A700040F20046C4F20006B24210D040F6000612
:102A8000C4F20006B2420AD00EE0724507D044F20A
:102A90000006C4F20106B24201D0624504D1896841
:102AA00023F08003194391600121002280F83D103A
:102AB00080F83C20104670BD70470000002804BF1D
:102AC0000120704710B5044690F83D0028B9002059
:102AD00084F83C00204600F023F8022084F83D00F2
:102AE0002068211D02F018F9012084F8480084F8BC
:102AF0003E0084F83F0084F8400084F8410084F8E8
:102B0000420084F8430084F8440084F8450084F8C7
:102B1000460084F8470084F83D00002010BD000006
:102B200080B586B0006841F20001C4F2000188421D
:102B30004FF000010591CDE90311CDE9011117D046
:102B400040F20041C4F20001884228D0B0F1804F29
:102B500023D141F25800C4F20200016841F00101A2
:102B60000160006800F001000090009806B080BD90
:102B700041F25800C4F202000168002241F0100145
:102B800001600068002100F01000009000983620DD
:102B9000FFF7A0F93620FFF799F906B080BD41F2A2
:102BA0005800C4F20200016841F0020101600168AE
:102BB00001F002010091009950F80C1C41F0010154
:102BC00040F80C1C50F80C0C002100F001000090A3
:102BD00000988020019002200290CDE90311059019
:102BE00001A94FF09040FFF729F81D200021002295
:102BF000FFF770F91D20FFF769F906B080BD0000EE
:102C000090F83D1001291CBF01207047022180F877
:102C10003D10016842F6FF32C868C4F201029142D9
:102C200040F00100C8600FDCB1F1804F1ED040F2CF
:102C30000040C4F20000814218D040F60000C4F207
:102C40000000814212D024E042F60040C4F20100AC
:102C500081420BD044F20000C4F20100814205D051
:102C600043F20040C4F20100814212D18868072279
:102C7000C0F201020240062A4FF000000ED0B2F569
:102C8000803F08BF7047086840F0010008600020DE
:102C90007047086840F0010008600020704700009D
:102CA00010B5044690F83C0001284FF0020008BF20
:102CB00010BD0B46012184F83C1084F83D002068CB
:102CC00088228168CFF6CE721140816019686F2921
:102CD0000DDD1F22C0F21002914217DCB1F5005F3A
:102CE00026DA702940D0B1F5805F5BD03AE02F2919
:102CF00018DD4F2921DC302952D0402932D15968C2
:102D0000DA6802F02BFA2068402149E03F22C0F245
:102D1000100291421CDC2022C0F2100291423FD0EE
:102D200030221BE0E1B310293AD0202938D019E035
:102D300025D0B1F1101F33D014E050292AD06029DA
:102D400010D15968DA6802F05FFA2068602127E044
:102D50004022C0F21002914222D07022C0F2100232
:102D600091421DD001201EE0D3E90121DB6802F071
:102D700065F82068816841F07701816012E0D3E94D
:102D80000121DB6802F05AF82068816841F4804133
:102D9000816007E05968DA6802F0E0F920685021A4
:102DA00002F058F80020012184F83D10002184F839
:102DB0003C1010BD70B540F26C24C2F20004A04279
:102DC00058D1207F022855D140F23015C2F20005BB
:102DD000287F032888BF70BDDFE800F00214243686
:102DE00040F23840C4F20000006821686860086A58
:102DF00020F0A0000862086A40F02000086201206C
:102E0000287770BD40F23840C4F2000000682168A5
:102E1000A860086A20F0A0000862086A0862022020
:102E2000287770BD40F23840C4F200000068216885
:102E3000E860086A20F0A0000862086A40F02000FC
:102E400008620320287770BD40F23840C4F20000C9
:102E5000006821682861086A042620F0A000086242
:102E6000086A08622046042100F046F92068002123
:102E700041622E7770BD0000B0B5044690F83C006A
:102E8000012804BF0220B0BD0D464FEAB201012067
:102E9000032984F83C0037D8DFE801F0020C16243F
:102EA0002068D5E90012EB6802F06AF9206850F852
:102EB000181F12E02068D5E90012EB6802F0B6F99D
:102EC000206850F8181F16E02068D5E90012EB685A
:102ED00002F0CAF9206850F81C1F21F00C010160B3
:102EE000A9680DE02068D5E90012EB6802F0D6F978
:102EF000206850F81C1F21F440610160A968090294
:102F00000268114301600020002184F83C10B0BD2C
:102F1000002804BF0120704710B5044690F83D001A
:102F200028B9002084F83C00204600F023F8022055
:102F300084F83D002068211D01F0EEFE012084F898
:102F4000480084F83E0084F83F0084F8400084F88C
:102F5000410084F8420084F8430084F8440084F877
:102F6000450084F8460084F8470084F83D000020BE
:102F700010BD000070470000B0B5044659B1081FED
:102F80004FEAB000032809D8DFE800F0020B0E1169
:102F900004F13F000DE004F13E000AE004F14300BB
:102FA00007E004F1400004E004F1410001E004F115
:102FB0004200007841B1082909D0042914BF04F166
:102FC000470204F1450204E004F1440201E004F187
:102FD000460201284FF00105127808BF012A01D0EE
:102FE0002846B0BD61B1081F4FEAB00003280BD8D6
:102FF000DFE800F0020E1216022084F83F0012E013
:10300000022084F83E000EE0022084F843000AE02B
:10301000022084F8400006E0022084F8410002E02B
:10302000022084F84200022041B1082909D0042975
:1030300014BF84F8470084F8450004E084F8440095
:1030400001E084F846004FEAB10003280AD823685B
:1030500025A252F82020DD682A430025DA600328E3
:1030600003D9BDE701250328BAD82068012201F061
:10307000D3FE206842F6FF31C4F2010188420FDC22
:10308000B0F1804F1ED040F20041C4F200018842EE
:1030900018D040F60001C4F20001884212D01DE0B1
:1030A00042F60041C4F2010188420BD044F2000113
:1030B000C4F20101884205D043F20041C4F201018B
:1030C00088420BD181680722C0F201021140062913
:1030D0003FF486AFB1F5803F3FF482AF016841F025
:1030E000010101602846B0BD02000000040000009C
:1030F000080000001000000070B50E464FEAB10154
:10310000032904460BD822682DA050F82100D3686B
:1031100000251840D060032904D9284670BD012538
:103120000329FAD820683146002201F075FE206894
:1031300041F21112016A114204D1016A44F244427F
:1031400011420DD096B1301F4FEAB000032811D8BC
:10315000DFE800F00214181C012084F83F0018E09A
:10316000016821F001010160002EECD1012084F8FA
:103170003E000EE0012084F843000AE0012084F8BC
:10318000400006E0012084F8410002E0012084F8BC
:10319000420001203EB1082E09D0042E0BD184F844
:1031A0004500284670BD84F84400284670BD84F868
:1031B0004600284670BD84F84700284670BD00BF11
:1031C000FDFFFFFFFBFFFFFFF7FFFFFFEFFFFFFF2D
:1031D00010B5044600680169890744BFC1685FEA09
:1031E000817160D420680169490744BFC1685FEA02
:1031F000417164D420680169090744BFC1685FEA6E
:10320000017169D420680169C90644BFC1685FEAD9
:10321000C1616DD420680169C9071CBFC1685FEA3C
:10322000C17172D120680169090644BFC1685FEAB3
:10323000016171D420680169C90544BFC1685FEAB2
:10324000016170D420680169490644BFC1685FEA22
:1032500041616FD420680169890644BFC1685FEA93
:1032600081616ED420680169C90244BFC1685FEA08
:10327000C1216DD420680169890244BFC1685FEA39
:1032800081216CD420680169490244BFC1685FEAAA
:1032900041216BD420680169090244BFC1685FEA1B
:1032A00001216AD410BD6FF0020101610121217773
:1032B0008069800768D02046FFF77CFD6AE06FF0E8
:1032C0000401016102212177806910F4407F64D0FC
:1032D0002046FFF76FFD66E06FF0080101610421F1
:1032E0002177C069800761D02046FFF763FD63E066
:1032F0006FF01001016108212177C06910F4407F4F
:103300005DD02046FFF756FD5FE06FF001010161DF
:10331000204600F0CFF985E76FF08001016120467B
:10332000FFF76CFB86E76FF4807101612046FFF7C1
:1033300063FB87E76FF040010161204600F000FB6E
:1033400088E76FF0200101612046FFF759FB89E70C
:103350006FF4801101612046FFF756FB8AE76FF496
:10336000001101612046FFF74DFB8BE76FF48001F0
:1033700001612046FFF74AFB8CE76FF40001016111
:103380002046FFF799FB10BD204600F04BF8204681
:1033900000F0DCF80020207724E7204600F042F817
:1033A000204600F0D3F80020207723E7204600F0E5
:1033B00039F8204600F0CAF80020207722E720469E
:1033C00000F030F8204600F0C1F80020207721E717
:1033D00080B586B000680021B0F1804F0591CDE93D
:1033E00003110291019101D006B080BD41F24C0061
:1033F000C4F20200026842F001020260006800F0BC
:103400000100009000980220CDE901000120CDE9E3
:103410000311059001A94FF09040FEF70FFC06B094
:1034200080BD000070470000B0B5044690F83C0035
:10343000012804BF0220B0BD0D464FEAB2010120B1
:10344000052984F83C0048D8DFE801F0030B131B82
:1034500023332068294601F009FD206850F8181F21
:103460001EE02068294601F041FD206850F8181F31
:1034700026E02068294601F081FD206850F81C1FD5
:103480000EE02068294601F0C1FD206850F81C1F9D
:1034900016E02068294601F001FE206850F8501F10
:1034A00041F008010160016821F00401016029690F
:1034B0000FE02068294601F021FE206850F8501FD7
:1034C00041F400610160016821F4806101602969B3
:1034D00009020268114301600020002184F83C10B9
:1034E000B0BD0000002804BF0120704710B504469D
:1034F00090F83D0028B9002084F83C00204600F0F8
:1035000023F8022084F83D002068211D01F004FC0E
:10351000012084F8480084F83E0084F83F0084F8D5
:10352000400084F8410084F8420084F8430084F8A5
:10353000440084F8450084F8460084F8470084F885
:103540003D00002010BD00007047000070470000E3
:10355000B0B5044659B1081F4FEAB000032809D896
:10356000DFE800F0020B0E1104F13F000DE004F162
:103570003E000AE004F1430007E004F1400004E0EB
:1035800004F1410001E004F14200007801281CBF71
:103590000120B0BD61B1081F4FEAB00003280BD86D
:1035A000DFE800F0020E1216022084F83F0012E05D
:1035B000022084F83E000EE0022084F843000AE076
:1035C000022084F8400006E0022084F8410002E076
:1035D000022084F8420020680122012501F01CFC31
:1035E0002168A1F18040A0F596304FEAB02242F662
:1035F000FF30062AC4F201003FD805FA02F212F0A9
:10360000650F3AD04A6C814242F400424A640FDCB2
:10361000B1F1804F1ED040F20040C4F20000814260
:1036200018D040F60000C4F20000814212D03BE006
:1036300042F60040C4F2010081420BD044F2000087
:10364000C4F20100814205D043F20040C4F20100FF
:10365000814229D188680722C0F201020240062A6D
:103660004FF0000025D0B2F5803F08BFB0BD08681C
:1036700040F0010008600020B0BD8142C8DD43F683
:10368000FF72C4F20102914202DC42F60040D7E729
:1036900044F20002C4F201029142DBD044F600027F
:1036A000C4F201029142ADD0086840F00100086008
:1036B0000020B0BD70B540F2B821C2F200018842CE
:1036C00000D070BD40F2D00640F2D100C2F2000638
:1036D000C2F200003278017840F2D2050132C2F223
:1036E0000005013132702A780170C9B201320A290D
:1036F0002A7003D10021017002F0B2FA307840F252
:1037000008046428C2F200040AD140F2DA01C2F2CD
:10371000000100200A88307001202072501C0880AF
:103720002878962803D10020287002F065F9E07C03
:1037300060B340F2D600C2F20000018841F2883343
:1037400001318AB29A42018012D1A17C0022012962
:103750000280E27403D0022903D1012100E002219A
:10376000A17440F22001C2F200014A8901324A816B
:10377000008845F62941CCF28F21484345F628417F
:103780004FEAB000C0F28F2188422ED940F23010AB
:10379000C2F200000178002993D0E17C002990D189
:1037A000A17C022966D001297FF48BAF40F2200171
:1037B000C2F2000191ED010A91ED041AB4EE401A33
:1037C000F1EE10FA75DA40F2D402C2F20002138868
:1037D00001339EB2B6F5FA6F1380FFF472AF002387
:1037E000138081ED040A037070BD40F20400C2F240
:1037F0000000018881F002010180C8B202F050FC93
:10380000A07C02285DD00128C0D140F22000C2F285
:10381000000001889FED481A50318AB2B2F5FA5F74
:1038200028BF4FF4FA518AB200EE102AB8EE400ACF
:1038300081EE000ABFEE001A01802C21C4F20001C3
:1038400030EE010ABCEEC00A81ED000A80789FEDDF
:103850003B1A00EE100AB8EE400A80EE010A91ED24
:10386000001AB8EE411A20EE010ABCEEC00A81ED42
:10387000030A8BE740F22001C2F2000191ED010A38
:1038800091ED031AB4EE401AF1EE10FA11DA40F29B
:10389000D402C2F20002138801339EB2B6F5FA6F69
:1038A000138038BF70BD0023138081ED030A0370BD
:1038B00070BD40F2D401C2F2000100220A80027001
:1038C00070BD40F22001C2F200010A882C20503A5B
:1038D0004FF0FF36C4F200000A8093B216FA82F26B
:1038E000B3F57A6F02609CBF4FF47A620A800A884F
:1038F0009FED111A00EE102AB8EE400A81EE000A80
:10390000BFEE001A30EE010ABCEEC00A80ED000ADC
:1039100089789FED0A1A00EE101AB8EE400A80EE80
:10392000010A90ED001AB8EE411A20EE010ABCEE31
:10393000C00A80ED030A29E7002474490000C84248
:103940007047000090F88010012904BF02207047E2
:103950002421C0F8841002681168136823F0010361
:10396000136021F000530021416613602022C0F84B
:10397000842080F8801008467047000070470000DF
:1039800070470000B0B5044690F88000012804BFDD
:103990000220B0BD012084F880002420C4F88400F7
:1039A00020680568026822F001020260826822F045
:1039B000606211438160204601F08EFC2068056042
:1039C0002020C4F88400002084F88000B0BD0000EE
:1039D000B0B5044690F88000012804BF0220B0BDB5
:1039E000012084F880002420C4F884002068056841
:1039F000026822F001020260826822F060421143F4
:103A00008160204601F068FC206805602020C4F831
:103A10008400002084F88000B0BD000070470000E2
:103A2000704700007047000070B503680446D9690C
:103A300040F62F001E68D3F808E0084020280CD17B
:103A400006F020000EF08052801806D0216F002969
:103A500000F0AC802046884770BD40F60F0008405B
:103A600000F08C800120C1F200000EEA000C40F250
:103A70002010C0F20040304010EB0C007ED0C80790
:103A800018BF16F4807007D001201862D4F88C009B
:103A900040F00100C4F88C0088070EF0010208D540
:103AA0003AB102201862D4F88C0040F00400C4F847
:103AB0008C00480708D53AB104201862D4F88C006D
:103AC00040F00200C4F88C0008070CD506F0200076
:103AD00050EA0C0007D008201862D4F88C0040F09F
:103AE0000800C4F88C0008050BD516F0806008D0DB
:103AF0004FF400601862D4F88C0040F02000C4F845
:103B00008C00D4F88C00002850D011F020001EBF8B
:103B100006F020000EF0805110EB010040F0EA802A
:103B20002068D4F88C10806801F0280100F0400073
:103B3000401800F0D880204601F0AEFC2068806874
:103B4000400640F1C18000BF206850E8020F2168A4
:103B500020F0400041E80202002AF5D1E06F002881
:103B600000F0B28045F28541C0F600018163FDF7A7
:103B70000BFFD8B1E06F816B884770BDE06E06EA3D
:103B80000102D5063DD501283BD110201862986866
:103B9000400642D4B4F85C00B4F85E10B4F85E207D
:103BA000002A1CBF401A5FEA004101D170BD00BF6E
:103BB000216851E8001F226821F4907142E8001347
:103BC000002BF5D14FF6FE71CEF6FF71226852E858
:103BD000022F23680A4043E80226002EF6D1202156
:103BE000C4F888100021E166216700BF216851E810
:103BF000001F226821F0100142E80013002BF5D1CC
:103C000050E0C80253D51EF4800050D04FF480100D
:103C100018622046FFF704FF70BDE06F006841683E
:103C20008AB2002AC2D0B4F85C309A42BED2A4F85C
:103C30005E100068800630D4206850E8000F2168CC
:103C400020F4807041E80002002AF5D1206850E895
:103C5000020F216820F0010041E80202002AF5D19C
:103C6000206850E8020F216820F0400041E802027D
:103C7000002AF5D12020C4F888000020E06600BFAB
:103C8000206850E8000F216820F0100041E8000291
:103C9000002AF5D1E06FFDF73FFEB4F85C00B4F800
:103CA0005E10401A81B22046FFF768FE70BD08061C
:103CB0000ED506F080000EF40003C01808D0616F26
:103CC00000297FF4C7AE71E72046FFF7ABFE70BD59
:103CD000500616D4080218D516F0804015D020469C
:103CE000FFF79CFE70BD2046FFF79CFE0020C4F845
:103CF0008C0070BD216F00293FF412AF2046884729
:103D00000EE7204601F0F6FB70BDC8017FF54EAF0F
:103D1000B6F1FF3FC8BF70BD2046FFF731FE70BD52
:103D200010B5B0B10446D0F8840028B9002084F85A
:103D30008000204600F026F82420C4F88400206883
:103D4000016821F001010160204601F0E7FB012834
:103D500001D1012010BDA06A10B1204601F0E6FAA1
:103D60002068416821F490414160816821F02A0176
:103D70008160016841F001010160204601F04AFBC9
:103D800010BD0000B0B598B00446002502A844213B
:103D90001795CDE91555CDE91355FCF7F2FB2068D1
:103DA00043F60001C4F20101884201D018B0B0BD51
:103DB0000120CDE9020502A8FEF722F9002818BF6C
:103DC000FDF7A4F941F24C00C4F20200416941F44C
:103DD00080414161416901F480410191019901688B
:103DE00041F001010160006813A900F00100019099
:103DF00001984FF4C0601390022014900020CDE988
:103E00001500072017904FF09040FDF717FF252071
:103E100000210022FEF75EF82520FEF757F818B0C3
:103E2000B0BD000070470000FEE7000080B586B01E
:103E300000200590CDE902004FF6FF7001900320AD
:103E4000049040F60000C4F6000001A9FDF7F6FE5C
:103E500006B080BD80B586B00020059003904FF677
:103E6000FF700190012002900320049040F60000B2
:103E7000C4F6000001A9FDF7E1FE06B080BD000018
:103E8000B0B504460020002100F01AF900F05EF9F8
:103E90004FF49635204600F02BF9013DFAD1B0BD24
:103EA000F0B587B0002541F24C000695CDE90455E8
:103EB000CDE90255C4F202000168182741F004015F
:103EC00001600168C4F6000701F004010191019945
:103ED000016802AC41F0010101600168012601F0B6
:103EE000010101910199016841F00201016000683E
:103EF000214600F00200019001984FF448700290B2
:103F000007F57A700595CDE90365FDF797FE4FF447
:103F10008070CDE902064FF090402146CDE904556E
:103F2000FDF78CFEFFF796FF386840F4807038602C
:103F3000D7F8000440F40870C7F8000407B0F0BDDB
:103F400080B5203AD3B25B0053FA82F247F2CC73C9
:103F5000C0F6000303EB021200F01AF880BD000067
:103F6000F0B581B00A788AB104464D1C002740F2B2
:103F70003F1600BFB1B2D2B22046FFF7E1FF122FC9
:103F800004D8EA5D103E0137002AF3D101B0F0BD3C
:103F90002DE9F04714468846814600F091F840F23A
:103FA000000A40F250160027C2F2000AC2F20006D0
:103FB00000F0CCF8002500BF34F81700E840C00737
:103FC000304608BF5046008800F092F80135102DA9
:103FD000F2D109F101095FFA89F0414600F070F869
:103FE0000137182F08BFBDE8F087E1E710B5FFF7EC
:103FF00057FF002000F014F840F25214C2F20004FF
:104000002080208848F23021884202D100F08CFCC8
:1040100001E000F015FD002000F002F8208010BD46
:10402000B0B540F21844C4F60004216941F40071AF
:104030002161216941F480712161216841F02001F1
:10404000216040F61401C4F600010860206940F0C8
:104050002000206100BF00BF00BF206840F02000AA
:104060002060206840F480702060FFF7DFFE4FF68C
:104070001040CFF6FF70215841F48071215000BFED
:1040800000BF4FF6004000BFCFF6FF70D4F8F853E2
:10409000215841F480712150FFF7DCFE206840F484
:1040A0000071A8B22160B0BD81B0ADF80200BDF8CA
:1040B000020040F20001C2F20001088001B0704726
:1040C00010B50C460146202000F070F82120214652
:1040D00000F06CF810BD000081B0ADF80200BDF832
:1040E000020040F25011C2F20001088001B0704796
:1040F00040F21841C4F60001D1F8FC230B6943F4E7
:1041000000730B610B6843F480730B600B6843F022
:1041100020030B60C1F8FC03086940F0200008612F
:1041200000BF00BF00BF086840F0200008600868BA
:1041300040F48070086000BF00BF00BF086840F412
:104140000070086090B2C1F8FC03704740F218405C
:10415000C4F60000D0F8FC13026989B242F4007280
:104160000261026942F480720261026842F0200238
:1041700002602222C0F8FC23026942F020020261A0
:1041800000BF00BF00BF026842F020020260026868
:1041900042F48072026000BF00BF00BF026842F4B8
:1041A00000720260C0F8FC137047000040F2184231
:1041B000C4F60002D2F8FCC3136943F40073136120
:1041C000136943F480731361136843F02003136091
:1041D000C2F8FC03106940F02000106100BF00BF6E
:1041E00000BF106840F020001060106840F480703C
:1041F0001060C2F8FC13106940F02000106100BF8D
:1042000000BF00BF106840F020001060106840F44C
:10421000807010601FFA8CF0C2F8FC037047000039
:1042200081684FF6C072C7F6FF721140023181609B
:104230007047000081684FF6C072C5F6FF721140EA
:104240008160704781684FF6C072C7F6FF721140F7
:10425000013181607047000081684FF6C072C6F678
:10426000FF72114001F180518160704740F20830C7
:10427000C5F20000006800F0E070704740F20830BE
:10428000C5F20000006800F01F00704700EB8100DD
:10429000006E00F0F84070478068C0F3C0007047BF
:1042A00081684FF6C072C7F6FF72114020318160FD
:1042B000704700008068C00F704700008068C0F33E
:1042C000407070478068C0F340007047806800F01D
:1042D000010070478068C0F3007070478068C0F3C9
:1042E00080007047C06800F44060B0FA80F0400978
:1042F00070470000C1F3012300EB8300D0F830C009
:1043000001F01F011F238B40C2F384622CEA0303D8
:1043100002FA01F1194301637047000081684FF60A
:10432000C072C7F6FF72114004318160704700000F
:1043300081684FF6C072C7F6FF721140103181607C
:1043400070470000C1F3406300EB8300D0F814C055
:10435000C1F3045107238B402CEA030302FA01F155
:1043600019434161704700000023C4F27F036FF3DB
:10437000DF419A42D0F8B02014BF22EA0101114374
:10438000C0F8B0107047000040F20831C5F20001DB
:104390000A6822F47C1210430860704740F208312A
:1043A000C5F200010A6822F0E0721043086070470D
:1043B00000EB8100D0F860C04FF20001C0F2FF3185
:1043C00002F0F84201EA0C011A43114341F00041A6
:1043D0000166704700EB8100016E21F0007111430E
:1043E0000166704700EB8100016E21F0807111437E
:1043F0000166704700EB8100016E21F0004101660B
:1044000070470000426922F0004211434161704749
:1044100082684FF6C073C3F6FF731A4001F0804103
:10442000114401F10041816070470000B0B588B0CF
:1044300040F2541040F20011C2F20000C5F2000137
:1044400000244FF4003280E816004FF480710425F8
:1044500081830121CDE90644CDE90444CDE902443C
:10446000CDE90044C0E90344C0E90545016280F894
:104470002440C0E90B4480F83810C46380F8404001
:10448000FDF73CF8002818BFFCF740FE48F200009A
:10449000C3F6F06000900620CDE901007F20CDE951
:1044A000030540F25410C2F2000069460594FCF77F
:1044B00075FE002818BFFCF729FE08B0B0BD00004B
:1044C00080B582B041F24800C4F2020001680022C7
:1044D00041F004010160016801F0040101910199BA
:1044E000016841F0010101600068002100F0010055
:1044F000009000980B20FDF7EDFC0B20FDF7E6FC8B
:1045000002B080BD2DE9F04786B0002741F24C0093
:104510000597CDE90377CDE90177C4F20200016880
:1045200040F6000541F0040101600168C4F6000591
:1045300001F00401009100990168012241F020017D
:10454000016001684FF47F4401F02001009100995F
:1045500001684FF0010A41F040010160016801F07B
:10456000400100910099016841F00101016001687A
:1045700001F0010100910099016841F00201016020
:10458000016801F0020100910099016841F0080101
:10459000016000684FF47F4100F00800009000982F
:1045A0002846FDF721FC05F58068404604210022DD
:1045B0004FF00409FDF718FC01AE28463146CDE95D
:1045C000014ACDE90377FDF739FB4FF48060019094
:1045D000032405F580503146CDE90247FDF72EFB57
:1045E000FF2001A991C128463146FDF727FB4FF076
:1045F00090403146CDE901A7CDF80CA0FDF71EFB98
:1046000049F67C1001A991C14FF090403146FDF769
:1046100015FB072001A9A5F5806581E881042846DE
:104620003146FDF70BFB47F6F87001A991C128460A
:104630003146FDF703FB40463146CDE9019ACDE90D
:104640000377FDF7FBFA06B0BDE8F08710B58EB032
:1046500040F220200021C2F20000F924CDE90C1123
:10466000CDE90A11CDE90811CDE90611CDE9041112
:10467000CDE90211CDE900114FF080424F23C0E98E
:10468000021401618021C0E900238161FEF716FA5E
:10469000002818BFFCF73AFD4FF480500A9040F212
:1046A0002020C2F200000AA9FEF7FAFA002818BF7B
:1046B000FCF72CFD40F22020C2F20000FEF712FFB2
:1046C000002818BFFCF722FD40F220200024C2F28F
:1046D000000007A907940994FEF79AF9002818BF6B
:1046E000FCF714FD6020CDE9000440F22020C2F266
:1046F00000006946042202940494FEF795FE002807
:1047000018BFFCF703FD40F22020C2F20000FEF7C4
:104710005FFE0EB010BD000010B58CB040F26C20F2
:1047200040F200420021C2F20000C4F200024F2316
:104730004FF6FF740B91CDE90911CDE90711CDE9D1
:104740000511CDE90311CDE90111C0E90023C0E94C
:10475000021401618161FEF7B1F9002818BFFCF76E
:10476000D5FC4FF48050089040F26C20C2F200005B
:1047700008A9FEF795FA002818BFFCF7C7FC40F21D
:104780006C20C2F20000FEF7C3FB002818BFFCF744
:10479000BDFC40F26C200024C2F2000005A9059483
:1047A0000794FEF735F9002818BFFCF7AFFC01208D
:1047B000CDE9020440F26C20C2F2000001A90422FB
:1047C00001940494FEF758FB002818BFFCF79EFCE8
:1047D0000CB010BD10B584B040F2B82041F2000119
:1047E0000024C2F20000C4F2000140F2E733039457
:1047F000CDE901444F2280E81600C3608461FEF7D2
:104800005DF9002818BFFCF781FC40F2B820C2F225
:10481000000001A901940394FEF7FAF8002818BFDC
:10482000FCF774FC04B010BD80B540F2043043F6D0
:104830000001C2F20000C4F2010100234FF00C0C91
:104840004FF4165280E80E00C0E90333C0E905C3F7
:10485000C0E90733C0E90933FFF762FA002818BF3F
:10486000FCF754FC40F20430C2F200000021FFF7D4
:10487000AFF8002818BFFCF749FC40F20430C2F240
:1048800000000021FFF77EF8002818BFFCF73EFC6F
:1048900040F20430C2F20000FFF754F8002818BFBD
:1048A000FCF734FC80BD0000FEE70000FEE70000DE
:1048B00000F0070080F00703042B28BF04234FF00B
:1048C000FF3C03380CFA03F338BF002099438140C2
:1048D0000CFA00F022EA000008437047704700001D
:1048E00041F20C00C4F202000168026842F2004387
:1048F00001F00301C2F30312C0F2F40301320329F1
:1049000004BF43F20063C0F26E130168B3FBF2F21E
:104910000068C1F306215143C0F34160022202EB5B
:104920004000B1FBF0F0704780B500200121FFF797
:104930003DFC01200021FFF739FC102041F290716D
:10494000FFF734FC60204FF41C51FFF72FFC61206F
:104950000121FFF72BFC46200221FFF727FC132043
:1049600048F21001FFF722FC122048F2FE01FFF787
:104970001DFC02204FF4A061FFF718FC032041F258
:104980003001FFF713FC302040F20331FFF70EFC3B
:10499000312040F20331FFF709FC322040F20331AD
:1049A000FFF704FC33204FF44071FFF7FFFB342086
:1049B0000321FFF7FBFB352040F20331FFF7F6FB45
:1049C00036201421FFF7F2FB372040F20331FFF7C6
:1049D000EDFB382040F20331FFF7E8FB392040F2CD
:1049E0000331FFF7E3FB3A204FF44071FFF7DEFBA2
:1049F0003B200321FFF7DAFB3C2040F20331FFF7B5
:104A0000D5FB3D204FF4A051FFF7D0FB92204FF48F
:104A10000071FFF7CBFB932040F20331FFF7C6FB99
:104A2000902040F60D01FFF7C1FB032041F2180171
:104A3000FFF7BCFB072040F27311FFF7B7FB80BD07
:104A400080B5E32043F20801FFF7B0FBE720122115
:104A5000FFF7ACFBEF2041F23121FFF7A7FB01206C
:104A60000021FFF7A3FB02204FF4E061FFF79EFB5C
:104A7000032041F23001FFF799FB04200021FFF7EA
:104A800095FB082040F20721FFF790FB0920002149
:104A9000FFF78CFB0A200021FFF788FB0C20002188
:104AA000FFF784FB0D200021FFF780FB0F20002182
:104AB000FFF77CFB10200021FFF778FB1120072176
:104AC000FFF774FB12200021FFF770FB1320002179
:104AD000FFF76CFBC820FDF79DF8102041F29061B4
:104AE000FFF764FB112040F22721FFF75FFB322024
:104AF000FDF790F812201D21FFF758FB3220FDF73B
:104B000089F813204FF40061FFF750FB292014218E
:104B1000FFF74CFB2B200B21FFF748FB3220FDF762
:104B200079F820200021FFF741FB21200021FFF729
:104B30003DFB30200721FFF739FB312040F20771A0
:104B4000FFF734FB32200621FFF730FB352040F21F
:104B50000471FFF72BFB362041F60471FFF726FBAB
:104B600037200421FFF722FB38200021FFF71EFB2E
:104B7000392040F20671FFF719FB3C2040F2017129
:104B8000FFF714FB3D200F21FFF710FB5020002101
:104B9000FFF70CFB5120EF21FFF708FB522000210B
:104BA000FFF704FB532040F23F11FFF7FFFA6020AC
:104BB0004FF41C51FFF7FAFA61200121FFF7F6FAD2
:104BC0006A200021FFF7F2FA80200021FFF7EEFAB9
:104BD00081200021FFF7EAFA82200021FFF7E6FAA0
:104BE00083200021FFF7E2FA84200021FFF7DEFA9C
:104BF00085200021FFF7DAFA90201021FFF7D6FA7E
:104C000092200021FFF7D2FA93200321FFF7CEFA7A
:104C100095204FF48871FFF7C9FA97200021FFF71C
:104C2000C5FA98200021FFF7C1FA032041F21801CC
:104C3000FFF7BCFA072040F27311FFF7B7FA80BD07
:104C400070470000B0B501380024B4EB106F1CBFF2
:104C50000120B0BD4EF21005CEF2000568604FF0A5
:104C6000FF300F2100F054FE0720AC602860204682
:104C7000B0BD000080B5FDF7C3F880BD70B594B03D
:104C800006AC20463821FBF77CFC00254FF4007071
:104C90000595CDE90355CDE90155FDF72FF9012023
:104CA00006904FF480300790022014210D900326C7
:104CB000CDE91010CDE912002046CDE90E66FDF7D2
:104CC00059FC68B90F20CDE9010601A80221CDE900
:104CD00003550595FDF7DEFA002804BF14B070BD3A
:104CE000FCF714FA4EF68850CEF20000016841F449
:104CF000700101607047000080B540F26C20C2F284
:104D00000000FEF765FA80BD80B540F2B820C2F21F
:104D10000000FEF75DFA80BD80B540F2FF7C0268BE
:104D2000C4F2000C604512DD40F60003C4F200033B
:104D3000984215D043F20043C4F2010398420FD0C9
:104D400042F60043C4F20103984209D00CE0B0F1EE
:104D5000804F05D040F20043C4F20003984203D1D3
:104D60004B6822F070021A4343F2FF33C4F201038E
:104D7000984209DC604516DCB0F1804F28D040F243
:104D80000043C4F2000321E044F2FF33C4F2010304
:104D9000984211DC43F20043C4F20103984217D059
:104DA00044F2000310E040F60003C4F2000398420E
:104DB0000ED042F6004307E044F60003C4F20103BC
:104DC000984205D044F20043C4F20103984203D153
:104DD000CB6822F440721A434B6922F0800E8A6835
:104DE00043EA0E03D1F800C00360C262A0F1804222
:104DF000A2F596324FEAB222072AC0F828C007D897
:104E0000012303FA02F212F0E50F1CBF09690163E6
:104E10000121416180BD000080B501F01F014FF00C
:104E2000010CD0F820E00CFA01F32EEA0303036230
:104E3000036A02FA01F11943016280BDD0F808C08B
:104E400011432CF47F4C41EA032141EA0C018160BB
:104E50007047000082684FF68873CFF6CF731A4010
:104E6000114341F00701816070470000B0B5026A4C
:104E7000A0F1804422F001020262036A4268D0F885
:104E800018C08D68A4F59634D1F800E023F0020331
:104E90004FEAB424072C43EA05030AD80125A540AC
:104EA00015F0E50F1FBFCD6823F00C0325F00405B6
:104EB0002B43072C0BD8012505FA04F414F0E50F59
:104EC0001FBF22F44072D1E9054522432A434FF621
:104ED0008C74CFF6FE740CEA040545EA0E054260B8
:104EE0008561496841630362B0BD0000B0B5026AE4
:104EF00043F2004422F010020262036AC4F2010489
:104F00004268D0F818C0A0428C68D1F800E023F0C5
:104F1000200343EA041305D042F60044C4F201041E
:104F2000A04207D1CC686FF0400523F0C00305EA2A
:104F300004142343A0F18044A4F596344FEAB4242A
:104F4000072C0DD8012505FA04F414F0E50F1FBF56
:104F500022F44062D1E9054542EA840242EA850230
:104F600048F6FF44CFF6FF640CEA040545EA0E2537
:104F700042608561496881630362B0BDB0B5026A71
:104F800043F2004422F480720262036AC4F2010414
:104F90004268D0F81CC0A0428C68D1F800E023F42D
:104FA000007343EA042305D042F60044C4F201042E
:104FB000A04207D1CC6840F2FF45240223F44063AD
:104FC000AC432343A0F18044A4F596344FEAB424C3
:104FD000072C0DD8012505FA04F414F0E50F1FBFC6
:104FE00022F44052D1E9054542EA041242EA051290
:104FF0004FF68C74CFF6FE740CEA040545EA0E05F4
:105000004260C5614968C1630362B0BDB0B5026A60
:1050100043F2004422F480520262036AC4F20104A3
:105020004268D0F81CC0A0428C68D1F800E023F49C
:10503000005343EA043305D042F60044C4F20104AD
:10504000A04207D1CC6844F6FF75240323F4404303
:10505000AC432343A0F18044A4F596344FEAB42432
:10506000072C0DD8012505FA04F414F0E50F1FBF35
:1050700022F44042D1E9054542EA841242EA85120F
:1050800048F6FF44CFF6FF640CEA040545EA0E2516
:105090004260C561496801640362B0BD70B5026ACF
:1050A000A0F1804522F480320262A5F59635D0F851
:1050B00020C04268036D0C68D1F808E04FEAB525BE
:1050C000072D0AD8012606FA05F515F0E50F1EBFD3
:1050D0004D6922F4803242EA05224FF68F75CFF6F1
:1050E000FE752B402343426003652CF4003649686B
:1050F00046EA0E428164026270BD000070B5026A29
:10510000A0F1804522F480120262A5F59635D0F810
:1051100020C04268036D0C68D1F808E04FEAB5255D
:10512000072D0AD8012606FA05F515F0E50F1EBF72
:105130004D6922F4802242EA852248F6FF75CFF6B7
:10514000FF652B4043EA0423426003652CF40016FC
:10515000496846EA0E52C164026270BDD0F820C0B0
:10516000036A23F001030362836923F0F00343EA37
:1051700002122CF00A031943826101627047000099
:1051800010B5D0F820C042F6FF342CF0010CC0F866
:1051900020C0D0F818E0D0F820C0C4F20104A0422A
:1051A0000FDCB0F1804F1ED040F20044C4F2000486
:1051B000A04218D040F60004C4F20004A04212D06D
:1051C0001EE042F60044C4F20104A0420BD044F2B7
:1051D0000004C4F20104A04205D043F20044C4F22A
:1051E0000104A0420CD12EF00304224363F3071202
:1051F0002CF00A0301F00A0119448261016210BD1A
:105200004EF00102F2E70000036A23F0100303628C
:105210008369D0F820C023F4704343EA02322CF0B3
:10522000A00343EA011182610162704710B5D0F812
:1052300020C012022CF0100CC0F820C0D0F818C00A
:10524000D0F820E04FF2FF04A2432CF4734C63F338
:105250000F322EF0A00301F00A0142EA0C0243EAE9
:1052600001118261016210BD80B5D0F820C063F3E6
:1052700007122CF4807CC0F820C0D0F81CC0D0F8F5
:1052800020E02CF0F30C2EF4206301F00A0142EA36
:105290000C0243EA0121C261016280BD10B5D0F861
:1052A00020C012022CF4805CC0F820C0D0F81CC0D2
:1052B000D0F820E04FF2FF04A2432CF4734C63F3C8
:1052C0000F322EF4204301F00A0142EA0C0243EAB5
:1052D0000131C261016210BD80B5416E01B3016848
:1052E00048F6B41C8A688968C0F6000C490F48F675
:1052F000BC1E1CF80130C0F6000E1EF80110C2F3EF
:105300004262DB00B3FBF1F31CF802101EF802202E
:10531000C900B1FBF2F1A0F86A30A0F8681080BDB6
:105320000121A0F86A10A0F8681080BD80B5816ADC
:10533000CA070CD18A0715D44A071ED40A0727D4F6
:10534000CA0630D48A0639D44A0657D541E00268E5
:10535000D0F82CC0536823F4003343EA0C035360A5
:105360008A07E9D50268D0F830C0536823F4803347
:1053700043EA0C0353604A07E0D50268D0F834C012
:10538000536823F4802343EA0C0353600A07D7D5FC
:105390000268D0F838C0536823F4004343EA0C0392
:1053A0005360CA06CED50268D0F83CC0936823F497
:1053B000805343EA0C0393608A06C5D50268D0F88F
:1053C00040C0936823F4005343EA0C0393604A06F9
:1053D00014D50268D0F844C05368BCF5801F23F48C
:1053E000801343EA0C03536008D1D2F804C0D0F80C
:1053F00048E02CF4C00343EA0E035360090658BF8B
:1054000080BD0168C06C4A6822F4002210434860E5
:1054100080BD0000B0B582B004460020C4F88C0006
:10542000FCF7E8FC21680546096809070BD56FF011
:105430007E4C20464FF4001100222B46CDF800C0D0
:1054400000F0CEF978B92068006840070ED56FF0FB
:105450007E4C20464FF4800100222B46CDF800C040
:1054600000F0BEF910B1032002B0B0BD2020C4F896
:105470008400C4F888000020E06684F8800002B050
:10548000B0BD000080B5806A0021A0F85E10A0F8D1
:105490005610FEF7C7FA80BD016851E8001F026888
:1054A00021F4907142E80013002BF5D14FF6FE7CF9
:1054B000CEF6FF7C026852E8022F036802EA0C0273
:1054C00043E802210029F5D1C16E01290AD100BFAC
:1054D000016851E8001F026821F0100142E8001342
:1054E000002BF5D12021C0F888100021C16601678A
:1054F0007047000080B500BF016851E8001F0268D6
:1055000021F0400142E80013002BF5D12021C0F822
:10551000841000214167FEF785FC80BDF0B581B0A5
:1055200004462269D4E90213006867690A43E16905
:105530003A43076846F6F316CCF6FF760A4337403F
:105540003A43026042684FF2FF4622F440521A4347
:10555000426048F20002A369C4F2000290421CBFFC
:10556000276A3B438768C1F2FF1637403B4383609D
:10557000C36A676A23F00F033B43C36244F6FF33F9
:10558000C4F2000398424FF0100314DD44F60047C4
:10559000C4F20007B84221D0904226D043F600075B
:1055A000C4F20107B84232D141F28803C4F20203C7
:1055B0001B6887A727E044F20047C4F20007B842FF
:1055C0001AD044F60007C4F20007B8421FD141F2D6
:1055D0008803C4F202031B681B0913E041F288032D
:1055E000C4F202031B689B090CE041F28803C4F279
:1055F00002031B689B0A05E041F28803C4F2020320
:105600001B689B086EA703F0030357F823309042F2
:1056100042F20040C0F2F40011D0B1F5004F1DD1AC
:10562000082B00F26F800025DFE803F00568766C38
:105630006F6C6C6C73000025FCF736FF6CE0082B78
:105640001BD80027DFE803F0051920191D191919C7
:1056500051000027FCF728FFB8B94BE0082B00F2F7
:1056600081800025DFE803F0057A887E817E7E7EDA
:1056700085000025FCF718FF7EE00020012720B9F7
:1056800038E00027FCF738FFA0B3616A48F69C12A7
:10569000C0F6000232F811206668B0FBF2F106EBAA
:1056A000460399424FF00105C0F0808033039942D0
:1056B0007CD800210023FAF70FFE090241EA1061AD
:1056C000000210EB560041F1000132460023FAF7C8
:1056D00003FE4FF6FF42A0F54071C0F20F02914267
:1056E0000AD821683D46C86060E04FF400400027BA
:1056F0000028CAD13D4659E0012557E00025FCF7B6
:10570000E7FE09E00020012506E00025FCF7F4FE95
:1057100002E04FF400400025002847D0616A48F6B7
:105720009C12C0F6000232F811106268B0FBF1F072
:10573000510801EB4000B0FBF2F04FF6EF72A0F120
:105740001001914208D84FF6F0710140C0F34200B9
:1057500022680844D06029E0012527E00025FCF7F5
:10576000B7FE09E00020012506E00025FCF7C4FE95
:1057700002E04FF400400025C0B1616A48F69C1277
:10578000C0F6000232F811106268B0FBF1F000EBD5
:105790005200B0FBF2F04FF6EF72A0F1100191420F
:1057A00003D8216880B2C86000E001254FF00110E5
:1057B0000021A06621672846616701B0F0BD00BFE7
:1057C00000000000040000000200000008000000CB
:1057D00001000000040000000200000008000000BA
:1057E0002DE9F04381B004460068C0690840401AC2
:1057F000B0FA80F04009904264D1DDF8208015466F
:105800000E46994608F1010709E000BF2068C0690B
:105810003040801BB0FA80F04009A84252D1002FDE
:10582000F4D0FCF7E7FAB8F1000F2BD0A0EB090099
:10583000404527D820680168490744BFC1695FEA2D
:105840000151E3D54FF40061016200BF206850E8C8
:10585000000F216820F4D07041E80002002AF5D141
:10586000206850E8020F216820F0010041E80202A0
:10587000002AF5D12020C4F88400C4F88800C4F8B8
:105880008C0018E0206850E8000F216820F4D070E8
:1058900041E80002002AF5D1206850E8020F216893
:1058A00020F0010041E80202002AF5D12020C4F8CE
:1058B0008400C4F88800002084F88000032001B030
:1058C000BDE8F083002001B0BDE8F08380B540F270
:1058D0000430C2F20000FEF7A7F880BDFEE700002A
:1058E000002848BF704700F01F01012202FA01F1B1
:1058F0004EF200124009CEF2000242F8201070472A
:105900004EF60C50CEF200000068C0F30220704743
:105910004EF6145300F00F02CEF2000309011A44B0
:1059200000F16043B0F1FF3FC8BF03F5644211705E
:10593000704700004EF60C51CEF200010A684FF697
:10594000FF031A4060F30A2242F0806040F0FD70CD
:1059500008607047FCF762FAFFF790F9FEF7D2FD96
:10596000FEF7AEFDFEF762FDFEF770FEFEF7D4FE19
:10597000FEF730FFFEF758FF00F036F900F0E2F9CD
:1059800000F0C2FBFAE70000B0B540F20044C4F6F4
:10599000000420460121FCF721FA78B120460221BB
:1059A000FCF71CFA50B120460421FCF717FA28B185
:1059B0004FF090400121FCF711FAB0B920460121C7
:1059C0000125FCF70BFA88B1204602210225FCF7DD
:1059D00005FA58B120460421FCF700FA40B14FF017
:1059E00090400121FCF7FAF920B100252846B0BD0E
:1059F0000320B0BD0420B0BDF0B581B040F254101A
:105A0000C2F20000FBF74EFF40F2A8004FF0000C7E
:105A1000C2F20000CCF1090200260027002300BFDB
:105A2000741C50F8265050F8241001378D4282BF64
:105A300040F8261040F824500133FEB2B242EFD8AD
:105A4000190604D00CF1010CBCF1090FE2D10024BD
:105A50006FF003014218926804311C291444F9D1F3
:105A600040F2541040F2A801C2F20000C2F200015C
:105A70000A22FBF79BFEE00801F02AFB9FED460B94
:105A800053EC102B01F0B0FB9FED450B53EC102BAA
:105A900001F0AAFB01F02CF800EE100AB2EE041A95
:105AA00040F2080620EE010AC2F20006BDEEC00A6E
:105AB000706010EE100A01F00BFB9FED3B0B53ECF6
:105AC000102B01F0FBF8327D002A5ED19FED380BE0
:105AD000044653EC102B0D4601F0ABFD90B39FED47
