:020000040800F2
:1000000020070020F10100086F280008C71F000822
:100010006D280008DF020008EB3300080000000034
:10002000000000000000000000000000212E000879
:10003000CD03000800000000B9280008232E0008A6
:100040000B0200080B0200080B0200080B0200085C
:100050000B0200080B0200080B0200080B0200084C
:100060000B0200080B0200080B0200080B0200083C
:100070000B0200080B0200080B0200080B0200082C
:100080000B020008000000000B0200080B02000831
:100090000B0200080B0200080B0200080B0200080C
:1000A0000B0200080B0200080B0200080B020008FC
:1000B0000B0200086D2F00080B0200080B0200085D
:1000C0000B0200080B0200080B0200080B020008DC
:1000D0000B0200080B0200080B0200080B020008CC
:1000E0000B0200080B0200080B0200080B020008BC
:1000F0000B0200080B0200080B02000800000000C1
:10010000000000000B020008000000000B020008C5
:100110000B02000800000000792F00080B02000805
:100120000B0200080B0200080B0200080B0200087B
:100130000B02000800000000000000000B02000895
:100140000B0200080B020008000000000000000085
:10015000000000000000000000000000000000009F
:100160000000000000000000000000000B0200087A
:100170000B0200080000000000000000000000006A
:10018000000000000B02000800000000000000005A
:10019000000000000000000000000000000000005F
:1001A00000000000000000000B0200080B02000825
:1001B0000B0200080B0200080B0200080000000000
:1001C000000000000B02000800000000000000001A
:1001D0000B0200080B020008DFF810D000F042F814
:1001E00000480047A1370008AFF300802007002037
:1001F0000648804706480047FEE7FEE7FEE7FEE7C1
:10020000FEE7FEE7FEE7FEE7FEE7FEE7952E0008C5
:10021000D9010008D2B201E000F8012B491EFBD23F
:1002200070470022F6E710B513460A460446194601
:10023000FFF7F0FF204610BD30B50B460146002009
:100240002022012409E021FA02F59D4205D303FA98
:1002500002F5491B04FA02F52844151EA2F1010219
:10026000F1DC30BD064C074D06E0E06840F00103CC
:1002700094E8070098471034AC42F6D3FFF7B0FF7C
:10028000B0490008D049000870B58C1810F8015B1F
:1002900015F0070301D110F8013B2A1106D110F81F
:1002A000012B03E010F8016B01F8016B5B1EF9D123
:1002B0002B0705D40023521E0DD401F8013BFAE7A9
:1002C00010F8013BCB1A921C03E013F8015B01F814
:1002D000015B521EF9D5A142D8D3002070BDFEE7C4
:1002E00070B5174C002001262178054601290CD055
:1002F000022911D003291CD0042919D12179002900
:1003000016D00021257108200CE0617800290FD05B
:1003100000216570012005E0A178002908D0A570B2
:100320000021022002F008F9A676A57525750120A6
:1003300070BDE1780029FBD00021E5700420F1E7D1
:100340000003002030B5104A11785378491E947884
:10035000D578C9B2127914E0012906D0022906D055
:10036000032906D0042908D009E01BB907E00CB91D
:1003700005E025B1401CC0B201E0002AFAD1491EB7
:10038000C9B20029E8D130BD000300200E4A10B5E3
:1003900011780020491C9378D478C9B2127910E002
:1003A000022904D0032904D0042906D007E00BB9A0
:1003B00005E024B1401CC0B201E0002AFAD1491C7A
:1003C000C9B20429ECD910BD0003002070470022F7
:1003D00040F6B83306E00021491C89B29942FBD3AC
:1003E000521C92B28242F6D3704772B6FEE700000A
:1003F0002DE9F0413A4C607818B10121084602F02D
:100400009BF8A07818B10121022002F095F8E0785D
:1004100018B10121042002F08FF8207918B10121D0
:10042000082002F089F8607900254FF090480126F5
:1004300030B1E088B0F57A7F02D36571267201E0B1
:10044000207A88B12572A6720021F02002F074F89B
:10045000FFF79CFFE8B1267700222021404600F0FC
:100460007CF9A6776572E581A17A4FF47A6003275B
:1004700029B1E189814202D3A572A777E672A17CF6
:1004800049B16672218AB1F5FA6F04D3A574E67496
:1004900003E02577E0E7E17C11B1E574E67265726F
:1004A000E17E59B1E57601222021404600F055F960
:1004B0006777E5810220A077267307E0217B29B1C9
:1004C000E189814202D32573A7776673207F18B133
:1004D000BDE8F04102F060BCBDE8F04102F016BC9E
:1004E0000003002070B5044600F03CF90546601C8E
:1004F00002D004484068044400F034F9401BA04294
:10050000FAD370BD080000202DE9F04FDFF82092EB
:10051000002301260324A9F1040B85B00F2709F15C
:10052000040AABF1040EFAE006FA03F52A407CD087
:1005300091F804C00CF0030CBCF1010F02D0BCF127
:10054000020F26D1D0F808C0CDF800C04FEA430C06
:1005500004FA0CF8CDF810C0DDF800C02CEA080C45
:10056000CDF800C0D1F80C80DDF810C008FA0CF806
:10057000DDF800C048EA0C08C0F80880D0F804C0D4
:100580002CEA050C0D79C5F300159D4045EA0C05D4
:1005900045600D79ED43AD070ED0C5684FEA4308BD
:1005A00004FA08FC25EA0C05D1F808C00CFA08FC8E
:1005B0004CEA050CC0F80CC00D7905F00305022DBE
:1005C00016D1DD0800EB850CCDF808C0DCF82080E2
:1005D0005D074FEAD56C07FA0CF528EA05080D69A6
:1005E00005FA0CF5DDF808C045EA0805CCF82050FE
:1005F00005684FEA430CCDF808C004FA0CFC25EA64
:100600000C0591F804C00CF00308DDF808C008FAE6
:100610000CF848EA0508C0F800804D6815F4403F22
:100620007CD0444DD5F860C000E077E04CF0010C80
:10063000C5F860C02D6E23F0030C05F00105009590
:100640003D4D65440295AD684FEA837C4FEA1C78C6
:1006500007FA08FC25EA0C05B0F1904F06D0DFF848
:10066000DCC0604505D14FF0010C20E04FF0000CDC
:100670001DE0DFF8CCC0604502D14FF0020C16E05F
:10068000DFF8C0C0604502D14FF0030C0FE0DFF887
:10069000B8C0604502D14FF0040C08E0DFF8ACC0F0
:1006A000604502D14FF0050C01E04FF0060C0CFA4A
:1006B00008FC4CEA050C029DC5F808C0D9F80050AA
:1006C000CC46D1F8048095435FEAC82800D515438D
:1006D000CCF80050DAF80050D446D1F804809543A5
:1006E0005FEA882800D51543CCF80050DBF80050AD
:1006F000DC46D1F8048095435FEA883800D515437D
:10070000CCF80050DEF80050F446D1F80480954350
:100710005FEAC83800D51543CCF800505B1C0A6866
:1007200032FA03F57FF400AF05B0BDE8F08F0000AA
:10073000080401400010024000000140000400488D
:1007400000080048000C0048001000480014004851
:100750000069084000D0012070470AB181617047EC
:1007600081627047014880687047000008000020DF
:100770000248816842681144816070470800002087
:1007800010B50024032000F073F80F2000F008F8E3
:1007900008B1012401E000F025F8204610BD00005A
:1007A00070B50E4E05460024706898B14FF47A710A
:1007B000B1FBF0F00A490968B1FBF0F000F0D3FE9C
:1007C00040B9102D06D200222946501E00F030F804
:1007D000356000E00124204670BD000008000020C4
:1007E000140000200A4882B0016E41F00101016648
:1007F000016E01F001010091816D41F08051816530
:10080000806D00F08050009002B000F0A1B80000B0
:1008100000100240002809DB00F01F020121914076
:100820004009800000F1E020C0F80011704700008E
:10083000F0B40E4B1B680C46C3F30223C3F107054B
:10084000042D00D90425191D072901D2002300E039
:10085000DB1E012606FA05F1491E214099409E4003
:10086000761E16403143F0BC02F0D4BD0CED00E022
:10087000064900F0070208684FF6FF03184040EAF7
:100880000220034A10430860704700000CED00E0AE
:100890000000FA052B492C4B0A6832214A432B49A8
:1008A00040B1B0F5007F086829D020F4C06040F462
:1008B00080602CE00868C0F34120022804D051F881
:1008C000800F20F4807022E0D1F8800020F4807046
:1008D000C1F88000086820F4C06040F4007008602F
:1008E000B2FBF3F0401C00E0401E4A69520501D5FE
:1008F0000028F9D1486940050AD503207047C0F3A4
:100900004120022806D051F8800F40F48070086022
:1009100000207047D1F8800040F48070C1F880005A
:10092000086820F4C06040F400700860B2FBF3F087
:10093000401C00E0401E4A695205DBD50028F9D171
:10094000D8E700001400002040420F000070004073
:100950000248816841F48041816070470070004026
:100960002DE9F8430446006800269D4D00035ED53E
:10097000A86D0027C00008D4A86D40F08050A8657D
:10098000A86D012700F080500090DFF85892D9F848
:10099000001041F48071C9F80010FFF7E3FE8046B3
:1009A00006E000BFFFF7DEFEA0EB080002282BD810
:1009B000D9F80000C005F5D5D5F8900010F44070C6
:1009C00014D0216C814211D0D5F89000D5F8901048
:1009D00020F4407041F48031C5F89010D5F89010A3
:1009E00021F48031C5F89010C5F89000C00711D0EF
:1009F000FFF7B8FE804641F2883907E0FFF7B2FE04
:100A0000A0EB0801494501D903260BE0D5F8900079
:100A10008007F3D5D5F89000216C20F4407008438E
:100A2000C5F890001FB1A86D20F08050A86520780F
:100A3000C00707D0D5F88800616820F0030008439C
:100A4000C5F888002078800707D5D5F88800A16808
:100A500020F00C000843C5F888002078400707D52F
:100A6000D5F88800E16820F030000843C5F8880018
:100A70002078000707D5D5F88800216920F0C0004C
:100A80000843C5F888002078800607D5D5F8880087
:100A9000616920F440600843C5F88800207840066A
:100AA00007D5D5F88800A16920F440500843C5F85F
:100AB00088002078000607D5D5F88800E16920F481
:100AC00040400843C5F888002088C00507D5D5F800
:100AD0008800216A20F440300843C5F88800208847
:100AE000800507D5D5F88800616A20F440200843C6
:100AF000C5F88800208840050FD5D5F88800A16A80
:100B000020F440100843C5F88800A06AB0F5801FA3
:100B100003D1E86840F48010E860208800050FD514
:100B2000D5F88800E16A20F440000843C5F8880041
:100B3000E06AB0F5800F03D1E86840F48010E86007
:100B40002088C0040FD5D5F88800216B20F04070B4
:100B50000843C5F88800206BB0F1807F03D1E868B6
:100B600040F48010E86020884FF0006180040ED5CA
:100B7000D5F88800626B20F040601043C5F888000B
:100B8000606B884203D1E86840F48010E8602088F8
:100B900040040ED5D5F88800A26B20F040601043C9
:100BA000C5F88800A06B884203D1E86840F4801043
:100BB000E860208800040FD5D5F88800E16B20F0AC
:100BC00040500843C5F88800E06BB0F1805F03D166
:100BD000E86840F48030E8603046BDE8F883000003
:100BE00000100240007000402DE9F0470E4605005D
:100BF0004FF0000725D0DFF8AC81D8F8000000F0F6
:100C00000F00B0420CD2D8F8001021F00F01314390
:100C1000C8F80010D8F8000000F00F00B04210D162
:100C20002968614CC80741F2883A5AD06868DFF8F1
:100C30007C91032808D0022820682DD04005002888
:100C40002CDB0120BDE8F08720688001F9D5E06841
:100C500000F00302E068C0F30310401C032A19D01F
:100C6000534A00BFB2FBF0F0E268C2F306225043E1
:100C7000E268C2F34162521C5200B0FBF2F04845F8
:100C800017D9A06810F0F00F0CD0880711D5A8680C
:100C900040B10EE0474AE5E78003D0E700F092F864
:100CA000484506D9A06820F0F00040F08000A06020
:100CB0008027A068696820F003000843A060FFF760
:100CC00051FD814606E000BFFFF74CFDA0EB090196
:100CD00051453AD8A068696800F00C00B0EB810F6C
:100CE000F2D12868810714D5400703D5A06840F4E5
:100CF000E060A0602878000705D5A06820F4605067
:100D000040F4E060A060A068A96820F0F00008430B
:100D100004E0802F03D1A06820F0F000A060D8F894
:100D20000010404601F00F01B14216D9016821F0D0
:100D30000F0131430160FFF715FD074607E000BFD3
:100D4000FFF710FDC11B514501D903207AE7D8F800
:100D5000000000F00F00B042F2D12878400705D51E
:100D6000A068E96820F4E0600843A06028780007E4
:100D700006D5A068296920F4605040EAC100A0604F
:100D800000F020F8A1680C4AC1F30311515C01F096
:100D90001F01C8400949086009480068BDE8F047DC
:100DA000FFF7FEBC002002400010024000B4C40463
:100DB0000024F40000366E019E4900081400002053
:100DC00008000020184910B58868C0F38102174850
:100DD000012A0BD08A68164BC2F38102022A06D080
:100DE0008A68C2F38102032A03D0002010BD18468E
:100DF00010BDCA6802F00304CA68C2F30312521C91
:100E0000032C02D0B0FBF2F001E0B3FBF2F0CA68B1
:100E1000C968C2F306225043C1F34161491C49002D
:100E2000B0FBF1F010BD0000001002400024F400FF
:100E300000366E012DE9F84304007AD02078FA4D8F
:100E4000C00747D0A868E96800F00C0001F0030172
:100E50000C2802D0082817D001E0032914D06068BC
:100E6000B0F5803F17D0B0F5A02F286817D020F438
:100E700080302860286820F4802028606068E0B115
:100E8000FFF770FC064614E02868800322D56068EE
:100E90000028D2D01EE0286840F48030EDE740F40E
:100EA00080202860F7E700BFFFF75CFC801B642808
:100EB00070D828688003F7D50CE0FFF753FC06468E
:100EC00005E000BFFFF74EFC801B6428F0D82868BF
:100ED0008003F7D4207880074CD5A868E96800F033
:100EE0000C0001F003010C2802D004280DD001E011
:100EF00002290AD0E068002828682BD040F48070CE
:100F00002860FFF72FFC064619E02868400502D547
:100F1000E068002891D06868217C20F0FE4040EA1B
:100F200001606860C1480068FFF73AFC002800D102
:100F300020E076E1FFF716FC801B0228B8D828686D
:100F40004005F7D56868217C20F0FE4040EA01604A
:100F500068600FE020F480702860FFF703FC06460D
:100F600005E000BFFFF7FEFB801B0228A0D8286821
:100F70004005F7D42078000729D560690028D5F806
:100F8000940013D040F00100C5F89400FFF7EAFB8D
:100F9000064606E090E000BFFFF7E4FB801B022856
:100FA00086D8D5F894008007F6D510E020F001002F
:100FB000C5F89400FFF7D6FB064604E0FFF7D2FB26
:100FC000801B022878D8D5F894008007F6D42078C2
:100FD000400761D5A86D0026C00008D4A86D40F078
:100FE0008050A865A86D012600F0805000909048C0
:100FF0000168C90511D40168804641F4807101601F
:10100000FFF7B0FB074604E0FFF7ACFBC01B02286C
:1010100052D8D8F80000C005F6D5A068012815D030
:101020000528D5F8900016D020F00100C5F89000F2
:10103000D5F8900020F00400C5F89000A06841F2B7
:101040008838B8B1FFF78EFB07460EE0D5F8900060
:1010500040F00100F0E740F00400C5F89000F5E72B
:10106000FFF780FBC11B414526D8D5F890008007CB
:10107000F6D50CE0FFF776FB074604E0FFF772FBBE
:10108000C11B414518D8D5F890008007F6D41EB191
:10109000A86D20F08050A8652078800629D5A06929
:1010A0000028D5F8980013D040F00100C5F898004A
:1010B000FFF758FB064606E077E000BFFFF752FB5C
:1010C000801B022877D8D5F898008007F6D510E065
:1010D00020F00100C5F89800FFF744FB064604E045
:1010E000FFF740FB801B022865D8D5F898008007E1
:1010F000F6D4E069F0B3A968C1F38101032961D096
:101100000228286820F0807028600BD0E86820F062
:101110000300E860E86847490840E860FFF722FB01
:1011200004464BE0FFF71EFB064604E0FFF71AFB00
:10113000801B02283FD828688001F7D4F4E9080111
:101140006FF00F0202EB01110843218A5204490893
:1011500002EB4151A26841EA02210843217D4FF090
:101160007E42490802EB41610843217B40EAC160AD
:10117000E96800E062E0304A11400843E86028680E
:1011800040F080702860E86840F08070E860FFF709
:10119000E9FA044605E000BFFFF7E4FA001B022865
:1011A00009D828688001F7D548E004E0FFF7DAFAAB
:1011B000001B022802D90320BDE8F88328688001BB
:1011C000F4D43BE00128F7D0E868226A00F003017C
:1011D000914226D1616A00F0F00209011039914272
:1011E0001FD1A26A00F4FE41B1EB022F19D194F88D
:1011F0002C2000F07841B1EBC26F12D1218E00F4A7
:10120000C00249084905A1F50011914209D194F89D
:10121000341000F0C06049084906A1F10071814214
:101220000CD00120C8E70000001002400800002098
:1012300000700040FFFFEEFE0C809F010020BBE726
:1012400010B500680B4641680D480140080CD87085
:10125000C1F304245C7001F03F049C70C1F342317F
:10126000197052B901F0B3FCD870587801F0AFFC96
:101270005870987801F0ABFC9870002010BD000009
:101280003FFFFF0010B50B4601688968596001688F
:101290000969C1F30E019960006801680D480140B9
:1012A000C1F305401870C1F306245C7001F07F049F
:1012B0009C70890DD97052B901F089FC187058786A
:1012C00001F085FC5870987801F081FC987000203E
:1012D00010BD00007F7F7F0070B504004FF001005B
:1012E00040D094F8250028B9002084F82400204636
:1012F00000F03CF8022084F825002168CA204862EA
:10130000216853204862204601F076FC10BB20681B
:101310008169154A11408161216888696268A36901
:10132000104322691A43104388612189E06840EA2A
:10133000014021680861204601F083FC50B9D4E9DE
:101340000721114322686369956925F060452B43A5
:10135000194391612268FF215162002802D10121C5
:1013600084F8251070BD0000BFFF8FFB10B592B050
:10137000044644216846FEF754FF1049206888421D
:1013800019D14FF400200090801210906846FFF7AA
:10139000E7FA08B1FFF729F8094850F8901F41F41F
:1013A000004140F83819016841F48061016000682B
:1013B00000F48060119012B010BD000000280040C1
:1013C0000010024070B5044690F824000B46012836
:1013D0001BD0012684F82460022084F82500B2B1D5
:1013E0009878D97840EA014558781978000240EA9F
:1013F000413005432168CA20486221685320486271
:10140000204601F0F9FBD0B120E0022070BD5878F1
:10141000C10603D500F0EF000A305870D87801F00B
:10142000DFFB0504587801F0DBFB45EA00259878DE
:1014300001F0D6FB0543187845EA4035DAE708485D
:10144000054020684560204601F0FBFB2268FF2133
:10145000516208B984F82560002184F8241070BD19
:101460003FFFFF002DE9F041044690F8240090462C
:101470000D46012811D0012784F82470022084F839
:1014800025002168CA20486221685320486220460E
:1014900001F0B2FB002618B129E00220BDE8F0817E
:1014A0002068B8F1000F80694FEA406024D000281E
:1014B00000DBEE70A8782978EA7840EA0140697884
:1014C000090241EA8251084318490840216808602E
:1014D0002068816921F480218161D5E903010843F5
:1014E00021688A6910438861204601F0AAFB2268BE
:1014F000FF215162A0B115E0002800DBEE702878D2
:1015000001F06EFB0304687801F06AFB43EA0023F4
:10151000A87801F065FB0343E87843EA8050D3E7FD
:1015200084F8257084F82460B8E700007F7F7F008E
:1015300070B504460068C16821F02001C160FFF762
:1015400011F905464FF47A7607E000BFFFF70AF974
:10155000401BB04201D9032070BD2068C0688006DE
:10156000F4D5002070BD10B5401EB0F1807F01D3CE
:10157000012010BD4FF0E02460610F21601701F0E1
:1015800049FF0020A06107202061002010BD7047A6
:10159000704770477047704770470000F0B590F88B
:1015A0003C20012A3AD0012580F83C50022280F8E4
:1015B0003D2003685A689C68194E1A4FB34201D007
:1015C000BB4204D122F4700C4A6842EA0C02DFF8F4
:1015D00058C002EA0C02D1F800C04CEA020CC3F871
:1015E00004C00268B2420DD0B2F1804F0AD00F4B56
:1015F0009A4207D00E4B9A4204D0BA4202D00D4B09
:101600009A4204D1896824F080031943916080F8DC
:101610003D50002180F83C100846F0BD0220F0BD8E
:10162000002C0140003401408FFFFFFD000400400A
:101630000008004000400140704710B5040003D08E
:1016400094F83D0010B107E0012010BD002084F89F
:101650003C00204600F022F8022084F83D00211DC5
:10166000206801F08FFC012084F8480084F83E00D7
:1016700084F83F0084F8400084F8410084F8420078
:1016800084F8430084F8440084F8450084F8460058
:1016900084F8470084F83D00002010BD08B5154AC5
:1016A0000168154891420ED1816D41F002018165BA
:1016B000806D002200F00200009011461D20FFF70F
:1016C000B7F81D2010E00D4A914211D1816D41F013
:1016D00010018165806D002200F01000009011461D
:1016E0003620FFF7A5F83620BDE80840FFF792B88E
:1016F00008BD00000004004000100240001000403F
:1017000090F83D10012901D001207047022180F896
:101710003D100168CA6842F00102CA6000681049C1
:1017200088420ED0B0F1804F0BD00E49884208D0CD
:101730000D49884205D00D49884202D00C498842A3
:1017400007D181680B4A1140062906D0B1F5803FC8
:1017500003D0016841F001010160002070470000E2
:10176000002C01400004004000080040003401400B
:10177000004001400700010070B5044690F83C00AD
:101780000025012814D0012684F83C60022084F84A
:101790003D0022689068364B184020F47F409060EE
:1017A000086870282ED010DC10F00F0F03D021E055
:1017B0004FF0020070BD4FEA2012072A1AD2DFE86C
:1017C00002F0525252524A3840002A4BC21A9842F2
:1017D00049D009DCB0F5805F0DD0B0F5005F1CD0BA
:1017E000B0F1101F06D13EE0102A3CD0202A3AD09A
:1017F000502A38D0012584F83D60002084F83C0050
:10180000284670BDCB68D1E90121206801F01FFC9A
:101810002068816841F0770109E0CB68D1E90121B6
:10182000206801F014FC2068816841F480418160E7
:10183000E1E7CA684968206801F0B4FD50212068DA
:1018400006E0CA684968206801F0BDFD6021206893
:1018500001F008FCCFE7CA684968206801F0A2FDE2
:1018600040212068F4E7226801461046F0E70000B6
:1018700088FFCEFF20001000704770B50446006856
:1018800001694FF00005C943890715D4C168C943F0
:10189000890711D4E91E0161012020772068806941
:1018A0008007204602D0FFF7E7FF04E000F044F98C
:1018B000204600F03FFA257720680169C9434907AF
:1018C00017D4C168C943490713D46FF004010161FB
:1018D000022020772068806910F4407F204602D0E3
:1018E000FFF7CAFF04E000F027F9204600F022FAD3
:1018F000257720680169C943090716D4C168C9431F
:10190000090712D46FF008010161042020772068D4
:10191000C0698007204602D0FFF7AEFF04E000F068
:101920000BF9204600F006FA257720680169C943C3
:10193000C90617D4C168C943C90613D46FF0100192
:101940000161082020772068C06910F4407F20469C
:1019500002D0FFF791FF04E000F0EEF8204600F01F
:10196000E9F9257720680169C943C90708D1C16829
:10197000C943C90704D1891E0161204600F0DCF982
:1019800020680169C943090609D4C168C943090629
:1019900005D46FF0800101612046FFF7F9FD206852
:1019A0000169C943C90509D4C168C943090605D4F9
:1019B0006FF4807101612046FFF7E9FD206801693D
:1019C000C943490609D4C168C943490605D46FF023
:1019D00040010161204600F0F5FA20680169C94321
:1019E000890609D4C168C943890605D46FF020016E
:1019F00001612046FFF7CDFD20680169C943C90296
:101A000009D4C168C943C90205D46FF480110161CA
:101A10002046FFF7C0FD20680169C943890209D447
:101A2000C168C943890205D46FF4001101612046E1
:101A3000FFF7B0FD20680169C943490209D4C168B4
:101A4000C943490205D46FF4800101612046FFF7C4
:101A5000A3FD20680169C94309020BD4C168C943C9
:101A6000090207D46FF4000101612046BDE870400F
:101A7000FFF7E2BD70BD000010B586B0044614212A
:101A80006846FEF7CEFB0E492068884215D10D4806
:101A9000C16C41F00101C164C06C002100F0010083
:101AA0000590C02000900220CDE90101CDE903108E
:101AB00069464FF09040FEF727FD06B010BD0000CC
:101AC000000400400010024070B5044690F83C004D
:101AD000002501280BD0012084F83C000C2A1ED0E0
:101AE00007DC82B1042A12D0082A06D113E00220B2
:101AF00070BD102A17D0142A19D00125002084F8AF
:101B00003C00284670BD206801F0B6FAF6E7206870
:101B100001F000FBF2E7206801F044FBEEE72068EB
:101B200001F088FBEAE7206801F0CCFBE6E72068DB
:101B300001F000FCE2E7000030B5184988422BD1E3
:101B4000027F1749012A11D101F11C048D78154B30
:101B5000626825B11C6822441A60002205E02468EE
:101B6000A21A1C6822441A6001228A70007F02288F
:101B700012D10C4A0A4B121D2433CC78586824B178
:101B8000136818441060002005E01B68181A1368D9
:101B9000184410600120C87030BD000054020020BD
:101BA000180000203404004010B5040003D094F85D
:101BB0003D0010B107E0012010BD002084F83C007A
:101BC000204600F022F8022084F83D00211D206804
:101BD00001F0D8F9012084F8480084F83E0084F828
:101BE0003F0084F8400084F8410084F8420084F803
:101BF000430084F8440084F8450084F8460084F8E3
:101C0000470084F83D00002010BD704770B50025E6
:101C10000446022269B1042916D0082955D00C299E
:101C20005ED0102963D094F84300012866D00120CB
:101C300070BD94F83E000128F9D184F83E20206858
:101C4000C26842F0020209E094F83F000128EED198
:101C500084F83F202068C26842F00402C26001227A
:101C6000206801F0E7F92B4920682B4A2B4B88426A
:101C700009D0904207D0984205D0294EB04202D0F8
:101C8000284EB04203D1466C46F4004646642068B4
:101C900088420CD0B0F1804F09D02349884206D049
:101CA0002249884203D0904201D0984207D18168EE
:101CB0001F4A1140062906D0B1F5803F03D00168C4
:101CC00041F001010160284670BD94F840000128F0
:101CD000ADD184F840202068C26842F00802BDE718
:101CE00094F841000128A2D184F8412008E094F83A
:101CF000420001289BD184F8422003E084F843206D
:101D00000C2901D00125DEE72068C26842F01002EC
:101D1000A4E70000002C01400034014000400140D5
:101D20000044014000480140000400400008004019
:101D300007000100704700002DE9F05F8A498842E2
:101D400070D18A4C8A4D6269521C6261E888401CDD
:101D5000E880E889401CE881288B401C2883288A79
:101D6000401C288204F11000017809B1491E01705D
:101D7000417809B1491E41706420B2FBF0F100FBCB
:101D8000112010B96089401C6081A87E01270026BF
:101D90004FF47A78002837D0A089DFF8D891401C1A
:101DA00080B2A0810A2807D173A1484601F01EFB2A
:101DB000208940F020002081A089B0F5C87F08D19B
:101DC0002A7873A1484601F011FB208940F02000D9
:101DD0002081A089B0F5167F07D173A1484601F094
:101DE00005FB208940F020002081A08940450BD1CF
:101DF000A681AE76EF762A7865A1484601F0F6FA1C
:101E0000208940F020002081687F012804D002282A
:101E100005D0032807D00FE06E77502105E06E77DC
:101E20003C2102E04EE06E770021404600F020FDAC
:101E300000216348FFF7EAFEA97F4FF4FA60012909
:101E400004D0022905D0032906D00DE0AE77322157
:101E500004E0AE773C2101E0AE77002100F01AFDEE
:101E600004215748FFF7D2FE287D4FF002084FF0BB
:101E700003094FF0040A4FF0080B58B3E089401CE7
:101E800080B2E081C8281DD1E6812079092819D2C5
:101E9000DFE800F01805080B0E11141A1D000121CF
:101EA00010202DE00121202031E00121402035E0EB
:101EB0000121802039E0002110203CE00021202079
:101EC00040E02071BDE8F09F0021402040E000216B
:101ED000802044E0A87D90B3E089401C80B2E0817E
:101EE000C828EFD3E68120790928EBD2DFE800F09B
:101EF00005060D141B21282E3500E3E70121802063
:101F000000F01AFB84F80480DCE70121402000F097
:101F100013FB84F80490D5E70121202000F00CFB8E
:101F200084F804A0CEE70121102000F005FB052075
:101F3000C7E70021802000F0FFFA0620C1E710E08B
:101F40000021402000F0F8FA0720BAE70021202005
:101F500000F0F2FA84F804B0B4E70021102000F099
:101F6000EBFA2771AEE70000A00200201800002065
:101F700000030020C8010020202020202020202055
:101F800020202020202020202020202000000000D1
:101F900020202020202020202025642020202020F8
:101FA0002020202020000000202020202020202091
:101FB0002020202020202020202020202000000081
:101FC000540200207047FEE71F4810B50178002931
:101FD00034D10A21017000F03BF81B494FF0000397
:101FE0001039C8714A7882EA000484434C7130EA9F
:101FF00002028A71487001D04B8102E048890A28A8
:102000001CD21248417A002918D00121012C0AD093
:10201000022C0DD0032C12D0042C0FD10278042AEC
:102020000CD0017108E00278012A07D0417003E06A
:102030000278022A02D081704171C38010BD0278FB
:10204000032AFBD0C170F7E728000020000300201E
:1020500070B5194D01212846FEF77AFB4FF09046E6
:1020600080B102212846FEF773FB58B104212846AF
:10207000FEF76EFB30B101213046FEF769FB08B177
:10208000002070BD01212846FEF762FB00B9012443
:1020900002212846FEF75CFB00B9022404212846F1
:1020A000FEF756FB00B9032401213046FEF750FB32
:1020B00000B90424204670BD0004004800B585B076
:1020C00014216846FEF7ADF84FF6FF70009000202F
:1020D0000321CDE90201019069460248FEF714FA96
:1020E00005B000BD0008004800B585B01421684661
:1020F000FEF797F84FF6FF70009001200190032043
:1021000003900020029069460248FEF7FDF905B0F1
:1021100000BD00000008004830B587B014216846B3
:10212000FEF77FF81E48C16C41F00401C164C16C28
:1021300001F004010591C16C41F00101C164C16C61
:1021400001F001010591C16C41F00201C164C06C54
:10215000012500F0020005904FF44870CDE900051C
:1021600000240394694602940E48FEF7CDF9280234
:1021700003940090CDE901544FF090446946204605
:10218000FEF7C2F9FFF7B0FFA06940F48070A061CC
:1021900004481830016841F40871016007B030BD8F
:1021A0000010024000040048203AD2B2034B02EB78
:1021B000420203EB021200F019B80000CE3700080B
:1021C000F0B50E460746002540F23F1407E02146D1
:1021D0003846FFF7E9FF103C6D1CA4B2761C32783C
:1021E000002A01D0142DF2D3F0BD00002DE9F047F4
:1021F00091468A460026044600F0CAF8DFF840807F
:10220000012700BF00F008F95FF0000539F816005B
:1022100007FA05F10842404601D1408800E00088F5
:1022200000F0CAF86D1C102DF0D3641CE4B25146C6
:10223000204600F0ADF8761C182EE3D3BDE8F087F9
:10224000000000202DE9FF5F044600F0FF0AA1EB2B
:10225000810040F23F1101EBC0001FFA80F89B465D
:102260000025E0B24146DDF8389000F091F800F02A
:10227000D3F8012708E0182D01D0302D04D1A8F1A2
:10228000080054461FFA80F85FF0000619F80500B0
:1022900007FA06F1084202D1029880B201E01FFA63
:1022A0008BF000F089F8761CF6B2082EEED3E0B27F
:1022B000641CA4B2414600F06BF800F0ADF86D1C50
:1022C000EDB2482DD7D3BDE8FF9F000010B5FFF752
:1022D00023FF002000F014F8084CA080A088A0F58F
:1022E0000241303906D000F071FB002000F008F800
:1022F000A08010BD00F0E1FAF7E700000000002028
:1023000070B51D490A6842F400720A600A6842F416
:1023100080720A60184C103C226842F02002226051
:10232000164A1060086840F02000086000BF00BF37
:1023300000BF206840F020002060206840F48070DA
:102340002060FFF7BBFE4FF09041886A40F4807038
:10235000886200BF00BF00BF0848001F006885B248
:10236000886940F480708861FFF7BEFE206840F401
:1023700000702060284670BD2804004814080048FA
:1023800001B5BDF800000149488008BD00000020EB
:1023900010B50C460146202000F070F82146BDE83B
:1023A0001040212000F06AB801B5BDF800000149D5
:1023B000088008BD0000002030B5154B1968154A8B
:1023C0008CB2116841F400711160124910390D6826
:1023D00045F480750D600D6845F020050D601860AE
:1023E000106840F02000106000BF00BF00BF086808
:1023F00040F020000860086840F48070086000BF6A
:1024000000BF00BF086840F4007008601C6030BD69
:102410001408004828040048164A10B510681649E8
:1024200083B2086840F400700860086840F4807067
:10243000086011481038046844F020040460222425
:1024400014600C6844F020040C6000BF00BF00BFA3
:10245000016841F020010160016841F48071016070
:1024600000BF00BF00BF016841F40071016013604C
:1024700010BD0000140800482804004870B51A4C2C
:1024800022681A4B95B21A6842F400721A601A68F0
:1024900042F480721A60154A103A166846F0200617
:1024A00016602060186840F02000186000BF00BF70
:1024B00000BF106840F020001060106840F4807089
:1024C00010602160186840F02000186000BF00BF55
:1024D00000BF106840F020001060106840F4807069
:1024E0001060256070BD00001408004828040048F2
:1024F0002DE9F0410F4E0024012506F5A67701E0F5
:10250000022C10D0318905FA04F008420BD0814327
:10251000318104EB840007EB800104EB4400C0062A
:10252000000EFFF74DFE641CE4B20A2CE8D3BDE8B0
:10253000F08100001800002010B50C4B00020129AA
:1025400011D0012201461846FEF707F9084C012276
:1025500004212046FEF701F920460022BDE8104084
:102560000421FEF7FAB80022ECE70000000800485A
:10257000000C00482DE9F04387B014216846FDF7B0
:1025800050FE5248C16C41F00401C164C16C01F0BD
:1025900004010591C16C41F02001C164C16C01F0DE
:1025A00020010591C16C41F04001C164C16C01F092
:1025B00040010591C16C41F00101C164C16C01F0A1
:1025C00001010591C16C41F00201C164C16C01F0CF
:1025D00002010591C16C41F00801C164C06CDFF8D3
:1025E000F08000F00800059001224FF47F41404642
:1025F000FEF7B3F84FF09047002230213846FEF73F
:10260000ACF8DFF8D090002204214846FEF7A5F888
:102610004FF46040009001250024CDE90154694643
:1026200040460394FDF770FFA8020326CDE900069B
:10263000694602942848FDF767FFFF20CDE90006B0
:10264000694602944046FDF75FFFCDE900546946B4
:1026500038460295FDF758FF49F60E70CDE90006A1
:10266000694602943846FDF74FFF30200090CDE9CF
:102670000154694638460394FDF746FF07208DE86C
:102680003100164F69463846FDF73EFF4FF6F870A9
:10269000CDE90006694602943846FDF735FF4FF450
:1026A000F8500226CDE90005CDE9024669464046CC
:1026B000FDF72AFF0420CDE90005CDE90246694671
:1026C0004846FDF721FF07B0BDE8F0830010024047
:1026D00000080048000C00480018004800040048AA
:1026E00010B586B014216846FDF79BFD21480024F3
:1026F0001F490594C0E900141F21816040F2E731B1
:10270000C0E903144FF080414461C0E9064104620E
:10271000FEF7E2FD08B1FDF768FE12208DF800001B
:1027200050208DF8010055208DF80200019403948B
:10273000012269460F480494FEF794FE08B1FDF7A4
:1027400054FE01208DF8140002208DF8150013208E
:102750008DF8160023208DF81700012205A90548E1
:10276000FEF730FE002801D0FDF73FFE06B010BD99
:10277000002800402C02002010B58EB000240794E1
:10278000089409940A940B940C941C2168460D94A7
:10279000FDF747FD2248214901604F21C0E901149E
:1027A0004FF6FF71C0E9031480218161FEF745FFF8
:1027B00008B1FDF71AFE4FF48050079007A918489A
:1027C000FEF7DAFF08B1FDF710FE1548FFF7ECF948
:1027D00008B1FDF70AFE0B940BA911480D94FEF702
:1027E000DDFE08B1FDF701FE3020CDE900040294C2
:1027F000002269460A480494FFF766F908B1FDF71C
:10280000F4FD042269460648FFF75EF908B1FDF7BA
:10281000ECFD0348FFF730F90EB010BD0004004096
:10282000540200203EB500240F48009401940D4945
:10283000029401604F21C0E9011440F2E731846144
:10284000C160FEF7FAFE08B1FDF7CFFD00946946BE
:1028500005480294FEF7A2FE002801D0FDF7C5FD51
:102860003EBD000000100040A0020020FEE7FEE791
:10287000054AB2FBF0F041436423B1FBF3F1034A94
:1028800003C203490860704740420F003400002033
:1028900034040040054AB2FBF0F041436423B1FB2D
:1028A000F3F1034A03C203490860704740420F0036
:1028B0003C00002038040040704730B50121002062
:1028C000FFF7DCFD4FF47A70FDF781FD0021012058
:1028D000FFF7D4FD41F290711020FFF7CFFD4FF4C8
:1028E0001C516020FFF7CAFD01216120FFF7C6FDE2
:1028F00002214620FFF7C2FD48F210011320FFF726
:10290000BDFD48F2FE011220FFF7B8FD4FF4A061B3
:102910000220FFF7B3FD41F230010320FFF7AEFDC7
:1029200040F2033421463020FFF7A8FD2146312034
:10293000FFF7A4FD21463220FFF7A0FDE51E294642
:102940003320FFF79BFD03213420FFF797FD21463D
:102950003520FFF793FD14213620FFF78FFD214628
:102960003720FFF78BFD21463820FFF787FD2146F2
:102970003920FFF783FD29463A20FFF77FFD032129
:102980003B20FFF77BFD21463C20FFF777FD4FF40E
:10299000A0513D20FFF772FD4FF400719220FFF728
:1029A0006DFD21469320FFF769FD40F60D01902053
:1029B000FFF764FD41F218010320FFF75FFDBDE85A
:1029C000304040F273110720FFF758BD10B543F2B5
:1029D0000801E320FFF752FD1221E720FFF74EFD2B
:1029E00041F23121EF20FFF749FD00210120FFF7DF
:1029F00045FD4FF4E0610220FFF740FD41F2300158
:102A00000320FFF73BFD00210420FFF737FD40F2D4
:102A100007210820FFF732FD00210920FFF72EFDD6
:102A200000210A20FFF72AFD00210C20FFF726FDD8
:102A300000210D20FFF722FD00210F20FFF71EFDD2
:102A400000211020FFF71AFD07211120FFF716FDC6
:102A500000211220FFF712FD00211320FFF70EFDC9
:102A6000C820FDF73FFD41F290611020FFF706FD01
:102A700040F227211120FFF701FD3220FDF732FD42
:102A80001D211220FFF7FAFC3220FDF72BFD4FF439
:102A900000611320FFF7F2FC14212920FFF7EEFC60
:102AA0000B212B20FFF7EAFC3220FDF71BFD002154
:102AB0002020FFF7E3FC00212120FFF7DFFC0721A6
:102AC0003020FFF7DBFC40F207713120FFF7D6FC26
:102AD00006213220FFF7D2FC40F204713520FFF7C7
:102AE000CDFC41F604713620FFF7C8FC04213720E5
:102AF000FFF7C4FC00213820FFF7C0FC40F206714C
:102B00003920FFF7BBFC40F201713C20FFF7B6FC17
:102B10000F213D20FFF7B2FC00215020FFF7AEFC53
:102B2000EF215120FFF7AAFC00215220FFF7A6FC5D
:102B300040F23F115320FFF7A1FC4FF41C516020DD
:102B4000FFF79CFC01216120FFF798FC00216A201F
:102B5000FFF794FC00218020FFF790FC00218120EA
:102B6000FFF78CFC00218220FFF788FC00218320E6
:102B7000FFF784FC00218420FFF780FC00218520E2
:102B8000FFF77CFC10219020FFF778FC00219220B9
:102B9000FFF774FC03219320FFF770FC4FF488715A
:102BA0009520FFF76BFC00219720FFF767FC0021C1
:102BB0009820FFF763FC41F218010320FFF75EFC49
:102BC000BDE8104040F273110720FFF757BC010920
:102BD00001EB810100F00F0000EB4100C0B2704733
:102BE0000022014602E00A39C9B2521C0A29FAD26F
:102BF000100741EA106070472DE9F0410446006873
:102C00000025C168490619D4C16841F08001C1603E
:102C1000FDF7A8FD06464FF47A78032708E000BFC9
:102C2000FDF7A0FD801B404502D9032584F82570DF
:102C30002068C068400601D4032DF1D12846BDE8C4
:102C4000F08170B5044600680025C16821F080015C
:102C5000C160206881694FF00306890607D42046C9
:102C6000FEF766FC98B184F8256003250FE08169C2
:102C700021F0200181612046FEF75AFC10B184F852
:102C8000256003252068816941F020018161284683
:102C900070BD000038B513484178002920D1C82103
:102CA0004170002210491148FEF7ECFA0D4900224C
:102CB00008310E48FEF7C4FA0A4C0B48103C8178E4
:102CC000227891420CD0217000914378027808A1BB
:102CD00004F5F67000F08AFB208940F480702081B2
:102CE00038BD000028000020EC0200202C0200204B
:102CF000202020202020253032643A253032643ACA
:102D000025303264202020202020000070B5214C86
:102D100001260025E07A58B1E572002210214FF01B
:102D20009040FDF71AFD022060772583A6750DE01F
:102D3000A07D58B1208B41F27071884206D3A575F1
:102D40000021F020FFF7F8FBE67501E0E07D40B1DF
:102D50002078401E2070FDF7C3FA08B92583A675B8
:102D6000E575607B002813D0FDF710FB18B12582B4
:102D7000A67426770BE0FDF7E5FA18B12582A67454
:102D8000257704E00121F020FFF7D6FB667265731A
:102D900070BD00000003002070B5204C0126002506
:102DA000E07A50B1E572012210214FF09040FDF71A
:102DB000D4FC6677258326750DE0207D58B1208BE5
:102DC00041F27071884206D325750021F020FFF78B
:102DD000B3FB667501E0607D40B12078401C207037
:102DE000FDF77EFA08B9258326756575607B002896
:102DF00012D0FDF7CBFA10B12582A6740BE0FDF7D7
:102E0000A1FA18B12582A674257704E00121F020EB
:102E1000FFF792FB6672657370BD0000000300202F
:102E20007047FDF7A5BC10B594B038216846FDF792
:102E3000F8F914210EA8FDF7F4F94FF40070FDF72E
:102E400029FD092000904FF4803001900120059069
:102E500002200324CDE907041421CDE90A100C90C7
:102E60000D9009946846FDF7E5FF08B172B6FEE7DC
:102E70000F20CDE90E040020109011901290022135
:102E80000EA8FDF7B1FE002801D072B6FEE714B01F
:102E900010BD00000248016841F4700101607047F4
:102EA00088ED00E038B5FFF711FA0020FFF768FA67
:102EB0004FF6FF742046FFF777FA0021FF20FFF757
:102EC0003BFB2048FEF71CFC00221F491F48FEF771
:102ED000D9F900221E491D48FEF7B2F91A4A01210C
:102EE0001432F0201170517311775172FFF724FBE7
:102EF00018A13020FFF764F91548234614300090DC
:102F0000002204213020FFF79DF9114823465C3050
:102F10000090002205213020FFF794F90C48234649
:102F2000A4300090002206213020FFF78BF90848DA
:102F30002346EC300090002207213020FFF782F971
:102F400038BD0000A0020020EC0200202C0200206E
:102F500030000020202020202020202020202020A1
:102F60002020202020202020000000000148FEF723
:102F700084BC0000540200200148FEF77EBC000023
:102F8000A00200202DE9F0430268234B234D244E7C
:102F9000244C4FF08049984207D0484505D0A842BC
:102FA00003D0B04201D0A04203D122F070074A689A
:102FB0003A431D4FDFF874C0DFF8748098420DD09B
:102FC00048450BD0A84209D0B04207D0A04205D056
:102FD000B84203D0604501D0404503D122F440758A
:102FE000CA682A434D6922F080022A4302608A6837
:102FF000C2620A688262984207D0A04205D0B842F5
:1030000003D0604501D0404501D109690163012128
:103010004161BDE8F0830000002C01400004004045
:1030200000080040003401400040014000440140DD
:103030000048014010B501F01F030121046A9940C6
:103040008C430462016A9A401143016210BD10B5BD
:10305000846842EA032224F47F440A4322438260C4
:1030600010BD00008268034B1A400A4342F007017A
:10307000816070478FFFCFFF2DE9F043026A22F095
:1030800001020262056A436882691C4C25F0020550
:1030900022400C6822F0030214438A68194E2A4326
:1030A000174D194FDFF864C0DFF86490A84207D0CD
:1030B000B04205D0B84203D0604501D0484506D1A2
:1030C00022F00808CA6842EA080222F00402A84274
:1030D00007D0B04205D0B84203D0604501D0484582
:1030E00005D14D6923F440731D438B692B43436025
:1030F0008461496841630262BDE8F0838FFFFEFF8F
:10310000002C0140003401400040014000440140D7
:1031100000480140F0B5026A22F010020262056A1E
:1031200042688369194C1B4E23400C6823F440739A
:1031300043EA042425F020038D6843EA0513144D67
:10314000A84201D0B04206D1CF6823F0800343EA01
:10315000071323F04003A8420AD0B04208D00E4D16
:10316000A84205D00D4DA84202D00D4DA84207D16E
:103170004D6922F4406242EA85028D6942EA850285
:1031800042608461496881630362F0BDFF8FFFFE86
:10319000002C014000340140004001400044014047
:1031A00000480140F0B5026A22F480720262056AAA
:1031B0004368C269194C1B4E22400C6822F003027E
:1031C000144325F400728D6842EA0522144DA8428A
:1031D00001D0B04206D1CF6822F4006242EA072251
:1031E00022F48062A8420AD0B04208D00E4DA84214
:1031F00005D00E4DA84202D00D4DA84207D14D6911
:1032000023F4405343EA05138D6943EA05134360F1
:10321000C4614968C1630262F0BD00008FFFFEFF18
:10322000002C0140003401400040014000440140B6
:1032300000480140F0B5026A22F480520262056A39
:103240004268C369194C1B4E23400C6823F4407339
:1032500043EA042425F400538D6843EA0533144DF2
:10326000A84201D0B04206D1CF6823F4004343EA1C
:10327000073323F48043A8420AD0B04208D00E4D51
:10328000A84205D00D4DA84202D00D4DA84207D14D
:103290004D6922F4404242EA85128D6942EA851264
:1032A0004260C461496801640362F0BDFF8FFFFEA4
:1032B000002C014000340140004001400044014026
:1032C0000048014030B5026A22F480320262046A8A
:1032D0004268036D114D2B400D681D4324F40033EB
:1032E0000C8943EA04430E4CA0420BD00D4CA04283
:1032F00008D00D4CA04205D00C4CA04202D00C4C82
:10330000A04204D14C6922F4803242EA0422426095
:10331000056549688164036230BD00008FFFFEFFD0
:10332000002C0140003401400040014000440140B5
:103330000048014030B5026A22F480120262046A39
:103340004268036D114D24F400142B400D6843EACC
:1033500005230D8944EA05540D4DA8420BD00D4DAF
:10336000A84208D00C4DA84205D00C4DA84202D06E
:103370000B4DA84204D14D6922F4802242EA8522F5
:10338000426003654968C164046230BDFF8FFFFE7F
:10339000002C014000340140004001400044014045
:1033A0000048014010B5036A046A24F00104046275
:1033B000846924F0F00444EA021423F00A020A4368
:1033C0008461026210BD10B5036A23F0100303622A
:1033D0008369046A23F4704343EA023224F0A003B1
:1033E00043EA01118261016210BDFEE70FB4084B90
:1033F00010B504A902AA039800F02CF8044602A90B
:10340000002000F0C8F9204610BC5DF814FB000055
:10341000973700080907090E002804DB00F1E020B7
:1034200080F80014704700F00F0000F1E02080F8F1
:10343000141D704702E008C8121F08C1002AFAD103
:1034400070477047002001E001C1121F002AFBD124
:10345000704700002DE9FF4F8BB0884605460026D7
:1034600006E025280BD0DDE90D1290476D1C761C77
:1034700028780028F5D10FB03046BDE8F08F002441
:10348000A146A2460122AE4900E0044315F8013FDF
:10349000203B02FA03F00842F7D128782A2810D0FE
:1034A0006FF02F022878A0F13001092915D809EB17
:1034B000890102EB410144F0020400EB01096D1C9B
:1034C000F0E758F8041B5FEA010903D544F40054FF
:1034D000C9F1000944F002046D1C28782E2817D188
:1034E00015F8010F44F004042A280ED06FF02F02C3
:1034F0002878A0F1300109290AD80AEB8A0102EBE9
:10350000410100EB010A6D1CF2E758F804AB6D1C99
:1035100028786C280FD006DC4C2817D068280DD0EE
:103520006A2814D104E0742810D07A280FD10DE055
:1035300044F400140AE044F4801401E044F440141C
:103540006978814202D104F580146D1C6D1C2878C5
:10355000692865D006DC00288DD0632827D0642830
:1035600006D15DE06E2808D073282AD0752877D060
:10357000DDE90D129047761CE0E0C4F3025002280A
:1035800009D003280DD0D8F8001004280DD00E6003
:1035900008F10408D2E0D8F80010F217C1E900627F
:1035A000F6E7D8F800100E80F2E70E70F0E718F892
:1035B000041B8DF8001000208DF80100EB4601205F
:1035C00003E058F804BB4FF0FF3061074FF00007ED
:1035D00001D40AE07F1C57450DDA8742FADB1BF85D
:1035E00007100029F6D106E07F1C8742FCDB1BF8A0
:1035F00007100029F8D1DDE90D23A9EB070081466A
:10360000214600F0B1F83044C61904E0DDE90D129E
:103610001BF8010B90477F1EF8D22146484688E0F0
:1036200058F8040BC4F302514FF00A0B032900D1E0
:1036300000B2042900D140B2002802DA40422D2114
:1036400002E0210505D52B218DF82410012104E08D
:1036500006E0E10710D02021F6E708AF089113E05B
:1036600058F8040BC4F302514FF00A0B032900D1A0
:1036700080B2042900D1C0B20021EEE75946FCF720
:10368000DBFD303107F8011D0028F7D1ADEB070055
:1036900000F1200B600702D524F4803401E04FF0E4
:1036A000010ADA4502DDAAEB0B0000E000208246A9
:1036B00000EB0B0108980144A9EB01000A90E0031C
:1036C00006D4DDE90D2321460A9800F04DF80644A2
:1036D0004FF0000908E009A911F80900DDE90D1211
:1036E000904709F10109761C08998945F3DBE0034D
:1036F0000CD5DDE90D2321460A9800F035F8064483
:1037000004E0DDE90D1230209047761CBAF100018B
:10371000AAF1010AF5DC05E0DDE90D1217F8010B4D
:103720009047761CBBF10001ABF1010BF4DC0A9869
:103730002146DDE90D2300F005F806446D1C97E6EF
:10374000092801002DE9F041044600251E461746D0
:10375000880404D405E039462020B0476D1C641E5F
:10376000F9D52846BDE8F0812DE9F0410446002551
:103770001E469046C80301D5302700E02027880464
:1037800004D505E041463846B0476D1C641EF9D5A6
:103790002846BDE8F0810A68531C0B601070704722
:1037A000FCF7EEFFFFF73FFBFEF7E4FEFEF798FFA6
:1037B000FEF7E2FFFFF736F8FFF774FBFEF798FE1F
:1037C000FFF768FAFEF700FCFCF712FEF6E70000D0
:1037D00000000000000000000000000000000000E9
:1037E00000000000000000000000000000000000D9
:1037F00000000000000000000000000000000000C9
:1038000080018001800180018001800180018001B0
:1038100080018001800180018001000000008001A2
:103820008001000000000000000000000000000017
:103830000000CC00CC00CC00CC00CC00CC000000C0
:103840000000000000000000000000000000000078
:103850000000000000000000000000000000000068
:1038600000000000000000000000600C600C600C14
:1038700030063006FE1FFE1F300638071803FE1FF5
:10388000FE1F180318038C018C018C01000000003E
:103890008000E003F80F9C0E8C1C8C188C009800A4
:1038A000F801E007800E801C8C188C189C18B80C4E
:1038B000F00FE00380008000000000000000000026
:1038C000000000000E181B0C110C1106110611034C
:1038D00011039B018E01C038C06C604460443044C9
:1038E00030441844186C0C38000000000000000040
:1038F000E001F0033807180618063003F001F00065
:10390000F8009C310E33061E061C061C063FFC7395
:10391000F021000000000000000000000000000096
:1039200000000C000C000C000C000C000C0000004F
:103930000000000000000000000000000000000087
:103940000000000000000000000000000000000077
:10395000000200038001C000C00060006000300071
:1039600030003000300030003000300030006000A7
:103970006000C000C00080010003000200000000E1
:1039800020006000C00080018001000300030006E9
:1039900000060006000600060006000600060003FA
:1039A000000380018001C0006000200000000000D2
:1039B00000000000000000000000C000C000D806A9
:1039C000F807E001300338070000000000000000A5
:1039D00000000000000000000000000000000000E7
:1039E0000000000000000000000080018001800154
:1039F00080018001FC3FFC3F80018001800180014B
:103A00008001000000000000000000000000000035
:103A100000000000000000000000000000000000A6
:103A20000000000000000000000000000000000096
:103A30008001800100010001800000000000000002
:103A40000000000000000000000000000000000076
:103A5000000000000000E007E00700000000000098
:103A60000000000000000000000000000000000056
:103A70000000000000000000000000000000000046
:103A80000000000000000000000000000000000036
:103A9000C000C000000000000000000000000000A6
:103AA000000C000C000600060006000300030003E3
:103AB0008003800180018001C000C000C000600060
:103AC0006000000000000000000000000000000096
:103AD000E003F007380E180C0C180C180C180C1812
:103AE0000C180C180C180C180C18180C380EF007C1
:103AF000E0030000000000000000000000000000E3
:103B000000018001C001F00198018801800180015D
:103B1000800180018001800180018001800180019D
:103B20008001000000000000000000000000000014
:103B3000E003F80F180C0C180C1800180018000CF3
:103B4000000600038001C000600030001800FC1F68
:103B5000FC1F00000000000000000000000000004A
:103B6000E001F807180E0C0C0C0C000C0006C0034A
:103B7000C007000C001800180C180C18180CF807D7
:103B8000E003000000000000000000000000000052
:103B9000000C000E000F000F800DC00C600C600CBC
:103BA000300C180C0C0CFC3FFC3F000C000C000C03
:103BB000000C0000000000000000000000000000F9
:103BC000F80FF80F180018000C00EC03FC071C0E8F
:103BD000001C0018001800180C181C0C180EF80710
:103BE000E0030000000000000000000000000000F2
:103BF000C007F00F381C181818000C00CC03EC0F8D
:103C00003C0E1C1C0C180C180C18181C380EF00755
:103C1000E0030000000000000000000000000000C1
:103C2000FC1FFC1F000C000600060003800380013F
:103C3000C001C000E0006000600070003000300093
:103C40003000000000000000000000000000000044
:103C5000E003F007380E180C180C180C3806F007A3
:103C6000F007180C0C180C180C180C18380CF80F5E
:103C7000E003000000000000000000000000000061
:103C8000E003F007380E1C0C0C180C180C181C1C48
:103C9000381EF81BE0190018000C000C1C0EF80769
:103CA000F001000000000000000000000000000023
:103CB0000000000000000000000080018001000002
:103CC0000000000000000000000000000000800173
:103CD0008001000000000000000000000000000063
:103CE00000000000000000000000800180010000D2
:103CF0000000000000000000000000000000800143
:103D000080010001000180000000000000000000B0
:103D10000000000000000000000000000000001093
:103D2000001C800FE003F8001800F800E003800F8B
:103D3000001C001000000000000000000000000057
:103D40000000000000000000000000000000F81F5C
:103D5000000000000000F81F00000000000000004C
:103D60000000000000000000000000000000000053
:103D7000000000000000000000000000000008003B
:103D80003800F001C007001F0018001FC007F00135
:103D900038000800000000000000000000000000E3
:103DA000E003F80F180C0C180C180018000C000693
:103DB00000038001C000C000C00000000000C0007F
:103DC000C000000000000000000000000000000033
:103DD0000000E00718180420C229224A11440944AF
:103DE0000944094409221113E20C02400420181866
:103DF000E0070000000000000000000000000000DC
:103E000080038003C006C006C006600C600C30183A
:103E100030183018F83FF83F1C700C600C6006C07A
:103E200006C00000000000000000000000000000CC
:103E3000FC03FC0F0C0C0C180C180C180C0CFC07D9
:103E4000FC0F0C180C300C300C300C300C18FC1F14
:103E5000FC0700000000000000000000000000005F
:103E6000C007F01F38381C300C70066006000600D2
:103E7000060006000600060006600C701C30F01FED
:103E8000E00700000000000000000000000000004B
:103E9000FE03FE0F060E0618061806300630063022
:103EA000063006300630063006180618060EFE0FDD
:103EB000FE03000000000000000000000000000001
:103EC000FC3FFC3F0C000C000C000C000C00FC1F25
:103ED000FC1F0C000C000C000C000C000C00FC3F44
:103EE000FC3F000000000000000000000000000097
:103EF000F83FF83F18001800180018001800F81FC5
:103F0000F81F1800180018001800180018001800F2
:103F10001800000000000000000000000000000089
:103F2000E00FF83F3C780E6006E007C00300030096
:103F300003FE03FE03C007C006C00EC03CF0F83FFE
:103F4000E00F000000000000000000000000000082
:103F50000C300C300C300C300C300C300C30FC3F82
:103F6000FC3F0C300C300C300C300C300C300C3072
:103F70000C30000000000000000000000000000005
:103F80008001800180018001800180018001800129
:103F90008001800180018001800180018001800119
:103FA0008001000000000000000000000000000090
:103FB00000060006000600060006000600060006D1
:103FC0000006000600060006180618063807F0036B
:103FD000E001000000000000000000000000000000
:103FE00006300618060C060606038601C6006600A3
:103FF0007600DE008E0106030606060C0618063063
:10400000066000000000000000000000000000004A
:1040100018001800180018001800180018001800E0
:104020001800180018001800180018001800F81FD1
:10403000F81F000000000000000000000000000069
:104040000EE01EF01EF01EF036D836D836D836D820
:1040500066CC66CC66CCC6C6C6C6C6C6C6C686C351
:1040600086C3000000000000000000000000000007
:104070000C301C303C303C306C306C30CC30CC30B0
:104080008C310C330C330C360C360C3C0C3C0C389D
:104090000C300000000000000000000000000000E4
:1040A000E007F81F1C380E70066003C003C003C091
:1040B00003C003C003C003C006600E701C38F81FA5
:1040C000E007000000000000000000000000000009
:1040D000FC0FFC1F0C380C300C300C300C300C1862
:1040E000FC1FFC070C000C000C000C000C000C006A
:1040F0000C000000000000000000000000000000B4
:10410000E007F81F1C380E70066003E003C003C010
:1041100003C003C003C007E006630E3F1C3CF83F2A
:10412000E0F700C0000000000000000000000000F8
:10413000FE0FFE1F06380630063006300638FE1F1A
:10414000FE0706030606060C06180618063006309B
:1041500006600000000000000000000000000000F9
:10416000E003F80F1C0C0C180C180C001C00F803D2
:10417000E00F001E0038063006300E301C1CF80F11
:10418000E007000000000000000000000000000048
:10419000FE7FFE7F8001800180018001800180011F
:1041A0008001800180018001800180018001800107
:1041B000800100000000000000000000000000007E
:1041C0000C300C300C300C300C300C300C300C300F
:1041D0000C300C300C300C300C300C301818F81F30
:1041E000E0070000000000000000000000000000E8
:1041F00003600630063006300C180C180C18180C2A
:10420000180C380E30063006700760036003C001DA
:10421000C0010000000000000000000000000000DD
:104220000360C361C361C36166336633663366335B
:10423000663366336C1B6C1B6C1B2C1A3C1E380ED1
:10424000380E000000000000000000000000000028
:104250000FE00C7018303018700C600EC00780032F
:104260008003C003E006700C301C18180C300E6080
:1042700007E0000000000000000000000000000057
:1042800003C006600C301C383818300C6006E0079C
:10429000C0038001800180018001800180018001D4
:1042A000800100000000000000000000000000008D
:1042B000FC7FFC7F006000300018000C000600034B
:1042C0008001C0006000300018000C000600FE7F76
:1042D000FE7F000000000000000000000000000061
:1042E000E003E003600060006000600060006000C8
:1042F00060006000600060006000600060006000BE
:104300006000600060006000E003E0030000000067
:1043100030003000600060006000C000C000C000DD
:10432000C00180018001800100030003000300063A
:104330000006000000000000000000000000000077
:10434000E003E00300030003000300030003000395
:104350000003000300030003000300030003000345
:104360000003000300030003E003E003000000007B
:104370000000C001C0016003600360033006300626
:10438000180C180C000000000000000000000000E5
:10439000000000000000000000000000000000001D
:1043A000000000000000000000000000000000000D
:1043B00000000000000000000000000000000000FD
:1043C000FFFFFFFF000000000000000000000000F1
:1043D0000C000C000C000C000C000C000000000095
:1043E00000000000000000000000000000000000CD
:1043F00000000000000000000000000000000000BD
:1044000000000000000000000000F003F8071C0C92
:104410000C0C000FF00FF80C0C0C0C0C1C0FF80F10
:10442000F018000000000000000000000000000084
:1044300018001800180018001800D803F80F380CDE
:10444000181818181818181818181818380CF80F01
:10445000D803000000000000000000000000000081
:1044600000000000000000000000C003F007300E54
:10447000180C1800180018001800180C300EF0075F
:10448000C003000000000000000000000000000069
:1044900000180018001800180018C01BF01F301C6E
:1044A000181818181818181818181818301CF01F91
:1044B000C01B000000000000000000000000000021
:1044C00000000000000000000000C003F00F300CEE
:1044D0001818F81FF81F180018003818301CF00FB3
:1044E000C007000000000000000000000000000005
:1044F000800FC00FC000C000C000F007F007C00070
:10450000C000C000C000C000C000C000C000C000AB
:10451000C0000000000000000000000000000000DB
:1045200000000000000000000000E00DF80F180E71
:104530000C0C0C0C0C0C0C0C0C0C0C0C180EF80FBE
:10454000E00D000C0C0C1C06F807F0010000000048
:1045500018001800180018001800D807F80F381CA9
:1045600018181818181818181818181818181818CB
:10457000181800000000000000000000000000000B
:10458000C000C000000000000000C000C000C0006B
:10459000C000C000C000C000C000C000C000C0001B
:1045A000C00000000000000000000000000000004B
:1045B000C000C000000000000000C000C000C0003B
:1045C000C000C000C000C000C000C000C000C000EB
:1045D000C000C000C000C000F8007800000000006B
:1045E0000C000C000C000C000C000C0C0C060C0356
:1045F0008C01CC006C00FC009C018C030C030C06AD
:104600000C0C000000000000000000000000000092
:10461000C000C000C000C000C000C000C000C0009A
:10462000C000C000C000C000C000C000C000C0008A
:10463000C0000000000000000000000000000000BA
:10464000000000000000000000007C3CFF7EC7E38B
:1046500083C183C183C183C183C183C183C183C13A
:1046600083C1000000000000000000000000000006
:10467000000000000000000000009807F80F381C40
:1046800018181818181818181818181818181818AA
:1046900018180000000000000000000000000000EA
:1046A00000000000000000000000C003F00F300C0C
:1046B000181818181818181818181818300CF00F9F
:1046C000C003000000000000000000000000000027
:1046D00000000000000000000000D803F80F380CB4
:1046E000181818181818181818181818380CF80F5F
:1046F000D803180018001800180018000000000067
:1047000000000000000000000000C01BF01F301C73
:10471000181818181818181818181818301CF01F1E
:10472000C01B001800180018001800180000000036
:1047300000000000000000000000B007F00370005F
:1047400030003000300030003000300030003000E9
:104750003000000000000000000000000000000029
:1047600000000000000000000000E003F003380E2D
:10477000180C3800F003C007000C180C380EF007B6
:10478000E003000000000000000000000000000046
:1047900000008000C000C000C000F007F007C000AB
:1047A000C000C000C000C000C000C000C000C00702
:1047B0008007000000000000000000000000000072
:1047C0000000000000000000000018181818181859
:1047D000181818181818181818181818381CF01F56
:1047E000E0190000000000000000000000000000D0
:1047F000000000000000000000000C18180C180C4D
:10480000180C300630063006600360036003C001F8
:10481000C0010000000000000000000000000000D7
:1048200000000000000000000000C141C141C36160
:104830006363636363633636363636361C1C1C1C72
:104840001C1C000000000000000000000000000030
:10485000000000000000000000001C38381C300C74
:10486000600660036003600360036006300C381C60
:104870001C380000000000000000000000000000E4
:104880000000000000000000000018303018301850
:104890007018600C600CE00CC006C006800380033A
:1048A000800380018001C001F00070000000000062
:1048B00000000000000000000000FC1FFC1F000CB6
:1048C000000600038001C000600030001800FC1FDB
:1048D000FC1F0000000000000000000000000000BD
:1048E00000038001C000C000C000C000C000C000C4
:1048F00060006000300060004000C000C000C000E8
:10490000C000C000C00080010003000000000000E3
:10491000800180018001800180018001800180018F
:10492000800180018001800180018001800180017F
:104930008001800180018001800180010000000071
:104940006000C000C0018001800180018001800101
:1049500000030003000600030001800180018001C4
:10496000800180018001C0006000000000000000A4
:104970000000000000000000000000000000F01037
:10498000F81F080F000000000000000000000000F9
:104990000000000000000000000000000000000017
:1049A00000000000000001020304060708090000DF
:1049B000D0490008000000202C02000088020008F6
:1049C000884A00082C020020F40400004434000847
:1049D0002143FFFF321082012B24F40E2A011049DB
:1049E0001E0122161060C0C08042F842F052FC2B1B
:1049F0000818013B9858458905311C0606035F2AB3
:104A00003F1F5A1F052132801AFE416C10101004FE
:104A10002B10909A1C818342392F47C44444474449
:104A2000043EC404840702B213103FAB040C0139E6
:104A30001829892D20C080804ED16AFF913908390C
:104A4000012A08A8121F3C0406024E0111178040DB
:104A50002018F8103BC040012BC0402F2A1C2D19F4
:104A6000A97A0FD169D8199416060C1F18103B07A4
:104A70000201140302020A6A20010A3631393C306D
:084A8000303A0309182200007E
:04000005080001D915
:00000001FF
